:02000000ff00ff
:080002004c6174746963650030
:17000a00694345637562653220323032302e31322e32373934330071
:16002100506172743a2069434534304858344b2d545131343400f9
:1b003700446174653a2053657020313320323032352032313a31323a3339007b
:0200520000ffad
:040054007eaa997e69
:02005800510055
:02005a0001059e
:03005c00920020ef
:03005f00620367d2
:0300620072011018
:0300650082000016
:02006800110085
:02006a00010192
:20006c000000000000000000000000000000000000000000000000800000000000000000f4
:20008c00000000000400500000000000000000000000000000000000000000000000000000
:2000ac00000000000200000000000008000000000000000000000000000000000000000228
:0d00cc00000000000000080000000000001f
:2000d900000000000000000000000000000000000000000000000000000000000000000007
:2000f9000000000000000800000000000000000000000000000000000000000000000000df
:200119000000000000000000000000000000000000000000000000000000000000000000c6
:0d01390000000000000000000000000000b9
:20014600000000000000000000000000000000000000000000000040000000000000000059
:2001660000060000040000000000001000000000000000000000000000000000000000005f
:2001860000000000010000000000000400d000000000000000000000000000000000000183
:0d01a6000000000000000400000000000048
:2001b30000000000000000000000000000000000000000000000000000000000000000002c
:2001d30000000000000000000000000000000000000000000000000000000000000000000c
:2001f3000000000000000000000000000000000000000000000000000000000000000000ec
:0d02130000000000000000000000000000de
:2002200000000000000000000000000000000000000000000000008000000100000000003d
:200240000000000008000000c00000000000000000000000000000000000000000000000d6
:20026000000000000200000000000008000000300000000000000000000000000000000242
:0d0280000000000400000800000000000065
:20028d00000000000000000000000000000000000000000000000000000001000000000050
:2002ad000000000000000000c0000000000000000000000000000000000000000000000071
:2002cd000000000000000000040000000000001000000000000000000000000000000000fd
:0d02ed000000000c000000000000000000f8
:2002fa000000000000000000000000000000000000000000000000000000000000000000e4
:20031a000000000000000000000000100000000000000000000000000000000000000000b3
:20033a000000000000000000000000000000000000000000000000000000000000000000a3
:0d035a000000000000000000000000000096
:20036700000000000000000000000000000000000000000000000000000000000000000076
:20038700000000000000000000000000000000000000000000000000000000000000000056
:2003a700000000000000000000000000000000000000000000000000000000000000000036
:0d03c7000000000000000000000000000029
:2003d40000000000000800000000000020000000000000800000000000020000000000005f
:2003f4000800000000000020000000000000c000000000000200000000008000000000007f
:2004140002000000000000080000000000002000000000000080000000000002000000001c
:0d043400001e080000000000002000000075
:2004410000000000000000000000000000000000000000000000000000000000000000009b
:2004610000000000000000000000000000000000000000000000000000000000000000007b
:2004810000000000000000000000000000000000000000000000000000000000000000005b
:0d04a100000000000000000000000000004e
:2004ae000000000000000000000000000000000000000000000000000080000000000000ae
:2004ce00000000000000000000000000000000000000000d00010000000000000000000000
:2004ee000000000000000000000000000000001000000000000000000000000000000000de
:0d050e00000004000000000050001000007c
:20051b000000000000000000000000000000000000000000000000000500000000000000bb
:20053b0000000000000000000000000000000000000080000001000000000000000000001f
:20055b00000000000000000000000008000000000000000000003000000000000000000048
:0d057b0000000800000008008000100000d3
:20058800000000000000000000000000000000000000000000000000000000000000000053
:2005a8000000000000000000000000000000008000000000000000000000000000000000b3
:2005c8000000000000000000000000000000000000000000e00080000000000100000000b2
:0d05e80000000800000000000010000000ee
:2005f5000000000000000000000000000000000000000000000000000000000000000000e6
:20061500000000000000000000000000000000000000400000000000000000000000000085
:200635000000000000000000000000040000000000000000000000000000000000000000a1
:0d0655000000040000000400000000000090
:20066200000000000004000000000000100000000000004000000000000100000000000023
:200682000400000000000010000000000000400000000000010000000000400000000000c3
:2006a20001000000000000040000000000b0100000000000004040000000000100000000f2
:0d06c2000000040000000000001000000017
:2006cf0000000000000000000000000000000000000000000000000000000000000000000b
:2006ef0000000000000000000000000000000000000080000000000000000000000000006b
:20070f000000000000001600080000080000000000000000000000000000000000000000a4
:0d072f000000001000000800001000000095
:20073c0000000000000000000000000000000000000000000000000000000000000000009d
:20075c0000000000000000000000000000000000000000000000000000000000000000007d
:20077c0000000000000000000000000000000000000000000000000000000000000000005d
:0d079c000000000000000000000000000050
:2007a90000020000000000000000000000000000000000000000000000000000000000002e
:2007c900000000000000000000000000000000000000000000000000000000000000000010
:2007e9000000000000000000000000000000000000000000000000000000000000000000f0
:0d08090000000000000000000000000000e2
:200816000000000000000000000000000000000000000000000000000000000000000000c2
:200836000000000000000000000000000000000000000000000000000000000000000000a2
:20085600000000000000000000000000000000000000000000000000000000000000000082
:0d0876000000000000000000000000000075
:20088300000000000000000000000000000000000000000000000000000000000000000055
:2008a300000000000000000000000000000000000000000000000000000000000000000035
:2008c300000000000000000000000000000000000000000000000000000000000000000015
:0d08e3000000000000000000000000000008
:2008f0000000000000000000000000000000000000000000000000000000000000000000e8
:200910000000000000000000000000000000000000000000000000000000000000000000c7
:2009300000000000000000000000000000000000000028000000000000000000000000007f
:0d095000000000000000000000000000009a
:20095d0000000000000000000000000000000000000000000000000000000000000000007a
:20097d0000000000000000000000000000000000000000000000000000000000000000005a
:20099d0000000000000000000000000000000000000000000000000000000000000000003a
:0d09bd00000000000000000000000000002d
:2009ca00000100000000000000000000000000000000000000000000000000000000000408
:2009ea000000000000000000000000000000000000000000000000000000000000000000ed
:200a0a000000000000000000000000000000000000000000000000000000000000000000cc
:0d0a2a0000000000000000000000000000bf
:200a370000000000000000000000000000000000000000000000000000000000000000009f
:200e7900000200000000000000000000000000000000000000000000000000000000000057
:200e9900000000000000000000000000000000000000000000000000000000000000000039
:200eb900000000000000000000000000000000000000000000000000000000000000000019
:0d0ed900000000000000000000000000000c
:200ee6000000000000000000000000000000000000000000000000000000000000000000ec
:200f06000000000000000000000000000000000000000000000000000000000000000000cb
:200f26000000000000000000000000000000000000000000000000000000000000000000ab
:0d0f4600000000000000000000000000009e
:200f530000000000000000000000000000000000000000000000000000000000000000007e
:200f730000000000000000000000000000000000000000000000000000000000000000005e
:200f930000000000000000000000000000000000000000000000000000000000000000003e
:0d0fb3000000000000000000000000000031
:200fc000000000000000000000000000000000000000000000000000000000000000000011
:200fe0000000000000000000000000000000000000000000000000000000000000000000f1
:201000000000000000000000000000000000000000000000000000000000000000000004cc
:0d10200000000000000000000000000000c3
:20102d000000000000000000000000000000000000000000000000000000000000000000a3
:20104d00000000000000000000000000000000000000000000000000000000000000000083
:20106d00000000000000000000000000000000000000000000000000000000000000000063
:0d108d000000000000000000000000000056
:20109a00000100000000000000000000000000000000000000000000000000000000000035
:2010ba00000000000000000000000000000000000000000000000000000000000000000016
:2010da000000000000000000000000000000000000000000000000000000000000000000f6
:0d10fa0000000000000000000000000000e9
:201107000000000000000000000000000000000000000000000000000000000000000000c8
:201127000000000000000000000000000000000000000000000000000000000000000000a8
:20114700000000000000000000000000000000000000000000000000000000000000000088
:0d116700000000000000000000000000007b
:2011740000000000000000000000000000000000000000000000000000000000000000005b
:2011940000000000000000000000000000000000000000000000000000000000000000003b
:2011b40000000000000000000000000000000000000000000000000000000000000000001b
:0d11d400000000000000000000000000000e
:2011e1000000000000000000000000000000000000000000000000000000000000000000ee
:201201000000000000000000000000000000000000000000000000000000000000000000cd
:201221000000000000000000000000000000000000000000000000000000000000000000ad
:0d12410000000000000000000000000000a0
:20124e00000000000000000000000000000000000000000000000000000000000000000080
:20126e00000000000000000000000000000000000000000000000000000000000000000060
:20128e00000000000000000000000000000000000000000000000000000000000000000040
:0d12ae000000000000000000000000000033
:2012bb00000000000000000000000000000000000000000000000000000000000000000013
:2012db000000000000000000000000000000000000000000000000000000000000000000f3
:2012fb000000000000000000000000000000000000000000000000000000000000000000d3
:0d131b0000000000000000000000000000c5
:201328000000000000000000000000000000000000000000000000000000000000000000a5
:20134800000000000000000000000000000000000000000000000000000000000000000085
:20136800000000000000000000000010000000000000000000000000000000000000000055
:0d1388000000000000000000000000000058
:20139500000000000000000000000000000000000000000000000000000000000000000038
:2013b500000000000000000000000000000000000000000000000000000000000000000018
:2013d5000000000000000000000000000000000000000000000000000000000000000000f8
:0d13f50000000000000000000000000000eb
:201402000000000000000000000000000000000000000000000000000000000000000000ca
:201422000000000000000000000000000000000000000000000000000000000000000000aa
:2014420000000000000000000000000000000000000000000000000000000000000000008a
:0d146200000000000000000000000000007d
:20146f0000000000000000000000000000000000000000000000000000000000000000005d
:20148f0000000000000000000000000000000000000000000000000000000000000000003d
:2014af0000000000000000000000000000000000000000000000000000000000000000001d
:0d14cf000000000000000000000000000010
:2014dc000000000000000000000000000000000000000000000000000000000000000000f0
:2014fc000000000000000000000000000000000000000000000000000000000000000000d0
:20151c000000000000000000000000000000000000000000000000000000000000000000af
:0d153c0000000000000000000000000000a2
:20154900000200000000000000000000000000000000000000000000000000000000000080
:20156900000000000000000000000000000000000000000000000000000000000000000062
:20158900000000000028000000000000000000000000028000000000000000000000000098
:0d15a9000000000000000000000000000035
:2015b600000000000000000000000000000000000000000000000000000000000000000015
:2015d6000000000000000000000000000000000000000000000000000000000000000000f5
:2015f6000000000000000000000000000000000000000000000000000000000000000000d5
:0d16160000000000000000000000000000c7
:201623000000000000000000000000000000000000000000000000000000000000000000a7
:20164300000000000000000000000000000000000000000000000000000000000000000087
:20166300000000000000000000000000000000000000000000000000000000000000000067
:0d168300000000000000000000000000005a
:2016900000000000000000000000000000000000000000000000000000000000000000003a
:2016b00000000000000000000000000000000000000000000000000000000000000000001a
:2016d0000000000000000000000000000000000000000000000000000000000000000000fa
:0d16f00000000000000000000000000000ed
:2016fd000000000000000000000000000000000000000000000000000000000000000000cd
:20171d000000000000000000000000000000000000000000000000000000000000000000ac
:20173d0000000000000000000000000000000000000000000000000000000000000000008c
:0d175d00000000000000000000000000007f
:20176a0000010000000000000000000000000000000000000000000000000000000000005e
:20178a0000000000000000000000000000000000000000000000000000000000000000003f
:2017aa0000000000000000000000000000000000000000000000000000000000000000001f
:0d17ca000000000000000000000000000012
:2017d7000000000000000000000000000000000000000000000000000000000000000000f2
:2017f7000000000000000000000000000000000000000000000000000000000000000000d2
:201817000000000000000000000000000000000000000000000000000000000000000000b1
:0d18370000000000000000000000000000a4
:20184400000000000000000000000000000000000000000000000000000000000000000084
:20186400000000000000000000000000000000000000000000000000000000000000000064
:20188400000000000000000000000000000000000000000000000000000000000000000044
:0d18a4000000000000000000000000000037
:2018b100000000000000000000000000000000000000000000000000000000000000000017
:2018d1000000000000000000000000010000000000000000000000000000000000000000f6
:2018f1000000000000000000000000000000000000000100000000000000000000000000d6
:0d19110000000000000000000000000000c9
:20191e000000000000000000000000000000000000000000000000000000000000000000a9
:20193e00000000000000000000000000000000000000000000000000000000000000000089
:20195e00000000000000000000000000000000000000000000000000000000000000000069
:0d197e00000000000000000000000000005c
:20198b0000000000000000000000000000000000000000000000000000000000000000003c
:2019ab0000000000000000000000000000000000000000000000000000000000000000001c
:2019cb000000000000000000000000000000000000000000000000000000000000000000fc
:0d19eb0000000000000000000000000000ef
:2019f8000000000000000000000000000000000000000000000000000000000000000000cf
:201a18000000000000000000000000000000000000000000000000000000000000000000ae
:201a380000000000000000000000000000000000000000000000000000000000000000008e
:0d1a58000000000000000000000000000081
:201a6500000000000000000000000000000000000000000000000000000000000000000061
:201a8500000000000000000000000000000000000000000000000000000000000000000041
:201aa500000000000000000000000000000000000000000000000000000000000000000021
:0d1ac5000000000000000000000000000014
:201ad2000000000000000000000000000000000000000000000000000000000000000000f4
:201af2000000000000000000000000000000000000000000000000000000000000000000d4
:201b12000000000000000000000000000000000000000000000000000000000000000000b3
:0d1b320000000000000000000000000000a6
:201b3f00000000000000000000000000000000000000000000000000000000000000000086
:201b5f00000000000000000000000000000000000000000000000000000000000000000066
:201b7f00000000000000000000000000000000000000000000000000000000000000000046
:0d1b9f000000000000000000000000000039
:201bac00000000000000000000000000000000000000000000000000000000000000000019
:201bcc000000000000000000000000000000000000000000000000000000000000000000f9
:201bec000000000000000000000000000000000000000000000000000000000000000000d9
:0d1c0c0000000000000000000000000000cb
:201c19000002000000000000000000000000000000000000000000000000000000000000a9
:201c390000000000000000000000000000000000000000000000000000000000000000008b
:201c590000000000000000000000000000000000000000000000000000000000000000006b
:0d1c7900020000000000000000000000005c
:201c860000000000000000000000000000000000000000000000000000000000000000003e
:201ca60000000000000000000000000000000000000000000000000000000000000000001e
:201cc6000000000000000000000000000000000000000000000000000000000000000000fe
:0d1ce60000000000000000000000000000f1
:201cf300800000000000000000000000000000000000000000000000000000000000000051
:201d13000000000000000000000000000000000000000000000000000000000000000000b0
:201d3300000000000000000000000000000000000000000000000000000000000000000090
:0d1d53000000000000000000000000000083
:201d6000000000000000000000000000000000000000000000000000000000000000000063
:201d8000000000000000000000000000000000000000000000000000000000000000000043
:201da000000000000000000000000000000000000000000000000000000000000000000023
:0d1dc0000000000000000000000000000016
:201dcd00800000000000000000100000000000000000000000000000000000000000000066
:201ded000000000000000000000000000000000000000000000000000000000000000000d6
:201e0d000000000000000000000000000000000000000000000000000000000000000000b5
:0d1e2d0000000000000000000000000000a8
:201e3a00000300000000000000000000000000000000000000000000000000000000000085
:201e5a00000000000000000000000000000000000000000000000000000000000000000068
:201e7a00000000000000000000000000000000000000000000000000000000000000000048
:0d1e9a00000000000000000000000000003b
:201ea70000000000000000000000000000000000000000000000010000000000000000001a
:201ec7000000000000000000000000000000000000000000000000000000000000000000fb
:201ee7000000000000000000000000000000000000000000000000000100000000000000da
:0d1f070000000000000000000000000000cd
:201f140040000000000000000000000000000000000000000000000000000000000000006d
:201f340000000000000000000000000000000000000000000000000000000000000000008d
:201f540000000000000000000000000000000000000000000000000000000000000000006d
:0d1f74000000000000000000000000000060
:201f810000020000000000000000000000000000000000000000000000000000000000003e
:201fa100000000000000000000000000000000000000000000000000000000000000000020
:201fc100000000000000000000000000000000000000000000000000000000000000000000
:0d1fe10000000000000000000000000000f3
:201fee000000000000000000000000000000000000000000000000000000000000000000d3
:20200e000000000000000000000000000000000000000000000000000000000000000000b2
:20202e00000000000000000000000000000000000000000000000000000000000000000092
:0d204e000000000000000000000000000085
:20205b00000000000000000000000000000000000000000000000000000000000000000065
:20207b00000000000000000000000000000000000000000000000000000000000000000045
:20209b00000000000000000000000000000000000000000000000000000000000000000025
:0d20bb000000000000000000000000000018
:2020c8000000000000000000000000000000000000000000000000000000000000000000f8
:2020e8000000000000000000000000000000000000000000000000000000000000000000d8
:20210800000000000000000000000000000000000000400000000000000000000000000077
:0d21280000000000000000000000000000aa
:2021350080000000000000000000000000000000000000000000000000000000000000000a
:2021550000000000000000000000000000000000000000000000000000000000000000006a
:2021750000000000000000000000000000000000000000000000000000000000000000004a
:0d219500000000000000000000000000003d
:2021a20000000000000000000000000000000000000000000000000000000000000000001d
:2021c2000000000000000000000000000000000000000000000000000000000000000000fd
:2021e2000000000000000000000000000000000000000000000000000000000000000000dd
:0d22020000000000000000001000000000bf
:20220f000000000000000000000000000000000000000000000000000000000000000000af
:20222f0000000000000000000000000000000000000000000000000000000000000000008f
:20224f0000000000000000000000000000000000000000000000000000000000000000006f
:0d226f000000000000000000000000000062
:20227c00000000000000000000000000000000000000000000000000000000000000000042
:20229c00000000000000000000000000000000000000000000000000000000000000000022
:2022bc00000000000000000000000000000000000000000000000000000000000000000002
:0d22dc0000000000000000000000000000f5
:2022e900800200000000000000000000000000000000000000000000000000000000000053
:202309000000000000000000000000000000000000000000000000000000000000000000b4
:20232900000000000000000000000000000000000000000000000000000000000000000094
:0d2349000000000000000000000000000087
:20235600000000000000000000000000000000000000000000000000000000000000000067
:20237600000000000000000000000000000000000000000000000000000000000000000047
:20239600000000000000000000000000000000000000000000000000000000000000000027
:0d23b600000000000000000000000000001a
:2023c30080000000000000000000000000000000000000000000000000000000000000007a
:2023e3000000000000000000000000000000000000000000000000000000000000000000da
:202403000000000000000000000000000000000000000000000000000000000000000000b9
:0d24230000000000000000000000000000ac
:2024300000000000000000000000000000000000000000000000010000000000000000008b
:2024500000000000000000000000000000000000000000000000000000000000000200006a
:2024700000000000000000000000000000000000000000000000000000000000000000004c
:0d249000000000000000000000000000003f
:20249d0000000000000000000010000000000000000000000000000000000000000000000f
:2024bd000000000000000000000000000000000000000000000000000000000000000000ff
:2024dd000000000000000000000000000000000000000000000000000000000000000000df
:0d24fd0000000000000000000000000000d2
:20250a000003000000000000000000000000000000000000000000000000000000000000ae
:20252a00000000000000000000000000000000000000000000000000000000000000000091
:20254a00000000000000000000000000000000000000000000000000000000000000000071
:0d256a000000000000000000000000000064
:20257700000000000000000000000000000000000000000000000000000000000000000044
:20259700000000000000000000000000000000000000000000000000000000000000000024
:2025b700000000000000000000000000000000000000000000000000010000000000000003
:0d25d70000000000000000000000000000f7
:2025e400400000000000000000000000000000000000000000000000000000000000000097
:202604000000000000000000000000000000000000020000000000000000000000000000b4
:20262400000000000000000000000000000000000000000000000000000000000000000096
:0d2644000000000000000000000000000089
:20265100000200000000000000000000000000000000000000000000000000000000000067
:20267100000000000000000000000000000000000000000000000000000000000000000049
:20269100000000000000000000000000000000000000030000000000000000000000000026
:0d26b100000000000000000000000000001c
:2026be000000000000000000000000000000000000000000000000000000000000000000fc
:2026de000000000000000000000000000000000000000000000000000000000000000000dc
:2026fe000000000000000000000000000000000000000000000000000000000000000000bc
:0d271e0000000000000000000000000000ae
:20272b0000000000000000000000000000000000000000000000000000000000000000008e
:20274b0000000000000000000000000000000000000000000000000000000000000000006e
:20276b0000000000000000000000000000000000000000000000000000000000000000004e
:0d278b000000000000000000000000000041
:20279800000000000000000000000000000000000000000000000000000000000000000021
:2027b800000000000000000000000000000000000000000000000000000000000000000001
:2027d8000000000000000000000000000000000000000000000000000000000000000000e1
:0d27f80000000000000000000000000000d4
:20280500800000000000000000000000000000000000000000000000000000000000000033
:20282500000000000000000000000000000000000000000000000000000000000000000093
:20284500000000000000000000000000000000000000000000000000000000000000000073
:0d2865000000000000000000000000000066
:20287200000000000000000000000000000000000000000000000000000000000000000046
:20289200000000000000000000000000000000000000000000000000000000000000000026
:2028b200000000000000000000000000000000000000000000000000000000000000000006
:0d28d20000000000000000000000000000f9
:2028df000000000000000000000000000000000000000000000000000000000000000000d9
:2028ff000000000000000000000000000000000000000000000000000000000000000000b9
:20291f00000000000100000000000000000000000000000000000000000000000000000097
:0d293f00000000000000000000000000008b
:20294c0000000000000000000000000000000000000000000000000000000000000000006b
:20296c0000000000000000000000000000000000000000000000000000000000000000004b
:20298c0000000000000000000000000000000000000000000000000000000000000000002b
:0d29ac00000000000000000000000000001e
:2029b9000002000000000000000000000000000000000000000000000000000000000000fc
:2029d9000000000000000000000000000000000000000000000000000000000000000000de
:2029f9000000000000000000000000000000000000000000000000000000000000000000be
:0d2a190000000000000000000000000000b0
:202a2600000000000000000000000000000000000000000000000000000000000000000090
:202a4600000000000000000000000000000000000000000000000000000000000000000070
:202a6600000000000000000000000000000000000000000000000000000000000000000050
:0d2a86000000000000000000000000000043
:202a93008000000000000000000000000000000000000000000000000000000000000000a3
:202ab300000000000000000000000000000000000000000000000000000000000000000003
:202ad3000000000000000000000000000000000000000000000000000000000000000000e3
:0d2af30000000000000000000000000000d6
:202b00000000000000000000000000000000000000000000000000000000000000000000b5
:202b2000000000000000000000000000000000000000000000000000000000000000000095
:202b4000000000000000000000000000000000000000000000000000000000000000000075
:0d2b60000000000000000000000000000068
:202b6d008000000000000000001000000000000000000000000001000000000000000000b7
:202b8d00000000000000000000000000000000000000000000000000000000000000000028
:202bad00000000000000000000000000000000000000000000000000000000000000000008
:0d2bcd0000000000000000000000000000fb
:202bda000003000000000000000000000000000000000000000000000000000000000000d8
:202bfa000000000000000000000000000000000000000000000000000000000000000000bb
:202c1a0000000000000000000000000000000000000000000000000000000000000000009a
:0d2c3a00000000000000000000000000008d
:202c470000000000000000000000000000000000000000000000000000000000000000006d
:202c670000000000000000000000000000000000000000000000000000000000000000004d
:202c87000000000000000000000000000000000000000000400000000100000000000000ec
:0d2ca7000000000000001000000000000010
:202cb4004000000000000000000000000000000000000000000000000000000000000000c0
:202cd4000000000000000000000000000000000000000000000000000000000000000000e0
:202cf4000000000000000000000000000000000000000000000000000000000000000000c0
:0d2d140000000000000000000000000000b2
:202d2100000200000000000000000000000000000000000000000000000000000000000090
:202d4100000000000000000000000000000000000000000000000000000000000000000072
:202d6100000000000000000000000000000000000000000000000000000000000000000052
:0d2d81000000000000000000000000000045
:202d8e00000000000000000000000000000000000000000000000000000000000000000025
:202dae00000000000000000000000000000000000000000000000000000000000000000005
:202dce000000000000000400000000000000000000000000400000000000000000000000a1
:0d2dee0000000000000000000000000000d8
:202dfb000000000000000000000000000000000000000000000000000000000000000000b8
:202e1b00000000000000000000000000000000000000000000000000000000000000000097
:202e3b00000000000000000000000000000000000000000000000000000000000000000077
:0d2e5b00000000000000000000000000006a
:202e680000000000000000000000000000000000000000000000000000000000000000004a
:202e880000000000000000000000000000000000000000000000000000000000000000002a
:202ea80000000000000000000000000000000000000000000000000000000000000000000a
:0d2ec80000000000000000000000000000fd
:202ed50080000000000000000000000000000000000000000000000000000000000000005d
:202ef5000000000000000000000000000000000000000000000000000000000000000000bd
:202f150000000000000000000000000000000000000000000000000000000000000000009c
:0d2f3500000000000000000000000000008f
:202f420000000000000000000000000000000000000000000000000000000000000000006f
:202f620000000000000000000000000000000000000000000000000000000000000000004f
:202f820000000000000000000000000000000000000000000000000000000000000000002f
:0d2fa2000000000000000000000000000022
:202faf00000000000000000000000000000000000000000000000000000000000000000002
:202fcf000000000000000000000000000000000000000000000000000000000000000000e2
:202fef000000000000000000000000000000000000000000000000000000000000000000c2
:0d300f0000000000000000000000000000b4
:20301c00000000000000000000000000000000000000000000000000000000000000000094
:20303c00000000000000000000000000000000000000000000000000000000000000000074
:20305c00000000000000000000000000000000000000000000000000000000000000000054
:0d307c000000000000000000000000000047
:20308900000200000000000000000000000000000000000000000000000000000000000025
:2030a900000000000000000000000000000000000000000000000000000000000000000007
:2030c9000000000000000000000000000000000000000000000000000000000000000000e7
:0d30e90000000000000000000000000000da
:2030f6000000000000000000000000000000000000000000000000000000000000000000ba
:20311600000000000000000000000000000000000000000000000000000000000000000099
:20313600000000000000000000000000000000000000000000000000000000000000000079
:0d315600000000000000000000000000006c
:2031630000000000000000000000000000000000000000000000000000000000000000004c
:2031830000000000000000000000000000000000000000000000000001000000000000002b
:2031a30000000000000000000000000000000000000000000000000000000000000000000c
:0d31c30000000000000000000000000000ff
:2031d0000000000000000000000000000000000000000000000000000000000000000000df
:2031f0000000000000000000000000000000000000000000000000000000000000000000bf
:2032100000000000000000000000000000000000000000000000000000000000000000009e
:0d3230000000000000000020000000000071
:20323d00000000000000000000000000000000000000000000000000000000000000000071
:20325d00000000000000000000000000000000000000000000000000000000000000000051
:20327d00000000000000000000000000000000000000000000000000000000000000000031
:0d329d000000000000000000000000000024
:2032aa00000100000000000000000000000000000000000000000000000000000000000003
:2032ca000000000000000000000000400000000000000000000003000000000000000000a1
:2032ea000000000000000000000000000000000000000000000000000000000000000000c4
:0d330a0000000000000000000000000000b6
:20331700000000000000000000000000000000000000000000000000000000000000000096
:20333700000000000000000000000000000000000000000000000100000000000000000075
:20335700000000000000000000000000000000000000000000000000000000000000000056
:0d3377000000000000000000000000000049
:20338400000000000000000000000000000000000000000000000000000000000000000029
:2033a400000000000000000000000000000000000000000000000000000000000000000009
:2033c4000000000000000000000000000000000000000000000000000000000000000000e9
:0d33e40000000000000000000000000000dc
:2033f1000000000000000000000000000000000000000000000000000000000000000000bc
:2034110000000000000000000000000080000000000000000000000000000000000000001b
:2034310000000000000000000000000000000000000000000000000000000000000000007b
:0d345100000000000000000000000000006e
:20345e0000000000000000000000000000000000000000000000000000000000000000004e
:20347e0000000000000000000000000000000000000000000000000000000603c80000005d
:20349e0000000000000000000000000000000000000000000000000000000000000000000e
:0d34be000000000000000000000000000001
:2034cb000000000000000000000000000000000000000000000000000000000000000000e1
:2034eb0000000000000000000000000000000000000000000000000000000003c0000000fe
:20350b000000000000000000000000000000000000000000000000000000000000000000a0
:0d352b000000000000000000000000000093
:20353800000000000000000000000000000000000000000000000000000000000000000073
:20355800000000000000000000000000000000000000000000000000000000000000000053
:20357800000000000000000000000010000000000000000000000000000000000000000023
:0d3598000000000000000000000000000026
:2035a500000000000000000000000000000000000000000000000000000000000000000006
:2035c5000000000000000000000000000000000000000000000000000000000000000000e6
:2035e5000000000000000000000000000000000000000000000000000000000000000000c6
:0d36050000000000000000000000000000b8
:20361200000000000000000000000000000000000000000000000000000000000000000098
:20363200000000000000000000000000000000000000000000000000000000000000000078
:20365200000000000000000000000000000000000000000000000000000000000000000058
:0d367200000000000000000000000000004b
:20367f0000000000000000000000000000000000000000000000000000000000000000002b
:20369f0000000000000000000000000000000000000000000000000000000000000000000b
:2036bf000000000000000000000000000000000000000000000000000000000000000000eb
:0d36df0000000000000000000000000000de
:2036ec000000000000000000000000000000000000000000000000000000000000040000ba
:20370c0000000000000000000000000000000000000000000000000000000000000000009d
:20372c0000000000000000000000000000000000000000000000000000000000000000007d
:0d374c000000000000000000000000000070
:2037590000020000000000000000000000000000000000000000000000000000000000004e
:20377900000000000000000000000000000000000000000000000000000000000000000030
:20379900000000000000000000000000000000000000000000000000000000000000000010
:0d37b9000000000000000000000000000003
:2037c6000000000000000000000000000000000000000000000000000000000000000000e3
:2037e6000000000000000000000000000000000000000000000000000000000000000000c3
:203806000000000000000000000000000000000000000000000000000000000000000000a2
:0d3826000000000000000000000000000095
:20383300000000000000000000000000000000000000000000000000000000000000000075
:20385300000000000000000000000000000000000000000000000000000000000000000055
:20387300000000000000000000000000000000000000000000000000000000000000000035
:0d3893000000000000000000000000000028
:2038a000000000000000000000000000000000000000000000000000000000000000000008
:2038c0000000000000000000000000000000000000000000000000000000000000000000e8
:2038e0000000000000000000000000000000000000000000000000000000000000000000c8
:0d39000000000000000000000000000000ba
:20390d0000000000000000000000000000000000000000000000000000000000000000009a
:20392d0000000000000000000000000000000000000000000000000000000000000000007a
:20394d0000000000000000000000000000000000000000000000000000000000000000005a
:0d396d00000000000000000000000000004d
:20397a0000010000000000000000000000000000000000000000000000000000000000002c
:20399a0000000000000000000000000000000000000000000000000000000000000000000d
:2039ba000000000000000000000000000000000000000000000000000000000000000000ed
:0d39da0000000000000000000000000000e0
:2039e7000000000000000000000000000000000000000000000000000000000000000000c0
:203a070000000000000000000000000000000000000000000000000000000000000000009f
:203a270000000000000000000000000000000000000000000000000000000000000000007f
:0d3a47000000000000000000000000000072
:203a5400000000000000000000000000000000000000000000000000000000000000000052
:203a7400000000000000000000000000000000000000000000000000000000000000000032
:203a9400000000000000000000000000000000000000000000000000000000000000000012
:0d3ab4000000000000000000000000000005
:203ac1000000000000000000000000000000000000000000000000000000000000000000e5
:203ae1000000000000000000000000000000000000000000000000000000000000000000c5
:203b01000000000000000000000000000000000000000000000000000000000000000000a4
:0d3b21000000000000000000000000000097
:203b2e00000000000000000000000000000000000000000000000000000000000000000077
:203b4e00000000000000000000000000000000000000000000000000000000000000000057
:203b6e00000000000000000000000000000000000000000000000000000000000000000037
:0d3b8e00000000000000000000000000002a
:203b9b0000000000000000000000000000000000000000000000000000000000000000000a
:203bbb000000000000000000000000000000000000000000000000000000000000000000ea
:203bdb000000000000000000000000000000000000000000000000000000000000000000ca
:0d3bfb0000000000000000000000000000bd
:203c080000000000000000000000000000000000000000000000000000000000000000009c
:203c280000000000000000000000000000000000000000000000000000000000000000007c
:203c480000000000000000000000000000000000000000000000000000000000000000005c
:0d3c6800000000000000100000000000003f
:203c750000000000000000000000000000000000000000000000000000000000000000002f
:203c950000000000000000000000000000000000000000000000000000000000000000000f
:203cb5000000000000000000000000000000000000000000000000000000000000000000ef
:0d3cd50000000000000000000000000000e2
:203ce2000000000000000000000000000000000000000000000000000000000000000000c2
:203d02000000000000000000000000000000000000000000000000000000000000000000a1
:203d2200000000000000000000000000000000000000000000000000000000000000000081
:0d3d42000000000000000000000000000074
:203d4f00000000000000000000000000000000000000000000000000000000000000000054
:203d6f00000000000000000000000000000000000000000000000004000000000000000030
:203d8f00000000000000000000000000000000000000000000000000000000000000000014
:0d3daf000000000000000000000000000007
:203dbc000000000000000000000000000000000000000000000000000000000000000000e7
:203ddc000000000000000000000000000000000000000000000000000000000000000000c7
:203dfc00000000000000000000000010000000000000000000000000000000000000000097
:0d3e1c000000000000000000000000000099
:203e2900000200000000000000000000000000000000000000000000000000000000000077
:203e4900000000000000000000000000000000000000000000000000000000000000000059
:203e6900000000000000000000000000000000000000000000000000000000000000000039
:0d3e8900000000000000000000000000002c
:203e960000000000000000000000000000000000000000000000000000000000000000000c
:203eb6000000000000000000000000000000000000000000000000000000000000000000ec
:203ed60000000000008000000000000000000000000000000000000000000000000000004c
:0d3ef60000000003fc0200000000000000be
:203f030000000000000000000000000000000000000000000000000000000000000000009e
:203f230000000000000000000000000000000000000000000000000000000000000000007e
:203f430000000000010000000000000000000000000000000000000000000000000000005d
:0d3f630000000003fc010000000000000051
:203f7000000000000000000000000000000000000000000000000000000000000000000031
:203f9000000000000000000000000000000000000000000000000000000000000000000011
:203fb0000000000000000000000000000000000000004000000000000000000000000000b1
:0d3fd00000000000000000000000000000e4
:203fdd000000000000000000000000000000000000000000000000000000000000000000c4
:203ffd000000000000000000000000000000000000000000000000000000000000000000a4
:20401d00000000000000000000000000000000000000000000000000000000000000000083
:0d403d000000000000000000000000000076
:20404a00000100000000000000000000000000000000000000000000000000000000000055
:20406a00000000000000000000000000000000000000000000000000000000000000000036
:20408a00000000000000000000000000000000000000000000000000000000000000000016
:0d40aa000000000000000000000000000009
:2040b7000000000000000000000000000000000000000000000000000000000000000000e9
:2040d7000000000000000000000000000000000000000000000000000000000000000000c9
:2040f7000000000000000000000000000000000000000000000000000000000000000000a9
:0d411700000000000000000000000000009b
:2041240000000000000000000000000000000000000000000000000000000000000000007b
:2041440000000000000000000000000000000000000000000000000000000000000000005b
:2041640000000000000000000000000000000000000000000000000000000000000000003b
:0d41840040000000000001000000000000ed
:2041910000000000000000000000000000000000000000000000000000000000000000000e
:2041b1000000000000000000000000000000000000000000000000000000000000000000ee
:2041d1000000000000000000000000000000000000000000000000000000000000000000ce
:0d41f10000000000000000000000000000c1
:2041fe000000000000000000000000000000000000000000000000000000000000000000a1
:20421e00000000000000000000000000000000000000000000000000000000000000000080
:20423e00000000000000000000000000000000000000000000000000000000000000000060
:0d425e004000000000000100000000000012
:20426b00000000000000000000000000000000000000000000000000000000000000000033
:20428b00000000000000000000000000000000000000000000000000000000000000000013
:2042ab000000000000000000000000000000000000000000000000000000000000000000f3
:0d42cb0000000000000000000000000000e6
:2042d8000000000000000000000000000000000000000000000000000000000000000000c6
:2042f8000000000000000000000000000000000000000000000000000000000000000000a6
:20431800000000000000000000000000000000000000000000000000000000000000000085
:0d4338000000000000000000000000000078
:20434500000000000000000000000000000000000000000000000000000000000000000058
:20436500000000000000000000000000000000000000000000000000000000000000000038
:20438500000000000000000000000001000000000000040000000000001000000000000003
:0d43a50040000000000001000000000000ca
:2043b2000000000000000000000000000000000000000000000000000000000000000000eb
:2043d2000000000000000000000000000000000000000000000000000000000000000000cb
:2043f2000000000000000000000000000000000000000000000000000000000000000000ab
:0d441200000000000000010000000000009c
:20441f0000000000000000000000000000000000000000000000000000000000000000007d
:20443f0000000000000000000000000000000000000000000000000000000000000000005d
:20445f00000000000000000000000001000000000000040000000000001000000000000028
:0d447f0040000000000001000000000000ef
:20448c00000000000000000000000000000000000000000000000000000000000000000010
:2044ac000000000000000000000000000000000000000000000000000000000000000000f0
:2044cc000000000000000000000000000000000000000000000000000000000000000000d0
:0d44ec0000000000000000000000000000c3
:2044f9000002000000000000000000000000000000000000000000000000000000000000a1
:20451900000000000000000000000000000000000000000000000000000000000000000082
:20453900000000000000000000000000000000000000000000000000000000000000000062
:0d4559000000000000000000000000000055
:20456600000000000000000000000000000000000000000000000000000000000000000035
:20458600000000000000000000000000000000000000000000000000000000000000000015
:2045a6000000000000000000000000000000000000000000000000000000000000000000f5
:0d45c60000000000000000000000000000e8
:2045d3000000000000000000000000000000000000000000000000000000000000000000c8
:2045f3000000000000000000000000000000000000000000000000000000000000000000a8
:20461300000000000000000000000000000000000000000000000000000000000000000087
:0d463300000000000000000000000000007a
:2046400000000000000000000000000000000000000000000000000000000000000000005a
:2046600000000000000000000000000000000000000000000000000000000000000000003a
:2046800000000000000000000000000000000000000000000000000000000000000000001a
:0d46a000000000000000000000000000000d
:2046ad000000000000000000000000000000000000000000000000000000000000000000ed
:2046cd000000000000000000000000000000000000000000000000000000000000000000cd
:2046ed000000000000000000000000000000000000000000000000000000000000000000ad
:0d470d00000000000000000000000000009f
:20471a0000010000000000000000000000000000000000000000000000000000000000007e
:20473a0000000000000000000000000000000000000000000000000000000000000000005f
:20475a0000000000000000000000000000000000000000000000000000000000000000003f
:0d477a000000000000000000000000000032
:20478700000000000000000000000000000000000000000000000000000000000000000012
:204bc9000002000000000000000000000000000000000000000000000000000000000000ca
:204be9000000000000000000000000000000000000000000000000000000000000000000ac
:204c090000000000000000000000000000000000000000000000000000000000000000008b
:0d4c2900000000000000000000000000007e
:204c360000000000000000000000000000000000000000000000000000000000000000005e
:204c560000000000000000000000000000000000000000000000000000000000000000003e
:204c760000000000000000000000000000000000000000000000000000000000000000001e
:0d4c96000000000000000000000000000011
:204ca300800000000000000000000000000000000000000000000000000000000000000071
:204cc3000000000000000000000000000000000000000000000000000000000000000000d1
:204ce3000000000000000000000000000000000000000000000000000000000000000000b1
:0d4d030000000000000000000000000000a3
:204d1000000000000000000000000000000000000000000000000000000000000000000083
:204d3000000000000000000000000000000000000000000000000000000000000000000063
:204d5000000000000000000000000000000000000000000000000000000000000000000043
:0d4d70000000000000000000000000000036
:204d7d00800000000000000000100000000000000000000000000100000000000000000085
:204d9d000000000000000000000000000000000000000000000000000000000000000000f6
:204dbd000000000000000000000000000000000000000000000000000000000000000000d6
:0d4ddd0000000000000000000000000000c9
:204dea000003000000000000000000000000000000000000000000000000000000000000a6
:204e0a00000000000000000000000000000000000000000000000000000000000000000088
:204e2a00000000000000000000000000000000000000000000000000000000000000000068
:0d4e4a00000000000000000000000000005b
:204e570000000000000000000000000000000000000000000000000000000000000000003b
:204e770000000000000000000000000000000000000000000000000000000000000000001b
:204e97000000000000000000000000000000000000000000000000000100000000000000fa
:0d4eb70000000000000010000000000000de
:204ec40040000000000000000000000000000000000000000000000000000000000000008e
:204ee4000000000000000000000000000000000000000000000000000000000000000000ae
:204f040000000000000000000000000000000000000000000000000000000000000000008d
:0d4f24000000000000000000000000000080
:204f310000020000000000000000000000000000000000000000000000000000000000005e
:204f5100000000000000000000000000000000000000000000000000000000000000000040
:204f7100000000000000000000000000000000000000000000000000000000000000000020
:0d4f91000000000000000000000000000013
:204f9e000000000000000000000000000000000000000000000000000000000000000000f3
:204fbe000000000000000000000000000000000000000000000000000000000000000000d3
:204fde000000000000000000000000000000000000000000000000000000000000000000b3
:0d4ffe0000000000000000000000000000a6
:20500b00000000000000000000000000000000000000000000000000000000000000000085
:20502b00000000000000000000000000000000000000000000000000000000000000000065
:20504b00000000000000000000000000000000000000000000000000000000000000000045
:0d506b000000000000000000000000000038
:20507800000000000000000000000000000000000000000000000000000000000000000018
:205098000000000000000000000000000000000000000000000000000000000000000000f8
:2050b8000000000000000000000000000000000000000000000000000000000000000000d8
:0d50d80000000000000000000000000000cb
:2050e50080000000000000000000000000000000000000000000000000000000000000002b
:2051050000000000000000000000000000000000000000000000000000000000000000008a
:2051250000000000000000000000000000000000000000000000000000000000000000006a
:0d514500000000000000000000000000005d
:2051520000000000000000000000000000000000000000000000000000000000000000003d
:2051720000000000000000000000000000000000000000000000000000000000000000001d
:205192000000000000000000000000000000000000000000000000000000000000000000fd
:0d51b20000000000000000000000000000f0
:2051bf000000000000000000000000000000000000000000000000000000000000000000d0
:2051df000000000000000000000000000000000000000000000000000000000000000000b0
:2051ff00000000000000000000000000000000000000000000000000000000000000000090
:0d521f000000000000000000000000000082
:20522c00000000000000000000000000000000000000000000000000000000000000000062
:20524c00000000000000000000000000000000000000000000000000000000000000000042
:20526c00000000000000000000000000000000000000000000000000000000000000000022
:0d528c000000000000000000000000000015
:20529900800200000000000000000000000000000000000000000000000000000000000073
:2052b9000000000000000000000000000000000000000000000000000000000000000000d5
:2052d9000000000000000000000000000000000000000000000000000000000000000000b5
:0d52f90000000000000000000000000000a8
:20530600000000000000000000000000000000000000000000000000000000000000000087
:20532600000000000000000000000000000000000000000000000000000000000000000067
:205346000000000000000000000000000000000000000040000000000000000000000038cf
:0d536600000000000000000000000000003a
:2053730080000000000000000000000000000000000000000000000000000000000000009a
:205393000000000000000000000000000000000000000000000000000000000000000000fa
:2053b3000000000000000000000000000000000000000000000000000000000000000000da
:0d53d30000000000000000000000000000cd
:2053e0000000000000000000000000000000000000000000000000000000000000000000ad
:2054000000000000000000000000000000000000000000000000000000000000000000008c
:2054200000000000000000000000000000000000000000000000000000000000000000006c
:0d5440000000007bc104000000000000001f
:20544d0000000000000000000010000000000000000000000000000000000000000000002f
:20546d0000000000000000000000000000000000000000000000000000000000000000001f
:20548d000000000000000000000000100000000000000000000000000000000000000000ef
:0d54ad0000000043c20000000000000000ed
:2054ba000003000000000000000000000000000000000000000000000000000000000000cf
:2054da000000000000000000000000000000000000000000000000000000000000000000b2
:2054fa00000000000000000000000000000000000000000000000000000000000000000092
:0d551a000000000000000000000000000084
:20552700000000000000000000000000000000000000000000000000000000000000000064
:20554700000000000000000000000000000000000000000000000000000000000000000044
:20556700000000000000000000000010000000000000000000000000010000000000000013
:0d5587000000000000000000000000000017
:205594004000000000000000000000000000000000000000000000000000000000000000b7
:2055b4000000000000000000000000000000000000000000000000000000000000020000d5
:2055d400000000000000000000000000000000000000400000000000000000000000000077
:0d55f40000000000000000000000000000aa
:20560100000200000000000000000000000000000000000000000000000000000000000087
:20562100000000000000000000000000000000000000000000000000000000000000000069
:20564100000000000000000000000000000000000000000000000000000000000000000049
:0d566100000000000000000000000000003c
:20566e0000000000000000000000000000000000000000000000000000000000000000001c
:20568e000000000000000000000000000000000000000000000000000000000000000000fc
:2056ae000000000000000000000000000000000000000000000000000000000000000000dc
:0d56ce0000000000000000000000000000cf
:2056db000000000000000000000000000000000000000000000000000000000000000000af
:2056fb0000000000000000000000000000000000000000000000000000000000000000008f
:20571b0000000000000000000000000000000000000000000000000000000000000000006e
:0d573b000000000000000000000000000061
:20574800000000000000000000000000000000000000000000000000000000000000000041
:20576800000000000000000000000000000000000000000000000000000000000000000021
:20578800000000000000000000000000000000000000000000000000000000000000000001
:0d57a80000000000000000000000000000f4
:2057b500800000000000000000000000000000000000000000000000000000000000000054
:2057d5000000000000000000000000000000000000000000000000000000000000000000b4
:2057f500000000000000000000000000000000000000000000000000000000000000000094
:0d5815000000000000000000000000000086
:20582200000000000000000000000000000000000000000000000000000000000000000066
:20584200000000000000000000000000000000000000000000000000000000000000000046
:205862000000000000000000000000000000000000000000000000000000000000000030f6
:0d5882000000100000000000000000000009
:20588f000000000000000000000000000000000000000000000000000000000000000000f9
:2058af000000000000000000000000000000000000000000000000000000000000000000d9
:2058cf000000000000000000000000000000000000000000000000000000000000000000b9
:0d58ef000000d000000000000000000000dc
:2058fc0000000000000000000000000000000000000000000000000000000000000000008c
:20591c0000000000000000000000000000000000000000000000000000000000000000006b
:20593c0000000000000000000000000000000000000000000000000000000000000000004b
:0d595c00000000000000000000000000003e
:2059690000020000000000000000000000000000000000000000000000000000000000001c
:205989000000000000000000000000000000000000000000000000000000000000000000fe
:2059a9000000000000000000000000000000000000000000000000000000000000000000de
:0d59c90000000000000000000000000000d1
:2059d6000000000000000000000000000000000000000000000000000000000000000000b1
:2059f600000000000000000000000000000000000000000000000000000000000000000091
:205a1600000000000000000000000000000000000000000000000000000000000000003838
:0d5a3600000000000000e000000000000083
:205a4300000000000000000000000000000000000000000000000000000000000000000043
:205a6300000000000000000000000000000000000000000000000000000000000000000023
:205a8300000000000000000000000000000000000000000000000000000000000000000003
:0d5aa30000000000000000000000000000f6
:205ab0000000000000000000000000000000000000000000000000000000000000000000d6
:205ad0000000000000000000000000000000000000000000000000000000000000000000b6
:205af000000000000000000000000000000000000000000000000000000000000000000096
:0d5b100000000073c1400000000000000014
:205b1d00000000000000000000000000000000000000000000000000000000000000000068
:205b3d00000000000000000000000000000000000000000000000000000000000000000048
:205b5d00000000000000000000000000000000000000000000000000000000000000000028
:0d5b7d0000000003c2000000000000000056
:205b8a000001000000000000000000000000000000000000000000000000000000000000fa
:205baa000000000000000000000000000000000000000000000000000000000000000000db
:205bca000000000000000000000000000000000000000000000000000000000000000000bb
:0d5bea0000000000000000000000000000ae
:205bf70000000000000000000000000000000000000000000000000000000000000000008e
:205c170000000000000000000000000000000000000000000000000000000000000000006d
:205c370000000000000000000000000000000000000000000000000000000000000000004d
:0d5c57000000000000000000000000000040
:205c6400000000000000000000000000000000000000000000000000000000000000000020
:205c8400000000000000000000000000000000000000000000000000000000000000000000
:205ca4000000000001000000000000000000000000000000000000000000000000000000df
:0d5cc40000000000000000000000000000d3
:205cd1000000000000000000000000000000000000000000000000000000000000000000b3
:205cf100000000000000000000000000000000000000000000000000000000000000000093
:205d11000000000002800000000000000000000000000000000000000000000000000000f0
:0d5d31000000000000000000000000000065
:205d3e00000000000000000000000000000000000000000000000000000000000000000045
:205d5e00000000000000000000000000000000000000000000000000000000000000000025
:205d7e00000000000000000000000000000000000000000000000000000000000000000005
:0d5d9e0000380000000000000000000000c0
:205dab000000000000000000000000000000000000000000000000000000000000000000d8
:205dcb000000000000000000000000000000000000000000000000000000000000000000b8
:205deb00000000000000000000000000000000000000000000000000000000000000000197
:0d5e0b0000080000000000000380000000ff
:205e180000000000000000000000000000000000000000000000000000000000000000006a
:205e380000000000000000000000000000000000000000000000000000000000000000004a
:205e580000000000000000000000000000000000000000000000000000000000000000002a
:0d5e7800000000000000000000000000001d
:205e85000000000000000000000000000000000000000000000000000000000000000000fd
:205ea5000000000000000000000000000000000000000000000000000000000000000000dd
:205ec5000000000000000000000000000000000000000000000000000000000000000000bd
:0d5ee50000000000000000000000000000b0
:205ef200000000000000000000000000000000000000000000000000000000000000000090
:205f120000000000000000000000000000000000000000000000000000000000000000006f
:205f320000000000000000000000000000000000000000000000000000000000000000301f
:0d5f5200000000000000c0000001cf0408a6
:205f5f00000000000000000000000000000000000000000000000000000000000000000022
:205f7f00000000000000000000000000000000000000000000000000000000000000000002
:205f9f000000000000000000000000000000000000000000000000000000000000000000e2
:0d5fbf00000000000000000000010f0800bd
:205fcc000000000000000000000000000000000000000000000000000000000000000000b5
:205fec00000000000000000000000000000000000000000000000000000000000000000095
:20600c0000000000000000000000000000000000000000000000000000000003eed1002092
:0d602c0000000000000080000000000000e7
:20603900000200000000000000000000000000000000000000000000000000000000000045
:20605900000000000000000000000000000000000000000000000000000000000000000027
:2060790000000000000000000000000000000000000000000000000000000001cac3000079
:0d60990000000000000000000000000000fa
:2060a6000000000000000000000000000000000000000000000000000000000000000000da
:2060c6000000000000000000000000000000000000000000000000000000000000000000ba
:2060e600000000000000000000000000004000000003800001000000000000027ea00008ae
:0d6106000200053ac50020e0000000000086
:2061130000000000000000000000000000000000000000000000000000000000000000006c
:2061330000000000000000000000000000000000000000000000000000000000000000004c
:2061530000000000000000000000000000200000000000000a0000000000003cf0f50020c1
:0d617300040003b4c0008000000000000024
:206180000000000000000000000000000000000000000000000000000000000000000000ff
:2061a0000000000000000000000000000000000000000000000000000000000000000000df
:2061c00000000000000000000000000000000000000300000000000000000600fcf50000c5
:0d61e0000000e00000004000000000000092
:2061ed00000000000000000000000000000000000000000000000000000000000000000092
:20620d00000000000000000000000000000000000000000000000000000000000000000071
:20622d0000000000000000000000000000000000000300000000000000000003d05000002b
:0d624d0000010000000080000000000000c3
:20625a00000100000000000000000000000000000000000000000000000000000000000023
:20627a00000000000000000000000000000000000000000000000000000000000000000004
:20629a00000000000000000000000000020000000000000000000000000c0003eed1020012
:0d62ba0000000000000000000000000000d7
:2062c7000000000000000000000000000000000000000000000000000000000000000000b7
:2062e700000000000000000000000000000000000000000000000000000000000000000097
:2063070000000000000000000000000003c00000000000000000000000000001c0c300002f
:0d6327000000000000000000000000000069
:20633400000000000000000000000000000000000000000000000000000000000000000049
:20635400000000000000000000000000000000000000000000000000000000000000000029
:2063740000000000000000000000001400000000000000000000000000001c0000000000d9
:0d6394000071e000000000000000000000ab
:2063a1000000000000000000000000000000000000000000000000000000000000000000dc
:2063c1000000000000000000000000000000000000000000000000000000000000000000bc
:2063e10000000000000000000000001000000000000000000000000000800e0000000000fe
:0d640100000100000000000000000000008d
:20640e0000000000000000000000000000000000000000000000000000000000000000006e
:20642e0000000000000000000000000000000000000000000000000000000000000000004e
:20644e0000000000000000000000000000003dea50000000007e305400000c780000000031
:0d646e0000000000000000004000000000e1
:20647b00000000000000000000000000000000000000000000000000000000000000000001
:20649b000000000000000000000000000000000000000000000000000000000000000000e1
:2064bb0000000000000000000000000000000605500000000077e00000000000000000000f
:0d64db0000000000000000000000000000b4
:2064e800000000000000000000000000000000000000000000000000000000000000000094
:20650800000000000000000000000000000000000000000000000000000000000000000073
:206528000000000000000000000000000007bfad102000001c00000001001621ecf500007b
:0d6548000018000000000000401dca040003
:20655500000000000000000000000000000000000000000000000000000000000000000026
:20657500000000000000000000000000000000000000000000000000000000000000000006
:2065950000000000000000000000000000001c0c300000091e00000000001440c050000003
:0d65b5000000000000000000221e0f520038
:2065c2000000000000000000000000000000000000000000000000000000000000000000b9
:2065e200000000000000000000000000000000000000000000000000000000000000000099
:2066020000000000000000000000000000400000000300010000000000008c680000003010
:0d662200000000000000c0000000000000ab
:20662f0000000000000000000000000000000000000000000000000000000000000000004b
:20664f0000000000000000000000000000000000000000000000000000000000000000002b
:20666f0000000000000000000000000003c00000000000000000000000014c4000000002b9
:0d668f00800000000000000000000000007e
:20669c000000000000000000000000000000000000000000000000000000000000000000de
:2066bc000000000000000000000000000000000000000000000000000000000000000000be
:2066dc00000000000000000000000000000000000000000d0000000000001c29dac1502041
:0d66fc0000000b3a810000000026cf540082
:2067090000020000000000000000000000000000000000000000000000000000000000006e
:20672900000000000000000000000000000000000000000000000000000000000000000050
:20674900000000000000000000000000000000000000000b8b000000000036007e80000066
:0d67690000700d03d4000000002f0501009a
:20677600000000000000000000000000000000000000000000000000000000000000000003
:206796000000000000000000000000000000000000000000000000000000000000000000e3
:2067b60000000000000000000000000000000000000380050b0000000e0000784d81500884
:0d67d6000001e0000000e0020200000000f1
:2067e300000000000000000000000000000000000000000000000000000000000000000096
:20680300000000000000000000000000000000000000000000000000000000000000000075
:206823000000000000000000000000000000000000000000990000000000003cd950002037
:0d6843000001000000008003440000000080
:20685000000000000000000000000000000000000000000000000000000000000000000028
:20687000000000000000000000000000000000000000000000000000000000000000000008
:206890000000000000000000000000000000000000030000001e2950440016285cc150124d
:0d68b000008001aa810040004026ef540046
:2068bd000000000000000000000000000000000000000000000000000000000000000000bb
:2068dd0000000000000000000000000000000000000000000000000000000000000000009b
:2068fd00000000000000000000000000000000000003000d009815400c0016405e8000201e
:0d691d0000700183e82080002006050100c5
:20692a0000010000000000000000000000000000000000000000000000000000000000004c
:20694a0000000000000000000000000000000000000000000000000000000000000000002d
:20696a000000000000000000000000000000000000000000000000000000200058a0408035
:0d698a000001e00000000001e000bb16006d
:206997000000000000000000000000000000000000000000000000000000000000000000e0
:2069b7000000000000000000000000000000000000000000000000000000000000000000c0
:2069d70000000000000000000000000000000000000000000000000000001c2cda4200003c
:0d69f7000001000000000000200c972000af
:206a0400000000000000000000000000000000000000000000000000000000000000000072
:206a2400000000000000000000000000000000000000000000000000000000000000000052
:206a44000000000000000000000000000000000000000050000000000000140168c148005c
:0d6a640000700000000000004780000000ee
:206a7100000000000000000000000000000000000000000000000000000000000000000005
:206a91000000000000000000000000000000000000000000000000000000000000000000e5
:206ab100000000000000000000000000000000000000000000000000000082285e8000003d
:0d6ad1000000000000000000200000000098
:206ade00000000000000000000000000000000000000000000000000000000000000000098
:206afe00000000000000000000000000000000000000000000000000000000000000000078
:206b1e000000000000000000000000000000000000000000000000000000002aea104800eb
:0d6b3e0028000000000000000036ea0410ee
:206b4b0000000000000000000000000000000000000000000000000000000000000000002a
:206b6b0000000000000000000000000000000000000000000000000000000000000000000a
:206b8b0000000000000000000000000000000000000000000000000000000023eea1000038
:0d6bab00000000000000000002240f500058
:206bb8000000000000000000000000000000000000000000000000000000000000000000bd
:206bd80000000000000000000000000000000000000000000000000000000000000000009d
:206bf800000000000000000000000000000021e0a00800000a92ae50200014040000000002
:0d6c1800000000000000000040000000002f
:206c250000000000000000000000000000000000000000000000000000000000000000004f
:206c450000000000000000000000000000000000000000000000000000000000000000002f
:206c650000000000000000000000000000003c005000000000920e000000263c0000000081
:0d6c850000f00000000000024200000000ce
:206c92000000000000000000000000000000000000000000000000000000000000000000e2
:206cb2000000000000000000000000000000000000000000000000000000000000000000c2
:206cd2000000000000000000000000000007000000030000000000000c000000000000305c
:0d6cf200000000000000c00000019b160023
:206cff00000000000000000000000000000000000000000000000000000000000000000075
:206d1f00000000000000000000000000000000000000000000000000000000000000000054
:206d3f000000000000000000000000000240000000000000000000000000002c00000000c6
:0d6d5f000000000000000000003c97200034
:206d6c00000000000000000000000000000000000000000000000000000000000000000007
:206d8c000000000000000000000000000000000000000000000000000000000000000000e7
:206dac00000000000000000000000004000000000000000981b3bd40000000021e05000262
:0d6dcc00800000000000a00000000000009a
:206dd900800200000000000000000000000000000000000000000000000000000000000018
:206df90000000000000000000000000000000000000000000000000000000000000000007a
:206e190000000000000000000000000000024000000000070c1c280000000003c00a1801da
:0d6e3900001000000000000000000000003c
:206e460000000000000000000000000000000000000000000000000000000000000000002c
