:02000000ff00ff
:080002004c6174746963650030
:17000a00694345637562653220323032302e31322e32373934330071
:16002100506172743a2069434534304858344b2d545131343400f9
:1a003700446174653a204a756c203220323032352031373a30313a313500ae
:0200510000ffae
:040053007eaa997e6a
:02005700510056
:0200590001059f
:03005b00920020f0
:03005e00620367d3
:0300610072011019
:0300640082000017
:02006700110086
:02006900010193
:20006b000000000000000000000000000000000000000000000000800000000000000000f5
:20008b000000000004007800000000000000000000000000000000000000000000000000d9
:2000ab00000000000200000000000008000000000000000000000000000000000000000229
:0d00cb000000000000000800000000000020
:2000d800000000000000000000000000000000000000000000000000000000000000000008
:2000f8000000000000000800000000000000000000000000000000000000000000000000e0
:200118000000000000000000000000000000000000000000000000000000000000000000c7
:0d01380000000000000000000000000000ba
:2001450000000000000000000000000000000000000000000000004000000000000000005a
:20016500000000000400000000000010000000000000000000000000000000000000000066
:20018500000000000100000000000004000000000000000000000000000000000000000154
:0d01a5000000000000000400000000000049
:2001b20000000000000000000000000000000000000000000000000000000000000000002d
:2001d20000000000000000000000000000000000000000000000000000000000000000000d
:2001f2000000000000000000000000000000000000000000000000000000000000000000ed
:0d02120000000000000000000000200000bf
:20021f00000000000000000000000000000000000000000000000080080002000000000035
:20023f000000000008000000d0000000000000000000000780000000000000000000000040
:20025f00000000000200000000000008003000100000000000000000000000000000000233
:0d027f000000000400000800000000000066
:20028c0000000000000000000000000000000000000000000000000005000300000000004a
:2002ac000000000000000000f00000000000000000000000800000000000000000000000c2
:2002cc000000000000000000040000000008001000000000000000000000000000000000f6
:0d02ec000000000c000000000000000000f9
:2002f9000000000000000000000000000000000000000000000000000000000000000000e5
:200319000000000000000000000000100000000000000000000000000000000000000000b4
:200339000000000000000000000000000000000000000000000000000000000000000000a4
:0d0359000000000000000000000000000097
:20036600000000000000000000000000000000000000000000000000000000000000000077
:20038600000000000000000000000000000000000000000000000000000000000000000057
:2003a600000000000000000000000000000000000000000000000000000000000000000037
:0d03c600000000000000000000000000002a
:2003d300000000000008000000000000200000000000008000000000000200000000000060
:2003f3000800000000003820200000000000c0000000000002000000000080000000000028
:2004130002000000000000080000000000002000000000000080000000000002000000001d
:0d043300001608000000000000200000007e
:2004400000000000000000000000000000000000000000000000000000000000000000009c
:2004600000000000000000000000000000000000000000000000000000000000000000007c
:2004800000000000000000000000000000000000000000000000000000000000000000005c
:0d04a000000000000000000000000000004f
:2004ad0000000000000000000000000000000000000000000000000000000000000000002f
:2004cd0000000000000000000000000000000000000000000003000000000000000000000c
:2004ed000000000000000000000000000000003000000000000000000000000000000000bf
:0d050d000000040000000000f000100000dd
:20051a000000000000000000000000000000000000000000000000000000000000000000c1
:20053a0000000000000000000000000000000000000080000002000000000000000000001f
:20055a000000000000000000000000080058002000000000000030000000000000000000d1
:0d057a0000000800000008008000100000d4
:20058700000000000000000000000000000000000000000000000000000000000000000054
:2005a700000000000000000000000000000000000000000000000000000000000000000034
:2005c7000000000000000000000000000000000000000000e00080000000000100000000b3
:0d05e70000000800000000000010000000ef
:2005f4000000000000000000000000000000000000000000000000000000000000000000e7
:20061400000000000000000000000000000000000000400000000000000000000000000086
:200634000000000000000000000000040000000000000000000000000000000000000000a2
:0d0654000000040000000400000000000091
:20066100000000000004000000000000100000000000004000000000000100000000000024
:200681000400000000000010000000000000400000000000010000000000400000000000c4
:2006a1000100000000000004000000000000100000000000004000000000000100000000e3
:0d06c1000000040000000000001000000018
:2006ce0000000000000000000000000000000000000000000000000000000000000000000c
:2006ee0000000000000000000000000000000000000080000000000000000000000000006c
:20070e000000000000001e00000000080000000000000000000000000000000000000000a5
:0d072e0000000000000008000010000000a6
:20073b0000000000000000000000000000000000000000000000000000000000000000009e
:20075b0000000000000000000000000000000000000000000000000000000000000000007e
:20077b0000000000000000000000000000000000000000000000000000000000000000005e
:0d079b000000000000000000000000000051
:2007a80000020000000000000000000000000000000000000000000000000000000000002f
:2007c800000000000000000000000000000000000000000000000000000000000000000011
:2007e8000000000000000000000000000000000000000000000000000000000000000000f1
:0d08080000000000000000000000000000e3
:200815000000000000000000000000000000000000000000000000000000000000000000c3
:200835000000000000000000000000000000000000000000000000000000000000000000a3
:20085500000000000000000000000000000000000000000000000000000000000000000083
:0d0875000000000000000000000000000076
:20088200000000000000000000000000000000000000000000000000000000000000000056
:2008a200000000000000000000000000000000000000000000000000000000000000000036
:2008c200000000000000000000000000000000000000000000000000000000000000000016
:0d08e2000000000000000000000000000009
:2008ef000000000000000000000000000000000000000000000000000000000000000000e9
:20090f000000000000000000000000000000000000000000000000000000000000000000c8
:20092f00000000000000000000000000000000000000280000000000000000000000000080
:0d094f00000000000000000000000000009b
:20095c0000000000000000000000000000000000000000000000000000000000000000007b
:20097c0000000000000000000000000000000000000000000000000000000000000000005b
:20099c0000000000000000000000000000000000000000000000000000000000000000003b
:0d09bc00000000000000000000000000002e
:2009c90000010000000000000000000000000000000000000000000000000000000000000d
:2009e9000000000000000000000000000000000000000000000000000000000000000000ee
:200a09000000000000000000000000000000000000000000000000000000000000000000cd
:0d0a290000000000000000000000000000c0
:200a36000000000000000000000000000000000000000000000000000000000000000000a0
:200a5600000000000000000000000000000000000000000000000000000000000000000080
:200a7600000000000000000000000000000000000000000000000000000000000000000060
:0d0a96000000000000000000000000000053
:200aa300000000000000000000000000000000000000000000000000000000000000000033
:200ac300000000000000000000000000000000000000000000000000000000000000000013
:200ae3000000000000000000000000000000000000000000000000000000000000000000f3
:0d0b030000000000000000000000000000e5
:200b10000000000000000000000000000000000000000000000000000000000000000000c5
:200b3000000000000020000000000000000000000000000000000000000000000000000085
:200b5000000000000000000000000000000000000000000000000000000000000000000085
:0d0b70000000000000000000000000000078
:200b7d00000000000000000000000000000000000000000000000000000000000000000058
:200b9d00000000000000000000000000000000000000000000000000000000000000000038
:200bbd00000000000000000000000000000000000000000000000000000000000000000018
:0d0bdd0000000000000010000000000000fb
:200bea000000000000000000000000000000000000000000000000000000000000000000eb
:200c0a000000000000000000000000000000000000000000000000000000000000000000ca
:200c2a000000000000000000000000000000000000000000000000000000000000000000aa
:0d0c4a00000000000000000000000000009d
:200c570000000000000000000000000000000000000000000000000000000000000000007d
:200c770000000000000000000000000000000000000000000000000000000000000000005d
:200c970000000000000000000000000000000000000000000000000000000000000000003d
:0d0cb7000000000000000000000000000030
:200cc400000000000000000000000000000000000000000000000000000000000000000010
:200ce4000000000000000000000000000000000000000000000000000000000000000000f0
:200d04000000000000000000000000000000000000000000000000000000000000000000cf
:0d0d240000000000000000000000000000c2
:200d31000000000000000000000000000000000000000000000000000000000000000000a2
:200d5100000000000000000000000000004000000000000000000000000000000000000042
:200d7100000000000000000000000000000000000000000000000000000000000000000062
:0d0d91000000000000000000000000000055
:200d9e00000000000000000000000000000000000000000000000000000000000000000035
:200dbe00000000000000000000000000000000000000000000000000000000000000000015
:200dde000000000000000000000000000000000000000000000000000000000000000000f5
:0d0dfe0000000000000000000000000000e8
:200e0b000000000000000000000000000000000000000000000000000000000000000000c7
:200e2b000000000000000000000000000000000000000000000000000000000000000000a7
:200e4b00000000000000000000000000000000000000000000000000000000000000000087
:0d0e6b00000000000000000000000000007a
:200e7800000200000000000000000000000000000000000000000000000000000000000058
:200e980000000000000000000000000000000000000000000000000000000000000000003a
:200eb80000000000000000000000000000000000000000000000000000000000000000001a
:0d0ed800000000000000000000000000000d
:200ee5000000000000000000000000000000000000000000000000000000000000000000ed
:200f05000000000000000000000000000000000000000000000000000000000000000000cc
:200f25000000000000000000000000000000000000000000000000000000000000000000ac
:0d0f4500000000000000000000000000009f
:200f520000000000000000000000000000000000000000000000000000000000000000007f
:200f720000000000000000000000000000000000000000000000000000000000000000005f
:200f920000000000000000000000000000000000000000000000000000000000000000003f
:0d0fb2000000000000000000000000000032
:200fbf00000000000000000000000000000000000000000000000000000000000000000012
:200fdf000000000000000000000000000000000000000000000000000000000000000000f2
:200fff00000000000000000000000000000000000000400000000000000000000000000092
:0d101f0000000000000000000000000000c4
:20102c000000000000000000000000000000000000000000000000000000000000000000a4
:20104c00000000000000000000000000000000000000000000000000000000000000000084
:20106c00000000000000000000000000000000000000000000000000000000000000000064
:0d108c000000000000000000000000000057
:20109900000100000000000000000000000000000000000000000000000000000000000036
:2010b900000000000000000000000000000000000000000000000000000000000000000017
:2010d9000000000000000000000000000000000000000000000000000000000000000000f7
:0d10f90000000000000000000000000000ea
:201106000000000000000000000000000000000000000000000000000000000000000000c9
:20154800000200000000000000000000000000000000000000000000000000000000000081
:20156800000000000000000000000000000000000000000000000000000000000000000063
:20158800000000000000000000000000000000000000000000000000000000000000000043
:0d15a8000000000000000000000000000036
:2015b500000000000000000000000000000000000000000000000000000000000000000016
:2015d5000000000000000000000000000000000000000000000000000000000000000000f6
:2015f5000000000000000000000000000000000000000000000000000000000000000000d6
:0d16150000000000000000000000000000c8
:201622000000000000000000000000000000000000000000000000000000000000000000a8
:20164200000000000000000000000000000000000000000000000000000000000000000088
:20166200000000000000000000000000000000000000000000000000000000000000000068
:0d168200000000000000000000000000005b
:20168f0000000000000000000000000000000000000000000000000000000000000000003b
:2016af0000000000000000000000000000000000000000000000000000000000000000001b
:2016cf000000000000000000000000000000000000000000000000000000000000000000fb
:0d16ef0000000000000000000000000000ee
:2016fc000000000000000000000000000000000000000000000000000000000000000000ce
:20171c000000000000000000000000000000000000000000000000000000000000000000ad
:20173c0000000000000000000000000000000000000000000000000000000000000000008d
:0d175c000000000000000000000000000080
:2017690000010000000000000000000000000000000000000000000000000000000000005f
:20178900000000000000000000000000000000000000000000000000000000000000000040
:2017a900000000000000000000000000000000000000000000000000000000000000000020
:0d17c9000000000000000000100000000003
:2017d6000000000000000000000000000000000000000000000000000000000000000000f3
:2017f6000000000000000000000000000000000000000000000000000000000000000000d3
:201816000000000000000000000000000000000000000000000000000000000000000000b2
:0d18360000000000000000000000000000a5
:20184300000000000000000000000000000000000000000000000000000000000000000085
:20186300000000000000000000000000000000000000000000000000000000000000000065
:20188300000000000000000000000000000000000000000000000000000000000000000045
:0d18a3000000000000000000000000000038
:2018b000000000000000000000000000000000000000000000000000000000000000000018
:2018d0000000000000000000000000000000000000000000000000000000000000000000f8
:2018f000000000000000000000000000000000000000018000000000000000000000000057
:0d19100000000000000000000000000000ca
:20191d000000000000000000000000000000000000000000000000000000000000000000aa
:20193d0000000000000000000000000000000000000000000000000000000000000000008a
:20195d0000000000000000000000000000000000000000000000000000000000000000006a
:0d197d00000000000000000000000000005d
:20198a0000000000000000000000000000000000000000000000000000000000000000003d
:2019aa0000000000000000000000000000000000000000000000000000000000000000001d
:2019ca000000000000000000000000000000000000000000000000000000000000000000fd
:0d19ea0000000000000000000000000000f0
:2019f7000000000000000000000000000000000000000000000000000000000000000000d0
:201a17000000000000000000000000000000000000000000000000000000000000000000af
:201a370000000000008000000000000000000000000000000000000000000000000000000f
:0d1a57000000000000000000000000000082
:201a6400000000000000000000000000000000000000000000000000000000000000000062
:201a8400000000000000000000000000000000000000000000000000000000000000000042
:201aa400000000000100000000000000000000000000000000000000000000000000000021
:0d1ac4000000000000000000000000000015
:201ad1000000000000000000000000000000000000000000000000000000000000000000f5
:201af1000000000000000000000000000000000000000000000000000000000000000000d5
:201b11000000000000000000000000000000000000000000000000000000000000000000b4
:0d1b310000000000000000000000000000a7
:201b3e00000000000000000000000000000000000000000000000000000000000000000087
:201b5e00000000000000000000000000000000000000000000000000000000000000000067
:201b7e00000000000000000000000000000000000000000000000000000000000000000047
:0d1b9e00000000000000000000000000003a
:201bab0000000000000000000000000000000000000000000000000000000000000000001a
:201bcb00000000000200000000000080000000000000000000000000000000000000000078
:201beb000000000000000000000000000000000000000000000000000000000000000000da
:0d1c0b0000000000000000000000000000cc
:201c18000002000000000000000000000000000000000000000000000000000000000000aa
:201c3800000000000400000000000000000000000000000000000000000000000000000088
:201c580000000000000000000000000000000000000000000000000000000000000000006c
:0d1c7800000000000000000000000000005f
:201c85008000000000000000000000000000000000000000000000000000000000000000bf
:201ca50000000000000000000000000000000000000000000000000000000000000000001f
:201cc5000000000000000000000000000000000000000000000000000000000000000004fb
:0d1ce50000000000000000000000000000f2
:201cf200800000000000000000000000000000000000000000000000000000000000000052
:201d12000000000000000000000000000000000000000000000000000000000000000000b1
:201d3200000000000000000000000000000000000000000000000000000000000000000091
:0d1d52000000000000000000000000000084
:201d5f00000000000000000000000000000000000000000000000000000000000000000064
:201d7f00000000000000000000000000000000000000000000000000000000000000000044
:201d9f00000000000000000000000000000000000000000000000000000000000000000420
:0d1dbf000000000000000000000000000017
:201dcc000000000000000000000000000000000000000000000000000000000000000000f7
:201dec000000000000000000000000000000000000010000000000000000000000000000d6
:201e0c000000000000000000000000000000000000000000000000000000000000000000b6
:0d1e2c0000000000000000000000000000a9
:201e3900000300000000000000000000000000000000000000000000000000000000000086
:201e59000000000000000000000000000000000000000000000000800000000000000000e9
:201e7900000000000000000000000000000000000000000000000000000000000000000049
:0d1e9900000000000000000000000000003c
:201ea60000000000000000000000000000000000000000000000000000000000000000001c
:201ec6000000000000000000000000000000000000000000000000000000000000010000fb
:201ee6000000000000000000000000000000000000000000000000000000000000000000dc
:0d1f060000000000000000000000000000ce
:201f13000000000000000000000000000000000000000000000000000000000000000000ae
:201f330000000000000000000000000000000000000000000000000000000000000000008e
:201f530000000000000000000000000000000000000000000000000000000000000000006e
:0d1f73000000000000002000000000000041
:201f80004002000000000000000000000000000000000000000000000000000000000000ff
:201fa0000000000000000000000000000000000000004000000000000000000000000000e1
:201fc000000000000000000000000000000000000000000000000000000000000000000001
:0d1fe00000000000000000000000000000f4
:201fed000000000000000000000000000000000000000000000000000000000000000000d4
:20200d000000000000000000000000000000000000000000000000000000000000000000b3
:20202d00000000000000000000000000000000000000000000000000010000000000000092
:0d204d000000000000000000000000000086
:20205a00000000000000000000000000000000000000000000000000000000000000000066
:20207a00000000000000000000000000000000000000000000000000000000000000000046
:20209a00000000000000000000000000000000000000000000000000000000000000000026
:0d20ba000000000000000000000000000019
:2020c7000000000000000000000000000000000000000000000000000000000000000000f9
:2020e7000000000000000000000000000000000000000000000000000000000000000000d9
:202107000000000000000000000000000000000000000000000000000000000000000000b8
:0d21270000000000000008000000000000a3
:2021340080000000000000000000000000000000000000000000000000000000000000000b
:2021540000000000002000000000000000000000000000000000000000000000000000004b
:2021740000000000000000000000000000000000000000000000000000000000000000004b
:0d219400000000000000000000000000003e
:2021a10000000000000000000000000000000000000000000000000000000000000000001e
:2021c1000000000000000000000000000000000000000000000000000000000000000000fe
:2021e1000000000000000000000000000000000000000000000000000000000000000000de
:0d22010000000000000000000000000000d0
:20220e000000000000000000000000000000000000000000000000000000000000000000b0
:20222e00000000000000000000000000000000000000000000000000000000000000000090
:20224e00000000000000000000000000000000000000000000000000000000000000000070
:0d226e000000000000000000000000000063
:20227b00000000000000000000000000000000000000000000000000000000000000000043
:20229b00000000000000000000000000000000000000000000000000000000000000000023
:2022bb00000000000000000000000000000000000000000000000000000000000000000003
:0d22db0000000000000000000000000000f6
:2022e800800200000000000000000000000000000000000000000000000000000000000054
:202308000000000000000000000000000000000000000000000000000000000000000000b5
:20232800000000000000000000000000000000000000000000000000000000000000000095
:0d2348000000000000000000000000000088
:20235500000000000000000000000000000000000000000000000000000000000000000068
:20237500000000000000000000000000000000000000000000000000000000000000000048
:20239500000000000000000000000000000000000000000000000000000000000000000028
:0d23b500000000000000000000000000001b
:2023c20080000000000000000000000000000000000000000000000000000000000000007b
:2023e2000000000000000000000000000000000000000000000000000000000000000000db
:202402000000000000000000000000000000000000000000000000000000000000000000ba
:0d24220000000000000000000000000000ad
:20242f0000000000000000000000000000000000000000000000010000000000000000008c
:20244f0000000000000000000000000000000000000000000000000000000000000200006b
:20246f0000000000000000000000000000000000000000000000000000000000000000004d
:0d248f000000000000000000000000000040
:20249c00000000000000000000100000000000000000000000000000000000000000000010
:2024bc00000000000000000000000000000000000000000000000000000000000000000000
:2024dc000000000000000000000000000000000000000000000000000000000000000000e0
:0d24fc0000000000000000000000000000d3
:202509000003000000000000000000000000000000000000000000000000000000000000af
:20252900000000000000000000000000000000000000000000000000000000000000000092
:20254900000000000000000000000000000000000000000000000000000000000000000072
:0d2569000000000000000000000000000065
:20257600000000000000000000000000000000000000000000000000000000000000000045
:20259600000000000000000000000000000000000000000000000000000000000000000025
:2025b6000000000000000000000000100000000000000000000000000100000000000000f4
:0d25d60000000000000000000000000000f8
:2025e300400000000000000000000000000000000000000000000000000000000000000098
:202603000000000000000000000000000000000000000000000000000000000000000000b7
:20262300000000000000000000000000000000000000000000000000000000000000000097
:0d264300000000000000000000000000008a
:20265000000200000000000000000000000000000000000000000000000000000000000068
:2026700000000000000000000000000000000000000000000000000000000000000000004a
:20269000000000000000000000000000000000000000030000000000000000000000000027
:0d26b000000000000000000000000000001d
:2026bd000000000000000000000000000000000000000000000000000000000000000000fd
:2026dd000000000000000000000000000000000000000000000000000000000000000000dd
:2026fd000000000000000000000000000000000000000000000000000000000000000000bd
:0d271d0000000000000000000000000000af
:20272a0000000000000000000000000000000000000000000000000000000000000000008f
:20274a0000000000000000000000000000000000000000000000000000000000000000006f
:20276a0000000000000000000000000000000000000000000000000000000000000000004f
:0d278a000000000000000000000000000042
:20279700000000000000000000000000000000000000000000000000000000000000000022
:2027b700000000000000000000000000000000000000000000000000000000000000000002
:2027d7000000000000000000000000000000000000000000000000000000000000000000e2
:0d27f70000000000000000000000000000d5
:20280400800000000000000000000000000000000000000000000000000000000000000034
:20282400000000000000000000000000000000000000000000000000000000000000000094
:20284400000000000000000000000000000000000000000000000000000000000000000074
:0d2864000000000000000000000000000067
:20287100000000000000000000000000000000000000000000000000000000000000000047
:20289100000000000000000000000000000000000000000000000000000000000000000027
:2028b100000000000000000000000000000000000000000000000000000000000000000007
:0d28d10000000000000000000000000000fa
:2028de000000000000000000000000000000000000000000000000000000000000000000da
:2028fe000000000000000000000000000000000000000000000000000000000000000000ba
:20291e00000000000000000000000000000000000000000000000000000000000000000099
:0d293e00000000000000000000000000008c
:20294b0000000000000000000000000000000000000000000000000000000000000000006c
:20296b0000000000000000000000000000000000000000000000000000000000000000004c
:20298b0000000000000000000000000000000000000000000000000000000000000000002c
:0d29ab00000000000000000000000000001f
:2029b8000002000000000000000000000000000000000000000000000000000000000000fd
:2029d8000000000000000000000000000000000000000000000000000000000000000000df
:2029f8000000000000000000000000000000000000000000000000000000000000000000bf
:0d2a180000000000000000000000000000b1
:202a2500000000000000000000000000000000000000000000000000000000000000000091
:202a4500000000000000000000000000000000000000000000000000000000000000000071
:202a6500000000000000000000000000000000000000000000000000000000000000000051
:0d2a85000000000000000000000000000044
:202a92008000000000000000000000000000000000000000000000000000000000000000a4
:202ab200000000000000000000000000000000000000000000000000000000000000000004
:202ad2000000000000000000000000000000000000000000000000000000000000000000e4
:0d2af20000000000000000000000000000d7
:202aff000000000000000000000000000000000000000000000000000000000000000000b7
:202b1f00000000000000000000000000000000000000000000000000000000000000000096
:202b3f00000000000000000000000000000000000000000000000000000000000000000076
:0d2b5f000000000000000000000000000069
:202b6c008000000000000000000000000000000000000000000001000000000000000000c8
:202b8c00000000001000000000000000000000000000000000000000000000000000000019
:202bac00000000000000000000000000000000000000000000000000000000000000000009
:0d2bcc0000000000000000000000000000fc
:202bd9000003000000000000000000000000000000000000000000000000000000000000d9
:202bf9000000000000000000000000000000000000000000000000000000000000000000bc
:202c190000000000000000000000000000000000000000000000000000000000000000009b
:0d2c3900000000000000000000000000008e
:202c460000000000000000000000000000000000000000000000000000000000000000006e
:202c660000000000000000000000000000000000000000000000000000000000000000004e
:202c860000000000000000000000000000000000000000000000000000000000000000002e
:0d2ca6000000000000001000000000000011
:202cb300000000000000000000000000000000000000000000000000000000000000000001
:202cd3000000000000000000000000000000000000000000000000000000000000000000e1
:202cf3000000000000000000000000000000000000000000000000000200000000000000bf
:0d2d130000000000000000000000000000b3
:202d2000800200000000000000000000000000000000000000000000000000000000000011
:202d4000000000000000000000000000000000000000000000000000000000000000000073
:202d6000000000000000000000000000000000000000000000000000000000000000000053
:0d2d80000000000000000000000000000046
:202d8d00000000000000000000000000000000000000000000000000000000000000000026
:202dad00000000000000000000000000000000000000000000000000000000000000000006
:202dcd000000000000000000000000000000000000000000000000000000000000000000e6
:0d2ded0000000000000000000000000000d9
:202dfa000000000000000000000000000000000000000000000000000000000000000000b9
:202e1a00000000000000000000000000000000000000000000000000000000000000000098
:202e3a00000000000000000000000000000000000000000040000000000000000000000038
:0d2e5a00000000000000000000000000006b
:202e670000000000000000000000000000000000000000000000000000000000000000004b
:202e870000000000000000000000000000000000000000000000000000000000000000002b
:202ea70000000000000000000000000000000000000000000000000001000000000000000a
:0d2ec70000000000000000000000000000fe
:202ed40080000000000000000000000000000000000000000000000000000000000000005e
:202ef4000000000000000000000000000000000000000000000000000000000000000000be
:202f140000000000000000000000000000000000000000000000000000000000000000009d
:0d2f34000000000000000000000000000090
:202f4100000000000000000000000000000000000000000000000000000000000000000070
:202f6100000000000000000000000000000000000000000000000000000000000000000050
:202f8100000000000000000000000000000000000000000000000000000000000000000030
:0d2fa1000000000000000000000000000023
:202fae00000000000000000000000000000000000000000000000000000000000000000003
:202fce000000000000000000000000000000000000000000000000000000000000000000e3
:202fee000000000000000000000000000000000000000000000000000000000000000000c3
:0d300e0000000000000000000000000000b5
:20301b00000000000000000000000000000000000000000000000000000000000000000095
:20303b00000000000000000000000000000000000000000000000000000000000000000075
:20305b00000000000000000000000000000000000000000000000000000000000000000055
:0d307b000000000000000000000000000048
:20308800000200000000000000000000000000000000000000000000000000000000000026
:2030a800000000000000000000000000000000000000000000000000000000000000000008
:2030c8000000000000000000000000000000000000000000000000000000000000000000e8
:0d30e80000000000000000000000000000db
:2030f5000000000000000000000000000000000000000000000000000000000000000000bb
:2031150000000000000000000000000000000000000000000000000000000000000000009a
:2031350000000000000000000000000000000000000000000000000000000000000000007a
:0d315500000000000000000000000000006d
:2031620000000000000000000000000000000000000000000000000000000000000000004d
:203182000000000000004000000000000000000000000000000000000000000000000000ed
:2031a20000000000000000000000000000000000000000000000000000000000000000000d
:0d31c2000000000000000000000000000000
:2031cf000000000000000000000000000000000000000000000000000000000000000000e0
:2031ef00000000000000002005a000400000000000000000000000000000000000000000bb
:20320f0000000000000000000000000000000000000000000000000000000000000000009f
:0d322f000000000000000000000000000092
:20323c00000000000000000000000000000000000000000000000000000000000000000072
:20325c0000000000000000040a508040000000000000000000000000000000000000000034
:20327c00000000000000000000000000000000000000000000000000000000000000000032
:0d329c000000000000000000000000000025
:2032a900000100000000000000000000000000000000000000000000000000000000000004
:2032c90000000000c000000000000000000000000000000000000000000000000000000025
:2032e9000000000000000000000000000000000000000000000000000000000000000000c5
:0d33090000000000000000000000000000b7
:20331600000000000000000000000000000000000000000000000000000000000000000097
:20333600000000004000000000000000000000000000000000000000000000000000000037
:20335600000000000000000000000000000000000000000000000000000000000000000057
:0d337600000000000000000000000000004a
:2033830000000000000000000000000000000000000000000000000000000000000000002a
:2033a30000000000000000000000000000000000000000000000000000000000000000000a
:2033c300000000000080000000000000000000000000000000000000000000000000000862
:0d33e30000000000000000000000000000dd
:2033f0000000000000000000000000000000000000000000000000000000000000000000bd
:2034100000000000000000000000000000000000000000000000000000000000000000009c
:2034300000000000010000000000000000000000000000000000000000000000000000007b
:0d345000000000000000000000000000006f
:20345d0000000000000000000000000000000000000000000000000000000000000000004f
:20347d0000000000000000000000000000000000000000000000000000000000000000002f
:20349d0000000000000000000000000000000000000000000000000000000000000000000f
:0d34bd000000000000000000000000000002
:2034ca000000000000000000000000000000000000000000000000000000000000000000e2
:2034ea000000000000000000000000000000000000000000000000000000000000000000c2
:20350a000000000000000000000000000000000000000000000000000000000000000000a1
:0d352a000000000000000000000000000094
:20353700000000000000000000000000000000000000000000000000000000000000000074
:20355700000000000000000000000000000000000000000000000000000000000000000054
:20357700000000000000000000000000000000000000000000000000000000000000000034
:0d3597000000000000000000000000000027
:2035a400000000000000000000000000000000000000000000000000000000000000000007
:2035c4000000000000000000000000000000000000000000000000000000000000000000e7
:2035e4000000000000000000000000000000000000000000000000000000000000000000c7
:0d36040000000000000000000000000000b9
:20361100000000000000000000000000000000000000000000000000000000000000000099
:20363100000000000000000000000000000000000000000000000000000000000000000079
:20365100000000000000000000000000000000000000000000000000000000000000000059
:0d367100000000000000000000000000004c
:20367e0000000000000000000000000000000000000000000000000000000000000000002c
:20369e0000000000000000000000000000000000000000000000000000000000000000000c
:2036be000000000000000000000000000000000000000000000000000000000000000000ec
:0d36de0000000000000000000000000000df
:2036eb000000000000000000000000000000000000000000000000000000000000000000bf
:20370b0000000000000000000000000000000000000000000000000000000000000000009e
:20372b0000000000000000000000000000000000000000000000000000000000000000007e
:0d374b000000000000000000000000000071
:2037580000020000000000000000000000000000000000000000000000000000000000004f
:20377800000000000000000000000000000000000000000000000000000000000000000031
:20379800000000000000000000000000000000000000000000000000000000000000000011
:0d37b8000000000000000000000000000004
:2037c5000000000000000000000000000000000000000000000000000000000000000000e4
:2037e5000000000000000000000000000000000000000000000000000000000000000000c4
:203805000000000000000000000000000000000000000000000000000000000000000000a3
:0d3825000000000000000000000000000096
:20383200000000000000000000000000000000000000000000000000000000000000000076
:20385200000000000000000000000000000000000000000000000000000000000000000056
:20387200000000000000000000000000000000000000000000000000000000000000000036
:0d3892000000000000000000000000000029
:20389f00000000000000000000000000000000000000000000000000000000000000000009
:2038bf000000000000000000000000000000000000000000000000000000000000000000e9
:2038df000000000000000000000000000000000000000000000000000000000000000000c9
:0d38ff0000000000000000000000000000bc
:20390c0000000000000000000000000000000000000000000000000000000000000000009b
:20392c0000000000000000000000000000000000000000000000000000000000000000007b
:20394c0000000000000000000000000000000000000000000000000000000000000000005b
:0d396c00000000000000000000000000004e
:2039790000010000000000000000000000000000000000000000000000000000000000002d
:2039990000000000000000000000000000000000000000000000000000000000000000000e
:2039b9000000000000000000000000000000000000000000000000000000000000000000ee
:0d39d90000000000000000000000000000e1
:2039e6000000000000000000000000000000000000000000000000000000000000000000c1
:203a06000000000000000000000000000000000000000000000000000000000000000000a0
:203a2600000000000000000000000000000000000000000000000000000000000000000080
:0d3a46000000000000000000000000000073
:203a5300000000000000000000000000000000000000000000000000000000000000000053
:203a7300000000000000000000000000000000000000000000000000000000000000000033
:203a9300000000000000000000000000000000000000000000000000000000000000000013
:0d3ab3000000000000000400000000000002
:203ac0000000000000000000000000000000000000000000000000000000000000000000e6
:203ae0000000000000000000000000000000000000000000000000000000000000000000c6
:203b00000000000000000000000000000000000000000000000000000000000000000000a5
:0d3b20000000000000000000000000000098
:203b2d00000000000000000000000000000000000000000000000000000000000000000078
:203b4d00000000000000000000000000000000000000000000000000000000000000000058
:203b6d00000000000000000000000000000000000000000000000000000000000000000038
:0d3b8d00000000000000000000000000002b
:203b9a0000000000000000000000000000000000000000000000000000000000000000000b
:203bba000000000000000000000000000000000000000000000000000000000000000000eb
:203bda000000000000000000000000000000000000000000000000000000000000000000cb
:0d3bfa0000000000000000000000000000be
:203c070000000000000000000000000000000000000000000000000000000000000000009d
:203c270000000000000000000000000000000000000000000000000000000000000000007d
:203c470000000000000000000000000000000000000000000000000000000000000000005d
:0d3c67000000000000000800000000000048
:203c7400000000000000000000000000000000000000000000000000000000000000000030
:203c9400000000000000000000000000000000000000000000000000000000000000000010
:203cb4000000000000000000000000000000000000000000000000000000000000000000f0
:0d3cd40000000000000000000000000000e3
:203ce1000000000000000000000000000000000000000000000000000000000000000000c3
:203d01000000000000000000000000000000000000000000000000000000000000000000a2
:203d2100000000000000000000000000000000000000000000000000000000000000000082
:0d3d41000000000000000000000000000075
:203d4e00000000000000000000000000000000000000000000000000000000000000000055
:203d6e00000000000100000000000000000000000000000000000000000000000000000034
:203d8e00000000000000000000000000000000000000000000000000000000000000000015
:0d3dae000000000000000000000000000008
:203dbb000000000000000000000000000000000000000000000000000000000000000000e8
:203ddb000000000000000000000000000000000000000000000000000000000000000000c8
:203dfb000000000000000000000000000000000000000000000000000000000000000000a8
:0d3e1b00000000000000000000000000009a
:203e2800000200000000000000000000000000000000000000000000000000000000000078
:203e480000000000000000000000000000000000000000000000000000000000000000005a
:203e680000000000000000000000000000000000000000000000000000000000000000003a
:0d3e8800000000000000000000000000002d
:203e950000000000000000000000000000000000000000000000000000000000000000000d
:203eb5000000000000000000000000000000000000000000000000000000000000000000ed
:203ed5000000000000000000000000000000000000000000000000000000000000000000cd
:0d3ef50000000000000000000000000000c0
:203f020000000000000000000000000000000000000000000000000000000000000000009f
:203f220000000000000000000000000000000000000000000000000000000000000000007f
:203f420000000000000000000000000000000000000000000000000000000000000000005f
:0d3f62000000000000000000000000000052
:203f6f00000000000000000000000000000000000000000000000000000000000000000032
:203f8f00000000000000000000000000000000000000000000000000000000000000000012
:203faf000000000000000000000000000000000000000000000000000000000000000000f2
:0d3fcf0000000000000000000000000000e5
:203fdc000000000000000000000000000000000000000000000000000000000000000000c5
:203ffc000000000000000000000000000000000000000000000000000000000000000000a5
:20401c00000000000000000000000000000000000000000000000000000000000000000084
:0d403c000000000000000000000000000077
:20404900000100000000000000000000000000000000000000000000000000000000000056
:20406900000000000000000000000000000000000000000000000000000000000000000037
:20408900000000000000000000000000000000000000000000000000000000000000000017
:0d40a900000000000000000000000000000a
:2040b6000000000000000000000000000000000000000000000000000000000000000000ea
:2040d6000000000000000000000000000000000000000000000000000000000000000000ca
:2040f6000000000000000000000000000000000000000000000000000000000000000000aa
:0d411600000000000000000000000000009c
:2041230000000000000000000000000000000000000000000000000000000000000000007c
:2041430000000000000000000000000000000000000000000000000000000000000010004c
:2041630000000000000000000000000000000000000000000000000000000000000000003c
:0d418300000000000000002000000000000f
:2041900000000000000000000000000000000000000000000000000000000000000000000f
:2041b0000000000000000000000000000000000000000000000000000000000000000000ef
:2041d0000000000000000000000000000000000000000000000000000000000000000000cf
:0d41f00000000000000000000000000000c2
:2041fd000000000000000000000000000000000000000000000000000000000000000000a2
:20421d00000000000000000000000000000000000000000000000000000000000000000081
:20423d00000000000000000000000000000000000000005000000000000000000000000011
:0d425d0000000003fc8000000000000000d5
:20426a00000000000000000000000000000000000000000000000000000000000000000034
:20428a00000000000000000000000000000000000000000000000000000000000000000014
:2042aa000000000000000000000000000000000000000020000000000000000000000000d4
:0d42ca0000000003fc0100000000000000e7
:2042d7000000000000000000000000000000000000000000000000000000000000000000c7
:2042f7000000000000000000000000000000000000000000000000000000000000000000a7
:2043170000000000000000000000000000000000000000000000000000000000000000087e
:0d4337000000000000000000000000000079
:20434400000000000000000000000000000000000000000000000000000000000000000059
:20436400000000000000000000000000000000000000000000000000000000000000000039
:204384000000000000400000000000010000000000000400000000000010000000000000c4
:0d43a40040000000000001000000000000cb
:2043b1000000000000000000000000000000000000000000000000000000000000000000ec
:2043d1000000000000000000000000000000000000000000000000000000000000000000cc
:2043f10000000000000000000000000000000000000000000000000000004000000000006c
:0d441100000000000000000000000000009e
:20441e0000000000000000000000000000000000000000000000000000000000000000007e
:20443e0000000000000000000000000000000000000000000000000000000000000000005e
:20445e00000000000040000000000001000000000000040000000000001080000000000069
:0d447e0040000000000001000000000000f0
:20448b00000000000000000000000000000000000000000000000000000000000000000011
:2044ab000000000000000000000000000000000000000000000000000000000000000000f1
:2044cb000000000000000000000000100000000000000000000000000000000000000000c1
:0d44eb000000000000000000003f8a1410d7
:2044f8000002000000000000000000000000000000000000000000000000000000000000a2
:20451800000000000000000000000000000000000000000000000000000000000000000083
:20453800000000000000000000000010000000000000000000000000000000000000000251
:0d4558000000f00000000000000eb10000a7
:20456500000000000000000000000000000000000000000000000000000000000000000036
:20458500000000000000000000000000000000000000000000000000000000000000000016
:2045a500000000000000000000000000000000000003800000000000000000000000000073
:0d45c500000000000000e0016000000000a8
:2045d2000000000000000000000000000000000000000000000000000000000000000000c9
:2045f2000000000000000000000000000000000000000000000000000000000000000000a9
:20461200000000000000000000000000000000000000000000000000000000000000000088
:0d463200000000000000000000000000007b
:20463f0000000000000000000000000000000000000000000000000000000000000000005b
:20465f0000000000000000000000000000000000000000000000000000000000000000003b
:20467f0000000000000000000000000000000000000300001e0000000000000000000000fa
:0d469f00000000000000c0000380000000cb
:2046ac000000000000000000000000000000000000000000000000000000000000000000ee
:2046cc000000000000000000000000000000000000000000000000000000000000000000ce
:2046ec0000000000000000000000000000000000000300001000000000000000000000009b
:0d470c00000000000000400004000000005c
:2047190000010000000000000000000000000000000000000000000000000000000000007f
:20473900000000000000000000000000000000000000000000000000000000000000000060
:2047590000000000000000000000000000100000000000000002bc10200001000000000041
:0d4779000000000000000000000000000033
:20478600000000000000000000000000000000000000000000000000000000000000000013
:2047a6000000000000000000000000000000000000000000000000000000000000000000f3
:2047c600000000000000000000000000000000000000000000043c00000000000000000093
:0d47e60000000000000000000000000000c6
:2047f3000000000000000000000000000000000000000000000000000000000000000000a6
:20481300000000000000000000000000000000000000000000000000000000000000000085
:2048330000000000000000000000000400000fc0a1000000000000000000000000000000f1
:0d4853001001c7329400000000400000007a
:20486000000000000000000000000000000000000000000000000000000000000000000038
:20488000000000000000000000000000000000000000000000000000000000000000000018
:2048a00000000000000000000000000000000100a000000000000000000000000000000057
:0d48c00000010fc15400000003c000000003
:2048cd000000000000000000000000000000000000000000000000000000000000000000cb
:2048ed000000000000000000000000000000000000000000000000000000000000000000ab
:20490d000000000000000000000000000043800000000000000000000000000000000000c7
:0d492d000000072344080002000000000005
:20493a0000000000000000000000000000000000000000000000000000000000000000005d
:20495a0000000000000000000000000000000000000000000000000000000000000000003d
:20497a000000000000000000000000000020000000000000000000000000000000000000fd
:0d499a0000000b430c000002c000000000f4
:2049a7000000000000000000000000000000000000000000000000000000000000000000f0
:2049c7000000000000000000000000000000000000000000000000000000000000000000d0
:2049e7000000000000000000000000000000000000000000080000000000000000000000a8
:0d4a07000011d000000000000000000000c1
:204a1400000000000000000000000000000000000000000000000000000000000000000082
:204a3400000000000000000000000000000000000000000000000000000000000000000062
:204a5400000000000000000000000000000000000000000010000000000000000000000032
:0d4a74000008d0000000000000000000005d
:204a8100000000000000000000000000000000000000000000000000000000000000000015
:204aa1000000000000000000000000000000000000000000000000000000000000000000f5
:204ac1000000000000000000000000000000000000030000000000000000000000000000d2
:0d4ae100000000000000c0000040000000c8
:204aee000000000000000000000000000000000000000000000000000000000000000000a8
:204b0e00000000000000000000000000000000000000000000000000000000000000000087
:204b2e00000000000000000000000000000000000000000000000000000000000000000067
:0d4b4e0000000000000000000380000000d7
:204b5b0000000000000000000000000000000000000000000000000000000000000000003a
:204b7b0000000000000000000000000000000000000000000000000000000000000000001a
:204b9b0000000000000000000000000000620000000000000000000000001e03d8a50000fa
:0d4bbb0000000000000000000000000000ed
:204bc8000002000000000000000000000000000000000000000000000000000000000000cb
:204be8000000000000000000000000000000000000000000000000000000000000000000ad
:204c080000000000000000000000000004040000000000000000000000000202c05520004b
:0d4c2800000000000000000400000000007b
:204c35008000000000000000000000000000000000000000000000000000000000000000df
:204c550000000000000000000000000000000000000000000000000000000000000000003f
:204c75000000000038000000000000e000001eed1608000000000000000014000000003892
:0d4c95008000000000000000c000000000d2
:204ca200800000000000000000000000000000000000000000000000000000000000000072
:204cc2000000000000000000000000000000000000000000000000000000000000000000d2
:204ce20000000000003800000000000000000ef50004000000000000000002000000000071
:0d4d020000000000000000000000000000a4
:204d0f00000000000000000000000000000000000000000000000000000000000000000084
:204d2f00000000000000000000000000000000000000000000000000000000000000000163
:204d4f00000000003200000000000040000384e0500000800000000000000000000000009b
:0d4d6f00000000000000000000358f500023
:204d7c00000000000000000000000000000000000000000000000000000000000000000017
:204d9c000000000000000000000000000000000000010000000000005000000000000000a6
:204dbc000000000030000000000000c00003c00050100000000000000000000000000000c4
:0d4ddc000000000000000002c03c0a0000c2
:204de9000003000000000000000000000000000000000000000000000000000000000000a7
:204e0900000000000000000000000000000000000000000000000000000000000000000089
:204e2900000000000000000000000000000000000000000000bfa94800000000cc080000e5
:0d4e4900000000000000000007bfcd122097
:204e560000000000000000000000000000000000000000000000000000000000000000003c
:204e760000000000000000000000000000000000000000000000000000000000000000001c
:204e9600000000000000000000000000000000000000002008d01540000000005f00000050
:0d4eb6000000000000000000041e0c300091
:204ec3000000000000000000000000000000000000000000000000000000000000000000cf
:204ee30000000000200000000000000000000000000000000000000000000000000000008f
:204f0300000000000000000000000004214004af0010000000000000000400000000000062
:0d4f230000000000000000a00000000000e1
:204f300040020000000000000000000000000000000000000000000000000000000000001f
:204f5000000000000000000000000000000000000000000000000000000000000000000041
:204f700000000000000000000000000200000300f0000000000000000000343c00000000bc
:0d4f90000000000000000000000000000014
:204f9d000000000000000000000000000000000000000000000000000000000000000000f4
:204fbd000000000000000000000000000000000000000000000000000000000000000000d4
:204fdd0000000000000000007bc14004000000000000000000000000000000000000000034
:0d4ffd000000e000000000020300000000c2
:20500a00000000000000000000000000000000000000000000000000000000000000000086
:20502a00000000000000000000000000000000000000000000000000000000000000000066
:20504a00000000000000000003c0000a000000000000000d000000000000003c0000000030
:0d506a002000000000000003c00000000056
:20507700000000000000000000000000000000000000000000000000000000000000000019
:205097000000000000000000000000000000000000000000000000000000000000000000f9
:2050b70000000000000801e0000000000040000000000000000000000000000400000000ac
:0d50d7002000e7f4950200600000000000da
:2050e40080000000000000000000000000000000000000000000000000000000000000002c
:2051040000000000000000000000000000000000000000000000000000000000000000008b
:2051240000000000000001000000000001620000000000000000000000000c3c00000000bf
:0d51440000000ffc540000000000000000ff
:2051510000000000000000000000000000000000000000000000000000000000000000003e
:2051710000000000000000000000000000000000000000000000000000000000000000001e
:20519100000000003000700000000000000700000000000500000000000000000000003022
:0d51b1000001f0000000000203b7ea50000a
:2051be000000000000000000000000000000000000000000000000000000000000000000d1
:2051de000000000000000000000000000000000000000000000000000000000000000000b1
:2051fe0000000000000000000000000000040000000000000000000000000000000000008d
:0d521e000000800000000000c42f055000bb
:20522b00000000000000000000000000000000000000000000000000000000000000000063
:20524b00000000000000000000000000000000000000000000000000000000000000000043
:20526b0000000000000078000295400421400000000000000e3aa95000002000ed0400001d
:0d528b000050000000000009c6ac80a0002b
:20529800800200000000000000000000000000000000000000000000000000000000000074
:2052b8000000000000000000000000000000000000000000000000000000000000000000d6
:2052d80000000000000008e701680000000000000000000d0b10280040001401cb000000ee
:0d52f8000008000000000003c025f0800049
:20530500000000000000000000000000000000000000000000000000000000000000000088
:20532500000000000000000000000000000000000000000000000000000000000000000068
:20534500000000003800000023c140e00140000000038007801381400e001e00580520380c
:0d536500005800000000000006d58a50002e
:2053720080000000000000000000000000000000000000000000000000000000000000009b
:205392000000000000000000000000000000000000000000000000000000000000000000fb
:2053b20000000000000000e043c000000020000000000000803800000000022d50000000a1
:0d53d200000000000000000002df05500098
:2053df000000000000000000000000000000000000000000000000000000000000000000ae
:2053ff0000000000000000000000000000000000000000000000000000000000000004008a
:20541f000000000030000001029500c0000000000000000d80fb96c040001400ec80024203
:0d543f008000b000000000000324ed1220ea
:20544c008000000000000000000000000000000000000000000001000000000000000000bf
:20546c00000000001000000000000000000000000000000000000000000000000000000010
:20548c000000000010000000029480500000000000000001807362c000001e2c1080000199
:0d54ac000001a0000000000004250c3000ed
:2054b9000003000000000000000000000000000000000000000000000000000000000000d0
:2054d9000000000000000000000000000000000000000000000000000000000000000000b3
:2054f90000000000000000007bc1400000000000000000000000000000000638ef000000ea
:0d55190000018da800000000c0000000008f
:20552600000000000000000000000000000000000000000000000000000000000000000065
:20554600000000001000000000000000000000000000000000000000000000000000000035
:20556600000000000000000003c0000000000000000000000000000000000003c840000057
:0d558600000001e010200002e00000000025
:205593000000000000000000000000000000000000000000000000000000000000000000f8
:2055b3000000000000000000000000000000000000000000000000000000000000000000d8
:2055d300000000000000001802950420480000ef0400000701ff4fc400001c380ae302004d
:0d55f30000000000000000814000000000ea
:20560000800200000000000000000000000000000000000000000000000000000000000008
:2056200000000000000000000000000000000000000000000000000000000000000000006a
:2056400000000000000000e9016800040342010f000002170c37868000003e00d0d300005c
:0d566000000090000000000020000000008d
:20566d0000000000000000000000000000000000000000000000000000000000000000001d
:20568d000000000000000000000000000000000000000000000000000000000000000000fd
:2056ad0000000000000000000000000000000000000000010c32a944000004015ab8530047
:0d56cd00000000000000000000378a5000bf
:2056da000000000000000000000000000000000000000000000000000000000000000000b0
:2056fa00000000000000000000000000000000000000000000000000000000000000000090
:20571a00000000000000000000000000000000000000000900f02a8000001e01c0a00080cd
:0d573a0000000000000000000015055000f8
:20574700000000000000000000000000000000000000000000000000000000000000000042
:205767000000000000000000000000000000000000000000000000000000000000000e0014
:2057870000000000000010000000000000004585000400018000000000002603dd05000098
:0d57a7000051872b9400000002c18f5014a8
:2057b400800000000000000000000000000000000000000000000000000000000000000055
:2057d4000000000000000000000000000000000000000000000000000000000000000000b5
:2057f40000000000000008000000000000038c000000030b8d0000000000042fee010080c1
:0d5814003809bff700000400c7bd0fa080d9
:20582100000000000000000000000000000000000000000000000000000000000000000067
:20584100000000000000000000000000000000000000000000000000000000000000000047
:205861000000000030003800000000c0000000000000038500fb800000001c28eebf2200e9
:0d5881000000076ae1080000100580c0204b
:20588e000000000000000000000000000000000000000000000000000000000000000000fa
:2058ae000000000000000000000000000000000000000000000000000000000000000000da
:2058ce000000000000000000000000000000000000000007801248020000004000bf0100d7
:0d58ee0000000042e0821000000508c0002c
:2058fb0000000000000000000000000000000000000000000000000000000000000000008d
:20591b0000000000000000000000000000000000000000000000000000000000000000006c
:20593b0001c8f0c000000009b969802040004000000000001cf24800000014004be30000f0
:0d595b000019800000000000004000000066
:2059680000020000000000000000000000000000000000000000000000000000000000001d
:205988000000000000000000000000000000000000000000000000000000000000000000ff
:2059a80000000f42000000ed82a800000003c0000000100510be00000040043858c300003a
:0d59c800000000000000000003800000004f
:2059d5000000000000000000000000000000000000000000000000000000000000000000b2
:2059f500000000000000000000000000000000000000000000000000000000000002000090
:205a150001c8f0c038000080000000ea004021cf520010000012a8000e002001eec70239eb
:0d5a35000078c3aaa10000000000000000de
:205a4200000000000000000000000000000000000000000000000000000000000000000044
:205a620000000000000000000000000000000000000000000000000000000000000800001c
:205a820000000f4002800100000000040243c40fa00008090e903d400000042c40c3000017
:0d5aa200000001296020000000000000004d
:205aaf000000000000000000001000000000000000000000000000000000000000000000c7
:205acf000000000000000000000000000000000000030000000000000000000000000000b4
:205aef006548f0c0100000000000004000000000000010050a038200040116055e050000c3
:0d5b0f0000d80f7a00000000001eaf50000b
:205b1c00000000000000000000000000000000000000000000000000000000000000000069
:205b3c00000000000000000000000000000000000000000000000000000000000000000049
:205b5c0020200f401000000000000040000000000000080d9056c10204003c28100500000f
:0d5b7c0000b00fb8000000e3c0240a0000d4
:205b89000001000000000000000000000000000000000000000000000000000000000000fb
:205ba9000000000000000000000000000000000000000000000000000000000000000006d6
:205bc9006548f0c0000001a0000000000010000000000001001f800080000001ca80020041
:0d5be90008019572b50802000000000000e0
:205bf60000000000000000000000000000000000000000000000000000000000000000008f
:205c160000000000000000000000000000000000000000000000000000000000000000006e
:205c360020200f4000000100000000000003c000000000000f9c20001000802ce000000094
:0d5c56000200a90020010000000000000075
:205c6300000000000000000000000000000000000000000000000000000000000000000021
:205c8300000000000000000000000000000000000000000000000000000000000000000001
:205ca30001e8f0c00000000000000040000686cf520018080012b8c080a03c005ae3020016
:0d5cc3000000e36814041000000000000061
:205cd0000000000000000000000000000000000000000000000000000000000000000000b4
:205cf000000000000000000000000000000000000000000000000000000000000000000094
:205d100000000f4000300000000000400000010f5014100f00383cc00040260010e3000094
:0d5d3000000100c014000000000000000091
:205d3d00000000000000000000000000000000000000000000000000000000000000000046
:205d5d00000000000000000000000000000000000000000000000000000000000000000026
:205d7d000168f0c0000000000000000002000f9004100008005a80000000142a5800408000
:0d5d9d0000000000000010000000000000e9
:205daa000000000000000000000000000000000000000000000000000000000000000000d9
:205dca000000000000000000000000000000000000000000000000000000000000000000b9
:205dea0000000f40000000000000000001433ff40294000b0a9001400000366fdc20800036
:0d5e0a0000d00000000000000000000000bb
:205e170000000000000000000000000000000000000000000000000000000000000000006b
:205e3700000000000000000000000000000000000000000000000000000000000000002625
:205e57000168f0c0000100000000000000004000000000000073f0c040000e2afdf7000042
:0d5e77000018a0000000008007800000005f
:205e84000000000000000000000000000000000000000000000000000000000000000000fe
:205ea4000000000000000000000000000000000000000000000000000000000000000004da
:205ec40000200f400000f0000000000000028000000000010b1634c000060242dcff0100a1
:0d5ee4000009800000000000000000000028
:205ef100000000000000000000000000000000000000000000000100000000000000000090
:205f110000000000000000000000000000000000000000000000000000000000000c003e26
:205f31000168554030000000000000d0000007d0100000101a8702800c005e040c3022006c
:0d5f51000081cdbd054000000024ef500090
:205f5e00000000000000000000000000000000000000000000000100000000000000000022
:205f7e0000000000000000000000000000000000000000000000000000000000000c0004f3
:205f9e0000205541000000000000001000023db00000000000d001400000002000300000cd
:0d5fbe00007009e204000000437f050000b0
:205fcb000000000000000000000000000000000000000000000000000000000000000000b6
:205feb00000000000000000000000000000000000000000000000000000000000000001482
:20600b00004b810000000013748180000003e5ca0000005581571428000036625da500006c
:0d602b00000003be84000000000000000023
:20603800000200000000000000000000000000000000000000000000000000000000000046
:20605800000000000000000000000000000000000000000000000000000000000000000028
:2060780003584008000000f7a0008000000237a8100000000f0c140080001429fce5000090
:0d6098000000e9af4400000000000000001f
:2060a5000000000000000000000000000000000000000000000000000000000000000000db
:2060c5000000000000000000000000000000000000000000000000000000000000000014a7
:2060e5000000000038008001ebd400e000605f81c0a3808018121438100004024cc30238cb
:0d6105000039a063cc8800000000000000fd
:2061120000000000000000000000000000000000000000000000000000000000000000006d
:20613200000000000000000000000000000000000000000000000000000000000000001439
:20615200000000000000b080c3d4800000226702400000000018014000000028c0e30000f7
:0d61720000088043cc000000000000000089
:20617f00000000000000000000000000000000000000000000000000000000000000000000
:20619f000000000000000000000000000000000000000000000000000000000000000000e0
:2061bf0029780a0010050000000000c000e027ae542b0005997a3c220000406818f30200e1
:0d61df0018000bef9c000000002ff3f100f2
:2061ec00000000000000000000000000000000000000000000000000000000000000000093
:20620c00000000000000000000000000000000000000000000000000000000000000000072
:20622c0028200a0810000000000000c00000150d929300000a0803c00000c00000f3200039
:0d624c0000000db38c000000000ff1a00059
:20625900000100000000000000000000000000000000000000000000000000000000000024
:20627900000000000000000000000000000000000000000000000000000000000000000005
:2062990000000000000001800000000000e39e8020000001815214380000002adb200000fe
:0d62b900047987b29d08000000000000007d
:2062c6000000000000000000000000000000000000000000000000000000000000000000b8
:2062e600000000000000000000000000000000000000000000000000000000000000000098
:206306002800000000000100000000000006edc2200000000818014250000001fc000000c9
:0d63260000f80b426c0000000000000000b9
:2063330000000000000000000000000000000000000000000000000000000000000000004a
:2063530000000000000000000000000000000000000000000000000000000000000000002a
:2063730000000000000401e000000000016681e030200000007a143004008004eec0000217
:0d639300807999e14000000000000000004a
:2063a0000000000000000000000000000000000000000000000000000000000000000000dd
:2063c0000000000000000000000000000000000000000000000000000000000000000000bd
:2063e00000000000000a00000000000000000000321000000050014004085c26c9c20001a6
:0d6400000008ff40000000c0000000000088
:20640d0000000000000000000000000000000000000000000000000000000000000000006f
:20642d0000000000000000000000000000000000000000000000000000000000000000004f
:20644d000000000010001000000000000006008f500000001a5a143000460462d8000110dd
:0d646d0000819dbb8c080000028000000033
:20647a00000000000000000000000000000000000000000000000000000000000000000002
:20649a000000000000000000000000000000000000000000000000000000000000000000e2
:2064ba0000000000100008000000000000001d0fa20000000010014000003c00f00500104a
:0d64da000011f9030c200002440000000036
:2064e700000000000000000000000000000000000000000000000000000000000000000095
:20650700000000000000000000000000000000000000000000000000000000000000000074
:206527000000000000007800000000000207acc0102000701e5a14300000200040a5000006
:0d65470000f9f0000000000000000000005e
:20655400000000000000000000000000000000000000000000000000000000000000000027
:20657400000000000000000000000000000000000000000000000000000000000000000007
:2065940000000000000000000000000002401d00020000501058014000001c03400000002e
:0d65b40000f8f000000000c0000000000032
:2065c1000000000000000000000000000000000000000000000000000000000000000000ba
:2065e10000000000000000000000000000000000000000000000000000000000000000009a
:2066010000000000300000000000000002c71e91e000102800d2141000001e001ac0023099
:0d6621000039e3b8800000000240000000d6
:20662e0000000000000000000000000000000000000000000000000000000000000000004c
:20664e0000000000000000000000000000000000000000000000000000000000000000002c
:20666e0000000000000000000000000001c41de1c00000510e9002800002740010c00000d2
:0d668e00000103fc000000000740000000b8
:20669b000000000000000000000000000000000000000000000000000000000000000000df
:2066bb0000000000000000000000000000000000000000000000000000000000000040007f
:2066db00000000000000000000000000000040000000000001000000000014035925410088
:0d66fb000058a00000000000028000000018
:2067080000020000000000000000000000000000000000000000000000000000000000006f
:20672800000000000000000000000000000000000000000000000000000000000000a000b1
:2067480000000000000000000000000000038000000000000b000000000a0003d9150000a8
:0d6768000000000000000000040000000020
:20677500000000000000000000000000000000000000000000000000000000000000000004
:206795000000000000000000000000000000000000000000000000000000000000000000e4
:2067b5000000000000000000000000000002c00000038000019296c04e000471cb254100a2
:0d67d500000000000000e0000016e0a00041
:2067e200000000000000000000000000000000000000000000000000000000000000000097
:20680200000000000000000000000000000000000000000000000000000000000000000076
:20682200000000000000000000000000000300000000000308bf62c00000027c4dbf90004d
:0d6842000000000000000002400100a00066
:20684f000000000000000000000000000000000040000000000000000000000000000000e9
:20686f00000000000000000000000040000000000000000000000080000000000000000148
:20688f0000000000040000000000000000660000000000000efee94200003c2800000000e4
:0d68af0000000b2168000000003fa0040065
:2068bc000000000000000000000000000000000000000000000000000000000000000000bc
:2068dc0000000000000000000000000000000000000000000000000000000000000000009c
:2068fc0000000000010000000000000060268000000000090096eb400000060000000000a5
:0d691c00000007c17c00000000040a00001c
:2069290000010000000000000000000000000000000000000000000000000000000000004d
:2069490000000000000000000000000000000000000000000000000000000000000000002e
:206969000000000000000000000000000000000000000008189ec00000000003ca5540002e
:0d69890000000000000000034036e1a00007
:206996000000000000000000000000000000000000000000000000000000000000000000e1
:2069b6000000000000000000000000000000000000000000000000000000000000000000c1
:2069d600000000000000000000000000000000000000000d0bdf81004000000070a5900044
:0d69f600000000000000000060159240004d
:206a0300000000000000000000000000000000000000000000000000000000000000000073
:206a2300000000000000000000000000000000000000000000000000000000000000000053
