:02000000ff00ff
:080002004c6174746963650030
:17000a00694345637562653220323032302e31322e32373934330071
:16002100506172743a2069434534304858344b2d545131343400f9
:1b003700446174653a204a756e20313520323032352031313a33383a31360072
:0200520000ffad
:040054007eaa997e69
:02005800510055
:02005a0001059e
:03005c00920020ef
:03005f00620367d2
:0300620072011018
:0300650082000016
:02006800110085
:02006a00010192
:20006c00000000000000000000000000000000000000000000000000000000000000000074
:20008c00000000000000000000000000000000000000000000000000000000000000000054
:2000ac0000000000010000000000000400000000000000000000000000000000000000012e
:0d00cc0000000000000000003000000000f7
:2000d900000000000000000000000000000000000000000000000000000000000000000007
:2000f9000000000000000000000000000000000000000000000000000000000000000000e7
:200119000000000000000000000000000000000000000000000000000000000000000000c6
:0d01390000000000000000000000000000b9
:20014600000000000000000000000000000000000000000000000000000000000000000099
:20016600000000000000000000000000000000000000000000000000000000000000000079
:20018600000000000100000000000004000000000000000000000000000000000000000153
:0d01a6000000000000000400000000000048
:2001b30000000000000000000000000000000000000000000000000000000000000000002c
:2001d30000000000000000000000000000000000000000000000000000000000000000000c
:2001f3000000000000000000000000000030000000000000000000000000000000000000bc
:0d02130000000000000000000000000000de
:200220000000000000000000000000000000000000000000000000000000000000000000be
:2002400000000000000000000000000000000000000000000000000000000000000000009e
:200260000000000002000000140000080080001000000000000000000000000000000002ce
:0d028000000000140000000000000000005d
:20028d00000000000000000000000000000000000000000000000000000000000000000051
:2002ad00000000000000000000000000000000000000000000000000000000000000000031
:2002cd00000000000000000014000000007000f0000000000000000000000000000000009d
:0d02ed000000001c000000000000000000e8
:2002fa000000000000000000000000000000000000000000000000000001000000000000e3
:20031a000000000000000000000000000000000000000000000000000000000000000000c3
:20033a00000000000200000000000008000010000000000000000000000000000000000188
:0d035a000002000000000000000000000094
:20036700000000000000000000000000000000000000000000000000000000000000000076
:20038700000000000000000000000000000000000000000000000000000000000000000056
:2003a7000000000000000c000000000000000000000000000000000000000000000000002a
:0d03c700001e00000000000000000000000b
:2003d40000000000000800000000000020000000000000800000000000020000000000005f
:2003f4000800000000000020000000000000800000000000020000000000800000000000bf
:20041400020000000000000c000000000030300000000000008000000000000200000000d8
:0d043400001e0c0000000000002000000071
:2004410000000000000000000000000000000000000000000000000000000000000000009b
:2004610000000000000000000000000000000000000000000000000000000000000000007b
:2004810000000000000000000000000000000000000000000000000000000000000000005b
:0d04a100000200000000000000000000004c
:2004ae0000000000000000000000000000000000000000000000000000000000000000002e
:2004ce0000000000000000000000000000000000000000000000000000000000000000000e
:2004ee00000000000000020000000000000000d0000000000000100000000001000000000b
:0d050e0000000400000000000000300000ac
:20051b000000000000000000000000000000000000000000000000000000000000000000c0
:20053b000000000000000000000000000000000000000000000000000000000000000000a0
:20055b000000000000000c00000000040000007000000000c000100000000003000000002d
:0d057b000000080000000800000030000033
:20058800000000000000000000000000000000000000000000000000000000000000000053
:2005a800000000000000000000000000000000000000000000000000000000000000000033
:2005c80000000000000000000000000400800000000000000000000000000001000000008e
:0d05e80000000800000000000010000000ee
:2005f5000000000000000000000000000000000000000000000000400000000000000000a6
:200615000000000000000000000000000000000000000000000000000000000000000000c5
:20063500000000000000000000000004007000000000000000000000000000000000000031
:0d0655000000040000000400000000000090
:200662000000000000040000000000001000000000000040000000400001000000000000e3
:200682000400000000000010000000000000400000000000010000000000400000000000c3
:2006a2000100000000000004000000000000100000000000004000000000000100000000e2
:0d06c2000000040000000000000000000027
:2006cf0000000000000000000000000000000000000000000000000000000000000000000b
:2006ef000000000000000000000000000000000000000000000000000000000000000000eb
:20070f000000000000000000000000080000000000000000000000000000000000000000c2
:0d072f0000000000000008000000000000b5
:20073c0000000000000000000000000000000000000000000000000000000000000000009d
:20075c0000000000000000000000000000000000000000000000000000000000000000007d
:20077c0000000000000000000000000000000000000000000000000000000000000000005d
:0d079c000000000000000000000000000050
:2007a90000020000000000000000000000000000000000000000000000000000000000002e
:2007c900000000000000000000000000000000000000000000000000000000000000000010
:2007e9000000000000000000000000000000000000000000000000000000000000000000f0
:0d08090000000000000000000000000000e2
:200816000000000000000000000000000000000000000000000000000000000000000000c2
:200836000000000000000000000000000000000000000000000000000000000000000000a2
:20085600000000000000000000000000000000000000000000000000000000000000000082
:0d0876000000000000000000000000000075
:20088300000000000000000000000000000000000000000000000000000000000000000055
:2008a300000000000000000000000000000000000000000000000000000000000000000035
:2008c300000000000000000000000000000000000000000000000000000000000000000015
:0d08e3000000000000000000000000000008
:2008f0000000000000000000000000000000000000000000000000000000000000000000e8
:200910000000000000000000000000000000000000000000000000000000000000000000c7
:200930000000000000000000000000000000000000000000000000000000000000000000a7
:0d095000000000000000000000000000009a
:20095d0000000000000000000000000000000000000000000000000000000000000000007a
:20097d0000000000000000000000000000000000000000000000000000000000000000005a
:20099d0000000000000000000000000000000000000000000000000000000000000000003a
:0d09bd00000000000000000000000000002d
:2009ca0000010000000000000000000000000000000000000000010000000000000000000b
:2009ea000000000000000000000000000000000000000000000000000000000000000000ed
:200a0a000000000000000000000000000000000000000000000000000000000000000000cc
:0d0a2a0000000000000010000000000000af
:200a370000000000000000000000000000000000000000000000000000000000000000009f
:200a570000000000000000000000000000000000000000000000000000000000000000007f
:200a770000000000000000000000000000000000000000000000000000000000000000005f
:0d0a97000000000000001000000000000042
:200aa400000000000000000000000000000000000000000000000000000000000000000032
:200ac400000000000000000000000000000000000000000000000000000000000000000012
:200ae4000000000000000000000000000000000000000000000000000000000000000000f2
:0d0b040000000000000000000000000000e4
:200e7900000200000000000000000000000000000000000000000000000000000000000057
:200e9900000000000000000000000000000000000000000000000000000000000000000039
:200eb900000000000000000000000000000000000000000000000000000000000000000019
:0d0ed900000000000000000000000000000c
:200ee6000000000000000000000000000000000000000000000000000000000000000000ec
:200f06000000000000000000000000000000000000000000000000000000000000000000cb
:200f26000000000000000000000000000000000000000000000000000000000000000000ab
:0d0f4600000000000000000000000000009e
:200f530000000000000000000000000000000000000000000000000000000000000000007e
:200f730000000000000000000000000000000000000000000000000000000000000000005e
:200f930000000000000000000000000000000000000000000000000000000000000000003e
:0d0fb3000000000000000000000000000031
:200fc000000000000000000000000000000000000000000000000000000000000000000011
:200fe0000000000000000000000000000000000000000000000000000000000000000000f1
:201000000000000000000000000000000000000000000000000000000000000000000000d0
:0d10200000000000000000000000000000c3
:20102d000000000000000000000000000000000000000000000000000000000000000000a3
:20104d00000000000000000000000000000000000000000000000000000000000000000083
:20106d00000000000000000000000000000000000000000000000000000000000000000063
:0d108d000000000000000000000000000056
:20109a00000100000000000000000000000000000000000000000000000000000000000035
:2010ba00000000000000000000000000000000000000000000000000000000000000000016
:2010da000000000000000000000000000000000000000000000000000000000000000000f6
:0d10fa0000000000000000000000000000e9
:201107000000000000000000000000000000000000000000000000000000000000000000c8
:20154900000200000000000000000000000000000000000000000000000000000000000080
:20156900000000000000000000000000000000000000000000000000000000000000000062
:20158900000000000000000000000000000000000000000000000000000000000000000042
:0d15a9000000000000000000000000000035
:2015b600000000000000000000000000000000000000000000000000000000000000000015
:2015d6000000000000000000000000000000000000000000000000000000000000000000f5
:2015f6000000000000000000000000000000000000000000000000000000000000000000d5
:0d16160000000000000000000000000000c7
:201623000000000000000000000000000000000000000000000000000000000000000000a7
:20164300000000000000000000000000000000000000000000000000000000000000000087
:20166300000000000000000000000000000000000000000000000000000000000000000067
:0d168300000000000000000000000000005a
:2016900000000000000000000000000000000000000000000000000000000000000000003a
:2016b00000000000000000000000000000000000000000000000000000000000000000001a
:2016d0000000000000000000000000000000000000000000000000000000000000000000fa
:0d16f00000000000000000000000000000ed
:2016fd000000000000000000000000000000000000000000000000000000000000000000cd
:20171d000000000000000000000000000000000000000000000000000000000000000000ac
:20173d0000000000000000000000000000000000000000000000000000000000000000008c
:0d175d00000000000000000000000000007f
:20176a0000010000000000000000000000000000000000000000000000000000000000005e
:20178a0000000000000000000000000000000000000000000000000000000000000000003f
:2017aa0000000000040000000000001000000000000000000000000000000000000000000b
:0d17ca000000000000000000000000000012
:2017d7000000000000000000000000000000000000000000000000000000000000000000f2
:2017f7000000000000000000000000000000000000000000000000000000000000000000d2
:201817000000000000000000000000000000000000000000000000000000000000000000b1
:0d18370000000000000000000000000000a4
:20184400000000000000000000000000000000000000000000000000000000000000000084
:20186400000000000000000000000000000000000000000000000000000000000000000064
:20188400000000000000000000000000000000000000000000000000000000000000000044
:0d18a4000000000000000000000000000037
:2018b100000000000000000000000000000000000000000000000000000000000000000017
:2018d1000000000000000000000000000000000000000000000000000000000000000000f7
:2018f1000000000000000000000000000000000000000000000000000000000000000000d7
:0d19110000000000000000000000000000c9
:20191e000000000000000000000000000000000000000000000000000000000000000000a9
:20193e00000000000000000000000000000000000000000000000000000000000000000089
:20195e00000000000000000000000000000000000000000000000000000000000000000069
:0d197e000004000000000000000000000058
:20198b0000000000000000000000000000000000000000000000000000000000000000003c
:2019ab0000000000000000000000000000000000000000000000000000000000000000001c
:2019cb000000000000000000000000000000000000000000000000000000000000000000fc
:0d19eb0000000000000000000000000000ef
:2019f8000000000000000000000000000000000000000000000000000000000000000000cf
:201a18000000000000000000000000000000000000000000000000000000000000000000ae
:201a380000000000000000000000000000000000000000000000000000000000000000008e
:0d1a58000000000000000000000000000081
:201a6500000000000000000000000000000000000000000000000000000000000000000061
:201a8500000000000000000000000000000000000000000000000000000000000000000041
:201aa5000000000000000000000000006000000000000000000000000000000000000000c1
:0d1ac5000000000000000000000000000014
:201ad2000000000000000000000000000000000000000000000000000000000000000000f4
:201af2000000000000000000000000000000000000000000000000000000000000000000d4
:201b12000000000000000000000000000000000000000000000000000000000000000000b3
:0d1b320000000000000000000000000000a6
:201b3f00000000000000000000000000000000000000000000000000000000000000000086
:201b5f00000000000000000000000000000000000000000000000000000000000000000066
:201b7f00000000000000000000000000000000000000000000000000000000000000000046
:0d1b9f000000000000000000000000000039
:201bac00000000000000000000000000000000000000000000000000000000000000000019
:201bcc000000000000000000000000000000000000000000000000000000000000000000f9
:201bec000000000000000000000000000000000000000000000000000000000000000000d9
:0d1c0c0000000000000000000000000000cb
:201c19000002000000000000000000000000000000000000000000000000000000000000a9
:201c390000000000000000000000000000000000000000000000000000000000000000008b
:201c590000000000000000000000000000000000000000000000000000000000000000006b
:0d1c7900000000000000000000000000005e
:201c860000000000000000000000000000000000000000000000000000000000000000003e
:201ca60000000000000000000000000000000000000000000000000000000000000000001e
:201cc6000000000000000000000000000000000000000000000000000000000000000000fe
:0d1ce60000000000000000000000000000f1
:201cf300800000000000000000000000000000000000000000000000000000000000000051
:201d13000000000000000000000000000000000000000000000000000000000000000000b0
:201d3300000000000000000000000000000000000000000000000000000000000000000090
:0d1d53000000000000000000000000000083
:201d6000000000000000000000000000000000000000000000000000000000000000000063
:201d8000000000000000000000000000000000000000000000000000000000000000000043
:201da00000000000000800000000000000000000000000000000000000000000000000001b
:0d1dc0000000000000000000000000000016
:201dcd00800000000000000000000000000000000000000000000000000000000000000076
:201ded000000000000000000000000000000000000000000000000000000000000000000d6
:201e0d000000000000000000000000000000000000000000000000000000000000000000b5
:0d1e2d003000000000000000000000000078
:201e3a00000300000000000000000000000000000000000000000000000000000000000085
:201e5a00000000000000000000000000000000000000000000000000000000000000000068
:201e7a00000000000000000000000000000000000000000000000000000000000000000048
:0d1e9a00000000000000000000000000003b
:201ea70000000000000000000000000000000000000000000000010000000000000000001a
:201ec7000000000000000000000000000000000000000000000000000000000000010000fa
:201ee7000000000000080000000000000000000000000000000000000000000000000000d3
:0d1f070000000000000000000000000000cd
:201f14000000000000000000000000000000000000000000000000000000000000000000ad
:201f340000000000000000000000000000000000000000000000000000000000000000008d
:201f540000000000000000000000000000000000000000000000000000000000000000006d
:0d1f74000000000000000000000000000060
:201f81004002000000000000000000000000000000000000000000000000000000000000fe
:201fa100000000000000000000000000000000000000000000000000000000000000000020
:201fc100000000000000000000000000000000000000000000000000000000000000000000
:0d1fe10000000000000000000000000000f3
:201fee000000000000000000000000000000000000000000000000000000000000000000d3
:20200e000000000000000000000000000000000000000000000000000000000000000000b2
:20202e00000000000000000000000000000000000000000000000000000000000000000092
:0d204e000000000000000000000000000085
:20205b00000000000000000000000000000000000000000000000000000000000000000065
:20207b00000000000000000000000000000000000000000000000000000000000000000045
:20209b00000000000000000000000000000000000000000000000000000000000000000025
:0d20bb000000000000000000000000000018
:2020c8000000000000000000000000000000000000000000000000000000000000000000f8
:2020e8000000000000000000000000000000000000020000000000000000000000000000d6
:202108000000000000000000000000000000000000000000000000000000000000000000b7
:0d21280000000000000000000000000000aa
:2021350080000000000000000000000000000000000000000000000000000000000000000a
:2021550000000000000000000000000000000000000000000000000000000000000000006a
:2021750000000000000000000000000000000000000000000000000000000000000000004a
:0d219500000000000000000000000000003d
:2021a20000000000000000000000000000000000000000000000000000000000000000001d
:2021c2000000000000000000000000000000000000000000000000000000000000000000fd
:2021e2000000000000000000000000000000000000000000000000000000000000000000dd
:0d22020000000000000000000000000000cf
:20220f000000000000000000000000000000000000000000000000000000000000000000af
:20222f0000000000000000000000000000000000000000000000000000000000000000008f
:20224f0000000000000000000000000000000000000000000000000000000000000000006f
:0d226f000000000000000000000000000062
:20227c00000000000000000000000000000000000000000000000000000000000000000042
:20229c00000000000000000000000000000000000000000000000000000000000000000022
:2022bc00000000000000000000000000000000000000000000000000000000000000000002
:0d22dc0000000000000000000000000000f5
:2022e9000002000000000000000000000000000000000000000000000000000000000000d3
:202309000000000000000000000000000000000000000000000000000000000000000000b4
:20232900000000000000000000000000000000000000000000000000000000000000000094
:0d2349000000000000000000000000000087
:202356008000000000000000000000000000000000000000000000000000000000000000e7
:20237600000000000000000000000000000000000000000000000000000000000000000047
:20239600000000000000000000000000000000000000000000000000000000000000000027
:0d23b600000000000000000000000000001a
:2023c30080000000000000000000000000000000000000000000000000000000000000007a
:2023e3000000000000000000000000000000000000000000000000000000000000000000da
:202403000000000000000000000000000000000000000000000000000000000000000000b9
:0d24230000000000000000000000000000ac
:2024300000000000000000000000000000000000000000000000000000000000000000008c
:2024500000000000000000000000000000000000000000000000000000000000000000006c
:2024700000000000000000000000000000000000000000000000000000000000000000004c
:0d249000000000000000000000000000003f
:20249d0000000000000000000000000000000000000000000000000000000000000000001f
:2024bd000000000010000000000000000000000000010000000000000000000000000000ee
:2024dd000000000000000000000000000000000000000000000000000000000000000000df
:0d24fd0000000000000000000000000000d2
:20250a000003000000000000000000000000000000000000000000000000000000000000ae
:20252a00000000000000000000000000000000000000000000000000000000000000000091
:20254a00000000000000000000000010000000000000000000000000000000000000000061
:0d256a000000000000001000000000000054
:20257700000000000000000000000000000000000000000000000000000000000000000044
:20259700000000000000000000000000000000000001000000000000000000000000000023
:2025b700000000000000000000000000000000000000000000000000000000000000000004
:0d25d70000000000000010000000000000e7
:2025e4000000000000000000000000000000000000000000000000000000000000000000d7
:202604000000000000000000000000000000000000000000000000000000000000000000b6
:20262400000000000400000000000000000000000000000000000000000000000000000092
:0d2644000000000000000000000000000089
:202651008002000000000000000000000000000000000000000000000000000000000000e7
:20267100000000000000000000000000000000000000000000000000000000000000000049
:20269100000000000000000000000000000000000000000000000000000000000000000029
:0d26b100000000000000000000000000001c
:2026be000000000000000000000000000000000000000000000000000000000000000000fc
:2026de000000000000000000000000000000000000000000000000000000000000000000dc
:2026fe000000000000000000000000000000000000000000000000000000000000000000bc
:0d271e0000000000000000000000000000ae
:20272b0000000000000000000000000000000000000000000000000000000000000000008e
:20274b0000000000000000000000000000000000000000000000000000000000000000006e
:20276b0000000000000000000000000000000000000000000000000000000000000000004e
:0d278b000000000000000000000000000041
:20279800000000000000000000000000000000000000000000000000000000000000000021
:2027b800000000000000000000000000000000000000000000000000000000000000000001
:2027d8000000000000000000000000000000000000000000000000000000000000000000e1
:0d27f80000000000000000000000000000d4
:20280500800000000000000000000000000000000000000000000000000000000000000033
:20282500000000000000000000000000000000000000000000000000000000000000000093
:20284500000000000000000000000000000000000000000000000000000000000000000073
:0d2865000000000000000000000000000066
:20287200000000000000000000000000000000000000000000000000000000000000000046
:20289200000000000000000000000000000000000000000000000000000000000000000026
:2028b200000000000000000000000000000000000000000000000000000000000000000006
:0d28d20000000000000000000000000000f9
:2028df000000000000000000000000000000000000000000000000000000000000000000d9
:2028ff000000000000000000000000000000000000000000000000000000000000000000b9
:20291f00000000000000000000000000000000000000000000000000000000000000000098
:0d293f00000000000000000000000000008b
:20294c0000000000000000000000000000000000000000000000000000000000000000006b
:20296c0000000000000000000000000000000000000000000000000000000000000000004b
:20298c0000000000000000000000000000000000000000000000000000000000000000002b
:0d29ac00000000000000000000000000001e
:2029b9000002000000000000000000000000000000000000000000000000000000000000fc
:2029d9000000000000000000000000000000000000000000000000000000000000000000de
:2029f9000000000000000000000000000000000000000000000000000000000000000000be
:0d2a190000000000000000000000000000b0
:202a2600000000000000000000000000000000000000000000000000000000000000000090
:202a4600000000000000000000000000000000000000000000000000000000000000000070
:202a6600000000000000000000000000000000000000000000000000000000000000000050
:0d2a86000000000000000000000000000043
:202a93008000000000000000000000000000000000000000000000000000000000000000a3
:202ab300000000000000000000000000000000000000000000000000000000000000000003
:202ad3000000000000000000000000000000000000000000000000000000000000000000e3
:0d2af30000000000000000000000000000d6
:202b00000000000000000000000000000000000000000000000000000000000000000000b5
:202b2000000000000000000000000000000000000000000000000000000000000000000095
:202b4000000000000000000000000000000000000000000000000000000000000000000075
:0d2b60000000000000000000000000000068
:202b6d008000000000000000000000000000000000000000000001000000000000000000c7
:202b8d00000000001000000000000000000000000000000000000000000000000000000018
:202bad00000000000000000000000000000000000000000000000000000000000000000008
:0d2bcd0000000000000010000000000000eb
:202bda000003000000000000000000000000000000000000000000000000000000000000d8
:202bfa000000000000000000000000000000000000000000000000000000000000000000bb
:202c1a0000000000000000000000000000000000000000000000000000000000000000009a
:0d2c3a00000000000000000000000000008d
:202c470000000000000000000000000000000000000000000000000000000000000000006d
:202c670000000000000000000000000000000000000000000000000000000000000000004d
:202c870000000000000000000000000000000000000000000000000000000000000000002d
:0d2ca7000000000000000000000000000020
:202cb400000000000000000000000000000000000000000000000000000000000000000000
:202cd4000000000000000000000000000000000000000000000000000000000000000000e0
:202cf4000000000000000000000000000000000000000000000000000000000000000000c0
:0d2d140000000000000000000000000000b2
:202d2100800200000000000000000000000000000000000000000000000000000000000010
:202d4100000000000000000000000000000000000000000000000000000000000000000072
:202d6100000000000000000000000000000000000000000000000000000000000000000052
:0d2d81000000000000000000000000000045
:202d8e00000000000000000000000000000000000000000000000000000000000000000025
:202dae00000000000000000000000000000000000000000000000000000000000000000005
:202dce000000000000000000000000000000000000000000000000000000000000000000e5
:0d2dee0000000000000000000000000000d8
:202dfb000000000000000000000000000000000000000000000000000000000000000000b8
:202e1b00000000000000000000000000000000000000000000000000000000000000000097
:202e3b00000000000000000000000000000000000000000000000000000000000000000077
:0d2e5b00000000000000000000000000006a
:202e680000000000000000000000000000000000000000000000000000000000000000004a
:202e880000000000000000000000000000000000000000000000000000000000000000002a
:202ea80000000000000000000000000000000000000000000000000000000000000000000a
:0d2ec80000000000000000000000000000fd
:202ed50080000000000000000000000000000000000000000000000000000000000000005d
:202ef5000000000000000000000000000000000000000000000000000000000000000000bd
:202f150000000000000000000000000000000000000000000000000000000000000000009c
:0d2f3500000000000000000000000000008f
:202f420000000000000000000000000000000000000000000000000000000000000000006f
:202f620000000000000000000000000000000000000000000000000000000000000000004f
:202f820000000000000000000000000000000000000000000000000000000000000000002f
:0d2fa2000000000000000000000000000022
:202faf00000000000000000000000000000000000000000000000000000000000000000002
:202fcf000000000000000000000000000000000000000000000000000000000000000000e2
:202fef000000000000000000000000000000000000000000000000000000000000000000c2
:0d300f0000000000000000000000000000b4
:20301c00000000000000000000000000000000000000000000000000000000000000000094
:20303c00000000000000000000000000000000000000000000000000000000000000000074
:20305c00000000000000000000000000140000000000000000000000000000000000000040
:0d307c000000000000000000000000000047
:20308900000200000000000000000000000000000000000000000000000000000000000025
:2030a900000000000000000000000000000000000000000000000000000000000000000007
:2030c9000000000000000000000000000000000000000000000000000000000000000000e7
:0d30e90000000000000000000000000000da
:2030f6000000000000000000000000000000000000000000000000000000000000000000ba
:20311600000000000000000000000000000000000000000000000000000000000000000099
:20313600000000000000000000000000000000000000000000000000000000000000000079
:0d315600000000000000000000000000006c
:2031630000000000000000000000000000000000000000000000000000000000000000004c
:2031830000000000000000000000000000000000000000000000000000000000000000002c
:2031a30000000000000000000000000000000000000000000000000000000000000000000c
:0d31c30000000000000000004000000000bf
:2031d0000000000000000000000000000000000000000000000000000000000000000000df
:2031f0000000000000000000000000000000000000000000000000000000000000000000bf
:2032100000000000000000000000000000000000000000000000000000000000000000009e
:0d3230000000000000000000000000000091
:20323d00000000000000000000000000000000000000000000000000000000000000000071
:20325d00000000000000000000000000000000000000000000000000000000000000000051
:20327d00000000000000000000000000000000000000000000000000000000000000000031
:0d329d000000000000000000000000000024
:2032aa00000100000000000000000000000000000000000000000000000000000000000003
:2032ca000000000000000000000000000000000000000000000000000000000000000000e4
:2032ea000000000000000000000000000000000000000000000000000000000000000004c0
:0d330a00000000000000c0000000000000f6
:20331700000000000000000000000000000000000000000000000000000000000000000096
:20333700000000000000000000000000000000000000000000000000000000000000000076
:20335700000000000000000000000000000000000000000000000000000000000000000056
:0d337700000000000000c000000000000089
:20338400000000000000000000000000000000000000000000000000000000000000000029
:2033a400000000000000000000000000000000000000000000000000000000000000000009
:2033c400000000000000000000000010000000000000400000000000000000000000000099
:0d33e40000000000000000000000000000dc
:2033f1000000000000000000000000000000000000000000000000000000000000000000bc
:2034110000000000000000000000000000000000000000000000000000000000000000009b
:2034310000000000000000000000000000000000000040000000000000000000000000003b
:0d345100000000000000000000000000006e
:20345e0000000000000000000000000000000000000000000000000000000000000000004e
:20347e0000000000000000000000000000000000000000000000000000000000000000002e
:20349e0000000000000000000000000000000000000000000000000000000000000000000e
:0d34be000000000000000000000000000001
:2034cb000000000000000000000000000000000000000000000000000000000000000000e1
:2034eb000000000000000000000000000000000000000000000000000000000000000000c1
:20350b0000000000000004000000000000000000000000000000000000000000000000009c
:0d352b000000000000000000000000000093
:20353800000000000000000000000000000000000000000000000000000000000000000073
:20355800000000000000000000000000000000000000000000000000000000000000000053
:20357800000000000000000000000000000000000000000000000000000000000000000033
:0d3598000000000000000000000000000026
:2035a500000000000000000000000000000000000000000000000000000000000000000006
:2035c5000000000000000000000000000000000000000000000000000000000000000000e6
:2035e5000000000000000000000000000000000000000000000000000000000000000000c6
:0d36050000000000000000000000000000b8
:20361200000000000000000000000000000000000000000000000000000000000000000098
:20363200000000000000000000000000000000000000000000000000000000000000000078
:20365200000000000000000000000000000000000000000000000000000000000000000058
:0d367200000000000000000000018f0100ba
:20367f0000000000000000000000000000000000000000000000000000000000000000002b
:20369f0000000000000000000000000000000000000000000000000000000000000000000b
:2036bf000000000000000000000000000000000000000000000000000000000000000000eb
:0d36df00000000000000000000000f0000cf
:2036ec000000000000000000000000000000000000000000000000000000000000000000be
:20370c0000000000000000000000000000000000000000000000000000000000000000009d
:20372c0000000000000000000000001000000000000000000000000000000000000000006d
:0d374c000000000000001000000000000060
:2037590000020000000000000000000000000000000000000000000000000000000000004e
:20377900000000000000000000000000000000000000000000000000000000000000000030
:20379900000000000000000000000000000000000000000000000000000000000000000010
:0d37b9000000000000000000000000000003
:2037c6000000000000000000000000000000000000000000000000000000000000000000e3
:2037e6000000000000000000000000000000000000000000000000000000000000000000c3
:20380600000000000280000000000000000000000000000000000000000000000000000020
:0d3826000000000000000000000000000095
:20383300000000000000000000000000000000000000000000000000000000000000000075
:20385300000000000000000000000000000000000000000000000000000000000000000055
:20387300000000000000000000000000000000000000000000000000000000000000000035
:0d3893000000000000000000000000000028
:2038a000000000000000000000000000000000000000000000000000000000000000000008
:2038c0000000000000000000000000000000000000000000000000000000000000000000e8
:2038e0000000000000000000000000000000000000000000000000000000000000000000c8
:0d39000000000000000000000000000000ba
:20390d0000000000000000000000000000000000000000000000000000000000000000009a
:20392d0000000000000000000000000000000000000000000000000000000000000000007a
:20394d0000000000000000000000000000000000000000000000000000000000000000005a
:0d396d00000000000000000000000000004d
:20397a0000010000000000000000000000000000000000000000000000000000000000002c
:20399a0000000000000000000000000000000000000000000000000000000000000000000d
:2039ba000000000000000000000000000000000000000000000000000000000000000000ed
:0d39da0000000000000000000000000000e0
:2039e7000000000000000000000000000000000000000000000000000000000000000000c0
:0d3d42000000000000000100000000000073
:203d4f00000000000000000000000000000000000000000000000000000000000000000054
:203d6f00000000000000000000000000000000000000000000000000000000000000000034
:203d8f00000000000000000000000000000000000000000000000000000000000000000014
:0d3daf000000000000000000000000000007
:203dbc000000000000000000000000000000000000000000000000000000000000000000e7
:203ddc000000000000000000000000000000000000000000000000000000000000000000c7
:203dfc000000000000000000000000000000000000000000000000000000000000000000a7
:0d3e1c000000000000000000000000000099
:203e2900000200000000000000000000000000000000000000000000000000000000000077
:203e4900000000000000000000000000000000000000000000000000000000000000000059
:203e6900000000000000000000000000000000000000000000000000000000000000000039
:0d3e8900000000000000000000000000002c
:203e960000000000000000000000000000000000000000000000000000000000000000000c
:203eb6000000000000000000000000000000000000000000000000000000000000000000ec
:203ed6000000000000000000000000000000000000000000000000000000000000000000cc
:0d3ef60000000000000000000000000000bf
:203f030000000000000000000000000000000000000000000000000000000000000000009e
:203f230000000000000000000000000000000000000000000000000000000000000000007e
:203f430000000000000000000000000000000000000000000000000000000000000000005e
:0d3f63000000000000000000000000000051
:203f7000000000000000000000000000000000000000000000000000000000000000000031
:203f9000000000000000000000000000000000000000000000000000000000000000000011
:203fb0000000000000000000000000000000000000000000000000000000000000000000f1
:0d3fd00000000000000000000000000000e4
:203fdd000000000000000000000000000000000000000000000000000000000000000000c4
:203ffd000000000000000000000000000000000000000000000000000000000000000000a4
:20401d00000000000000000000000000000000000000000000000000000000000000000083
:0d403d000000000000000000000000000076
:20404a00000100000000000000000000000000000000000000000000000000000000000055
:20406a00000000000000000000000000000000000000000000000000000000000000000036
:20408a00000000000000000000000000000000000000000000000000000000000000000016
:0d40aa000000000000000000000000000009
:2040b7000000000000000000000000000000000000000000000000000000000000000000e9
:2040d7000000000000000000000000000000000000000000000000000000000000000000c9
:2040f7000000000000000000000000000000000000000000000000000000000000000000a9
:0d411700000000000000000000000000009b
:2041240000000000000000000000000000000000000000000000000000000000000000007b
:2041440000000000000000000000000000000000000000000000000000000000000000005b
:2041640000000000000000000000000000000000000000000000000000000000000000003b
:0d418400000000000000000000000000002e
:2041910000000000000000000000000000000000000000000000000000000000000000000e
:2041b1000000000000000000000000000000000000000000000000000000000000000000ee
:2041d1000000000000000000000000000000000000000000000000000000000000000000ce
:0d41f10000000000000000000000000000c1
:2041fe000000000000000000000000000000000000000000000000000000000000000000a1
:20421e00000000000000000000000000000000000000000000000000000000000000000080
:20423e00000000000000000000000000000000000000000000000000000000000000000060
:0d425e000000000000000100000000000052
:20426b00000000000000000000000000000000000000000000000000000000000000000033
:20428b00000000000000000000000000000000000000000000000000000000000000000013
:2042ab000000000000000000000000000000000000000000000000000000000000000000f3
:0d42cb0000000000000000000000000000e6
:2042d8000000000000000000000000000000000000000000000000000000000000000000c6
:2042f8000000000000000000000000000000000000000000000000000000000000000000a6
:20431800000000000000000000000000000000000000400000000000000000000000000045
:0d4338000000000000000000000000000078
:20434500000000000000000000000000000000000000000000000000000000000000000058
:20436500000000000000000000000000000000000000000000000000000000000000000038
:20438500000000000000000000000000000000000000040000000000000000000000000014
:0d43a50040000000000001000000000000ca
:2043b2000000000000000000000000000000000000000000000000000000000000000000eb
:2043d2000000000000000000000000000000000000000000000000000000000000001000bb
:2043f200000000000040000000000001000000000000040000000000001000000000000056
:0d441200400000000000000000000000005d
:20441f0000000000000000000000000000000000000000000000000000000000000000007d
:20443f0000000000000000000000000000000000000000000000000000000000000000005d
:20445f00000000000000000000000000000000000000040000000000001000000000000029
:0d447f0040000000000001000000000000ef
:20448c00000000000000000000000000000000000000000000000000000000000000000010
:2044ac000000000000000000000000000000000000000000000000000000000000000000f0
:2044cc000000000000000000000000000000000000000000000000000000000000000020b0
:0d44ec0000019000000080000000000000b2
:2044f9000002000000000000000000000000000000000000000000000000000000000000a1
:20451900000000000000000000000000000000000000000000000000000000000000000082
:20453900000000000000000000000000000000000000000000000000000000000000000062
:0d45590000d0800000000000000000000005
:20456600000000000000000000000000000000000000000000000000010000000000000034
:20458600000000000000000000000000000000000000000000000000000000000000000015
:2045a6000000000000000000000000000000000000000000000000000000000000000038bd
:0d45c600000089602800e0001001ea0400f8
:2045d3000000000000000000000000000000000000000000000000000000000000000000c8
:2045f3000000000000000000000000000000000000000000000000000000000000000000a8
:20461300000000000000000000000000000000000000000000000000000000000000000087
:0d46330000d0090000000000001505000087
:2046400000000000000000000000000000000000000000000000000000000000000000005a
:2046600000000000000000000000000000000000000000000000000000000000000000003a
:2046800000000000000000000000000000000000000000000000000000000000000000001a
:0d46a00000000f31f80800000000cf0400fa
:2046ad000000000000000000000000000000000000000000000000000000000000000000ed
:2046cd000000000000000000000000000000000000000000000000000000000000000000cd
:2046ed000000000000000000000000000000000000000000000000000000000000000000ad
:0d470d0000000d8074000001c0000f0000ce
:20471a0000010000000000000000000000000000000000000000000000000000000000007e
:20473a0000000000000000000000000000000000000000000000000000000000000000005f
:20475a0000000000000000000000000000000000000000000000000000000000000000003f
:0d477a0000198162800000000000000000b6
:20478700000000000000000000000000000000000000000000000000000000000000000012
:2047a7000000000000000000000000000000000000000000000000000000000000000000f2
:2047c7000000000000000000000000000000000000000000000000000000000000000000d2
:0d47e7000000000280000000000000000043
:2047f4000000000000000000000000000000000000000000000000000000000000000000a5
:20481400000000000000000000000000000000000000000000000000000000000000000084
:20483400000000000000000000000000000000000000000000000000000000000000000064
:0d48540000581f310808000060000000003f
:20486100000000000000000000000000000000000000000000000000000000000000000037
:20488100000000000000000000000000000000000000000000000000000000000000000017
:2048a1000000000000000000000000000000000000000000000000000000000000000000f7
:0d48c1000000ad822c00000000000000008f
:2048ce000000000000000000000000000000000000000000000000000000000000000000ca
:2048ee000000000000000000000000000000000000000000000000000000000000000000aa
:20490e00000000000000000000000000000000000000000000000000000000000000000089
:0d492e0000008da0910800000000000000b6
:20493b0000000000000000000000000000000000000000000000000000000000000000005c
:20495b0000000000000000000000000000000000000000000000000000000000000000003c
:20497b0000000000000000000000000000000000000000000000000000000000000000001c
:0d499b0000000b402800000000000000009c
:2049a8000000000000000000000000000000000000000000000000000000000000000000ef
:2049c8000000000000000000000000000000000000000000000000000000000000000000cf
:2049e80000000000000000000000000000000000000000000000000000000000000000307f
:0d4a08000000132538000000000000000031
:204a1500000000000000000000000000000000000000000000000000000000000000000081
:204a3500000000000000000000000000000000000000000000000000000000000000000061
:204a5500000000000000000000000000000000000000000000000000000000000000003011
:0d4a75000000ab6c300000000000000000ed
:204a8200000000000000000000000000000000000000000000000000000000000000000014
:204aa2000000000000000000000000000000000000000000000000000000000000000000f4
:204ac2000000000000000000000000000000000000000000000000000000000000000000d4
:0d4ae20000000de89108c0000680000000f3
:204aef000000000000000000000000000000000000000000000000000000000000000000a7
:204b0f00000000000000000000000000000000000000000000000000000000000000000086
:204b2f00000000000000000000000000000000000000000000000000000000000000000066
:0d4b4f0000000b41400000000400000000c9
:204b5c00000000000000000000000000000000000000000000000000000000000000000039
:204b7c00000000000000000000000000000000000000000000000000000000000000000019
:204b9c000000000000000000000000000000000000000000000000000000000000000020d9
:0d4bbc00000008029500000000000000004d
:204bc9000002000000000000000000000000000000000000000000000000000000000000ca
:204be9000000000000000000000000000000000000000000000000000000000000000000ac
:204c090000000000000000000000000000000000000000000000000000000000000000008b
:0d4c2900000009016800000000000000000c
:204c36008000000000000000000000000000000000000000000000000000000000000000de
:204c560000000000000000000000000000000000000000000000000000000000000000003e
:204c76000000000000000000000000000000000000000000000000000000000000000038e6
:0d4c96000050b00000000000000000000011
:204ca300800000000000000000000000000000000000000000000000000000000000000071
:204cc3000000000000000000000000000000000000000000000000000000000000000000d1
:204ce3000000000000000000000000000000000000000000000000000000000000000000b1
:0d4d03000000b000000000000000000000f3
:204d1000000000000000000000000000000000000000000000000000000000000000000083
:204d3000000000000000000000000000000000000000000000000000000000000000000063
:204d5000000000000000000000000000000000000000000000000000000000000000000043
:0d4d700000d0000000000050000000000016
:204d7d00800000000000000000000000000000000000000000000100000000000000000095
:204d9d000000000000000000000000000000000000010000000000000000000000000000f5
:204dbd000000000000000000000000000000000000000000000000000000000000000000d6
:0d4ddd0000100000000010000000000000a9
:204dea000001000000000000000000000000000000000000000000000000000000000000a8
:204e0a00000000000000000000000000000000000000000000000000000000000000000088
:204e2a00000000000000000000000000000000000000000000000000000000000000000068
:0d4e4a0000018000000000100000000000ca
:204e570000000000000000000000000000000000000000000000000000000000000000003b
:204e770000000000000000000000000000000000000000000000000000000000000000001b
:204e97000000000000000000000000000000000000000000000000000000000000000000fb
:0d4eb70000000000000000080000000000e6
:204ec4000000000000000000000000000000000000000000000000000000000000000000ce
:204ee4000000000000000000000000000000000000000000000000000000000000000000ae
:204f040000000000040000000000000a00000000000000000000000000000000000000007f
:0d4f24000000002bc1000000000000000094
:204f310000020000000000000000000000000000000000000000000000000000000000005e
:204f5100000000000000000000000000000000000000000000000000000000000000000040
:204f7100000000000000000000000000000000000000000000000000000000000000000020
:0d4f910000000003c0000000000000000050
:204f9e000000000000000000000000000000000000000000000000000000000000000000f3
:204fbe000000000000000000000000000000000000000000000000000000000000000000d3
:204fde000000000000000000000000000000000000000000000000000000000000000000b3
:0d4ffe0000000000000000000000000000a6
:20500b00000000000000000000000000000000000000000000000000000000000000000085
:20502b00000000000000000000000000000000000000000000000000000000000000000065
:20504b00000000000000000000000000000000000000000000000000000000000000000045
:0d506b000000000000000000000000000038
:20507800000000000000000000000000000000000000000000000000000000000000000018
:205098000000000000000000000000000000000000000000000000000000000000000000f8
:2050b8000000000000000000000000000000000000000000000000000000000000000000d8
:0d50d80000000000000000000000000000cb
:2050e5000000000000000000000000000000000000000000000000000000000000000000ab
:2051050000000000000000000000000000000000000000000000000000000000000000008a
:2051250000000000000000000000000000000000000000000000000000000000000000006a
:0d514500000000000000000000000000005d
:2051520000000000000000000000000000000000000000000000000000000000000000003d
:2051720000000000000000000000000000000000000000000000000000000000000000001d
:205192000000000000000000000000000000000000000000000000000000000000000030cd
:0d51b20000000d6dd10200000000000000a3
:2051bf000000000000000000000000000000000000000000000000060000000000000000ca
:2051df000000000000000000000000000000000000000000000000000000000000000000b0
:2051ff00000000000000000000000000000000000000000000000000000000000000000090
:0d521f0000000962c0000000000000000057
:20522c00000000000000000000000000000000000000000000000000000000000000000062
:20524c00000000000000000000000000000000000000000000000000000000000000000042
:20526c00000000000000000000000000000000000000000000000000000000000000000022
:0d528c000000000000000000100000000005
:205299000002000000000000000000000000000000000000000000000000000000000000f3
:2052b9000000000000000000000000000000000000000000000000000000000000000000d5
:2052d9000000000000000000000000000000000000000000000000000000000000000000b5
:0d52f900000000000000000003c0000000e5
:20530600000000000000000000000000000000000000000000000000000000000000000087
:20532600000000000000000000000000000000000000000000000000000000000000000067
:20534600000000000000000000000000000000000000000000000000000000000000000047
:0d536600000000000000a00000000000009a
:2053730000000000000000000000000000000000000000000000000000000000000000001a
:205393000000000000000000000000000000000000000000000000000000000000000000fa
:2053b3000000000000000000000000000000000000000000000000000000000000000000da
:0d53d300000000000000800000000000004d
:2053e0000000000000000000000000000000000000000000000000000000000000000000ad
:2054000000000000000000000000000000000000000000000000000000000000000000008c
:2054200000000000000000000000000000000000000000000000000000000000000000006c
:0d544000000000000000000000000000005f
:20544d0000000000000000000000000000000000000000000000000000000000000000003f
:20546d0000000000000000000000000000000000000000000000000000000000000000001f
:20548d000000000000000000000000000000000000000000000000000000000000000000ff
:0d54ad0000000000000000000000000000f2
:2054ba000001000000000000000000000000000000000000000000000000000000000000d1
:2054da000000000000000000000000000000000000000000000000000000000000000000b2
:2054fa00000000000000000000000000000000000000000000000000000000000000000092
:0d551a000000000000000002000000000082
:20552700000000000000000000000000000000000000000000000000000000000000000064
:20554700000000000000000000000000000000000000000000000000000000000000000044
:20556700000000000000000000000000000000000000000000000000000000000000000024
:0d5587000000000000000001c00000000056
:205594000000000000000000000000000000000000000000000000000000000000000000f7
:2055b4000000000000000000000000000000000000000000000000000000000000000000d7
:2055d4000000000000000000000000000000000000000000000000000000000000000000b7
:0d55f40000000000000000000000000000aa
:20560100000000000000000000000000000000000000000000000000000000000000000089
:20562100000000000000000000000000000000000000000000000000000000000000000069
:20564100000000000000000000000000000000000000000000000000000000000000000049
:0d566100000000000000000000000000003c
:20566e0000000000000000000000000000000000000000000000000000000000000000001c
:20568e000000000000000000000000000000000000000000000000000000000000000000fc
:2056ae000000000000050000000000000000000000000000000000000000000000000000d7
:0d56ce000000000000000000001e925400cb
:2056db000000000000000000000000000000000000000000000000000000000000000000af
:2056fb0000000000000000000000000000000000000000000000000000000000000000008f
:20571b0000000000000000000000000000000000000000000000000000000000000000006e
:0d573b000000000000000000003dae520024
:20574800000000000000000000000000000000000000000000000000000000000000000041
:20576800000000000000000000000000000000000000000000000000000000000000000021
:20578800000000000000000000000000000000000000000000000000000000000000000001
:0d57a80000000000000000000040000000b4
:2057b5000000000000000000000000000000000000000000000000000000000000000000d4
:2057d5000000000000000000000000000000000000000000000000000000000000000000b4
:2057f500000000000000000000000000000000000000000000000000000000000000000094
:0d5815000000000000000000038000000003
:20582200000000000000000000000000000000000000000000000000000000000000000066
:20584200000000000000000000000000000000000000000000000000000000000000000046
:20586200000000000000000000000000000000000000000000000000000000000000000026
:0d58820000000000000000006000000000b9
:20588f000000000000000000000000000000000000000000000000000000000000000000f9
:2058af000000000000000000000000000000000000000000000000000000000000000000d9
:2058cf000000000000000000000000000000000000000000000000000000000000000000b9
:0d58ef0000000000000000000000000000ac
:2058fc0000000000000000000000000000000000000000000000000000000000000000008c
:20591c0000000000000000000000000000000000000000000000000000000000000000006b
:20593c0000000000000000000000000000000000000000000000000000000000000000004b
:0d595c00000000000000000000000000003e
:2059690000020000000000000000000000000000000000000000000000000000000000001c
:205989000000000000000000000000000000000000000000000000000000000000000000fe
:2059a9000000000000000000000000000000000000000000000000000000000000000000de
:0d59c90000000000000000000000000000d1
:2059d6000000000000000000000000000000000000000000000000000000000000000000b1
:2059f600000000000000000000000000000000000000000000000000000000000000000190
:205a1600000000000000000000000008000000000000080000000000000000000000000060
:0d5a3600000000000000040000000000005f
:205a4300000000000000000000000000000000000000000000000000000000000000000043
:205a6300000000000000000000000000000000000000000000000000000000000000000023
:205a83000000000000000000000000040000000000000000000000000000000000000000ff
:0d5aa30000000000000000000000000000f6
:205ab0000000000000000000000000000000000000000000000001000000000000000000d5
:205ad0000000000000000000000000000000000000000000000000000000000000020000b4
:205af000000000000000000000000000000000000000000000000000000000000000000096
:0d5b10000000000000000000000000000088
:205b1d00000000000000000000000000000000000000000000000100000000000000000067
:205b3d00000000000000000000000000000000000000000000000000000000000000000048
:205b5d00000000000000000000000000000000000000000000000000000000000000000028
:0d5b7d00000000000000000000000000001b
:205b8a000001000000000000000000000000000000000000000000000000000000000000fa
:205baa000000000000000000000000000000000000000000000000000000000000000000db
:205bca000000000000000000000000000000000000000000000000000000000000000000bb
:0d5bea00000000000000100000000000009e
:205bf70000000000000000000000000000000000000000000000000000000000000000008e
:205c170000000000000000000000000000000000000000000000000000000000000000006d
:205c370000000000000000000000000000000000000000000000000000000000000000004d
:0d5c57000000000000000000000000000040
:205c6400000000000000000000000000000000000000000000000000000000000000000020
:205c8400000000000000000000000000000000000000000000000000000000000000000000
:205ca4000000000000000000000000200000000000000000000000000000000000000000c0
:0d5cc40000000000000000000000000000d3
:205cd1000000000000000000000000000000000000000000000000000000000000000000b3
:205cf100000000000000000000000000000000000000000000000000000000000000000093
:205d1100000000000000000000000000000000000000000000000000000000000000000072
:0d5d31000000000000000000000000000065
:205d3e00000000000000000000000000000000000000000000000000000000000000000045
:205d5e000000000000000000000000000000000000000000000000004000000000000000e5
:205d7e00000000000000000000000000000000000000000000000000000000000000000005
:0d5d9e0000000000000000000000000000f8
:205dab000000000000000000000000000000000000000000000000000000000000000000d8
:205dcb000000000000000000000000000000000000000000000000000000000000000000b8
:205deb00000000000000000000000000000000000000000000000000000000000000000098
:0d5e0b00000000000000000000000000008a
:205e180000000000000000000000000000000000000000000000000000000000000000006a
:205e380000000000000000000000000000000000000000000000000000000000000000004a
:205e580000000000000000000000000000000000000000000000000000000000000000002a
:0d5e7800000000000000000000000000001d
:205e85000000000000000000000000000000000000000000000000000000000000000000fd
:205ea5000000000000000000000000000000000000000000000000000000000000000000dd
:205ec5000000000000000000000000000000000000000000000000000000000000000000bd
:0d5ee50000000000000000000000000000b0
:205ef200000000000000000000000000000000000000000000000000000000000000000090
:205f120000000000000000000000000000000000000000000000000000000000000000006f
:205f320000000000000000000000000000000000000000000000000000000000000000004f
:0d5f52000000000000000000000000000042
:205f5f00000000000000000000000000000000000000000000000000000000000000000022
:205f7f000000000000001000000000000000000000000000000000000000000000000000f2
:205f9f000000000000000000000000000000000000000000000000000000000000000001e1
:0d5fbf0000000000000000000000000000d5
:205fcc000000000000000000000000000000000000000000000000000000000000000000b5
:205fec00000000000000000000000000000000000000000000000000000000000000000095
:20600c00000000000028000000000000000000000000000008000000000000000000000044
:0d602c000000000000000000000000000067
:20603900000200000000000000000000000000000000000000000000000000000000000045
:20605900000000000000000000000000000000000000000000000000000000000000000027
:206079000000000000000000000000000000000000000000100000000000000000000004f3
:0d6099000000d0000000000000000000002a
:2060a6000000000000000000000000000000000000000000000000000000000000000000da
:2060c600000000000000000000000000000000000000000100000000000000000000004079
:2060e600000000000000000000000000001000000000000000000000000000680000000022
:0d610600000000000000000010000000007c
:2061130000000000000000000000000000000000000000000000000000000000000000006c
:2061330000000000000000000000000000000000000000000000000000000000000000004c
:20615300000000000000000000000000000000000000000000000000000004000000000028
:0d617300000000000000000000000000001f
:206180000000000000000000000000000000000000000000000000000000000000000000ff
:2061a0000000000000000000000000000000000000000000000000000000baa8000000007d
:2061c00000000000000000e000000000000000000000000000000000000000021c050000bc
:0d61e00000041d3800000000004000000019
:2061ed00000000000000000000000000000000000000000000000000000000000000000092
:20620d000000000000000000000000000000000000000000000000000008740000000000f5
:20622d0000000000000000000000000000000000000000000000000000000000400a0800ff
:0d624d000000e3801401000002800000004a
:20625a00000100000000000000000000000000000000000000000000000000000000000023
:20627a00000000000000000000000000000000000000000000000000000000000000000004
:20629a0000000000000200a5aa8005000000000000000000003f82840c000001dea000003e
:0d62ba0000000000000000000000000000d7
:2062c7000000000000000000000000000000000000000000000000000000000000000000b7
:2062e700000000000000000000000000000000000000000000000000000000000000000097
:20630700000000000005010fc000000000000000000000000f3800000c000001e000080065
:0d6327000000000000000400000000000065
:20633400000000000000000000000000000000000000000000000000000000000000000049
:20635400000000000000000000000000000000000000000000000000000000000000000029
:2063740000000000000070037f942000000000000000000700000000000000027e050000d7
:0d63940000000000000000004000000000bc
:2063a1000000000000000000000000000000000000000000000000000000000000000000dc
:2063c1000000000000000000000000000000000000000000000000000000000000000000bc
:2063e10000000000000000077354000000000000000000008000000000000003e00000006b
:0d640100000000000000000020000000006e
:20640e0000000000000000000000000000000000000000000000000000000000000000006e
:20642e00000000000000000000000000000000000000000000000000070000000000000047
:20644e000000000000008000000000000000000000000000010000000000040000000000a9
:0d646e000080800000000000000000000021
:20647b00000000000000000000000000000000000000000000000000000000000000000001
:20649b00000000000000000000000000000000000000000000000000008000000000000061
:2064bb00000000000000b0000000000000000000000000000c000000000000000000000005
:0d64db000030000000000000000000000084
:2064e800000000000000000000000000000000000000000000000000000000000000000094
:20650800000000000000000000000000000000000000000000000000000000000000000073
:20652800000000000008380000000000000000000000000000932800000000280000000030
:0d65480020800000000000000034cff008ab
:20655500000000000000000000000000000000000000000000000000000000000000000026
:20657500000000000000000000000000000000000000000000000000000000000000000006
:2065950000000000000008b000000000000000000000000000780000000034400000000042
:0d65b5000030000000000000003e0fa000bc
:2065c2000000000000000000000000000000000000000000000000000000000000000000b9
:2065e200000000000000000000000000000000000000000000000000070000000000000092
:2066020000000000000000000000000000000000000000039cff2940800014780000000065
:0d66220000000970108000000680000000dc
:20662f0000000000000000000000000000000000000000000000000000000000000000004b
:20664f0000000000000000000000000000000000000000000000000000000000000000002b
:20666f00000000000000009000000000000000000000000080dc368800001640000000000b
:0d668f0000000bb800000000040000000037
:20669c000000000000000000000000000000000000000000000000000000000000000000de
:2066bc000000000000000000000000000000000000000000000000000000000000000000be
:2066dc000000000000000000000000000000000000020008183a01100800006a680800222d
:0d66fc00807000000000000006800000001b
:2067090000020000000000000000000000000000000000000000000000000000000000006e
:20672900000000000000000000000000000000000000000000000000000000000000000050
:206749000000000000000000000000000000000000000001001f4e10000000015d00000153
:0d676900000800000000000000000000001b
:20677600000000000000000000000000000000000000000000000000000000000000000003
:206796000000000000000000000000000000000000000000000000000000000000000000e3
:2067b60000000000000038000000000000000000000388030017e0002e0036206a4022387e
:0d67d600041807f01500000606c0000000c2
:2067e300000000000000000000000000000000000000000000000000000000000000000096
:20680300000000000000000000000000000000000000000000000000000000000000000075
:20682300000000000000080000000000000000000000000008960000000814015000000042
:0d684300000003003e010001428000000043
:20685000000000000000000000000000000000000000000000000100000000000000000027
:20687000000000000000000000000000000000000001000000000000000000000002000005
:2068900000de04000400000000000010000000000000000008fb30c08040206578584200a8
:0d68b000000180000000000000209f60003b
:2068bd000000000000000000000000000000000000000000000000000000000000000000bb
:2068dd0000000000000000000000000000000000000000000000000000000000000000009b
:2068fd0001dc002004007000000000100000000000000000109834c000a0142ad02440004c
:0d691d00000000000000004000258f9000e9
:20692a0000010000000000000000000000000000000000000000000000000000000000004c
:20694a0000000000000000000000000000000000000020000000000000000000000000000d
:20696a000000000002807000000000001000000000002009813e811080000628fa0a1000d0
:0d698a00108185a955000004002790000031
:206997000000000000000000000000000000000000000000000000000000000000000000e0
:2069b7000000000000000000000000000000000000000000000000000000000000000000c0
:2069d700000000000100000000000000080000000000100108980e1000000c40100a000062
:0d69f700001000c154000000003dd0200041
:206a0400000000000000000000000000000000000000000000000000000000000000000072
:206a2400000000000000000000000000000000000000008000000000000000000000003c96
:206a4400000000000180000000000020000000000000000589b685100000002e0a0640003a
:0d6a6400001815fc950000000006800020c1
:206a7100000000000000000000000000000000000000000000000000000000000000000005
:206a9100000000000000000000000000000000000000a14000000000000000000000001ce8
:206ab100000000000100000000000000000000000000000008bb4c1000000020dd0940005f
:0d6ad1000000ad6f14000000003f00200029
:206ade00000000000000000000000000000000000000000000000000000000000000000098
:206afe00000000000000000000000000000000000000000000000000000000000000000078
:206b1e00000000000000000000000000000000000003000019db0010000126017a0440006a
:0d6b3e000080056f0d00000006879000002c
:206b4b0000000000000000000000000000000000000000000000000000000000000000002a
:206b6b0000000000000000000000000000000000000000000000000000000000000000000a
:206b8b00000000000000000000000000000000000003030908d403d000000402db344000d7
:0d6bab00005001e22c0000000425920000c3
:206bb80000000000000000000000000000000000000000000000000c0000000000000000b1
:206bd800000000000000000000000000000000000000000000000000000000000000000c91
:206bf80035ce2001000001e00000000000000000000000000177e0000c0000000000000014
:0d6c1800000015fdc500000003a0142000c1
:206c250000000000000000000000000000000000000000000000000000000000000000004f
:206c4500000000000000000000000000000000000000000000000000000000000000000629
:206c650025ef0000000005000000000000000000000000000adb80000c0000000000000085
:0d6c850000009d6e480000000424881200ed
:206c92000000000000000000000000000000000000000000000000000000000000000000e2
:206cb2000000000000000000000000000000000000000000000000000000000000000000c2
:206cd200000000000000000f68100000000000000003000d9a06b0008c200e02d980003076
:0d6cf20000d81db14100000000400000006e
:206cff00000000000000000000000000000000000000000000000000000000000000000075
:206d1f00000000000000000000000000000000000000000000000000000000000000000054
:206d3f002400000000380001a800800000000000000100050f0030000c000300e800000073
:0d6d5f00009087fd48000000034000000088
:206d6c00000000000000000000000000000000000000000000000000000000000000000007
:206d8c00000000000000000000000000000000000002000000000000000006a8000800200f
:206dac00215ca140018200000000008000000000000200000000000008000000000000223a
:0d6dcc0000001be0400080020000000000fd
:206dd900000200000000000000000000000000000000000000000000000000000000000098
:206df9000000000000000000000000000000000000000000000000000008f014000000145a
:206e190001caa20001050000000000000000000000000000000000000000000000000001e5
:0d6e39000000853000000001400000000056
:206e460000000000000000000000000000000000000000000000000000000000000000002c
:206e66000000000000000000000000000000000000000000000000004700fe96808e002003
:206e860001f8f000380000036a8000e000e0000000038008000000000e0c00000000003841
:0d6ea600047809a07c08e000000000000056
:206eb3000000000000000000000000000000000000000000000000000000000000000000bf
:206ed3000000000000000000000000000000000000000000000000000000f8094008000452
:206ef3002fd9d00020000000c28000800020000000020001000000000000000000000000a2
:0d6f130000d80d4014000000000000000038
:206f2000000000000000000000000000000000000000000000000100000000000000000050
:206f4000000000000000000000000000000000000000000000000000000c000000000036ef
:206f600000000000000180a3e80108000000000000000000000000000000000000000004f8
:0d6f800000000038d50a00000000000000ed
:206f8d000000000000000000000000000000000000000000000001000000000000000000e3
:206fad000000000000000000000000000000000000000000000000000700000000000004b9
:206fcd00000000000002510f0004000000000000000000000000000000000000000000003e
:0d6fed0018000900e800000000000000008e
:206ffa00000300000000000000000000000000000000000000000000000000000000000074
:20701a000000000000000000000000001000000000000000000000000380000000000000c3
:20703a0061ec80000001d0afa800000001c636ee701000001a00000000000060000000005c
:0d705a000050137280000000004000000094
:20706700000000000000000000000000000000000000000000000000000000000000000009
:207087000000000000000000000000002000000000000000000000000d800000000100003b
:2070a7002fc920000018780fc028000000003cce2000000000000000000000000000000000
:0d70c70000008082800000000280000000b8
:2070d40000000000000000000000000000000000000000000000000000000000000000009c
