:02000000ff00ff
:080002004c6174746963650030
:17000a00694345637562653220323032302e31322e32373934330071
:16002100506172743a2069434534304858344b2d545131343400f9
:1b003700446174653a204a756e20313420323032352030303a31363a34370075
:0200520000ffad
:040054007eaa997e69
:02005800510055
:02005a0001059e
:03005c00920020ef
:03005f00620367d2
:0300620072011018
:0300650082000016
:02006800110085
:02006a00010192
:20006c00000000000000000000000000000000000000000000000000000000000000000074
:20008c00000000000000000000000000000000000000000000000000000000000000000054
:2000ac0000000000010000000000000400000000000000000000000000000000000000012e
:0d00cc00001c00000000000000000000000b
:2000d900000000000000000000000000000000000000000000000000000000000000000007
:2000f9000000000000000000000000000000000000000000000000000000000000000000e7
:200119000000000000000000000000000000000000000000000000000000000000000000c6
:0d01390000020000000000000000000000b7
:20014600000000000000000000000000000000000000000000000000000000000000000099
:20016600000000000000000000000000000000000000000000000000000000000000000079
:2001860000000000010000000000000400b80000000000000000000000000000000000019b
:0d01a6000000000000000400000000000048
:2001b30000000000000000000000000000000000000000000000000000000000000000002c
:2001d30000000000000000000000000000000000000000000000000000000000000000000c
:2001f30000000000000000000000000000500000000000000000000000000000000000009c
:0d02130000000000000000000000000000de
:200220000000000000000000000000000000000000000000000000000000000000000000be
:2002400000000000000000000000000000000000000000000000000000000000000000009e
:20026000000000000200000028000008003000f0000000000000000000000000000000022a
:0d0280000000003000000000000000000041
:20028d00000000000000000000000000000000000000000000000000000000000000000051
:2002ad00000000000000000000000000000000000000000000000000000000000000000031
:2002cd000000000000000000140000000000005000000000000000000000000000000000ad
:0d02ed0000000034000000000000000000d0
:2002fa000000000000000000000000000000000000000000000000000001000000000000e3
:20031a000000000000000000000000000000000000000000000000000000000000000000c3
:20033a000000000002000c000000000400001000000000000000000000000000000000027f
:0d035a000000000000000000000000000096
:20036700000000000000000000000000000000000000000000000000000000000000000076
:20038700000000000000000000000000000000000000000000000000000000000000000056
:2003a700000000000000000000000000000000000000000000000000000000000000000036
:0d03c7000000000000000000000000000029
:2003d40000000000000800000000000020000000000000800000000000020000000000005f
:2003f4000800000000000020000000000000800000000000020000000000800000000000bf
:20041400020000000000000c00000000000030000000000000800000000000020000000008
:0d04340000000c000000000000200000008f
:2004410000000000000000000000000000000000000000000000000000000000000000009b
:2004610000000000000000000000000000000000000000000000000000000000000000007b
:2004810000000000000000000000000000000000000000000000000000000000000000005b
:0d04a100000000000000000000000000004e
:2004ae0000000000000000000000000000000000000000000000000000000000000000002e
:2004ce0000000000000000000000000000000000000000000000000000000000000000000e
:2004ee000000000000002c0000000000000800700000000000000000000000010000000049
:0d050e00000004000000000050001000007c
:20051b000000000000000000000000000000000000000000000000000000000000000000c0
:20053b000000000000000000000000000000000000000000000000000000000000000000a0
:20055b00000000000000000000000004005000a00000000000003000000000030000000059
:0d057b0000000800000008008000100000d3
:20058800000000000000000000000000000000000000000000000000000000000000000053
:2005a800000000000000000000000000000000000000000000000000000000000000000033
:2005c8000000000000000000000000040000000000000001e000000000000001000000002d
:0d05e80000000800000000000010000000ee
:2005f5000000000000000000000000000000000000000000000000400000000000000000a6
:200615000000000000000000000000000000000000000000000000000000000000000000c5
:2006350000000000000000000400000400000000000000002000000000000000000000007d
:0d0655000000041000000400000000000080
:200662000000000000040000000000001000000000000040000000400001000000000000e3
:200682000400000000000010000000000000400000000000010000000000400000000000c3
:2006a2000100000000000004000000000000100000000000004040000000000100000000a2
:0d06c2000002040000000000000000000025
:2006cf0000000000000000000000000000000000000000000000000000000000000000000b
:2006ef000000000000000000000000000000000000000000000000000000000000000000eb
:20070f000000000000000000000000080000000000000000000000000000000000000000c2
:0d072f00001c000000000800000000000099
:20073c0000000000000000000000000000000000000000000000000000000000000000009d
:20075c0000000000000000000000000000000000000000000000000000000000000000007d
:20077c0000000000000000000000000000000000000000000000000000000000000000005d
:0d079c000000000000000000000000000050
:2007a90000020000000000000000000000000000000000000000000000000000000000002e
:2007c900000000000000000000000000000000000000000000000000000000000000000010
:2007e9000000000000000000000000000000000000000000000000000000000000000000f0
:0d08090000000000000000000000000000e2
:200816000000000000000000000000000000000000000000000000000000000000000000c2
:200836000000000000000000000000000000000000000000000000000000000000000000a2
:20085600000000000000000000000000000000000000000000000000000000000000000082
:0d0876000000000000000000000000000075
:20088300000000000000000000000000000000000000000000000000000000000000000055
:2008a300000000000000000000000000000000000000000000000000000000000000000035
:2008c300000000000000000000000000000000000000000000000000000000000000000015
:0d08e3000000000000000000000000000008
:2008f0000000000000000000000000000000000000000000000000000000000000000000e8
:200910000000000000000000000000000000000000000000000000000000000000000000c7
:200930000000000000000000000000000000000000000000000000000000000000000000a7
:0d095000000000000000000000000000009a
:20095d0000000000000000000000000000000000000000000000000000000000000000007a
:20097d0000000000000000000000000000000000000000000000000000000000000000005a
:20099d0000000000000000000000000000000000000000000000000000000000000000003a
:0d09bd00000000000000000000000000002d
:2009ca0000010000000000000000000000000000000000000000010000000000000000000b
:2009ea000000000000000000000000000000000000000000000000000000000000000000ed
:200a0a000000000000000000000000000000000000000000000000000000000000000000cc
:0d0a2a0000000000000000000000000000bf
:200a370000000000000000000000000000000000000000000000000000000000000000009f
:200e7900000200000000000000000000000000000000000000000000000000000000000057
:200e9900000000000000000000000000000000000000000000000000000000000000000039
:200eb900000000000000000000000000000000000000000000000000000000000000000019
:0d0ed900000000000000000000000000000c
:200ee6000000000000000000000000000000000000000000000000000000000000000000ec
:200f06000000000000000000000000000000000000000000000000000000000000000000cb
:200f26000000000000000000000000000000000000000000000000000000000000000000ab
:0d0f4600000000000000000000000000009e
:200f530000000000000000000000000000000000000000000000000000000000000000007e
:200f730000000000000000000000000000000000000000000000000000000000000000005e
:200f930000000000000000000000000000000000000000000000000000000000000000003e
:0d0fb3000000000000000000000000000031
:200fc000000000000000000000000000000000000000000000000000000000000000000011
:200fe0000000000000000000000000000000000000000000000000000000000000000000f1
:201000000000000000000000000000000000000000000000000000000000000000000000d0
:0d10200000000000000000000000000000c3
:20102d000000000000000000000000000000000000000000000000000000000000000000a3
:20104d00000000000000000000000000000000000000000000000000000000000000000083
:20106d00000000000000000000000000000000000000000000000000000000000000000063
:0d108d000000000000000000000000000056
:20109a00000100000000000000000000000000000000000000000000000000000000000035
:2010ba00000000000000000000000000000000000000000000000000000000000000000016
:2010da000000000000000000000000000000000000000000000000000000000000000000f6
:0d10fa0000000000000000000000000000e9
:201107000000000000000000000000000000000000000000000000000000000000000000c8
:20154900000200000000000000000000000000000000000000000000000000000000000080
:20156900000000000000000000000000000000000000000000000000000000000000000062
:201589000000000000000000000000000000000000000280000000000000000000000000c0
:0d15a9003000000000000000000000000005
:2015b600000000000000000000000000000000000000000000000000000000000000000015
:2015d6000000000000000000000000000000000000000000000000000000000000000000f5
:2015f6000000000000000000000000000000000000000000000000000000000000000000d5
:0d16160000000000000000000000000000c7
:201623000000000000000000000000000000000000000000000000000000000000000000a7
:20164300000000000000000000000000000000000000000000000000000000000000000087
:20166300000000000000000000000000000000000000000000000000000000000000000067
:0d168300000000000000000000000000005a
:2016900000000000000000000000000000000000000000000000000000000000000000003a
:2016b00000000000000000000000000000000000000000000000000000000000000000001a
:2016d0000000000000000000000000100000000000000000000000000000000000000000ea
:0d16f00000000000000000000000000000ed
:2016fd000000000000000000000000000000000000000000000000000000000000000000cd
:20171d000000000000000000000000000000000000000000000000000000000000000000ac
:20173d0000000000000000000000000000000000000000000000000000000000000000008c
:0d175d00000000000000000000000000007f
:20176a0000010000000000000000000000000000000000000000000000000000000000005e
:20178a0000000000000000000000000000000000000000000000000000000000000000003f
:2017aa00000000000400000000000000000000000000000000000000000000000000000417
:0d17ca000000000000000000000000000012
:2017d7000000000000000000000000000000000000000000000000000000000000000000f2
:2017f7000000000000000000000000000000000000000000000000000000000000000000d2
:201817000000000000000000000000000000000000000000000000000000000000000000b1
:0d18370000000000000000000000000000a4
:20184400000000000000000000000000000000000000000000000000000000000000000084
:20186400000000000000000000000000000000000000000000000000000000000000000064
:20188400000000000000000000000000000000000000000000000000000000000000000044
:0d18a4000000000000000000000000000037
:2018b100000000000000000000000000000000000000000000000000000000000000000017
:2018d1000000000000000000000000000000000000000000000000000000000000000000f7
:2018f1000000000000280000000000000000000000000000000000000000000000000000af
:0d19110000000000000000000000000000c9
:20191e000000000000000000000000000000000000000000000000000000000000000000a9
:20193e00000000000000000000000000000000000000000000000000000000000000000089
:20195e00000000000000000000000000000000000000000000000000000000000000000069
:0d197e00000000000000000000000000005c
:20198b0000000000000000000000000000000000000000000000000000000000000000003c
:2019ab0000000000000000000000000000000000000000000000000000000000000000001c
:2019cb000000000000000000000000000000000000000000000000000000000000000000fc
:0d19eb0000000000000000000000000000ef
:2019f8000000000000000000000000000000000000000000000000000000000000000000cf
:201a18000000000000000000000000000000000000000000000000000000000000000000ae
:201a380000000000000000000000000000000000000000000000000000000000000000008e
:0d1a58000000000000000000000000000081
:201a6500000000000000000000000000000000000000000000000000000000000000000061
:201a8500000000000000000000000000000000000000000000000000000000000000000041
:201aa500000000000000000000000000001000000000000000000000000000000000000011
:0d1ac5000000000000000000000000000014
:201ad2000000000000000000000000000000000000000000000000000000000000000000f4
:201af2000000000000000000000000000000000000000000000000000000000000000000d4
:201b12000000000000000000000000000000000000000000000000000000000000000000b3
:0d1b320000000000000000000000000000a6
:201b3f00000000000000000000000000000000000000000000000000000000000000000086
:201b5f00000000000000000000000000000000000000000000000000000000000000000066
:201b7f00000000000000000000000000000000000000000000000000000000000000000046
:0d1b9f000000000000000000000000000039
:201bac00000000000000000000000000000000000000000000000000000000000000000019
:201bcc000000000000000000000000000000000000000000000000000000000000000000f9
:201bec000000000000000000000000000000000000000000000000000000000000000000d9
:0d1c0c0000000000000000000000000000cb
:201c19000002000000000000000000000000000000000000000000000000000000000000a9
:201c390000000000000000000000000000000000000000000000000000000000000000008b
:201c590000000000000000000000000000000000000000000000000000000000000000006b
:0d1c7900000000000000000000000000005e
:201c860000000000000000000000000000000000000000000000000000000000000000003e
:201ca60000000000000000000000000000000000000000000000000000000000000000001e
:201cc6000000000000000000000000000000000000000000000000000000000000000000fe
:0d1ce60000000000000000000000000000f1
:201cf300800000000000000000000000000000000000000000000000000000000000000051
:201d13000000000000000000000000000000000000000000000000000000000000000000b0
:201d3300000000000000000000000000000000000000000000000000000000000000000090
:0d1d53000000000000000000000000000083
:201d6000000000000000000000000000000000000000000000000000000000000000000063
:201d8000000000000000000000000000000000000000000000000000000000000000000043
:201da000000000000000000000000000000000000000000000000000000000000000000023
:0d1dc0000000000000000000000000000016
:201dcd00800000000000000000000000000000000000000000000000000000000000000076
:201ded000000000000000000000000000000000000000000000000000000000000000000d6
:201e0d000000000000000000000000000000000000000000000000000000000000000000b5
:0d1e2d0000000000000000000000000000a8
:201e3a00000300000000000000000000000000000000000000000000000000000000000085
:201e5a00000000000000000000000000000000000000000000000000000000000000000068
:201e7a00000000000000000000000000000000000000000000000000000000000000000048
:0d1e9a00000000000000000000000000003b
:201ea70000000000000000000010000000000000000000000000010000000000000000000a
:201ec7000000000000000000000000000000000000000000000000000000000000010000fa
:201ee7000000000000000000000000000000000000000000000000000000000000000000db
:0d1f070000000000000000000000000000cd
:201f140040000000000000000000000000000000000000000000000000000000000000006d
:201f340000000000000000000000000000000000000000000000000000000000000000008d
:201f540000000000000000000000000000000000000000000000000000000000000000006d
:0d1f74000000000000000000000000000060
:201f81004002000000000000000000000000000000000000000000000000000000000000fe
:201fa100000000000000000000000000000000000000000000000000000000000000000020
:201fc1000000000000000000000000000000000000001000000000000000000000000000f0
:0d1fe10000000000000000000000000000f3
:201fee000000000000000000000000000000000000000000000000000000000000000000d3
:20200e000000000000000000000000000000000000000000000000000000000000000000b2
:20202e00000000000000000000000000000000000000000000000000000000000000000092
:0d204e000000000000000000000000000085
:20205b00000000000000000000000000000000000000000000000000000000000000000065
:20207b00000000000000000000000000000000000000000000000000000000000000000045
:20209b00000000000000000000000000000000000000000000000000000000000000000025
:0d20bb000000000000000000000000000018
:2020c8000000000000000000000000000000000000000000000000000000000000000000f8
:2020e8000000000000000000000000000000000000000000000000000000000000000000d8
:202108000000000000000000000000000000000000000000000000000000000000000000b7
:0d21280000000000000000000000000000aa
:2021350080000000000000000000000000000000000000000000000000000000000000000a
:2021550000000000000000000000000000000000000000000000000000000000000000006a
:2021750000000000000000000000000000000000000000000000000000000000000000004a
:0d219500000000000000000000000000003d
:2021a20000000000000000000000000000000000000000000000000000000000000000001d
:2021c2000000000000000000000000000000000000000000000000000000000000000000fd
:2021e2000000000000000000000000000000000000000000000000000000000000000000dd
:0d22020000000000000000000000000000cf
:20220f000000000000000000000000000000000000000000000000000000000000000000af
:20222f0000000000000000000000000000000000000000000000000000000000000000008f
:20224f0000000000000000000000000000000000000000000000000000000000000000006f
:0d226f000000000000000000000000000062
:20227c00000000000000000000000000000000000000000000000000000000000000000042
:20229c00000000000000000000000000000000000000000000000000000000000000000022
:2022bc000000000004000000000000000000000000000000000000000000000000000000fe
:0d22dc0000000000000000000000000000f5
:2022e9000002000000000000000000000000000000000000000000000000000000000000d3
:202309000000000000000000000000000000000000000000000000000000000000000000b4
:20232900000000000000000000000000000000000000000000000000000000000000000094
:0d2349000000000000000000000000000087
:202356008000000000000000000000000000000000000000000000000000000000000000e7
:20237600000000000000000000000000000000000000000000000000000000000000000047
:20239600000000000000000000000000000000000000000000000000000000000000000027
:0d23b600000000000000000000000000001a
:2023c30080000000000000000000000000000000000000000000000000000000000000007a
:2023e3000000000000000000000000000000000000000000000000000000000000000000da
:202403000000000000000000000000000000000000000000000000000000000000000000b9
:0d24230000000000000000000000000000ac
:2024300000000000000000000000000000000000000000000000000000000000000000008c
:2024500000000000000000000000000000000000000000000000000000000000000000006c
:2024700000000000000000000000001000000000000000000000000001000000000000003b
:0d249000000000000000000000000000003f
:20249d0000000000000000000000000000000000000000000000000000000000000000001f
:2024bd000000000010000000000000000000000000010000000000000000000000000000ee
:2024dd000000000000000000000000100000000000000000000000000000000000000000cf
:0d24fd0000000000000000000000000000d2
:20250a000003000000000000000000000000000000000000000000000000000000000000ae
:20252a00000000000000000000000000000000000000000000000000000000000000000091
:20254a00000000000000000000000010000000000000000000000000000000000000000061
:0d256a000000000000000000000000000064
:20257700000000000000000000000000000000000000000000000000000000000000000044
:202597000000000000000000000000000000000000010000000000008000000000000000a3
:2025b700000000000000000000000000000000000000000000000000000000000000000004
:0d25d70000000000000000000000000000f7
:2025e4000000000000000000000000000000000000000000000000000000000000000000d7
:202604000000000000000000000000000000000000000000000000000000000000000000b6
:20262400000000000000000000000000000000000000000000000000000000000000000096
:0d2644000000000000000000000000000089
:202651008002000000000000000000000000000000000000000000000000000000000000e7
:20267100000000000000000000000000000000000000000000000000000000000000000049
:20269100000000000000000000000000000000000000000000000000000000000000000029
:0d26b100000000000000000000000000001c
:2026be000000000000000000000000000000000000000000000000000000000000000000fc
:2026de000000000000000000000000000000000000000000000000000000000000000000dc
:2026fe000000000000000000000000000000000000000000000000000000000000000000bc
:0d271e00800000000000000000000000002e
:20272b0000000000000000000000000000000000000000000000000000000000000000008e
:20274b0000000000000000000000000000000000000000000000000000000000000000006e
:20276b0000000000000000000000000000000000000000000000000000000000000000004e
:0d278b000000000000000000000000000041
:20279800000000000000000000000000000000000000000000000000000000000000000021
:2027b8000000000020000000000000000000000000000000000000000000000000000000e1
:2027d8000000000000000000000000000000000000000000000000000000000000000000e1
:0d27f80000000000000000000000000000d4
:20280500800000000000000000000000000000000000000000000000000000000000000033
:20282500000000000000000000000000000000000000000000000000000000000000000093
:20284500000000000000000000000000001000000000000000000000000000000000000063
:0d2865000000000000000000000000000066
:20287200000000000000000000000000000000000000000000000000000000000000000046
:20289200000000000000000000000000000000000000000000000000000000000000000026
:2028b200000000000000000000000000000000000000000000000000000000000000000006
:0d28d20000000000000000000000000000f9
:2028df000000000000000000000000000000000000000000000000000000000000000000d9
:2028ff000000000000000000000000000000000000000000000000000000000000000000b9
:20291f00000000000000000000000000000000000000000000000000000000000000000098
:0d293f00000000000000000000000000008b
:20294c0000000000000000000000000000000000000000000000000000000000000000006b
:20296c0000000000000000000000000000000000000000000000000000000000000000004b
:20298c0000000000000000000000001000000000000000000000000000000000000000001b
:0d29ac00000000000000000000000000001e
:2029b9000002000000000000000000000000000000000000000000000000000000000000fc
:2029d9000000000000000000000000000000000000000000000000000000000000000000de
:2029f9000000000000000000000000000000000000000000000000000000000000000000be
:0d2a190000000000000000000000000000b0
:202a2600000000000000000000000000000000000000000000000000000000000000000090
:202a4600000000000000000000000000000000000000000000000000000000000000000070
:202a6600000000000000000000000000000000000000000000000000000000000000000050
:0d2a86000000000000000000000000000043
:202a93008000000000000000000000000000000000000000000000000000000000000000a3
:202ab300000000000000000000000000000000000000000000000000000000000000000003
:202ad3000000000000000000000000000000000000000000000000000000000000000000e3
:0d2af30000000000000000000000000000d6
:202b00000000000000000000000000000000000000000000000000000000000000000000b5
:202b2000000000000000000000000000000000000000000000000000000000000000000095
:202b4000000000000000040000000000000000000000000000000000000000000000000071
:0d2b60000000000000000000000000000068
:202b6d008000000000000000000000000000000000000000000001000000000000000000c7
:202b8d00000000001000000000000000000000000000000000000000000000000000000018
:202bad00000000000000000000000000000000000000000000000000000000000000000008
:0d2bcd0000000000000010000000000000eb
:202bda000003000000000000000000000000000000000000000000000000000000000000d8
:202bfa000000000000000000000000000000000000000000000000000000000000000000bb
:202c1a0000000000000000000000000000000000000000000000000000000000000000009a
:0d2c3a00000000000000000000000000008d
:202c470000000000000000000000000000000000000000000000000000000000000000006d
:202c670000000000000000000000000000000000000000000000000000000000000000004d
:202c870000000000000000000000000000000000000000000000000000000000000000002d
:0d2ca7000000000000000000000000000020
:202cb400000000000000000000000000000000000000000000000000000000000000000000
:202cd4000000000000000000000000000000000000000000000000000000000000000000e0
:202cf4000000000000000000000000000000000000000000000000000000000000000000c0
:0d2d140000000000000000000000000000b2
:202d2100800200000000000000000000000000000000000000000000000000000000000010
:202d4100000000000000000000000000000000000000000000000000000000000000000072
:202d6100000000000000000000000000000000000000000000000000000000000000000052
:0d2d81000000000000000000000000000045
:202d8e00000000000000000000000000000000000000000000000000000000000000000025
:202dae00000000000000000000000000000000000000000000000000000000000000000005
:202dce000000000000000000000000000000000000000000400000000000000000000000a5
:0d2dee0000000000000000000000000000d8
:202dfb000000000000000000000000000000000000000000000000000000000000000000b8
:202e1b00000000000000000000000000000000000000000000000000000000000000000097
:202e3b00000000000000000000000000000000000000000000000000000000000000000077
:0d2e5b00000000000000000000000000006a
:202e680000000000000000000000000000000000000000000000000000000000000000004a
:202e880000000000000000000000000000000000000000000000000000000000000000002a
:202ea80000000000000000000000000000000000000000000000000000000000000000000a
:0d2ec80000000000000000000000000000fd
:202ed50080000000000000000000000000000000000000000000000000000000000000005d
:202ef5000000000000000000000000000000000000000000000000000000000000000000bd
:202f150000000000000000000000000000000000000000000000000000000000000000009c
:0d2f3500000000000000000000000000008f
:202f420000000000000000000000000000000000000000000000000000000000000000006f
:202f620000000000000000000000000000000000000000000000000000000000000000004f
:202f820000000000000000000000000000000000000000000000000000000000000000002f
:0d2fa2000000000000000000000000000022
:202faf00000000000000000000000000000000000000000000000000000000000000000002
:202fcf000000000000000000000000000000000000000000000000000000000000000000e2
:202fef000000000000000000000000000000000000000000000000000000000000000000c2
:0d300f0000000000000000000000000000b4
:20301c00000000000000000000000000000000000000000000000000000000000000000094
:20303c00000000000000000000000000000000000000000000000000000000000000000074
:20305c00000000000000000000000000000000000000000000000000000000000000000054
:0d307c000000000000000000000000000047
:20308900000200000000000000000000000000000000000000000000000000000000000025
:2030a900000000000000000000000000000000000000000000000000000000000000000007
:2030c9000000000000000000000000000000000000000000000000000000000000000000e7
:0d30e90000000000000000000000000000da
:2030f6000000000000000000000000000000000000000000000000000000000000000000ba
:20311600000000000000000000000000000000000000000000000000000000000000000099
:20313600000000000000000000000000000000000000000000000000000000000000000079
:0d315600000000000000000000018f0004d8
:2031630000000000000000000000000000000000000000000000000000000000000000004c
:2031830000000000000000000000000000000000000000000000000000000000000000002c
:2031a30000000000000000000000000000000000000000000000000000000000000000000c
:0d31c300000000000000000040000f0000b0
:2031d0000000000000000000000000000000000000000000000000000000000000000000df
:2031f0000000000000000000000000000000000000000000000000000000000000000000bf
:2032100000000000000000000000000000000000000000000000000000000000000000009e
:0d3230000000000000000000000000000091
:20323d00000000000000000000000000000000000000000000000000000000000000000071
:20325d00000000000000000000000000000000000000000000000000000000000000000051
:20327d00000000000000000000000000000000000000000000000000000000000000000031
:0d329d000000000000000000000000000024
:2032aa00000100000000000000000000000000000000000000000000000000000000000003
:2032ca000000000000000000000000000000000000000000000000000000000000000000e4
:2032ea000000000000000000000000100000000000000000000000000000000000000000b4
:0d330a00000000000000c0000000000000f6
:20331700000000000000000000000000000000000000000000000000000000000000000096
:20333700000000000000000000000000000000000000000000000000000000000000000076
:20335700000000000000000000000000000000000000000000000000000000000000000056
:0d337700000000000000c000000000000089
:20338400000000000000000000000000000000000000000000000000000000000000000029
:2033a400000000000000000000000000000000000000000000000000000000000000000009
:2033c4000000000000000000000000000000000000000000000000000000000000000000e9
:0d33e40000000000000000000000000000dc
:2037590000020000000000000000000000000000000000000000000000000000000000004e
:20377900000000000000000000000000000000000000000000000000000000000000000030
:20379900000000000000000000000000000000000000000000000000000000000000000010
:0d37b9000000000000000000000000000003
:2037c6000000000000000000000000000000000000000000000000000000000000000000e3
:2037e6000000000000000000000000000000000000000000000000000000000000000000c3
:203806000000000000000000000000000000000000000000000000000000000000000000a2
:0d3826000000000000000000000000000095
:20383300000000000000000000000000000000000000000000000000000000000000000075
:20385300000000000000000000000000000000000000000000000000000000000000000055
:20387300000000000000000000000000000000000000000000000000000000000000000035
:0d3893000000000000000000000000000028
:2038a000000000000000000000000000000000000000000000000000000000000000000008
:2038c0000000000000000000000000000000000000000000000000000000000000000000e8
:2038e0000000000000000000000000000000000000000000000000000000000000000000c8
:0d39000000000000000000000000000000ba
:20390d0000000000000000000000000000000000000000000000000000000000000000009a
:20392d0000000000000000000000000000000000000000000000000000000000000000007a
:20394d0000000000000000000000000000000000000000000000000000000000000000005a
:0d396d00000000000000000000000000004d
:20397a0000010000000000000000000000000000000000000000000000000000000000002c
:20399a0000000000000000000000000000000000000000000000000000000000000000000d
:2039ba000000000000000000000000000000000000000000000000000000000000000000ed
:0d39da0000000000000000000000000000e0
:2039e7000000000000000000000000000000000000000000000000000000000000000000c0
:0d3d42000000000000000100000000000073
:203d4f00000000000000000000000000000000000000000000000000000000000000000054
:203d6f00000000000000000000000000000000000000000000000000000000000000000034
:203d8f00000000000000000000000000000000000000000000000000000000000000000014
:0d3daf000000000000000000000000000007
:203dbc000000000000000000000000000000000000000000000000000000000000000000e7
:203ddc000000000000000000000000000000000000000000000000000000000000000000c7
:203dfc000000000000000000000000000000000000000000000000000000000000000000a7
:0d3e1c000000000000000000000000000099
:203e2900000200000000000000000000000000000000000000000000000000000000000077
:203e4900000000000000000000000000000000000000000000000000000000000000000059
:203e6900000000000000000000000000000000000000000000000000000000000000000039
:0d3e8900000000000000000000000000002c
:203e960000000000000000000000000000000000000000000000000000000000000000000c
:203eb6000000000000000000000000000000000000000000000000000000000000000000ec
:203ed6000000000000000000000000000000000000000000000000000000000000000000cc
:0d3ef60000000000000000000000000000bf
:203f030000000000000000000000000000000000000000000000000000000000000000009e
:203f230000000000000000000000000000000000000000000000000000000000000000007e
:203f430000000000000000000000000000000000000000000000000000000000000000005e
:0d3f63000000000000000000000000000051
:203f7000000000000000000000000000000000000000000000000000000000000000000031
:203f9000000000000000000000000000000000000000000000000000000000000000000011
:203fb0000000000000000000000000000000000000000000000000000000000000000000f1
:0d3fd00000000000000000000000000000e4
:203fdd000000000000000000000000000000000000000000000000000000000000000000c4
:203ffd000000000000000000000000000000000000000000000000000000000000000000a4
:20401d00000000000000000000000000000000000000000000000000000000000000000083
:0d403d000000000000000000000000000076
:20404a00000100000000000000000000000000000000000000000000000000000000000055
:20406a00000000000000000000000000000000000000000000000000000000000000000036
:20408a00000000000000000000000000000000000000000000000000000000000000000016
:0d40aa0000000000000010000000000000f9
:2040b7000000000000000000000000000000000000000000000000000000000000000000e9
:2040d7000000000000000000000000000000000000000000000000010000000000000000c8
:2040f7000000000000000000000000000000000000000000000000000000000000000000a9
:0d411700000000000000100000000000008b
:2041240000000000000000000000000000000000000000000000000000000000000000007b
:2041440000000000000000000000000000000000000000000000000000000000000000005b
:2041640000000000000000000000000000000000000000000000000000000000000000003b
:0d418400000000000000000000000000002e
:2041910000000000000000000000000000000000000000000000000000000000000000000e
:2041b1000000000000000000000000000000000000000000000000000000000000000000ee
:2041d1000000000000000000000000000000000000000000000000000000000000000000ce
:0d41f10000000000000000000000000000c1
:2041fe000000000000000000000000000000000000000000000000000000000000000000a1
:20421e00000000000000000000000000000000000000000000000000000000000000000080
:20423e0000000000000000000000000000000000000000000000000000000000000000025e
:0d425e000000000000000100000000000052
:20426b00000000000000000000000000000000000000000000000000000000000000000033
:20428b00000000000000000000000000000000000000000000000000000000000000000013
:2042ab000000000000000000000000000000000000000000000000000000000000000000f3
:0d42cb0000000000000000000000000000e6
:2042d8000000000000000000000000000000000000000000000000000000000000000000c6
:2042f8000000000000000000000000000000000000000000000000000000000000000000a6
:20431800000000000000000000000000000000000000000000000000000000000000000085
:0d4338000000000000000000000000000078
:20434500000000000000000000000000000000000000000000000000000000000000000058
:20436500000000000000000000000000000000000000000000000000000000000000000038
:20438500000000000000000000000001000000000000040000000000001000000000000003
:0d43a50040000000000001000000000000ca
:2043b2000000000000000000000000000000000000000000000000000000000000000000eb
:2043d2000000000000000000000000000000000000000000000000000000000000001000bb
:2043f200000000000040000000000001000000000000040000000000001000000000000056
:0d441200000000000000010000000000009c
:20441f0000000000000000000000000000000000000000000000000000000000000000007d
:20443f0000000000000000000000000000000000000000000000000000000000000000005d
:20445f0000000000000000000000000000000000000000000000000000000000000000003d
:0d447f0040000000000001000000000000ef
:20448c00000000000000000000000000000000000000000000000000000000000000000010
:2044ac000000000000000000000000000000000000000000000000000000000000000000f0
:2044cc000000000000000000000000000000000000000000000000000000000000000000d0
:0d44ec0000000000000000000000000000c3
:2044f9000002000000000000000000000000000000000000000000000000000000000000a1
:20451900000000000000000000000000000000000000000000000000000000000000000082
:20453900000000000000000000000000000000000000000000000000000000000000000062
:0d4559000000000000000000000000000055
:20456600000000000000000000000000000000000000000000000000000000000000000035
:20458600000000000000000000000000000000000000000000000000000000000000000015
:2045a6000000000000000000000000000000000000000000000000000000000000000000f5
:0d45c60000000000000000000000000000e8
:2045d3000000000000000000000000000000000000000000000000000000000000000000c8
:2045f3000000000000000000000000000000000000000000000000000000000000000000a8
:20461300000000000000000000000000000000000000000000000000000000000000000087
:0d463300000000000000000000000000007a
:2046400000000000000000000000000000000000000000000000000000000000000000005a
:2046600000000000000000000000000000000000000000000000000000000000000000003a
:2046800000000000000000000000000000000000000000000000000000000000000000001a
:0d46a000000000000000000000000000000d
:2046ad000000000000000000000000000000000000000000000000000000000000000000ed
:2046cd000000000000000000000000000000000000000000000000000000000000000000cd
:2046ed000000000000000000000000000000000000000000000000000000000000000000ad
:0d470d00000000000000000000000000009f
:20471a0000010000000000000000000000000000000000000000000000000000000000007e
:20473a0000000000000000000000000000000000000000000000000000000000000000005f
:20475a0000000000000000000000000000000000000000000000000000000000000000003f
:0d477a000000000000000000000000000032
:20478700000000000000000000000000000000000000000000000000000000000000000012
:204b9c000000000004000000000000100000000000000000000000000000000000000000e5
:0d4bbc0000000000000000000000000000ec
:204bc9000002000000000000000000000000000000000000000000000000000000000000ca
:204be9000000000000000000000000000000000000000000000000000000000000000000ac
:204c090000000000000000000000000000000000000000000000000000000000000000008b
:0d4c2900000000000000000000000000007e
:204c36008000000000000000000000000000000000000000000000000000000000000000de
:204c560000000000000000000000000000000000000000000000000000000000000000003e
:204c760000000000000000000000000000000000000000000000000000000000000000001e
:0d4c96000000000000000000000000000011
:204ca300800000000000000000000000000000000000000000000000000000000000000071
:204cc3000000000000000000000000000000000000000000000000000000000000000000d1
:204ce3000000000000000000000000000000000000000000000000000000000000000000b1
:0d4d030000000000000000000000000000a3
:204d1000000000000000000000000000000000000000000000000000000000000000000083
:204d3000000000000000000000000000000000000000000000000000000000000000000063
:204d5000000000000000000000000000000000000000400000000000000000000000000003
:0d4d70000000000000000000000000000036
:204d7d00800000000000000000000000000000000000000000000100000000000000000095
:204d9d000000000000000000000000000000000000010000000000000000000000000000f5
:204dbd000000000000000000000000000000000000000000000000000000000000000000d6
:0d4ddd0000000000000010000000000000b9
:204dea000001000000000000000000000000000000000000000000000000000000000000a8
:204e0a00000000000000000000000000000000000000000000000000000000000000000088
:204e2a00000000000000000000000000000000000000000000000000000000000000000068
:0d4e4a00000000000000000000000000005b
:204e570000000000000000000000000000000000000000000000000000000000000000003b
:204e770000000000000000000000000000000000000000000000000000000000000000001b
:204e97000000000000000000000000000000000000000000000000000000000000000000fb
:0d4eb70000000000000000000000000000ee
:204ec4000000000000000000000000000000000000000000000000000000000000000000ce
:204ee4000000000000000000000000000000000000000000000000000000000000000000ae
:204f040000000000000000000000000000000000000000000000000000000000000000008d
:0d4f24000000000000000000000000000080
:204f310000020000000000000000000000000000000000000000000000000000000000005e
:204f5100000000000000000000000000000000000000000000000000000000000000000040
:204f7100000000000000000000000000000000000000000000000000000000000000000020
:0d4f91000000000000000000000000000013
:204f9e000000000000000000000000000000000000000000000000000000000000000000f3
:204fbe000000000000000000000000000000000000000000000000000000000000000000d3
:204fde000000000000000000000000000000000000000000000000000000000000000000b3
:0d4ffe0000000000000000000000000000a6
:20500b00000000000000000000000000000000000000000000000000000000000000000085
:20502b00000000000000000000000000000000000000000000000000000000000000000065
:20504b00000000000000000000000000000000000000000000000000000000000000000045
:0d506b000000000000000000000000000038
:20507800000000000000000000000000000000000000000000000000000000000000000018
:205098000000000000000000000000000000000000000000000000000000000000000000f8
:2050b8000000000000000000000000000000000000000000000000000000000000000000d8
:0d50d80000000000000000000000000000cb
:2050e5000000000000000000000000000000000000000000000000000000000000000000ab
:2051050000000000000000000000000000000000000000000000000000000000000000008a
:2051250000000000000000000000000000000000000000000000000000000000000000006a
:0d514500000000000000000000000000005d
:2051520000000000000000000000000000000000000000000000000000000000000000003d
:2051720000000000000000000000000000000000000000000000000000000000000000001d
:205192000000000000000000000000000000000000000000000000000000000000000000fd
:0d51b20000000000000000000000000000f0
:2051bf000000000000000000000000000000000000000000000000000000000000000000d0
:2051df000000000000000000000000000000000000000000000000000000000000000000b0
:2051ff00000000000000000000000000000000000000000000000000000000000000000090
:0d521f000000000000000000000000000082
:20522c00000000000000000000000000000000000000000000000000000000000000000062
:20524c00000000000000000000000000000000000000000000000000000000000000000042
:20526c00000000000000000000000000000000000000000000000000000000000000000022
:0d528c000000000000000000000000000015
:205299000002000000000000000000000000000000000000000000000000000000000000f3
:2052b9000000000000000000000000000000000000000000000000000000000000000000d5
:2052d9000000000000000000000000000000000000000000000000000000000000000000b5
:0d52f90000000000000000000000000000a8
:20530600000000000000000000000000000000000000000000000000000000000000000087
:20532600000000000000000000000000000000000000000000000000000000000000000067
:20534600000000000000040000000000000000000000000000000000000000000000000043
:0d536600000000000000000000000000003a
:2053730000000000000000000000000000000000000000000000000000000000000000001a
:205393000000000000000000000000000000000000000000000000000000000000000000fa
:2053b3000000000000000000000000000000000000000000000000000000000000000000da
:0d53d30000000000000000000000000000cd
:2053e0000000000000000000000000000000000000000000000000000000000000000000ad
:2054000000000000000000000000000000000000000000000000000000000000000000008c
:2054200000000000000000000000000000000000000000000000000000000000000000006c
:0d544000000000000000000000000000005f
:20544d0000000000000000000000000000000000000000000000000000000000000000003f
:20546d0000000000000000000000000000000000000000000000000000000000000000001f
:20548d000000000000000000000000000000000000000000000000000000000000000000ff
:0d54ad0000000000000000000000000000f2
:2054ba000001000000000000000000000000000000000000000000000000000000000000d1
:2054da000000000000000000000000000000000000000000000000000000000000000000b2
:2054fa00000000000000000000000000000000000000000000000000000000000000000092
:0d551a000000000000000000000000000084
:20552700000000000000000000000000000000000000000000000000000000000000000064
:20554700000000000000000000000000000000000000000000000000000000000000000044
:20556700000000000000000000000000000000000000000000000000000000000000000024
:0d5587000000000000000000000000000017
:205594000000000000000000000000000000000000000000000000000000000000000000f7
:2055b4000000000000000000000000000000000000000000000000000000000000000000d7
:2055d4000000000000000000000000000000000000000000000000000000000000000000b7
:0d55f40000000000000000000000000000aa
:20560100000000000000000000000000000000000000000000000000000000000000000089
:20562100000000000000000000000000000000000000000000000000000000000000000069
:20564100000000000000000000000000000000000000000000000000000000000000000049
:0d566100000000000000000000000000003c
:20566e0000000000000000000000000000000000000000000000000000000000000000001c
:20568e000000000000000000000000000000000000000000000000000000000000000000fc
:2056ae000000000000000000000000000000000000000000000000000000000000000000dc
:0d56ce0000000000000000000000000000cf
:2056db000000000000000000000000000000000000000000000000000000000000000000af
:2056fb0000000000000000000000000000000000000000000000000000000000000000008f
:20571b0000000000000000000000000000000000000000000000000000000000000000006e
:0d573b000000000000000000000000000061
:20574800000000000000000000000000000000000000000000000000000000000000000041
:20576800000000000000000000000000000000000000000000000000000000000000000021
:205788000000000000000000000000000000000000004000000000000000000000000000c1
:0d57a80000000000000000000000000000f4
:2057b5000000000000000000000000000000000000000000000000000000000000000000d4
:2057d5000000000000000000000000000000000000000000000000000000000000000000b4
:2057f500000000000000000000000000000000000000000000000000000000000000000094
:0d5815000000000000000000000000000086
:20582200000000000000000000000000000000000000000000000000000000000000000066
:20584200000000000000000000000000000000000000000000000000000000000000000046
:20586200000000000000000000000000000000000000000000000000000000000000000026
:0d5882000000000000000000000000000019
:20588f000000000000000000000000000000000000000000000000000000000000000000f9
:2058af000000000000000000000000000000000000000000000000000000000000000000d9
:2058cf000000000000000000000000000000000000000000000000000000000000000000b9
:0d58ef0000000000000000000000000000ac
:2058fc0000000000000000000000000000000000000000000000000000000000000000008c
:20591c00000000000000000000000000000000000002000000000000000000000000000069
:20593c0000000000000000000000000000000000000000000000000000000000000000004b
:0d595c000000000000000000000ea9640023
:2059690000020000000000000000000000000000000000000000000000000000000000001c
:205989000000000000000000000000000000000000000000000000000000000000000000fe
:2059a9000000000000000000000000000000000000000000000000000000000000000000de
:0d59c9000000000000000000000209600066
:2059d6000000000000000000000000000000000000000000000000000000000000000000b1
:2059f600000000000000000000000000000000000000000000000028000000000000000069
:205a1600000000000000000000000000000000000000000000000000000000000000000070
:0d5a3600000000000000a0000000000000c3
:205a4300000000000000000000000000000000000000000000000000000000000000000043
:205a6300000000000000000000000000000000000000000000000000000000000000000023
:205a8300000000000000000000000000000000000000000000000000000000000000000003
:0d5aa3000000000000008000000000000076
:205ab0000000000000000000000000000000000000000000000001000000000000000000d5
:205ad0000000000000000000000000000000000000000000000000000000000000000000b6
:205af000000000000000000000000000000000000000000000000000000000000000000096
:0d5b10000000000000000002000000000086
:205b1d00000000000000000000000000000000000000000000000100000000000000000067
:205b3d00000000000000000000000000000000000000000000000000000000000000000048
:205b5d00000000000000000000000000000000000000000000000000000000000000000028
:0d5b7d0000000000000000004000000000db
:205b8a000001000000000000000000000000000000000000000000000000000000000000fa
:205baa000000000000000000000000000000000000000000000000000000000000000000db
:205bca000000000000000000000000000000000000000000000000000000000000000000bb
:0d5bea0000000000000000000000000000ae
:205bf70000000000000000000000000000000000000000000000000000000000000000008e
:205c170000000000000000000000000000000000000000000000000000000000000000006d
:205c370000000000000200000000000000000000000000000000000000000000000000004b
:0d5c57000000000000000000000000000040
:205c6400000000000000000000000000000000000000000000000000000000000000000020
:205c8400000000000000000000000000000000000000000000000000000000000000000000
:205ca4000000000000020000000000000000000000000000000000000000000000000000de
:0d5cc40000000000000000000000000000d3
:205cd1000000000000000000000000000000000000000000000000000000000000000000b3
:205cf100000000000000000000000000000000000000000000000000000000000000000093
:205d110000000000000500000000000000000000000000000000000000000000000000006d
:0d5d31000000000000000000000000000065
:205d3e00000000000000000000000000000000000000000000000000000000000000000045
:205d5e000000000000000000000000000000000000000000000000204000000000000000c5
:205d7e000000000000000000000000000000000000001000000000000000000000000002f3
:0d5d9e00000000000000000002800ff10076
:205dab000000000000000000000000000000000000000000000000000000000000000000d8
:205dcb000000000000000000000000000000000000000000000000100000000000000000a8
:205deb00000000000000000000000000000000000000200000000000000000000000000078
:0d5e0b00020000000000000000000ff20087
:205e180000000000000000000000000000000000000000000000000000000000000000006a
:205e380000000000000000000000000000000000000000000000000000000000000000004a
:205e580000000000000000000000000000000000000000000000000000000000000000002a
:0d5e7800000000000000000000000000001d
:205e85000000000000000000000000000000000000000000000000000000000000000000fd
:205ea5000000000000000000000000000000000000000000000000000000000000000000dd
:205ec5000000000000000000000000000000000000000000000000000000000000000000bd
:0d5ee50000000000000000000000000000b0
:205ef200000000000000000000000000000000000000000000000000000000000000000090
:205f120000000000000000000000000000000000000000000000000000000000000000006f
:205f320000000000000000000000000000000000000000000000000000000000000000004f
:0d5f52000000000000000000000000000042
:205f5f00000000000000000000000000000000000000000000000000000000000000000022
:205f7f000000000000001000000000000000000000000000000000000000000000000000f2
:205f9f000000000000000000000000000000000000000000000000000000000000000000e2
:0d5fbf0000000000000000000000000000d5
:205fcc000000000000000000000000000000000000000000000000000000000000000000b5
:205fec00000000000000000000000000000000000000000000000000000000000000000095
:20600c00000000000000000000000000000000000000000000000000000000000000000074
:0d602c000000000000000002000000000065
:20603900000200000000000000000000000000000000000000000000000000000000000045
:20605900000000000000000000000000000000000000000000000000000000000000000027
:206079000000000000000000000000000002400000000000000000000000000000000000c5
:0d60990000000000000000024000000000b8
:2060a6000000000000000000000000000000000000000000000000000000000000000000da
:2060c6000000000000000000000000000000000000000000000000000000000000000000ba
:2060e60000000000000000000000000000100000000000000000000000000000000000008a
:0d610600000000000000a0000025c25600af
:2061130000000000000000000000000000000000000000000000000000000000000000006c
:2061330000000000000000000000000000000000000000000000000000000000000000004c
:2061530000000000000000000000000000000000000000000000000000000000000000002c
:0d6173000000000000008000001dba500078
:206180000000000000000000000000000000000000000000000000000000000000000000ff
:2061a0000000000000000000000000000000000000000000000000000000000000000000df
:2061c0000000000000000000000000000010000000000000000000000000000000000000af
:0d61e0000000000000000000004000000072
:2061ed00000000000000000000000000000000000000000000000000000000000000000092
:20620d00000000000000000000000000000000000000000000000000000000000000000071
:20622d00000000000000000000000000000000000000000000000000000000000000000051
:0d624d0000000000000000000380000000c1
:20625a00000100000000000000000000000000000000000000000000000000000000000023
:20627a00000000000000000000000000000000000000000000000000000000000000000004
:20629a000000000000000000000000000000000000000000000000000000000000000000e4
:0d62ba0000000000000000000000000000d7
:2062c7000000000000000000000000000000000000000000000000000000000000000000b7
:2062e700000000000000000000000000000000000000000000000000000000000000000097
:20630700000000000000000000000000000000000000000000000000000000000000000076
:0d6327000000000000000000000000000069
:20633400000000000000000000000000000000000000000000000000000000000000000049
:20635400000000000000000000000000000000000000000000000000000000000000000029
:2063740000000000000000000000000001c00cee50080000000000000000000000000000f6
:0d63940000000000000000000000000000fc
:2063a1000000000000000000000000000000000000000000000000000000000000000000dc
:2063c1000000000000000000000000000000000000000000000000000000000000000000bc
:2063e10000000000000000000000000001c025cd9000000000000000000000000000000059
:0d640100000000000000000000000000008e
:20640e0000000000000000000000000000000000000000000000000000000000000000006e
:20642e0000000000000000000000000000000000000000000000000000000000000000004e
:20644e0000000000000000000000000000000000000000000000000000000000000000002e
:0d646e0000000000000000000040000000e1
:20647b00000000000000000000000000000000000000000000000000000000000000000001
:20649b000000000000000000000000000000000000000000000000000000000000000000e1
:2064bb000000000000000000000000000000000000000000000000000000000000000000c1
:0d64db000000000000000000028000000032
:2064e800000000000000000000000000000000000000000000000000000000000000000094
:20650800000000000000000000000000000000000000000000000000000000000000000073
:20652800000000000000000000000000000000000000000000000000000000000000000053
:0d6548000000000000000000000000000046
:20655500000000000000000000000000000000000000000000000000000000000000000026
:20657500000000000000000000000000000000000000000000000000000000000000000006
:20659500000000000000000000000000000380000000000000000000000000000000000063
:0d65b50000000000000000000000000000d9
:2065c2000000000000000000000000000000000000000000000000000000000000000000b9
:2065e200000000000000000000000000000000000000000000000000000000000000000099
:20660200000000000000000000000000000000000000000000000000000000000000000078
:0d6622000000000000000002000000000069
:20662f0000000000000000000000000000000000000000000000000000000000000000004b
:20664f0000000000000000000000000000000000000000000000000000000000000000002b
:20666f0000000000000000000000000000000000000000000000000000000000000000000b
:0d668f0000000000000000014000000000bd
:20669c000000000000000000000000000000000000000000000000000000000000000000de
:2066bc000000000000000000000000010000000000000000000000000000000000000000bd
:2066dc00000000002000018000000014094004ba300a00080137a95020000000000000004f
:0d66fc0000000000000080000221808000ee
:2067090000020000000000000000000000000000000000000000000000000000000000006e
:20672900000000000000000000000000000000000000000000000000000000000000000050
:2067490000000000000000000000001010203ccf300000010a1306a00000000000000000f1
:0d6769000000000000000000001dc0400006
:20677600000000000000000000000000000000000000000000000000000000000000000003
:206796000000000000000000000000000000000000000000000000000000000000000000e3
:2067b600007cfa003800000000000000020040000003805f80d3f45000000000000000005a
:0d67d600000000000000e0000216e7e020d7
:2067e300000000000000000000000000000000000000000000000000000000000000000096
:20680300000000000000000000000000000000000000000000000000000000000000000075
:2068230024e05a00200000b00000000003c280000002002d001a9400000000000000000401
:0d6843000000000000000000002c02e0003a
:20685000000000000000000000000000000000000000000000000000000000000000000028
:20687000000000000000000000000000000000000000000000000000000000000000000008
:20689000000000000400000133940400c00034e0000000078b0000000000000000000004ae
:0d68b00000000000000000000005e0542082
:2068bd000000000000000000000000000000000000000000000000000000000000000000bb
:2068dd0000000000000000000000000000000000000000000000000000000000000000009b
:2068fd00000000000400000bb36400000340050a000000009a000000000000000000000465
:0d691d000000000000000000002f024000fc
:20692a0000010000000000000000000000000000000000000000000000000000000000004c
:20694a0000000000000000000000000000000000000000000000000000000000000000002d
:20696a000000000000000003e369000001c00000000000019e93f450000000000000000087
:0d698a0000000000000000006000000000a0
:206997000000000000000000000000000000000000000000000000000000000000000000e0
:2069b7000000000000000000000000000000000000000000000000000000000000000000c0
:2069d700000000000000000fe6140000000000000000000b001e942040000000000000007a
:0d69f7000000000000000000000000000093
:206a0400000000000000000000000000000000000000000000000000000000000000000072
:206a2400000000000000000000000000000000000000000000000000800000000000000ec4
:206a4400000000000000500000000000000024ba31000007801ae8d000000000000000007a
:0d6a6400000000000000000206cdd4e0009c
:206a7100000000000000000000000000000000000000000000000000000000000000000005
:206a91000000000000000000000000000000000000000000000000000000000000000002e3
:206ab10000000000000050b000000000000024af3000000d005700e8000000000000000076
:0d6ad1000000000000000001421fa0c000f6
:206ade00000000000000000000000000000000000000000000000000000000000000000098
:206afe00000000000000000000000000000000000000000000000000000000000000002058
:206b1e0000000000000000f0000000000000000000000008015ef4540000000000000000b8
:0d6b3e000000000000000000060da2442031
:206b4b0000000000000000000000000000000000000000000000000000000000000000002a
:206b6b00000000000000000000000000000000000000000000000000000000000000001cee
:206b8b0000000000000001c000000000004000000000000108da28200000000000000000be
:0d6bab0000000000000000000026050000b2
:206bb8000000000000000000000000000000000000000000000000000000000000000000bd
:206bd80000000000000000000000000000000000000000000000000000000000000000009d
:206bf800000000000000000bff6900000002800000000001989ae8d000000000000000009d
:0d6c1800000000000000c001600dd720004a
:206c250000000000000000000000000000000000000000000000000000000000000000004f
:206c450000000000000000000000000000000000000000000000000000000000000000002f
:206c65000000000002800089f56000000006c00000000000001740e01000000000000000a2
:0d6c8500000000000000c000001fa3000080
:206c92000000000000000000000000000000000000000000000000000000000000000000e2
:206cb2000000000000000000000000000000000000000000000000000000000000000000c2
:206cd20000000000000000100000001004000000000300000000000000000000000000007b
:0d6cf2000000000000000001604dea0000fd
:206cff00000000000000000000000000000000000000000000000000000000000000000075
:206d1f00000000000000000000000000000000000000000000000000000000000000000054
:206d3f0000000000000000800000001008000000000000010000000000000000000000009b
:0d6d5f00000000000000001402000a000007
:206d6c00000000000000000000000000000000000000000000000000000000000000000007
:206d8c00000000000000000000000000000000000002000000000000000c000000080000d1
:206dac0024ebd840200080e17b69018003601ecf5400000d00000000080000680000002079
:0d6dcc00008005e929408000000000000063
:206dd900000200000000000000000000000000000000000000000000000000000000000098
:206df90000000000000000000000000000000000000000000000000000000000000000007a
:206e1900394fc010000010c3e214000000400405a080038500000000000000000000000047
:0d6e39000010b9630c400001400000000093
:206e460000000000000000000000000000000000000000000000000000000000000000002c
:206e66000000000000000000000000000000d78288000000000000000701de80000e003483
:206e86006b5eca603800000f680d00e0020004ff44000000000000000e00000000000038ce
:0d6ea600000000000000e0014000000000be
:206eb3000000000000000000000000000000000000000000000000000000000000000000bf
:206ed3000000000000000000000000000d00d80000000000000000000d0d1a420008001626
:206ef300005cc0002000b005250c008001400cef0080000000000000080000000000000019
:0d6f13000000000000000000000000000071
:206f200000000000000000000010000000000000000000000000030000000000000000003e
:206f4000000000001000000000000000070c06bd4c02000000000000000e000000000034bb
:206f6000696fd84001000185e8008000000024fa540000000017f300000000004fd1400056
:0d6f80000000000000000000000000000004
:206f8d000000000000000000001000000000000000000000000001000000000000000000d3
:206fad000000000000000000000000000010d43e800000000000000000000000000000041e
:206fcd0002ffc0000000000782800000000005cf1080000000f6c00000000002fe50000070
:0d6fed000000000000000000028000000015
:206ffa00000300000000000000000000000000000000000000000000000000000000000074
:20701a000000000000000000000000000b8000000000000000000000038c5656800100040b
:20703a00626af420000098af2b69000002000000000000000c171400000020000000000022
:0d705a0000000000000000006000000000c9
:20706700000000000000000000000000000000000000000000000000000000000000000009
:207087000000000000000000000000000b8e0000000000000000000007807b9e80000036fa
:2070a7002dd9f100000011cfe56000000040000000000000007000000000040000000000f9
:0d70c70000d0b0000000000000000000003c
:2070d40000000000000000000000000000000000000000000000000000000000000000009c
:2070f400000000000000000000000000001cfb4140000000000000000018f68140420006cd
:2071140000000000000080016c11000005e02fbd1400000000000000000000045ad1400009
:0d713400000000000000000000000000004e
:207141004000000000000000000000000000000000000000000000000000000000000000ee
:20716100000000000000000000000000001077c0800000000000000010009800000000009f
:207181002c00000000007007b6800000e8001ed500000000000000000000003aef500000c1
:0d71a10000000000000000000000000000e1
:2071ae000000000000000000000000000000000000000000000000000000000000000000c1
:2071ce000000000000000000000000000380f2b8048000000000000008003bb9408000062e
:2071ee0001c90100000000cf6abc0000000680000000000800000000000000000000000033
:0d720e0000000000000000000025a7440063
:20721b00000000000000000000000000000000000000000000000000000000000000000053
:20723b000000000000000000000000020000582000000000000000000700702940000000d9
:20725b00025e0000002001eb43fc0000024380000000000f00000000000024000000000070
:0d727b0000000000000000000004bb000047
:207288000000000000000000000000000000000000000000000000000000000000000000e6
:2072a800000000000000000000000000001cdb4040000000000000000381b3b9c080040417
:2072c800247f7a00000019e86bec08002066efed140028000e000000028000245fd1400067
:0d72e8000000000000000000000000000099
:2072f5008000000000000000000000000000000000000000000000000000000000000000f9
:20731500000000000000000000000000001017c00800000000000000090f1c3dc800000030
:2073350023eaa5000000000b03dc000000061ff5000010091000000000400022fc500000ab
:0d735500000000000000000000000000002b
:2073620000000000000000000000000000000000000000000000000000000000000000000b
:207382000000000000000000000000000b88dac044000000000000000800861400000020b8
:2073a2006b7ea84200000011a3d408c002e0400000000010011700000c000404000000301a
:0d73c200000000000000c0000000000000fe
:2073cf0000000000000000000000000000000000000000000000000000000000000000009e
:2073ef000000000000000000000000000b10d70000000000000000000f0054280000002cd5
:20740f000170a4200008008943c8000002e20000000010200a7014000000002000000000ca
:0d742f00000000000000000000000000034d
:02743c0000004e
:02743e0011013a
:02744000010148
:2074420000000000000000000000000000000000000000000000000000000000000000002a
:2074620000000000000000000000000000000000000000000000000000000000000000000a
:207482000000000000000000000000000000000000000000000000000000000000000000ea
:0d74a20000000000000000000000000000dd
:2074af000000000000000000000000000000000000000000000000000000000000000000bd
:2074cf0000000000000000000000000000000000000000000000000000000000000000009d
:2074ef0000000000000000000000000000000000000000000000000000000000000000007d
:0d750f00000000000000000000000000006f
:20751c000000000000000000000000000000000010000000000000400000000000000000ff
:20753c000000000004000000000000100000000000004000000000000000000000000000db
:20755c0000000000010000000000000000000000000000000000000000000000000000000e
:0d757c000000000000000400b0000000004e
:207589000000000000000000000000000000000000000000000000000000000000000000e2
:2075a9000000000000000000000000000000000000000000000000000000000000000000c2
:2075c9000000000000000000000000000000000000000000000000000000000000000000a2
:0d75e9000000000000000000000000000095
:2075f600000000000000000000000000000000000000000000000000000000000000000075
:20761600000000000000000000000000000000000000000000000000000000000000000054
:20763600000000000000000000000000000000000000000000000000000000000000000034
:0d7656000000000000000000000000000027
:20766300000000000000000000000000000000000000000000000000000000000000000007
:207683000000000000000000000000000000000000000000000000000000000000000000e7
:2076a3000000000000000000000000000000000000000000000000000000000000000000c7
:0d76c30000000000000000000000000000ba
:2076d000000000000000000000000000000000002000000000000000000100000000000079
:2076f000000000000800001000000000000040000000000000000000000000000000000022
:20771000000000000100000000000000000000000000000000000000000000000000000058
:0d773000000000000000000000000000004c
:20773d0000000000000000000000000000000000200000000000008000000000000000008c
:20775d0000000000000000000000002000000000000080000000000000000000000000006c
:20777d000000000000000000000000000000000000000000000000000000000000000000ec
:0d779d0000000000000000000000000000df
:2077aa0000000000000800000000000020000000000000c0000000000003000000000000d4
:2077ca000800000000000030000000000000c0000000000003000000000080000000000024
:2077ea00020000000000000c000000000000200000000000008000000000000200000000cf
:0d780a000000080000000000003000000039
:20781700000000000000000000000000000000000000000000000000000000000000000051
:20783700000000000000000000000000000000000000000000000000000000000000000031
:20785700000000000000000000000000000000000000000000000000000000000000000011
:0d7877000000000000000000000000000004
:207884000000000000000000000000000000000000000000000000400000000000000000a4
:2078a4000000000000000000000000100000000000000000000100000000000000000000b3
:2078c4000000000000000000000000000000000000000000000000000000000000000000a4
:0d78e400000000000000000000000c00008b
