:02000000ff00ff
:080002004c6174746963650030
:17000a00694345637562653220323032302e31322e32373934330071
:16002100506172743a2069434534304858344b2d545131343400f9
:1b003700446174653a2053657020313320323032352032313a31383a3230007f
:0200520000ffad
:040054007eaa997e69
:02005800510055
:02005a0001059e
:03005c00920020ef
:03005f00620367d2
:0300620072011018
:0300650082000016
:02006800110085
:02006a00010192
:20006c00000000000000000000000000000000000000000000000000000000000000000074
:20008c00000000000000000000000000000000000000000000000000000000000000000054
:2000ac0000000000010000000000000400000000000000000000000000000000000000012e
:0d00cc000000000000000000000000000027
:2000d900000000000000000000000000000000000000000000000000000000000000000007
:2000f9000000000000000000000000000000000000000000000000000000000000000000e7
:200119000000000000000000000000000000000000000000000000000000000000000000c6
:0d01390000000000000000000000000000b9
:20014600000000000000000000000000000000000000000000000000000000000000000099
:20016600000000000000000000000000000000000000000000000000000000000000000079
:20018600000000000100000000000004000000000000000000000000000000000000000153
:0d01a6000000000000000400000000000048
:2001b30000000000000000000000000000000000000000000000000000000000000000002c
:2001d30000000000000000000000000000000000000000000000000000000000000000000c
:2001f3000000000000000000000000000030000000000000000000000000000000000000bc
:0d02130000000000000000000000000000de
:200220000000000000000000000000000000000000000000000000000000000000000000be
:2002400000000000000000000000000000000000000000000000000000000000000000009e
:200260000000000002000c0014000008000000000000000000000000000000000000000252
:0d0280000000002000000000000000000051
:20028d00000000000000000000000000000000000000000000000000000000000000000051
:2002ad00000000000000000000000000000000000000000000000000000000000000000031
:2002cd000000000000000200340000000000005000000003c00000000000000000000000c8
:0d02ed000000403c00000000000000000088
:2002fa000000000000000000000000000000000000000000000000000001000000000000e3
:20031a000000000000000000000000000000000000000000000000000000000000000000c3
:20033a0000000000000000000000000800f01000000000000000000000000000000000009b
:0d035a000000000000000000000000000096
:20036700000000000000000000000000000000000000000000000000000000000000000076
:20038700000000000000000000000000000000000000000000000000000000000000000056
:2003a7000000000002000000000000000080000000000000000000000000000000000002b2
:0d03c70000000000000000005800000000d1
:2003d40000000000000800000000000020000000000000800000000000020000000000005f
:2003f4000800000000000020000000000000800000000000020000000000800000000000bf
:20041400020000000000000c00000000000030000000000000800000000000020000000008
:0d04340000200c000000000000200000006f
:2004410000000000000000000000000000000000000000000000000000000000000000009b
:2004610000000000000000000000000000000000000000000000000000000000000000007b
:2004810000000000000000000000000000000010000000000000000000000000000000004b
:0d04a100001400000000000000000000003a
:2004ae0000000000000000000000000000000000000000000000000000000000000000002e
:2004ce0000000000000000000000000000000000000000000000000000000000000000000e
:2004ee0000000000000000000000000000000050000000000000200000000001000000007d
:0d050e0000000400000000000000100000cc
:20051b000000000000000000000000000000000000000000000000000000000000000000c0
:20053b000000000000000000000000000000000000000000000000000000000000000000a0
:20055b000000000000001600000000040000007000000000000030000000000300000000c3
:0d057b000000080000000800000020000043
:20058800000000000000000000000000000000000000000000000000000000000000000053
:2005a800000000000000000000000000000000000000000000000000000000000000000033
:2005c8000000000000000000000000000000002000000000000000000000000100000000f2
:0d05e800001e0800000000000010000000d0
:2005f5000000000000000000000000000000000000000000000000400000000000000000a6
:200615000000000000000000000000000000000000000000000000000000000000000000c5
:200635000000000000000000000000040000000000000000000000000000000001000000a0
:0d065500000204000000040000000000008e
:200662000000000000040000000000001000000000000040000000400001000000000000e3
:200682000400000000000010000000000000400000000000010000000000400000000000c3
:2006a20001000000000000040000000000f8100000000000004000000000000100000000ea
:0d06c2000000040000000000000000000027
:2006cf0000000000000000000000000000000000000000000000000000000000000000000b
:2006ef000000000000000000000000000000000000000000000000000000000000000000eb
:20070f0000000000000000000000000800b0400000000000000000000000000000000000d2
:0d072f0000000000000008000000000000b5
:20073c0000000000000000000000000000000000000000000000000000000000000000009d
:20075c0000000000000000000000000000000000000000000000000000000000000000007d
:20077c0000000000000000000000000000000000000000000000000000000000000000005d
:0d079c000000000000000000000000000050
:2007a90000020000000000000000000000000000000000000000000000000000000000002e
:2007c900000000000000000000000000000000000000000000000000000000000000000010
:2007e9000000000000000000000000000000000000000000000000000000000000000000f0
:0d08090000000000000000000000000000e2
:200816000000000000000000000000000000000000000000000000000000000000000000c2
:200836000000000000000000000000000000000000000000000000000000000000000000a2
:20085600000000000000000000000000000000000000000000000000000000000000000082
:0d0876000000000000000000000000000075
:20088300000000000000000000000000000000000000000000000000000000000000000055
:2008a300000000000000000000000000000000000000000000000000000000000000000035
:2008c300000000000000000000000000000000000000000000000000000000000000000015
:0d08e3000000000000000000000000000008
:2008f0000000000000000000000000000000000000000000000000000000000000000000e8
:200910000000000000000000000000000000000000000000000000000000000000000000c7
:200930000000000000000000000000000000000000000000000000000000000000000000a7
:0d095000000000000000000000000000009a
:20095d0000000000000000000000000000000000000000000000000000000000000000007a
:20097d0000000000000000000000000000000000000000000000000000000000000000005a
:20099d0000000000000000000000000000000000000000000000000000000000000000003a
:0d09bd00000000000000000000000000002d
:2009ca0000010000000000000000000000000000000000000000010000000000000000000b
:2009ea000000000000000000000000000000000000000000000000000000000000000000ed
:200a0a000000000000000000000000000000000000000000000000000000000000000000cc
:0d0a2a0000000000000010000000000000af
:200a370000000000000000000000000000000000000000000000000000000000000000009f
:200a570000000000000000000000000000000000000000000000000000000000000000007f
:200a770000000000000000000000000000000000000000000000000000000000000000005f
:0d0a97000000000000001000000000000042
:200aa400000000000000000000000000000000000000000000000000000000000000000032
:200ac400000000000000000000000000000000000000000000000000000000000000000012
:200ae4000000000000000000000000000000000000000000000000000000000000000000f2
:0d0b040000000000000000000000000000e4
:200e7900000200000000000000000000000000000000000000000000000000000000000057
:200e9900000000000000000000000000000000000000000000000000000000000000000039
:200eb900000000000000000000000000000000000000000000000000000000000000000019
:0d0ed900000000000000000000000000000c
:200ee6000000000000000000000000000000000000000000000000000000000000000000ec
:200f06000000000000000000000000000000000000000000000000000000000000000000cb
:200f26000000000000000000000000000000000000000000000000000000000000000000ab
:0d0f4600000000000000000000000000009e
:200f530000000000000000000000000000000000000000000000000000000000000000007e
:200f730000000000000000000000000000000000000000000000000000000000000000005e
:200f930000000000000000000000000000000000000000000000000000000000000000003e
:0d0fb3000000000000000000000000000031
:200fc000000000000000000000000000000000000000000000000000000000000000000011
:200fe0000000000000000000000000000000000000000000000000000000000000000000f1
:201000000000000000000000000000000000000000000000000000000000000000000000d0
:0d10200000000000000000000000000000c3
:20102d000000000000000000000000000000000000000000000000000000000000000000a3
:20104d00000000000000000000000000000000000000000000000000000000000000000083
:20106d00000000000000000000000000000000000000000000000000000000000000000063
:0d108d000000000000000000000000000056
:20109a00000100000000000000000000000000000000000000000000000000000000000035
:2010ba00000000000000000000000000000000000000000000000000000000000000000016
:2010da000000000000000000000000000000000000000000000000000000000000000000f6
:0d10fa0000000000000000000000000000e9
:201107000000000000000000000000000000000000000000000000000000000000000000c8
:201127000000000000000000000000000000000000000000000000000000000000000000a8
:20114700000000000000000000000000001000000000000000000000000000000000000078
:0d116700000000000000000000000000007b
:2011740000000000000000000000000000000000000000000000000000000000000000005b
:2011940000000000000000000000000000000000000000000000000000000000000000003b
:2011b40000000000000000000000000000000000000000000000000000000000000000001b
:20151c0000000000000000000000000000000000000000100000000000000000000000009f
:0d153c0000000000000000000000000000a2
:20154900000200000000000000000000000000000000000000000000000000000000000080
:20156900000000000000000000000000000000000000000000000000000000000000000062
:20158900000000000000000000000000000000000000000000000000000000000000000042
:0d15a9000000000000000000000000000035
:2015b600000000000000000000000000000000000000000000000000000000000000000015
:2015d6000000000000000000000000000000000000000000000000000000000000000000f5
:2015f6000000000000000000000000080000000000000000000000000000000000000000cd
:0d16160000000000000000000000000000c7
:201623000000000000000000000000000000000000000000000000000000000000000000a7
:20164300000000000000000000000000000000000000000000000000000000000000000087
:20166300000000000000000000000000000000000000000000000000000000000000000067
:0d168300000000000000000000000000005a
:2016900000000000000000000000000000000000000000000000000000000000000000003a
:2016b00000000000000000000000000000000000000000000000000000000000000000001a
:2016d0000000000000000000000000000000000000000000000000000000000000000000fa
:0d16f00000000000000000000000000000ed
:2016fd000000000000000000000000000000000000000000000000000000000000000000cd
:20171d000000000000000000000000000000000000000000000000000000000000000000ac
:20173d0000000000000000000000000000000000000000000000000000000000000000008c
:0d175d00000000000000000000000000007f
:20176a0000010000000000000000000000000000000000000000000000000000000000005e
:20178a0000000000000000000000000000000000000000000000000000000000000000003f
:2017aa0000000000000000000000001000000000000000000000000000000000000000000f
:0d17ca000000000000000000000000000012
:2017d7000000000000000000000000000000000000000000000000000000000000000000f2
:2017f7000000000000000000000000000000000000000000000000000000000000000000d2
:201817000000000000000000000000000000000000000000000000000000000000000000b1
:0d18370000000000000000000000000000a4
:20184400000000000000000000000000000000000000000000000000000000000000000084
:20186400000000000000000000000000000000000000000000000000000000000000000064
:20188400000000000000000000000000000000000000000000000000000000000000000044
:0d18a4000000000000000000000000000037
:2018b100000000000000000000000000000000000000000000000000000000000000000017
:2018d1000000000000000000000000000000000000000000000000000000000000000000f7
:2018f1000000000000000000000000000000000000000000000000000006000000000000d1
:0d19110000000000000000000000000000c9
:20191e000000000000000000000000000000000000000000000000000000000000000000a9
:20193e00000000000000000000000000000000000000000000000000000000000000000089
:20195e00000000000000000000000000000000000000000000000000000000000000000069
:0d197e00000000000000000000000000005c
:20198b0000000000000000000000000000000000000000000000000000000000000000003c
:2019ab0000000000000000000000000000000000000000000000000000000000000000001c
:2019cb000000000000000000000000000000000000000000000000000000000000000000fc
:0d19eb0000000000000000000000000000ef
:2019f8000000000000000000000000000000000000000000000000000000000000000000cf
:201a18000000000000000000000000000000000000000000000000000000000000000000ae
:201a380000000000000000000000000000000000000000000000000000000000000000008e
:0d1a58000000000000000000000000000081
:201a6500000000000000000000000000000000000000000000000000000000000000000061
:201a8500000000000000000000000000000000000000000000000000000000000000000041
:201aa500000000000000000000000000000000000000000000000000000000000000000021
:0d1ac5000000000000000000000000000014
:201ad2000000000000000000000000000000000000000000000000000000000000000000f4
:201af2000000000000000000000000000000000000000000000000000000000000000000d4
:201b12000000000000000000000000000000000000000000000000000000000000000000b3
:0d1b320000000000000000000000000000a6
:201b3f00000000000000000000000000000000000000000000000000000000000000000086
:201b5f00000000000000000000000000000000000000000000000000000000000000000066
:201b7f00000000000000000000000000000000000000000000000000000000000000000046
:0d1b9f000000000000000000000000000039
:201bac00000000000000000000000000000000000000000000000000000000000000000019
:201bcc000000000000000000000000000000000000000000000000000000000000000000f9
:201bec000000000000000000000000020000000000000000000000000000000000000000d7
:0d1c0c0000000000000000000000000000cb
:201c1900800200000000000000000000000000000000000000000000000000000000000029
:201c390000000000000000000000000000000000000000000000000000000000000000008b
:201c5900000000000000000000000004000000000000000000000000000000000000000067
:0d1c7900000000000000000000000000005e
:201c860000000000000000000000000000000000000000000000000000000000000000003e
:201ca600000000000000000000000000000000000000000000000008000000000000000016
:201cc6000000000000000000000000000000000000000000000000000000000000000000fe
:0d1ce6008000000000000000000000000071
:201cf300800000000000000000000000000000000000000000000000000000000000000051
:201d13000000000000000000000000000000000000000000000000000000000000000000b0
:201d330000000000000000000000000000000000000000000000000000000000000000018f
:0d1d53000000000000000000000000000083
:201d6000000000000000000000000000000000000000000000000000000000000000000063
:201d8000000000002000000000000000000000000000000000000000000000000000000023
:201da00000000000000000000000000014000000000000000000000000000000000000000f
:0d1dc0000000000000000000000000000016
:201dcd000000000000000000000000000000000000000000000000000000000000000000f6
:201ded000000000000000000000000000000000000000000000000000000000000000000d6
:201e0d000000000000000000000000000000000000000000000000000000000000000000b5
:0d1e2d0000000000000000000000000000a8
:201e3a00000300000000000000000000000000000000000000000000000000000000000085
:201e5a00000000000000000000000000000000000000000000000000000000000000000068
:201e7a00000000000000000000000000000000000000000000000000000000000000000048
:0d1e9a00000000000000000000000000003b
:201ea70000000000000000000000000000000000000000000000000000000000000000001b
:201ec7000000000010000000000000000000000000000000000000000000000000010000ea
:201ee7000000000000000000000000100000000000000000000000000000000000000000cb
:0d1f070000000000000000000000000000cd
:201f14000000000000000000000000000000000000000000000000000000000000000000ad
:201f340000000000000000000000000000000000000200000000000000000000000000008b
:201f540000000000000000000000000000000000000000000000000000000000000000006d
:0d1f740080000000000000000000000000e0
:201f8100c0020000000000000000000000000000000000000000000000000000000000007e
:201fa100000000000000000000000000000000000000000000000000000000000000000020
:201fc1000000000000000000000000000000000000000000000000000000000000000001ff
:0d1fe10000000000000000000000000000f3
:201fee000000000000000000000000000000000000000000000000000000000000000000d3
:20200e000000000000000000000000000000000000000000000000000000000000000000b2
:20202e00000000000000000000000000000000000000000000000000000000000000000092
:0d204e000000000000000000000000000085
:20205b00000000000000000000000000000000000000000000000000000000000000000065
:20207b00000000000000000000000000000000000000000000000000000000000000000045
:20209b00000000000000000000000000000000000000000000000000000000000000000025
:0d20bb000000000000000000000000000018
:2020c8000000000000000000000000000000000000000000000000000000000000000000f8
:2020e8000000000000000000000000000000000000000000000000000000000000000000d8
:202108000000000000000000000000000000000000000000000000000000000000000000b7
:0d21280000000000000000000000000000aa
:2021350080000000000000000000000000000000000000000000000000000000000000000a
:2021550000000000000000000000000000000000000000000000000000000000000000006a
:2021750000000000000000000000000000000000000000000000000000000000000000004a
:0d219500000000000000000000000000003d
:2021a20000000000000000000000000000000000000000000000000000000000000000001d
:2021c2000000000000000000000000000000000000000000000000000000000000000000fd
:2021e2000000000000000000000000000000000000000000000000000000000000000000dd
:0d22020000000000000000000000000000cf
:20220f000000000000000000000000000000000000000000000000000000000000000000af
:20222f0000000000000000000000000000000000000000000000000000000000000000008f
:20224f0000000000010000000000000000000000000000000000000000000000000000006e
:0d226f000000000000000000000000000062
:20227c00000000000000000000000000000000000000000000000000000000000000000042
:20229c00000000000000000000000000000000000000000000000000000000000000000022
:2022bc00000000000000000000000000000000000000000000000000000000000000000002
:0d22dc0000000000000000000000000000f5
:2022e900800200000000000000000000000000000000000000000000000000000000000053
:202309000000000000000000000000000000000000000000000000000000000000000000b4
:20232900000000000000000000000000000000000000000000000000000000000000000094
:0d2349000000000000000000000000000087
:202356008000000000000000000000000000000000000000000000000000000000000000e7
:20237600000000000000000000000000000000000000000000000000000000000000000047
:20239600000000000004000000000000000000000000000000000000000000000000000023
:0d23b600000000000000000000000000001a
:2023c30080000000000000000000000000000000000000000000000000000000000000007a
:2023e3000000000000000000000000000000000000000000000000000000000000000000da
:202403000000000000000000000000000000000000000000000000000000000000000000b9
:0d24230000000000000000000000000000ac
:2024300000000000000000000000000000000000000000000000000000000000000000008c
:2024500000000000000000000000000000000000000000000000004000000000000000002c
:2024700000000000000000000000000000000000000000000000000000000000000000004c
:0d249000000000000000000000000000003f
:20249d0000000000000000000000000000000000000000000000000000000000000000001f
:2024bd000000000000000000000000000000000000000000000000000000000000000000ff
:2024dd000000000000000000000000000000000000000000000000000000000000000000df
:0d24fd0000000000000000000000000000d2
:20250a000003000000000000000000000000000000000000000000000000000000000000ae
:20252a00000000000000000000000000000000000000000000000000000000000000000091
:20254a00000000000000000000000000000000000000000000000000000000000000000071
:0d256a000000000000000000000000000064
:20257700000000000000000000000000000000000000000000000000000000000000000044
:20259700000000000000000000000000000000000001000000000000000000000001000022
:2025b700000000000000000000000000000000000000000000000000000000000000000004
:0d25d70000000000000000000000000000f7
:2025e4000000000000000000000000000000000000000000000000000000000000000000d7
:202604000000000000000000000000000000000000020000000000000000000000000000b4
:20262400000000000000000000000000000000000000000000000000000000000000000096
:0d2644000000000000000000000000000089
:20265100400200000000000000000000000000000000000000000000000000000000000027
:20267100000000000000000000000000000000000000000000000000000000000000000049
:20269100000000000000000000000000000000000000000000000000000000000000000029
:0d26b100000000000000000000000000001c
:2026be000000000000000000000000000000000000000000000000000000000000000000fc
:2026de000000000000000000000000000000000000000000000000000000000000000000dc
:2026fe000000000000000000000000000000000000000000000000000000000000000000bc
:0d271e0000000000000000000000000000ae
:20272b0000000000000000000000000000000000000000000000000000000000000000008e
:20274b0000000000000000000000000000000000000000000000000000000000000000006e
:20276b0000000000000000000000000000000000000000000000000000000000000000004e
:0d278b000000000000000000000000000041
:20279800000000000000000000000000000000000000000000000000000000000000000021
:2027b800000000000000000000000000000000000000000000000000000000000000000001
:2027d8000000000000000000000000000000000000000000000000000000000000000000e1
:0d27f80000000000000000000000000000d4
:20280500800000000000000000000000000000000000000000000000000000000000000033
:20282500000000000000000000000000000000000000000000000000000000000000000093
:20284500000000000000000000000000000000000000000000000000000000000000000073
:0d2865000000000000000000000000000066
:20287200000000000000000000000000000000000000000000000000000000000000000046
:20289200000000000000000000000000000000000000000000000000000000000000000026
:2028b200000000000000000000000000000000000000000000000000000000000000000006
:0d28d20000000000000000000000000000f9
:2028df000000000000000000000000000000000000000000000000000000000000000000d9
:2028ff000000000000000000000000000000000000000000000000000000000000000000b9
:20291f00000000000000000000000000000000000000000000000000000000000000000098
:0d293f00000000000000000000000000008b
:20294c0000000000000000000000000000000000000000000000000000000000000000006b
:20296c0000000000000000000000000000000000000000000000000000000000000000004b
:20298c0000000000000000000000000000000000000000000000000000000000000000002b
:0d29ac00000000000000000000000000001e
:2029b9000002000000000000000000000000000000000000000000000000000000000000fc
:2029d9000000000000000000000000000000000000000000000000000000000000000000de
:2029f9000000000000000000000000000000000000000000000000000000000000000000be
:0d2a190000000000000000000000000000b0
:202a2600000000000000000000000000000000000000000000000000000000000000000090
:202a4600000000000000000000000000000000000000000000000000000000000000000070
:202a6600000000000000000000000000000000000000000000000000000000000000000050
:0d2a86000000000000000000000000000043
:202a93008000000000000000000000000000000000000000000000000000000000000000a3
:202ab300000000000000000000000000000000000000000000000000000000000000000003
:202ad3000000000000000000000000000000000000000000000000000000000000000000e3
:0d2af30000000000000000000000000000d6
:202b00000000000000000000000000000000000000000000000000000000000000000000b5
:202b2000000000000000000000000000000000000000000000000000000000000000000095
:202b4000000000000000000000000000000000000000000000000000000000000000000075
:0d2b60000000000000000000000000000068
:202b6d008000000000000000000000000000000000000000000001000000000000000000c7
:202b8d00000000001000000000000000000000000000000000000000000000000000000018
:202bad00000000000000000000000000000000000000000000000000000000000000000008
:0d2bcd0000000000000010000000000000eb
:202bda000003000000000000000000000000000000000000000000000000000000000000d8
:202bfa000000000000000000000000000000000000000000000000000000000000000000bb
:202c1a0000000000000000000000000000000000000000000000000000000000000000009a
:0d2c3a00000000000000000000000000008d
:202c470000000000000000000000000000000000000000000000000000000000000000006d
:202c670000000000000000000000000000000000000000000000000000000000000100004c
:202c870000000000000000000000000000000000000000000000000000000000000000002d
:0d2ca7000000000000000000000000000020
:202cb400000000000000000000000000000000000000000000000000000000000000000000
:202cd4000000000000000000000000000000000000000000000000000000000000000000e0
:202cf4000000000000000000000000000000000000000000000000000000000000000000c0
:0d2d140000000000000000000000000000b2
:202d2100c002000000000000000000000000000000000000000000000000000000000000d0
:202d4100000000000000000000000000000000000000000000000000000000000000000072
:202d6100000000000000000000000000000000000000000000000000000000000000000052
:0d2d81000000000000000000000000000045
:202d8e00000000000000000000000000000000000000000000000000000000000000000025
:202dae00000000000000000000000000000000000000000000000000000000000000000005
:202dce000000000000000000000000000000000000000000000000000000000000000000e5
:0d2dee0000000000000000000000000000d8
:202dfb000000000000000000000000000000000000000000000000000000000000000000b8
:202e1b00000000000000000000000000000000000000000000000000000000000000000097
:202e3b0000000000003800000000000000000000000000000000000000000000000000003f
:0d2e5b00000000000000000000000000006a
:202e680000000000000000000000000000000000000000000000000000000000000000004a
:202e880000000000000000000000000000000000000000000000000000000000000000002a
:202ea80000000000000000000000000000000000000000000000000000000000000000000a
:0d2ec80000000000000000000000000000fd
:202ed50080000000000000000000000000000000000000000000000000000000000000005d
:202ef5000000000000000000000000000000000000000000000000000000000000000000bd
:202f150000000000000000000000000000100000000000000000000000000000000000008c
:0d2f3500000000000000000000000000008f
:202f420000000000000000000000000000000000000000000000000000000000000000006f
:202f620000000000000000000000000000000000000000000000000000000000000000004f
:202f820000000000000000000000000000000000000000000000000000000000000000002f
:0d2fa2000000000000000000000000000022
:202faf00000000000000000000000000000000000000000000000000000000000000000002
:202fcf000000000000000000000000000000000000000000000000000000000000000000e2
:202fef000000000000000000000000000000000000000000000000000000000000000000c2
:0d300f0000000000000000000000000000b4
:20301c00000000000000000000000000000000000000000000000000000000000000000094
:20303c00000000000000000000000000000000000000000000000000000000000000000074
:20305c00000000000000000000000000000000000000004000000000000000000000000014
:0d307c000000000000000000000000000047
:20308900000200000000000000000000000000000000000000000000000000000000000025
:2030a900000000000000000000000000000000000000000000000000000000000000000007
:2030c9000000000000000000000000000000000000000000000000000000000000000000e7
:0d30e90000000000000000000000000000da
:2030f6000000000000000000000000000000000000000000000000000000000000000000ba
:20311600000000000000000000000000000000000000000000000000000000000000000099
:20313600000000000000000000000000000000000000000000000000000000000000000079
:0d315600000000000000000040000000002c
:2031630000000000000000000000000000000000000000000000000000000000000000004c
:2031830000000000000000000000000000000000000000000000000000000000000000002c
:2031a30000000000000000000000000000000000000000000000000000000000000000000c
:0d31c30000000000000000000000000000ff
:2031d0000000000000000000000000000000000000000000000000000000000000000000df
:2031f0000000000000000000000000000000000000000000000000000000000000000000bf
:2032100000000000000000000000000000000000000000000000000000000000000000009e
:0d3230000000000000000000000000000091
:20323d00000000000000000000000000000000000000000000000000000000000000000071
:20325d00000000000000000000000000000000000000000000000000000000000000000051
:20327d00000000000000000000000000000000000000000000000000000000000000000031
:0d329d000000000000000000000000000024
:2032aa00000100000000000000000000000000000000000000000000000000000000000003
:2032ca000000000000000000000000000000000000000000000000000000000000000000e4
:2032ea000000000000000000000000020000000000000000000000000000000000000000c2
:0d330a0000000000000000000000000000b6
:20331700000000000000000000000000000000000000000000000000000000000000000096
:20333700000000000000000000000000000000000000000000000000000000000000000076
:20335700000000000000000000000004000000000000000000000000000000000000000052
:0d3377000000000000000000000000000049
:20338400000000000000000000000000000000000000000000000000000000000000000029
:2033a400000000000000000000000000000000000000000000000000000000000000000009
:2033c4000000000000000000000000100000000000000000000000000000000000000000d9
:0d33e400000000000000c00000000000001c
:2033f1000000000000000000000000000000000000000000000000000000000000000000bc
:2034110000000000000000000000000000000000000000000000000000000000000000009b
:2034310000000000000000000000000000000000000000000000000000000000000000007b
:0d345100000000000000c0000000000000ae
:20345e0000000000000000000000000000000000000000000000000000000000000000004e
:20347e0000000000000000000000000000000000000000000000000000000000000000002e
:20349e0000000000000000000000000000000000000000000000000000000000000000000e
:0d34be000000000000000000000000000001
:2034cb000000000000000000000000000000000000000000000000000000000000000000e1
:2034eb000000000000000000000000000000000000000000000000000000000000000000c1
:20350b000000000000000000000000000000000000000000000000000000000000000000a0
:0d352b000000000000000000000000000093
:20353800000000000000000000000000000000000000000000000000000000000000000073
:20355800000000000000000000000000000000000000000000000000000000000000000053
:20357800000000000000000000000000000000000000000000000000000100000000000032
:0d359800000000000000000000018f000096
:2035a500000000000000000000000000000000000000000000000000000000000000000006
:2035c5000000000000000000000000000000000000000000000000000000000000000000e6
:2035e500000000000000000000000000000000000000000000000000000080000000000046
:0d360500000000000000000000000f0100a8
:20361200000000000000000000000000000000000000000000000000000000000000000098
:20363200000000000000000000000000000000000000000000000000000000000000000078
:20365200000000000000000000000000000000000000000000000000000000000000000058
:0d367200000000000000000000000000004b
:20367f0000000000000000000000000000000000000000000000000000000000000000002b
:20369f0000000000000000000000000000000000000000000000000000000000000000000b
:2036bf000000000000000000000000000000000000000000000000000000000000000000eb
:0d36df0000000000000000000000000000de
:2036ec000000000000000000000000000000000000000000000000000000000000000000be
:20370c0000000000000000000000000000000000000000000000000000000000000000009d
:20372c0000000000000000000000000000000000000000000000000000000000000000007d
:0d374c000000000000000000000000000070
:2037590000020000000000000000000000000000000000000000000000000000000000004e
:20377900000000000000000000000000000000000000000000000000000000000000000030
:20379900000000000000000000000000000000000000000000000000000000000000000010
:0d37b9000000000000000000000000000003
:2037c6000000000000000000000000000000000000000000000000000000000000000000e3
:2037e6000000000000000000000000000000000000000000000000000000000000000000c3
:203806000000000000000000000000000000000000000000000000000000000000000000a2
:0d3826000000000000000000000000000095
:20383300000000000000000000000000000000000000000000000000000000000000000075
:20385300000000000000000000000000000000000000000000000000000000000000000055
:20387300000000000000000000000000000000000000000000000000000000000000000035
:0d3893000000000000000000000000000028
:2038a000000000000000000000000000000000000000000000000000000000000000000008
:2038c0000000000000000000000000000000000000000000000000000000000000000000e8
:2038e000000000000100000000000000000000000000400000000000000000000000000285
:0d39000000000000000000000000000000ba
:20390d0000000000000000000000000000000000000000000000000000000000000000009a
:20392d0000000000000000000000000000000000000000000000000000000000000000007a
:20394d00000000000000000000000000000000000000000000000000000000000000000159
:0d396d00000000000000000000000000004d
:20397a0000010000000000000000000000000000000000000000000000000000000000002c
:20399a0000000000000000000000000000000000000000000000000000000000000000000d
:2039ba000000000000000000000000000000000000000000000000000000000000000000ed
:0d39da008000000000000000000000000060
:2039e7000000000000000000000000000000000000000000000000000000000000000000c0
:203a070000000000000000000000000000000000000000000000000000000000000000009f
:203a270000000000000000000000000000000000000000000000000000000000000000017e
:0d3a47000000000000000000000000000072
:203a5400000000000000000000000000000000000000000000000000000000000000000052
:203a7400000000000000000000000000000000000000000000000000000000000000000032
:203a9400000000000000000000000010000000000000000000000000000000000000000002
:0d3ab4000000000000000000000000000005
:203ac1000000000000000000000000000000000000000000000000000000000000000000e5
:203ae1000000000000000000000000000000000000000000000000000000000000000000c5
:203b01000000000000000000000000000000000000000000000000000000000000000000a4
:0d3b21000000000000000000000000000097
:203b2e00000000000000000000000000000000000000000000000000000000000000000077
:203b4e00000000000000000000000000000000000000000000000000500000000000000007
:203b6e00000000000000000000000000000000000000000000000000000000000000000037
:0d3b8e00000000000000000000000000002a
:203b9b0000000000000000000000000000000000000000000000000000000000000000000a
:203bbb000000000000000000000000000000000000000000000000000000000000000000ea
:203bdb000000000000000000000000000000000000000000000000000000000000000000ca
:0d3bfb0000000000000000000000000000bd
:203c080000000000000000000000000000000000000000000000000000000000000000009c
:203c280000000000000000000000000000000000000000000000000000000000000000007c
:203c4800000000000000000000000008000000000000000000000000000000000000000054
:0d3c6800000000000000000000000000004f
:203c750000000000000000000000000000000000000000000000000000000000000000002f
:203c950000000000000000000000000000000000000000000000000000000000000000000f
:203cb5000000000000000000000000000000000000000000000000000000000000000000ef
:0d3cd50000000000000000000000000000e2
:203ce2000000000000000000000000000000000000000000000000000000000000000000c2
:203d02000000000000000000000000000000000000000000000000000000000000000000a1
:203d220000000000020000000000000000000000000000000000000000000000000000007f
:0d3d42000000000000000100000000000073
:203d4f00000000000000000000000000000000000000000000000000000000000000000054
:203d6f00000000000000000000000000000000000000000000000000000000000000000034
:203d8f00000000000000000000000000000000000000000000000000000000000000000014
:0d3daf000000000000000000000000000007
:203dbc000000000000000000000000000000000000000000000000000000000000000000e7
:203ddc000000000000000000000000000000000000000000000000000000000000000000c7
:203dfc000000000000000000000000000000000000000000000000000000000000000000a7
:0d3e1c000000000000000000000000000099
:203e2900000200000000000000000000000000000000000000000000000000000000000077
:203e4900000000000000000000000000000000000000000000000000000000000000000059
:203e6900000000000000000000000000000000000000000000000000000000000000000039
:0d3e8900000000000000000000000000002c
:203e960000000000000000000000000000000000000000000000000000000000000000000c
:203eb6000000000000000000000000000000000000000000000000000000000000000000ec
:203ed6000000000000000000000000000000000000000000000000000000000000000000cc
:0d3ef60000000000000000000000000000bf
:203f030000000000000000000000000000000000000000000000000000000000000000009e
:203f230000000000000000000000000000000000000000000000000000000000000000007e
:203f430000000000000000000000000000000000000000000000000000000000000000005e
:0d3f63000000000000000000000000000051
:203f7000000000000000000000000000000000000000000000000000000000000000000031
:203f9000000000000000000000000000000000000000000000000000000000000000000011
:203fb000014c10100000000000000000000000000000000000000000000000000000000084
:0d3fd00000000000000000000000000000e4
:203fdd000000000000000000000000000000000000000000000000000000000000000000c4
:203ffd000000000000000000000000000000000000000000000000000000000000000000a4
:20401d0023ec00000000000000000000000000000000000000000000000000000000000074
:0d403d000000000000001000000000000066
:20404a00000100000000000000000000000000000000000000000000000000000000000055
:20406a00000000000000000000000000000000000000000000000000000000000000000036
:20408a0000ce10100004000000000000000000000000000000000000000000000000000024
:0d40aa000000000000000000000000000009
:2040b7000000000000000000000000000000000000000000000000000000000000000000e9
:2040d7000000000000000000000000000000000000000000000000000000000000000000c9
:2040f700035c00000002000000000000000000000000000000000000000000000000000048
:0d411700000000000000000000000000009b
:2041240000000000000000000000000000000000000000000000000000000000000000007b
:20414400000000000000000000000000000000000000000000000000000000000000000457
:2041640000000000000000000000001000000000000000000000000000000000000000002b
:0d418400000000000000000000000000002e
:2041910000000000000000000000000000000000000000000000000000000000000000000e
:2041b100000000000000000000000000000000000000000000000000000000000000002ec0
:2041d1000000000000000000000000000000000000000000000000000000000000000000ce
:0d41f10000000000000000000000000000c1
:2041fe000000000000000000000000000000000000000000000000000000000000000000a1
:20421e00000000000000000000000000000000000000000000000000000000000000000080
:20423e00000000000000000000000000000000000000000000000000000000000000000060
:0d425e000000000000000000000000000053
:20426b00000000000000000000000000000000000000000000000000000000000000000033
:20428b00000000000000000000000000000000000000000000000000000000000000000013
:2042ab000000000000000000000000000000000000000000000000000000000000000000f3
:0d42cb0000000000000000000000000000e6
:2042d8000000000000000000000000000000000000000000000000000000000000000000c6
:2042f8000000000000000000000000000000000000000000000000000000000000000000a6
:20431800300000000000000000000000000000000000000000000000000000000000000055
:0d4338000000000000000000000000000078
:20434500000000000000000000000000000000000000000000000000000000000000000058
:20436500000000000000000000000000000000000000000000000000000000000000100028
:20438500400000000040000000000000000000000000040000000000000000000000000490
:0d43a500000000000000010000000000000a
:2043b2000000000000000000000000000000000000000000000000000000000000000000eb
:2043d2000000000000000000000000000000000000000000000000000000000000001000bb
:2043f200000000000040000000000001000000000000040000000000000000000000000066
:0d441200000000000000010000000000009c
:20441f0000000000000000000000000000000000000000000000000000000000000000007d
:20443f0000000000000000000000000000000000000000000000000000000000000000005d
:20445f0000000000000000000000000000000000000000000000000000000000000000003d
:0d447f0040000000000001000000000000ef
:20448c00000000000000000000000000000000000000000000000000000000000000000010
:2044ac000000000000000000000000000000000000000000000000000000000000000000f0
:2044cc000000000000000008628004000000000000000000000000000000000000000000e2
:0d44ec0000000000000000000000000000c3
:2044f9000002000000000000000000000000000000000000000000000000000000000000a1
:20451900000000000000000000000000000000000000000000000000000000000000000082
:204539000000000000000009414001000000000000000000000000000000000000000000d7
:0d4559000000000000000000000000000055
:20456600000000000000000000000000000000000000000000000000000000000000000035
:20458600000000000000000000000000000000000000000000000000000000000000000015
:2045a60000000000000000f000000000000000000000000000000000000000000000000005
:0d45c60000000000000000001000000000d8
:2045d3000000000000000000000000000000000000000000000000000000000000000000c8
:2045f3000000000000000000000000000000000000000000000000000000000000000000a8
:2046130000000000000000a0000000000000000000000200000000000000000000000000e5
:0d463300000000000000000000000000007a
:2046400000000000000000000000000000000000000000000000000000000000000000005a
:2046600000000000000000000000000000000000000000000000000000000000000000003a
:204680007c000000000000000000000000000000000000000000000000000000000000009e
:0d46a000000000000000000000000000000d
:2046ad000000000000000000000000000000000000000000000000000000000000000000ed
:2046cd000000000000000000000000000000000000000000000000000000000000000000cd
:2046ed006c0000000000000000000000000000000000000000000000000000000000000041
:0d470d00000000000000000000000000009f
:20471a0000010000000000000000000000000000000000000000000000000000000000007e
:20473a0000000000000000000000000000000000000000000000000000000000000000005f
:20475a0000000000000000000000000000000000000000000000000000000000000000003f
:0d477a000000000000000000000000000032
:20478700000000000000000000000000000000000000000000000000000000000000000012
:2047a7000000000000000000000000000000000000000000000000000000000000000000f2
:2047c7000000000000000000000000000000000000000000000000000000000000000000d2
:0d47e70000000000000000000000000000c5
:2047f4000000000000000000000000000000000000000000000000000000000000000000a5
:20481400000000000000000000000000000000000000000000000010000000000000000470
:20483400000000000000000000000000000000000000000000000000000000000000000064
:0d4854000000000000000000000000000057
:20486100000000000000000000000000000000000000000000000000000000000000000037
:20488100000000000000000000000000000000000000000000000000000000000000000215
:2048a1000000000000000000000000000000000000000000000000000000000000000000f7
:0d48c10000000000000000000000000000ea
:2048ce000000000000000000000000000000000000000000000000000000000000000000ca
:2048ee000000000000000000000000000000000000000000000000000000000000000000aa
:20490e00000a0a000000000000000000000000000000000000000000000000000000000075
:0d492e00000000000000000000000000007c
:20493b0000000000000000000000000000000000000000000000000000000000000000005c
:20495b00000000000000000000000000000000000000000000000000000000000000002c10
:20497b0000d005000010000000000000000000000000000000000000000000000000000037
:0d499b00000000000000000000000000000f
:2049a8000000000000000000000000000000000000000000000000000000000000000000ef
:2049c80000000000000000000000000000000000000000000000004000000000000000008f
:2049e800034e0103400000000000000000000000000000000000000000000000000000001a
:0d4a080000000000000000000000000000a1
:204a1500000000000000000000000000000000000000000000000000000000000000000081
:204a350000000000000000000000000000000000000000000000000000000000000000243d
:204a550000e000200000000000000000000000000000000000000000000000000000000041
:0d4a75000000000000000000000000000034
:204a8200000000000000000000000000000000000000000000000000000000000000000014
:204aa2000000000000000000000000000000000000000000000000000000000000000000f4
:204ac2000000000000000000000000000000000000000000000000000000000000000000d4
:0d4ae20000000000000000000000000000c7
:204aef000000000000000000000000000000000000000000000000000000000000000000a7
:204b0f00000000000000000000000000000000000000000000000000000000000000000086
:204b2f00000000000000000000000000000000000000000000000000000000000000000066
:0d4b4f000000000000000000000000000059
:204b5c00000000000000000000000000000000000000000000000000000000000000000039
:204b7c00000000000000000000000000000000000000000000000000000000000000000019
:204b9c000000000000000007f480000000030000000000000000000000000000000000007b
:0d4bbc0000000000000000000000000000ec
:204bc90080020000000000000000000000000000000000000000000000000000000000004a
:204be9000000000000000000000000000000000000000000000000000000000000000000ac
:204c09000000000000007083bc0000000004000000000000000000000000000000000000d8
:0d4c2900000000000000000000000000007e
:204c360000000000000000000000000000000000000000000000000000000000000000005e
:204c560000000000000000000000000000000000000000000000000000000000000000003e
:204c760000000000000000cfa400000000000fa200000000000000000000000000000000fa
:0d4c96000000000000000000000000000011
:204ca300800000000000000000000000000000000000000000000000000000000000000071
:204cc3000000000000000000000000000000000000000000000000000000000000000000d1
:204ce3000000000000000003fd000400000024a000000000000000000000000000000004e5
:0d4d030000000000000000000000000000a3
:204d1000000000000000000000000000000000000000000000000100000000000000000082
:204d3000000000000000000000000000000000000000000000000000000000000002000061
:204d50000000000000000080000000000000000000000000000000000000000000000000c3
:0d4d70000000000000000000000000000036
:204d7d00000000000000000000000000000000000000000000000000000000000000000016
:204d9d000000000000000000000000000000000000000000000000000000000000000000f6
:204dbd0000000000000000000000001002c000000000000000000000000000000000000004
:0d4ddd0000000000000000000000000000c9
:204dea000001000000000000000000000000000000000000000000000000000000000000a8
:204e0a00000000000000000000000000000000000000000000000000070000000000000081
:204e2a0000000000000000a1248000000140000000000000000000000000000000000000e2
:0d4e4a00000000000000000000000000005b
:204e570000000000000000000000000000000000000000000000000000000000000000003b
:204e770000000000000000000000000000000000000000000000000000000000000000001b
:204e9700000000000000010b6400000000200000000000000000000000000000000000006b
:0d4eb70000000000000000000000000000ee
:204ec4000000000000000000000000000000000000000000000000000000000000000000ce
:204ee400000000000000000000000000000000000002000000000000000e0000000000009e
:204f040001dcff00000080a7f48000000000000000000000000000000000400000000000d6
:0d4f24000000000000000008000000000078
:204f310000020000000000000000000000000000000000000000000000000000000000005e
:204f5100000000000000000000000000000000000000000000000000000000000000000040
:204f710032eff7200000d00dbc0000000000000000000000000000000000800000000000cf
:0d4f910000000000000000140000000000ff
:204f9e000000000000000000000000000000000000000000000000000000000000000000f3
:204fbe000000000000000000000000000000000000000000000000000000000000000004cf
:204fde0000000000000050d000000000014000000000000000000000000000000000000052
:0d4ffe0000000000000000000000000000a6
:20500b00000000000000000000000000000000000000000000000000000000000000000085
:20502b00000000000000000000000000000000000000000000000000000000000000000065
:20504b0000000000000000a000000000024000000000000000000000000000000000000063
:0d506b000000000000000000000000000038
:20507800000000000000000000000000000000000000000000000000000000000000000018
:205098000000000000000000000000000000000000000000000000000008fb37c0200000de
:2050b80038000000020000a1f800000000000fea00100000000000000000000000000000fc
:0d50d80000000000000000000000000000cb
:2050e5000000000000000000000000000000000000000000000000000000000000000000ab
:2051050000000000000000000000000000000000000000000000000000105fffc00000005c
:20512500240000000118b00dfd0000000000010a0000000000000000000000000000000068
:0d514500000000000000000000000000005d
:2051520000000000000000000000000000000000000000000000000000000000000000003d
:2051720000000000000000000000000000000000000000000000000000000000000000001d
:2051920000000000000000f3ee840000000000000000000000000000000000000000000098
:0d51b20000000000000000000000000000f0
:2051bf000000000000000000000000000000000000000000000000000000000000000000d0
:2051df00000000000000000000000000000000000000000000000000000d000000000000a3
:2051ff000000000000000197f7ec2000000280000000000000000000000000000000000073
:0d521f000000000000000000000000000082
:20522c00000000000000000000000000000000000000000000000000000000000000000062
:20524c0000000000000000000000000000000000000000000000000000000000000800003a
:20526c0004000000220018a000000000004224ef5002000000d60150200000000000000056
:0d528c000000000000000000100000000005
:205299000002000000000000000000000000000000000000000000000000000000000000f3
:2052b9000000000000000000000000000000000000000000000000000000000000000000d5
:2052d90020000000000008000000000000002e0a0000000000b42960000000000000000018
:0d52f90000000000000000000000000000a8
:20530600000000000000000000000000000000000000000000000000000000000000000087
:2053260000000000000000000000000000000000000000000000000000000000000e000059
:2053460001c8cc0038000017338d0000001027ae702b80000a000000000000000000000099
:0d536600000000000000000000000000003a
:2053730000000000000000000000000000000000000000000000000000000000000000001a
:205393000000000000000000000000000000000000000000000000000000000000080000f2
:2053b30030de000020005099f14c00000002af0e2002000010000000000000000000000095
:0d53d30000000000000000000000000000cd
:2053e0000000000000000000000000000000000000000000000000000000000000000000ad
:20540000000000000000000000000000000000000000000000000000000000000000003c50
:20542000015ae440000000093bc500000000000000000008000000000000000000000000dc
:0d544000000000000000000000000000005f
:20544d0000000000000000000000000000000000000000000000000000000000000000003f
:20546d000000000000000000000000000000000000000000000000000000000000000024fb
:20548d00327ada000000000776c40000000000000000000100000000000000000000000037
:0d54ad0000000000000000000000000000f2
:2054ba000001000000000000000000000000000000000000000000000000000000000000d1
:2054da000000000000000000000000000000000000000000000000000000000000000006ac
:2054fa000400000000000199b78d800001e69fc0010000018a00000000000000000000005e
:0d551a000000000000000000000000000084
:20552700000000000000000000000000000000000000000000000000000000000000000064
:20554700000000000000000000000000000000000000000000000000000000000000000c38
:2055670024000000000000f36e8c000000200d050000000d100000000000000000000000c4
:0d5587000000000000000000000000000017
:205594000000000000000000000000000000000000000000000000000000000000000000f7
:2055b4000000000000000000000000000000000000000000000000000000000000000004d3
:2055d40000000000000019e00000000001c024e010a0000000000000000000000000000049
:0d55f40000000000000000000000000000aa
:20560100000000000000000000000000000000000000000000000000000000000000000089
:20562100000000000000000000000000000000000000000000000000000000000000000069
:2056410000000000000000b000000000000015000000000000000000000000000000000084
:0d566100000000000000000000000000003c
:20566e0000000000000000000000000000000000000000000000000000000000000000001c
:20568e000000000000000000000000000000000000000000000000000000000000000000fc
:2056ae00015bd140000058000000000000475fc50080000001debd50000000000000000040
:0d56ce0000000000000000000000000000cf
:2056db000000000000000000000000000000000000000000000000000000000000000000af
:2056fb0000000000000000000000000000000000000000000000000000000000000000008f
:20571b00034af100000000000000000000268d000000000009f83c00400000000000000000
:0d573b000100000000000000000000000060
:20574800000000000000000000000000000000000000000000000000000000000000000041
:2057680000000000000000000000000000000000000000000000000000000000000000160b
:20578800035ef140000001b00000000002003fdb000000000c5fbd58000000000000000022
:0d57a80000000000000000000000000000f4
:2057b5000000000000000000000000000000000000000000000000000000000000000000d4
:2057d500000000000000000000000000000000000000000000000000000000000000000ca8
:2057f500025ab100000000800000000002c25cdf1000000000f43c000000000000000000c8
:0d5815000000000000000000000000000086
:20582200000000000000000000000000000000000000000000000000000000000000000066
:2058420000000000000000000000000000000000000000000000000000000000000c00003a
:205862000400000030005801ebd50400016067ae702b0020010000000000000000000000a3
:0d5882000000000000000000000000000019
:20588f000000000000000000000000000000000000000000000000000000000000000000f9
:2058af000000000000000000000000000000000000000000000000000000000000000000d9
:2058cf00200000000038000bc3c0000002c37f0e2000004008000000000000000000000019
:0d58ef0000000000000000000000000000ac
:2058fc0000000000000000000000000000000000000000000000000000000000000000008c
:20591c00000000000000000000000000000000000002000000000000000000000000000069
:20593c0004000000200000b727300000000000000000000000000000000000000000000019
:0d595c00000000000000000000000000003e
:2059690000020000000000000000000000000000000000000000000000000000000000001c
:205989000000000000000000000000000000000000000000000000000000000000000000fe
:2059a90024000000000000abf00000000002c000000000000b000000000000000000000052
:0d59c90000000000000000000000000000d1
:2059d6000000000000000000000000000000000000000000000000000000000000000000b1
:2059f60000000000000000000000000000000000000000000000000000000000000e00156e
:205a1600045b800038000000000000080140400000000000000000000000000000000000d0
:0d5a36000000000000000c00000000000057
:205a4300000000000000000000000000000000000000000000000000000000000000000043
:205a6300000000000000000000000000000000000000000000000000000000000008000c0f
:205a83003ffc10002000000000000004002240000000000000000000000000000000000032
:0d5aa30000000000000000000000000000f6
:205ab0000000000000000000000000000000000000000000000001000000000000000000d5
:205ad0000000000000000000000000000000000000000000000000000000000000000014a2
:205af00002fe00080000001d3bc500000002800000000000000000000000000000000000ef
:0d5b10000000000000000000000000000088
:205b1d00000000000000000000000000000000000000000000000100000000000000000067
:205b3d00000000000000000000000000000000000000000000000000000000000000000048
:205b5d00256e1000000000d5e6c40000000400000000000d0b0000000000000000000000ea
:0d5b7d00000000000000000000000000001b
:205b8a000001000000000000000000000000000000000000000000000000000000000000fa
:205baa00000000000000000000000000000000000000000000000000000000000000001dbe
:205bca00600000000000180000000000000000000000000000000000000000000000000043
:0d5bea001800000000001000000000000086
:205bf70000000000000000000000000000000000000000000000000000000000000000008e
:205c170000000000000000000000000000000000000000000000000000000000000000026b
:205c370068000000003208000000000001c0000000000000000000000000000000000000ea
:0d5c57000000000000000000000000000040
:205c6400000000000000000000000000000000000000000000000000000000000000000020
:205c84000000000000000000000000000000000000000000000000000000000000000026da
:205ca4000379cc000000000000000000000000000000000000528140000000000000000085
:0d5cc40000000000000000000000000000d3
:205cd1000000000000000000000000000000000000000000000000000000000000000000b3
:205cf10000000000000000000000000000000000000000000000000000000000000000147f
:205d110001e80000000000e000000000000000000000000300080144000000000000000059
:0d5d31000000000000000000000000000065
:205d3e00000000000000000000000000000000000000000000000000000000000000000045
:205d5e00000000000000000000000000000000000000000000000000000000000000000421
:205d7e0078ca8022000080000000000000020000000000000000000000000000000000009f
:0d5d9e0000000000000000000000000000f8
:205dab000000000000000000000000000000000000000000000000000000000000000000d8
:205dcb000000000000000000000000000000000000000000000000000000000000000002b6
:205deb0040c000000000b000000000002000000000000000000000000000000000000000c8
:0d5e0b00000000000000000000000000008a
:205e180000000000000000000000000000000000000000000000000000000000000000006a
:205e38000000000000000000000000008000000000000000000000000000000000000004c6
:205e5800075ea0420000001000000000000007da50000000000000000000000000000000a2
:0d5e7800000000000000000000000000001d
:205e85000000000000000000000000000000000000000000000000000000000000000000fd
:205ea5000000000000000000000000000000000000000000000000000000000000000002db
:205ec5003670520000000080000000000000259a6000000000000000000000000000000026
:0d5ee50000000000000000001000000000a0
:205ef200000000000000000000000000000000000000000000000000000000000000000090
:205f12000000000000000000000000000000000000000000000000000000000000008004eb
:205f3200040000003000000000000000000635ee70280010003200004000000000000000d8
:0d5f52000000000000000000000000000042
:205f5f00000000000000000000000000000000000000000000000000000000000000000022
:205f7f00000000000000000000000000000000000000000000000000000000000000002cd6
:205f9f002000000000380000000000000004170d1000006000542800000000000000000076
:0d5fbf0000000000000000000000000000d5
:205fcc000000000000000000000000000000000000000000000000000000000000000000b5
:205fec00000000000000000000000000000000000000000000000000000000000000001481
:20600c0038000000200000000000008000002ef4240a00000a525010000000000000000090
:0d602c000000000000000000000000000067
:20603900000200000000000000000000000000000000000000000000000000000000000045
:20605900000000000000000000000000000000000000000000000000000000000000000621
:2060790040000000000000e000000000000396e02000000010b75080400000000000000077
:0d60990000000000000000000000000000fa
:2060a6000000000000000000000000000000000000000000000000000000000000000000da
:2060c6000000000000000000000000000000000000000000000000000000000000000000ba
:2060e600005b002038000000000000e000e02dcb5403880000000000000000000000000050
:0d610600000000000000000000000000008c
:2061130000000000000000000000000000000000000000000000000000000000000000006c
:2061330000000000000000000000000000000000000000000000000000000000000000004c
:20615300285e0800200000000000008003602ff5a00a0000000000000000000000000000cd
:0d617300000000000000000000000000001f
:206180000000000000000000000000000000000000000000000000000000000000000000ff
:2061a000000000000000000000000000000000000000000000000000001e000000000000c1
:2061c00000000000100000000000004000422f8e240000080052d0500000000000000000d2
:0d61e00000000000000000000000000000b2
:2061ed00000000000000000000000000000000000000000000000000000000000000000092
:20620d000000000000000000000000000000000000000000000000000d00000000008000e4
:20622d0000000000100000000000004000243eea000000010ebb40804000000000000000eb
:0d624d000000000000000000000000000044
:20625a00000100000000000000000000000000000000000000000000000000000000000023
:20627a000000000000000000000000000000000000000000000000000000572e0800011462
:20629a0020405a000000000000000000014015902400000000000000000000000000000020
:0d62ba0000000000000000000000000000d7
:2062c7000000000000000000000000000000000000000000000000000000000000000000b7
:2062e70000000000000000000000000000000000000000000000000000007aaf40000080ae
:206307000240000000000000000000000023bec00000028000000000000000000000000011
:0d6327000000000000000000000000000069
:20633400000000000000000000000000000000000000000000000000000000000000000049
:20635400000000000000000000000000000000000000000000000008000000000000000021
:206374000000000000058003bc11020000005ee0240000000100000000000000000000004f
:0d63940000000000000000000000000000fc
:2063a1000000000000000000000000000000000000000000000000000000000000000000dc
:2063c1000000000000000000000000000000000000000000000000100000000000000000ac
:2063e100000000000000b0033c14000000036ea810800000080000000000000000000000e8
:0d640100000000000000000000000000008e
:20640e0000000000000000000000000000000000000000000000000000000000000000006e
:20642e0000000000000000000000000000000000000000000000000000000000000000004e
:20644e000178a010000010100000000000e735b00400000000000000000000000000000015
:0d646e000000000000000000000000000021
:20647b00000000000000000000000000000000000000000000000000000000000000000001
:20649b000000000000000000000000000000000000000000000000000700000000000000da
:2064bb000010a000401008f00000000000238eb5800000000e0000000000000000000000d5
:0d64db0000000000000000000000000000b4
:2064e800000000000000000000000000000000000000000000000000000000000000000094
:20650800000000000000000000000000000000000000000000000000000000000000000073
:2065280000000000000001c00000000000e3c1c50400000000000000000000000000000025
:0d6548000000000000000000000000000046
:20655500000000000000000000000000000000000000000000000000000000000000000026
:20657500000000000000000000000000000000000000000000000000050000000000000001
:20659500000000000000d1000000000000633c0a0008000000000000000000000000000064
:0d65b50000000000000000000000000000d9
:2065c2000000000000000000000000000000000000000000000000000000000000000000b9
:2065e200000000000000000000000000000000000000000000000000000000000000000099
:2066020000000000000001cbb815000000e75d90240028200000000000000000000000009f
:0d662200000000000000000000000000006b
:20662f0000000000000000000000000000000000000000000000000000000000000000004b
:20664f00000000000000000000000000000000000000000000000000000000000000000c1f
:20666f000000000000000103c00002000027fec00080005000000000000000000000000090
:0d668f0000000000000000000000000000fe
:20669c000000000000000000000000000000000000000000000000000000000000000000de
:2066bc0000000000000000000000000000000000000000000000000000008794080000009b
:2066dc002a18a020200400a00000000200004000000000000c00000000000000000000008a
:0d66fc000000000000008000000000000011
:2067090000020000000000000000000000000000000000000000000000000000000000006e
:20672900000000000000000000000000000000000000000000000000000014280000000014
:20674900225050000000010000000000000240000000000510000000000000000000000016
:0d6769000000000000000000000000000023
:20677600000000000000000000000000000000000000000000000000000000000000000003
:206796000000000000000000000000000000000000000000000000000000000000000000e3
:2067b60033e10001380000e000000000014024e3c2038800007b80100000000000000000f6
:0d67d600000000000000e081e20000000073
:2067e300000000000000000000000000000000000000000000000000000000000000000096
:20680300000000000000000000000000000000000000000000000000030000000000000072
:206823002eee8100200000000000000002602fd7c2120000003402800000000000000000a6
:0d6843000000000000000000200000000028
:206850000000000000000000000000000000000040000000000001000000000000000000e7
:20687000000000000000000000000000000000000000000000000000000000000002000006
:2068900067de0000340050000000000000028180500080100000000000000000000000003c
:0d68b00000000000000000000000000000db
:2068bd000000000000000000000000000000000000000000000000000000000000000000bb
:2068dd0000000000000000000000000000000000000000000000000000000000000000009b
:2068fd00217f04001000080000000000a0043400a0800020000000000000000000000000a7
:0d691d00000000000000000000000000006d
:20692a0000010000000000000000000000000000000000000000000000000000000000004c
:20694a00000000000000000000000000000000000000000000000000000000000000000429
:20696a0002db8000000018053bd50000600000000000000800839400000000000000000004
:0d698a0002000000000000000600000000f8
:206997000000000000000000000000000000000000000000000000000000000000000000e0
:2069b7000000000000000000000000000000000000000000000000000000000000000002be
:2069d70002ec00000000000941680000000000000000000d0050280000000000000000007b
:0d69f700050000000000000000000000008e
:206a0400000000000000000000000000000000000000000000000000000000000000000072
:206a2400000000000000000000000000000000000000000000000000000000000000000052
:206a4400000e0a000000018b6294022000023cea0000000700000000000000000000000047
:0d6a64000200000000002000000000000003
:206a7100000000000000000000000000000000000000000000000000000000000000000005
:206a91000000000000000000000000000000000000000000000000000000000000000000e5
:206ab1002e40050000200095c2a80000200405000000030000000000000000000000000007
:0d6ad10001000000000000000000000000b7
:206ade00000000000000000000000000000000000000000000000000000000000000000098
:206afe00000000000000000000000000000000000000000000000000000000000000000474
:206b1e003be0a50000000007281500000006818550000000000000000000000000000000f7
:0d6b3e00000000000000000000000000004a
:206b4b0000000000000000000000000000000000000000000000000000000000000000002a
:206b6b0000000000000000000000000000000000000000000000000000000000000000000a
:206b8b0001e00008000000000014000000001c0aa000000000000000000000000000000027
:0d6bab00000000000000000002400000009b
:206bb8000000000000000000000000000000000000000000000000000000000000000000bd
:206bd80000000000000000000000000000000000000000000000000000000000000000009d
:206bf80031488112000250a00000000014068000000000019e000000000000000000000046
:0d6c1800000000000000c0000000000000af
:206c250000000000000000000000000000000000000000000000000000000000000000004f
:206c450000000000000000000000000000000000000000000000000000000000000000240b
:206c65002770c20000040800000000000a420000000000000000000000000000000000005e
:0d6c8500000000000000c000000000000042
:206c92000000000000000000000000000000000000000000000000000000000000000000e2
:206cb2000000000000000000000000000000000000000000000000000000000000000000c2
