:02000000ff00ff
:080002004c6174746963650030
:17000a00694345637562653220323032302e31322e32373934330071
:16002100506172743a2069434534304858344b2d545131343400f9
:1b003700446174653a2044656320313420323032342031313a30393a30350099
:0200520000ffad
:040054007eaa997e69
:02005800510055
:02005a0001059e
:03005c00920020ef
:03005f00620367d2
:0300620072011018
:0300650082000016
:02006800110085
:02006a00010192
:20006c00000000000000000000000000000000000000000000000000000000000000000074
:20008c0000000000080000000000002000000000000000000000000000000000000000002c
:2000ac0000000000000000000000000800000000000000000000000000000000000000002c
:0d00cc00000000000000080000000000001f
:2000d900000000000000000000000000000000000000000000000000000000000000000007
:2000f9000000000000000000000000000000000000000000000000000000000000000000e7
:200119000000000000000000000000000000000000000000000000000000000000000000c6
:0d01390000000000000000000000000000b9
:20014600000000000000000000000000000000000000000000000040000000000000000059
:20016600000000000400f00000000010000000000000000000000000000000000000000075
:20018600000000000000000000000004000000000000000000000000000000000000000154
:0d01a6000000000000000400000000000048
:2001b30000000000000000000000000000000000000000000000000000000000000000002c
:2001d30000000000000000000000000000000000000000000000000000000000000000000c
:2001f3000000000000000000000000000000000000000000000000000000000000000000ec
:0d02130000000000000000000000000000de
:200220000000000000000000000000000000000000000000000000000000000000000000be
:200240000000000008000000300000200000008000000000000000000000000000000000c6
:20026000000000000000000000000008000000200000000000000000000000000000000056
:0d0280000000000000000800000000000069
:20028d00000000000000000000000000000000000000000000000000000000000000000051
:2002ad0000000000000000001000000002c000c0000000000000000000000000000000009f
:2002cd00000000000000000000000000000000100000000000000000000000000000000001
:0d02ed0000000000000000000000300000d4
:2002fa000000000000000000000000000000000000000000000000400001000000000000a3
:20031a000000000000000000000000000000000000000000010000000000000000000000c2
:20033a00000000000000000000000000005000000000000000000000000000000000000053
:0d035a000000000000000000000000000096
:20036700000000000000000000000000000000000000000000000000000000000000000076
:20038700000000000000000000000000000000000000000000000000000000000000000056
:2003a7000000000000000000000000000080000000000000000000000000000000000002b4
:0d03c7000000000000000000000000000029
:2003d400000000000000000000000000000000000000000000000000000100000000000008
:2003f4000000000000000000000000000000000000000000000000000000000000000000e9
:200414000000000000000000000000000000000000000000000000000000000000000000c8
:0d04340000000400000000000000000000b7
:2004410000000000000000000000000000000000000000000000000000000000000000009b
:2004610000000000000000000000000000000000000000000000000000000000000000007b
:2004810000000000000000000000000000000000000000000000000000000000000000005b
:0d04a100000000000000000000000000004e
:2004ae0000000000000000000000000000000000000000000000000000000000000000002e
:2004ce0000000000000000000000000000000000000000000000000000000000000000000e
:2004ee000000000000000000000000000000000000000000000000000000000000000000ee
:0d050e0000000000000000000000000000e0
:20051b000000000000000000000000000000000000000000000000000000000000000000c0
:20053b000000000000000000000000000000000000000000000000000000000000000000a0
:20055b00000000000000000000000000000000000000000000000000000000000000000080
:0d057b000000000000000000000000000073
:20058800000000000000000000000000000000000000000000000000000000000000000053
:2005a8000000000000000000000000000000000000004000000000000000000000000000f3
:2005c800000000000000000000000000000000000000000000000000000000000000000013
:0d05e80000000000000000003000000000d6
:2005f5000000000000000000000000000000000000000000000000400000000000000000a6
:20061500000000000000000000000000000000000000400000000000000000000000000085
:200635000000000000000000000000000000000000000000000000000000000000000000a5
:0d0655000000000000000000000000000098
:20066200000000000000000000000000000000000000000000000000000000000000000078
:20068200000000000000000000000000000000000000000000000000000000000000000058
:2006a200000000000000000000000000000000000000000000000000000000000000000038
:0d06c200000000000000000000100000001b
:2006cf00000000000000000000000000000000000000000000000000000400000000000007
:2006ef000000000000000000000000000000000000000000000000000000000000000000eb
:20070f000000000000000000000000000000000000000000000000000000000002000000c8
:0d072f0000000000000000000000000000bd
:20073c0000000000000000000000000000000000000000000000000000000000000000009d
:20075c0000000000000000000000000000000000000000000000000000000000000000007d
:20077c0000000000000000000000000000000000000000000000000000000000000000005d
:0d079c000000000000000000000000000050
:2007a900000000000000000000000000000000000000000000000000000000000000000030
:2007c900000000000000000000000000000000000000000000000000000000000000000010
:2007e9000000000000000000000000000000000000000000000000000000000000000000f0
:0d08090000000000000000000000000000e2
:200816000000000000000000000000000000000000000000000000000000000000000000c2
:200836000000000000000000000000000000000000000000000000000000000000000000a2
:20085600000000000000000000000000000000000000000000000000010000000000000081
:0d0876000000000000001000000000000065
:20088300000000000000000000000000000000000000000000000000000000000000000055
:2008a300000000000000000000000000000000000000000000000000000000000000000035
:2008c300000000000000000000000000000000000000000000000000010000000000000014
:0d08e30000000000000010000000000000f8
:2008f0000000000000000000000000000000000000000000000000000000000000000000e8
:200910000000000000000000000000000000000000000000000000000000000000000000c7
:200930000000000004000000000000000000000000000000000000000000000000000000a3
:0d095000000000000000000000000000009a
:20095d0000000000000000000000000000000000000000000000000000000000000000007a
:20097d0000000000000000000000000000000000000000000000000000000000000000005a
:20099d0000000000000000000000000000000000000000000000000000000000000000003a
:0d09bd00000000000000000000000000002d
:2009ca0000000000000000000000000000000000000000000000010000000000000000000c
:2009ea000000000000000000000000000000000000000000000000000000000000000000ed
:200a0a000000000000000000000000000000000000000000000000000000000000000000cc
:0d0a2a0000000000000000000000000000bf
:200a370000000000000000000000000000000000000000000000010000000000000000009e
:200a570000000000000000000000000000000000000000000000000000000000000000007f
:200a770000000000000000000000000000000000000000000000000000000000000000005f
:0d0a97000000000000000000000000000052
:200aa400000000000000000000000000000000000000000000000000000000000000000032
:200ac400000000000000000000000000000000000000000000000000000000000000000012
:200ae4000000000000000000000000000000000000000000000000000000000000000000f2
:0d0b040000000000000000000000000000e4
:200b11000000000000000000000000000000000000000000000000000000000000000000c4
:200b31000000000000000000000000000000000000000000000000000000000000000000a4
:200b5100000000000000000000000000000000000000000000000000000000000000000084
:0d0b71000000000000000000000000000077
:200b7e00000000000000000000000000000000001000000000000000000000000000000047
:200b9e00000000000000000000000000000000000000000000000000000000000000000037
:200bbe00000000000000000000000000000000000000000000000000000000000000000017
:0d0bde00000000000000000000000000000a
:200beb000000000000000000000000000000000020000000000000000000000000000000ca
:200c0b000000000000000000000000000000000000000000000000000000000000000000c9
:200c2b000000000000000000000000000000000000000000000000000000000000000000a9
:0d0c4b00000000000000000000000000009c
:200c5800060000000000000000000000000000000000000000000000000000000000000076
:200c780000000000000000000000000000000000000000000000000000000000000000005c
:200c980000000000000000000000000000000000000000000000000000000000000000003c
:0d0cb800000000000000000000000000002f
:200cc50000000000000000000000000000000000000000000000000000000000000000000f
:200ce5000000000000000000000000000000000000000000000000000000000000000000ef
:200d05000000000000000000000000000000000000000000000000000000000000000000ce
:0d0d250000000000000000000000000000c1
:200d32000000000000000000000000000000000000000000000000000000000000000000a1
:200d5200000000000000000000000000000000000000000000000000000000000000000081
:200d7200000000000000000000000000000000000000000000000000000000000000000061
:0d0d92000000000000000000000000000054
:200d9f00000000000000000000000000000000000000000000000000010000000000000033
:200dbf00000000000000000000000000000000000000000000000000000000000000000014
:200ddf000000000000000000000000000000000000000000000000000000000000000000f4
:0d0dff0000000000000000000000000000e7
:200e0c000000000000000000000000000000000000000000000000000000000000000000c6
:200e2c000000000000000000000000000000000000000000000000000000000000000000a6
:200e4c00000000000000000000000000000000000000000000000000000000000000000086
:0d0e6c000000000000000000000000000079
:200e7900000000000000000000000000000000000000000000000000000000000000000059
:200e9900000000000000000000000000000000000000000000000000000000000000000039
:200eb900000000000000000000000000000000000000000000000000000000000000000019
:0d0ed900000000000000000000000000000c
:200ee6000000000000000000000000000000000000000000000000000000000000000000ec
:200f06000000000000000000000000000000000000000000000000000000000000000000cb
:200f26000000000000000000000000000000000000000000000000000100000000000000aa
:0d0f4600000000000000100000000000008e
:200f530000000000000000000000000000000000000000000000000000000000000000007e
:200f730000000000000000000000000000000000000000000000000000000000000000005e
:200f930000000000000000000000000000000000000000000000000001000000000000003d
:0d0fb3000000000000001000000000000021
:200fc000000000000000000000000000000000000000000000000000000000000000000011
:200fe0000000000000000000000000000000000000000000000000000000000000000000f1
:201000000000000000000000000000000000000000000000000000000000000000000000d0
:0d10200000000000000000000000000000c3
:20102d000000000000000000000000000000000000000000000000000000000000000000a3
:20104d00000000000000000000000000000000000000000000000000000000000000000083
:20106d00000000000000000000000000000000000000000000000000000000000000000063
:0d108d000000000000000000000000000056
:20109a00000000000000000000000000000000002000000000000100000000000000000015
:2010ba00000000000000000000000000000000000000000000000000000000000000000016
:2010da000000000000000000000000000000000000000000000000000000000000000000f6
:0d10fa0000000000000000000000000000e9
:201107000000000000000000000000000000000010000000000001000000000000000000b7
:201127000000000000000000000000000000000000000000000000000000000000000000a8
:20114700000000000000000000000000000000000000000000000000000000000000000088
:0d116700000000000000000000000000007b
:2011740000000000000000000000000000000000000000000000000000000000000000005b
:2011940000000000000000000000000000000000000000000000000000000000000000003b
:2011b40000000000000000000000000000000000000000000000000000000000000000001b
:0d11d400000000000000000000000000000e
:2011e1000000000000000000000000000000000000000000000000000000000000000000ee
:201201000000000000000000000000000000000000000000000000000000000000000000cd
:201221000000000000000000000000000000000000000000000000000000000000000000ad
:0d12410000000000000000000000000000a0
:20124e00000000000000000000000000000000000000000000000000000000000000000080
:20126e00000000000000000000000000000000000000000000000000000000000000000060
:20128e00000000000000000000000000000000000000000000000000000000000000000040
:0d12ae000000000000000000000000000033
:2012bb00000000000000000000000000000000000000000000000000000000000000000013
:2012db000000000000000000000000000000000000000000000000000000000000000000f3
:2012fb000000000000000000000000000000000000000000000000000000000000000000d3
:0d131b0000000000000000000000000000c5
:201328000000000000000000000000000000000000000000000000000000000000000000a5
:20134800000000000000000000000000000000000000000000000000000000000000000085
:20136800000000000000000000000000000000000000000000000000000000000000000065
:0d1388000000000000000000000000000058
:20139500000000000000000000000000000000000000000000000000000000000000000038
:2013b500000000000000000000000000000000000000000000000000000000000000000018
:2013d5000000000000000000000000000000000000000000000000000000000000000000f8
:0d13f50000000000000000000000000000eb
:201402000000000000000000000000000000000000000000000000000000000000000000ca
:201422000000000000000000000000000000000000000000000000000000000000000000aa
:2014420000000000000000000000000000000000000000000000000000000000000000008a
:0d146200000000000000000000000000007d
:20146f0000000000000000000000000000000000000000000000000001000000000000005c
:20148f0000000000000000000000000000000000000000000000000000000000000000003d
:2014af0000000000000000000000000000000000000000000000000000000000000000001d
:0d14cf000000000000000000000000000010
:2014dc000000000000000000000000000000000000000000000000000000000000000000f0
:2014fc000000000000000000000000000000000000000000000000000000000000000000d0
:20151c000000000000000000000000000000000000000000000000000000000000000000af
:0d153c0000000000000000000000000000a2
:20154900000000000000000000000000000000000000000000000000000000000000000082
:20156900000000000000000000000000000000000000000000000000000000000000000062
:20158900000000000000000000000000000000000000000000000000000a00000000000038
:0d15a9000000000000000000000000000035
:2015b600000000000000000000000000000000000000000000000080000000000000000095
:2015d6000000000000000000000000000000000000000000000000000000000000000000f5
:2015f6000000000000000000000000000000000000000000000000000100000000000000d4
:0d16160000000000000000000000000000c7
:201623000000000000000000000000000000000000000000000000000000000000000000a7
:20164300000000000000000000000000000000000000000000000000000000000000000087
:20166300000000000000000000000000000000000000000000000000010000000000000066
:0d168300000000000000000000000000005a
:2016900000000000000000000000000000000000000000000000000000000000000000003a
:2016b00000000000000000000000000000000000000000000000000000000000000000001a
:2016d0000000000000000000000000000000000000000000000000000000000000000000fa
:0d16f00000000000000000000000000000ed
:2016fd000000000000000000000000000000000000000000000000000000000000000000cd
:20171d0000000000006000000000000000000000000000000000000000000000000000004c
:20173d0000000000000000000000000000000000000000000000000000000000000000008c
:0d175d00000000000000000000000000007f
:20176a0000000000000000000000000000000000000000000000000000000000000000005f
:20178a0000000000000000000000000000000000000000000000000000000000000000003f
:2017aa0000000000000000000000000000000000000000000000000000000000000000001f
:0d17ca000000000000000000000000000012
:2017d7000000000000000000000000000000000000000000000000000000000000000000f2
:2017f7000000000000000000000000000000000000000000000000000000000000000000d2
:201817000000000000000000000000000000000000000000000000000000000000000000b1
:0d18370000000000000000000000000000a4
:20184400000000000000000000000000000000000000000000000000000000000000000084
:20186400000000000000000000000000000000000000000000000000000000000000000064
:20188400000000000000000000000000000000000000000000000000000000000000000044
:0d18a4000000000000000000000000000037
:2018b100000000000000000000000000000000000000000000000000000000000000000017
:2018d1000000000000000000000000000000000000000000000000000000000000000000f7
:2018f1000000000000000000000000000000000000000000000000000000000000000000d7
:0d19110000000000000000000000000000c9
:20191e00000000000000000000000000000000001000000000000000000000000000000099
:20193e00000000000000000000000000000000000000000000000000000000000000000089
:20195e00000000000000000000000000000000000000000000000000000000000000000069
:0d197e00000000000000000000000000005c
:20198b0000000000000000000000000000000000200000000000000000000000000000001c
:2019ab0000000000000000000000000000000000000000000000000000000000000000001c
:2019cb000000000000000000000000000000000000000000000000000000000000000000fc
:0d19eb0000000000000000000000000000ef
:2019f8000600000000000000000000000000000000000000000000000000000000000000c9
:201a18000000000000000000000000000000000000000000000000000000000000000000ae
:201a380000000000000000000000000000000000000000000000000000000000000000048a
:0d1a58000000000000000000000000000081
:201a6500000000000000000000000000000000000000000000000000000000000000000061
:201a8500000000000000000000000000000000000000000000000000000000000000000041
:201aa500000000000000000000000000000000000000000000000000000000000000000021
:0d1ac5000000000000000000000000000014
:201ad2000000000000000000000000000000000000000000000000000000000000000000f4
:201af2000000000000000000000000000000000000000000000000000000000000000000d4
:201b12000000000000000000000000000000000000000000000000000000000000000000b3
:0d1b320000000000000000000000000000a6
:201b3f00000000000000000000000000000000000000000000000000010000000000000085
:201b5f00000000000000000000000000000000000000000000000000000000000000000066
:201b7f00000000000000000000000000000000000000000000000000000000000000000046
:0d1b9f000000000000000000000000000039
:201bac00000000000000000000000000000000000000000000000000000000000000000019
:201bcc000000000000000000000000000000000000000000000000000000000000000000f9
:201bec000000000000000000000000000000000000000000000000000000000000000000d9
:0d1c0c0000000000000000000000000000cb
:201c190080000000000000000000000000000000000000000000000000000000000000002b
:201c390000000000000000000000000000000000000000000000000000000000000000008b
:201c590000000000000000000000000000000000000000000000000000000000000000006b
:0d1c7900000000000000000000000000005e
:201c860000000000000000000000000000000000000000000000000000000000000000003e
:201ca60000000000000000000000000000000000000000000000000000000000000000001e
:201cc6000000000000000000000000000000000000000000000000000100000000000000fd
:0d1ce60000000000000010000000000000e1
:201cf300800000000000000000000000000000000000000000000000000000000000000051
:201d13000000000000000000000000000000000000000000000000000000000000000000b0
:201d330000000000000000000000000000000000000000000000000001000000000000008f
:0d1d53000000000000001000000000000073
:201d6000000000000000000000000000000000000000000000000000000000000000000063
:201d8000000000000000000000000000000000000000000000000000000000000000000043
:201da000000000000000000000000000000000000000000000000000000000000000000023
:0d1dc0000000000000000000000000000016
:201dcd000000000000000000000000000000000000000000000000000000000000000000f6
:201ded000000000000000000000000000000000000000000000000000000000000000000d6
:201e0d000000000000000000000000000000000000000000000000000000000000000000b5
:0d1e2d0000000000000000000000000000a8
:201e3a00002b0000000000000000000000000000000000000000010000000000000000005c
:201e5a00000000000000000000000000000000000000000000000000000000000000000068
:201e7a00000000000000000000000000000000000000000000000000000000000000000048
:0d1e9a00000000000000100000000000002b
:201ea700006c000000000000000000000000000000000000000001000000000000000000ae
:201ec7000000000000000000000000000000000000000000000000000000000000000000fb
:201ee7000000000000000000000000100000000000000000000000000000000000000000cb
:0d1f070000000000000010000000000000bd
:201f14000000000000000000000000000000000000000000000000000100000000000000ac
:201f340000000000000000000000000000000000000000000000000000000000000000008d
:201f540000000000000000000000000000000000000000000000000000000000000000006d
:0d1f74000000000000000000000000000060
:201f81004002000000000000000000000000000000000000000000000000000000000000fe
:201fa100000000000000000000000000000000000000000000000000000000000000000020
:201fc100000000000000000000000000000000000000000000000000000000000000000000
:0d1fe10000000000000000000000000000f3
:201fee0049000000000000000000000000000000100000000000000000000000000000007a
:20200e000000000000000000000000000000000000000000000000000000000000000000b2
:20202e00000000000000000000000000000000000000000000000000000000000000000092
:0d204e000000000000000000000000000085
:20205b000f0000000000000000000000000000002000000000000000000000000000000036
:20207b00000000000000000000000000000000000000000000000000000000000000000045
:20209b00000000000000000000000000000000000000000000000000000000000000000025
:0d20bb000000000000000000000000000018
:2020c8000600000000000000000000000000000000000000000000000000000000000000f2
:2020e8000000000000000000000000000000000000020000000000000000000000000000d6
:202108000000000000000000000000000000000000000000000000000000000000000000b7
:0d21280000000000000000000000000000aa
:2021350080000000000000000000000000000000000000000000000000000000000000000a
:2021550000000000000000000000000000000000000000000000000000000000000000006a
:2021750000000000000000000000000000000000000000000000000000000000000000004a
:0d219500000000000000000000000000003d
:2021a20080000000000000000000000000000000000000000000000000000000000000009d
:2021c2000000000000000000000000000000000000000000000000000000000000000000fd
:2021e2000000000000000000000000000000000000000000000000000000000000000000dd
:0d22020000000000000000000000000000cf
:20220f000000000000000000000000000000000000000000000000000100000000000000ae
:20222f0000000000000000000000000000000000000000000000000000000000000000008f
:20224f0000000000000200000000000000000000000000000000000000000000000000006d
:0d226f000000000000000000000000000062
:20227c00400000000000000000000000000000000000000000000000000000000000000002
:20229c00000000000000000000000000000000000000000000000000000000000000000022
:2022bc00000000000000000000000000000000000000000000000000000000000000000002
:0d22dc0000000000000000000000000000f5
:2022e900800000000000000000000000000000000000000000000000000000000000000055
:202309000000000000000000000000000000000000000000000000000000000000000000b4
:20232900000000000000000000000000000000000000000000000000000000000000000094
:0d2349000000000000000000000000000087
:202356000068000000000000000000000000000000000000000000020000000000000000fd
:20237600000000000000000000000000000000000000000000000000000000000000000047
:20239600000000000000000000000000000000000000000000000000010000000000000026
:0d23b600000000000000100000000000000a
:2023c30080000000000000000000000000000000000000000000000000000000000000007a
:2023e3000000000000000000000000000000000000000000000000000000000000000000da
:202403000000000000000000000000000000000000000000000000000100000000000000b8
:0d242300000000000000100000000000009c
:20243000857000000000000000000000000000000000000000000000000000000000000097
:2024500000000000000000000000000000000000000000000000000000000000000000006c
:2024700000000000000000000000000000000000000000000000000000000000000000004c
:0d249000000000000000000000000000003f
:20249d000a40000000000000000000000000000000000000000000000000000000000000d5
:2024bd000000000000000000000000000000000000000000000000000000000000000000ff
:2024dd000000000000000000000000000000000000000000000000000000000000000000df
:0d24fd0000000000000000000000000000d2
:20250a0010020000000000000000000000000000000000000000010000000000000000009e
:20252a00000000000000000000000000000000000001000000000000000000000000000090
:20254a00000000000000000000000010000000000000000000000000000000000000000061
:0d256a000000000000000000000000000064
:20257700100000000000000000000000000000000000000000000100000000000000000033
:20259700000000000000000000000000000000000000000000000000000000000000000024
:2025b7000000000000000000000000100000000000000000000000000000000000000000f4
:0d25d70000000000000000000000000000f7
:2025e400007000000000000000000000000000000000000000000000010000000000000066
:20260400000000002000000000000000000000000000000000000000000000000000000096
:20262400000000000000000000000000000000000000000000000000000000000000000096
:0d2644000000000000000000000000000089
:20265100400200000000000000000000000000000000000000000000000000000000000027
:20267100000000000000000000000000000000000000000000000000000000000000000049
:20269100000000000000000000000000000000000000000000000000000000000000000029
:0d26b100000000000000000000000000001c
:2026be004300000000000000000000000000000010000000000000000000000000000000a9
:2026de000000000000000000000000000000000000000000000000000000000000000000dc
:2026fe000000000000000000000000000000000000000000000000000000000000000000bc
:0d271e0000000000000000000000000000ae
:20272b000e0000000000000000000000000000002000000000000000000000000000000060
:20274b0000000000000000000000000000000000000000000000000000000000000000006e
:20276b0000000000000000000000000000000000000000000000000000000000000000004e
:0d278b000000000000000000000000000041
:202798000670000000000000000000000000000000000000000000000000000000000000ab
:2027b8000000000000000000000000000000000000000000000000000000000000020000ff
:2027d8000000000000000000000000000000000000000000000000000000000000000000e1
:0d27f80000000000000000000000000000d4
:202805008040000000000000000000000000000000000000000000000000000000000000f3
:20282500000000000000000000000000000000000000000000000000000000000000000093
:20284500000000000000000000000000000000000000000000000000000000000000000073
:0d2865000000000000000000000000000066
:202872008000000000000000000000000000000000000000000000000000000000000000c6
:20289200000000000000000000000000000000000000000000000000000000000000000026
:2028b200000000000000000000000000000000000000000000000000000000000000000006
:0d28d20000000000000000000000000000f9
:2028df000000000000000000000000000000000000000000000000000100000000000000d8
:2028ff000000000000000000000000000000000000000000000000100000000000000000a9
:20291f00000000000000000000000000000000000000002000000000000000000000000078
:0d293f00000000000000000000000000008b
:20294c004070000000000000000000000000000000000000000000000000000000000000bb
:20296c0000000000000000000000000000000000000000000000000000000000000000004b
:20298c0000000000000000000000002000000000000000000000000000000000000000000b
:0d29ac00000000000000100000000000000e
:2029b9000000000000000000000000000000000000000000000000000000000000000000fe
:2029d9000000000000000000000000000000000000000000000000000000000000000000de
:2029f9000000000000000000000000000000000000000000000000000000000000000000be
:0d2a190000000000000000000000000000b0
:202a260080000000000000000000000000000000000000000000000200000000000000000e
:202a4600000000000000000000000000000000000000000000000000000000000000000070
:202a660000000000000000000000000000000000000000000000000001000000000000004f
:0d2a86000000000000001000000000000033
:202a93008000000000000000000000000000000000000000000000000000000000000000a3
:202ab300000000000000000000000003800000000000000000000000000000000000000080
:202ad3000000000000000000000000000000000000000000000000000000000000000000e3
:0d2af30000000000000010000000000000c6
:202b00008f0000000000000000000000000000000000000000000000000000000000000026
:202b2000000000000000000000000000000000000002000000000000000000000000000093
:202b4000000000000000000000000000000000000000000000000000000000000000000075
:0d2b60000000000000000000000000000068
:202b6d000b000000000000000000000000000000000000000000000000000000000000003d
:202b8d00000000000000000000000000000000000001000000000000000000000000000027
:202bad00000000000000000000000000000000000000000000000000000000000000000008
:0d2bcd0000000000000000000000000000fb
:202bda000006000000000000000000000000000000000000000001000000000000000000d4
:202bfa000000000000000000000000000000000000000000000000000000000000010000ba
:202c1a0000000000000000000000000000000000000000000000000000000000000000009a
:0d2c3a00000000000000000000000000008d
:202c4700002800000000000000000000000000000000000000000100000000000000000044
:202c670000000000000000000000000000000000000000000000000000000000000100004c
:202c870000000000000000000000000000000000000000000000000000000000000000002d
:0d2ca7000000000000000000000000000020
:202cb400000000000000000000000000000000000000000000000000000000000000000000
:202cd4000000000000000000000000000000000000000000000000000000000000000000e0
:202cf4000000000000000000000000000000000000000000000000000000000000000000c0
:0d2d140000000000000000000000000000b2
:202d2100400200000000000000000000000000000000000000000000000000000000000050
:202d4100000000000000000000000000000000000000000000000000000000000000000072
:202d6100000000000000000000000000000000000000000000000000000000000000000052
:0d2d81000000000000000000000000000045
:202d8e004100000000000000000000000000000000000000000000000000000000000000e4
:202dae00000000000000000000000000000000000000000000000000000000000000000005
:202dce000000000000000000000000000000000000000000000000000000010000000000e4
:0d2dee0000000000000000000000000000d8
:202dfb000b000000000000000000000000000000001000000000000000000000000000009d
:202e1b00000000000000000000000000000000000000000000000000000000000000000097
:202e3b00000000000000000000000000000000000000000000000000000000000000000077
:0d2e5b00000000000000000000000000006a
:202e6800003800000000000000000000000000000000000000000000000000000000000012
:202e8800000000000000000000000000000000000002000000000000000000000000000028
:202ea80000000000000000000000000000000000000000000000000000000000000000000a
:0d2ec80000000000000000000000000000fd
:202ed50080000000000000000000000000000000000000000000000000000000000000005d
:202ef5000000000000000000000000000000000000000000000000000000000000000000bd
:202f150000000000000000000000000000000000000000000000000000000000000000009c
:0d2f3500000000000000000000000000008f
:202f42008004000000000000000000000000000000000000000000000000000000000000eb
:202f620000000000000000000000000000000000000000000000000000000000000000004f
:202f820000000000000000000000000000000000000000000000000000000000000000002f
:0d2fa2000000000000000000000000000022
:202faf000028000000000000000000000000000000000000000000000000000000000000da
:202fcf000000000000000000000000000000000000000000000000000000000000000000e2
:202fef000000000000020000000000000000000000000000000000000000000000000000c0
:0d300f0008000000000000000000000000ac
:20301c00000000000000000000000000000000000000000000000040000000000000000054
:20303c00000000000000000000000000000000000000000000000000000000000000000074
:20305c00000000000000000000000000000000000000000000000000000000000000000054
:0d307c000000000000000000000000000047
:20308900000000000000000000000000000000000000000000000020000000000000000007
:2030a900000000000000000000000000000e000000000000000000000000000000000000f9
:2030c9000000000000000000000000000000000000000000000000000000000000000000e7
:0d30e90000000000000000000000000000da
:2030f6000000000000000000000000000000000000000000000000000000000000000000ba
:20311600000000000000000000000000000000000000000000000000000000000000000099
:20313600000000000000000000000000000000000000000000000000000000000000000079
:0d315600000000000000000000000000006c
:2031630000000000000000000000000000000000000000000000000000000000000000004c
:2031830000000000000000000000000000000000000000000000000000000000000000002c
:2031a30000000000000000e00000000000000000000000000000000000000000000000002c
:0d31c30000000000000000000000000000ff
:2031d0000000000000000000000000000000000000000000000001000000000000000000de
:2031f0000000000000000000000000000000000000000000000000000000000000000000bf
:2032100000000000040000000000000000000000000000000000000000000000000000009a
:0d3230000000000000000000000000000091
:20323d00000000000000000000000000000000000000000000000100000000000000000070
:20325d00000000000000000000000000000000000000000000000000000000000000000051
:20327d00000000000000000000000000000000000000000000000000000000000000000031
:0d329d000000000000000000000000000024
:2032aa00000000000000000000000000000000000000000000000000000000000000000004
:2032ca00000000000000000000000000001ada294440000000000000000000000000000043
:2032ea000000000000000000000000000000000000000000000000000000000000000000c4
:0d330a0000000000000000000000000000b6
:20331700000000000000000000000000000000000000000000000000000000000000000096
:2033370000000000000000000000000000107c154000000000000000000000000000000095
:20335700000000000000000000000000000000000000000000000000000000000000000056
:0d3377000000000000000000000000000049
:20338400000000000000000000000000000000000000000000000000010000000000000028
:2033a4000000000000100000000000000000000000000000000000000000000000000000f9
:2033c4000000000000003800000000000000000000000000000000000000000000000000b1
:0d33e40000000000000000000000000000dc
:2033f1000000000000000000000000000000000000000000000000000000000000000000bc
:2034110000000000000000000000000000000000000000000000000000000000000000009b
:2034310000000000000000000000000000000000000000000000000000000000000000007b
:0d345100000000000000000000000000006e
:20345e0000000000000000000000000000000000000000000000000000000000000000004e
:20347e000000000000000000000000000780000000000000000000000000000000000000a7
:20349e0000000000000000000000000000000000000000000000000000000000000000000e
:0d34be000000000000000000000000000001
:2034cb000000000000000000000000000000000000000000000000000000000000000000e1
:2034eb000000000000000000000000000000000000000000000000000000000000000000c1
:20350b000000000000000000000000000000000000000000000000000000000000000000a0
:0d352b000000000000000000000000000093
:20353800000000000000000000000000000000000000000000000000000000000000000073
:20355800000000000000000000000000000000000000000000000000000000000000000053
:20357800000000000000000b3a80020000000000000000000000000000000000000000006c
:0d3598000000000000000000000000000026
:2035a500000000000000000000000000000000000000000000000000000000000000000006
:2035c5000000000000000000000000000000000000000000000000000000000000000000e6
:2035e50000000000000000e943e800000000000000000000000000000000000000000000b2
:0d36050000000000000000000000000000b8
:20361200000000000000000000000000000000000000000000000000000000000000000098
:203632000000000000000000000000000800820140000000000000000000000000000000ad
:20365200000000000000000000000000000000000000000000000000000000000000000058
:0d367200000000000000000000000000004b
:20367f0000000000000000000000000000000000000000000000000000000000000000002b
:20369f000000000000000000000000000b0034028800000000000000000000000000000042
:2036bf000000000000000000000000100000000000000000000000000000000000000000db
:0d36df0000000000000000000000000000de
:2036ec000600000000000000000000000000000000000000000000000000000000000000b8
:20370c0000000000000000000000000000000000000000000000000000000000000000009d
:20372c0000000000000000000000000000000000000000000000000000000000000000007d
:0d374c000000000000000000000000000070
:20375900000000000000000000000000000000000000000000000000000000000000000050
:20377900000000000000000000000000000000000000000000000000000000000000000030
:20379900000000000000000000000000000000000000000000000000000000000000000010
:0d37b9000000000000000000000000000003
:2037c6000000000000000000000000000000000000000000000000020000000000000000e1
:2037e6000000000000000000000000000000000000000000000000000000000000000000c3
:203806000000000000000000000000000000000000000000000000000100000000000000a1
:0d3826000000000000000000000000000095
:20383300000000000000000000000000000000000000000000000000000000000000000075
:20385300000000000000000000000000000000000000000000000000000000000000000055
:2038730000000000000000000000000000000000000000000e000000000000000000000027
:0d3893000000000000000000000000000028
:2038a000000000000000000000000000000000000000000000000000000000000000000008
:2038c0000000000000000000000000000000000000020000000000000000000000000000e6
:2038e000000000000000000000000000000000000000000000ffa80400000000000000001d
:0d39000000000000000000000000000000ba
:20390d0000000000000000000000000000000000000000000000000000000000000000009a
:20392d0000000000000000000000000000000000000000000000000000000000000000007a
:20394d00000000000000000000000000000000000000000000943e80000000000000000008
:0d396d00000000000000000000000000004d
:20397a0000000000000000000000000000000000000000000000000000000000000000002d
:20399a0000000000000000000000000000000000000000000000000000000000000000000d
:2039ba000000000000000000000000000000000000000000000000000000000000000000ed
:0d39da0000000000000000000000000000e0
:2039e7000000000000000000000000000000000000000000000000000000000000000000c0
:203a070000000000000000000000000000000000000000000000000000000000000000009f
:203a270000000000000000000000000000000000000000000000000000000000000000007f
:0d3a47000000000000000000000000000072
:203a5400000000000000000000000000000000000000000000000000010000000000000051
:203a7400000000000000000000000000000000000000000000000000000000000000000032
:203a9400000000000000000000000000000000000000000000000000000000000000000012
:0d3ab4000000000000000000000000000005
:203ac1000000000000000000000000000000000000000000000000000000000000000000e5
:203ae1000000000000000000000000020000000000000000000000000000000000000000c3
:203b01000000000000000000000000000000000000000000000000000000000000000000a4
:0d3b21000000000000000000000000000097
:203b2e00000000000000000000000000000000000000000000000000000000000000000077
:203b4e00000000000000000000000000000000000000000000000000000000000000000057
:203b6e00000000000000000000000000000000000000000000000000000000000000000037
:0d3b8e00000000000000000000000000002a
:203b9b0000000000000000000000000000000000000000000000000000000000000000000a
:203bbb000000000000000000000000000000000000000000000000000000000000000000ea
:203bdb000000000000000000000000000000000000000000000000000000000000000000ca
:0d3bfb0000000000000000000000000000bd
:203c080002000000000000000000000000000000000000000000000000000000000000009a
:203c280000000000000000000000000000000000000000000000000000000000000000007c
:203c480000000000000000000000000000000000000000000000000000000000000000005c
:0d3c6800000000000000000000000000004f
:203c750000000000000000000000000000000000000000000000000000000000000000002f
:203c950000000000000000000000000000000000000000000000000000000000000000000f
:203cb5000000000000000000000000000000000000000000000000000000000000000000ef
:0d3cd50000000000000000000000000000e2
:203ce2000000000000000000000000000000000000000000000000000000000000000000c2
:203d02000000000000000000000000000000000000000000000000000000000000000000a1
:203d2200000000000000000000000000000000000000000800000000000000000000000079
:0d3d42000000000000000000000000000074
:203d4f00000000000000000000000000000000000000000000000000000000000000000054
:203d6f00000000000000000000000000000000000000000000000000000000000000000034
:203d8f00000000000000000000000000000000000000000b0e0000000000000000000000fb
:0d3daf000000000000000000000000000007
:203dbc000600000000000000000000000000000000000000000000000000000000000000e1
:203ddc00000000000000000000000000000000000000000000000000038093294400000044
:203dfc00000000000000700000000000000000000000000000000000000000000000000037
:0d3e1c000000000000000000000000000099
:203e2900000000000000000000000000000000000000000000000000000000000000000079
:203e4900000000000000000000000000000000000000000000000000008070154000000014
:203e6900000000000020080000000000000000000000000000000000000000000000000011
:0d3e8900000000000000000000000000002c
:203e960000000000000000000000000000000000000000000000000200000000000000000a
:203eb6000000000000000000000000000000000000000000000000000000000000000000ec
:203ed6000000000000200000000000000000000000000000000000000000000000000000ac
:0d3ef6003800000000000000000000000087
:203f030000000000000000000000000000000000000000000000000000000000000000009e
:203f230000000000000000000000000000000000000000000000000000000000000000007e
:203f430000000000000000e00000000000000000000000000000000000000000000000007e
:0d3f63000000000000000000000000000051
:203f7000000000000000000000000000000000000000000000000000000000000000000031
:203f9000000000000000000000000000000000000000000000000000000000000000000011
:203fb00000000000000000096a8002000000000000000000000000000000000000000000fc
:0d3fd00000000000000000000000000000e4
:203fdd000000000000000000000000000000000000000000000000000000000000000000c4
:203ffd000000000000000000000000000000000000000000000000000000000000000000a4
:20401d00000000000000000903e8000000000000000000000000000000000000000000008f
:0d403d000000000000000000000000000076
:20404a00000000000000000000000000000000000000000000000000000000000000000056
:20406a00000000000000000000000000000000000000000000000000000000000000000036
:20408a00000000000000000000000000000000000000000000000000000000000000000016
:0d40aa000000000000000000000000000009
:2040b7001000000000000000000000000000000000000000000000000000000000000000d9
:2040d7000000000000000000000000000000000000000000000000000000000000000000c9
:2040f700000000000000700000000000000000000000000000000000000000000000000039
:0d411700000000000000000000000000009b
:2041240000000000000000000000000000000000000000000000000000000000000000007b
:20414400000000000000000000000000000000000000000000000000070000000000000054
:2041640000000000000000000000000000000000000000000000000000000000000000003b
:0d418400000000000000000000000000002e
:2041910000000000000000000000000000000000000000000000000000000000000000000e
:2041b10000000000000000000000000000000000000000000000000000800000000000006e
:2041d1000000000000000000000000000000000000000000000000000000000000000000ce
:0d41f10000000000000000000000000000c1
:2041fe000000000000000000000000000000000000000000000000000000000000000000a1
:20421e00000000000000000000000000000000000000000000000000000000000000000080
:20423e00000000000000000000000000000000000000000000000000000020300000000010
:0d425e000000000000000000000000000053
:20426b00000000000000000000000000000000000000000000000000000000000000000033
:20428b00000000000000000000000000000000000000000000000000000000000000000013
:2042ab0000000000000000000000000000000000000000000000000000001c0000000000d7
:0d42cb0000000000000001000000000000e5
:2042d8000200000000000000000000000000000000000000000000000000000000000000c4
:2042f8000000000000000000000000000000000000000000000000000000000000000000a6
:20431800000000000000000000000000000000000000000000000000000000000000000085
:0d4338000000000000000000000000000078
:20434500000000000000000000000000000000000000000000000000000000000000000058
:20436500000000000000000000000000000000000000000000000000000000000000000038
:20438500000000000000000000000000000000000000000000000000000000000000000018
:0d43a500000000000000000000000000000b
:2043b2000000000000000000000000000000000000000000000000000000000000000000eb
:2043d2000000000000000000000000000000000000000000000000000100000000000000ca
:2043f20000000000000000000000000000000000000000000000000000000022fef5100086
:0d441200000000000000000000000000009d
:20441f0000000000000000000000000000000000000000000000000000000000000000007d
:20443f000000000000000000000000000000000000000000000000000080000000000000dd
:20445f0000000000000000000000000000000000000000000000000000000002d05000001b
:0d447f000000000000000000000000000030
:20448c00000000000000000000000000000000000000000000000000000000000000000010
:2044ac000000000000000000000000000000000000000000000000000000000000000000f0
:2044cc000000000000000000000000000000000000000000000000000000000000000000d0
:0d44ec0000000000000000000000000000c3
:2044f9000000000000000000000000000000000000000000000000000000000000000000a3
:20451900000000000000000000000000000000000000000000000000000000000000000082
:20453900000000000000000000000000000000000000000000000000000000000000000062
:0d4559000000000000000000000000000055
:20456600000000000000000000000000000000000000000000000000000000000000000035
:20458600000000000000000000000000000000000000000000000000000000000000000015
:2045a6000000000000000000000000000000000000000000000000000100000000000000f4
:0d45c60000000000000000000000000000e8
:2045d3000000000000000000000000000000000000000000000000000000000000000000c8
:2045f3000000000000000000000000000000000000000000000000000000000000000000a8
:20461300000000000000000000000000000000000000000000000000010000000000000086
:0d463300000000000000000000000000007a
:2046400000000000000000000000000000000000000000000000000000000000000000005a
:2046600000000000100000000000000000000000000000000000000000000000000000002a
:2046800000000000000000000000000000000000000000000000000000000000000000001a
:0d46a000000000000000000000000000000d
:2046ad000000000000000000000000000000000000000000000000000000000000000000ed
:2046cd000000000000000000000000000000000000000000000000000000000000000000cd
:2046ed000000000000000000000000000000000000000000000000000000000000000000ad
:0d470d00000000000000000000000000009f
:20471a0000000000000000000000000000000000000000000000000000000000000000007f
:20473a0000000000000000000000000000000000000000000000000000000000000100005e
:20475a0000000000000000000000000000000000000000000000000000000000000000003f
:0d477a000000000000000000000000000032
:20478700000000000000000000000000000000000000000000000000000000000000000012
:2047a7000000000000000000000000000000000000000000000000000000000000010000f1
:2047c7000000000000000000000000000000000000000000000000000000000000000000d2
:0d47e70000000000000000000000000000c5
:2047f4000000000000000000000000000000000000000000000000000000000000000000a5
:20481400000000000000000000000000000000000000000000000000000000000000000084
:20483400000000000000000000000000000000000000000000000000000000000000000064
:0d4854000000000000000000000000000057
:20486100000000000000000000000000000000000000000000000000000000000000000037
:20488100000000000000000000000000000000000000000000000000000000000000000017
:2048a1000000000000100000000000000000000000000000000000000000000000000000e7
:0d48c10000000000000000000000000000ea
:2048ce000000000000000000000000000000000010000000000000000000000000000000ba
:2048ee000000000000000000000000000000000000000000000000000000000000000000aa
:20490e00000000000000000000000000000000000000000000000000000000000000000089
:0d492e00000000000000000000000000007c
:20493b0000000000000000000000000000000000200000000000000000000000000000003c
:20495b0000000000000000000000000000000000000000000000000000000000000000003c
:20497b0000000000000000000000000000000000000000000000000000000000000000001c
:0d499b00000000000000000000000000000f
:2049a8000600000000000000000000000000000000000000000000000000000000000000e9
:2049c8000000000000000000000000000000000000000000000000000000000000000000cf
:2049e80000000000028000000000000000000000000000000000000000000000000000002d
:0d4a080000000000000000000000000000a1
:204a1500000000000000000000000000000000000000000000000000000000000000000081
:204a3500000000000000000000000000000000000000000000000000000000000000000061
:204a5500000000000100000000000000000000000000000000000000000000000000000040
:0d4a75000000000000000000000000000034
:204a8200000000000000000000000000000000000000000000000000000000000000000014
:204aa2000000000000000000000000000000000000000000000000000000000000000000f4
:204ac2000000000000000000000000000000000000000000000000000000000000000000d4
:0d4ae20000000000000000000000000000c7
:204aef000000000000000000000000000000000000000000000000000100000000000000a6
:204b0f00000000000000000000000000000000000000000100000000000000000000000085
:204b2f00000000000000000000000000000000000000000000000000000000000000000066
:0d4b4f000000000000000000000000000059
:204b5c004000000000000000000000000000000000000000000000000000000000000000f9
:204b7c00000000000000000000000000000000000000000000000000000000000000000019
:204b9c000000000000000000000000200000000000000000000000000000000000000000d9
:0d4bbc0000000000000000000000000000ec
:204bc9000000000000000000000000000000000000000000000000000000000000000000cc
:204be9000000000000000000000000000000000000000000000000000000000000000000ac
:204c090000000000000000000000000000000000000001800000000000000000000000000a
:0d4c2900000000000000000000000000007e
:204c36008004000000000000000000000000000000000000000000000000000000000000da
:204c560000000000000000000000000000000000000000000000000000000000000000003e
:204c760000000000000000000000000000000000000000000000000000000000000000001e
:0d4c96008000000000000000000000000091
:204ca300802800000000000000000000000000000000000000000000000000000000000049
:204cc3000000000000000000000000000000000000000000000000000000000000000000d1
:204ce3000000000000000000000000000000000000000000000000000000000000000000b1
:0d4d030000000000000000000000000000a3
:204d10008e00000000000000000000000000000000000000000000000000000000000000f5
:204d3000000000000000000000000000000000000000000000000000000000000000000063
:204d5000000000000000000000000020000000000000000000000000000000000000000023
:0d4d70000000000000000000000000000036
:204d7d000f0000000000000000000000000000000000000000000000000000000000000007
:204d9d000000000010000000000000000000000000010000000000000000000000000000e5
:204dbd000000000000000000000000000000000000000000000000000000000000000000d6
:0d4ddd0000000000000000000000000000c9
:204dea000002000000000000000000000000000000000000000000000000000000000000a7
:204e0a00000000000000000000000000000000000000000000000000000000000000000088
:204e2a00000000000000000000000000000000000000000000000000000000000000000464
:0d4e4a00000000000000000000000000005b
:204e570000000000000000000000000000000000000000000000000000000000000000003b
:204e770000000000000000000000000000000000000000000000000000000000000000001b
:204e97000000000000000000000000000000000000000000000000000000000000000000fb
:0d4eb70002000000000000000000000000ec
:204ec4000000000000000000000000000000000000000000000000000000000000000000ce
:204ee4000000000000000000000000000000000000000000000000000000000000000001ad
:204f040000000000000000000000000000000000000000000000000000000000000000008d
:0d4f24000000000000000000000000000080
:204f31008002000000000000000000000000000000000000000000000000000000000000de
:204f5100000000000000000000000000000000000000000000000000000000000000000040
:204f7100000000000000000000000000000000000000000000000000000000000000000020
:0d4f91000000000000000000000000000013
:204f9e004c04000000000000000000000000000000000000000000000000000000000000a3
:204fbe000000000000000000000000000000000000000000000000000000000000000000d3
:204fde000000000000000000000000000000000000000000000000000000000000000000b3
:0d4ffe0000000000000000000000000000a6
:20500b000b2800000000000000000000000000000000000000000000000000000000000052
:20502b00000000000000000000000000000000000000000000000000000000000000000065
:20504b00000000000000000000000000000000000000000000000000000000000000000045
:0d506b000000000000000000000000000038
:20507800000000000000000000000000000000000000000000000000000000000000000018
:205098000000000000000000000000000000000000000000000000000000000000000000f8
:2050b800000000000000000000000000000000000000005000000000000000000000000088
:0d50d80000000000000000000000000000cb
:2050e500802c000000000000000000000000000000000000000000000000000000000000ff
:2051050000000000000000000000000000000000000000000000000000000000000000008a
:2051250000000000000000000000000000000000000000000000000000000000000000006a
:0d514500000000000000000000000000005d
:20515200802800000000000000000000000000000000000000000000000000000000000095
:2051720000000000000000000000000000000000000000000000000000000000000000001d
:205192000000000000000000000000000000000000000000000000000000000000000000fd
:0d51b20000000000000000000000000000f0
:2051bf00004000000000000000000000000000000000000000000000000000000000000090
:2051df000000000000000000000000000000000000000000000000000000000000000000b0
:2051ff00000000000000000000000000000000000000000000000000000000000000000090
:0d521f000000000000000000000000000082
:20522c00400000000000000000000000000000000000000000000000000000000000000022
:20524c00000000000000000000000000000000000000000000000000000000000000000042
:20526c00000000000000000000000020000000000000000000000000000000000000000002
:0d528c000000033bd44000000000000000c3
:205299000000000000000000000000000000000000000000000000000000000000000000f5
:2052b9000000000000000000000000000000000000000000000000000000000000000000d5
:2052d9000000000000000000000000000000000000000000000000000000000000000000b5
:0d52f9000000e9028000000000000000003d
:20530600800000000000000000000000000000000000000000000000000000000000000007
:20532600000000000000000000000000000000000000000000000000000000000000000067
:20534600000000000000000000000000000000000000000000000000000000000000000047
:0d536600000000000000000000000000003a
:2053730080000000000000000000000000000000000000000000000000000000000000009a
:205393000000000000000000000000000000000000000000000000000000000000000000fa
:2053b3000000000000000000000000000000000000000000000000000000000000000000da
:0d53d30000000000000000000000000000cd
:2053e0008b0000000000000000000000000000000000000000000000000000000000000022
:2054000000000000000000000000000000000000000000000000000000000000000000008c
:2054200000000000000000000000000040000000000000000000000000000000000000002c
:0d544000000000000000000000000000005f
:20544d000b2c000000000000001000000000000000000000000000000000000000000000f8
:20546d0000000000000000000000000000000000000100000000000000000000000000001e
:20548d000000000000000000000000000000000000000000000000000000000000000000ff
:0d54ad0000000000000000000000000000f2
:2054ba00002a000000000000000000000000000000000000000000000000000000000000a8
:2054da000000000000000000000000000000000000000000000000000000000000000000b2
:2054fa00000000000000000000000000000000000000000000000000000000000000000092
:0d551a000000097bd4040000000000000028
:20552700006c000000000000000000000000000000000000000000000000000000000000f8
:20554700000000000000000000000000000000000000000000000000000000000000000044
:20556700000000000000000000000000000000000000000000000000010000000000000023
:0d5587000000038140000000000000000053
:205594004000000000000000000000000000000000000000000000000000000000000000b7
:2055b4000000000000000000000000000000000000000000000000000000000000000000d7
:2055d4000000000000000000000000000000000000000000000000000000000000000000b7
:0d55f4000078000000000000000000000032
:20560100000200000000000000000000000000000000000000000000000000000000000087
:20562100000000000000000000000000000000000000000000000000000000000000000069
:20564100000000000000000000000000000000000000000000000000000000000000000049
:0d5661000008000000000000000000000034
:20566e004900000000000000000000000000000000000000000000000000000000000000d3
:20568e000000000000000000000000000000000000000000000000000000000000000000fc
:2056ae000000000000000000000000000000000000000000000000000000000000000000dc
:0d56ce0000100000000000000000000000bf
:2056db000f00000000000000000000000000000000000000000000000000000000000000a0
:2056fb0000000000000000000000000000000000000000000000000000000000000000008f
:20571b0000000000000000000000000000000000000000000000000000000000000000006e
:0d573b000000000000000000000000000061
:20574800000000000000000000000000000000000000000000000000000000000000000041
:20576800000000000000000000000000000000000000000000000000000000000000000021
:20578800000000000000000000000000000000000000000000000000000000000000000001
:0d57a80000000000000000000000000000f4
:2057b500800000000000000000000000000000000000000000000000000000000000000054
:2057d5000000000000000000000000000000000000000000000000000000000000000000b4
:2057f500000000000000000000000000000000000000000000000000000000000000000094
:0d5815000070000000000000000000000016
:205822008000000000000000000000000000000000000000000000000000000000000000e6
:20584200000000000000000000000000000000000000000000000000000000000000000046
:20586200000000000000000000000000000000000000000000000000000000000000000026
:0d58820000380000000000000000000000e1
:20588f00002c000000000000000000000000000000000000000000000000000000000000cd
:2058af000000000000000000000000000000000000000000000000000000000000000000d9
:2058cf000000000000000000000000000000000000000000000000000000000000000000b9
:0d58ef00080800000000000000000000009c
:2058fc0000000000000000000000000000000000000000000000000000000000000000008c
:20591c0000000000000000000000000000000000000000000000000000000000000000006b
:20593c0000000000000000000000000000000000000000000000000000000000000000004b
:0d595c0000000df3d4400800000000000022
:2059690000000000000000000000000000000000000000000000000000000000000000001e
:205989000000000000000000000000000000000000000000000000000000000000000000fe
:2059a9000000000000000000000000000000000000000000000000000000000000000000de
:0d59c90000000b4140000000000000000045
:2059d6000000010000000000000000000000000000000000000000000000000000000000b0
:2059f600000000000000000000000000000000000000000000000000000000000000000091
:205a1600000000000000000000000000000000000000000000000000000000000000000070
:0d5a36000000000000000000000000000063
:205a43000000008000000000000000000000000000000000000000000000000000000000c3
:205a6300000000000000000000000000000000000000000000000000000000000000000023
:205a83000000000000300000000000000000000000000000000000000000000000000000d3
:0d5aa30020000000000000000000000000d6
:205ab0000000000000000000000000000000000000000000000000000000000000000000d6
:205ad0000000000000000000000000000000000000000000000000000000000000000000b6
:205af000000000000000000000000000000000000000000000000000000200000000000094
:0d5b10001800000000000000000000000070
:205b1d00000000000000000000000000000000000000000000000000000000000000000068
:205b3d00000000000000000000000000000000000000000000000000000000000000000048
:205b5d00000000000000000000000000000000000000000000000000000000000000000028
:0d5b7d00000000000000000000000000001b
:205b8a000000000000000000000000000000000000000000000000000000000000000000fb
:205baa000000000000000000000000000000000000000000000000000000000000000000db
:205bca000000000000000000000000000000000000000000000000000000000000000000bb
:0d5bea0000000000000000000000000000ae
:205bf700080000000000000000000000000000000000000000000000000000000000000086
:205c170000000000000000000000000000000000000000000000000000000000000000006d
:205c370000000000000000000000000000000000000000000000000000003c000000000011
:0d5c570000f0000000000000000000000050
:205c6400000000000000000000000000000000000000000000000000000000000000000020
:205c8400000000000000000000000000000000000000000000000000000000000000000000
:205ca40000000000000000000000000001e0000000000000000000000000000000000000ff
:0d5cc40000000000000000000000000000d3
:205cd1000000000000000000000000000000000000000000000000000000000000000000b3
:205cf100000000000000000000000000000000000000000000000000000000000000000093
:205d1100000000000000000000000000000000000000000000000000000000000000000072
:0d5d3100380000000000000000000000002d
:205d3e00000000000000000000000000000000000000000000000000000000000000000045
:205d5e00000000000000000000000000000000000000000000000000000000000000000025
:205d7e0000000000000000000000000000000000000000000000000000002002fef51000e0
:0d5d9e000000e00000000000000000000018
:205dab000000000000000000000000000000000000000000000000000000000000000000d8
:205dcb000000000000000000000000000000000000000000000000000000000000000000b8
:205deb0000000000000000000000000000000000000000000000000000001c0150500000db
:0d5e0b000000e000000000000000000000aa
:205e180000000000000000000000000000000000000000000000000000000000000000006a
:205e380000000000000000000000000000000000000000000000000000000000000000004a
:205e580000000000000000000000000000002cea500c0000000000000000000000000000b8
:0d5e7800000000000000000000000000001d
:205e85000000000000000000000000000000000000000000000000000000000000000000fd
:205ea5000000000000000000000000000000000000000000000000000000000000000000dd
:205ec50000000000000000000000000000401c050204000000000000000000000000000056
:0d5ee50000000000000000000000000000b0
:205ef200000000000000000000000000000000000000000000000000000000000000000090
:205f120000000000000000000000000000000000000000000000000000000000000000006f
:205f320000000000000000000000000000c00000000000000000000000400030000000001f
:0d5f52000000000000000000000000000042
:205f5f00000000000000000000000000000000000000000000000000000000000000000022
:205f7f00000000000000000000000000000000000000000000000000000000000000000002
:205f9f00000000000000000000000000000000000000000000000000002000400000000082
:0d5fbf0000000000000000000000000000d5
:205fcc000000000000000000000000000000000000000000000000000000000000000000b5
:205fec00000000000000000000000000000000000000000000000000000000000000000095
:20600c00000000000000000000000000000000000000000000000000000000000000000074
:0d602c000000000000000000000000000067
:20603900000000000000000000000000000000000000000000000000000000000000000047
:20605900000000000000000000000000000000000000000000000000000000000000000027
:20607900000000000000000000000000000000000000000000000000000000000000000007
:0d60990000000000000000000000000000fa
:2060a6000000000000000000000000000000000000000000000000000000000000000000da
:2060c6000000000000000000000000000000000000000000000000000000000000000000ba
:2060e600000000000000000000000000000000000000000000000000010000000000000099
:0d610600000000000000000000000000008c
:2061130000000000000000000000000000000000000000000000000000000000000000006c
:2061330000000000000000000000000000000000000000000000000000000000000000004c
:2061530000000000000000000000000000000000000000000000000001000000000000002b
:0d617300000000000000000000000000001f
:206180000000000000000000000000000000000000000000000000000000000000000000ff
:2061a0000000000000000000000000000000000000000000000000000000000000000000df
:2061c00000000000000000000000000000000000000000400000000000000000000000007f
:0d61e00000000000000000000000000000b2
:2061ed00000000000000000000000000000000000000000000000000000000000000000092
:20620d00000000000000000000000000000000000000000000000000000000000000000071
:20622d00000000000000000000000000000000000000002000000000000000000000000031
:0d624d000000000000000000000000000044
:20625a00000000000000000000100000000000000000000000000000000000000000000014
:20627a00000000000000000000000000000000000000000000000000000000000000000004
:20629a000000000000000000000000000000000000000000000000000000000000000000e4
:0d62ba0000000000000000000000000000d7
:2062c7000000000000000000001000000000000000000000000000000000000000000000a7
:2062e700000000000000000000000000000000000000000000000000000000000000000097
:20630700000000000000000000000000000000000000000000000000000000000000000076
:0d6327000000000000000000000000000069
:20633400000000000000000000000000000000000000000000000000000000000000000049
:20635400000000000000000000000000000000000000000000000000000000000000000029
:20637400000000000000000000000000000000000000000000000000000000000000000009
:0d63940000000000000000000000000000fc
:2063a1000000000000000000000000000000000000000000000000000000000000000000dc
:2063c1000000000000000000000000000000000000000000000000000000000000000000bc
:2063e10000000000001000000000000000000000000000000000000000000000000000008c
:0d640100000000000000000000000000008e
:20640e0000000000000000000000000000000000000000000000000000000000000000006e
:20642e0000000000000000000000000000000000000000000000000000000000000000004e
:20644e0000000000000000000000000000000000000000000000000000000000000000002e
:0d646e000000000000000000000000000021
:20647b00000000000000000000000000000000000000000000000000000000000000000001
:20649b000000000000000000000000000000000000000000000000000000000000000000e1
:2064bb000000000000000000000000000000000000000000000000000000000000000000c1
:0d64db0000000000000000000000000000b4
:2064e800020000000000000000000000000000000000000000000000000000000000000092
:20650800000000000000000000000000000000000000000000000000000000000000000073
:20652800000000000000000000000000000000000000400000000000000000000000000013
:0d6548000000000000000000000000000046
:20655500000000000000000000000000000000000000000000000000000000000000000026
:20657500000000000000000000000000000000000000000000000000000000000000000006
:206595000000000000000000000000000000000000000000000000000000000000000000e6
:0d65b50000000000000000000000000000d9
:2065c2000000000000000000000000000000000000000000000000000000000000000000b9
:2065e200000000000000000000000000000000000000000000000028000000000000000071
:20660200000000000000000000000000000000000000000000000000000000000000000078
:0d662200000000000000000000000000006b
