:02000000ff00ff
:080002004c6174746963650030
:17000a00694345637562653220323032302e31322e32373934330071
:16002100506172743a2069434534304858344b2d545131343400f9
:1b003700446174653a2053657020313120323032352032303a30303a3030008d
:0200520000ffad
:040054007eaa997e69
:02005800510055
:02005a0001059e
:03005c00920020ef
:03005f00620367d2
:0300620072011018
:0300650082000016
:02006800110085
:02006a00010192
:20006c00000000000000000000000000000000000000000000000000000000000000000074
:20008c0000000000080000000000002000000000000000000000000000000000000000002c
:2000ac0000000000000000000000000400000000000000000000000000000000000000012f
:0d00cc00000000000000080000000000001f
:2000d900000000000000000000000000000000000000000000000000000000000000000007
:2000f90000000000000000000000000000c000000000000000000000000000000000000027
:200119000000000000000000000000000000000000000000000000000000000000000000c6
:0d01390000000000000000000000000000b9
:20014600000000000000000000000000000000000000000000000040000000000000000059
:20016600000000000400000000000010000000000000000000000000000000000000000065
:20018600000000000100000000000004000000000000000000000000000000000100000152
:0d01a6000000000000000400000000000048
:2001b30000000000000000000000000000000000000000000000000000000000000000002c
:2001d30000000000000000000000000000000000000000000000000000000000000000000c
:2001f3000000000000000000000000000000000000000000000000000000000000000000ec
:0d02130000000000000000000000000000de
:200220000000000000000000000000000000000000000000000000000000000000000000be
:20024000000000000800000010000020000000c000000000000000000000000000000000a6
:200260000000000000000000000000080080002000000000000000000000000000000002d4
:0d0280000000002000000800000000000049
:20028d00000000000000000000000000000000000000000000000000000000000000000051
:2002ad00000000000000000010000000000000c00000000000000000000000000000000061
:2002cd00000000000000000000000000005000f000000000000000000000000000000000d1
:0d02ed0000000034000000000000300000a0
:2002fa000000000000000000000000000000000000000000000000400001000000000000a3
:20031a000000000000000000000000000000000000000000010000000000000000000000c2
:20033a00000000000000000000000000000010000000000000000000000000000000000291
:0d035a000000000000000000001000000086
:20036700000000000000000000000000000000000000000000000000000000000000000076
:20038700000000000000000000000000000000000000000000000000000000000000000056
:2003a700000000000200000000000000000000000000000000000000000000000000000034
:0d03c7000000000000000000000000000029
:2003d400000000000008000000000000200000000000008000000000000100000000000060
:2003f4000800000000000020000000000000800000000000020000000000800000000000bf
:20041400020000000000000c00000000000020000000000000800000000000020200000016
:0d04340000000c000000000000200000008f
:2004410000000000000000000000000000000000000000000000000000000000000000009b
:2004610000000000000000000000000000000000000000000000000000000000000000007b
:2004810000000000000000000000000000000000000000000000000000000000000000005b
:0d04a100002c000000000000000000000022
:2004ae0000000000000000000000000000000000000000000000000000000000000000002e
:2004ce0000000000000000000000000000000000000000000000000000000000000000000e
:2004ee000000000000000000000000000000000000000000000000000000000000000000ee
:0d050e0000000000000004000000000000dc
:20051b000000000000000000000000000000000000000000000000000000000000000000c0
:20053b00000000000000300000000000000000000000000000000000000000000000000070
:20055b00000000000000000000000000000000000000000000000000000000000000000080
:0d057b000000000000000000000000000073
:20058800000000000000000000000000000000000000000000000000000000000000000053
:2005a800000000000000000000000000000000000000000000000000000000000000000033
:2005c80000000000000000000000000400800000000000000000000000000000000000008f
:0d05e80000000000000000005800000000ae
:2005f5000000000000000000000000000000000000000000000000400000000000000000a6
:20061500000000000000000000000000000000000000400000000000000000000000000085
:2006350000000000000000000000000400d0000000000000000000000000000000000000d1
:0d0655000000000000000400000000000094
:20066200000000000004000000000000100000000000004000000000000000000000000024
:200682000400000000000000000000000000000000004000010000000000400000000000d3
:2006a2000100000000000004000000000000100000000000004000000000000100000000e2
:0d06c20000020400000000000030000000f5
:2006cf00000000000000000000000000000000000000000000000000000400000000000007
:2006ef000000000000000000000000000000000000000000000000000000000000000000eb
:20070f000000000000000000000000000000000000000000000000000000000000000000ca
:0d072f00000e0000000000000000000000af
:20073c0000000000000000000000000000000000000000000000000000000000000000009d
:20075c0000000000000000000000000000000000000000000000000000000000000000007d
:20077c0000000000000000000000000000000000000000000000000000000000000000005d
:0d079c000000000000000000000000000050
:2007a90000020000000000000000000000000000000000000000000000000000000000002e
:2007c900000000000000000000000000000000000000000000000000000000000000000010
:2007e9000000000000000000000000000000000000000000000000000000000000000000f0
:0d08090000000000000000000000000000e2
:200816000000000000000000000000000000000000000000000000000000000000000000c2
:200836000000000000000000000000000000000000000000000000000000000000000000a2
:20085600000000000000000000000000000000000000000000000000010000000000000081
:0d0876000000000000001000000000000065
:20088300000000000000000000000000000000000000000000000000000000000000000055
:2008a300000000000000000000000000000000000000000000000000000000000000000035
:2008c300000000000000000000000000000000000000000000000000010000000000000014
:0d08e30000000000000010000000000000f8
:2008f0000000000000000000000000000000000000000000000000000000000000000000e8
:200910000000000000000000000000000000000000000000000000000000000000000000c7
:200930000000000000000000000000000000000000000000000000000000000000000000a7
:0d095000000000000000000000000000009a
:20095d0000000000000000000000000000000000000000000000000000000000000000007a
:20097d0000000000000000000000000000000000000000000000000000000000000000005a
:20099d0000000000000000000000000000000000000000000000000000000000000000003a
:0d09bd00000000000000000000000000002d
:2009ca0000010000000000000000000000000000000000000000010000000000000000000b
:2009ea000000000000000000000000000000000000010000000000000000000000000000ec
:200a0a000000000000000000000000000000000000000000000000000100000000000000cb
:0d0a2a0000000000000000000000000000bf
:200a370000000000000000000000000000000000000000000000010000000000000000009e
:200a570000000000000000000000000000000000000000000000000000000000000000007f
:200a770000000000000000000000000000000000000000000000000001000000000000005e
:0d0a97000000000000000000000000000052
:200aa400000000000000000000000000000000000000000000000000000000000000000032
:200ac400000000000000000000000000000000000000000000000000000000000000000012
:200ae4000000000000000000000000000000000000000000000000000000000000000000f2
:0d0b040000000000000020000000000000c4
:200b11000000000000000000000000000000000000000000000000000000000000000000c4
:200b31000000000000000000000000000000000000000000000000000000000000000000a4
:200b5100000000000000000000000000000000000000000000000000000000000000000084
:0d0b71000000000000000000000000000077
:200b7e00000000000000000000000000000000001000000000000000000000000000000047
:200b9e00000000000000000000000000000000000000000000000000000000000000000037
:200bbe00000000000000000000000000000000000000000000000000000000000000000017
:0d0bde00000000000000000000000000000a
:200beb000000000000000000000000000000000020000000000000000000000000000000ca
:200c0b000000000000000000000000000000000000000000000000000000000000000000c9
:200c2b000000000000000000000000000000000000000000000000000000000000000000a9
:0d0c4b00000000000000000000000000009c
:200c5800060000000000000000000000000000000000000000000000000000000000000076
:200c780000000000000000000000000000000000000000000000000000000000000000005c
:200c980000000000000000000000000000000000000000000000000000000000000000003c
:0d0cb800000000000000000000000000002f
:200cc50000000000000000000000000000000000000000000000000000000000000000000f
:200ce5000000000000000000000000000000000000000000000000000000000000000000ef
:200d05000000000000000000000000000000000000000000000000000000000000000001cd
:0d0d250000000000000000000000000000c1
:200d32000000000000000000000000000000000000000000000000000000000000000000a1
:200d5200000000000000000000000000000000000000000000000000000000000000000081
:200d7200000000000000000000000000000000000000000000000000000000000000000061
:0d0d92000000000000000000000000000054
:200d9f00000000000000000000000000000000000000000000000000010000000000000033
:200dbf00000000000000000000000000000000000000000000000000000000000000000014
:200ddf000000000000000000000000000000000000000000000000000000000000000000f4
:0d0dff0000000000000000000000000000e7
:200e0c000000000000000000000000000000000000000000000000000000000000000000c6
:200e2c000000000000000000000000000000000000000000000000000000000000000000a6
:200e4c00000000000000000000000000000000000000000000000000000000000000000086
:0d0e6c000000000000000000000000000079
:200e7900000200000000000000000000000000000000000000000000000000000000000057
:200e9900000000000000000000000000000000000000000000000000000000000000000039
:200eb900000000000000000000000000000000000000000000000000000000000000000019
:0d0ed900000000000000000000000000000c
:200ee6000000000000000000000000000000000000000000000000000000000000000000ec
:200f06000000000000000000000000000000000000000000000000000000000000000000cb
:200f26000000000000000000000000000000000000000000000000000100000000000000aa
:0d0f4600000000000000100000000000008e
:200f530000000000000000000000000000000000000000000000000000000000000000007e
:200f730000000000000000000000000000000000000000000000000000000000000000005e
:200f930000000000000000000000000000000000000000000000000001000000000000003d
:0d0fb3000000000000001000000000000021
:200fc000000000000000000000000000000000000000000000000000000000000000000011
:200fe0000000000000000000000000000000000000000000000000000000000000000000f1
:201000000000000000000000000000000000000000000000000000000000000000000000d0
:0d10200000000000000000000000000000c3
:20102d000000000000000000000000000000000000000000000000000000000000000000a3
:20104d00000000000000000000000000000000000000000000000000000000000000000083
:20106d00000000000000000000000000000000000000000000000000000000000000000063
:0d108d000000000000000000000000000056
:20109a00000100000000000000000000000000000000000000000100000000000000000034
:2010ba00000000000000000000000000000000000000000000000000000000000000000016
:2010da000000000000000000000000000000000000000000000000000000000000000000f6
:0d10fa0000000000000000000000000000e9
:201107000000000000000000000000000000000000000000000001000000000000000000c7
:201127000000000000000000000000000000000000000000000000000000000000000000a8
:20114700000000000000000000000000000000000000000000000000000000000000000088
:0d116700000000000000000000000000007b
:2011740000000000000000000000000000000000000000000000000000000000000000005b
:2011940000000000000000000000000000000000000000000000000000000000000000003b
:2011b40000000000000000000000001000000000000000000000000000000000000000000b
:0d11d400000000000000000000000000000e
:2011e1000000000000000000000000000000000000000000000000000000000000000000ee
:201201000000000000000000000000000000000000000000000000000000000000000000cd
:201221000000000000000000000000000000000000000000000000000000000000000000ad
:0d12410000000000000000000000000000a0
:20124e00000000000000000000000000000000000000000000000000000000000000000080
:20126e00000000000000000000000000000000000000000000000000000000000000000060
:20128e00000000000000000000000000000000000000000000000000000000000000000040
:0d12ae000000000000000000000000000033
:2012bb00000000000000000000000000000000000000000000000000000000000000000013
:2012db000000000000000000000000000000000000000000000000000000000000000000f3
:2012fb000000000000000000000000000000000000000000000000000000000000000000d3
:0d131b0000000000000000000000000000c5
:201328000000000000000000000000000000000000000000000000000000000000000000a5
:20134800000000000000000000000000000000000000000000000000000000000000000085
:20136800000000000000000000000000000000000000000000000000000000000000000065
:0d1388000000000000000000000000000058
:20139500000000000000000000000000000000000000000000000000000000000000000038
:2013b500000000000000000000000000000000000000000000000000000000000000000018
:2013d5000000000000000000000000000000000000000000000000000000000000000000f8
:0d13f50000000000000000000000000000eb
:201402000000000000000000000000000000000028000000000000000000000000000000a2
:201422000000000000000000000000000000000000000000000000000000000000000000aa
:2014420000000000000000000000000000000000000000000000000000000000000000008a
:0d146200000000000000000000000000007d
:20146f0000000000000000000000000000000000100000000000000001000000000000004c
:20148f0000000000000000000000000000000000000000000000000000000000000000003d
:2014af0000000000000000000000000000000000000000000000000000000000000000001d
:0d14cf000000000000000000000000000010
:2014dc000000000000000000000000000000000000000000000000000000000000000000f0
:2014fc000000000000000000000000000000000000000000000000000000000000000000d0
:20151c000000000000000000000000000000000000000000000000000000000000000000af
:0d153c0000000000000000000000000000a2
:20154900000200000000000000000000000000000000000000000000000000000000000080
:20156900000000000000000000000000000000000000000000000000000000000000000062
:20158900000000000000000000000000000000000000000000000000000000000000000042
:0d15a9000000000000000000000000000035
:2015b600000000000000000000000000000000000000000000000080000000000000000095
:2015d6000000000000000000000000000000000000000000000000000000000000000000f5
:2015f6000000000000000000000000000000000000000000000000000100000000000000d4
:0d16160000000000000000000000000000c7
:201623000000000000000000000000000000000000000000000000000000000000000000a7
:20164300000000000000000000000000000000000000000000000000000000000000000087
:20166300000000000000000000000000000000000000000000000000010000000000000066
:0d168300000000000000000000000000005a
:2016900000000000000000000000000000000000000000000000000000000000000000003a
:2016b00000000000100000000000000000000000000000000000000000000000000000000a
:2016d00000000000000000000000002000000000000040000000000000000000000000009a
:0d16f00000000000000000000000000000ed
:2016fd000000000000000000000000000000000000000000000000000000000000000000cd
:20171d000000000000000000000000000000000000000000000000000000000000000000ac
:20173d0000000000000000000000000000000000000000000000000000000000000000008c
:0d175d00000000000000000000000000007f
:20176a0000010000000000000000000000000000000000000000000000000000000000005e
:20178a0000000000000000000000000000000000000000000000000000000000000000003f
:2017aa0000000000000000000000000000000000000000000000000000000000000000041b
:0d17ca000000000000000000000000000012
:2017d7000000000000000000000000000000000000000000000000000000000000000000f2
:2017f7000000000000000000000000000000000000000000000000000000000000000000d2
:201817000000000000000000000000000000000000000000000000000000000000000000b1
:0d1837000000000000000060000000000044
:20184400000000000000000000000000000000000000000000000000000000000000000084
:20186400000000000000000000000000000000000000000000000000000000000000000064
:20188400000000000000000000000000000000000000000000000000000000000000000044
:0d18a4000000000000000000000000000037
:2018b100000000000000000000000000000000000000000000000000000000000000000017
:2018d1000000000000000000000000000000000000000000000000000000000000000000f7
:2018f1000000000000000000000000000000000000000000000000000000000000000000d7
:0d19110000000000000000000000000000c9
:20191e00000000000000000000000000000000001000000000000000000000000000000099
:20193e00000000000000000000000000000000000000000000000000000000000000000089
:20195e00000000000000000000000000000000000000000000000000000000000000000069
:0d197e00000000000000000000000000005c
:20198b0000000000000000000000000000000000200000000000000000000000000000001c
:2019ab0000000000000000000000000000000000000000000000000000000000000000001c
:2019cb000000000000000000000000000000000000000000000000000000000000000000fc
:0d19eb0020000000000000000000000000cf
:2019f8000600000000000000000000000000000000000000000000000000000000000000c9
:201a18000000000000000000000000000000000000000000000000000000000000000000ae
:201a380000000000000000000000000000000000000000000000000000000000000000008e
:0d1a58000000000000000000000000000081
:201a6500000000000000000000000000000000000000000000000000000000000000000061
:201a8500000000000000000000000000000000000000000000000000000000000000000041
:201aa500000000000000000000000000000000000000000000000000000000000000000021
:0d1ac5000000000000000000000000000014
:201ad2000000000000000000000000000000000000000000000000000000000000000000f4
:201af2000000000000000000000000000000000000000000000000000000000000000000d4
:201b12000000000000000000000000000000000000000000000000000000000000000000b3
:0d1b320000000000000000000000000000a6
:201b3f00000000000000000000000000000000000000000000000000010000000000000085
:201b5f00000000000000000000000000000000000000000000000000000000000000000066
:201b7f00000000000000000000000000000000000000000000000000000000000000000046
:0d1b9f000000000000000000000000000039
:201bac00000000000000000000000000000000000000000000000000000000000000000019
:201bcc000000000000000000000000000000000000000000000000000000000000000000f9
:201bec000000000000000000000000000000000000000000000000000020000000000000b9
:0d1c0c0000000000000000000000000000cb
:201c19000002000000000000000000000000000000000000000000000000000000000000a9
:201c390000000000000000000000000000000000000000000000000000000000000000008b
:201c590000000000000000000000000000000000000000000000000000400000000000002b
:0d1c7900000000000000000000000000005e
:201c86008000000000000000000000000000000000000000000000000000000000000000be
:201ca60000000000000000000000000000000000000000000000000000000000000000001e
:201cc6000000000000000000000000000000000000000000000000000100000000000000fd
:0d1ce60000000000000010000000000000e1
:201cf300800000000000000000000000000000000000000000000000000000000000000051
:201d13000000000000000000000000000000000000000000000000000000000000000000b0
:201d330000000000000000000000000000000000000000000000000001000000000000008f
:0d1d53000000000000001000000000000073
:201d6000000000000000000000000000000000000000000000000000000000000000000063
:201d8000000000000000000000000000000000000000000000000000000000000000000043
:201da000000000000000000000000010000000000000000000000000000000000000000013
:0d1dc0000000000000000000000000000016
:201dcd000000000000000000000000000000000000000000000000000000000000000000f6
:201ded000000000010000000000000000000000000000000000000000000000000000000c6
:201e0d000000000000000000000000000000000000000000000000000000000000000000b5
:0d1e2d0000000000000000000000000000a8
:201e3a00002b0000000000000000000000000000000000000000010000000000000000005c
:201e5a00000000000000000000000000000000000000000000000000000000000000000068
:201e7a00000000000000000000000000000000000000000000000000000000000000000048
:0d1e9a00000000000000000000000000003b
:201ea7000040000000000000000000000000000000000000000001000000000000000000da
:201ec7000000000000000000000000000000000000010000000000000000000000000000fa
:201ee7000000000000000000000000000000000000000000000000000000000000000000db
:0d1f070000000000000000000000000000cd
:201f14000000000000000000000000000000000000000000000000000100000000000000ac
:201f340000000000000000000000000000000000000000000000000000000000000000008d
:201f540000000000000000000000000000000000000000000000000000a0000000000000cd
:0d1f74000000000000000000000000000060
:201f81008002000000000000000000000000000000000000000000000000000000000000be
:201fa100000000000000000000000000000000000000000000000000000000000000000020
:201fc100000000000000000000000000000000000000000000000000000000000000000000
:0d1fe10000000000000000000000000000f3
:201fee004b0000000000000000000000000000001000000000000000000000000000000078
:20200e000000000000000000000000000000000000000000000000000000000000000000b2
:20202e00000000000000000000000000000000000000000000000000000000000000000092
:0d204e000000000000000000000000000085
:20205b000e0000000000000000000000000000002000000000000000000000000000000037
:20207b00000000000000000000000000000000000000000000000000000000000000000045
:20209b00000000000000000000000000000000000000000000000000000000000000000025
:0d20bb000000000000000000000000000018
:2020c8000628000000000000000000000000000000000000000000000000000000000000ca
:2020e8000000000000000000000000000000000000000000000000000000000000000000d8
:202108000000000000000000000000000000000000000000000000000000000000000004b3
:0d21280000000000000000000000000000aa
:202135008040000000000000000000000000000000000000000000000000000000000000ca
:2021550000000000000000000000000000000000000000000000000000000000000000006a
:2021750000000000000000000000000000000000000000000000000000000000000000004a
:0d219500000000000000000000000000003d
:2021a20080000000000000000000000000000000000000000000000000000000000000009d
:2021c2000000000000000000000000000000000000000000000000000000000000000000fd
:2021e2000000000000000000000000000000000000000000000000000000000000000000dd
:0d22020000000000000000000000000000cf
:20220f000000000000000000000000000000000000000000000000000100000000000000ae
:20222f0000000000000000000000000000000000000000000000000000000000000000008f
:20224f0000000000000000000000000000000000000000000000000000000000000000006f
:0d226f000000000000000000000000000062
:20227c00400000000000000000000000000000000000000000000000000000000000000002
:20229c00000000000000000000000000000000000000000000000000000000000000000022
:2022bc00000000000000000000000000000000000000000000000000000000000000000002
:0d22dc0000000000000000000000000000f5
:2022e900800200000000000000000000000000000000000000000000000000000000000053
:202309000000000000000000000000000000000000000000000000000000000000000000b4
:20232900000000000000000000000000000000000000000000000000000000000000000094
:0d2349000000000000000000000000000087
:202356000068000000000000000000000000000000000000000000020000000000040000f9
:20237600000000000000000000000000000000000000000000000000000000000001000046
:202396000000000000000000000000000000000000000040000000000000000000000000e7
:0d23b600000000000000100000000000000a
:2023c3009000000000000000000000000000000003800000000000000000000000040000e3
:2023e3000000000000000000000000000000000000000000000000000000000000010000d9
:202403000000000000000000000000000000000000000000000000000000000000000000b9
:0d242300000000000000100000000000009c
:20243000850000000000000000000000000000000000000000000200000000000000000005
:2024500000000000000000000000000000000000000000000000000000000000000000006c
:20247000000000000000000000000000000000000000000000000000000000000000000448
:0d249000000000000000000000000000003f
:20249d000b0000000000000000100000000000000000000000000000000000000000000004
:2024bd000000000000000000000000000000000000000000000000000000000000000000ff
:2024dd000000000000000000000000000000000000000000000000000000000000000000df
:0d24fd0000000000000000000000000000d2
:20250a0000330000000000000000000000000000000000000000010000000000000000007d
:20252a00000000000000000000000000000000000000000000000000000000000000000091
:20254a00000000000000000000000010000000000000000000000000000000000000000061
:0d256a000000000000000000000000000064
:20257700000000000000000000000000000000000000000000000100000000000000000043
:20259700000000000000000000000000000000000000000000000000000000000000000024
:2025b700000000000000000000000000000000000000000000000000000000000000000004
:0d25d70000000000000000000000000000f7
:2025e400407000000000000000000000000000000000000000000000010000000000000026
:202604000000000000000000000000000000000000020000000000000000000000020000b2
:20262400000000000000000000000000000000000000000000000000000000000000000096
:0d2644000000000000000000000000000089
:20265100000200000000000000000000000000000000000000000000000000000000000067
:20267100000000000000000000000000000000000000000000000000000000000000000049
:20269100000000000000000000000000000000000000000000000000000000000000000029
:0d26b100000000000000000000000000001c
:2026be004300000000000000000000000000000000000000000000000000000000000000b9
:2026de000000000000000000000000000000000000000000000000000000000000000000dc
:2026fe000000000000000000000000000000000000000000000000000000000000000000bc
:0d271e0000000000000000000000000000ae
:20272b000f000000000000000000000000000000000000000000000000000000000000007f
:20274b0000000000000000000000000000000000000000000000000000000000000000006e
:20276b0000000000000000000000000000000000000000000000000000000000000000004e
:0d278b000000000000000000000000000041
:20279800000000000000000000000000000000000000000000000000000000000000000021
:2027b800000000000000000000000000000000000000000000000000000000000000000001
:2027d8000000000000000000000000000000000000000000000000000000000000000000e1
:0d27f80000000000000000000000000000d4
:20280500800000000000000000000000000000000000000000000000000000000000000033
:20282500000000000000000000000000000000000000000000000000000000000000000093
:202845000000000000800000000000000000000000000000000000000000000000000000f3
:0d2865000000000000000000000000000066
:20287200803000000000000000000000000000000000000000000000000000000000000096
:20289200000000000000000000000000000000000000000000000000000000000000000026
:2028b200000000000000000000000000000000000000000000000000000000000000000006
:0d28d20000000000000000000000000000f9
:2028df000000000000000000000000000000000000000000000000000000000000000000d9
:2028ff000000000000000000000000000000000000000000000000000000000000000000b9
:20291f00000000000000000000000000000000000000000000000000000000000000000197
:0d293f00000000000000000000000000008b
:20294c004070000000000000000000000000000000000000000000000000000000000000bb
:20296c0000000000000000000000000000000000000000000000000000000000000000004b
:20298c0000000000000000000000000000000000000000000000000000000000000000002b
:0d29ac00000000000000000000000000001e
:2029b90080020000000000000000000000000000000000000000000000000000000000007c
:2029d9000000000000000000000000000000000000000000000000000000000000000000de
:2029f9000000000000000000000000000000000000000000000000000000000000000000be
:0d2a190000000000000000000000000000b0
:202a260000000000000000000000000000000000000000000000000200000000000000008e
:202a4600000000000000000000000000000000000000000000000000000000000000000070
:202a6600000000000000000000000000000000000000000000000000000000000000000050
:0d2a86000000000000001000000000000033
:202a93008000000000000000000000000000000000000000000000000000000000000000a3
:202ab300000000000000000000000000000000000000000000000000000000000000000003
:202ad3000000000000000000000000000000000000000000000000000000000000000000e3
:0d2af30000000000000010000000000000c6
:202b00008968000000000000000000000000000000000000000000000000000000000000c4
:202b2000000000000000000000000000000000000000000000000000000000000000000095
:202b4000000000000000000000000000000000000000000000000000000000000000000075
:0d2b60000000000000000000000000000068
:202b6d000a38000000000000001000000000000000000000000000000000000000000000f6
:202b8d00000000000000000000000000000000000000000000000000000000000000000028
:202bad00000000000000000000000000000000000000000000000000000000000000000008
:0d2bcd0000000000000000000000000000fb
:202bda000003000000000000000000000000000000000000000001000000000000000000d7
:202bfa000000000000000000000000000000000000000000000000000000000000000000bb
:202c1a0000000000000000000000000000000000000000000000000000000000000000009a
:0d2c3a00000000000000100000000000007d
:202c470000000000000000000000000000000000000000000000010000000000000000006c
:202c670000000000000000000000000000000000000000000000000000000000000000004d
:202c87000000000000000000000000000000000000000080000000000000000000000000ad
:0d2ca7000000000000001000000000000010
:202cb4004000000000000000000000000000000000000000000000000000000000000000c0
:202cd4000000000000000000000000000000000000000000000000000000000000020000de
:202cf4000000000000000000000000000000000000000000000000000000000000000000c0
:0d2d140000000000000000000000000000b2
:202d2100000200000000000000000000000000000000000000000000000000000000000090
:202d4100000000000000000000000000000000000000000000000000000000000000000072
:202d6100000000000000000000000000000000000000000000000000000000000000000052
:0d2d81000000000000000000000000000045
:202d8e004300000000000000000000000000000000000000000000000000000000000000e2
:202dae00000000000000000000000000000000000000000000000000000000000000000005
:202dce000000000000000000000000000000000000000000000000000000000000000000e5
:0d2dee0000000000000000000000000000d8
:202dfb000a00000000000000000000000000000000000000000000000000000000000000ae
:202e1b00000000000000000000000000000000000000000000000000000000000000000097
:202e3b00000000000000000000000000000000000000000000000000000000000000000077
:0d2e5b00000000000000000000000000006a
:202e68000068000000000000000000000000000000000000000000000000000000000000e2
:202e8800000000000000000000000000000000000000000000000000000000000002000028
:202ea80000000000000000000000000000000000000000000000000000000000000000000a
:0d2ec80000000000000000000000000000fd
:202ed50080000000000000000000000000000000000000000000000000000000000000005d
:202ef5000000000000000000000000000000000000000000000000000000000000000000bd
:202f150000000000000000000000000000000000000000000000000000000000000000009c
:0d2f3500000000000000000000000000008f
:202f42008000000000000000000000000000000010000000000000000000000000000000df
:202f620000000000000000000000000000000000000000000000000000000000000000004f
:202f820000000000000000000000000000000000000000000000000000000000000000002f
:0d2fa2000000000000000000000000000022
:202faf00000000000000000000000000000000000000000000000000000000000000000002
:202fcf000000000000000000000000000000000000000000000000000000000000000000e2
:202fef000000000000000000000000000000000000001000000000000000000000000000b2
:0d300f0000000000000000000000000000b4
:20301c00000000000000000000000000000000000000000000000040000000000000000054
:20303c00000000000000000000000000000000000000000000000000000000000000000074
:20305c00000000000000000000000000000000000000000000000000000000000000000054
:0d307c000000000000000000000000000047
:20308900000200000000000000000000000000000000000000000020000000000000000005
:2030a900000000000000000000000000000000000000000000000000000000000000000007
:2030c9000000000000000000000000000000000000000000000000000000000000000000e7
:0d30e90000000000000000000000000000da
:2030f6000000000000000000000000000000000000000000000000000000000000000000ba
:20311600000000000000000000000000001a86bd40400000000000000000000000000000bc
:20313600000000000000000000000000000000000000080000000000000000000000000071
:0d3156000079c00000000000000000000033
:2031630000000000000000000000000000000000000000000000000000000000000000004c
:203183000000000000000000000000000010943e80000000000000000000000000000000ca
:2031a30000000000000000000000000000000000000000000000000000000000000000000c
:0d31c30000080000000000000000000000f7
:2031d0000000000000000000000000000000000000000000000001000000000000000000de
:2031f0000000000000000000000000000000000000000000000000000000000000020000bd
:2032100000000000000000000000000000000000000000000000000000000000000000009e
:0d323000000001e2800200c000000000006c
:20323d00000000000000000000000000000000000000000000000100000000000000000070
:20325d00000000000000000000000000000000000000000000000000000000000000000051
:20327d00000000000000000000000000000000000000000000000000000000000000000031
:0d329d0000000743e80000000000000000f2
:2032aa00000100000000000000000000000000000000000000000000000000000000000003
:2032ca00000000000000000000000000000e000000000000000000000000000000000000d6
:2032ea000000000000000000000000000000000000000000000000000000000000000000c4
:0d330a0000000000000000000000000000b6
:20331700000000000000000000000000000000000000000000000000000000000000000096
:20333700000000000000000000000000001000000000000000000000000000000000000066
:20335700000000000000000000000000000000000000000000000000000000000000000056
:0d3377000010000000000000000000000039
:20338400000000000000000000000000000000000000000000000000010000000000000028
:2033a4000000000010000000000000000000000000000000000000000000000000000000f9
:2033c400000000000000000000000000000000000000000000000000000080000000000069
:0d33e40000000000000000000000000000dc
:2033f1000000000000000000000000000000000000000000000000000000000000000000bc
:2034110000000000100000000000000000000000000000000000000000000000000000008b
:2034310000000000000000000000000000000000000000000000000000000100000000007a
:0d345100000000000000000000000000006e
:20345e0000000000000000000000000000000000000000000000000000000000000000004e
:20347e0000000000000000000000000007808681440000000000000000000000000000005c
:20349e000000000000380000000000000000000000000000000000000000010000000000d5
:0d34be00000008016802000000000000008e
:2034cb000000000000000000000000000000000000000000000000000000000000000000e1
:2034eb0000000000000000000000000000003402800000000000000000000000000000000b
:20350b000000000000000000000000000000000000000000000000000000000000000000a0
:0d352b0000000502940000000000000000f8
:20353800000000000000000000000000000000000000000000000000000000000000000073
:20355800000000000000000000000000000000000000000000000000000000000000000053
:20357800000000000000000000000000000000000000000000000000000000000000000033
:0d35980000380000000000000000000000ee
:2035a500000000000000000000000000000000000000000000000000000000000000000006
:2035c5000000000000000000000000000000000000000000000000000000000000000000e6
:2035e5000000000000000000000000000000000000000000000000000000000000000000c6
:0d36050000080000000000000000000000b0
:20361200000000000000000000000000000000000000000000000000000000000000000098
:20363200000000000000000000000000000000000000000000000000000000000000000078
:20365200000000000000000000000000000000000000000000000000000000000000000058
:0d367200000000000000000000000000004b
:20367f0000000000000000000000000000000000000000000000000000000000000000002b
:20369f0000000000000000000000000000000000000000000000000000000000000000000b
:2036bf000000000000000000000000000000000000000000000000000000000000000000eb
:0d36df0000000000000000000000000000de
:2036ec000600000000000000000000000000000000000000000000000000000000000000b8
:20370c0000000000000000000000000000000000000000000000000000000000000000009d
:20372c0000000000000000000000000000000000000000000000000000000000000000007d
:0d374c000000000000000000000000000070
:2037590000020000000000000000000000000000000000000000000000000000000000004e
:20377900000000000000000000000000000000000000000000000000000000000000000030
:20379900000000000000000000000000000000000000000000000000000000000000000010
:0d37b9000000000000000000000000000003
:2037c6000000000000000000000000000000000000000000000000020000000000000000e1
:2037e6000000000000000000000000000000000000000000000000000000000000000000c3
:2038060000000000000004000000000000000000000000000000000000000000000000009e
:0d3826000000000000000000000000000095
:20383300000000000000000000000000000000000000000000000000000000000000000075
:20385300000000000000000000000000000000000000000000000000000000000000000055
:20387300000000000000000000000000000000000000000000000000000000000000000035
:0d3893000000000000000000000000000028
:2038a000000000000000000000000000000000000000000000000000000000000000000008
:2038c0000000000000000000000000000000000000000000000000000000000000000000e8
:2038e0000000000000000000000000000000000000000000000000000000000000000000c8
:0d39000000000000000000000000000000ba
:20390d0000000000000000000000000000000000000000000000000000000000000000009a
:20392d0000000000000000000000000000000000000000000000000000000000000000007a
:20394d0000000000000000000000000000000000000000000000000000000000000000005a
:0d396d00000000000000000000000000004d
:20397a0000010000000000000000000000000000000000000000000000000000000000002c
:20399a0000000000000000000000000000000000000000000000000000000000000000000d
:2039ba000000000000000000000000000000000000000000000000000000000000000000ed
:0d39da0000000000000000000000000000e0
:2039e7000000000000000000000000000000000000000000000000000000000000000000c0
:203a070000000000000000000000000000000000000000000000000000000000000000009f
:203a270000000000000000000000000000000000000000000000000000000000000000007f
:0d3a47000000000000000000000000000072
:203a5400000000000000000000000000000000000000000000000000010000000000000051
:203a7400000000000000000000000000000000000000000000000000000000000000000032
:203a9400000000000000000000000000000000000000000000000000000000000000000012
:0d3ab4000000000000000000000000000005
:203ac1000000000000000000000000000000000000000000000000000000000000000000e5
:203ae1000000000000000000000000000000000000000000000000000000000000000000c5
:203b01000000000000000000000000000000000000000000000000000000000000000000a4
:0d3b21000000000000000000000000000097
:203b2e00000000000000000000000000000000000000000000000000000000000000000077
:203b4e00000000000000000000000000000000000000000000000000000000000000000057
:203b6e00000000000000000000000000000000000000000000000000000000000000000037
:0d3b8e00000000000000000000000000002a
:203b9b0000000000000000000000000000000000000000000000000000000000000000000a
:203bbb000000000000000000000000000000000000000000000000000000000000000000ea
:203bdb000000000000000000000000000000000000000000000000000000000000000000ca
:0d3bfb0000000000000000000000000000bd
:203c080002000000000000000000000000000000000000000000000000000000000000009a
:203c280000000000000000000000000000000000000000000000000000000000000000007c
:203c480000000000000000000000000000000000000000000000000000000000000000005c
:0d3c6800000000000000000000000000004f
:203c750000000000000000000000000000000000000000000000000000000000000000002f
:203c950000000000000000000000000000000000000000000000000000000000000000000f
:203cb5000000000000000000000000000000000000000000000000000000000000000000ef
:0d3cd50000000000000000000000000000e2
:203ce2000000000000000000000000000000000000000000000000000000000000000000c2
:203d02000000000000000000000000000000000000000000000000000000000000000000a1
:203d2200000000000000000000000000000000000000000000000000000000000000000081
:0d3d42000000000000000000000000000074
:203d4f00000000000000000000000000000000000000000000000000000000000000000054
:203d6f00000000000000000000000000000000000000000000000000000000000000000034
:203d8f00000000000000000000000000000000000000000000000000000000000000000014
:0d3daf000000000000000000000000000007
:203dbc000600000000000000000000000000000000000000000000000000000000000000e1
:203ddc000000000000000000000000000000000000000000000000000000000000000000c7
:203dfc0000000000000200000000000000000000000000000900000000000000000000009c
:0d3e1c000000000000000000000000000099
:203e2900000200000000000000000000000000000000000000000000000000000000000077
:203e4900000000000000000000000000000000000000000000000000000000000000000059
:203e690000000000000400000000000000000000000000001c000000000000000000000019
:0d3e8900000000000000000000000000002c
:203e960000000000000000000000000000000000000000000000000200000000000000000a
:203eb6000000000000000000000000000000000000000000000000000000000000000000ec
:203ed6000000000000000000000000000000000000000000000000000000000000000000cc
:0d3ef60000000000000000000000000000bf
:203f030010000000000000000000000000000000000000000000000000000000000000008e
:203f230000000000000000000000000000000000000000000000000000000000000000007e
:203f430000000000000000000000000003c00000000000000000000000000000000000009b
:0d3f6300320000000000000000000000001f
:203f7000000000000000000000000000000000000000000000000000000000000000000031
:203f9000000000000000000000000000000000000000000000000000000000000000000011
:203fb0000000000000000000000000000000000000000007000000000000000000000000ea
:0d3fd00000000000000010000000000000d4
:203fdd000000000000000000000000000000000000000000000000000000000000000000c4
:203ffd000000000000000000000000000000000000000000000000000000000000000000a4
:20401d00000000000000000000000000000000000000000000000000000000000000000083
:0d403d000000000000001000000000000066
:20404a00000100000000000000000000000000000000000000000000000000000000000055
:20406a00000000000000000000000000000000000000000000000000000000000000000036
:20408a0000000000000000000000000000000000000000000072bd440000000000000000a3
:0d40aa0000000000000010e0000000000019
:2040b7000000000000000000000000000000000000000000000000000000000000000000e9
:2040d7000000000000000000000000000000000000000000000000000000000000000000c9
:2040f7000000000000000000000000000000000000000000009028000000000000000000f1
:0d411700000000000000000000000000009b
:2041240000000000000000000000000000000000000000000000000000000000000000007b
:2041440000000000000000000000000000000000000000000000000000000000000000005b
:2041640000000000000000000000000000003eea51000000000000000000000000000000c2
:0d418400000000000000000000000000002e
:2041910000000000000000000000000000000000000000000000000000000000000000000e
:2041b1000000000000000000000000000000000000000000000000000000000000000000ee
:2041d10000000000000000000000000000000c05500000000000000000000000000000006d
:0d41f10000000000000000000000000000c1
:2041fe000000000000000000000000000000000000000000000000000000000000000000a1
:20421e00000000000000000000000000000000000000000000000000000000000000000080
:20423e0000000000000000000000000000000180f0080000000000000000000000000000e7
:0d425e000000000000000000000000000053
:20426b00000000000000000000000000000000002000000000000000000000000000000013
:20428b00000000000000000000000000000000000000000000000000000000000000000013
:2042ab0000000000000000000000000000400000f0000000000000000010000000000000b3
:0d42cb0040000000000001000000000000a5
:2042d8000600000000000000000000000000000000000000000000000000000000000000c0
:2042f8000000000000000000000000000000000000000000000000000000000000000000a6
:204318000000000000000000000000000200000000004001007a294020000000000000003f
:0d4338000000000000000000000000000078
:20434500000000000000000000000000000000000000000000000000000000000000000058
:20436500000000000000000000000000000000000000000000000000000000000000000038
:2043850000000000000000000000000002c0000000000000809c2a80000000000000000090
:0d43a50000000000000000001000000000fb
:2043b2000000000000000000000000000000000000000000000000000000000000000000eb
:2043d2000000000000000000000000000000000000000000000000000000000000000000cb
:2043f2000000000000000000000000000000000000000000000000000000000000000000ab
:0d441200000000000000000000000000009d
:20441f0000000000000000000000000000000000000000000000000000000000000000007d
:20443f0000000000000000000000000000000000000000000000000000000000000000005d
:20445f0000000000000000000000000000400000000000000e0000000010000000000000df
:0d447f0040000000000000000000000000f0
:20448c00000000000000000000000000000000000000000000000000000000000000000010
:2044ac000000000000000000000000000000000000000000000000000000000000000000f0
:2044cc000000000000000000000000000000000000000000000000000000000000000000d0
:0d44ec0000000000000000000000000000c3
:2044f9000002000000000000000000000000000000000000000000000000000000000000a1
:20451900000000000000000000000000000000000000000000000000000000000000000082
:2045390000000000000000000000000000000000000003000000000000000000000000005f
:0d4559000000000000000000000000000055
:20456600000000000000000000000000000000000000000000000000000000000000000035
:20458600000000000000000000000000000000000000000000000000000000000000000015
:2045a6000000000000000000000000000000000000000000000000000100000000000000f4
:0d45c60000000000000000000000000000e8
:2045d3000000000000000000000000000000000000000000000000000000000000000000c8
:2045f3000000000000000000000000000000000000000000000000000000000000000000a8
:20461300000000000000000000000000000000000000000000000000010000000000000086
:0d463300000000000000000000000000007a
:2046400000000000000000000000000000000000000000000000000000000000000000005a
:20466000000000000000000000000000000000000000000000000000000000000001000039
:2046800000000000000000000000000000000000000000000000000000000000000000001a
:0d46a000000000000000000000000000000d
:2046ad000000000000000000000000000000000000000000000000000000000000000000ed
:2046cd000000000000000000000000000000000000000000000000000000000000000000cd
:2046ed000000000000000000000000000000000000000000000000000000000000000000ad
:0d470d00000000000000000000000000009f
:20471a0000010000000000000000000000000000000000000000000000000000000000007e
:20473a0000000000000000000000000000000000000000000000000000000000000000005f
:20475a0000000000000000000000000000000000000000000000000000000000000000003f
:0d477a000000000000000000000000000032
:20478700000000000000000000000000000000000000000000000000000000000000000012
:2047a7000000000000000000000000000000000000000000000000000000000000000000f2
:2047c7000000000000000000000000000000000000000000000000000000000000000000d2
:0d47e70000000000000000000000000000c5
:2047f4000000000000000000000000000000000000000000000000000000000000000000a5
:20481400000000000000000000000000000000000000000000000000000000000000000084
:20483400000000000000000000000000000000000000000000000000000000000000000064
:0d4854000000000000000000000000000057
:20486100000000000000000000000000000000000000000000000000000000000000000037
:20488100000000000000000000000000000000000000000000000000000000000000000017
:2048a1000000000000000000000000000000000000000000000000000000000000000000f7
:0d48c10000000000000000000000000000ea
:2048ce000000000000000000000000000000000010000000000000000000000000000000ba
:2048ee000000000000000000000000000000000000000000000000000000000000000000aa
:20490e00000000000000000000000000000000000000000000000000000000000000000089
:0d492e00000000000000000000000000007c
:20493b0000000000000000000000000000000000200000000000000000000000000000003c
:20495b0000000000000000000000000000000000000000000000000000000000000000003c
:20497b0000000000000000000000000000000000000000000000000000000000000000001c
:0d499b00000000000000000000000000000f
:2049a8000600000000000000000000000000000000000000000000000000000000000000e9
:2049c8000000000000000000000000000000000000000000000000000000000000000000cf
:2049e8000000000000000000000000000000000000000000000000000000000000000000af
:0d4a080000000000000000000000000000a1
:204a1500000000000000000000000000000000000000000000000000000000000000000081
:204a3500000000000000000000000000000000000000000000000000000000000000000160
:204a5500000000000000000000000000000000000000000000000000000000000000000041
:0d4a75000000000000000000000000000034
:204a8200000000000000000000000000000000000000000000000000000000000000000014
:204aa2000000000000000000000000000000000000000000000000000000000000000000f4
:204ac2000000000000000000000000000000000000000000000000000000000000000000d4
:0d4ae20000000000000000000000000000c7
:204aef000000000000000000000000000000000000000000000000000100000000000000a6
:204b0f00000000000000000000000000000000000000000000000000000000000000000086
:204b2f00000000000000000000000000000000000000000000000000000000000000000066
:0d4b4f000000000000000000000000000059
:204b5c00406800000000000000000000000000000000000000000000000000000000000091
:204b7c00000000000000000000000000000000000000000000000000000000000002000017
:204b9c000000000000000000000000000000000000000000000000000000000000000000f9
:0d4bbc0000000000000000000000000000ec
:204bc9000002000000000000000000000000000000000000000000000000000000000000ca
:204be9000000000000000000000000000000000000000000000000000000000000000000ac
:204c090000000000002000000000000000000000000000000000000000000000000000006b
:0d4c2900000000000000000000000000007e
:204c36008000000000000000000000000000000000000000000000000000000000000000de
:204c560000000000000000000000000000000000000000000000000000000000000000003e
:204c760000000000000000000000000000000000000000000000000000000000000000001e
:0d4c960038000000000000000000000000d9
:204ca300800000000000000000000000000000000000000000000000000000000000000071
:204cc3000000000000000000000000000000000000000000000000000000000000000000d1
:204ce3000000000000000000000000000000000000000000000000000000000000000000b1
:0d4d030000000000000000000000000000a3
:204d10008c00000000000000000000000000000000000000000000000000000000000000f7
:204d3000000000000000000000000000000000000000000100000000000000000000000062
:204d500000000000040000000000000000000000000000000000000000000100000000003e
:0d4d70000000000000000000000000000036
:204d7d000e0000000000000000000000000000000000000000000000000000000000000008
:204d9d000000000010000000000000000000000000010000000000000000000000000000e5
:204dbd000000000004000000000000000000000000000000000000000000000000000000d2
:0d4ddd0000000000000000000000000000c9
:204dea000003000000000000000000000000000000000000000000000000000000000000a6
:204e0a00000000000000000000000000000000000000000000000000000000000000000088
:204e2a00000000000000000000000000000000000000000000000000000000000000000068
:0d4e4a00000000000000000000000000005b
:204e570000000000000000000000000000000000000000000000000000000000000000003b
:204e770000000000000000000000000000000000000000000000000000000000000000001b
:204e97000000000000000000000000000000000000000000000000000000000000000000fb
:0d4eb70000000000000000000000000000ee
:204ec400006800000000000000000000000000000000000000000000000000000000000066
:204ee4000000000000000000000000000000000000000000000000000000000000000000ae
:204f040000000000000000000000000010000000000000000000000000004000000000003d
:0d4f24000000000000002000000000000060
:204f31008002000000000000000000000000000000000000000000000000000000000000de
:204f5100000000000000000000000000000000000000000000000000000000000000000040
:204f7100000000000000000000000000080000000000000000000000000000000000000018
:0d4f91000000000000000000000000000013
:204f9e004e00000000000000000000000000000000000000000000000000000000000000a5
:204fbe000000000000000000000000000000000000000000000000000000000000000000d3
:204fde00000000000000000000000000000000000000005000000000000000000000000063
:0d4ffe000000000000000010000000000096
:20500b000a000000000000000000000000000000000000000000000000000000000000007b
:20502b00000000000000000000000000000000000000000000000000000000000000000065
:20504b00000000000000000000000000000000000000000000000000000000000000000045
:0d506b000000000000000000000000000038
:20507800000000000000000000000000000000000000000000000000000000000000000018
:205098000000000000000000000000000000000000000000000000000000000000000000f8
:2050b8000000000000000000000000000000000000000000000000000000000000000000d8
:0d50d80000000000000000000000000000cb
:2050e500802c000000000000000000000000000000000000000000000000000000000000ff
:2051050000000000000000000000000000000000000000000000000000000000000000008a
:2051250000000000000000000000000000000000000000000000000000000000000000006a
:0d514500000000000000000000000000005d
:20515200802800000000000000000000000000000000000000000000000000000000000095
:2051720000000000000000000000000000000000000000000000000000000000000000001d
:205192000000000000000000000000000000000000000000000000000000000000000000fd
:0d51b20000000000000000000000000000f0
:2051bf00004000000000000000000000000000000000000000000000000000000000000090
:2051df000000000000000000000000000000000000000000000000000000000000000000b0
:2051ff000000000000000000000000000000000000000080400000000000000000000000d0
:0d521f000000000000000000000000000082
:20522c00400000000000000000000000000000000000000000000000000000000000000022
:20524c00000000000000000000000000000000000000000000000000000000000000000042
:20526c000000000000000000000000006000000000000000000000000000010000000000c1
:0d528c000000000000000000000000000015
:20529900800200000000000000000000000000000000000000000000000000000000000073
:2052b9000000000000000000000000000000000000000000000000000000000000000000d5
:2052d9000000000000000000000000000000000000000000000000000000000000000000b5
:0d52f90000000000000000000000000000a8
:20530600000000000000000000000000000000000000000000000000000000000000000087
:20532600000000000000000000000000000000000000000000000000000000000000000067
:20534600000000000000000000000000000000000000000000000000000000000000000047
:0d53660080000000000000000000000000ba
:2053730080000000000000000000000000000000000000000000000000000000000000009a
:205393000000000000000000000000000000000000000000000000000000000000000000fa
:2053b3000000000000000000000000000000000000000000000000000000000000000000da
:0d53d300000000000000008000000000004d
:2053e0008928000000000000000000000000000000000000000000000000000000000000fc
:2054000000000000000000000000000000000000000000000000000000000000000000008c
:2054200000000000000000000000002000000000000000000000000000000000000000004c
:0d544000000000000000000000000000005f
:20544d000a6c000000000000000000000000000000000000000000000000000000000000c9
:20546d0000000000100000000000000000000000000000000000000000000000000000000f
:20548d0000000000000000000000000001c00000000000000000000000000000000000003e
:0d54ad0000000000000000000000000000f2
:2054ba00002b000000000000000000000000000000000000000000000000000000000000a7
:2054da000000000000000000000000000000000000000000000000000000000000000000b2
:2054fa00000000000000000000000000000000000000000000000000000000000000000092
:0d551a000000000000000000000000000084
:20552700004000000000000000000000000000000000000000000000000000000000000024
:20554700000000000000000000000000000000000000000000000000000000000000000044
:20556700000000000000000000000010000000000000000000000000000000000000000014
:0d5587000000000000000000000000000017
:205594000000000000000000000000000000000000000000000000000000000000000000f7
:2055b4000000000000000000000000000000000000000000000000000000000000000000d7
:2055d400000000000000000000000000000034ea5008000000000000000000000000000041
:0d55f40000000000000000000000000000aa
:20560100800200000000000000000000000000000000000000000000000000000000000007
:20562100000000000000000000000000000000000000000000000000000000000000000069
:2056410000000000000000000000000000003c0aa000000000000000000000000000000063
:0d566100000000000000000000000000003c
:20566e004b00000000000000000000000000000000000000000000000000000000000000d1
:20568e000000000000000000000000000000000000000000000000000000000000000000fc
:2056ae000000000000000000000000000000000000000000000000000000000000000000dc
:0d56ce0000000000000000001000000000bf
:2056db000e00000000000000000000000000000000000000000000000000000000000000a1
:2056fb0000000000000000000000000000000000000000000000000000000000000000008f
:20571b0000000000000000000000000000000000000000000000000000000000000000006e
:0d573b000000000000000000000000000061
:20574800002800000000000000000000000000000000000000000000000000000000000019
:205768000000000000000000000000000000000000000e0000000000000000000000000013
:205788000000000000000000000000000000000000000040000000000000000000000000c1
:0d57a80000000000000000000000000000f4
:2057b500804000000000000000000000000000000000000000000000000000000000000014
:2057d5000000000000000000000000000000000000000000000000000000000000000000b4
:2057f50000000000000000000000000001c0000000000020000000000000000000000000b3
:0d5815000000000000000000000000000086
:205822008000000000000000000000000000000000000000000000000000000000000000e6
:20584200000000000000000000000000000000000000000000000000000000000000000046
:20586200000000000000000000000000000200000000000000000000000000000000000024
:0d5882000000000000000000000000000019
:20588f000000000000000000000000000000000000000000000000000000000000000000f9
:2058af000000000000000000000000000000000000000000000000000000000000000000d9
:2058cf000000000000000000000000000004000000000000000000000000000000000000b5
:0d58ef0000000000000000000000000000ac
:2058fc0000000000000000000000000000000000000000000000000000000000000000008c
:20591c000000000000000000000000000000000000000000000000800000000000000000eb
:20593c0000000000000000000000002000000000000000000000000000000000000000002b
:0d595c00000010000000000000000000002e
:2059690000020000000000000000000000000000000000000000000000000000000000001c
:205989000000000000000000000000000000000000000000000000000000000000000000fe
:2059a9000000000000000000000000000000000000000000000000000000000000000000de
:0d59c9000000c00000000000000000000011
:2059d6000000000000000000000000000000000000000000000000000000000000000000b1
:2059f600000000000000000000000000000000000000000000000000000000000000000091
:205a1600000000000000000000000000000000000000000000000000000000000000000070
:0d5a36000000000000000000000000000063
:205a430018000000000000000000000000000000000000000000000000000000000000002b
:205a6300000000000000000000000000000000000000000000000000000000000000000023
:205a8300000000000000000000000000000000000000000000000000000080000000000083
:0d5aa30000000000000000000000000000f6
:205ab0000000000000000000000000000000000000000000000000000000000000040000d2
:205ad0000000000000000000000000000000000000010000000000000000000000000000b5
:205af00000000000000000000000000004002dca510000000000000000000000000000004a
:0d5b10000000000000000000000000000088
:205b1d00000000000000000000000000000000000000000000000000000000000000000068
:205b3d00000000000000000000000000000000000001000000000000000000000000000047
:205b5d0000000000000000000000000008c03c0aa00000000000000000000000000000007a
:0d5b7d00000000000000000000000000001b
:205b8a000001000000000000000000000000000000000000000000000000000000000000fa
:205baa000000000000000000000000000000000000000000000000000000000000000000db
:205bca000000000000000000000000000000000000000000000000000000000000000000bb
:0d5bea00040003fbd40400000000000000d4
:205bf70000000000000000000000000000000000000000000000000000000000000000008e
:205c170000000000000000000000000000000000000000000000000000000000000000006d
:205c370000000000000000000000000000000000000000000000000000000000000000004d
:0d5c570002000302800000000000000000b9
:205c6400000000000000000000000000000000000000000000000000000000000000000020
:205c8400000000000000000000000000000000000000000000000000000000000000000000
:205ca40000000000000000000000000001c00000000000000000000000000000000000001f
:0d5cc4000238000000000000000000000099
:205cd1000000000000000000000000000000000000000000000000000000000000000000b3
:205cf100000000000000000000000000000000000000000000000000000000000000000093
:205d1100000000000000000000000000024000000000000000000000000000000000000030
:0d5d31000508000000000000000000000058
:205d3e0000000000000000000000000000000000000000000000000e000000000000000037
:205d5e00000000000000000000000000000000000000000000000000000000000000000025
:205d7e0000000000000000000000000000e000ca0200000000000000000140000000000018
:0d5d9e000080000000000000000000000078
:205dab000000000000000000000000000000000000000000000000000000000000000000d8
:205dcb000000000000000000000000000000000000000000000000000000000000000000b8
:205deb0000000000000000000000000000001405000000000000000000000000000000007f
:0d5e0b00003000000000000000000000005a
:205e180000000000000000000000000000000000000000000000000000000000000000006a
:205e380000000000000000000000000000000000000000000000000000000000000000004a
:205e580000000000000000000000000000000000000000000000000000000000000000002a
:0d5e78000000007be80200000000000000b8
:205e85000000000000000000000000000000000000000000000000000000000000000000fd
:205ea5000000000000000000000000000000000000000000000000000000000000000000dd
:205ec5000000000000000000000000000000000000000000000000000000000000000000bd
:0d5ee50000000903d40000000000000000d0
:205ef200000000000000000000000000000000000000000000000000000000000000000090
:205f120000000000000000000000000000000000000000000000000000000000000000006f
:205f320000000000000000000000000000030000000000000000000000000000000000024a
:0d5f520080b800000000000000000000000a
:205f5f00000000000000000000000000000000000000000000000000000000000000000022
:205f7f00000000000000000000000000000000000000000000000000000000000000000002
:205f9f000000000000000000000000000004000000000000000000000000000000000000de
:0d5fbf0008d80000000000000000000000f5
:205fcc000000000000000000000000000000000000000000000000000000000000000000b5
:205fec00000000000000000000000000000000000000000000000000000000000000000095
:20600c00000000000000000000000000000000000000000000000000000000000000000074
:0d602c00001800000000000000000000004f
:20603900000200000000000000000000000000000000000000000000000000000000000045
:20605900000000000000000000000000000000000000000000000000000000000000000027
:20607900000000000000000000000000000000000000000000000000000000000000000007
:0d60990000000000000000000000000000fa
:2060a6000000000000000000000000000000000000000000000000000000000000000000da
:2060c6000000000000000000000000000000000000000000000000000000000000000000ba
:2060e60000000000000000000000000000000000000000000000000000000400000000286e
:0d610600000003369500a000005785f00052
:2061130000000000000000000000000000000000000000000000000000000000000000006c
:2061330000000000000000000000000000000000000000000000000000000000000000004c
:2061530000000000000000000000000000000000000000000000000000000000000000002c
:0d6173000000016fbc200000034105f0009a
:206180000000000000000000000000000000000000000000000000000000000000000000ff
:2061a0000000000000000000000000000000000000000000000000000000000000000000df
:2061c0000000000000000000000000000000000000000000000000000000000000000000bf
:0d61e0000000000000000000001eea542036
:2061ed00000000000000000000000000000000000000000000000000000000000000000092
:20620d00000000000000000000000000000000000000000000000000000000000000000071
:20622d00000000000000000000000000000000000000000000000000000000000000000051
:0d624d000000000000000003401f010000e1
:20625a00000100000000000000000000000000000000000000000000000000000000000023
:20627a000000000010000000000000000000000000000000000000000000000000000000f4
:20629a000000000000000000000000000000000000000000000000000000000000000000e4
:0d62ba000000000000000001c00000000016
:2062c7000000000000000000000000000000000000000000000000000000000000000000b7
:2062e700000000001000000000000000000000000000000000000000000000000000000087
:20630700000000000000000000000000000000000000000000000000000000000000000076
:0d6327000000a000000000000000000000c9
:20633400000000000000000000000000000000000000000000000000000000000000000049
:20635400000000000000000000000000000000000000000000000000000000000000000029
:206374000000000000000000000000000000000000000000000000000c00000018f0008075
:0d63940000001000000000000000000000ec
:2063a1000000000000000000000000000000000000000000000000000000000000000000dc
:2063c1000000000000000000000000000000000000000000000000000000000000000000bc
:2063e1000000000000000000000000000000000000000000000000000000000000f00100ab
:0d6401000050a0000000000000000000009e
:20640e0000000000000000000000000000000000000000000000000000000000000000006e
:20642e0000000000000000000000000000000000000000000000000000000000000000004e
:20644e0000000000000000000000000000000000000000000000000000000000000000002e
:0d646e000000000000000000000000000021
:20647b00000000000000000000000000000000000000000000000000000000000000000001
:20649b000000000000000000000000000000000000000000000000000000000000000000e1
:2064bb000000000000000000000000000000000000000000000000000000000000000000c1
:0d64db0000000000000000000000000000b4
:2064e800020000000000000000000000000000000000000000000000000000000000000092
:20650800000000000000000000000000000000000000000000000000000000000000000073
:20652800000000000000000000000000000000000000000000000000000000000000000053
:0d6548000000000000000000e040aa040078
:20655500000000000000000000000000000000000000000000000000000000000000000026
:20657500000000000000000000000000000000000000000000000000000000000000000006
:206595000000000000000000000000000000000000000000000000000000000000000000e6
:0d65b5000000000000000000021c050000b6
:2065c2000000000000000000000000000000000000000000000000000000000000000000b9
:2065e200000000000000000000000000000000000000000000000000000000000000000099
:20660200000000000000000000000000000000000000000000000000000000000000003048
:0d662200000000000000000000400000002b
