:02000000ff00ff
:080002004c6174746963650030
:17000a00694345637562653220323032302e31322e32373934330071
:16002100506172743a2069434534304858314b2d56513130300002
:1b003700446174653a204a756e20313220323032352031373a32363a34310074
:0200520000ffad
:040054007eaa997e69
:02005800510055
:02005a0001059e
:03005c00920020ef
:03005f0062014bf0
:0300620072009099
:0300650082000016
:02006800110085
:02006a00010192
:20006c00000000000000000000000000000000000000000000000000000000000000000074
:09008c000000000000000000006b
:2000950000000000000000000000000000000000000000000000000000000000000000004b
:0a00b5000000000000000000000041
:2000bf0000000000000000000004000000000000100000000000000000000000000000000d
:0900df00000000400000000000d8
:2000e8000000000000000000000000000000000000000000000000000000000000000000f8
:0a01080000000000000000000000ed
:200112000000000000000000000000000000000000000000000000000000000000000000cd
:09013200000000000000000000c4
:20013b000000000000000000000000000000000000000000000000000000000000000000a4
:0a015b00000000000000000000009a
:20016500000000000004000000000000000000000000000000000000000000000000004036
:0901850000000000001000000061
:20018e0000000000000000000000000000000000020000000000000000000000000000004f
:0a01ae000000000000000000000047
:2001b80000000000000c00000000000020000000000000800000000030000000000000c08b
:0901d8000000000000020000001c
:2001e1000000000000000000000000000000000000000000000000000000000000000000fe
:0a02010000000000000000000000f3
:20020b000000000000000000000000000000000000000000000000000000000000000000d3
:09022b000000004000000000008a
:200234000000000000000000000000000000000000000000000000000000000000000000aa
:0a02540000000000000000000000a0
:20025e00000000000000000000000000000000000000000000000000000000000000000080
:09027e0000000000000000000077
:200287000000000000000000000040000000000001000000000040000000000000000000d6
:0a02a7000000000400000000000049
:2002b100000000000004000000000001100000000000004000000000100000000000004088
:0902d10000000000000100000023
:2002da000000000000000000000000000000000000000040000000000000000000000000c4
:0a02fa0000000000000000000000fa
:200304000000000000000000000400000000000000000000000000000000000000000000d5
:09032400000000000000000000d0
:20032d00000020000000000000002000280000000040000000000000000000000000000008
:0a034d0000000000000000000000a6
:20035700000000000000000000000000000000000000000000000000000000000000000086
:090377000000000000000000007d
:2003800000000000000000000000000000000000000000000000000000000000000000005d
:0a03a000000000000800000000004b
:2003aa000000000000000000000000038000000000000000000000000000000000000000b0
:0903ca000000000000000000002a
:2003d3000000000000000000000000000000000000000000000000140000000000000000f6
:0a03f3000000000000000000000000
:2003fd0000030000000000000000000004a502000000000000000000000000000000000032
:09041d00000000040000000000d2
:20042600000000000000000000000000003050000000000000000000000000000000000036
:0a04460000000000000000000000ac
:2004500000000000000000000000000000000000000000000000000000000000000000008c
:0904700000000000000000000083
:2004790000002000000000000000000000000000000000000000003c000000000000000007
:0a0499000000000000000000000059
:2004a3000000000000000000000000000000000000000000000000006dc102080000000001
:0904c30000000000000000000030
:2004cc000000000000000000000000000000000000000000000000003dda002000000000d9
:0a04ec000000000000000000000006
:2004f6000000000000000000000000000000000000000000000000000000000000000000e6
:09051600000000000000000000dc
:20051f000000000000000000000000000000000000000000000000000000000000000000bc
:0a053f0000000000000000000000b2
:20054900000000000000000000000000000000000000000000000000000000000000000092
:0905690000000000000000000089
:2005720000000000000000000000000000000000000000000000003c00000000000000002d
:0a059200000000000000000000005f
:20059c000000800000000000000000000000000000000000000000000000000000000000bf
:0905bc0000000000000000000036
:2005c5000000200000000000000000000000000000000000000000000000000000000000f6
:0a05e500000000000000000000000c
:2005ef000000000000000000000000000000000000000000000000000000000000000000ec
:09060f00000000000000000000e2
:200618000800000000000000000000000000000000000000000000000000000000000000ba
:0a06380000000000000000000000b8
:20064200000000000000000000000000000000000020000000000000000000000000000078
:090662000000000000000000008f
:20066b0000000000000000000000000000000000000400000000000000000000000000006b
:0a068b000000000000000000000065
:20069500000100000000000000000000000000000000000000000000000000000000000044
:0906b5000000000000000000003c
:2006be0000000000000000000001000000000000000000000000000000000000000000001b
:0a06de000000000000000000000012
:2006e8004000000000000000000a00000000000000000000000000000000000000000000a8
:09070800000000000000000000e8
:20071100000000000000000000004000000000000000000000000000000000000000000088
:0a07310000000000000000000000be
:20073b0000000000000000000000000000000000000000000000000000000000000000009e
:09075b0000000000000000000095
:20076400000000000000000000000000000000000000000000000000000000000000000075
:0a078400000000000000000000006b
:20078e0000000000000000000000000000000000000000000000000000000000000000004b
:0907ae0000000000000000000042
:2007b70008000000000000000000000000000000000000000000000000000000000000001a
:0a07d7000000000000000000000018
:2007e1000000000000000000000000000000000000000000000000000000000000000000f8
:09080100000000000000000000ee
:20080a000000000000000000000000000000000000000000000000000000000000000000ce
:0a082a0000000000000000000000c4
:20083400000000000000000000800000000000000000000000800000000000020000007032
:090854000020200000000000005b
:20085d00000020000000000000000000000000000040000000000000000000000000000714
:0a087d008168080000000000000080
:20088700000000000000000000a00000000000000000000000a0000000000002800000523d
:0908a7003c2000000000000000ec
:2008b000000000000000000000080000000000000000000000080000000000002000d00028
:0a08d000803c000000000000000062
:2008da00000000000000000000000000000000000000000000c000000000000300001ada47
:0908fa0014382000000000000089
:200903000000000000000000000000000000000000000000000c00000000000010000001b7
:0a09230000140100000000000000b5
:20092d000003000000000000000000060000000000000000000002000ff206080009817294
:09094d003c200100000000000044
:2009560000000000000000000000000000000000000000000000001c00ca7a004000f08071
:0a097600803c0010000000000000ab
:2009800000000000000000000000000000000000000000000000016680000000000000fa76
:0909a0001430000000000000000a
:2009a90000002000000000000000000000000000000000000000000000000000000000e12d
:0a09c9000014000000000000000010
:2009d30000000000000000000000000000000000000000000000000000000000000398da8f
:0909f300143000000000000000b7
:2009fc000000000000000000000000042c000000000000000000001400000000000008038c
:0a0a1c0000140004000000000000b8
:200a26000000000000000000000000000000000000000000000000038000000000011fda33
:090a460014300000000000000063
:200a4f0000000000000000000000000000000000000000000000000000000000000001e1a5
:0a0a6f0080140000000000000000e9
:200a7900000000000000000000c000000fa9640000000000000801400ff806180008009a71
:090a990014100000000000000030
:200aa20000000000000000000004000000309600000000000000400002cada090000100b60
:0a0ac2000028000000000000000002
:200acc00000020000000000000800000061008000000000000800000000000000000003399
:090aec0043c00000167d7cd1001e
:200af500000020000000000000000000002900000030000000000000000000000000d0a9ef
:0a0b1500ac1c000000c285ffa00028
:200b1f00800028000000000000a00002dc8f0c000280000000a002028000000000000ade67
:090b3f007dc800000070000000f8
:200b480008000200000000000008000028000f00000000000008001c400000000000500d83
:0a0b680027fc050000040000000057
:200b7200000000000000000000000006548f0c0000000000000003400000000000000053d8
:090b92000400800000004c080082
:200b9b0000000000000000000000000020200f00000000000000002600000000000000a025
:0a0bbb00c040040023401cd001805c
:200bc500000100000000000000000066548f0c00000000000000000000000000000508931a
:090be500294000000001e8e202d1
:200bee0080000080000000000002000020200f00000400000002000000000000080001a7e0
:0a0c0e004154001000c00f04200044
:200c18000000000000000000000000001e8f0c000000000000200000000000000009987bc7
:090c3800b7c0c0001e064a5a00b4
:200c410008000000000000000000000000000f00000000000000000000000000000011ef7c
:0a0c61008368040001c27ecda100eb
:200c6b00000000000000000000000200168f0c000000000000000360400000000000003fd4
:090c8b00400000000060000000c0
:200c940000000000000000000000001c00000f00000000000000002c200000000000509fda
:0a0cb400be0000000002c0000000b6
:200cbe00000000000000783d00000060168f0c0000000000000400002f9e350000001ab37d
:090cde0049800000042000000020
:200ce7000800000000000403c000000000200f00000000000002a00000dd8300000090eb72
:0a0d0700ac680000042400000000a6
:200d1100000030007010000000c00200168554000000000000c0020026a7f0040000197b4a
:090d31003880c0000021dd0f0034
:200d3a0000000300008800000004000400205500000000000008002c01caff014000d1f091
:0a0d5a008388000010042790d000e9
:200d6400000000000000000000000000000000000000000000040140400000000000003eac
:090d8400028000008001cd000096
:200d8d0000002000000000000000000028000000004000000000a00224000000000000a553
:0a0dad0000000000124004a08000c6
:200db700000000000000000000000140348a500000000000000001e00fc0a002800f9c5af6
:090dd700828000202004da4202af
:200de00080000000000000000000000001705000000000000000000238100a0020007100cd
:0a0e00008028000407c28e0e2100b6
:200e0a00000000000000000000000002b78a522400000000000000600fa1f020000d0000e2
:090e2a00000000400001cea0010f
:200e330000000000000000000000000003605200000000000000000201f0ad0000009000ba
:0a0e5300000000080002ad0000944a
:200e5d000003000000000000000000028000000000000000000000607cb0e00000001c92d6
:090e7d00d78000800e0000000087
:200e8600000000000000000000000014280000000000000000020000334d0800080001017c
:0a0ea600a42000240020000000003a
:200eb0000000000000000000000000000000000000000000000002e00dc0020000080087e2
:090ed0001400000006220b2000b2
:200ed90000002000000000000000000000000000000000000000001e015ca1000000700d40
:0a0ef9000280000000266581000061
:200f0300000000000000000000000000000000000000000000000202468f5000000100b7ed
:090f230096c080008000ce40035e
:200f2c0000000000000000000000000000000000000000000000003c287050000000000180
:0a0f4c00010000001400030400007f
:200f56000000000000000000000000000000000000000000000000e03de0500000000082ac
:090f76008150000000740000002d
:200f7f000000000000000000000000000000000000000000000000023ee0000008800001a9
:0a0f9f000028002003c240000000fb
:200fa90000000000000000000000000000000000000000000000020021ae20200007800090
:090fc90000000000000078340073
:200fd20000000000000000000000000000000000000000000000003c0040d10001000800a9
:0a0ff2000000000000001dd1800087
:200ffc000000000000000000000000000000000000000000008000670c85a00200080b3375
:09101c006b400000007059d20085
:201025000000200000000000000000000000000000000000000000026adc04000000f0d17e
:0a104500b810000001443f94a00021
:20104f00000000000000000000000000000000000000000000a0020600ca00028000008607
:09106f00388080401e2a1ae202ba
:2010780008000000000000000000000000000000003000000008002c00405000202800eb29
:0a109800434400000163ec0d10005a
:2010a200000000000000000000000000000000000000000000000b42c0a450200005817611
:0910c200b44080000000fe7c0037
:2010cb000800000000000000000000000000000000000000000001443f508a00000010c0cf
:0a10eb000344000001400d82c00024
:2010f5000001000000000000000000000000000000000000000000607484a000000d885af3
:0911150013c000000676dea700fd
:20111e0000000000000000000000000000000000000000000001000222d845000000109dc2
:0a113e00e828001001c23caa1000ce
:201148000000000000000000000000000000000000200000000000c014ae20200021983ab2
:09116800bdc000402000fae203c2
:2011710008000000000000000000000000000000000400000000003e2020e20000050809dc
:0a119100a3fc000a4240030e2000f8
:20119b0000000000000000000000000000000000000000000000000786e8b02000000e12cf
:0911bb00e0c000001e25ce50002a
:2011c40000000000000000000000000000000000000000000000000040008b000000010936
:0a11e40036fc00000027660f5000e3
:2011ee000000000000000000000000000000000000000000001009e07787f430000580033e
:09120e00a8c08000067a69050001
:2012170008000000000000000000000000000000000000000001010023f0a720400010077c
:0a123700014c0000002025b020004b
:20124100000000000000000000000000000000000000000000000006978a5000010798fe78
:09126100b7d0c0401e06f9a1003f
:20126a0000000000000000000000000000000000000000000000000043c0aa000000000daa
:0a128a0083948100002256d1000079
:201294000000000000000000000000000000000000000000008000e040000000000000debc
:0912b40090000800200000000079
:2012bd0000002000000000000000000000000000004000000000020224000000000010f584
:0a12dd00a5f00000014380000000ae
:2012e700000000000000000000000000000000000000000000a0000000000000000f80d7e1
:0913070049800a80000400000086
:20131000000000000000000000000000000000000000000000080000000000000000f807b6
:0a13300030940084000280000000e9
:20133a0000000000000000000000000000000000000000000000004000000000000380fed2
:09135a00b00081810000000000d8
:201363000000000000000000000000000000000000000000000000003c000000000000032b
:0a1383004314001403c00000000032
:20138d0000030000000000000000000000000000000000000000014000000000000d8093dc
:0913ad00a0000040000000000057
:2013b600000000000000000000000000000000000000000000000000000000000000108186
:0a13d6003a040108000000000000c6
:2013e00000000000000000000000000000000000000000000000000025e0a0000001803b8c
:091400003d400000000000000066
:2014090000002000000000000000000000000000000000000000000000d0000000080805be
:0a1429000140000000000000000078
:201433000000000000000000000000000000000000000000000000064ea74020000d809f12
:09145300108080a00061e85561e1
:20145c000000000000000000000000000000000000000000000000242f6005000000b00dfb
:0a147c00022c000400001d0a5010ad
:20148600000000000000000000000000000000000000000000040000000000000323810398
:0914a600b44080a0000000000029
:2014af00000000000000000000000000000000000000000000002000000000000005388937
:0a14cf004388000402c00000000082
:2014d90000000000000000000000000000000000000000000000020025bbd410000000002d
:0914f90000000c00060258a54099
:2015020000000000000000000000000000000000000000000000003432eebe010000300086
:0a1522000000008000002da9a008c1
:20152c0000000000000000000000000000000000000000000000000000000002000000009d
:09154c0000000000000000000096
:20155500000024000000000000000000000000000000000000000000000000000000000052
:0a157500000000000000000000006c
:20157f000600000000000000000000000000000000000000000000000000000280070000bd
:09159f0000000000000000000043
:2015a80008000000000000000000000000000000000000000000000000000000200000e01b
:0a15c8000000000003c00000000056
:2015d2003000000000000000000000000000000000000000000000000000000000000a00bf
:0915f200000000000e01eb4300b3
:2015fb000300000000000000000000000000000000000000000000000000000000000000cd
:0a161b000000000001c03e80200026
:20162500000100000000000000000000000000000000000000001000000000000000010093
:09164500000000000003ea0800a7
:20164e000000000000000000000000000000000000000000000000000000000000000080fc
:0a166e000000000000000cd1c000d5
:20167800000000000000000000000000000000000000000000000000000000000000000052
:0916980000000020006800ff01c1
:2016a100000004000000000000000000000000000000000000000000000000000000000025
:0a16c100000000000004000ff0001c
:2016cb000000000000000000000000000000000000000000000080000000000000001b0064
:0916eb00000000060e00000000e2
:2016f4000000000000000000000000000000000000800000000000000000000000000080d6
:0a17140000000000002000000000ab
:20171e00060000000000000000000000000000000000000000000000000000000000013b69
:09173e00f9500000003800000021
:2017470008000000000000000000000000000000000000000000000000000000000000adcd
:0a176700f77c000000000000000005
:2017710000000000000000000000000000000000000000000002000381e0f0830000189fc8
:09179100ef1800000c03ea02004d
:20179a0000030000000000000000000000000000000000000000000040100f0020000101ab
:0a17ba00ecf2000000030cd4300034
:0217c400000023
:0217c60011010f
:0217c80001011d
:2017ca000000020000000000000800000000000020000000000800000000000020000000ad
:0917ea000000008008000000006e
:2017f3000000000000000000000000000000000000000000000000000000000000000000d6
:0a1813000000000000d000000000fb
:20181d00000001000000000000040000000000001001400000040000000000001000000041
:09183d0000000040000000000062
:20184600000000000000000000000000000000000000200000000000000000000000000062
:0a1866000000000000000000000078
:201870000000020000000400000800000010000020000000c00800300020000020000000e2
:09189000000000800000030000cc
:201899000000000000000040000000000001000000000000040000000001000000000000e9
:0a18b90004000000000000300000f1
:2018c3000000000000040000000000001000000000000040000000701000000000000040f1
:0918e300000000000001000000fb
:2018ec000000000000000000000000000000000000000000000000080000000000000000d4
:0a190c0000000000000000000000d1
:2019160000000000000c00000000000030000000000000c00000000030000000000000c0c5
:09193600000000000003000000a5
:20193f00000000000000000000000000000000000000000000000000000000000000000088
:0a195f00000000000000000000007e
:20196900000000000000000000000008000000000000000000000000003000000000000026
:09198900c0000000000001000094
:2019920000000000016000000000000500000000000000000000800000020000020000004b
:0a19b2000000000800000000000023
:2019bc00000000000000000000000000000000000000000000000000000000000002000108
:0919dc0000000000000000000002
:2019e5000000000000000000000000000000000000000000000040000000000001001c0085
:0a1a050000000004000000000000d3
:201a0f000000000000040000000000001000000000000040000000001000000000002040f3
:091a2f00000000000301000000aa
:201a38000000000000000000000000000000000000000000000080000002000002000e00fc
:0a1a580000000008008000000000fc
:201a6200000000000000000000000000000000000000000000000000000000000000000064
:091a82000000000000000000005b
:201a8b0000000000000000000000000000000000000000000000000000000000000000003b
:0a1aab000000000000000000000031
:201ab500000000000000000000000000000000000000000000000000000000000000000011
:091ad50000000000000000000008
:201ade000000000000000000000000000000000000000000000000000000000000000000e8
:0a1afe0000000000000000000000de
:201b08000000000000000000000000000000000000000000000000000000000000000000bd
:091b2800000000000000000000b4
:201b3100000000000000000000000000000000000000000000000000000000000000000094
:0a1b5100000000000000000000008a
:201b5b00000200000000000000000000000000000000000000000000000000000000000068
:091b7b0000000000000000000061
:201b8400000000000000000000000000000000000000000000000000000000000000000041
:0a1ba4000000000000000000000037
:201bae00000000000000000000000000000000000000000000000000000000000000000017
:091bce000000000000000000000e
:201bd7000000300000000000000000000000000000000000000000000000000000000000be
:0a1bf70000000000000000000000e4
:201c01000000000000000000000000000000000000000000000000000000000000000000c3
:091c2100000000000000000000ba
:201c2a0000000000000000000000000000000000000000000000000000000000000000009a
:0a1c4a000000000000000000000090
:201c5400000000000000000000000000000000000000000000000000000000000000000070
:091c740000000000000000000067
:201c7d00000000000000000000000000000000000000000000000000000000000000000047
:0a1c9d00000000000000000000003d
:201ca70000020000000000000000000000000000000000000000000000000000000000001b
:091cc70000000000000000000014
:201cd0000000000000000000000000000000000000000000000000000000000000000000f4
:0a1cf00000000000000000000000ea
:201cfa000000000000000000000000000000000000000000000000000000000001000000c9
:091d1a00000000000000000000c0
:201d23000000000000000000000000000000000000000000000000000000000000000000a0
:0a1d43000000000000000000000096
:201d4d00000000000000000000000000000000000000000000000000000000000000000076
:091d6d000000000000000000006d
:201d760000000000000000000000000000000000000000000000000000000000000000004d
:0a1d96000000000000000000000043
:201da00000000000000000000000000000000000000000000000080000000000000000001b
:091dc0000000000000000000001a
:201dc900000000000000000000000000000000000000000000000b000000000000000000ef
:0a1de90000000000000000000000f0
:201df3000002000000000000000000000000000000000000000000000000000000000000ce
:091e1300000000000000000000c6
:201e1c000000000000000000000000000000000000000000000000000000000000000000a6
:0a1e3c00000000000000000000009c
:201e460000000000000000000000000000000000000000000000000000000000000000007c
:091e660000000000000000000073
:201e6f00000030000000000000000000000000000000000000000000000000000000000023
:0a1e8f000000000000000000000049
:201e9900000000000000000000000000000000000000000000000000000000000000000029
:091eb90000000000000000000020
:201ec200000000000000000000000000000000000000000000000000000000000000000000
:0a1ee20000000000000000000000f6
:201eec0000000000000000000000000000000000000000000000e0000000000000000000f6
:091f0c00000000000000000000cc
:201f150000600000000000000000000000000000000000000000000000000000000000004c
:0a1f35000000000000100000000092
:201f3f0000020000000000000000000000000000040000000000000000000000000000007c
:091f5f0000000000000000000079
:201f6800000000000000000000000000000000000000000000000000000000000000000059
:0a1f8800000000000000000000004f
:201f92000000000000000000000000000000000000000000008000000000000200000000ad
:091fb20000000000000000000026
:201fbb000400000000000000000000000000000000000000000c00000000000030000000c6
:0a1fdb0000000000000000000000fc
:201fe500802c000000000000000000000000000000000000000001e40000000000000072d9
:0920050060000000000000000072
:20200e0000000000000000000000000000000000000000000000000e7800000000007001bb
:0a202e00e8010400000000000000bb
:2020380008000000000000000000000000000000000000000000000000000000200100005f
:092058000000000000000000007f
:2020610004c00000000000000000000000000000000000000000000000000000010000009a
:0a2081000000000000000000000055
:20208b00000200000000000000000000000000000000000000000000000000000000000033
:0920ab00000000014000000000eb
:2020b40000000000000000000000000000000000000000000000000000000000000000000c
:0a20d40000000000080000000000fa
:2020de0000000000000000000000000000000000000000000000000000000000000f0000d3
:0920fe00000000000000000000d9
:20210700000030000000000000000000000000000000000000000000000000000000800008
:0a21270000000000000000000000ae
:20213100000000000000000000000000000000000000000000c00003000000031000107335
:0921510020001000000000000055
:20215a000000000000000000000000000000000000000000000c000000000000100000e168
:0a217a00ec0100000000000000006e
:202184000000000000000000000000000000000000000000008003400000000200008000f6
:0921a40000000000000000000032
:2021ad000000000000000000000000000000000000000000000a0020000000002800780048
:0a21cd000000000000000000000008
:2021d70000020000000000000000000000000000000000000000000005ec000000000800ed
:0921f700000000000000000000df
:2022000000000000000000000000000000000000000000000008000003cae540a000000024
:0a22200000000000000000000000b4
:20222a00000000000000000000000000000000000000000000000000000000000000000094
:09224a000000000000000000008b
:2022530000000000000000000000000000000000000000000000000000000000000000006b
:0a2273000000000000000000000061
:20227d00800000000000000000000000000000000000000000200000000000008000000021
:09229d0000000000000000000038
:2022a6000000000000000000000000000000000000000000000000000000000000380000e0
:0a22c60000000020000000000000ee
:2022d0000000000000000000000000000000000000000000000000000000000000000000ee
:0922f000000000000000000000e5
:2022f9000000000000000000000000000000000000000000000000000000000000000000c5
:0a23190000000000000000000000ba
:2023230040004000000000000000000000000000000000000000000000000000000000001a
:0923430000000000000000000091
:20234c00000000000000000000000000000000000000000000000000000000000000000071
:0a236c000000000000000000000067
:202376000000000000000000000000000000000000000000002000000000000081000000a6
:092396000000000000000000003e
:20239f000000100000000000000000000000000000000000000000400000000000000000ce
:0a23bf000000000000000000000014
:2023c9000000000000000000000000000000000000000000000010000000000000000000e4
:0923e900000000000000000000eb
:2023f200000000000000000000000000000000000000000000000880000000000000000043
:0a24120000000000000000000000c0
:20241c00800000000000000000000000000000000000000000000000000000000000000020
:09243c0000000000000000000097
:2024450008000000000000000000000000000000000000000000000000000000000000006f
:0a246500000000000010000000005d
:20246f00000200000000000000000000000000000400000000000000000000000000000047
:09248f0000000000000000000044
:20249800000000000000000000000000000000000000000000000000000000000000000024
:0a24b800000000000000000000001a
:2024c2000000000000000000000000000000000028000000008000c034ee2004000000004c
:0924e200000000000000000000f1
:2024eb000400000000000000000000000000000000000000000c800001cda1400000000092
:0a250b0000000000000000000000c6
:202515008000000000000000002000000000000000000000002000000000000000000000e6
:092535000000020000000000009b
:20253e00000000000000000000000000000000000000000000000004000000000000000079
:0a255e000000000000000000000073
:202568000c0000000000000000000000000000000000000000000000000000000000000047
:092588000000000000000000004a
:202591000480000000000000000000000000000000000000000000000000000000000000a6
:0a25b1000000000000000000000020
:2025bb000002000000000000000014000000000000000000000001c005ac00000000000078
:0925db00000000000000000000f7
:2025e400000000000000000000000080000000000000000000000020014be54100000000c5
:0a26040000000000000000000000cc
:20260e0000400000000000000020000000000000000000000020000000000000000000002c
:09262e00000002000000000000a1
:2026370000073000000000000000000000000000000000000000000e00000000000000003e
:0a2657000000000000000000000079
:20266100083800000000000000000000000000000000000000c001c7c000000000000000d1
:0926810000000000000000000050
:20268a00048000000000000000000000000000000000000000040000200000000000000088
:0a26aa000000000000000000000026
:2026b4008000000000000000000000000000000000100000008000000000000000000000f6
:0926d400000000000000000000fd
:2026dd000000000000000000000000000000000000020000000a00000000000000000000d1
:0a26fd0000000000000000000000d3
:2027070000020000000000000000000000000000000000000000034000000000000000006d
:09272700000000000000000000a9
:2027300004000000000000000000000000000000000000000008002000000000000000005d
:0a275000000000000000000000007f
:20275a0000000000000000000000000000000000000000000000000000000000000000005f
:09277a0000000000000000000056
:20278300000000000000000000000000000000000000000000000000000000000000000036
:0a27a300000000002000000000000c
:2027ad000000000000000000000000000000000000004000000000000000000000000000cc
:0927cd0000000000000000000003
:2027d6000000000000000000000000000000000000000000000000000000000000000000e3
:0a27f60000000000000000000000d9
:202800000000000000000000000000000000000000000000000000000000000000000000b8
:09282000000000000000000000af
:2028290000000000000000000000000000000000000000000000000000000000000000008f
:0a2849000000000000000000000085
:20285300000200000000000000000000000000000000000000000000000000000000000063
:092873000000000000000000005c
:20287c0000000000000000000000000000000000000000000000000000000000000000003c
:0a289c000000000000000000000032
:2028a600000000000000000000000000000000000000000000000000000000000000000012
:0928c60000000000000000000009
:2028cf000000300000000000000000000000000000000000000000000000000000000000b9
:0a28ef0000000000000000000000df
:2028f90000000000000000000000000000000000400000000000000000000000000000007f
:09291900000000000000000000b5
:20292200000000000000000000000000000000000400000000000000000000000000000091
:0a294200000000000000000000008b
:20294c0000000000000000000000000000000000000000000000000000000000000000006b
:09296c000000000800000000005a
:2029750000000000000000000000060100000000000000000000000000000000000000003b
:0a2995000000000000000000000038
:20299f00000200000000000000000000000000000400000000000000000000000000000012
:0929bf000000000000000000000f
:2029c8000040000000000000000000000000000000000000000000000000000000000000af
:0a29e80000000000000000000000e5
:2029f200000000000000000000800000000000000000000000000000000000000000000045
:092a1200000000000000000000bb
:202a1b000400000000000000000c000000000000000000000000000000000000000000008b
:0a2a3b000000000000000000000091
:202a45008000000000000000000000000000000000000000000010000000000000000000e1
:092a650000000000000000000068
:202a6e000000000000000000000000000000000000000000000000800000000000000000c8
:0a2a8e00000000000000000000003e
:202a98000c0000000000000000000000000000000000000000000000000000000000000012
:092ab80000000000000000000015
:202ac1000400000000000000000000000000000000000000000000000000000000000000f1
:0a2ae10000000000000000000000eb
:202aeb000002000000000000000000000000000000000000000000000000000000000000c9
:092b0b00000000000000000000c1
:202b14000000000000000000000000000000000000000000000000000000000000000000a1
:0a2b34000000000000000000000097
:202b3e00000000000000000000000000000f08000000000000000000000000000000000060
:092b5e000000000000000000006e
:202b6700000030000000000000000000000af05000000000000000000000000000000000d4
:0a2b87000000000000000000000044
:202b91000c0000000000000000000000000000000000000000000000000000000000000018
:092bb1000000000000000000001b
:202bba000400000000000000000000040000000000000000000000000000000000000000f3
:0a2bda0000000000000000000000f1
:202be4008030000000000000008000000000000000000000000000000000000000000000a1
:092c0400000000000000000000c7
:202c0d000006800000000000000a0000000000000000000000000000000000000000000017
:0a2c2d00000000000000000000009d
:202c370000020000000000000000000000000000000000000000000000000000000000007b
:092c570000000000000000000074
:202c6000040000000000000000080000000000000000000000000000000000000000000048
:0a2c8000000000000000000000004a
:202c8a000000000000000000008000000000000000000000000000000000000000000000aa
:092caa0000000800000000000019
:202cb3000400000000000000000c00000000000000000000000000000000000000020000ef
:0a2cd300000000c000000000000037
:202cdd00800000000000000000000000000000000000000000000000000000000000000057
:092cfd000000000000400000008e
:202d06000000000000000000000000000000000000000000000000000000000000000000ad
:0a2d26000000000000038000000020
:202d3000080000000000000000000003c10f080000000000000000000000000000000000a0
:092d500000000000003c0000003e
:202d5900044000000000000000000000001cf0480000000000004000000000000000000082
:0a2d79000000000000000000000050
:202d83000032000000000000000000000000000000000000000200000000000000000000fc
:092da30000000000000000000027
:202dac000000000000000000000000000000000000000000000040000000000000000000c7
:0a2dcc00000000000060000000009d
:202dd600003000000000000000000003c00000000000000000000000000000000180000069
:092df6000000000000037c3c8099
:202dff0000003000000000000000000004000000000000000000014000000000000000003f
:0a2e1f000000000000001dcbc408f5
:202e29002c0000000000000000000000010f080000000000000a000000000000000000003b
:092e49000000000000340000004c
:202e5200068680000000000000000000001af05000000000000040000000000000000000ba
:0a2e7200000000000002c000000094
:202e7c00800000000000000000800000000000000000000000000000000000000000000036
:092e9c000000080000427cdf0088
:202ea5000000000000000000000a0000000000000000000000000000000000000000000003
:0a2ec500000000a00007348e540046
:202ecf000002000000000000000000000000000004000000001000000000000000000000cd
:092eef00000000000028000000b2
:202ef8000400000000000000000800000000000000000000000100000000000000000000ad
:0a2f1800000000800000000000002f
:022f22000000ad
:022f2400110298
:022f26000101a7
:202f2800000000000000000000000000000000000000000010000000000000400000000039
:092f48000000000000000040043c
:202f5100000000000000000000000000000000000000000000000000000000000000000060
:0a2f7100000000000000002c00002a
:202f7b000000000000000000000000000000000000000e0020000000000000800000000088
:092f9b0000000000000000000825
:202fa4000000000000000000000000000000000000000010000000000000000000000000fd
:0a2fc4000000000000000000000003
:202fce00000000000000000000000000000000000c00000010000000000000400000000087
:092fee00000000000300000004d3
:202ff700000000000000000000000000000000000080000000000002000000000000000038
:0a301700000000000030000000007f
:203021000000000000080000000000002000000000080000000000002000000000000080bf
:0930410000000000000000000086
:20304a00000000000000000000000000000000000000000000000000000000000000000066
:0a306a00000000000000000000005c
:2030740000000000000c00000000000030000000000c00000000000030000000000000c004
:0930940000000000000300000030
:20309d00000000000000000000000000000000000000000000000000000000000000000013
:0a30bd000000000000000000000009
:2030c7000000000000000000000000000000000008000f00000000000000000000000000d2
:0930e700000000000000000000e0
:2030f00000000000000000000000000000000000008000100100000000000000000000002f
:0a31100000000000000000000000b5
:20311a00000000000000000000000000000000000000000000000000000000000000000095
:09313a0000000000000000000884
:2031430000000000000000000000000000000000000000000200000000000000000000006a
:0a31630000000000000000000080e2
:20316d00000000000008000000000000200000000008000000000000200000000000008072
:09318d0000000000000200000037
:20319600000000000000000000000000000000000000000001000000000300000000000015
:0a31b600000000000000000000000f
:2031c0000000000000000000000000000000000000000000000000000000000000000000ef
:0931e000000000000000000000e6
:2031e90000002000000000000000000000000000000000000800000000000000000000009e
:0a32090000000000000000000000bb
:2032130000000000000000000000000000000000000000000000000000000000000000009b
:0932330000000000000000000092
:20323c00000000000000000000000000000000000000000000000000000000000000000072
:0a325c000000000000000000000068
:20326600000000000000000000000000000000000000000000000000000000000000000048
:093286000000000000000000003f
:20328f0000000000000000000000000000000000000000000000000000000000000000001f
:0a32af000000000000000000000015
:2032b9000003000000000000000000000000000000000000000000000000000000000000f2
:0932d900000400000000000000e8
:2032e2000000000000000000000000000000000000000000000000000000000000000000cc
:0a33020000000000000000000000c1
:20330c000000000000000000000000000000000000000000000000000000000000000000a1
:09332c0000000000000000000098
:20333500000020000000000000000000000000000000000000000000000000000000000058
:0a335500000000000000000000006e
:20335f0000000000000000000000000000000000000000000000000000000000000000004e
:09337f0000000000000000000045
:20338800000000000000000000000000000000000000000000000000000000000000000025
:0a33a800000000000000000000001b
:2033b2000000000000000000000000000000000000000000000000000000000000000000fb
:0933d200000000000000000000f2
:2033db000000000000000000000000000000000000000000000000000000000000000000d2
:0a33fb0000000000000000000000c8
:203405000000000000000000000000000000000000000000000000000000000000000000a7
:093425000000000000000000009e
:20342e0000000000000000000000000000000000000000000000000000000000000000007e
:0a344e000000000000000000000074
:20345800000000000000000000000000000000000000000000000000000000000000000054
:093478000000000000000000004b
:2034810000002000000000000000000000000000000000000000000000000000000000000b
:0a34a1000000000000000000000021
:2034ab00000000000000000000000000000000000000000000000000000000000000000001
:0934cb00000000000000000000f8
:2034d4000000000000000000000000000000000000000000000000000000000000000000d8
:0a34f40000000000000000000000ce
:2034fe000000000000000000000000000000000000000000000000000000000000000000ae
:09351e00000000000000000000a4
:20352700000000000000000000000000000000000000000000000000000000000000000084
:0a354700000000000000000000007a
:20355100000300000000000000000000000000000000000000000000000000000000000057
:0935710000000000000000000051
:20357a00000000000000000000000000000000000000000000000000000000000000000031
:0a359a000000000000000000000027
:2035a400000000000000000000000000000000000000000000000000000000000000000007
:0935c400000000000000000000fe
:2035cd000000200000000000000000000000000000000000000000000000000000000000be
:0a35ed0000000000000000000000d4
:2035f7000000000000000000000000000000000000000000000000000000000000000000b4
:09361700000000000000000000aa
:2036200000000000000000000000000000000000000000000000000000000000000000008a
:0a3640000000000000000000000080
:20364a00000000000000000000000000000000000000000000000000000000000000000060
:09366a0000000000000000000057
:20367300000000000000000000000000000000000000000000000000000000000000000037
:0a369300000000000000000000002d
:20369d0000000000000000000000000000000000000000000000000000000000000000000d
:0936bd0000000000000000000004
:2036c6000000000000000000000000000000000000000000000000000000000000000000e4
:0a36e60000000000000000001000ca
:2036f0000000000000000000000000000000000000000000000000000000000000000000ba
:09371000000000000000000000b0
:20371900000020000000000000000000000000000000000008000000000000000000000068
:0a3739000000000000000000000086
:20374300000000000000000000000000000000000000000000000000000000000000000066
:093763000000000000000000c09d
:20376c0000000000000000000000000000000000000000000000000000000000000000003d
:0a378c000000000000000000000033
:20379600000000000000000000000000000000000000000000000000000000000000000013
:0937b6000000000000000000000a
:2037bf000000000000000000000000000000000000000000000000000000000000000000ea
:0a37df0000000000000000000000e0
:2037e9000001000000000000000000000000000000000000000000000000000000000000bf
:09380900000000000000000000b6
:20381200000000000000000000000000000000000000000000000000000000000000000096
:0a383200000000000000000010007c
:20383c0000000000000000000000000000000000000000000000000000000000000000006c
:09385c0000000000000000000063
:2038650008002000000000000000000000000000000000000000000000000000000000001b
:0a3885000000000000000000000039
:20388f00000000000000000000000000000000000000000000000000000000000000000019
:0938af0000000000000000000010
:2038b8000000000000000000000000000000000000000000000000000000000000000000f0
:0a38d80000000000000000000000e6
:2038e2000000000000000000000000000000000000000000000000000000000000000000c6
:09390200000000000000000000bc
:20390b00080000000000000000000000000000000000000000000000000000000000000094
:0a392b000000000000000000000092
:20393500000000000000000000000000000000000000000000000000000000000000000072
:093955000000000000000000c0a9
:20395e00000000000000000000000000000000000000000000000000000000000000000049
:0a397e0000000000000000004000ff
:20398800000000000000000000000000000000000000000000000ea610000000000000005b
:0939a80000000000000000000016
:2039b1000000200000000000000000000000000000000000000400d44b00000000000000b3
:0a39d10000000000000000000000ec
:2039db00000000000000000000000000000000000000000000203e87b00e00000000003ced
:0939fb0004040008157e0000011f
:203a04004000000000000000000000000000000000000000000001401800b0000000000257
:0a3a2400c34000000143000000044d
:203a2e00000000000000000000000000000000000000000000000000000000000000000078
:093a4e000000000814c100000092
:203a570000000000000000000000000000000000000000000000000000000000000000004f
:0a3a7700000000000280f00b0000c8
:203a810000010000000000000000000000000000000000000000000005010000000000001e
:093aa100000000000000500000cc
:203aaa000000000000000000300000000000000000000000000000000008a0000000000024
:0a3aca000000000000000080001062
:203ad400000000000000000000000000000000000000000000000f3780000000100518409f
:093af40000000001414c018002b8
:203afd000000240000000000000000000000000000000000000402e04f0000000000a0a40c
:0a3b1d00000000001400000000206a
:203b270000000000000000000000000000000000000000000000000000000000481a1bc041
:093b47000000000070e000000025
:203b500000000000000000000000000000000000000000000000000000000000000b507882
:0a3b7000000000000b0ca00e000086
:203b7a00000000000000000000000000000000000000000000000000010000000000000c1e
:093b9a0000000000000000000022
:203ba3000800000000000000000000000000000000000000000000000008000000000000f2
:0a3bc30020000000000000000000d8
:203bcd000000000000000000000000000000000000000000000000000000000000000000d8
:093bed00000000000000100000bf
:203bf6000000000000000000000000000000000000000000000000000000000000000000af
:0a3c160002800000000000000080a2
:203c2000000000000000000000000000000000000000000000000000000000000000000084
:093c40006000000805e10000002d
:203c4900000020000000000000000000000000000000000008000000000000000000000033
:0a3c69000002000000b4f5000000a6
:203c73000000000000000000000000000000000000000000000000000000000006aa1ea0c3
:093c93000050500814c1000001aa
:203c9c00400000000000000000000000000000000000000000000000000090000015a0a1e2
:0a3cbc00400001000280e000000457
:203cc600000000000000000000000000000000000000000000000000078100000000000056
:093ce60000000000fb7d18000045
:203cef000000000000000000000000000000000000000000000000000008f00000000000bd
:0a3d0f00000000000f0dfd00000091
:203d1900000300000000001000000000000000000000000000000000000000000000000077
:093d39006c00010b9dc8000002a2
:203d42000000000000000000800000000000000000000000000000000000000000000000e1
:0a3d6200028004003d43c00a001077
:203d6c0000000000000000000000000000000000000000000000007cb0008000000000008b
:093d8c0000000002040101900096
:203d9500000020000000000000000000000000000000000000000203c80000000000000021
:0a3db5000000100010b4f008000038
:203dbf000000000000000000000000000000000000000000000000000000000000000020c4
:093ddf006400000015eb1814004b
:203de80000000000000000000000000000000040000000000000000000000000000000007b
:0a3e0800464000000003e00ea00099
:203e12000000000000000000000000000000000000000000000000000000000002dadf4095
:093e3200000001039d4c5000004a
:203e3b00000000000000000000000000000000000000000000000000000090001014ab30d8
:0a3e5b00000404003ec290000010b5
:203e65000000000000000000000000000000000000000000000030e6a781000000000000ff
:093e85000000300804e0381000d0
:203e8e0000000000000000000000000000000000000000000000020dde0090000000000097
:0a3eae0000010100008cb08e00003e
:203eb80040000000000000000000000000000000000000000000000000000000000000208a
:093ed8000000000a006b8180006b
:203ee100400020000000000000000000000000000000000000000000000000000000000160
:0a3f0100400000203964bb000000fe
:203f0b0000780000000000000000000000000000000000000000000000000000000000001e
:093f2b000000000a897a00a001df
:203f34004804000000000000000000000030000000000000000000000000000000000000f1
:0a3f540000000020148e801000040d
:203f5e00440000000000000000013e9c100000000000000000000000000000000000000014
:093f7e000000000a86ef001000ab
:203f87000080000000000000000003d40900000000000000000000000000000000000000ba
:0a3fa70000000004289df00800004f
:203fb100000200000000000000013c0c000000000000080000000000000000000005100088
:093fd10000000000000058a000ef
:203fda000000000000000000000003c0200000000000000000000000000000000000a0b88c
:0a3ffa00000020000000001000008d
:204004000078000000000000000000000000000000000000000000000000008000000000a4
:0940240000000000000001c000d2
:20402d000000200000000000000000000070000000000000000000000000001400000000cf
:0a404d000000000000000010000059
:2040570042780000000000000000000000000000000000000000000000000000000000008f
:094077000000000000000180c0ff
:2040800000f000000000000000000000000000000000000000000000000000000000000030
:0a40a0000000000000000010000006
:2040aa000000000000000000000000000000000000000000000000000000000000000000f6
:0940ca000000000000008000006d
:2040d300080000000000000000000000000090000000000000000000000000000000000035
:0a40f300038000000000010000003f
:2040fd00800000000000000000000000000000000000000000000000000000000000000023
:09411d0000000000000011c000c8
:20412600c000000000000000000000000000000000000000000000000000000000000000b9
:0a414600000000000000000000046b
:2041500000004000000000000000000000000000000000000000000000000000000000000f
:09417000000010000000800000b6
:204179004000200000000000000000000000000000000000080000000000000000000000be
:0a4199000000000000000b00080009
:2041a3000000000000000000000000000000140000000000000000000000000000000000e8
:0941c30000005000000001800121
:2041cc0048000000000000000000000000000000000000000000000000000000000000008b
:0a41ec0000000100000000000004c4
:2041f6000000000000000000000000000000000000000000000000000000000000000000a9
:0942160000000000c1dd00000001
:20421f00c000000000000000000000000000000000000000100000000000000000000000af
:0a423f00000000001ca6c0000008eb
:20424900000100000000000000000000000000000000000000000000000000000000000054
:0942690004000000000000a000a8
:2042720000000000000000000000000000000000000000000000000000000000000000002c
:0a42920002c0000000000010000050
:20429c000000800000000000000000000000000000000000000000000000000006af5f80ee
:0942bc0000000000000080001069
:2042c50000000400000000000000000000000000000000000000000000000000004af0009b
:0a42e50000000000000007000000c8
:2042ef000000000000000006000000000000000000000000000000000000000000000000a9
:09430f000000021b8b6f009000fe
:20431800000000000000000000000000000000000000000000000000000000000000000085
:0a433800000b00242e1d800f000072
:2043420000000000000000000000000000000000000000000000000000000000000000005b
:09436200000000000000f800005a
:20436b0008000000000000000000000000000000000000000000000000000000000000002a
:0a438b00000500000000090000001a
:20439500000000000000000000000000000000000000000000000000000000000000000008
:0943b500040030000000000000cb
:2043be000000000000000000000000000000000000000000000000000000000000000000df
:0a43de00020001000000000b0000c7
:2043e800000080000000000000000000000000000000000000000000000000000000000035
:09440800000040000000801000db
:2044110000202000000000000000000000000000000000000000000000000000000000004b
:0a443100000000000000010c000074
:20443b00000000000000000000000000000000000000000100000000000000000000000060
:09445b0000000000000058000000
:20446400080000000000000000000000000000000000000000000000000000000000000030
:0a448400000000000000008014009a
:20448e00000000000000000000000000000000000000000800000000000000000000000006
:0944ae000000000015d818000000
:2044b7000800000000000000000000000000000000000000000000000000000000000000dd
:0a44d7000000002001430500400032
:2044e1000003000000000002000000000000000000000006000000000000000000000000b0
:094501000000000015e9001000a3
:20450a00000000000000000000000000000000000000000000000000000000000000000091
:0a452a00000000002bc2a0090000f1
:20453400000000000000000000000000000000000000000000000000000000000000000067
:0945540000000000155a000000ef
:20455d0000000000000000000000000000000000000000000000000000000000000000003e
:0a457d000000000017c280000000db
:20458700000000000000000000000000000000000000000000000000000000000000000014
:0945a700006001036d48000000f2
:2045b0000000000000000000000000000000000000000000000000000000000000000000eb
:0a45d000000000002bc3e000000013
:2045da000000000000000000000000000000000000000000000000000000000000000000c1
:0945fa00000000000000000000b8
:20460300000000000000000000000000000000000000000000000000000000000000000097
:0a462300000000000000090800007c
:20462d0000000000000000000000000000000000000000000000000000000000000000006d
:09464d0000000000000010020052
:20465600000000000000000000000000000000000000000000000000000000000000000044
:0a46760000000000000000004000fa
:02468000000038
:02468200110322
:02468400010132
:204686000000000000000000000000000000000000000000000000000000004000000000d4
:0946a6000001000000000000000a
:2046af000000000000000000000000000000000000000000000000000000000000000000eb
:0a46cf0000000000000000000000e1
:2046d900000000000000000020000000000000800000000020000000000000800000000081
:0946f900000200000000000000b6
:20470200000000000000000000000000000000000000000000000000000000000000000097
:0a472200000000000000000000008d
:20472c000000000000000000000000000000000000000000000000100000004000004000dd
:09474c000001000000000700005c
:204755000000000000000800000000000020000000000000000000020000000000000c000e
:0a4775000a000000000000400000f0
:20477f0000000000000000000000000020000000000a00000000000000240000000000804c
:09479f000000000000020000000f
:2047a8000000000000000000000000000000000000000000000000000000400000000000b1
:0a47c80000000000000000000000e7
:2047d20000000000000400000000000010000000000c00000000000010000000000000c0d7
:0947f200000000000003000000bb
:2047fb0000000000000000000000000000000000000000000000000000000000000000009e
:0a481b000000000000000000000093
:2048250000000000000000000000000000000000000000000000002000340000000080009f
:0948450000000000030000000067
:20484e00000000000000000000000000000000000000000000000002000040040000000004
:0a486e0000001000001000000040e0
:20487800000000000002000000000000000000000000000000000018000000000000000006
:0948980000000000000000000017
:2048a1000000000000000000020000000000000000000000020000000000000800000000eb
:0a48c100000020000000000000804d
:2048cb000000000000080000000000002000000000080000000000002000000000000080fd
:0948eb00f00000000002000000d2
:2048f40000000000000000000000000000000000018000000000000000000004000000001f
:0a4914000100100000000000004048
:20491e00000000000000000000000000000001000000000000000000001000040000000064
:09493e0000000000000000000070
:2049470000000000000000000000000000000008000000000000000000008000c000000008
:0a4967000000000000000000000046
:20497100000000000000000000000000000000000000000000000000000000000000000026
:094991000000000000000000001d
:20499a00000000000000000000000000000000000000000000000000003880000000000045
:0a49ba0000000000000000000000f3
:2049c400000000000000000000000000000000000000000000000000000a000000000000c9
:0949e400000000000000000000ca
:2049ed000000000000000000000000000000000000000000000000000000000000000000aa
:0a4a0d00000000000000000000009f
:204a1700000200000000000000000000000000000000000000000000000c00000000000071
:094a370000000000000000000076
:204a40000000000000000000000000000000000000000000000000000001f0000000000065
:0a4a6000000000000000000000004c
:204a6a000000000000000000500000000000000000000000000000000000000000000000dc
:094a8a0000000000000000000023
:204a9300000030000000000002000000000000000000000000000000007000000000000061
:0a4ab30000280000000000000000d1
:204abd000000000000000000000000000000000000000000000000df9000000c000000005e
:094add00000000000000000000d0
:204ae600000000000000000000000000000000000000000000000a9e59000000c0000000ef
:0a4b060000000000000000000000a5
:204b10000000000000000000000000000000000000000000000411ce970000040000000007
:094b30000000000000000000007c
:204b3900000000000000000000000000000000000000000000000a156ef00001400000009e
:0a4b59000000000000000000000052
:204b63000002000000000000000000000000000000000000000000cfc000000000000000a1
:094b830000000000000000000029
:204b8c00000000000000000000000000000000000000000000000a9e587000004000000059
:0a4bac0000000000000000000000ff
:204bb6000000000000000000000000000000000000000000000111f6c00000040000000013
:094bd60002800000000000000054
:204bdf00000000000000000000000000000000000000000000000a14c9000000c00000000f
:0a4bff0000000000000000000000ac
:204c090080000000000000000000000000000000000000000000000000800000000000008b
:094c290000000000000000000082
:204c320000000000000000000000000000000000000000000000000000180000000000004a
:0a4c52000000000000000000000058
:204c5c000000400000000000000000000000000000000010000000000019000000000000cf
:094c7c000000000000000000002f
:204c850000000000000000000000000000000000000000020000000000018000000000008c
:0a4ca5000005000000000000000000
:204caf000000000000000000000000000000000000000000000000000b00000000000000da
:094ccf00000000000000000000dc
:204cd80000000000000000000000000000000000000000000000000000800000000000003c
:0a4cf80000000000000000000000b2
:204d0200000000000000000000000000000000000000000000003c00c50000000000000090
:094d220000000000000000000088
:204d2b00000010000000000000000000000000000000000000001bd57d00a000000000004b
:0a4d4b00000000000000000000005e
:204d5500000000000000000000000000000000000000000000201681a100000c00000000da
:094d750000000000000000000035
:204d7e0000000000000000000000000000000000000000000000097cfa01e000c0000000f5
:0a4d9e00000000000000000000000b
:204da800800000000000000000000000000000000000000000000000000000040000000067
:094dc800000000000000000000e2
:204dd100000000000000000000000000000000000000000000000000000000014000000081
:0a4df10000000000000000000000b8
:204dfb0000030000000000000000000000000000000000008000000000080000000000000d
:094e1b000000000000000000008e
:204e240000000000000000000000000000000000000000000000000000000000400000002e
:0a4e44000000000000000000000064
:204e4e00000000000000000000000000000000000000000000000000000000000000000044
:094e6e00000100000afa0800002e
:204e770040000000000000000000000000000000000000000000000000700000000000006b
:0a4e9700000000208035f100000c3f
:204ea100800000000000000000000000000000000000000000002f4ef00000000000000004
:094ec100380500000000000000ab
:204eca000000000000000000000000000000000000000000000000ba7b0000000000000093
:0a4eea000007200000000580000012
:204ef40000000000000000000000000000000000000000000000369690090002800507802b
:094f14000200000000000800008a
:204f1d000000000000000000000000000000000000000000000003abfb000000010001a821
:0a4f3d0000000000000005800000e5
:204f470000000000000000000000000000000000000000000000000000000000000000004a
:094f670000002000000000000021
:204f700004000000000000000000000000000000000000000000000000000000000000001d
:0a4f90000000030000000000000014
:204f9a00040000000000000000000000000000000000000000000000001f008008ff1780b6
:094fba000000000000000080006e
:204fc3000000100000000000000000000000000000000000000000000000f000000d39a8e0
:0a4fe30000000000000000000000c4
:204fed000000000000000000000000000000000000000000000000000000000000000000a4
:09500d000000000000000000009a
:20501600c000000000000000000000000000000000000000000000000000000000000000ba
:0a503600e000000000000100000c83
:20504000800040000000000000000000000000000000000000000000008000800000000090
:0950600030000000000001000016
:2050690040000000000000000000000000000000000000000000000000780004000000006b
:0a508900024000000000001e0014a9
:205093000002000000000000000000000000000000000000000000000000000000000000fb
:0950b3000000080043cb000000de
:2050bc000000000000000000000000000000000000000000000000000000000000000000d4
:0a50dc000000000089378000000486
:2050e6000000000000000000000000000000000000000000000000000000040000000000a6
:0951060000400000000000000060
:20510f00000000000000000000000000000000000000000000000000000000000000000080
:0a512f000000000000000000000076
:205139008000000000000000000000000000000000000000000000000000001000000000c6
:095159000070400000000000019c
:2051620000000000000000000000000000000000000000000000000000000000000000002d
:0a5182000000000000000000000023
:20518c00000000000000000000000000000000000000000000000000000000000000000003
:0951ac00000000000000000000fa
:2051b5000000000000000000000000000000000000000000000000000000000000000000da
:0a51d50000000000000000000000d0
:2051df000000000000000000000000000000000000000000000000000000000000000000b0
:0951ff00000000000000000000a7
:2052080000000800000000000000000000000000000000000000000000000000000000007e
:0a522800000000000000000000007c
:20523200000000000000000000000000000000000000000300000000000000100000000049
:0952520001000000000000000151
:20525b00000010000000000000000000000000000000000000000000000000000000000023
:0a527b000000000000000000000029
:205285000000000000000000000000000000000000000000000000000000400000000000c9
:0952a50000000000000000000000
:2052ae0000000000000000000000000000000000000000000000000000000a0000000000d6
:0a52ce0000000000000000000000d6
:2052d800800000000000000000000000000000000000000020000000000000000000000016
:0952f800000000000000000000ad
:2053010000000000000000000000000000000000000000000100000000000000000000008b
:0a5321000000000000000000000082
:20532b000002000000000000000000000000000000000000880000000000000000000000d8
:09534b00000080000000000000d9
:20535400000008000000000000000000000000000000000000000000000000000000000031
:0a537400000000000000000000002f
:20537e0000000000000000000000000000000000000000000000000000000000000000000f
:09539e0000000000000000000006
:2053a7000000000000000000000000000000000000000000000000000000000000000000e6
:0a53c700000000000000000040009c
:2053d1000000000000000000000000000000000000000000000000000000000000000000bc
:0953f100000000000000000000b3
:2053fa00000000000000000000000000000000000000000000000000000000000000000093
:0a541a000000000000000000000088
:20542400000000000000000000000000000000000000000000000000000000000000000068
:095444000000000000000000005f
:20544d0000000000000000000000000000000000000000000000000000000000000000003f
:0a546d000000000000000000000035
:20547700000000000000000000000000000000000000000000000000000000000000000015
:095497000000000000000000000c
:2054a0000000000000000000000000000000000000000000000000000000000000000000ec
:0a54c00000000000000000000000e2
:2054ca000000000000000000000000000000000000000000000000000000000000000000c2
:0954ea00000000000000000000b9
:2054f300000000000000000000000000000000000000000000000000000000000000000099
:0a551300000000000000000000008e
:20551d008000000000000000000000000000000000000000000000000000000000000000ee
:09553d0000000000000000000065
:20554600000000000000000000000000000000000000000000000000000000000000000045
:0a556600000000000000000000003b
:2055700080000000000000000000000000000000000000000000000000000000000000009b
:0955900000800000000000000092
:205599000000000000000000000000000000000000000000000000000000000000000000f2
:0a55b90000100000000000000800d0
:2055c3000000000000000000000000000000000000000000000000000000000000000000c8
:0955e300000000000000000000bf
:2055ec0000000000000000000000000000000000000000000000000000000000000000009f
:0a560c000000000000000000000094
:20561600000000000000000000000000000000000000000000000000000000000000000074
:095636000000000000000000006b
:20563f0000000000000000000000000000000000000000000000000000000000000000004b
:0a565f000000000000000000000041
:205669008000000000000000000000000000000000000000000000000000000000000000a1
:0956890000000000000000000018
:205692000000000000000000000000000000000000000000000000000000000000000000f8
:0a56b20000000000000000000000ee
:2056bc000001000000000000000000000000000000000000000000000000000000000000cd
:0956dc00000000000000000000c5
:2056e5000000000000000000000000000000000000000000000000000000000000000000a5
:0a570500000000000000000000009a
:20570f0000000000000000000000000000000000000000000000000000000000000000007a
:09572f0000000000000000000071
:20573800000000000000000000000000000000000000000000000000000000000000000051
:0a5758000000000000000000000047
:20576200000000000000000000000000000000000000000000000000000000000000000027
:095782000000000000000000001e
:20578b000000300000000000000000000000000000000000000000000000000000000000ce
:0a57ab0000000000000000000000f4
:2057b5000000000000000000000000000000000000000000000000000000000000000000d4
:0957d500000000000000000000cb
:2057de000000000000000000000000000000000000000000000000000000000000000000ab
:0a57fe0000000000000000000000a1
:205808008000000000000000000000000000000000000010000000000000000000000000f0
:0958280000000000000000000077
:205831000000000000000000000000000000000000000002800000000000000000000000d5
:0a585100000000000000000000004d
:20585b000003000000000000000000000000000000000000800000000000000000000000aa
:09587b0000000000000000000024
:20588400000000000000000000000000000000000000000000000000000000000000000004
:0a58a40000000000000000000000fa
:2058ae000000000000000000000000000000000000000000000000000000000000000000da
:0958ce00000000000000000000d1
:2058d7000000000000000000000000000000000000000000000000000000000000000000b1
:0a58f70000000000000000000000a7
:20590100000000000000000000000000000000000000000000000000000000000000000086
:095921000000000000000000007d
:20592a0000000000000000000000000000000000000000000000000000000000000000005d
:0a594a000000000000000000000053
:20595400000000000000000000000000000000000000000000000000000000000000000033
:095974000000000000000000002a
:20597d0000000000000000000000000000000000000000000000000000000000000000000a
:0a599d000000000000000000000000
:2059a7000000000000000000000000000000000000000000000000000000000000000000e0
:0959c700000000000000000000d7
:2059d0000000000000000000000000000000000000000000000000000000000000000000b7
:0a59f00000000000000000000000ad
:2059fa0000000000000000000000000000000000000000000000000000000000000000008d
:095a1a0000400000000000000043
:205a2300000010000000000000000000000000000000000000000000000000000000000053
:0a5a43000000100000000000000049
:205a4d00000000000000000000000000000000000000000000000000000000000000000039
:095a6d0000000000000000000030
:205a7600000000000000000000000000000000000000000000000000000000000000000010
:0a5a96000000000000000000000006
:205aa0000000000000000000000000000000000000000000000000000000000000000000e6
:095ac000000000000000000000dd
:205ac9000000000000000000000000000000000000000000000000000000000000000000bd
:0a5ae90000000000000000000000b3
:205af300000200000000000000000000000000000000000000000000000000000000000091
:095b130000000000000000000089
:205b1c00000000000000000000000000000000000000000000000000000000000000000069
:0a5b3c00000000000000000000005f
:205b460000000000000000000000000000000000000000000000000000000000000000003f
:095b660000000000000000000036
:205b6f00000000000000000000000000000000000000000000000000000000000000000016
:0a5b8f00000000000000000000000c
:205b99000000000000000000000000000000000000000000000000000000000000000000ec
:095bb900000000000000000000e3
:205bc2000000000000000000000000000000000000000000000000000000000000000000c3
:0a5be20000000000000000000000b9
:205bec00000000000000000000000000000000000000000000000000000000000000000099
:095c0c000000000000000000008f
:205c150000000000000000000000000000000000000000000000000000000000000000006f
:0a5c35000000000000000000000065
:205c3f00000000000000000000000000000000000000000000000000000040000000000005
:095c5f000000000000000000003c
:205c680000000000000000000000000000000000000000000000000000000200000000001a
:0a5c88000000000000000000000012
:205c92000000000000000000000000000000000000000000000000000000000000000000f2
:095cb200000000000000000000e9
:205cbb00000030000000000000000000000000000000000000000000000000000000000099
:0a5cdb0000000000000000000000bf
:205ce50080000000000000000000000000000000000000000000000000000000000000001f
:095d050000000000000000000095
:205d0e000000000000000000800000000000000000000000000000000000000000000000f5
:0a5d2e000008000000000000000063
:205d380080010000000000004000000000000000000000000000000000000000000000008a
:095d580000000000000000000042
:205d6100000000000000000000000000000000000000000000000000000000000000000022
:0a5d81000000000000000000000018
:205d8b00000240000000000000000000000000000000000080000000000000000000000036
:095dab000050000000000000009f
:205db4000000000000000000000000000000000000000000000000000000000000000000cf
:0a5dd40000000000000000000000c5
:025dde000000c3
:035de00062003f1f
:035de300720080cb
:025de6001100aa
:035de80082000036
:025deb000103b2
:085ded000000000000000000ae
:085df5000000000000000000a6
:085dfd0000000000000000009e
:085e0500000000000000000095
:0261ed000000b0
:0361ef00820080ab
:0261f2000103a7
:0861f4000000000000000000a3
:0861fc0000000000000000009b
:08620400000000000000000092
:08620c0000000000000000008a
:0265f4000000a5
:0265f600110191
:0365f8008200001e
:0265fb0001039a
:0865fd00000000000000000096
:0866050000000000000000008d
:08660d00000000000000000085
:0866150000000000000000007d
:0269fd00000098
:0369ff0082008093
:026a020001038e
:086a040000000000000000008a
:086a0c00000000000000000082
:086a140000000000000000007a
:086a1c00000000000000000072
:026e040000008c
:026e0600110277
:036e080082000005
:026e0b00010381
:086e0d0000000000000000007d
:086e1500000000000000000075
:086e1d0000000000000000006d
:086e2500000000000000000065
:02720d0000007f
:03720f008200807a
:02721200010376
:08721400000000000000000072
:08721c0000000000000000006a
:08722400000000000000000062
:08722c0000000000000000005a
:02761400000074
:0276160011035e
:03761800820000ed
:02761b00010369
:08761d00000000000000000065
:0876250000000000000000005d
:08762d00000000000000000055
:0876350000000000000000004d
:027a1d00000067
:037a1f0082008062
:027a220001035e
:087a240000000000000000005a
:087a2c00000000000000000052
:087a340000000000000000004a
:087a3c00000000000000000042
:027e240000005c
:017e26002239
:027e2700b84160
:027e2900010650
:00000001FF
