:02000000ff00ff
:080002004c6174746963650030
:17000a00694345637562653220323032302e31322e32373934330071
:16002100506172743a2069434534304858314b2d56513130300002
:1a003700446174653a20466562203120323032352031303a33333a333400ce
:0200510000ffae
:040053007eaa997e6a
:02005700510056
:0200590001059f
:03005b00920020f0
:03005e0062014bf1
:030061007200909a
:0300640082000017
:02006700110086
:02006900010193
:20006b00000000000000000000000000000000000000000000000000000000000000000075
:09008b000000000000000000006c
:2000940000000000000000000000000000000000000000000000000000000000000000004c
:0a00b4000000000000000000000042
:2000be00000000000000000000000000000000000000000000000000000000000000000022
:0900de0000000000000000000019
:2000e7000000000000000000000000000000000000000000000000000000000000000000f9
:0a01070000000000000000000000ee
:200111000000000000000000000000000000000000000000000000000000000000000000ce
:09013100000000000000000000c5
:20013a000000000000000000000000000000000000000000000000000000000000000000a5
:0a015a00000000000000000000009b
:200164000000000000040000000000001000000000000040000000001000000000000040d7
:0901840000000000000100000071
:20018d00000000000000000000000000000000000000000000000000000000000000000052
:0a01ad000000000000000000000048
:2001b700000000000004000000000000100000000000004000000000100000000000004084
:0901d7000000000000010000001e
:2001e0000000000000000000000000000000000000000000000000000000000000000000ff
:0a02000000000000000000000000f4
:20020a000000000000000000000000000000000000000000000000000000000000000000d4
:09022a00000000000000000000cb
:200233000000000000000000000000000000000000000000000000000000000000000000ab
:0a02530000000000000000000000a1
:20025d00000000000000000000000000000000000000000000000000000000000000000081
:09027d0000000000000000000078
:20028600000000000000000000000000000000000000000000000000000000000000000058
:0a02a600000000000000000000004e
:2002b00000000000000000000000000000000000000000000000000000000000000000002e
:0902d00000000000000000000025
:2002d900000000000000000000000000000000000000000000000000000000000000000005
:0a02f90000000000000000000000fb
:200303000000000000000000000000000000000000000000000000000000000000000000da
:09032300000000000000000000d1
:20032c00000000000000000000000000000000000040000000000000000000000000000071
:0a034c0000000000000000000000a7
:20035600000000000000000000000000000000000000000000000000000000000000000087
:090376000000000000000000007e
:20037f0000000000000000000000000000000000000000000000000000000000000000005e
:0a039f000000000000000000000054
:2003a900000000000000000000000000000000000000000000000000000000000000000034
:0903c9000000000000000000002b
:2003d20000000000000000000000000000000000000000000000000000000000000000000b
:0a03f2000000000000000000000001
:2003fc000002000000000000000000000000000000000000000000000000000000000000df
:09041c00000000000000000000d7
:200425000000000000000000000000000000000000000000000000000000000000000000b7
:0a04450000000000000000000000ad
:20044f0000000000000000000000000000000000000000000000000000000000000000008d
:09046f0000000000000000000084
:20047800000020000000000000000000000000000000000000000000000000000000000044
:0a049800000000000000000000005a
:2004a20000000000000000000000000000000000000000000000000000000000000000003a
:0904c20000000000000000000031
:2004cb00000000000000000000000000000000000000000000000000000000000000000011
:0a04eb000000000000000000000007
:2004f5000000000000000000000000000000000000000000000000000000000000000000e7
:09051500000000000000000000dd
:20051e000000000000000000000000000000000000000000000000000000000000000000bd
:0a053e0000000000000000000000b3
:20054800000000000000000000000000000000000000000000000000000000000000000093
:090568000000000000000000008a
:2005710000000000000000000000000000000000000000000000000000000000000000006a
:0a0591000000000000000000000060
:20059b00000000000000000000000000000000000000000000000000000000000000000040
:0905bb0000000000000000000037
:2005c400000000000000000000000000000000000000000000000000000000000000000017
:0a05e400000000000000000000000d
:2005ee000000000000000000000000000000000000000000000000000000000000000000ed
:09060e00000000000000000000e3
:200617000000000000000000000000000000000000000000000000000000000000000000c3
:0a06370000000000000000000000b9
:20064100000000000000000000000000000000000000000000000000000000000000000099
:0906610000000000000000000090
:20066a00000000000000000000000000000000000000000000000000000000000000000070
:0a068a000000000000000000000066
:20069400000200000000000000000000000000000000000000000000000000000000000044
:0906b4000000000000000000003d
:2006bd0000000000000000000000000000000000000000000000000000000000000000001d
:0a06dd000000000000000000000013
:2006e7000000000000000000000000000000000000000000000000000000000000000000f3
:09070700000000000000000000e9
:200710000000200000000000000000000000000000000000000000000000000000000000a9
:0a07300000000000000000000000bf
:20073a0000000000000000000000000000000000000000000000000000000000000000009f
:09075a0000000000000000000096
:20076300000000000000000000000000000000000000000000000000000000000000000076
:0a078300000000000000000000006c
:20078d0000000000000000000000000000000000000000000000000000000000000000004c
:0907ad0000000000000000000043
:2007b600000000000000000000000000000000000000000000000000000000000000000023
:0a07d6000000000000000000000019
:2007e0000000000000000000000000000000000000000000000000000000000000000000f9
:09080000000000000000000000ef
:200809000000000000000000000000000000000000000000000000000000000000000000cf
:0a08290000000000000000000000c5
:200833000000000000000000000000000000000000000000000000000000000000000000a5
:090853000000000000000000009c
:20085c0000000000000000000000000000000000004000000000000000000000000000003c
:0a087c000000000000000000000072
:20088600000000000000000000000000000000000000000000000000000000000000000052
:0908a60000000000000000000049
:2008af00000000000000000000000000000000000000000000000000000000000000000029
:0a08cf00000000000000000000001f
:2008d9000000000000000000000000000000000000000000000000000000000000000000ff
:0908f900000000000000000000f6
:200902000000000000000000000000000000000000000000000000000000000000000000d5
:0a09220000000000000000000000cb
:20092c000002000000000000000000000000000000000000000000000000000000000000a9
:09094c00000000000000000000a2
:20095500000000000000000000000000000000000000000000000000000000000000000082
:0a0975000000000000000000000078
:20097f00000000000000000000000000000000000000000000000000000000000000000058
:09099f000000000000000000004f
:2009a80000002000000000000000000000000000000000000000000000000000000000000f
:0a09c8000000000000000000000025
:2009d200000000000000000000000000000000000000000000000000000000000000000005
:0909f200000000000000000000fc
:2009fb000000000000000000000000000000000000000000000000000000000000000000dc
:0a0a1b0000000000000000000000d1
:200a25000000000000000000000000000000000000000000000000000000000000000000b1
:090a4500000000000000000000a8
:200a4e00000000000000000000000000000000000000000000000000000000000000000088
:0a0a6e00000000000000000000007e
:200a780000000000000000000000000000000000000000000000000000000000000000005e
:090a980000000000000000000055
:200aa100000000000000000000000000000000000000000000000000000000000000000035
:0a0ac100000000000000000000002b
:200acb0000000000000000000000000000000000000000000000000000000000000000000b
:090aeb0000000000000000000002
:200af4000000000000000000000000000000000000000000000000000000000000000000e2
:0a0b140000000000000000000000d7
:200b1e000000000000000000000000000000000000000000000000000000000000000000b7
:090b3e00000000000000000000ae
:200b470000000000000000000000000000000000000000000000000000000000000000008e
:0a0b67000000000000000000000084
:200b7100000000000000000000000000000000000000000000000000000000000000000064
:090b91000000000000000000005b
:200b9a0000000000000000000000000000000000000000000000000000000000000000003b
:0a0bba000000000000000000000031
:200bc40000020000000000000000000000000000000000000000000000000000000000000f
:090be40000000000000000000008
:200bed000000000000000000000000000000000000000000000000000000000000000000e8
:0a0c0d0000000000000000000000dd
:200c17000000000000000000000000000000000000000000000000000000000000000000bd
:090c3700000000000000000000b4
:200c4000000020000000000000000000000000000000000000000000000000000000000074
:0a0c6000000000000000000000008a
:200c6a0000000000000000000000000000000000000000000000000000000000000000006a
:090c8a0000000000000000000061
:200c9300000000000000000000000000000000000000000000000000000000000000000041
:0a0cb3000000000000000000000037
:200cbd00000000000000000000000000000000000000000000000000000000000000000017
:090cdd000000000000000000000e
:200ce6000000000000000000000000000000000000000000000000000000000000000000ee
:0a0d060000000000000000000000e3
:200d10000000000000000000000000000000000000000000000000000000000000000000c3
:090d3000000000000000000000ba
:200d390000000000000000000000000000000000000000000000000000000000000000009a
:0a0d59000000000000000000000090
:200d6300000000000000000000000000000000000000000000000000000000000000000070
:090d830000000000000000000067
:200d8c00000000000000000000000000000000000040000000000000000000000000000007
:0a0dac00000000000000000000003d
:200db60000000000000000000000000000000000000000000000000000000000000000001d
:090dd60000000000000000000014
:200ddf000000000000000000000000000000000000000000000000000000000000000000f4
:0a0dff0000000000000000000000ea
:200e09000000000000000000000000000000000000000000000000000000000000000000c9
:090e2900000000000000000000c0
:200e32000000000000000000000000000000000000000000000000000000000000000000a0
:0a0e52000000000000000000000096
:200e5c00000200000000000000000000000000000000000000000000000000000000000074
:090e7c000000000000000000006d
:200e850000000000000000000000000000000000000000000000000000000000000000004d
:0a0ea5000000000000000000000043
:200eaf00000000000000000000000000000000000000000000000000000000000000000023
:090ecf000000000000000000001a
:200ed8000000200000000000000000000000000000000000000000000000000000000000da
:0a0ef80000000000000000000000f0
:200f02000000000000000000000000000000000000000000000000000000000000000000cf
:090f2200000000000000000000c6
:200f2b000000000000000000000000000000000000000000000000000000000000000000a6
:0a0f4b00000000000000000000009c
:200f550000000000000000000000000000000000000000000000000000000000000000007c
:090f750000000000000000000073
:200f7e00000000000000000000000000000000000000000000000000000000000000000053
:0a0f9e000000000000000000000049
:200fa800000000000000000000000000000000000000000000000000000000000000000029
:090fc80000000000000000000020
:200fd100000000000000000000000000000000000000000000000000000000000000000000
:0a0ff10000000000000000000000f6
:200ffb000000000000000000000000000000000000000000000000000000000000000000d6
:09101b00000000000000000000cc
:201024000000000000000000000000000000000000000000000000000000000000000000ac
:0a10440000000000000000000000a2
:20104e00000000000000000000000000000000000000000000000000000000000000000082
:09106e0000000000000000000079
:20107700000000000000000000000000000000000000000000000000000000000000000059
:0a109700000000000000000000004f
:2010a10000000000000000000000000000000000000000000000000000000000000000002f
:0910c10000000000000000000026
:2010ca00000000000000000000000000000000000000000000000000000000000000000006
:0a10ea0000000000000000000000fc
:2010f4000002000000000000000000000000000000000000000000000000000000000000da
:09111400000000000000000000d2
:20111d000000000000000000000000000000000000000000000000000000000000000000b2
:0a113d0000000000000000000000a8
:20114700000000000000000000000000000000000000000000000000000000000000000088
:091167000000000000000000007f
:2011700000002000000000000000000000000000000000000000000000000000000000003f
:0a1190000000000000000000000055
:20119a00000000000000000000000000000000000000000000000000000000000000000035
:0911ba000000000000000000002c
:2011c30000000000000000000000000000000000000000000000000000000000000000000c
:0a11e3000000000000000000000002
:2011ed000000000000000000000000000000000000000000000000000000000000000000e2
:09120d00000000000000000000d8
:201216000000000000000000000000000000000000000000000000000000000000000000b8
:0a12360000000000000000000000ae
:2012400000000000000000000000000000000000000000000000000000000000000000008e
:0912600000000000000000000085
:20126900000000000000000000000000000000000000000000000000000000000000000065
:0a128900000000000000000000005b
:2012930000000000000000000000000000000000000000000000000000000000000000003b
:0912b30000000000000000000032
:2012bc000000000000000000000000000000000000400000000000000000000000000000d2
:0a12dc000000000000000000000008
:2012e6000000000000000000000000000000000000000000000000000000000000000000e8
:09130600000000000000000000de
:20130f000000000000000000000000000000000000000000000000000000000000000000be
:0a132f0000000000000000000000b4
:20133900000000000000000000000000000000000000000000000000000000000000000094
:091359000000000000000000008b
:2013620000000000000000000000000000000000000000000000000000000000000000006b
:0a1382000000000000000000000061
:20138c0000020000000000000000000000000000000000000000000000000000000000003f
:0913ac0000000000000000000038
:2013b500000000000000000000000000000000000000000000000000000000000000000018
:0a13d500000000000000000000000e
:2013df000000000000000000000000000000000000000000000000000000000000000000ee
:0913ff00000000000000000000e5
:201408000000200000000000000000000000000000000000000000000000000000000000a4
:0a14280000000000000000000000ba
:2014320000000000000000000000000000000000000000000000000000000000000000009a
:0914520000000000000000000091
:20145b00000000000000000000000000000000000000000000000000000000000000000071
:0a147b000000000000000000000067
:20148500000000000000000000000000000000000000000000000000000000000000000047
:0914a5000000000000000000003e
:2014ae0000000000000000000000000000000000000000000000000000000000000000001e
:0a14ce000000000000000000000014
:2014d8000000000000000000000000000000000000000000000000000000000000000000f4
:0914f800000000000000000000eb
:201501000000000000000000000000000000000000000000000000000000000000000000ca
:0a15210000000000000000000000c0
:20152b000000000000000000000000000000000000000000000000000000000000000000a0
:09154b0000000000000000000097
:20155400000000000000000000000000000000000000000000000000000000000000000077
:0a157400000000000000000000006d
:20157e0000000000000000000000000000000000000000000000000000000000000000004d
:09159e0000000000000000000044
:2015a700000000000000000000000000000000000000000000000000000000000000000024
:0a15c700000000000000000000001a
:2015d1000000000000000000000000000000000000000000000000000000000000000000fa
:0915f100000000000000000000f1
:2015fa000000000000000000000000000000000000000000000000000000000000000000d1
:0a161a0000000000000000000000c6
:201624000002000000000000000000000000000000000000000000000000000000000000a4
:091644000000000000000000009d
:20164d0000000000000000000000000000000000000000000000000000000000000000007d
:0a166d000000000000000000000073
:20167700000000000000000000000000000000000000000000000000000000000000000053
:091697000000000000000000004a
:2016a00000002000000000000000000000000000000000000000000000000000000000000a
:0a16c0000000000000000000000020
:2016ca00000000000000000000000000000000000000000000000000000000000000000000
:0916ea00000000000000000000f7
:2016f3000000000000000000000000000000000000000000000000000000000000000000d7
:0a17130000000000000000000000cc
:20171d000000000000000000000000000000000000000000000000000000000000000000ac
:09173d00000000000000000000a3
:20174600000000000000000000000000000000000000000000000000000000000000000083
:0a1766000000000000000000000079
:20177000000000000000000000000000000000000000000000000000000000000000000059
:0917900000000000000000000050
:20179900000000000000000000000000000000000000000000000000000000000000000030
:0a17b9000000000000000000000026
:0217c300000024
:0217c500110110
:0217c70001011e
:2017c900000000000000000000000000000000000000000000000000000000000000000000
:0917e90000000080000000000077
:2017f2000000000000000000000000000000000000000000000000000000000000000000d7
:0a18120000000000000000000000cc
:20181c00000000000000000000000000000000000000000000000000001800000000000094
:09183c0000000040000000000063
:20184500000000000000000000000000000000000000000000000000000000000000000083
:0a1865000000000000000000000079
:20186f00000000000000000000000000000000000000000000000000000000000000000059
:09188f00000000800000000000d0
:20189800000000000000000000000000000000000000000000000000000000000000000030
:0a18b80000000000000000300000f6
:2018c200000000000004000000000000100000000000004000000000100000000000004062
:0918e200000000000001000000fc
:2018eb000000000000000000000000000000000000000000000000000000000000000000dd
:0a190b0000000000000000000000d2
:2019150000000000000400000000000010000000000000400000000010000000000000400e
:09193500000000000001000000a8
:20193e00000000000000000000000000000000000000000000000000000000000000000089
:0a195e00000000000000000000007f
:2019680000000000000000000000000000000000000000000000000000000000000000005f
:0919880000000000000000000056
:20199100000000000000000000000000000000000000000000000000000000000000000036
:0a19b100000000000000000000002c
:2019bb0000000000000000000000000000000000000000000000000000000000000000000c
:0919db000000000005800000007e
:2019e4000000000000000000000000000000000000000000000000000000000000000000e3
:0a1a040000000000000000000000d8
:201a0e000000000000000000000000000000000000000000000000000000000000000000b8
:091a2e00000000000001000000ae
:201a370000000000000000000000000000000000000000000000000000000000000000008f
:0a1a57000000000000000000000085
:201a6100000000000000000000000000000000000000000000000000000000000000000065
:091a81000000000000000000005c
:201a8a0000000000000000000000000000000000000000000000000000000000000000003c
:0a1aaa000000000000000000000032
:201ab400000000000000000000000000000000000000000000000000000000000000000012
:091ad40000000000000000000009
:201add000000000000000000000000000000000000000000000000000000000000000000e9
:0a1afd0000000000000000000000df
:201b07000000000000000000000000000000000000000000000000000000000000000000be
:091b2700000000000000000000b5
:201b3000000000000000000000000000000000000000000000000000000000000000000095
:0a1b5000000000000000000000008b
:201b5a00000200000000000000000000000000000000000000000000000000000000000069
:091b7a0000000000000000000062
:201b8300000000000000000000000000000000000000000000000000000000000000000042
:0a1ba3000000000000000000000038
:201bad00000000000000000000000000000000000000000000000000000000000000000018
:091bcd000000000000000000000f
:201bd6000000200000000000000000000000000000000000000000000000000000000000cf
:0a1bf60000000000000000000000e5
:201c00000000000000000000000000000000000000000000000000000000000000000000c4
:091c2000000000000000000000bb
:201c290000000000000000000000000000000000000000000000000000000000000000009b
:0a1c49000000000000000000000091
:201c5300000000000000000000000000000000000000000000000000000000000000000071
:091c730000000000000000000068
:201c7c00000000000000000000000000000000000000000000000000000000000000000048
:0a1c9c00000000000000000000003e
:201ca60000000000000000000000000000000000000000000000000000000000000000001e
:091cc60000000000000000000015
:201ccf000000000000000000000000000000000000000000000000000000000000000000f5
:0a1cef0000000000000000000000eb
:201cf9000000000000000000000000000000000000000000000000000000000000000000cb
:091d1900000000000000000000c1
:201d22000000000000000000000000000000000000000000000000000000000000000000a1
:0a1d42000000000000000000000097
:201d4c00000000000000000000000000000000000000000000000000000000000000000077
:091d6c000000000000000000006e
:201d750000000000000000000000000000000000000000000000000000000000000000004e
:0a1d95000000000000000000000044
:201d9f00000000000000000000000000000000000000000000000000000000000000000024
:091dbf000000000000000000001b
:201dc8000000000000000000000000000000000000000000000000000000000000000000fb
:0a1de80000000000000000000000f1
:201df2000002000000000000000000000000000000000000000000000000000000000000cf
:091e1200000000000000000000c7
:201e1b000000000000000000000000000000000000000000000000000000000000000000a7
:0a1e3b00000000000000000000009d
:201e450000000000000000000000000000000000000000000000000000000000000000007d
:091e650000000000000000000074
:201e6e00000020000000000000000000000000000000000000000000000000000000000034
:0a1e8e00000000000000000000004a
:201e980000000000000000000000000000000000000000000000000000000000000000002a
:091eb80000000000000000000021
:201ec100000000000000000000000000000000000000000000000000000000000000000001
:0a1ee10000000000000000000000f7
:201eeb000000000000000000000000000000000000000000000000000000000000000000d7
:091f0b00000000000000000000cd
:201f14000000000000000000000000000000000000000000000000000000000000000000ad
:0a1f340000000000000000000000a3
:201f3e0000000000000000000000000000000000040000000000000000000000000000007f
:091f5e000000000000000000007a
:201f670000000000000000000000000000000000000000000000000000000000000000005a
:0a1f87000000000000000000000050
:201f910000000000000000000000000000000000000000000000040000000000000000002c
:091fb10000000000000000000027
:201fba00040000000000000000000000000000000000000000000000000000000000000003
:0a1fda0000000000000000000000fd
:201fe40080000000000000000000000000000000000000000000000000000000000000005d
:09200400000000000000000000d3
:20200d000000000000000000000000000000000000000000000000000000000000000000b3
:0a202d0000000000000000000000a9
:202037000c000000000000000000000000000000000000000000000000000000000000007d
:0920570000000000000000000080
:202060000400000000000000000000000000000000000000000080000000000000000000dc
:0a2080000000000000000000000056
:20208a00000200000000000000000000000000000000000000000000000000000000000034
:0920aa000000000000000000002d
:2020b30000000000000000000000000000000000000000000000000000000000000000000d
:0a20d3000000000000000000000003
:2020dd000000000000000000000000000000000000000000000000000000000000000000e3
:0920fd00000000000000000000da
:20210600000030000000000000000000000000000000000000000000000000000000000089
:0a21260000000000000000000000af
:2021300000000000000000000000000000000000000000000000000000000000000000008f
:0921500000000000000000000086
:20215900000000000000000000000000000000000000000000000000000000000000000066
:0a217900000000000000000000005c
:202183000040000000000000000000000000000000000000000000000000000000000000fc
:0921a30000000000000000000033
:2021ac0000070000000000000000000000000000000000000000000000000000000000000c
:0a21cc000000000000000000000009
:2021d6000000000000000000000000000000000000000000000000000000000000000000e9
:0921f600000000000000000000e0
:2021ff000000000000000000000000000000000000000000000000000000000000000000c0
:0a221f0000000000000000000000b5
:20222900000000000000000000000000000000000000000000000000000000000000000095
:092249000000000000000000008c
:2022520000000000000000000000000000000000000000000000000000000000000000006c
:0a2272000000000000000000000062
:20227c008000000000000000000000000000000000000000000000000000000000000000c2
:09229c0000000000000000000039
:2022a500000000000000000000000000000000000000000000000000000000000000000019
:0a22c500000000000000000000000f
:2022cf000000000000000000000000000000000000000000000000000000000000000000ef
:0922ef00000000000000000000e6
:2022f8000000000000000000000000000000000000000000000000000000000000000000c6
:0a23180000000000000000000000bb
:2023220040000000000000000000000000000000000000000000000000000000000000005b
:0923420000000000000000000092
:20234b00000000000000000000000000000000000000000000000000000000000000000072
:0a236b000000000000000000000068
:20237500000000000000000000000000000000000000000000000000000000000000000048
:092395000000000000000000003f
:20239e0000001000000000000000000000000000000000000000000000000000000000000f
:0a23be000000000000000000000015
:2023c8000000000000000000000000000000000000000000000000000000000000000000f5
:0923e800000000000000000000ec
:2023f1000000000000000000000000000000000000000000000000000000000000000000cc
:0a24110000000000000000000000c1
:20241b00800000000000000000000000000000000000000000000000000000000000000021
:09243b0000000000000000000098
:20244400080000000000000000000000000000000000000000000000000000000000000070
:0a246400000000000000000000006e
:20246e00000200000000000000000000000000000400000000000000000000000000000048
:09248e0000000000000000000045
:20249700000000000000000000000000000000000000000000000000000000000000000025
:0a24b700000000000000000000001b
:2024c1000000000000000000000000000000000000000000000000000000000000000000fb
:0924e100000000000000000000f2
:2024ea000000000000000000000000000000000000000000000000000000000000000000d2
:0a250a0000000000000000000000c7
:202514000000000000000000000000000000000000000000000000000000000000000000a7
:092534000000000000000000009e
:20253d0000000000000000000000000000000000000000000000000000000000000000007e
:0a255d000000000000000000000074
:20256700000000000000000000000000000000000000000000000000000000000000000054
:092587000000000000000000004b
:2025900000000000000000000000000000000000000000000000000000000000000000002b
:0a25b0000000000000000000000021
:2025ba000002000000000000000000000000000000000000000000000000000000000000ff
:0925da00000000000000000000f8
:2025e3000000000000000000000000000000000000000000000000000000000000000000d8
:0a26030000000000000000000000cd
:20260d000000000000000000000000000000000000000000000000000000000000000000ad
:09262d00000000000000000000a4
:20263600000020000000000000000000000000000000000000000000000000000000000064
:0a265600000000000000000000007a
:2026600000000000000000000000000000000000000000000000000000000000000000005a
:0926800000000000000000000051
:20268900000000000000000000000000000000000000000000000000000000000000000031
:0a26a9000000000000000000000027
:2026b300000000000000000000000000000000000000000000000000000000000000000007
:0926d300000000000000000000fe
:2026dc000000000000000000000000000000000000000000000000000000000000000000de
:0a26fc0000000000000000000000d4
:202706000000000000000000000000000000000000000000000000000000000000000000b3
:09272600000000000000000000aa
:20272f0000000000000000000000000000000000000000000000000000000000000000008a
:0a274f000000000000000000000080
:20275900000000000000000000000000000000000000000000000000000000000000000060
:0927790000000000000000000057
:20278200000000000000000000000000000000000000000000000000000000000000000037
:0a27a200000000000000000000002d
:2027ac0000000000000000000000000000000000000000000000000000000000000000000d
:0927cc0000000000000000000004
:2027d5000000000000000000000000000000000000000000000000000000000000000000e4
:0a27f50000000000000000000000da
:2027ff000000000000000000000000000000000000000000000000000000000000000000ba
:09281f00000000000000000000b0
:20282800000000000000000000000000000000000000000000000000000000000000000090
:0a2848000000000000000000000086
:20285200000200000000000000000000000000000000000000000000000000000000000064
:092872000000000000000000005d
:20287b0000000000000000000000000000000000000000000000000000000000000000003d
:0a289b000000000000000000000033
:2028a500000000000000000000000000000000000000000000000000000000000000000013
:0928c5000000000000000000000a
:2028ce000000200000000000000000000000000000000000000000000000000000000000ca
:0a28ee0000000000000000000000e0
:2028f8000000000000000000000000000000000000000000000000000000000000000000c0
:09291800000000000000000000b6
:20292100000000000000000000000000000000000000000000000000000000000000000096
:0a294100000000000000000000008c
:20294b0000000000000000000000000000000000000000000000000000000000000000006c
:09296b0000000000000000000063
:20297400000000000000000000000000000000000000000000000000000000000000000043
:0a2994000000000000000000000039
:20299e00000000000000000000000000000000000400000000000000000000000000000015
:0929be0000000000000000000010
:2029c7000000000000000000000000000000000000000000000000000000000000000000f0
:0a29e70000000000000000000000e6
:2029f1000000000000000000000000000000000000000000000000000000000000000000c6
:092a1100000000000000000000bc
:202a1a00040000000000000000000000000000000000000000000000000000000000000098
:0a2a3a000000000000000000000092
:202a44008000000000000000000000000000000000000000000000000000000000000000f2
:092a640000000000000000000069
:202a6d00000000000000000000000000000000000000000000000000000000000000000049
:0a2a8d00000000000000000000003f
:202a97000c000000000000000000000000000000000000000004000000000000000000000f
:092ab70000000000000000000016
:202ac0000407000000000000000000000000000000000000000020000000000000000000cb
:0a2ae00000000000000000000000ec
:202aea000002000000000000000000000000000000000000000000000000000000000000ca
:092b0a00000000000000000000c2
:202b13000000000000000000000000000000000000000000000000000000000000000000a2
:0a2b33000000000000000000000098
:202b3d00000000000000000000000000000000000000000000000000000000000000000078
:092b5d000000000000000000006f
:202b66000000300000000000000000000000000000000000000040000000000000000000df
:0a2b86000000000000000000000045
:202b90000c0000000000000000000000000000000000000000000000000000000000000019
:092bb0000000000000000000001c
:202bb9000440000000000000000000000000000000000000000000000000000000000000b8
:0a2bd90000000000000000000000f2
:202be300800000000000000000000000000000000000000000000000000000000000000052
:092c0300000000000000000000c8
:202c0c000007000000000000000000000000000000000000000000000000000000000000a1
:0a2c2c00000000000000000000009e
:202c360000020000000000000000000000000000000000000000000000000000000000007c
:092c560000000000000000000075
:202c5f00040000000000000000000000000000000000000000000000000000000000000051
:0a2c7f00000000000000000000004b
:202c8900003000000000000000000000000000000000000000000000000ff080000000007c
:092ca90000000000000000000022
:202cb2000400000000000000000000000000000000000000000000000000ff0800000000f7
:0a2cd20000000000000000000000f8
:202cdc00800000000000000000000000000000000000000000000000000000000000000058
:092cfc00000000000000000000cf
:202d05000000000000000000000000000000000000000000000000000000000000000000ae
:0a2d250000000000000000000000a4
:202d2f000c0000000000000000000000000000000000000000000000000000000000000078
:092d4f000000000000000000007b
:202d580004c000000000000000000000000000000000000000000000000000000000000097
:0a2d78000000000000000000000051
:202d820000020000000000000000000000000000000000000000000000000000000000002f
:092da20000000000000000000028
:202dab00000000000000000000000000000000000000000000000000000000000000000008
:0a2dcb0000000000000000000000fe
:202dd5000030000000000000000000000000000000000000000000000000000000000000ae
:092df500000000000000000000d5
:202dfe00000030000000000000000000000000000000000000000000000000000000000085
:0a2e1e0000000000000000000000aa
:202e28000c000000000000000000000000000000000000000000000000000000000000007e
:092e480000000000000000000081
:202e51000480000000000000000000000000000000000000000000000000000000000000dd
:0a2e71000000000000000000000057
:202e7b008000000000000000000000000000000000000000000000000000000000000000b7
:092e9b000000000000000000002e
:202ea40000000000000000000000000000000000000000000000000000000000000000000e
:0a2ec4000000000000000000000004
:202ece000002000000000000000000000000000004000000000000000000000000000000de
:092eee00000000000000000000db
:202ef7000400000000000000000000000000000000000000000000000000000000000000b7
:0a2f170000000000000000000000b0
:022f21000000ae
:022f2300110299
:022f25000101a8
:202f27000000000000000000000000000000000000000e001000000000000040000000002c
:092f47000000000000000000047d
:202f5000000000000000000000000000000000000000010000000000000000000000000060
:0a2f70000000000000000000000057
:202f7a00000000000000000000000000000000000000000020000000003000800000000067
:092f9a0000000000000000000826
:202fa30000000000000000000000000000000000000000000000000100000000000000000d
:0a2fc3000000000000000000000004
:202fcd0000000000000000000000000000000000080000001000003000000040000000005c
:092fed00000000000000000004d7
:202ff600000000000000000000000000000000000080000000000002000000000000000039
:0a3016000000000000300000000080
:203020000000000000080000000000002000000000080000000000002000000000000080c0
:0930400000000000000200000085
:20304900000000000000000000000000000000000000000000000000000000000000000067
:0a306900000000000000000000005d
:2030730000000000000800000000000020000000000c000000000000200000000000008069
:0930930000000000000200000032
:20309c00000000000000000000000000000000000000000000000000000000000000000014
:0a30bc00000000000000000000000a
:2030c600000000000000000000000000000000000c001000000000000000000000000000ce
:0930e600000000000000000000e1
:2030ef000000000000000000000000000000000000c000e001000000000000000000000020
:0a310f0000000000000000000000b6
:20311900000000000000000000000000000000000000000000000000000000000000000096
:0931390000000000000006800007
:2031420000000000000000000000000000000000000000000200000000000000000000006b
:0a3162000000000000000000000063
:20316c0000000000000000000000000000000000000800000000000020000000000000001b
:09318c0000000000000200000038
:20319500000000000000000000000000000000000000000001000000000000000000000019
:0a31b5000000000000000000000010
:2031bf000000000000000000000000000000000000000000000000000000000000000000f0
:0931df00000000000000000000e7
:2031e8000000000000000000000000000000000000000000080000000000000000000000bf
:0a32080000000000000000000000bc
:2032120000000000000000000000000000000000000000000000000000000000000000009c
:0932320000000000000000000093
:20323b00000000000000000000000000000000000000000000000000000000000000000073
:0a325b000000000000000000000069
:20326500000000000000000000000000000000000000000000000000000000000000000049
:0932850000000000000000000040
:20328e00000000000000000000000000000000000000000000000000000000000000000020
:0a32ae000000000000000000000016
:2032b8000002000000000000000000000000000000000000000000000000000000000000f4
:0932d800000000000000000000ed
:2032e1000000000000000000000000000000000000000000000000000000000000000000cd
:0a33010000000000000000000000c2
:20330b000000000000000000000000000000000000000000000000000000000000000000a2
:09332b0000000000000000000099
:20333400000020000000000000000000000000000000000000000000000000000000000059
:0a335400000000000000000000006f
:20335e0000000000000000000000000000000000000000000000000000000000000000004f
:09337e0000000000000000000046
:20338700000000000000000000000000000000000000000000000000000000000000000026
:0a33a700000000000000000000001c
:2033b1000000000000000000000000000000000000000000000000000000000000000000fc
:0933d100000000000000000000f3
:2033da000000000000000000000000000000000000000000000000000000000000000000d3
:0a33fa0000000000000000000000c9
:203404000000000000000000000000000000000000000000000000000000000000000000a8
:093424000000000000000000009f
:20342d0000000000000000000000000000000000000000000000000000000000000000007f
:0a344d000000000000000000000075
:20345700000000000000000000000000000000000000000000000000000000000000000055
:093477000000000000000000004c
:2034800000000000000000000000000000000000000000000000000000000000000000002c
:0a34a0000000000000000000000022
:2034aa00000000000000000000000000000000000000000000000000000000000000000002
:0934ca00000000000000000000f9
:2034d3000000000000000000000000000000000000000000000000000000000000000000d9
:0a34f30000000000000000000000cf
:2034fd000000000000000000000000000000000000000000000000000000000000000000af
:09351d00000000000000000000a5
:20352600000000000000000000000000000000000000000000000000000000000000000085
:0a354600000000000000000000007b
:20355000000200000000000000000000000000000000000000000000000000000000000059
:0935700000000000000000000052
:20357900000000000000000000000000000000000000000000000000000000000000000032
:0a3599000000000000000000000028
:2035a300000000000000000000000000000000000000000000000000000000000000000008
:0935c300000000000000000000ff
:2035cc000000200000000000000000000000000000000000000000000000000000000000bf
:0a35ec0000000000000000000000d5
:2035f6000000000000000000000000000000000000000000000000000000000000000000b5
:09361600000000000000000000ab
:20361f0000000000000000000000000000000000000000000000000000000000000000008b
:0a363f000000000000000000000081
:20364900000000000000000000000000000000000000000000000000000000000000000061
:0936690000000000000000000058
:20367200000000000000000000000000000000000000000000000000000000000000000038
:0a369200000000000000000000002e
:20369c0000000000000000000000000000000000000000000000000000000000000000000e
:0936bc0000000000000000000005
:2036c5000000000000000000000000000000000000000000000000000000000000000000e5
:0a36e50000000000000000000000db
:2036ef000000000000000000000000000000000000000000000000000000000000000000bb
:09370f00000000000000000000b1
:20371800000000000000000000000000000000000000000008000000000000000000000089
:0a3738000000000000000000000087
:20374200000000000000000000000000000000000000000000000000000000000000000067
:093762000000000000000000005e
:20376b0000000000000000000000000000000000000000000000000000000000000000003e
:0a378b000000000000000000000034
:203795000000000000000000000000000000000000000028000000000000000000000000ec
:0937b5000000000000000000000b
:2037be000000000000000000000000000000000000000000000000000000000000000000eb
:0a37de0000000000000000000000e1
:2037e8000002000000000000000000000000000000000000000000000000000000000000bf
:09380800000000000000000000b7
:20381100000000000000000000000000000000000000000000000000000000000000000097
:0a383100000000000000000000008d
:20383b0000000000000000000000000000000000000000000000000000000000000000006d
:09385b0000000000000000000064
:203864000000200000000000000000000000000000000000600000000000000000000000c4
:0a388400000000000000000000003a
:20388e0000000000000000000000000000000000000000000000000000000000000000001a
:0938ae0000000000000000000011
:2038b7000000000000000000000000000000000000000000000000000000000000000000f1
:0a38d70000000000000000000000e7
:2038e1000000000000000000000000000000000000000000000000000000000000000000c7
:09390100000000000000000000bd
:20390a0000000000000000000000000000000000000000000000000000000000000000009d
:0a392a000000000000000000000093
:20393400000000000000000000000000000000000000000000000000000000000000000073
:093954000000000000000000006a
:20395d0000000000000000000000000000000000000000000000000000000000000000004a
:0a397d000000000000000000000040
:20398700000000000000000000000000000000000000000000000000000000000000000020
:0939a70000000000000000000017
:2039b0000000000000000000000000000000000000000000000000000000000000000000f7
:0a39d00000000000000000000000ed
:2039da000000000000000000000000000000000000000000000000000000000000000000cd
:0939fa00000000000000000000c4
:203a03000000000000000000000000000000000000000000000000000000000000000000a3
:0a3a23000000000000000000000099
:203a2d00000000000000000000000000000000000000000000000000000000000000000079
:093a4d0000000000000000000070
:203a5600000000000000000000000000000000000000000000000000000000000000000050
:0a3a76000000000000000000000046
:203a8000000200000000000000000000000000000000000000000000000000000000000024
:093aa0000000000000000000001d
:203aa9000000000000000000000000000000000000000000000000000000000000000000fd
:0a3ac90000000000000000000000f3
:203ad3000000000000000000000000000000000000000000000000000000010000000000d2
:093af300000000000000000000ca
:203afc00000020000000000000000000000000000000000000000000000000080000000082
:0a3b1c00000000000000000000009f
:203b260000000000000000000000000000000000000000000000000000000000000000007f
:093b460000000000000000000076
:203b4f00000000000000000000000000000000000000000000000000000000000000000056
:0a3b6f00000000000000000000004c
:203b790000000000000000000000000000000000000000000000000000000000000000002c
:093b990000000000000000000023
:203ba200000000000000000000000000000000000000000000000000000000000000000003
:0a3bc20000000000000000000000f9
:203bcc000000000000000000000000000000000000000000000000000000000000000000d9
:093bec00000000000000000000d0
:203bf5000000000000000000000000000000000000000000000000000000000000000000b0
:0a3c150000000000000000000000a5
:203c1f0000000000000000000000000000000000000000000000357cb00000000000000024
:093c3f000000000000000000007c
:203c480000000000000000000000000000000000000000000808035c4900000000000000a4
:0a3c68000000000000000000000052
:203c7200000000000000000000000000000000000000000000002e4780010000000000003c
:093c920000000000000000000029
:203c9b000000000000000000000000000000000000000000000803996e90f0000000000077
:0a3cbb0000000000000000000000ff
:203cc500000000000000000000000000000000000000000000201d7cb00000000000000076
:093ce500000000000000000000d6
:203cee000000000000000000000000000000000000000000000001f44900f0000000000088
:0a3d0e0000000000000000000000ab
:203d180000020000000000000000000000000000000000000000364780000000000000008c
:093d380000000000000000000082
:203d41000020000000000000000000000000000000000000000201d96e00000000000000f8
:0a3d61000000000000000000000058
:203d6b00000000000000000000000000000000000000000000000000000000000000000038
:093d8b000000000000000000002f
:203d94000000200000000000000000000000000000000000000000000000000000000000ef
:0a3db4000000000000000000000005
:203dbe000000000000000000000000000000000000000000000000000000000000000000e5
:093dde00000000000000000000dc
:203de7000000000000000000000000000000000000000000000000000000000000000000bc
:0a3e070000000000000000000000b1
:203e1100000000000000000000000000000000000000000000000000000000000000000091
:093e310000000000000000000088
:203e3a000000000000000000000000000000000000000000000000000000900000000000d8
:0a3e5a00000010000000000000004e
:203e640000000000000000000000000000000000000000000000000000000000000000003e
:093e840000000000000000000035
:203e8d00000000000000000000000000000000000000000000000000000000000000000015
:0a3ead00000000000000000000000b
:203eb7000000000000000000000000000000000000000000000000000000000000000000eb
:093ed700000000000000000000e2
:203ee0000000000000000000000000000000000000000000000000000000000000000000c2
:0a3f000000000000000000000000b7
:203f0a00000000000000000000000000000000000000000000000000000000000000000097
:093f2a000000000000000000008e
:203f330000000000000000000000000000000000000000000000000000000000000000006e
:0a3f53000000000000000000000064
:203f5d00000000000000000000000000000000000000000000000000000000000000000044
:093f7d000000000000000000003b
:203f860000000000000000000000000000000000000000000000000000000000000000001b
:0a3fa6000000000000000000000011
:203fb0000002000000000000000000000000000000000800000000000000000000000000e7
:093fd000000000000000000000e8
:203fd9000000000000000000000000000000000000000000000000000000000000000000c8
:0a3ff90000000000000000000000be
:2040030000000000000000000000000000000000000000000000000000000000000000009d
:0940230000000000000000000094
:20402c00000020000000000000000000000000000000000000000000000000000000000054
:0a404c00000000000000000000006a
:2040560000000000000000000000000000000000000000000000000000000000000000004a
:0940760000000000000000000041
:20407f00000000000000000000000000000000000000000000000000000000000000000021
:0a409f000000000000000000000017
:2040a9000000000000000000000000000000000000000000000000000000000000000000f7
:0940c900000000000000000000ee
:2040d2000000000000000000000000000000000000000000000000000000000000000000ce
:0a40f20000000000000000000000c4
:2040fc000000000000000000000000000000000000000000000000000000000000000000a4
:09411c000000000000000000009a
:2041250000000000000000000000000000000000000000000000000000000000000000007a
:0a4145000000000000000000000070
:20414f00000000000000000000000000000000000000000000000000000000000000000050
:09416f0000000000000000000047
:204178000000200000000000000000000000000000000000080000000000000000000000ff
:0a419800000000000000000000001d
:2041a2000000000000000000000000000000000000000000000000000000000000000000fd
:0941c200000000000000000000f4
:2041cb000000000000000000000000000000000000000000000000000000000000000000d4
:0a41eb0000000000000000000000ca
:2041f5000000000000000000000000000000000000000000000000000000000000000000aa
:09421500000000000000000000a0
:20421e00000000000000000000000000000000000000000000000000000000000000000080
:0a423e000000000000000000000076
:20424800000000000000000000000000000000000000000000000000000000000000000056
:094268000000000000000000004d
:2042710000000000000000000000000000000000000000000000000000000000000000002d
:0a4291000000000000000000000023
:20429b00000000000000000000000000000000000000000000000000000000000000000003
:0942bb00000000000000000000fa
:2042c4000000200000000000000000000000000000000000000000000000000000000000ba
:0a42e40000000000000000000000d0
:2042ee00000080000000000000000000000000000000000000000000000000000000000030
:09430e00000000000000000000a6
:20431700000000000000000000000000000000000000000000000000000000000000000086
:0a433700000000000000000000007c
:2043410000000000000000000000000000000000000000000000000000000000000000005c
:0943610000000000000000000053
:20436a0008000000000000000000000000000000000000000000000000000000000000002b
:0a438a000000000000000000000029
:20439400000000000000000000000000000000000000000000000000000000000000000009
:0943b40000000000000000000000
:2043bd000000000000000000000000000000000000000000000000000000000000000000e0
:0a43dd0000000000000000000000d6
:2043e700000080000000000000000000000000000000000000000000000000000000000036
:09440700000000000000000000ac
:2044100000000000000000000000000000000000000000000000000000000000000000008c
:0a4430000000000000000000000082
:20443a00000000000000000000000000000000000000000000000000000000000000000062
:09445a0000000000000000000059
:20446300080000000000000000000000000000000000000000000000000000000000000031
:0a448300000000000000000000002f
:20448d00000000000000000000000000000000000000000800000000000000000000000007
:0944ad0080000000000000000086
:2044b6000000000000000000000000000000000000000000000000000000000000000000e6
:0a44d60000000000000000000000dc
:2044e0000003000000000000000000000000000000000000000000000000000000000000b9
:09450000000000000000000000b2
:20450900000000000000000000000000000000000000000000000000000000000000000092
:0a4529000000000000000000000088
:20453300000000000000000000000000000000000000000000000000000000000000000068
:094553000000000000000000005f
:20455c0000000000000000000000000000000000000000000000000000000000000000003f
:0a457c000000000000000000000035
:20458600000000000000000000000000000000000000000000000000000000000000000015
:0945a6000000000000000000000c
:2045af000000000000000000000000000000000000000000000000000000000000000000ec
:0a45cf0000000000000000000000e2
:2045d9000000000000000000000000000000000000000000000000000000000000000000c2
:0945f900000000000000000000b9
:20460200000000000000000000000000000000000000000000000000000000000000000098
:0a462200000000000000000000008e
:20462c0000000000000000000000000000000000000000000000000000000000000000006e
:09464c0000000000000000000065
:20465500000000000000000000000000000000000000000000000000000000000000000045
:0a467500000000000000000000003b
:02467f00000039
:02468100110323
:02468300010133
:20468500000000000000000000000000000000000000000000000000000000000000000015
:0946a5000000000000000000000c
:2046ae000000000000000000000000000000000000000000000000000000000000000000ec
:0a46ce0000000000000000000000e2
:2046d8000000000000000000000000000000000000000000000000000000000000000000c2
:0946f800000000000000000000b9
:20470100000000000000000000000000000000000000000000000000000000000000000098
:0a472100000000000000000000008e
:20472b0000000000000000000000000000000000000000000000000000000000000000006e
:09474b0000000000000000000065
:20475400000000000000000000000000000000000000000000000000000000000000000045
:0a477400000000000000000000003b
:20477e0000000000000800000000000020000000000800000000000020000000000000804b
:09479e0000000000000200000010
:2047a7000000000000000000000000000000000000000000000000000000000000000000f2
:0a47c70000000000000000000000e8
:2047d1000000000000080000000000002000000000080000000000002000000000000080f8
:0947f100000000000002000000bd
:2047fa0000000000000000000000000000000000000000000000000000000000000000009f
:0a481a000000000000000000000094
:20482400000000000000000000000000000000000000000000000000000000000000000074
:094844000000000000000000006b
:20484d0000000000000000000000000000000000000000000000000000000000000000004b
:0a486d000000000000000000000041
:20487700000000000000000000000000000000000000000000000000000000000000000021
:0948970000000000000000000018
:2048a0000000000000000000000000000000000000000000000000000000000000000000f8
:0a48c00000000000000000000000ee
:2048ca000000000000000000000000000000000000000000000000000000000000000000ce
:0948ea00000000000000000000c5
:2048f3000000000000000000000000000000000000000000000000000000000000000000a5
:0a491300000000000000000000009a
:20491d0000000000000000000000000000000000000000000000000000000000000000007a
:09493d0000000000000000000071
:20494600000000000000000000000000000000000000000000000000000000000000000051
:0a4966000000000000000000000047
:20497000000000000000000000000000000000000000000000000000000000000000000027
:094990000000000000000000001e
:204999000000000000000000000000000000000000000000000000000000000000000000fe
:0a49b90000000000000000000000f4
:2049c3000000000000000000000000000000000000000000000000000000000000000000d4
:0949e300000000000000000000cb
:2049ec000000000000000000000000000000000000000000000000000000000000000000ab
:0a4a0c0000000000000000000000a0
:204a160000020000000000000000000000000000000000000000000000000000000000007e
:094a360000000000000000000077
:204a3f00000000000000000000000000000000000000000000000000000000000000000057
:0a4a5f00000000000000000000004d
:204a690000000000000000000000000000000000000000000000000000000000000000002d
:094a890000000000000000000024
:204a92000000200000000000000000000000000000000000000000000000000000000000e4
:0a4ab20000000000000000000000fa
:204abc000000000000000000000000000000000000000000000000000000000000000000da
:094adc00000000000000000000d1
:204ae5000000000000000000000000000000000000000000000000000000000000000000b1
:0a4b050000000000000000000000a6
:204b0f00000000000000000000000000000000000000000000000000000000000000000086
:094b2f000000000000000000007d
:204b380000000000000000000000000000000000000000000000000000000000000000005d
:0a4b58000000000000000000000053
:204b6200000000000000000000000000000000000000000000000000000000000000000033
:094b82000000000000000000002a
:204b8b0000000000000000000000000000000000000000000000000000000000000000000a
:0a4bab000000000000000000000000
:204bb5000000000000000000000000000000000000000000000000000000000000000000e0
:094bd500000000000000000000d7
:204bde000000000000000000000000000000000000000000000000000000000000000000b7
:0a4bfe0000000000000000000000ad
:204c080000000000000000000000000000000000000000000000000000000000000000008c
:094c280000000000000000000083
:204c3100000000000000000000000000000000000000000000000000000000000000000063
:0a4c51000000000000000000000059
:204c5b00000000000000000000000000000000000000000000000000000000000000000039
:094c7b0000000000000000000030
:204c8400000000000000000000000000000000000000000000000000000000000000000010
:0a4ca4000000000000000000000006
:204cae000002000000000000000000000000000000000000000000000000000000000000e4
:094cce00000000000000000000dd
:204cd7000000000000000000000000000000000000000000000000000000000000000000bd
:0a4cf70000000000000000000000b3
:204d0100000000000000000000000000000000000000000000000000000000000000000092
:094d210000000000000000000089
:204d2a00000020000000000000000000000000000000000000000000000000000000000049
:0a4d4a00000000000000000000005f
:204d540000000000000000000000000000000000000000000000000000000000000000003f
:094d740000000000000000000036
:204d7d00000000000000000000000000000000000000000000000000000000000000000016
:0a4d9d00000000000000000000000c
:204da7000000000000000000000000000000000000000000000000000000000000000000ec
:094dc700000000000000000000e3
:204dd0000000000000000000000000000000000000000000000000000000000000000000c3
:0a4df00000000000000000000000b9
:204dfa00000000000000000000000000000000000000000080000000000000000000000019
:094e1a000000000000000000008f
:204e230000000000000000000000000000000000000000000000000000000000000000006f
:0a4e43000000000000000000000065
:204e4d00000000000000000000000000000000000000000000000000000000000000000045
:094e6d000000000000000000003c
:204e760000000000000000000000000000000000000000000000000000000000000000001c
:0a4e96000000000000000000000012
:204ea0000000000000000000000000000000000000000000000000000000000000000000f2
:094ec000000000000000000000e9
:204ec9000000000000000000000000000000000000000000000000000000000000000000c9
:0a4ee90000000000000000000000bf
:204ef30000000000000000000000000000000000000000000000000000000000000000009f
:094f130000000000000000000095
:204f1c00000000000000000000000000000000000000000000000000000000000000000075
:0a4f3c00000000000000000000006b
:204f4600000200000000000000000000000000000000000000000000000000000000000049
:094f660000000000000000000042
:204f6f00000000000000000000000000000000000000000000000000000000000000000022
:0a4f8f000000000000000000000018
:204f99000000000000000000000000000000000000000000000000000000000000000000f8
:094fb900000000000000000000ef
:204fc2000000200000000000000000000000000000000000000000000000000000000000af
:0a4fe20000000000000000000000c5
:204fec000000000000000000000000000000000000000000000000000000000000000000a5
:09500c000000000000000000009b
:2050150000000000000000000000000000000000000000000000000000000000000000007b
:0a5035000000000000000000000071
:20503f00000000000000000000000000000000000000000000000000000000000000000051
:09505f0000000000000000000048
:20506800000000000000000000000000000000000000000000000000000000000000000028
:0a508800000000000000000000001e
:205092000000000000000000000000000000000000000000000000000000000000000000fe
:0950b200000000000000000000f5
:2050bb000000000000000000000000000000000000000000000000000000000000000000d5
:0a50db0000000000000000000000cb
:2050e5000000000000000000000000000000000000000000000000000000000000000000ab
:09510500000000000000000000a1
:20510e00000000000000000000000000000000000000000000000000000000000000000081
:0a512e000000000000000000000077
:20513800000000000000000000000000000000000000000000000000000000000000000057
:095158000000000000000000004e
:2051610000000000000000000000000000000000000000000000000000000000000000002e
:0a5181000000000000000000000024
:20518b00000000000000000000000000000000000000000000000000000000000000000004
:0951ab00000000000000000000fb
:2051b4000000000000000000000000000000000000000000000000000000000000000000db
:0a51d40000000000000000000000d1
:2051de000002000000000000000000000000000000000000000000000000000000000000af
:0951fe00000000000000000000a8
:20520700000000000000000000000000000000000000000000000000000000000000000087
:0a522700000000000000000000007d
:2052310000000000000000000000000000000000000000000000000000000000000000005d
:0952510000000000000000000054
:20525a00000020000000000000000000000000000000000000000000000000000000000014
:0a527a00000000000000000000002a
:2052840000000000000000000000000000000000000000000000000000000000000000000a
:0952a40000000000000000000001
:2052ad000000000000000000000000000000000000000000000000000000000000000000e1
:0a52cd0000000000000000000000d7
:2052d7000000000000000000000000000000000000000000000000000000000000000000b7
:0952f700000000000000000000ae
:2053000000000000000000000000000000000000000000000000000000000000000000008d
:0a5320000000000000000000000083
:20532a000000000000000000000000000000000000000000880000000000000000000000db
:09534a00000080000000000000da
:2053530000000000000000000000000000000000000000000000000000000000000000003a
:0a5373000000000000000000000030
:20537d00000000000000000000000000000000000000000000000000000000000000000010
:09539d0000000000000000000007
:20570e00000200000000000000000000000000000000000000000000000000000000000079
:09572e0000000000000000000072
:20573700000000000000000000000000000000000000000000000000000000000000000052
:0a5757000000000000000000000048
:20576100000000000000000000000000000000000000000000000000000000000000000028
:095781000000000000000000001f
:20578a000000200000000000000000000000000000000000000000000000000000000000df
:0a57aa0000000000000000000000f5
:2057b4000000000000000000000000000000000000000000000000000000000000000000d5
:0957d400000000000000000000cc
:2057dd000000000000000000000000000000000000000000000000000000000000000000ac
:0a57fd0000000000000000000000a2
:20580700000000000000000000000000000000000000000000000000000000000000000081
:0958270000000000000000000078
:20583000000000000000000000000000000000000000000000000000000000000000000058
:0a585000000000000000000000004e
:20585a000000000000000000000000000000000000000000800000000000000000000000ae
:09587a0000000000000000000025
:20588300000000000000000000000000000000000000000000000000000000000000000005
:0a58a30000000000000000000000fb
:2058ad000000000000000000000000000000000000000000000000000000000000000000db
:0958cd00000000000000000000d2
:2058d6000000000000000000000000000000000000000000000000000000000000000000b2
:0a58f60000000000000000000000a8
:20590000000000000000000000000000000000000000000000000000000000000000000087
:095920000000000000000000007e
:2059290000000000000000000000000000000000000000000000000000000000000000005e
:0a5949000000000000000000000054
:20595300000000000000000000000000000000000000000000000000000000000000000034
:095973000000000000000000002b
:20597c0000000000000000000000000000000000000000000000000000000000000000000b
:0a599c000000000000000000000001
:2059a6000002000000000000000000000000000000000000000000000000000000000000df
:0959c600000000000000000000d8
:2059cf000000000000000000000000000000000000000000000000000000000000000000b8
:0a59ef0000000000000000000000ae
:2059f90000000000000000000000000000000000000000000000000000000000000000008e
:095a190000000000000000000084
:205a2200000020000000000000000000000000000000000000000000000000000000000044
:0a5a4200000000000000000000005a
:205a4c0000000000000000000000000000000000000000000000000000000000000000003a
:095a6c0000000000000000000031
:205a7500000000000000000000000000000000000000000000000000000000000000000011
:0a5a95000000000000000000000007
:205a9f000000000000000000000000000000000000000000000000000000000000000000e7
:095abf00000000000000000000de
:205ac8000000000000000000000000000000000000000000000000000000000000000000be
:0a5ae80000000000000000000000b4
:205af200000000000000000000000000000000000000000000000000000000000000000094
:095b12000000000000000000008a
:205b1b0000000000000000000000000000000000000000000000000000000000000000006a
:0a5b3b000000000000000000000060
:205b4500000000000000000000000000000000000000000000000000000000000000000040
:095b650000000000000000000037
:205b6e00000000000000000000000000000000000000000000000000000000000000000017
:0a5b8e00000000000000000000000d
:205b98000000000000000000000000000000000000000000000000000000000000000000ed
:095bb800000000000000000000e4
:205bc1000000000000000000000000000000000000000000000000000000000000000000c4
:0a5be10000000000000000000000ba
:205beb0000000000000000000000000000000000000000000000000000000000000000009a
:095c0b0000000000000000000090
:205c1400000000000000000000000000000000000000000000000000000000000000000070
:0a5c34000000000000000000000066
:205c3e00000200000000000000000000000000000000000000000000000000000000000044
:095c5e000000000000000000003d
:205c670000000000000000000000000000000000000000000000000000000000000000001d
:0a5c87000000000000000000000013
:205c91000000000000000000000000000000000000000000000000000000000000000000f3
:095cb100000000000000000000ea
:205cba000000200000000000000000000000000000000000000000000000000000000000aa
:0a5cda0000000000000000000000c0
:205ce4000000000000000000000000000000000000000000000000000000000000000000a0
:095d040000000000000000000096
:205d0d00000000000000000000000000000000000000000000000000000000000000000076
:0a5d2d00000000000000000000006c
:205d370000000000000000000000000000000000000000000000000000000000000000004c
:095d570000000000000000000043
:205d6000000000000000000000000000000000000000000000000000000000000000000023
:0a5d80000000000000000000000019
:205d8a00000000000000000000000000000000000000000080000000000000000000000079
:095daa00000000000000000000f0
:205db3000000000000000000000000000000000000000000000000000000000000000000d0
:0a5dd30000000000000000000000c6
:025ddd000000c4
:035ddf0062003f20
:035de200720080cc
:025de5001100ab
:035de70082000037
:025dea000103b3
:085dec000000000000000000af
:085df4000000000000000000a7
:085dfc0000000000000000009f
:085e0400000000000000000096
:0261ec000000b1
:0361ee00820080ac
:0261f1000103a8
:0861f3000000000000000000a4
:0861fb0000000000000000009c
:08620300000000000000000093
:08620b0000000000000000008b
:0265f3000000a6
:0265f500110192
:0365f7008200001f
:0265fa0001039b
:0865fc00000000000000000097
:0866040000000000000000008e
:08660c00000000000000000086
:0866140000000000000000007e
:0269fc00000099
:0369fe0082008094
:026a010001038f
:086a030000000000000000008b
:086a0b00000000000000000083
:086a130000000000000000007b
:086a1b00000000000000000073
:026e030000008d
:026e0500110278
:036e070082000006
:026e0a00010382
:086e0c0000000000000000007e
:086e1400000000000000000076
:086e1c0000000000000000006e
:086e2400000000000000000066
:02720c00000080
:03720e008200807b
:02721100010377
:08721300000000000000000073
:08721b0000000000000000006b
:08722300000000000000000063
:08722b0000000000000000005b
:02761300000075
:0276150011035f
:03761700820000ee
:02761a0001036a
:08761c00000000000000000066
:0876240000000000000000005e
:08762c00000000000000000056
:0876340000000000000000004e
:027a1c00000068
:037a1e0082008063
:027a210001035f
:087a230000000000000000005b
:087a2b00000000000000000053
:087a330000000000000000004b
:087a3b00000000000000000043
:027e230000005d
:017e2500223a
:027e2600171a29
:027e2800010651
:00000001FF
