:02000000ff00ff
:080002004c6174746963650030
:17000a00694345637562653220323032302e31322e32373934330071
:16002100506172743a2069434534304858314b2d56513130300002
:1b003700446174653a204a756e20313320323032352031323a31333a3432007b
:0200520000ffad
:040054007eaa997e69
:02005800510055
:02005a0001059e
:03005c00920020ef
:03005f0062014bf0
:0300620072009099
:0300650082000016
:02006800110085
:02006a00010192
:20006c00000000000000000000000000000000000000000000000000000000000000000074
:09008c000000000000000000006b
:2000950000000000000000000000000000000000000000000000000000000000000000004b
:0a00b5000000000000000000000041
:2000bf0000000000000000000004000000000000100000000000000000000000000000000d
:0900df00000000400000000000d8
:2000e8000000000000000000000000000000000000000000000000000000000000000000f8
:0a01080000000000000000000000ed
:200112000000000000000000000000000000000000000000000000000000000000000000cd
:09013200000000000000000000c4
:20013b00000000000000000000000000100000000000000000000000000000000000000094
:0a015b00000000000000000000009a
:200165000000000000040000000000000000000000000080000000000000000000000040b6
:0901850000000000000000000071
:20018e00000000000000000000000000000000000000000000000000000000000000000051
:0a01ae000000000000010000000046
:2001b80000000000000c00000000000020000000000000800000000030000000000000c08b
:0901d8000000000000020000001c
:2001e1000000000000000000000000000000000000000000000000000000000000000000fe
:0a02010000000000000000000000f3
:20020b000000000000000000000000000000000000000000000000000000000000000000d3
:09022b00000000000000000000ca
:200234000000000000000000000000000000000000000000000000000000000000000000aa
:0a02540000000000000000000000a0
:20025e0000000000000000000000000000000000000000000004000000000000000000007c
:09027e0000000000000000000077
:200287000000000000000000000040001400000001000000000040000000000000000000c2
:0a02a7000000000400000000000049
:2002b10000000000000400000000000010000000000000c0000000003000000000000040e9
:0902d1000000000000010400001f
:2002da00000000000000000000000000000000000000000000000000000000000000000004
:0a02fa0000000000000100000000f9
:200304000000000000000000000000000000000000000000000000000000000000000000d9
:09032400000000000000000000d0
:20032d00000020000000000000000000000000000040000000000000000000000000000050
:0a034d0000000000000000000000a6
:20035700000000000000000000000000000000000000000000000000000000000000000086
:090377000000000000000000007d
:2003800000000000000000000000000000000000000000000000000000000000000000005d
:0a03a0000000000000000000000053
:2003aa00000000000000000000000000000000000000000000000000000000000000000033
:0903ca0000000100000000000029
:2003d30000000000000000000000000000000000000000000000000000000000000000000a
:0a03f3000000000000000000000000
:2003fd000003000000000000000000000000000000000000000000000000000000000000dd
:09041d00000000000000000000d6
:200426000000000000000000000000000000000000000000000000000000000000000000b6
:0a04460000000000000000000000ac
:2004500000000000000000000000000000000000000000000000000000000000000000008c
:0904700000000000000000000083
:20047900000020000000000000000000000000000000000000000000000000000000000043
:0a0499000000000000000000000059
:2004a300000000000000000000000000000000000000000000000000000000000000000039
:0904c30000000000000000000030
:2004cc00000000000000000000000000000000000000000000000000000000000000000010
:0a04ec000000000000000000000006
:2004f6000000000000000000000000000000000000000000000000000000000000000000e6
:09051600000000000000000000dc
:20051f000000000000000000000000000000000000000000000000000000000000000000bc
:0a053f0000000000001000000000a2
:20054900000000000000000000000000000000000000000000000000000000000000000092
:0905690000000000000000000089
:20057200000000000000000000000000000000000000000000000000000000000000000069
:0a059200000000000000000000005f
:20059c0000000000000000000000000000000000000000000000000000000000000000003f
:0905bc0000000000000000000036
:2005c5000800200000000000000000003c00000000000000000000000000000000000000b2
:0a05e500000000000000000000000c
:2005ef000000000000000000000000000000000000000000000000000000000000000000ec
:09060f00000000000000000000e2
:200618000800000000000000000000000000000000000000000000000000000000000000ba
:0a0638000000000064000000000054
:200642000000000000000000000000000da0030000000000000000000000000000000000e8
:090662000000000000000000008f
:20066b0000000000000000000000000002c910000000000000000000000000000000000094
:0a068b000000000000000000000065
:20069500000100000000000000000200000000000000000000000000000000000000000042
:0906b5000000000000000000003c
:2006be000000000000000000000000340000000000000000000000000000000000000000e8
:0a06de000000001000000000000002
:2006e8000000000000000000000000e00000000000000000002000000000000000000000f2
:09070800000000000000000000e8
:20071100080000000000000000000002380000000000000000000000000000000000000086
:0a07310000000000000000000000be
:20073b0000000000000000000000000000000000000000000000000000000000000000009e
:09075b0000000000000000000095
:20076400000000000000000000000000000000000000000000000000000000000000000075
:0a078400000000000000000000006b
:20078e0000000000000000000000000000000000000000000000000000000000000000004b
:0907ae0000000000000000000042
:2007b70008000000000000000000000000000000000000000000000000000000000000001a
:0a07d7000000000000000000000018
:2007e1000000000000000000000000000000000000000000000000000000000000000000f8
:09080100000000000000000000ee
:20080a000000000000000000000000000000000000000000000000000000000001000000cd
:0a082a0000000000000000000000c4
:2008340000000000000000000000000000000000000000000000080000000000000000009c
:0908540000000800000000000093
:20085d000000200000000000000000000000000000400000000001400000000000000000da
:0a087d00000000000240000000002f
:20088700000000000000000000000000000000000000000000000000000000000000000051
:0908a70000000a0000000000003e
:2008b000000000000000000000000000000000000000000000000000000000000000000028
:0a08d000000000804000000000005e
:2008da000000000000000000000000000000000000000000000000000000000000000000fe
:0908fa00000000002000000000d5
:200903000000000000000000000000000000000000000000000000000000000000000000d4
:0a0923000000000003400000000087
:20092d000003000000000000000000000000000000000000000000000000000000000000a7
:09094d00000000000000000000a1
:20095600000000000000000000000000000000000018000000000000000000000000000069
:0a0976000000000000000000000077
:20098000000000000000000000000000000000000000000000000000000000000000000057
:0909a0000000000e000000000040
:2009a90000002000000000000000000000000000000000000000000000000000000000000e
:0a09c9000000000000000000000024
:2009d300000000000000000000000000000000000000000000000000000000000000000004
:0909f3000000000006024ea441c0
:2009fc000000000000000000000000000000000000000000000000000000000000000000db
:0a0a1c000000000000000ca5e0043b
:200a26000000000000000000000000000000000000000000000000000000000000000000b0
:090a4600000000001c000000008b
:200a4f00000000000000000000000000000000000000000000000000000000000000000087
:0a0a6f000000000004000000000079
:200a790000000000000000000000000000000000000000000000000000000000000000005d
:090a990000000c00000000000048
:200aa200000000000000000000000000000000000000000000000000000000000000000034
:0a0ac20000000080000000000000aa
:200acc000000800000000000000000029fc0000000000000008001e0400000020000003a4c
:090aec003c20000a0060cf01006b
:200af5000000200000000000000000347aff200000000000000000002000000000000000d4
:0a0b1500003c280000c016f00000ac
:200b1f00000000000000000000a00000000000000000000000a00202ddf400028000007aa5
:090b3f003c200a00000000000047
:200b480008000000000000000008000000000000000000000008003c7dea81002000000031
:0a0b6800003c408000034000000044
:200b72000000000000000000000008001fce300000000000000001e68f82542b000000daed
:090b9200143800001e00000000f0
:200b9b0000000000000000000000010002fffb00000000000000800042702a017000000f61
:0a0bbb0000140500002000000000f7
:200bc50000010000000000000000106001a2c120000000000000000021cf500000099972c7
:090be5003c200000200258a3404e
:200bee0000000000000000000002000003c01c00002800000002003c00d0fa000800f0805e
:0a0c0e00003c203003c0159f3a009f
:200c18000000000000000000000000028e805100000000000000000600000000000000fa5b
:090c380014300000003800000037
:200c41000800000000000000000000006c3005000000000000000000280000000000000fb3
:0a0c61000014000000040000000071
:200c6b000000000000000000000000062ec080000000000000000166479e700000011ada44
:090c8b001430000000000000001c
:200c94000000000000000000000000002efd00010000000000000000285ff9000000000b89
:0a0cb400001400000002c000000060
:200cbe000000010000000000000000028ee2602000000000000000034ce00020000788da6b
:090cde0014300000006800000061
:200ce70008000000000000000000000078302600000000000000002476f008000080000ff6
:0a0d070080140020034000000000eb
:200d110000000000000000000000000004810420000000000000014054a1c020000f1ada00
:090d310014100c00006bdc5a00e8
:200d3a000000000000000000000000002c101000000000000000000033d03c000000180beb
:0a0d5a008014008000441f0af0001e
:200d64000000000080000000008000064680000000000000008001e015eff00000011ab77c
:090d840003c418200007cb000095
:200d8d000000200009000000000000142a7f0800004000000000003403f0f500000091abc0
:0a0dad00817c000002423ed01000dd
:200db700000028001981bbd401a00142e4ae70200000000000a0000005a0700280000abbc9
:090dd7001c000a0000624aa76238
:200de000000002000098083d400800003840f70000000000000800003c5d4f00202070a31a
:0a0e0000f68000800000240a1004b0
:200e0a00000000000181f40100000146800000000000000000100147cfaa142010201e5ed9
:090e2a00000000003601fc0a0082
:200e3300000000000000baf00000000e40000000000000000001000226e0fb110285010dfd
:0a0e53004028000001438300a010b6
:200e5d0000030000008dac858000000006aa1400000000000000140394a5020000050ebb50
:090e7d0094000000206c0000004c
:200e8600000000800000ffa800020000027a5b0000000000000200bc002050100830510382
:0a0ea600b600002a004280000000a0
:200eb00000000000d017628000000000000000000000000000000203fdcff22000001d1247
:090ed000408000a00005faff00bb
:200ed9000000200005080c2800000a000000000000000000000000046240fd00800001a1c9
:0a0ef9006000000402426d0fa0002b
:200f03000000300018013428000000000000000000000000000001661ca0f000000181daba
:090f2300b0108000006968ff02b3
:200f2c000000010000003202000000000000000000000000000000000070af00000000d37e
:0a0f4c00c3400400c003df0b500097
:200f560000000000581ff8050c000007800000000000000000000003a1e5b020002500de18
:090f76007dc0000016015ed322cb
:200f7f00000000800008d4100002000000000000000000000002002c4250a7000005080967
:0a0f9f006bfc012003c20e0c3000b1
:200fa900000000008010000000c0000000000000000000000000000056cd302000000193d1
:090fc90008008c00006fdff70046
:200fd2000000000001080000000800000000000000000000000000002820d301000000efe3
:0a0ff200c00000800142bdad700098
:200ffc00000000000000000000800000000000000000000000800002a1af5002000d9e0086
:09101c00000000000600585f000e
:2010250000002000000000000000000000000000000000000000000040d0fa200000510010
:0a1045000000000000200105f0008b
:20104f00000028000000000000a0000026ff84000000000000a017c026e0022280000000ef
:09106f0000000000006778100089
:20107800080006000000000000080000336ad00800000000000800063c6008012000f0000a
:0a1098000000000000066580000063
:2010a20000003000000000000000000000000000000000000000000606ac30200000009363
:0910c200ab400000206b5ef4025b
:2010cb0040000300000800000000000000000000000000000000001441c0cb0000000001d9
:0a10eb0037fc00000042a50fc00012
:2010f500000100000003b97d400000004000000000000000000004006cafb0200001881693
:09111500808000002f701a0c12fa
:20111e00000000002000d83fe000000c2c000000000000000000008027d0f50000000009ed
:0a113e007800001000620100c000fc
:2011480000000000000000000000000000000000000000000000000064e7f4280000000020
:091168000000000000024b8000b1
:2011710008000000000000000000000000000000000000000000401c20707a00000000b040
:0a11910000000000000015b000008f
:20119b000000000000000000000400000000000000000000000000004cbf7000000000387d
:0911bb0036c00000000179bc00ff
:2011c40000000000000900000000000000000000000000000000000421fff300000000915a
:0a11e400b9680008000015ebe000f8
:2011ee000000000059e000000000006000000000000000000000004064e7f4280008000792
:09120e0083d0400000057ef70ac0
:2012170008000000001000000000000000000000000000000000021e2af07a00000070007b
:0a123700403c00100002010f70009f
:20124100000030000000000000c00000000000000000000000c0000000000001000019873c
:09126100a59000002067ea0b08cb
:20126a000000020000000000000800000000000000000000000800003c0000003000008f57
:0a128a0041a40000014677f02000a7
:20129400000000000000000000800000400000000000000000000000000000020000001860
:0912b400002001002000fef520dd
:2012bd000000200000000000000000003c0000000040000000000000000000000000000075
:0a12dd00b800001000c0020f50001e
:2012e700000000000000000000a0000000000000000000000000000000000002a0000a5249
:091307003c3000003c025c3502a0
:201310000000000000000000000800003c0000000000000000000000000000002000000059
:0a133000003c000002c01d03000095
:20133a0000000000000000000000000016fb1400000000000000014036af5000000199520c
:09135a003c300000240178070278
:2013630000000000000000000000001c02593001000000000000001403c0ff00000200806a
:0a138300803c000000e00000700054
:20138d000003000000000000000000000000000000000000000000000fef3020000519527f
:0913ad003c3000000007f80000cc
:2013b600000000000000000000000004000000000000000000000a2401e0fb000000008089
:0a13d600803c000001420ea8000058
:2013e0000000000000000000000000000000000000000000000400001fc0a0000000007af0
:091400003c3000000001780502f7
:2014090000002000000000000000000000000000000000000000200000200a000000000059
:0a142900003c000000001600220045
:20143300000000000000000000000060268804080000000000000366cee420200080007a2a
:091453003c3000000470000000b0
:20145c0000000000000000000000000000fada00000000000000001423d0432080000000b2
:0a147c00003c0000000240000000e8
:20148600000000000000000000000000400000000000000000000006c1c300280003805a77
:0914a6003c3000000001ff1000c1
:2014af0000000000000000000000000020000000000000000000001c281030000000080071
:0a14cf00803c0000080005f040001a
:2014d900000000000000000000c000000000000000000000000000e75ea102210009805a47
:0914f90015500000007000000015
:20150200000000000000000000080000000000000000000000000000680010003000100009
:0a1522008154a00000420000000008
:20152c0000000000000000000000000000000000000000000000000000000000000000009f
:09154c0000000000000000000096
:2015550000002800000000000000000000000000000000000000000000000000000000004e
:0a157500000000000000000000006c
:20157f000660000000000000000000000000000000000000000000000000000000000000e6
:09159f0000000000000000000043
:2015a800080400000000000000000000000000000000000000000200000000000000000015
:0a15c8000000000000000000000019
:2015d2003000000000000000000000000000000000000000000000000000000000000000c9
:0915f200000000000000000000f0
:2015fb000000000000000000000000000000000000000000000000000000000000000000d0
:0a161b0000000000000000000000c5
:20162500000100000000383c00000000000000000000000000000000000000000000000030
:091645000000000000000000009c
:20164e000000000000000003c00000000000000000100000000008000000000000000000a1
:0a166e000000000000000000000072
:20167800000000000000000000000000000000000000000000000000000000000000000052
:0916980000000000000000000049
:2016a100000004000000000000000000000000000000000000000000000000000000000025
:0a16c100000000000000000000001f
:2016cb0000000000000000000000000000000000000000000000600000000000000000009f
:0916eb00000000000000000000f6
:2016f4000000000000000000000000000000000000000000000000000000000000000000d6
:0a17140000000000000000000000cb
:20171e0000000000100000000000000000000000000000000000000000000000000000009b
:09173e00000000000000000000a2
:2017470008000000000000000000000000000000000000000000000000000000000000007a
:0a1767000000000000000000000078
:201771000000000000000000000000000000000000000000000a000000000000000000004e
:091791000000000000000000004f
:20179a0000000000000000000000000000000000000000000000000000000000000000002f
:0a17ba000000000000000000000025
:0217c400000023
:0217c60011010f
:0217c80001011d
:2017ca000000020000000000000800000000000020000000000800000000000020000000ad
:0917ea0000000080000000000076
:2017f3000000000000000000000000000000000000000000000000000000000000000000d6
:0a18130000000000000000000000cb
:20181d0000000100340000000004000000000000100000000004000000000000100020002e
:09183d00000000400080000000e2
:2018460000000000000000000000000000000000000000000000000000000000000016006c
:0a1866000000000000580000000020
:201870000000020000000c000008000000000000200000008008003000000000200000004a
:09189000000000800000020000cd
:201899000000000000000040000000000001000000000000040000000003000000000000e7
:0a18b9000400000000000010000011
:2018c300000000000004000000000000100000000001404000000000100000000000004020
:0918e300000000000501000000f6
:2018ec000000000000000000000000000000000000002000000000000000000000000000bc
:0a190c000000000000800000000051
:2019160000000000000c00000000000030000000000000c00000000030000000000000c0c5
:09193600000000000003000000a5
:20193f00000000000000000000000000000000000000000000000000000000000000000088
:0a195f00000000000000000000007e
:2019690000000000000000000000000000000000000000000000000000300000000000002e
:0919890040000000000001000014
:201992000000000000000000000000000000000000000000000080000002000002000000b1
:0a19b2000c000008000000300000e7
:2019bc00000000000000000000000000000000000000000000000058002000000000000093
:0919dc0000000000000000000002
:2019e500000000000000000000000000000000000000000000004000800000000100000021
:0a1a050000000004000000000000d3
:201a0f000000000000040000000000001000000000000040000000001018000000000040fb
:091a2f00000000000001000000ad
:201a38000000000000000000000000058000000000000000000080000000000002000e0079
:0a1a5800100000080000000000006c
:201a6200000000000000000000000000000000000000000000000000000000000000000064
:091a82000000000000000000005b
:201a8b0000000000000000000000000000000000000000000000000000000000000000003b
:0a1aab000000000000000000000031
:201ab500000000000000000000000000000000000000000000000000000000000000000011
:091ad50000000000000000000008
:201ade000000000000000000000000000000000000000000000000000000000000000000e8
:0a1afe0000000000000000000000de
:201b08000000000000000000000000000000000000000000000000000000000000000000bd
:091b2800000000000000000000b4
:201b3100000000000000000000000000000000000000000000000000000000000000000094
:0a1b5100000000000000000000008a
:201b5b00000200000000000000000000000000000000000000000000000000000000000068
:091b7b0000000000000000000061
:201b8400000000000000000000000000000000000000000000000000000000000000000041
:0a1ba4000000000000000000000037
:201bae00000000000000000000000000000000000000000000000000000000000000000017
:091bce000000000000000000000e
:201bd7000000300000000000000000000000000000000000000000000000000000000000be
:0a1bf70000000000000000000000e4
:201c01000000000000000000000000000000000000000000000000000000000000000000c3
:091c2100000000000000000000ba
:201c2a0000000000000000000000000000000000000000000000000000000000000000009a
:0a1c4a000000000000000000000090
:201c5400000000000000000000000000000000000000000000000000000000000000000070
:091c740000000000000000000067
:201c7d00000000000000000000000000000000000000000000000000000000000000000047
:0a1c9d00000000000000000000003d
:201ca70000020000000000000000000000000000000000000000000000000000000000001b
:091cc70000000000000000000014
:201cd0000000000000000000000000000000000000000000000000000000000000000000f4
:0a1cf00000000000000000000000ea
:201cfa000000000000000000000000000000000000000000000000000000000000000000ca
:091d1a00000000000000000000c0
:201d23000000000000000000000000000000000000000000000000000000000000000000a0
:0a1d43000000000000000000000096
:201d4d00000000000000000000000000000000000000000000000000000000000000000076
:091d6d000000000000000000006d
:201d760000000000000000000000000000000000000000000000000000000000000000004d
:0a1d96000000000000000000000043
:201da00000000000000000000000000000000000000000000000e000000000000000000043
:091dc0000000000000000000001a
:201dc9000000000000000000000000000000000000000000000000000000000000000000fa
:0a1de90000000000000000000000f0
:201df3000002000000000000000000000000000000000000000000000000000008000000c6
:091e1300000000000000000000c6
:201e1c000000000000000000000000000000000000000000000000000000000001000000a5
:0a1e3c00000000000000000000009c
:201e460000000000000000000000000000000000000000000000000000000000000000007c
:091e660000000000000000000073
:201e6f00000030000000000000000000000000000000000000000000000000000000000023
:0a1e8f000000000000000000000049
:201e9900000000000000000000000000000000000000000000000000000000000000000029
:091eb90000000000000000000020
:201ec200000000000000000000000000000000000000000000000000000000000000000000
:0a1ee20000000000000000000000f6
:201eec000000000000000000000000000000000000000000000000000000000000000000d6
:091f0c00000000000000000000cc
:201f15000000000000000000000000000000000000000000000000000000000000000000ac
:0a1f35000000000000100000000092
:201f3f0000020000000000000000000000000000040000000000000000000000000000007c
:091f5f0000000000000000000079
:201f6800000000000000000000000000000000000000000000000000000000000000000059
:0a1f8800000000000000000000004f
:201f92000000000000000000000000000000000000000000008002c00000000200000000eb
:091fb20000000000000000000026
:201fbb000400000000000000000000000000000000000000000c0000700000003000000056
:0a1fdb0000000000000000000000fc
:201fe500800000000000000000000000000000000000000000000350000000000000000009
:09200500000000000000000000d2
:20200e00000000000000000000000000000000000000000000000020200000000000000072
:0a202e0000000000000000000000a8
:20203800080000000000000000000000000000000000000000000000000000000000000080
:092058000000000000000000007f
:2020610004400000000000000000000000000000000000000000000000000000000000001b
:0a2081000000000000000000000055
:20208b0000260000000000000000000000000000000000000000000000000000000000000f
:0920ab000000000000000000002c
:2020b40000004000000000000000000000000000000000000000000000000000000070005c
:0a20d4000000000000000000000002
:2020de00000000000000000000000000000000000000000000000000000000000000800062
:0920fe00000000000000000000d9
:202107000000300000000000000000000000000000000000000000000000000000003c004c
:0a21270000000000000000000000ae
:20213100000000000000000000000000000000000000000000d00000000000030000005a61
:09215100600040000000000000e5
:20215a000000000000000000000000000000000000000000000d000000000000100000e95f
:0a217a00b0010000000000000000aa
:20218400000000000000000000000000000000000000000000800340000000020000100066
:0921a40000000000000000000032
:2021ad000000000000000000000000000000000000000000000a002000000000280001e0df
:0a21cd000000000000000000000008
:2021d70000020000000003fc0000000000000000000000000000000004fc000000000800df
:0921f700000000000000000000df
:20220000000000000000003fc000000000000000000000000008000003dfe540a000000010
:0a22200000000000000000000000b4
:20222a00000000000000000000000000000000000000000000000000000000000000000094
:09224a0000000800004000000043
:2022530000000000000000000000000000000000000000000000000000000000000000006b
:0a227300000000c00006800000001b
:20227d008000000000000000000000000000000000000000002000000000000080000f0012
:09229d0000000200000000000036
:2022a6000000000000000000000000000000000000000000000000000000000000380000e0
:0a22c600000000000000000000000e
:2022d0000000000000000000000000000000000000000000000000000000000000000000ee
:0922f000000000000400000000e1
:2022f9000000000000000000000000000000000000000000000000000000000000000000c5
:0a23190000000000000000000000ba
:20232300800000000000000000000000000000000000000000000000000000000003000017
:09234300000000080000df850025
:20234c000000000000000000000000000000000000000000000000000000000000008000f1
:0a236c000000000000402d90060064
:202376000000000000000000000000000000000000000000002000000000000181030000a2
:092396000000020000000000003c
:20239f0000001000000000000000000000000000000000000000000000000000300080005e
:0a23bf000000000000000000000014
:2023c9000000000000000000000000000000000000000000000000000000000000000000f4
:0923e90000000c000000000000df
:2023f20000000000000000000000000000000000000000000000000000000000003000009b
:0a241200000000400003000000007d
:20241c008000000000000000000000000000000000000000000040000000000000010000df
:09243c000000080000400000004f
:20244500080000000000000000000000000000000000000000000a00000000000000000065
:0a246500000000a000078000000046
:20246f00000200000000000000000000000000000400000000000000000000000000003a0d
:09248f003fc00100000000000044
:202498000060000000000000000000000000000000000000000000000000000000000007bd
:0a24b8006f2c4280000000000000bd
:2024c20000000000000000000000000000000000000000000080034000000002000080d7de
:0924e200300008000400de0000d7
:2024eb000400000000000000000000000000000000000000000c0020000000003000380732
:0a250b00af9502c000001cd01408b8
:2025150080400000000000000020000000000000000000000022000404ac00008000100060
:0925350000000200020000000099
:20253e0000030000000000000000000000000000000000000000400021eae540800000c0ca
:0a255e000000000001e00000000092
:2025680008000000000000000010000000000000000000000000a00000000000000000009b
:092588000000000000000000004a
:202591000440000000000000000000000000000000000000000000000000000000003800ae
:0a25b1000000000000000000000020
:2025bb00002a000000000000000000000000000000000000000000000000000000000000d6
:0925db0000000000003c000000bb
:2025e400000040000000000000000000000000000000000000000000000000000000000097
:0a2604000000000001e000000000eb
:20260e000000000000000000002000000000000000000000003000000000000080000000dc
:09262e00000002000000000000a1
:20263700000030000000000000000000000000000000000000010000000000000000000052
:0a2657000000000000000000000079
:20266100080000000000000000000000000000000000000000c00340000000030000180033
:092681000000040000000000004c
:20268a0004c0000000000000000000000000000000300000000c002e00000000300001a031
:0a26aa0000000040000000000000e6
:2026b400800000000000000000000000000000000000000000800000000000020000000004
:0926d400000008000000000000f5
:2026dd000000000000000000000000000000000000000000000a00000000000028000000ab
:0a26fd00000000a000000000000033
:202707000002000000000000000000000000000000000000000010c00000000000000000e0
:0927270000000000003800000071
:202730000400000000000000000000000000000000000000000800800000000020000000dd
:0a27500000000080000000000000ff
:20275a0000000000000000000000000000000000000000000000000000000000000000005f
:09277a0000000000000000000056
:20278300000000000000000000000000000000000000000000000000000000000000000036
:0a27a300000000000000000000002c
:2027ad0000000000000000000000000000000000000000000000000000000000000000000c
:0927cd0000000000000000000003
:2027d6000000000000000000000000000000000000000000000000000000000000000000e3
:0a27f60000000000000000000000d9
:202800000000000000000000000000000000000000000000000000000000000000000000b8
:09282000000000000000000000af
:2028290000000000000000000000000000000000000000000000000000000000000000008f
:0a2849000000000000000000000085
:20285300000200000000000000000000000000000000000000000000000000000000000063
:092873000000000000000000005c
:20287c0000000000000000000000000000000000000000000000000000000000000000003c
:0a289c000000000000000000000032
:2028a600000000000000000000000000000000000000000000000000000000000000000012
:0928c60000000000000000000009
:2028cf000000300000000000000000000000000000000000000000000000000000000000b9
:0a28ef0000000000000000000000df
:2028f9000000000000000000000000000000000000000000000000000000000000000000bf
:09291900000000000000000000b5
:20292200000000000000000000000000000000000000000000000c00000000000000000089
:0a294200000000000000000000008b
:20294c0000000000000000000000000000000000000000000000000000000000000000006b
:09296c0000000000000000000062
:2029750000000000000000000000000000000000000000000000020100000000020000003d
:0a2995000000000000100000000028
:20299f001802000000000000000000000000000004000000000000000000000008000000f2
:0929bf000000000000000000000f
:2029c8000000000000000000000000000000000000000000000000000000000001000000ee
:0a29e80000000000000000000000e5
:2029f2000000000000000000008000000000000000000000008000000000000000000000c5
:092a1200000000000000000000bb
:202a1b000400000000000000000c00000000000000000000000c000000000000000000007f
:0a2a3b000000000000000000000091
:202a4500802c000000000000000000000000000000000000000000000000000000000000c5
:092a650000000000000000000068
:202a6e00000000000000000000000000000000000000000000000000000000000000000048
:0a2a8e00000000000000000000003e
:202a98000800000000000000000003c0000000000000000000000340000000000000000010
:092ab80000000000000000000015
:202ac10004c000000000000000000000000000000000000000000020000000000000000011
:0a2ae10000000000000000000000eb
:202aeb000002000000000000000000000000000000000000000000e00000000000000000e9
:092b0b00000000000000000000c1
:202b140000000000000000000000000000000000000000000000000e000000000000000093
:0a2b34000000000000000000000097
:202b3e00000000000000000000000000000000000000000000000000000000000020000057
:092b5e000000000000000000006e
:202b670000003000000000000000000000000000000000000000040000000000000000001a
:0a2b87000000000000000000000044
:202b91000c00000400000000000000000000000000000000000000038ec3c81000000000e8
:092bb1000000000000000000001b
:202bba00040000002000000000000000000000000000000000000000054dbc400000000089
:0a2bda0000000000000000000000f1
:202be400803400000000000000800000000f09000000000000800000000000000000000005
:092c0400000000000000000000c7
:202c0d000000400000000000000a0400001cf04000000000000a0000000000000000000003
:0a2c2d00000000000000000000009d
:202c370000020000000000000000000000000000000000000000000000000000000000007b
:092c570000000000000000000074
:202c6000044000000000000000080000000000000000000000080000000000000000000000
:0a2c8000000000000000000000004a
:202c8a000000000000000000000000000000000000000000008000000000000000000000aa
:092caa00000000014000000000e0
:202cb3000400000000000000000000000000000000000000000c00000000000000000000f1
:0a2cd30000000000000000000000f7
:202cdd00800000000000000000000000000000000000000000000000000000000000000057
:092cfd00000000000000000000ce
:202d060000000000000000000000000000000000000000000000000030000000000000007d
:0a2d260000000000000000000000a3
:202d30000c30000000000000000000000000000000000000000000001405a8000000000086
:092d50000000000000000000007a
:202d59000440000000000000000000000000000000000000000000000200a5480000000027
:0a2d79000000000000000000000050
:202d830000020000000000000000000000000000000000000000000400000000000000002a
:092da30000000000000000000027
:202dac00000000000000000000000000000000000000000000000000680000000038000067
:0a2dcc0000000000000000000000fd
:202dd600002c000000000000000000000000000000000000000003c0000f08000280000055
:092df600000000200000000000b4
:202dff00000070000000000000000000000000000000000000000020000af05000000000da
:0a2e1f0000000000000000000000a9
:202e29002c0000000000000000042000000000000000000000000000000000000000000039
:092e490000000040000000000040
:202e520006868000000000000000000000000000000000000000000500000000000000004f
:0a2e72000000000000000000000056
:202e7c00800000000000000000000000000000000000000000800000000000000000000036
:092e9c000000000000000000002d
:202ea5000000000000000000000000000000000000000000000a0000000000000000000003
:0a2ec5000000000000000000000003
:202ecf000002000000000000000000000000000004000000000000003da0f81000000000f8
:092eef00000000000000000000da
:202ef800040000000000000000000000000000000000000000080000016c8f400000000072
:0a2f180000000000000000000000af
:022f22000000ad
:022f2400110298
:022f26000101a7
:202f2800000000000000000000000000000000000000000010000000000000400000000039
:092f48000000000000000000047c
:202f5100000000000000000000000000000000000000000000000000000000000000000060
:0a2f71000000000000000000000056
:202f7b0000000000000000000000000000000000080000002000000000000080000000008e
:092f9b0000000000000000000825
:202fa40000000000000000000000000000000000000000000000000000000000000000000d
:0a2fc4000000000000000000000003
:202fce00000000000000000000000000000000000000000010000020000000400000000073
:092fee00000000000200000004d4
:202ff7000000000000000000000000000000000000c00000000000030000000000000000f7
:0a301700000000000020000000008f
:203021000000000000080000000000002000000000080000000000002000000000000080bf
:0930410000000000000000000086
:20304a00000000000000000000000000000000000000000000000000000000000000000066
:0a306a00000000000000000000005c
:2030740000000000000c00000000000030000000000c00000000000030380000000000c0cc
:0930940000000000000300000030
:20309d0000000000000000000000000000000000000000000000000000040000000000000f
:0a30bd000000000000000000000009
:2030c7000000000000000000000000000000000008000000000000000000000000000000e1
:0930e700000000000000040000dc
:2030f0000000000000000000000000000000000000000000010000000000000000000000bf
:0a311000000000000000006800004d
:20311a000000000000000000000000000000000000000e0000000000000000000000000087
:09313a000000000000000000008c
:20314300000000000000000000000000000000000000010002000000000000000000000069
:0a31630000000000000000000080e2
:20316d000000000000080000000000002000000000080f0000000000200000000000008063
:09318d000000000000020000082f
:20319600000000000000000000000000000000000000000001000000000000000000000018
:0a31b600000000000000000000000f
:2031c0000000000000000000000000000000000000000000000000000000000000000000ef
:0931e000000000000000000000e6
:2031e90000002000000000000000000000000000000000000800000000000000000000009e
:0a32090000000000000000000000bb
:2032130000000000000000000000000000000000000000000000000000000000000000009b
:0932330000000000000000000092
:20323c00000000000000000000000000000000000000000000000000000000000000000072
:0a325c000000000000000000000068
:20326600000000000000000000000000000000000000000000000000000000000000000048
:093286000000000000000000003f
:20328f0000000000000000000000000000000000000000000000000000000000000000001f
:0a32af000000000000000000000015
:2032b9000003000000000000000000000000000000000000000000000000000000000000f2
:0932d900000000000000000002ea
:2032e2000000000000000000000000000000000000000000000000000000000000000000cc
:0a33020000000000000000000000c1
:20330c000000000000000000000000000000000000000000000000000000000000000000a1
:09332c0000000000000000000098
:20333500000020000000000000000000000000000000000000000000000000000000000058
:0a335500000000000000000000006e
:20335f0000000000000000000000000000000000000000000000000000000100000000004d
:09337f0000000000000000000045
:20338800000000000000000000000000000000000000000000000000000000000000000025
:0a33a800000000000000000000001b
:2033b2000000000000000000000000000000000000000000000000000000000000000000fb
:0933d200000000000000000000f2
:2033db000000000000000000000000000000000000000000000000000000000000000000d2
:0a33fb0000000000000000000000c8
:203405000000000000000000000000000000000000000000000000000000000000000000a7
:093425000000000000000000009e
:20342e0000000000000000000000000000000000000000000000000000000000000000007e
:0a344e000000000000000000000074
:20345800000000000000000000000000000000000000000000000000000000000000000054
:093478000000000000000000004b
:2034810000002000000000000000000000000000000000000000000000000000000000000b
:0a34a1000000000000000000000021
:2034ab00000000000000000000000000000000000000000000000000000000000000000001
:0934cb00000000000000000000f8
:2034d4000000000000000000000000000000000000000000000000000000000000000000d8
:0a34f40000000000000000000000ce
:2034fe000000000000000000000000000000000000000000000000000000000000000000ae
:09351e00000000000000000000a4
:20352700000000000000000000000000000000000000000000000000000000000000000084
:0a354700000000000000000000007a
:20355100000300000000000000000000000000000000000000000000000000000000000057
:0935710000000000000000000051
:20357a00000000000000000000000000000000000000000000000000000000000000000031
:0a359a00000008000000000000001f
:2035a400000000000000000000000000000000000000000000000000000000000000000007
:0935c400000000000000000000fe
:2035cd000000200000000000000000000000000000000000000000000000000000000000be
:0a35ed0000000000000000000000d4
:2035f7000000000000000000000000000000000000000000000000000000000000000000b4
:09361700000000000000000000aa
:2036200000000000000000000000000000000000000000000000000000000000000000008a
:0a3640000000000000000000000080
:20364a00000000000000000000000000000000000000000000000000000000000000000060
:09366a0000000000000000000057
:20367300000000000000000000000000000000000000000000000000000000000000000037
:0a369300000000000000000000002d
:20369d0000000000000000000000000000000000000000000000000000000000000000000d
:0936bd0000000000000000000004
:2036c6000000000000000000000000000000000000000000000000000000000000000000e4
:0a36e600000000000000000000805a
:2036f00000000000000000000000000000000000000000001000000000000000000000208a
:09371000000000000000000000b0
:2037190000002000000000000000000000000000000000000a000000000000000000000165
:0a3739004000000000000000000046
:20374300000000000000000000000000000000000000000000000000000040000000000026
:093763000000000000000000005d
:20376c0000000000000000000000000000000000000000000000000000000200000000003b
:0a378c0002c0000000000000000071
:20379600000000000000000000000000000000000000000010000000000000000000000003
:0937b6000000000029eb80000076
:2037bf000000000000000000000000000000000000000000020000000000000000000000e8
:0a37df00000000000001ff000000e0
:2037e90000010000000000000000000000000000000000000000000000000000005f9a00c6
:093809002800000000008000000e
:20381200000000000000000000000000000000000000000000000000000000001005eb781e
:0a3832000400000000000f00000079
:20383c0000000000000000000000000000000000000000000000000000000000045bb39ebc
:09385c0000000000000000000261
:2038650008002000000000000000000000000000000000000000000000000000000e75a4f4
:0a3885000000000000000f09002001
:20388f0000000000000000000000000000000000000000000000000000000000085f5a1e3a
:0938af0000000000000010000000
:2038b800000000000000000000000000000000000000000000000000000000000005bb78b8
:0a38d8000004000000000080000062
:2038e2000200000000000000000000000000000000000000000000000000000000000000c4
:0939020004000001897c80000032
:20390b00080000000000000000000000000000000000000000000000000000000000000094
:0a392b0003400000192fc100000046
:20393500000000000000000000000000000000000000000000000000000000000000000072
:093955000000010368cc780000b9
:20395e00000000000000000000000000000000000000000000000000000000000000000049
:0a397e000000000139c2f00e000045
:2039880000000000000000000000000000000000000000000000000000000000000000001f
:0939a800000000203d6900a000b0
:2039b1000000200000000000000000000000000000000000000000000000000000000000d6
:0a39d10000000000028090100000ca
:2039db000000000000000000000000000000000000000000000000000000000000000000cc
:0939fb00000000000000000000c3
:203a04000000000000000000000000000000000000000000000000000000000000000000a2
:0a3a24000000000000000d0000008b
:203a2e00000000000000000000000000000000000000000000000000000000000000000078
:093a4e00000000019fc900000006
:203a570000000000000000000000000000000000000000000000000000000000000000004f
:0a3a7700000000003de4b000000074
:203a810000010000000000000000000000000000000000000000000000001c000000000008
:093aa100387001033cfe500400e2
:203aaa000000000000000000300000000000000000000000000000000000000000000000cc
:0a3aca00000000003141e08ea00072
:203ad40000000000000000000000000000000000000000001000000000000000008abf80f9
:093af40080000000000000000049
:203afd0000002400000000000000000000000000000000000200000000000000000a25fd57
:0a3b1d00c0000000000000000000de
:203b2700000000000000000000000000000000000000000000000000000000000066804454
:093b4700000000000000019000e4
:203b50000000000000000000000000000000000000000000000000000000000000099b3c75
:0a3b7000200000000000001f00000c
:203b7a00000000000000000000000000000000000000000000000000000000000000000427
:093b9a00380000000000001000da
:203ba3000800000000000000000000000000000000000000000000000000000000000000fa
:0a3bc300040000000000000d0000e7
:203bcd000000000000000000000000000000000000000000000000000000400200ff33e084
:093bed00000000015778180408db
:203bf60000000000000000000000000000000000000000000000000000000a00000af0bbf0
:0a3c1600c3402000054f8000250088
:203c2000000000000000000000000000000000000000000000000000000000000000000084
:093c40000000000000000010006b
:203c49004000200000000000000000000000000000000000080000000000000000000000f3
:0a3c6900400000000000000a000007
:203c7300000000000000000000000000000000000000000000000000000000000000000031
:093c93008002081908db000001a1
:203c9c004000000000000000000000000000000000000000000000000000000000000000c8
:0a3cbc0000004020346dd000000429
:203cc6000000000000000000000000000000000000000000000000000000000000000000de
:093ce600000000000000000000d5
:203cef00c000000000000000000000000000000000000000000000000000000000000000f5
:0a3d0f000000000000000000000c9e
:203d1900000300000000000000000000000000000000000000000000000000000000000087
:093d390000000000000050000031
:203d4200000000000000000000000000000000000000000000000000000000000000000061
:0a3d620000000000000000800010c7
:203d6c00000000000000000000000000000000000000000000000000000000000000000037
:093d8c00000000000000781000a6
:203d95000000200000000000000000000000000000000000000000000000000000000000ee
:0a3db50000000000000000090000fb
:203dbf000000000000000000000000000000000000000000000000000000000000000000e4
:093ddf0000020000000098e00061
:203de8000000000000000000000000000000000000000000000000000000000000000000bb
:0a3e080000005000000005900000cb
:203e120000000000000000000000000000000000000000000000000000000000100570000b
:093e32000000021a86fc7008145d
:203e3b00000000000000000000000000000000000000000000000000000000000000a024a3
:0a3e5b000240000228ae80804010f3
:203e650000000000000000000000000000000000000000000000000000000000000000003d
:093e850000000208bbe9f0000096
:203e8e00000000000000000000000000000000000000000000000000000000000000000014
:0a3eae0000000006017ed5000000b0
:203eb8004000000000000000000000000000000000000000000000000000000000000000aa
:093ed800000000000000001000d1
:203ee100400020000000000000000000003000000000000000000000000000000000000031
:0a3f0100000000000000000a0000ac
:203f0b00000400000000000000000000000000000000000000000000000000000000000092
:093f2b000000000000000010017c
:203f34004803c0000000000000000000000000000000000000000000000000000000000062
:0a3f54000000000000000008000457
:203f5e00400000000000000000000000000000000000000000000000000000000000000003
:093f7e000000000000000000003a
:203f870000c00000000000000000000000000000000000000000000000000000000000005a
:0a3fa7000000000000000000000010
:203fb100002a000000000000000000000000000000000000000000000000000000000000c6
:093fd100000000000000000004e3
:203fda000004000000000000000000000000000000000000000000000000000000000000c3
:0a3ffa0000000000000005000000b8
:2040040000380000000000000000000000000000000000000000000000000c000000000058
:094024000000000abde1000000eb
:20402d0000042000000000000000000000000000000000000000000000000000000000004f
:0a404d000000002617c28d000c00d1
:204057004a00000000000000000000000000000000000000000000000000000000000000ff
:0940770000020000000001e0005d
:2040800000e000000000000000000000000000000000000000000000000000000000000040
:0a40a0000000000000000000800096
:2040aa00000000000000000000001680000000000000000000000000000000000000000060
:0940ca000000001002fa000000e1
:2040d300080000000000000000001294090000000000000000000000000000000000000016
:0a40f3000000000008058000000036
:2040fd00800000000000000000000000000000000000000000000000000000000000000023
:09411d00000001037cd9801000b0
:20412600c000000000000000000000000000000000000000000000000000000000000000b9
:0a4146000000000039c2e10d000482
:2041500000000000000000000000000000000000000000000000000000002000000000002f
:094170000000000000001800002e
:204179004000300000000000000000000000000000000000080000000000000000000000ae
:0a4199000000000000000008000014
:2041a3000000000000000000000000000000000000000000000000000000000000000000fc
:0941c300000000000000180001da
:2041cc0048000000000000000000000000000000000000000000000000000000000000008b
:0a41ec00000000000000070e0004b0
:2041f6000000000000000000000000000000000000000000000000000000000000000000a9
:094216000000000001eb80000033
:20421f0000000000000000000000000000000000000000000000000000000000000000007f
:0a423f00000000001401db00000085
:20424900000100000000000000000000000000000000000000000000000000000000000054
:0942690000000802940901e000c4
:2042720000000000000000000000000000000000000000000000000000000000000000002c
:0a429200000000000000a01a000068
:20429c00000000000000000000000000000000000000000000000000000000000000000002
:0942bc0000000000000080000079
:2042c5000800000000000000000000000000000000000000000000000000000000000000d1
:0a42e50000000000000001000000ce
:2042ef000000000000000000000000000000000000000000000000000000000000000000af
:09430f0000000001c079f8000073
:20431800000004000000000000000000000000000000000000000000000000000000000081
:0a433800000000003c36e7800000a2
:2043420000000000000000000000000000000000000000000000000000000000000000005b
:09436200000001016ce878000084
:20436b0008000000000000000000000000000000000000000000000000000000000000002a
:0a438b000000000036c3d0800000df
:204395000000000000000000000000000000000000000010000000000000000000000000f8
:0943b5000000010a89db00000090
:2043be000000000000000000000000000000000000000002000000000000000000000000dd
:0a43de00000000a014829008000007
:2043e8000000000000000000000000000000000000000000000000000000000000000000b5
:094408000000800000000000002b
:2044110000002000000000000000000000000000000000000000000000000000000000006b
:0a4431000000080000000000000079
:20443b008000000000000000000000000000000000000000000000000000000000000000e1
:09445b0000000000000000000058
:2044640008000400000000000000000000000000000000000000000000000000000000002c
:0a448400000000000000000000002e
:20448e0000000000000000000000000000000000000000000000000000000000000000000e
:0944ae0000000000000000000005
:2044b7000000000000000000000000000000000000000000000000000000040000000000e1
:0a44d70000000000000000000000db
:2044e1000003000000000002000000000000000000000000000000000000000000000000b6
:09450100001000000000000000a1
:20450a00000000000000000000000000000000000000000000000000000000000000000091
:0a452a000000000000000000000087
:20453400000000000000000000000000000000000000000000000000000000000000000067
:094554000000000000000000005e
:20455d0000000000000000000000000000000000000000000000000000000000000000003e
:0a457d000000000000000000000034
:20458700000000000000000000000000000000000000000000000000000000000000000014
:0945a7000000000000000000000b
:2045b0000000000000000000000000000000000000000000000000000000000000000000eb
:0a45d00000000000000000000000e1
:2045da000000000000000000000000000000000000000000000000000000000000000000c1
:0945fa00000000000000000000b8
:20460300000000000000000000000000000000000000000000000000000001000000000096
:0a462300000000000000000000008d
:20462d0000000000000000000000000000000000000000000000000000000000000000006d
:09464d0000000000000000000064
:20465600000000000000000000000000000000000000000000000000000000000000000044
:0a467600000000000000000000003a
:02468000000038
:02468200110322
:02468400010132
:204686000000000000000000000000000000000000000000000000000000004000000000d4
:0946a6000001000000000000000a
:2046af000000000000000000000000000000000000000000000000000000000000000000eb
:0a46cf0000000000000000000000e1
:2046d900000000000000000020000000000000800000000020000000003800800000000049
:0946f900000200000000000000b6
:20470200000000000000000000000000000000000000000000000000000000000000000097
:0a472200000000000000000000008d
:20472c00000000000000000000000000020000000002000000000030000000400000800079
:09474c0000010000000000000063
:204755000000000000000000000000000000000000000000000000020000000000000c0036
:0a477500000000000000000000003a
:20477f00000000000000000000000000200000000008000000000000000000000000008072
:09479f000000000000020000000f
:2047a8000000000000002000000000000000000000000000000000000000000000000000d1
:0a47c80000000000000000000000e7
:2047d20000000000000400000000000010000000000c00000000000010000000000180c056
:0947f200e00000000003000000db
:2047fb0000000000000000000000000000000000000000000000000000000000000000009e
:0a481b001000000000000000000083
:204825000000000000000000000000000000000000000000000000200000000000008000d3
:0948450000000000020002c000a6
:20484e00000000000000000000000000000000000000000000000000000000040000000046
:0a486e0000001000002000040040cc
:20487800000000000000000000000000000000000000000000000000000000000000000020
:0948980000000000000000000017
:2048a1000000000000000000020000000000000000000000020000000000000800000000eb
:0a48c100000020000000000000804d
:2048cb0000000000000800000000000020000000000a0000000000002030000000000080cb
:0948eb00c0000000000200000002
:2048f4000000000000000800000000000000000000000000000000018000400400000000d7
:0a4914000100100000000000004048
:20491e00000000000000000000000000000000000000000000000000000000000000000079
:09493e0000000000000000000070
:20494700000000000000000000000000000000000000000000000000000000000000000050
:0a4967000000000000000000000046
:20497100000000000000000000000000000000000000000000000000000000000000000026
:094991000000000000000000001d
:20499a000000000000000000000000000000000000000000000000000000000000000000fd
:0a49ba0000000000000000000000f3
:2049c4000000000000000000000000000000000000000000000000000000000000000000d3
:0949e400000000000000000000ca
:2049ed000000000000000000000000000000000000000000000000000000000000000000aa
:0a4a0d00000000000000000000009f
:204a170000020000000000000000000000000000000000000000000000000000000000007d
:094a370000000000000000000076
:204a4000000000000000000000000000000000000000000000000000000000000000000056
:0a4a6000000000000000000000004c
:204a6a0000000000000000000000000000000000000000000000000000000000000000002c
:094a8a0000000000000000000023
:204a93000000300000000000000000000000000000000000000000000000000000000000d3
:0a4ab30000000000000000000000f9
:204abd000000000000000000000000000000000000000000000000000000000000000000d9
:094add00000000000000000000d0
:204ae6000000000000000000000000000000000000000000000000000000000000000000b0
:0a4b060000000000000000000000a5
:204b1000000000000000000000000000000000000000000000000000000000000000000085
:094b30000000000000000000007c
:204b390000000000000000000000000000000000000000000000000000000000000000005c
:0a4b59000000000000000000000052
:204b6300000200000000000000000000000000000000000000000000000000000000000030
:094b830000000000000000000029
:204b8c00000000000000000000000000000000000000000000000000000000000000000009
:0a4bac0000000000000000000000ff
:204bb6000000000000000000000000000000000000000000000000000900000400000000d2
:094bd60040001000000000000086
:204bdf0000000000000000007000000000000000000000000000000000800000c000000006
:0a4bff0007000300000000000000a2
:204c09008000000000000000000000000000000000000000000000cca00e0000000000028f
:094c290000000000000000000082
:204c3200000000000000000000000000000000000000000000020a9ddb00000000000001dd
:0a4c5200e000000000000000000078
:204c5c000000400000000000000000000000000000000000000000000000000000000000f8
:094c7c00003000000000000000ff
:204c850000000000000000000000000000000000000000000000000000000000000000000f
:0a4ca5000000000000000000000005
:204caf00000000000000000000000000000000000000000000201681a0090000005a0b80a0
:094ccf00000000000000000000dc
:204cd80000000000000000000000000000000000000000000000097dde0000002025f324fc
:0a4cf800c0000000000000000000f2
:204d0200020000000000000000000000000000000000000000000000008800000000000007
:094d220000000000000000000088
:204d2b000000100000000000000000000000000000000000000000000079c000000000001f
:0a4d4b00000000000000000000005e
:204d5500000000000000000000000000000000000000000000000000000000080000000036
:094d750000003000000000000005
:204d7e000000000000000000000000000000000000000000000000000001e00080000000b4
:0a4d9e000000030000000000000008
:204da8008000400000000000000000000000000000000000000011c5e01000040000000061
:094dc800000010000000000000d2
:204dd100000000000000000000000000000000000000000000001a177a00e00140000000f6
:0a4df10000050500000000000000ae
:204dfb000002000000000000000000000000000000000000800000c4af1fa00000000000e4
:094e1b000000000000000000008e
:204e2400000000000000000000000000000000000000000000001a9dc9008000400000002e
:0a4e440002800100000000000000e1
:204e4e0000000000000000280000000000000000000000000000000000000000000000001c
:094e6e0024000000000000000017
:204e770000000000000000010000000000000000000000000000000000000000000000001a
:0a4e9700000200000000000000000f
:204ea1008000000000000000000000000000000000000000000000000000000000bdd6805e
:094ec100000000000000000000e8
:204eca00000000000000000000000000000000000000000000000000000000000002e7a837
:0a4eea0000000000000000000000be
:204ef40000000000000000000000000000000000000000000000000000000000000000009e
:094f140000000000000000000094
:204f1d00000000000000000000000000000000000000000000000000000000000000000074
:0a4f3d00000000000000000000006a
:204f470000000000000000000000000000000000000000000000000000000000000000004a
:094f670000000000000000000041
:204f700004000000000000000000000000000000000000000000000000000000000000001d
:0a4f90000000000000000000000017
:204f9a000000000000000000000000000000000000000000000000000000000000000000f7
:094fba00000000000000000000ee
:204fc30000001000000000000000000000000000000000000000000000000a0000000000b4
:0a4fe30000000000000000000000c4
:204fed00000000000000000000000000000000000000000000000000000000000000002c78
:09500d002c00000000000000006e
:20501600000000000000000000000000000000000000000000000000000000000000000377
:0a503600e3c00000000000000000cd
:2050400080000000000000000000000000000000000000000000000000000000007e5b8077
:0950600000000000000000000047
:20506900080000000000000000000000000000000000000000000000000000000002e12c10
:0a508900000000000000000000001d
:20509300000200000000000000000000000000000000000000000000000000000000002ccf
:0950b3000000000000000000c034
:2050bc000000000000000000000000000000000000000000000000000000000000000002d2
:0a50dc0000000000000000000000ca
:2050e60000000000000000000000000000000000000000070000000000000004000000009f
:0951060000000000000000f000b0
:20510f0040000000000000000000000000000000000000000000000000000010c000000070
:0a512f000000000000000000000c6a
:205139008000000000000000000000000000000000000000000000000009001000000000bd
:095159000000400004c800000140
:2051620000000000000000000000000000000000000000000000000000001000000000001d
:0a51820000000040801e90000000b5
:20518c00000000000000000000000000000000000000000000000000000000000000000003
:0951ac00000000000000000000fa
:2051b5000000000000000000000000000000000000000000000000000001c0000000000019
:0a51d50000000000000000000000d0
:2051df000000000000000000000000000000000000000000000000000f0900000000000098
:0951ff0000000000000000b000f7
:205208000000080000000000000000000000000000000000000000000080000000000000fe
:0a522800000000000000000100007b
:2052320000000000000000000000000000000000000000000000000000100010000000003c
:0952520002804000000000000190
:20525b000000100000000000000000000000000000000000000000000000e0000000000043
:0a527b000000000000000000000029
:205285000000000000000000000000000000000000000000000000cca00000080000000095
:0952a50000000000000000000000
:2052ae00800000000000000000000000000000000000000000001a9ddd000000c00000000c
:0a52ce0000000000000000000018be
:2052d8008000400000000000000000000000000000000000000000000000000400000000f2
:0952f80000020000000000980013
:2053010040000000000000000000000000000000000000000000000000000001400000000b
:0a532100000000000000000000146e
:20532b000002000000000000000000000000000000000000800000000000000000000000e0
:09534b00000080000000f10000e8
:205354000000000000000000000000000000000000000000000000000000000040000000f9
:0a537400000000000000081c000407
:20537e0000000000000000000000000000000000000000000000000000000000000000000f
:09539e0000000000000000000006
:2053a7000000000000000000000000000000000000000000000000000000000000000000e6
:0a53c70000000000000000000000dc
:2053d100000000000000000000000000000000000000000000000000000000000000002c90
:0953f100000000000000000000b3
:2053fa00000000000000000000000000000000000000000000000000000000000000000291
:0a541a000380000000000000000005
:20542400000000000000000000000000000000000000000000000000000000000000000068
:095444000000000000000000005f
:20544d0000000000000000000000000000000000000000000000000000000000000000003f
:0a546d000200000000000000000033
:20547700000000000000000000000000000000000000000000000000000000000000000015
:095497000000000000000000000c
:2054a0000000000000000000000000000000000000000000000000000000000000000000ec
:0a54c00000000000000000000000e2
:2054ca000000000000000000000000000000000000000000000000000000000000000000c2
:0954ea00000000000000000000b9
:2054f300000000000000000000000000000000000000000000000000000000000000000099
:0a551300000000000000000000008e
:20551d0000000000000000000000000000000000000000000000000000000000000000006e
:09553d0000000000000000000065
:20554600000000000000000000000000000000000000000000000000000000000000000045
:0a556600000000000000000000003b
:20557000800000000000000008000000000000000000000000000000000000000000000093
:0955900000000000000000000012
:20559900000000000000000000800000000000000000000000000000000000000000000072
:0a55b90000000000000000000000e8
:2055c3008000000000000000000000000000000000000000000000000000000200050780ba
:0955e300000000000000000000bf
:2055ec0000000000000000000000000000000000000000000000000000000000108003b854
:0a560c000000000000000000000094
:20561600000000000000000000000000000000000000000000000000000000000000000074
:095636000000000000000000006b
:20563f0000000000000000000000000000000000000000000000000000000000000000004b
:0a565f000000000000000000000041
:205669008000000000000000000000000000000000000000000000000000000000000000a1
:0956890000000000000000000018
:205692000000000000000000000000000000000000000000000000000000000000000000f8
:0a56b20000000000000000000000ee
:2056bc000000000000000000000000000000000000000010000000000000000000000000be
:0956dc00000000000000000000c5
:2056e5000000000000000000000000000000000000000002000000000000000000000000a3
:0a570500000000000000000000009a
:20570f0000000000000000000000000000000000000000000000000000000000000000007a
:09572f0000000000000000000071
:20573800000008000000000000000000000000000000000000000000000000000000000049
:0a5758000000000000000000000047
:20576200000000000000000000000000000000000000000300000000000000000000000024
:095782000010000000000000000e
:20578b000000300000000000000000000000000000000000000000000000020000000000cc
:0a57ab0000000000000000000000f4
:2057b5000000000000000000000000000000000000000000000000000000000000000000d4
:0957d500000000000000000000cb
:2057de000000000000000000000000000000000000000000000000000000000000000000ab
:0a57fe0000000000000000000000a1
:20580800800000000000000000000000000000000000000000000000000000000000000000
:0958280000000000000000000077
:20583100000000000000000000000000000000000000000000000000000000000000000057
:0a585100000000000000000000004d
:20585b000003000000000000000000000000000000000000800000000000000000000000aa
:09587b0000000000000000000024
:20588400000000000000000000000000000000000000000000000000000000000000000004
:0a58a40000000000000000000000fa
:2058ae000000000000000000000000000000000000000000000000000000000000000000da
:0958ce00002000000000000000b1
:2058d7000000000000000000000000000000000000000000000000000000000000000000b1
:0a58f70000020000000000000000a5
:20590100000000000000000000000000000000000000000000000000000000000000000086
:095921000000000000000000007d
:20592a0000000000000000000000000000000000000000000000000000000000000000005d
:0a594a000000000000000000000053
:20595400000000000000000000000000000000000000000000000000000000000000000033
:095974000000000000000000002a
:20597d0000000000000000000000000000000000000000000000000000000000000000000a
:0a599d000000000000000000000000
:2059a7000000000000000000000000000000000000000000000000000000000000000000e0
:0959c700000000000000000000d7
:2059d0000000000000000000000000000000000000000000000000000000000000000000b7
:0a59f00000000000000000000000ad
:2059fa0000000000000000000000000000000000000000000000000000000000000000008d
:095a1a0000000000000000000083
:205a2300000010000000000000000000000000000000000000000000000000000000000053
:0a5a43000000000000000000000059
:205a4d00000000000000000000000000000000000000000000000000000000000000000039
:095a6d0000000000000000000030
:205a7600000000000000000000000000000000000000000000000000000000000000000010
:0a5a96000000000000000000000006
:205aa0000000000000000000000000000000000000000000000000000000000000000000e6
:095ac000000000000000000000dd
:205ac9000000000000000000000000000000000000000000000000000000000000000000bd
:0a5ae90000000000000000000000b3
:205af300000200000000000000000000000000000000000000000000000000000000000091
:095b130000000000000000000089
:205b1c00000000000000000000000000000000000000000000000000000000000000000069
:0a5b3c00000000000000000000005f
:205b460000000000000000000000000000000000000000000000000000000000000000003f
:095b66000000000000000000181e
:205b6f00000000000000000000000000000000000000000000000000000000000000000016
:0a5b8f00000000000000000001808b
:205b99000000000000000000000000000000000000000000000000000000000000000000ec
:095bb900000000000000000000e3
:205bc2000000000000000000000000000000000000000000000000000000000000000000c3
:0a5be20000000000000000000000b9
:205bec00000000000000000000000000000080000000000000000000000000000000000019
:095c0c000000000000000000008f
:205c150000000000000000000000000000000400000000000000000000000000000000006b
:0a5c35000000000000000000000065
:205c3f00000000000000000000000000000000000000000000000000000000000000000045
:095c5f000000000000000000003c
:205c680000000000000000000000000000000000000000000000000000000000000000001c
:0a5c88000000000000000000000012
:205c92000000000000000000000000000000000000000000100000000000000000000000e2
:095cb200000000000000000000e9
:205cbb00000030000000000000000000000000000000000002000000000000000000000097
:0a5cdb0000000000000000000000bf
:205ce50000000000000000000000000000000000000000000000000000000000000000009f
:095d050000000000000000000095
:205d0e00000000000000000000000000000000000000000000000000000000000000000075
:0a5d2e00000000000000000000006b
:205d380080000000000000004000000000000000000000000000000000000000000000008b
:095d580000000000000000000042
:205d6100000000000000000000000000000000000000000000000000000000100000000012
:0a5d81000000000000000000000018
:205d8b00000240000000000000000000000000000000000080000000000000000000000036
:095dab00000200000000000100ec
:205db40000000c0000000000000000000000000000000000000000000000000000000000c3
:0a5dd40000000000000000000000c5
:025dde000000c3
:035de00062003f1f
:035de300720080cb
:025de6001100aa
:035de80082000036
:025deb000103b2
:085ded000000000000000000ae
:085df5000000000000000000a6
:085dfd0000000000000000009e
:085e0500000000000000000095
:0261ed000000b0
:0361ef00820080ab
:0261f2000103a7
:0861f4000000000000000000a3
:0861fc0000000000000000009b
:08620400000000000000000092
:08620c0000000000000000008a
:0265f4000000a5
:0265f600110191
:0365f8008200001e
:0265fb0001039a
:0865fd00000000000000000096
:0866050000000000000000008d
:08660d00000000000000000085
:0866150000000000000000007d
:0269fd00000098
:0369ff0082008093
:026a020001038e
:086a040000000000000000008a
:086a0c00000000000000000082
:086a140000000000000000007a
:086a1c00000000000000000072
:026e040000008c
:026e0600110277
:036e080082000005
:026e0b00010381
:086e0d0000000000000000007d
:086e1500000000000000000075
:086e1d0000000000000000006d
:086e2500000000000000000065
:02720d0000007f
:03720f008200807a
:02721200010376
:08721400000000000000000072
:08721c0000000000000000006a
:08722400000000000000000062
:08722c0000000000000000005a
:02761400000074
:0276160011035e
:03761800820000ed
:02761b00010369
:08761d00000000000000000065
:0876250000000000000000005d
:08762d00000000000000000055
:0876350000000000000000004d
:027a1d00000067
:037a1f0082008062
:027a220001035e
:087a240000000000000000005a
:087a2c00000000000000000052
:087a340000000000000000004a
:087a3c00000000000000000042
:027e240000005c
:017e26002239
:027e27004f4bbf
:027e2900010650
:00000001FF
