:02000000ff00ff
:080002004c6174746963650030
:17000a00694345637562653220323032302e31322e32373934330071
:16002100506172743a2069434534304858314b2d56513130300002
:1b003700446174653a204a756e20323220323032352030313a33343a32350079
:0200520000ffad
:040054007eaa997e69
:02005800510055
:02005a0001059e
:03005c00920020ef
:03005f0062014bf0
:0300620072009099
:0300650082000016
:02006800110085
:02006a00010192
:20006c00000000000000000000000000000000000000000000000000000000000000000074
:09008c000000000000000000006b
:2000950000000000000000000000000000000000000000000000000000000000000000004b
:0a00b5000000000000000000000041
:2000bf0000000000000000000004000000000000100000000000000000000000000000000d
:0900df00000000400000000000d8
:2000e8000000000000000000000000000000000000000000000000000000000000000000f8
:0a01080000000000000000000000ed
:200112000000000000000000000000000000000000000000000000000000000000000000cd
:09013200000000000000000000c4
:20013b000000000000000000000000000000000000000000000000000000000000000000a4
:0a015b00000000000000000000009a
:200165000000000000040000000000004000000000000100000000000000000000000040f5
:0901850000000000001000000061
:20018e00000000000000000000000000000000000000000000000000000000000000000051
:0a01ae000000000000000000000047
:2001b80000000000000c00000000000020000000000000800000000030000000000000c08b
:0901d8000000000000020000001c
:2001e1000000000000000000000000000000000000000000000000000000000000000000fe
:0a02010000000000000000000000f3
:20020b000000000000000000000000000000000000000000000000000000000000000000d3
:09022b000000004000000000008a
:200234000000000000000000000000000000000000000000000000000000000000000000aa
:0a02540000000000000000000000a0
:20025e00000000000000000000000000000000000000000000000000000000000000000080
:09027e0000000000000000000077
:200287000000000000000000000040000000000001000000000040000000000000000000d6
:0a02a7000000000400000000000049
:2002b100000000000004000000040000100000000000004000000000100000000000004085
:0902d10000000000000100000023
:2002da000000000000000000000000000000000000000040000000000000000000000000c4
:0a02fa0000000000000000000000fa
:200304000000000000000000000000000000000000000000000000000000000000000000d9
:09032400000000000000000000d0
:20032d00000020000000000000000000000000000040000000000000000000000000000050
:0a034d0000000000000000000000a6
:20035700000000000000000000000000000000000000000000000200000000000000000084
:090377000000000000000000007d
:20038000000000000000000000000000000000000000000000000034000000000000000029
:0a03a0000000000000000000000053
:2003aa00000000000000000000100000000000000000000000000000000000000000000023
:0903ca000000000000000000002a
:2003d3000000000000000000000100000000000000000000000000140000000000000000f5
:0a03f3000000000000000000000000
:2003fd0000030000000000000000000000000000000000000000000727a10100000000000d
:09041d00000000040000000000d2
:2004260000000000000000000000000000000000000000000000000041da0000000000009b
:0a04460000000000000000000000ac
:2004500000000000000000000000000000000000000000000000000000000000000000008c
:0904700000000000000000000083
:20047900000020000000000000000000000000000000000000000000000000000000000043
:0a0499000000000000000000000059
:2004a300000000000000000000000000000000000000000000000000000000000000000039
:0904c30000000000000000000030
:2004cc00000000000000000000000000000000000000000000000000000000000000000010
:0a04ec000000000000000000000006
:2004f6000000000000000000000000000000000000000000000000000000000000000000e6
:09051600000000000000000000dc
:20051f000000000000000000000000000000000000000000000000000000000000000000bc
:0a053f0000000000000000000000b2
:20054900000000000000000000000000000000000000000000000000000000000000000092
:0905690000000000000000000089
:2005720000000000000000000000000000000000000000000000003c00000000000000002d
:0a059200000000000000000000005f
:20059c0000000000000000000000000000000000000000000000140000000000000000002b
:0905bc0000000000000000000036
:2005c50000002800000000000000000000000000000000000000008000000000000000006e
:0a05e500000000000000000000000c
:2005ef000000000000000000000000000000000000000000000000000000000000000000ec
:09060f00000000000000000000e2
:200618000800000000000000000000000000000000100000000000000000000000000000aa
:0a06380000000000000000000000b8
:20064200000000000000000000000000000000000000000000000000000000000000000098
:090662000000000000000000008f
:20066b0000000000000000000000000000000000000000000000000000000000000000006f
:0a068b000000000000000000000065
:20069500000100000000000000000000000000000010000000000000000000000000000034
:0906b5000000000000000000003c
:2006be00000000000000000000010a00000000000000000000000000000000000000000011
:0a06de000000000000000000000012
:2006e8004000000000000000000000000000000000000000000000000000000000000000b2
:09070800000000000000000000e8
:200711000000000000000000000000000000000000000000000000000000000000000000c8
:0a07310000000000000000000000be
:20073b0000000000000000000000000000000000000000000000000000000000000000009e
:09075b0000000000000000000095
:20076400000000000000000000000000000000000000000000000000000000000000000075
:0a078400000000000000000000006b
:20078e0000000000000000000000000000000000000000000000000000000000000000004b
:0907ae0000000000000000000042
:2007b70008000000000000000000000000000000000000000000000000000000000000001a
:0a07d7000000000000000000000018
:2007e1000000000000000000000000000000000000000000000000000000000000000000f8
:09080100000000000000000000ee
:20080a000000000000000000000000000000000000000000000000000000000000000000ce
:0a082a0000000000000000000000c4
:20083400000000000000000000000000000000000000000000000000000000020000007032
:0908540000200800000000000073
:20085d0000002000000000000000000000000000004000000000000000000000000000001b
:0a087d00b8000000000000000000b9
:2008870000000000000000000000000000000000000000000000000000000002800000527d
:0908a7003c300a8000000e0f40f5
:2008b000000000000000000000000000000000000000000000000000000000002000000008
:0a08d000003c008400000000f0006e
:2008da00000000000000000000000000000000000000000000000000000000000001995212
:0908fa003c30000000000e9640a5
:20090300000000000000000000000000000000000000000000000000000000000000008054
:0a092300803c010000001d0690005a
:20092d000003000000000000000000000000000000000000000000000000000000019952bb
:09094d003c300000000000000035
:20095600000000000000000000000000000000000000000000000000000000000000008001
:0a097600803c0000000000000000bb
:20098000000000000000000000000000000000000000000000000000000000000000007add
:0909a0003c3000400000000000a2
:2009a90000002000000000000000000000000000000000000000000000000000000000000e
:0a09c900003c0000000000000000e8
:2009d300000000000000000000000000000000000000000000000000000000000000005aaa
:0909f3003c30000000000000008f
:2009fc000000000000000000000000000000000000000000000000000000000000000000db
:0a0a1c00003c000000000000000094
:200a2600000000000000000000000000000000000000000000000000000000000005815ad0
:090a46003c300000060400000031
:200a4f0000000000000000000000000000000000000000000000000000000000000000a0e7
:0a0a6f00803c0000000200000000bf
:200a7900000000000000000000000000000000000000000000000000000000030009005af7
:090a990015500c001c00000000c7
:200aa2000000000000000000000000000000000000000000000000000000000030001800ec
:0a0ac200815401c000000000000094
:200acc00000000000000000000000000000000000000000000000000000000000000010009
:090aec00000000001403defa0012
:200af50000002400000000000000000000000000000000000000000000000000000000803d
:0a0b1500000000000002bf0a5010ab
:200b1f00000000000000000000000000000000000000000000a0000015c0000280001a00a5
:090b3f00000000000001c8800064
:200b480008000000000000000000000000000000000000000008400003e05f0020000000db
:0a0b68000000000000001dd0000096
:200b720000000000000000000000000000000000000000000000000280e046200000009b00
:090b920039d04000000000000011
:200b9b000000000000000000000000000000000000000000000000006fc0080000000007fc
:0a0bbb00e78a0000000000000000bf
:200bc50000010000000000000000000000000000000000000000014280000000000000004c
:090be500000000000000ee050014
:200bee0000000000000000000001000000000000000000000002000240000000080000009a
:0a0c0e00000000200000010050006b
:200c18004000000000000000000000000000000000000000000000000000000000001a0062
:090c38000000000000625f800072
:200c4100000000000000000000000000000000000000000000000000000000000000000093
:0a0c61000000000000041cd0000099
:200c6b00000000000000000000000000000000001000000000000000000000000000000059
:090c8b000000000020040000003c
:200c940000000000000000000000000000000000020000000000001c000000000000000022
:0a0cb4000000000003c24000000031
:200cbe0006000000000000000000000000000000000000000000000374fe3000000000006b
:090cde00000000002628000000bf
:200ce700080000000000000000000000000000000000000000000014217bf7000800000036
:0a0d07000000000000e7800000007b
:200d110000000000000000000000000000000000000000000000000015c380230005000042
:090d310000000000262000000073
:200d3a00000000000000000000000000000000000000000000000001002038002000080018
:0a0d5a0000000000026340000000ea
:200d640000000000000000000000000000000000000000000000020006f0400200081972a2
:090d8400400008001402fe00000a
:200d8d000000200000000000000000000000000000400000000000042a5b0000000050a964
:0a0dad00ec20000000003c00a00054
:200db700000000000000000000000000000000000000000000a00060000000028000001387
:090dd70039c08a000000dcad42c5
:200de000800000000000000000000000000000000000000000080000000000002000d00b70
:0a0e000043dc008001420e00810473
:200e0a000000000000000000000000000000000000000000000000039da004000000000084
:090e2a00000000001600000000a9
:200e33000000000000000000000000000000000000000000000000006e6bc0000000000006
:0a0e53000000000000000000000095
:200e5d000003000000000000000000000000000000000000000002061690820000071a5ec3
:090e7d006850000000380000007c
:200e860000000000000000000000000000000000000000000002000403f80000080000093a
:0a0ea60039440020000000000000a5
:200eb00000000000000000000000000000000000000000000000000014e0a02000001e0050
:090ed00000000000060200e7101a
:200ed90000002000000000000000000000000000000000000000800000600400000000b045
:0a0ef900000000000003a4adb000eb
:200f030000000000000000000000000000000000000000000000000075c014200000000065
:090f230000000c000601785a00e0
:200f2c00000000000000000000000000000000000000000000000000207080000000000095
:0a0f4c000000004001400600a00470
:200f560000000000000000000000000000000000000000000000020040ea0000000001004e
:090f760000000000000000000072
:200f7f000000000000000000000000000000000000000000000200142250500008000090e2
:0a0f9f000000002000000000000028
:200fa90000000000000000000000000000000000000000000000000035a21423000000001a
:090fc900000000000028000000f7
:200fd200000000000000000000000000000000000000000000000c000070a0002000900033
:0a0ff20000000000024000000000b3
:200ffc0000000000000000000000000000000000000000000080014014ce540000080ef3d5
:09101c003f4008001403fa18001b
:2010250000002000000000000000000000000000000000000000000202cc80010000f1b594
:0a104500a1f40000036255810200cf
:20104f00000000000000000000000000000000000000000000a000001cda1400000180b79f
:09106f0009008a001404ec0500dc
:2010780008000000000000000000000000000000001000000008003400dba201000008017d
:0a10980040d000800023f5c04000a6
:2010a20000000000000000000000c00000000000000000000000020024ff84004000181f4e
:0910c200bf8000000000000000e6
:2010cb0008000000000000000000000000000000000000000000000403d8e009040000b081
:0a10eb0023f800000003800000005d
:2010f5000001000000000000000000000000000000000000000000004000000000078037dc
:091115003e8000001500000000fe
:20111e000000000000000000000000000000000000000000000100003c0000000000000f65
:0a113e002fc800000002c0000000ee
:201148000000000000000000002000000000000000000000000003e040000000000780febf
:091168003fc000060400ee5a002d
:2011710008000000000000000000000000000000000000000000000c280000000002500bc5
:0a11910022fc00000022e7d7f00066
:20119b0000000000000000000000000000000000000000000000000000000000000180169d
:0911bb0094000000206c6c3c0261
:2011c400000000000000000000000000000000000000000000000000000000000000f0af6c
:0a11e4008000000003c23707c000be
:2011ee00000000000000000000000000000000000020000000000060400000000005809309
:09120e00a9c00000000258ad4a1d
:20121700880000000000000000000000000000000005000000000000200000000000008585
:0a123700e79400000002ac00800400
:20124100000000000000000000000000000000000000000000c0140680000000000000f241
:09126100bdc08040400000000007
:20126a00000000000000000000000000000000000000000000080080000000000100500388
:0a128a0043fc00020bc0000000004e
:201294000000000000000000000000000000000000000000000001e0018050020005000081
:0912b40000000000360001e70013
:2012bd0000002000000000000000000000000000004000000000000033500a000000000024
:0a12dd000000000002402cddb0000c
:2012e700000000000000000000000000000000000000000000000066858f00228000001bb0
:09130700b0900a004402cea500da
:201310000000000000000000000000000000000000000000000000026470f3002000500183
:0a133000332c00800820050f5080c8
:20133a0000000000000000000000000000000000000000000000000780000000000000d339
:09135a00be980000000000000034
:20136300000000000000000000000000000000000000000000000000400000000000100119
:0a138300414001000003c00000001b
:20138d00000300000000000000000000000000000000000000000003b5a0a0000000000045
:0913ad00000000000478000000bb
:2013b600000000000000000000000000000000000000000000000000427804000000000059
:0a13d60000000000002400000000e9
:2013e00000000000000000000000000000000000000000000000000007ecf0200001800069
:091400000000000000054ff70098
:201409000000200000000000000000000000000000000000000000000350ef000000000061
:0a142900000000002142afdff000d8
:20143300000000000000000000000000000000000000000000000000000000000000000099
:091453000000000000005e05002d
:20145c00000000000000000000000000000000000000000000000000000000000000000070
:0a147c0000000000000240005000d4
:2014860000000000000000000000000000000000000000000000000000000000000701003e
:0914a60000000000002a5fc141b2
:2014af00000000000000000000000000000000000000000000000000000000000000088095
:0a14cf00000000000002b5a4200494
:2014d9000000000000000000000000000000000000000000000000000000000300000000f0
:0914f900000000001404000000d2
:20150200000000000000000000000000000000000000000000000000380000002000000071
:0a15220000000000000200000000bd
:20152c00000000000000000000000000000000000000000000000000000000020000005f3e
:09154c00fe900000000400000004
:20155500000024000000000000000000000000000000000000000000000000000000908f33
:0a15750067e00000000240000000e3
:20157f000600000000000000000000000000000000000000000000000000000280000112b1
:09159f002f18000000687e7f0097
:2015a800080000000000000000000000000000000000000000004a0000000000200000efc2
:0a15c80068f200000142acf5b0002b
:2015d20030000000000000000000000000000000000000000000000000000000000800338e
:0915f2008010200020007c26027c
:2015fb000100000000000000000000000000000000000000000000000000000000001009b6
:0a161b00f900000001403e025000fb
:2016250000010000000000000000000000000000000000000000000000000000000801009b
:091645000000000000600000003c
:20164e0000000000000000000000000000000000000000000000060000000000000090e006
:0a166e000000000000120000000060
:20167800000000000000000000000000000000000000000000000000000000000000090049
:0916980000000000066fcd5000b7
:2016a10000000400000000000000000000000000000000000000000000000000000001a084
:0a16c1000000000000029ffd100071
:2016cb0000040000000000000000000001e0f20000000000000080000000000000000000a8
:0916eb0000000000062b78c70284
:2016f40000030000000000000000000000100f0000000000000000000000000000000000b4
:0a171400000000000000370c300058
:20171e000200000000000000000000000000000000000000000000000000000000039e0008
:09173e000000002000694c2502a6
:201747000800000000000000000000000000000000000000000000000000000000000880f2
:0a1767000000000000063c015000e5
:2017710000000000000000000000000200000000000000000002000000000003000001f35d
:091791007e90000016724c02006b
:20179a0080000000000000000000000000000000000000000000000000000000200000a5ea
:0a17ba00efd0010000042ff0000042
:0217c400000023
:0217c60011010f
:0217c80001011d
:2017ca000000020000000000000800000000000020000000000800000000000020000000ad
:0917ea0000000080030000000073
:2017f3000000000000000000000000000000000000000000000000000000000000000000d6
:0a18130000000000000800000000c3
:20181d00000001000000000000040000000000001000000000040000000000001000000082
:09183d0000000040000000000062
:20184600000000000000000000000000000000000000000000000000000000000000000082
:0a1866000000000000000000000078
:2018700000000200000008000008000000200000200000008008003000100000200000001e
:09189000000000800000010000ce
:2018990000000000000000400000000000010000000034000c0000000001000000000000ad
:0a18b9000c000000000000300000e9
:2018c300000000002c040000000000f0100000000000004000000000100000000000004045
:0918e300000000000001000000fb
:2018ec000000000000000000000000080000000000000000000000000000000000000000d4
:0a190c0000000000000000000000d1
:2019160000000000000c00000000000030000000000000c00000000030000000000000c0c5
:0919360000000000058300000020
:20193f00000000000000000000000000000000000000000000000000000000000000000088
:0a195f000000000000080000000076
:20196900000000000000000000000000000000000000000000000008003000000000000026
:09198900c0000000000003000092
:2019920000000000000000000000000000000000000000000000800580020000020000002c
:0a19b20000000008000000300000f3
:2019bc000000000000000000000000000000000000000000000000000000000000036000a8
:0919dc0000000000000000000002
:2019e5000000000000000000000000000000000000000000000040000000000001001e0083
:0a1a050000000004000000000000d3
:201a0f00000000000004000000000000100000000000004000000000100000000000004013
:091a2f00000000000001000000ad
:201a380000000000000000000000000000000000000000000000800000000000020000000c
:0a1a5800000000080000000000007c
:201a6200000000000000000000000000000000000000000000000000000000000000000064
:091a82000000000100000000005a
:201a8b0000000000000000000000000000000000000000000000000000000000000000003b
:0a1aab000000000000000000000031
:201ab500000000000000000000000000000000000000000000000000000000000800000009
:091ad50000000000000000000008
:201ade000000000000000000000000000000000000000000000000000000000001000000e7
:0a1afe0000000000000000000000de
:201b08000000000000000000000000000000000000000000000000000000000000000000bd
:091b2800000000000000000000b4
:201b3100000000000000000000000000000000000000000000000000000000000000000094
:0a1b5100000000000000000000008a
:201b5b00000200000000000000000000000000000000000000000000000000000000000068
:091b7b0000000000000000000061
:201b8400000000000000000000000000000000000000000000000000000000000000000041
:0a1ba4000000000000000000000037
:201bae0000000000000000000000080000000000000000000000000000000000000000000f
:091bce000000000000000000000e
:201bd70000003000000000000000014000000000000000000000000000000000000000007d
:0a1bf70000000010000000000000d4
:201c01000000000000000000001000000000000000000000000000000000000000000000b3
:091c2100000000000000000000ba
:201c2a00000000000000000000010000000000000000000000000000000000000000000099
:0a1c4a000000000000000000000090
:201c5400000000000000000000000000000000000000000000000000000000000000000070
:091c740000000000000000000067
:201c7d00000000000000000000000000000000000000000000000000000000000000000047
:0a1c9d00000000000000000000003d
:201ca70000020000000000000000000000000000000000000000000000000000000000001b
:091cc70000000000000000000014
:201cd0000000000000000000000000000000000000000000000000000000000000000000f4
:0a1cf00000000000000000000000ea
:201cfa00000000000000000000000000000000000000000000000000000000000180000049
:091d1a00000000000000000000c0
:201d23000000000000000000000000000000000000000000000000000000000000000000a0
:0a1d43000000000000000000000096
:201d4d00000000000000000000000000000000000000000000000000000000000000000076
:091d6d000000000000000000006d
:201d760000000000000000000000000000000000000000000000000000000000000000004d
:0a1d96000000000000000000000043
:201da000000000000000000000000000000000000000000000000000000000000000000023
:091dc0000000000000000000001a
:201dc9000000000000000000000000000000000000000000000000000000000000000000fa
:0a1de90000000000000000000000f0
:201df3000002000000000000000000000000000000000000000000000000000000000000ce
:091e1300000000000000000000c6
:201e1c000000000000000000000000000000000000000000000000000000000000000000a6
:0a1e3c00000000000000000000009c
:201e460000000000000000000000000000000000000000000000000000000000000000007c
:091e660000000000000000000073
:201e6f00000030000000000000000000000000000000000000000000000000000000000023
:0a1e8f000000000000000000000049
:201e9900000000000000000000000000000000000000000000000000000000000000000029
:091eb90000000000000000000020
:201ec200000000000000000000000000000000000000000000000000000000000000000000
:0a1ee20000000000000000000000f6
:201eec000000000000000000000000000000000000000000000000000000000000000000d6
:091f0c00000000000000000000cc
:201f15000000000000000000000000000000000000000000000000000000000000000000ac
:0a1f350000000000000000000000a2
:201f3f0000020000000000000000000000000000040000000000000000000000000000007c
:091f5f0000000000000000000079
:201f6800000000000000000000000000000000000000000000000000000000000000000059
:0a1f880000000000c000000000008f
:201f920000000000000000000000000000000000000000000080000340000000000000006c
:091fb20000000000000000000026
:201fbb000400000000000000000000000000000000000000000c00000400000000000000f2
:0a1fdb0000000000000000000000fc
:201fe50080000000000000000000000000000000000000000000002000000000000000003c
:09200500000001000000000000d1
:20200e0000000000000000000000000000000000000000000000000e0000000000000000a4
:0a202e000000001000000000000098
:202038000c000000000000000000000000000000000000000000000000000000000000007c
:092058000000000000000000007f
:2020610004000000000000000000000000000000000000000000000000000000000000005b
:0a2081000000000000000000000055
:20208b00000200000000000000000000000000000000000000000020000000000000000013
:0920ab000000000000000000002c
:2020b400000000000000000000000000000000000000000000000004000000000000000008
:0a20d4000000000000000000000002
:2020de000000000000000000000000000000000000000000000000000000000000000000e2
:0920fe00000000000000000000d9
:20210700000030000000000000000000000000000000000000000000000000000000000088
:0a21270000000000000000000000ae
:2021310000000000000000000000000000000000000000000000000000000000000000008e
:0921510000000000000000000085
:20215a00000000000000000000000000000000000000000000000000000000000000000065
:0a217a00000000000000000000005b
:20218400000000000000000000000000000000000000000000800340000000000000000078
:0921a40000000000000000000032
:2021ad000006800000000000000000000000000000000000000a0020000000000000000062
:0a21cd000000000000000000000008
:2021d70000020000000000000000000000000000000000000000000006e0200000000000e0
:0921f700000000000100000000de
:2022000000000000000000000000000000000000000000000008000003ec07408000000000
:0a22200000000000000000000000b4
:20222a00000000000000000000000000000000000000000000000000000000000000000094
:09224a000000000000000000008b
:2022530000000000000000000000000000000000000000000000000000000000000000006b
:0a2273000000000000000000000061
:20227d008000000000000000000000000000000000000000002000000000000000000000a1
:09229d0000000000000000000038
:2022a600000000000000000000000000000000000000000000000000000000000000000018
:0a22c600000000000000000000000e
:2022d0000000000000000000000000000000000000000000000000000000000000000000ee
:0922f000000000000000000000e5
:2022f9000000000000000000000000000000000000000000000000000000000000000000c5
:0a23190000000000000000000000ba
:2023230080000000000000000000000000000000000000000000000000000000000000001a
:0923430000000000000000000091
:20234c00000000000000000000000000000000000000000000000100000000000000000070
:0a236c000000000000000000000067
:2023760000000400000000000000000000000000000000000024000000000000000000001f
:092396000000000000000000003e
:20239f0000001040000000000000000000000000000000000000800000000000000000004e
:0a23bf000000000000000000000014
:2023c9000000000000000000000000000000000000000000000000000000000000000000f4
:0923e900000000a000000000004b
:2023f2000000000000000000000000000000000000000000000000000000000000000000cb
:0a24120000000004000000000000bc
:20241c00800000000000000000000000000000000000000000000000000000000000000020
:09243c0000000000000000000097
:2024450008000000000000000000000000000000000000000000000000000000000000006f
:0a246500000000000000000000006d
:20246f00000200000000000000000000000000000400000000000000000000000000000047
:09248f0000000100000000000043
:20249800000000000000000000000000000000000000000000000000000000000000000024
:0a24b800000000000000000000001a
:2024c2000000000000000000000000000000000000000000008000c0148090001000000086
:0924e200000000000000000000f1
:2024eb000400000000000000000000000000000000000000000c8000005905408200000021
:0a250b0000000000000000000000c6
:20251500800000000000000000000000000000000000000000200003c00000000000000043
:0925350000000200340000000067
:20253e0000600000000000000000000000000000000000000000000000000000000000001d
:0a255e000000000002000000000071
:2025680008000000000000000000000000000000200000000000000000000000000000002b
:0925880000000000022000000028
:20259100040000000000000000000000000000000100000000000000000000000000000025
:0a25b10000000000016000000000bf
:2025bb000002000000000000000000000000000000000000000000000000000000000000fe
:0925db00000000000000000000f7
:2025e4000000000000000000000000000000000000000000000000000000000000000000d7
:0a26040000000000000000000000cc
:20260e000000000000000000000000000000000000000000002000003ce02004000000004c
:09262e0000000200000000ff1092
:2026370000003000000000000000000000000000000000000000041c017907400000000072
:0a265700000000000000000ff080fa
:202661000830000000000000000000000000000000000000000000c0000000000000000061
:09268100000000000002c0551821
:20268a0004804000000000000000000000000000000000000000002000000000000000004c
:0a26aa000000000000003dcfa20078
:2026b4008000000000000000000000000000000000000000008001c0000000000000000045
:0926d400000000000000000000fd
:2026dd000000000000000000000000000000000000000000000a043c000000000000000093
:0a26fd0000000000000000000000d3
:2027070000020000000000000000100000000000000000000000034000000000000000005d
:09272700000000000000000000a9
:202730000407000000000000000000800000000000000000000800200000000000000000d6
:0a275000000000000000000000007f
:20275a0000000000000000000000000000000000000000000000000000000000000000005f
:09277a0000000000000000000056
:20278300000000000000000000000000000000000000000000000000000000000000000036
:0a27a300000000000000000000002c
:2027ad0000000000000000000000000000000000000000000000000000000000000000000c
:0927cd0000000000000000000003
:2027d6000000000000000000000000000000000000000000000000000000000000000000e3
:0a27f60000000000000000000000d9
:202800000000000000000000000000000000000000000000000000000000000000000000b8
:09282000000000000000000000af
:2028290000000000000000000000000000000000000000000000000000000000000000008f
:0a2849000000000000000000000085
:20285300000200000000000000000000000000000000000000000000000000000000000063
:092873000000000000000000005c
:20287c0000000000000000000000000000000000000000000000000000000000000000003c
:0a289c000000000000000000000032
:2028a600000000000000000000000000000000000000000000000000000000000000000012
:0928c60000000000000000000009
:2028cf000000300000000000000000000000000000000000000000000000000000000000b9
:0a28ef0000000000000000000000df
:2028f9000000000000000000000000000000000000000000000000000000000000000000bf
:09291900000000000000000000b5
:20292200000000000000000000000000000000000000000000000000000000000000000095
:0a294200000000000000000000008b
:20294c0000000000000000000000000000000000000000000000000000000000000000006b
:09296c0000000000000000000062
:20297500000000000000000000000001000000000000000000000000000000000000000041
:0a2995000000000000000000000038
:20299f00000200000000000000000000000000000400000000000000000000000000000012
:0929bf000000000000000000000f
:2029c8000000000000000000000000000000000000000000000000000000000000000000ef
:0a29e80000000000000000000000e5
:2029f2000000000000000000000000000000000000000000000000000000000000000000c5
:092a1200000008000000000000b3
:202a1b00040000000000000000000000000000000000000000000000000000000000000097
:0a2a3b00000000c0000000000000d1
:202a45008000000000000000000000000000000000000000000000000000000000000000f1
:092a6500000000000022fc8000ca
:202a6e00000000000000000000000000000000000000000000000000000000000000000048
:0a2a8e0000000000000034f004080e
:202a9800080000000000000000000000000000000000000000000000000000000000000016
:092ab800000000001c24000000d5
:202ac1000400000000000000000000000000000000000000000000000000000000000000f1
:0a2ae10000000000020000000000e9
:202aeb000002000000000000000000000000000000000000000000000000000000000000c9
:092b0b00000000000000000000c1
:202b14000000000000000000000000000000000000000000000000000000000000000000a1
:0a2b34000000000000000000000097
:202b3e00000000000000000000000000000000000000000000000000000000000000000077
:092b5e000000000000000000006e
:202b670000003000000000000000000000000000000000000000000000000000000000001e
:0a2b870000000000000380000000c1
:202b91000c0000000000000000000000000000000000000000000000000000000000000018
:092bb100000000000032fb3c8032
:202bba000400000000000000000000000000000000000000000000000000000000000000f7
:0a2bda0000000000000074fbc408b6
:202be40080300000000000000000000000000000000000000000040000000000000000001d
:092c0400000008000000000000bf
:202c0d00000040000000000000000000000000000000000000000000000000000000000067
:0a2c2d00000000a0000000000000fd
:202c370000020000000000000000000000000000000000000000000000000000000000007b
:092c570000000001000000000073
:202c600004068000000000000000000000000000003000000000000000000000000000009a
:0a2c800000000080080000000000c2
:202c8a00000000000000000000000000000000000000000000800000000f08000000000093
:092caa00000000002400c0f2004b
:202cb3000400000000000000000000000000000000000000000c00000018f04800000000a1
:0a2cd300000000000000358f002013
:202cdd00803000000000000000000000000000000080000000000000010f0800000000008f
:092cfd00000000000002eada0008
:202d0600000000000000000000000000000000000000000000000000000af048000000006b
:0a2d26000000000000038ff0000021
:202d300008000000000000000000000000000000000000000000000000000000000000007b
:092d50000000000000000000007a
:202d590004c000000000000000000000000000000000000000000000000000000000000096
:0a2d79000000000001468000000089
:202d830000020000000000000000000000000000000000000000000000000000000000002e
:092da300000000000030000000f7
:202dac00000000000000000000000000000000000000000000000000000000000080000087
:0a2dcc0000000000000040000000bd
:202dd6000030000000000000000000000000000000000000000000000000000000000000ad
:092df600000000000200000000d2
:202dff000006b00000000000000000000000000000000000000000000000000000000000fe
:0a2e1f000000000000e000000000c9
:202e29002c0000000000000000000000000000000000000000000003400f08800000000083
:092e49000000000002000000007e
:202e52000780000000000000000000000000000000000000000000000418f040000000008d
:0a2e720000000000006000000000f6
:202e7c008000000000000000000000000000000000000000008001e0000000000000000055
:092e9c00000000002402d00f0028
:202ea5000000000000000000000000000000000000000000000a003e0000000000000000c5
:0a2ec50000000000021020ef0000e2
:202ecf000002000000000000000000000000000004000000001000000000000000000000cd
:092eef00000000000000000000da
:202ef8000400000000000000000000000000000000000000000900000000000000000000ad
:0a2f180000000000000000000000af
:022f22000000ad
:022f2400110298
:022f26000101a7
:202f2800000000000000000000000000000000000000000010000000000000400000000039
:092f48000000000000000000047c
:202f5100000000000000000000000000000000000000000000000000000000000000000060
:0a2f71000000000000000000000056
:202f7b00000000000000000000000000000000000000000020000000003400800000000062
:092f9b0000000000000000000825
:202fa40000000000000000000000000000000000000000000000000000000000000000000d
:0a2fc4000000000000000000000003
:202fce00000000000000000000000000000000000000000010000030000000400000000063
:092fee00000000000100000004d5
:202ff7000000000000000000000000000000000000c00000000000020000000000000000f8
:0a301700000000000020000000008f
:203021000000000000080000000000002000000000080000000000002000000000000080bf
:0930410000000000000003400043
:20304a0000000000000000000000000000000000000001e000000000000000000000000085
:0a306a00000000000000000000005c
:2030740000000000000c00000000000030000000000c00000000000030000000000000c004
:0930940000000000000300000030
:20309d00000000000000000000000000000000000000000000000000000000000000000013
:0a30bd000000000000000000000009
:2030c7000000000000000000000000000000000008000000000000000000000000000000e1
:0930e700000000000000000000e0
:2030f00000000000000000000000000000000000004000000100000000000000000000007f
:0a31100000000000000000000000b5
:20311a000000000000000000000000000000000000001e0000000000000000000000000077
:09313a000000000000000000008c
:20314300000000000000000000000000000000000000010002000000000000000000000069
:0a31630000000000000000000080e2
:20316d00000000000008000000000000200000000008000000000000200000000000008072
:09318d000000000000020000082f
:20319600000000000000000000000000000000000000000001000000000000000000000018
:0a31b600000000000000000000000f
:2031c0000000000000000000000000000000000000000000000000000000000000000000ef
:0931e000000000000000000000e6
:2031e90000002000000000000000000000000000000000000800000000000000000000009e
:0a32090000000000000000000000bb
:2032130000000000000000000000000000000000000000000000000000000000000000009b
:0932330000000000000000000092
:20323c00000000000000000000000000000000000000000000000000000000000000000072
:0a325c000000000000000000000068
:20326600000000000000000000000000000000000000000000000000000000000000000048
:093286000000000000000000003f
:20328f0000000000000000000000000000000000000000000000000000000000000000001f
:0a32af000000000000000000000015
:2032b9000003000000000000000000000000000000000000000000000000000000000000f2
:0932d900000000000000000002ea
:2032e2000000000000000000000000000000000000000000000000000000000000000000cc
:0a33020000000000000000000000c1
:20330c000000000000000000000000000000000000000000000000000000000000000000a1
:09332c0000000000000000000098
:20333500000020000000000000000000000000000000000000000000000000000000000058
:0a335500000000000000000000006e
:20335f0000000000000000000000000000000000000000000000000000000000000000004e
:09337f0000000000000000000045
:20338800000000000000000000000000000000000000000000000000000000000000000025
:0a33a800000000000000000000001b
:2033b2000000000000000000000000000000000000000000000000000000000000000000fb
:0933d200000000000000000000f2
:2033db000000000000000000000000000000000000000000000000000000000000000000d2
:0a33fb0000000000000000000000c8
:203405000000000000000000000000000000000000000000000000000000000000000000a7
:093425000000000000000000009e
:20342e0000000000000000000000000000000000000000000000000000000002000000007c
:0a344e000000000000000000000074
:20345800000000000000000000000000000000000000000000000000000000000000000054
:093478000000000000000000004b
:2034810000002000000000000000000000000000000000000000000000000000000000000b
:0a34a1000000000000000000000021
:2034ab00000000000000000000000000000000000000000000000000000000000000000001
:0934cb00000000000000000000f8
:2034d4000000000000000000000000000000000000000000000000000000000000000000d8
:0a34f40000000000000000000000ce
:2034fe000000000000000000000000000000000000000000000000000000000000000000ae
:09351e00000000000000000000a4
:20352700000000000000000000000000000000000000000000000000000000000000000084
:0a354700000000000000000000007a
:20355100000300000000000000000000000000000000000000000000000000000000000057
:0935710000000000000000000051
:20357a00000000000000000000000000000000000000000000000000000000000000000031
:0a359a000000000000000000000027
:2035a400000000000000000000000000000000000000000000000000000000000000000007
:0935c400000000000000000000fe
:2035cd000000200000000000000000000000000000000000000000000000000000000000be
:0a35ed0000000000000000000000d4
:2035f7000000000000000000000000000000000000000000000000000000000000000000b4
:09361700000000000000000000aa
:2036200000000000000000000000000000000000000000000000000000000000000000008a
:0a3640000000000000000000000080
:20364a00000000000000000000000000000000000000000000000000000000000000000060
:09366a0000000000000000000057
:20367300000000000000000000000000000000000000000000000000000000000000000037
:0a369300000000000000000000002d
:20369d0000000000000000000000000000000000000000000000000000000000000000000d
:0936bd0000000000000000000004
:2036c6000000000000000000000000000000000000000000000000000000000000000000e4
:0a36e60000000000000000000000da
:2036f00000000000000000000000000000000000000000000040000de0000000000000008d
:0937100000000000000078100028
:2037190000002000000000000000000000000000000000000800038f7c000000000000005a
:0a373900000000000000008e0000f8
:20374300000000000000000000000000000000000000000000800a8cb000000000000000a0
:093763000000000000000000005d
:20376c00000000000000000000000000000000000000000005000142df0000000000000016
:0a378c000000000000000000000033
:2037960000000000000000000000000000000000000000000000000007800000000000008c
:0937b6000000000000000000000a
:2037bf000000000000000000000000000000000000000000000000000008000000000000e2
:0a37df0000000000000000000000e0
:2037e9000001000000000000000000000000000000000000000000000000000000000000bf
:09380900000000000000000000b6
:20381200000000000000000000000000000000000000000000000000000000000000000096
:0a383200000000000000000000008c
:20383c0000008000000000000000000000000000000000000000000de78000000000000078
:09385c0000020000000000000061
:203865000000200000000000000000000000000000000000000400ff7c08e00000000000bc
:0a3885000000000000000009000030
:20388f000000000000000000000000000000400000000000000000000000000000000000d9
:0938af0000000000000010000000
:2038b80000000000000000000000000000000a0000000000000000000000000000000000e6
:0a38d8000000000000000080000066
:2038e2000000000000000000000000000000000000000000000000000000000000000000c6
:093902000000040210e8000000be
:20390b00080000000000000000000000000000000000000000000000000000000000000094
:0a392b00000000003307c000000098
:20393500000000000000000000000000000000000000000000000000000000000000000072
:0939550000000000000000000069
:20395e00000000000000000000000000000000000000000000000000001000000000000039
:0a397e00000000000000000000003f
:2039880000000000000000000000000000000000000000000000000000000000000000001f
:0939a80000000000000000000016
:2039b1000000200000000000000000000000000000000000000000000000000000000000d6
:0a39d10000000000000000000000ec
:2039db000000000000000000000000000000000000000000000000000000000000000000cc
:0939fb00000000000000000000c3
:203a04000000000000000000000000000000000000000000000000000000000000000000a2
:0a3a24000000000000000000000098
:203a2e00000000000000000000000000000000000000000000000000000000000000000078
:093a4e000000000000000000006f
:203a570000000000000000000000000000000000000000000000000000000000000000004f
:0a3a77000000000000000000000045
:203a8100000100000000000000000000000000000000000000000000000000000000000024
:093aa1000000000000000000001c
:203aaa000000000000000000000000000000000000000000000000000000000000000000fc
:0a3aca0000000000000000000000f2
:203ad400400000000000000000000000000000000000000000000000000000000000000092
:093af40080000000000000000049
:203afd00000020000000000000000000000000000000000000000000000000000000000089
:0a3b1d00000000000000000000009e
:203b270000000000000000000000000000000000000000000000000000000000000000007e
:093b470000000000000000000075
:203b5000000000000000000000000000000000000000000000000000000000000000000055
:0a3b7000000000000000000000004b
:203b7a00000000000000000000000000000000000000000800000000000000000000000023
:093b9a0000000000000000000022
:203ba3000800000000000000000000000000000000000001000000000000000000000000f9
:0a3bc30000000000000000000000f8
:203bcd000000000000000000000000000000000000000000000000000000000000000000d8
:093bed00000000000000000000cf
:203bf6000000000000000000000000000000000000000000000000000000000000000000af
:0a3c160000000000000000000000a4
:203c2000000000000000000000000000000000000000000000000000000000000000000084
:093c40000000000000000000007b
:203c4900000020000000000000000000000000000000000008000000000000000000000033
:0a3c69000000000000000000000051
:203c7300000000000000000000000000000000000000000000000000000000000000000031
:093c9300800000000000000001a7
:203c9c004000000000000000000000000000000000000000000000000000000000000000c8
:0a3cbc0000000000000000000004fa
:203cc6000000000000000000000000000000000000000000000000000000000000000000de
:093ce6000000000000005800007d
:203cef00800000000000000000000000000000000000000000000000000000000000000035
:0a3d0f000000000000000080000c1e
:203d1900000300000000000000000000000000000000000000000000000040000000000047
:093d39000002000000007000000f
:203d420000000000000000000000000000000000000000000000000000000200000000005f
:0a3d62000000440000000080001083
:203d6c00000000000000000000000000000000000000000000000000000000000000000037
:093d8c00000000000000000140ed
:203d95000000200000000000000000000000000000000000000000000000000000000000ee
:0a3db5000000000000000000000004
:203dbf000000000000000000000000000000000000000000000000000000000000000000e4
:093ddf000000000be9db00e0002c
:203de8000000000000000000000000000000000000000000000000000000000000000000bb
:0a3e0800000000007fc3c01000009e
:203e1200000000000000000000000000000000000000000000000000000000000000000090
:093e32000000000000007800000f
:203e3b00000000000000000000000000000000000000000000000000000000000000000067
:0a3e5b0000000000000000800810c5
:203e650000000000000000000000000000000000000000000000000000000000000000003d
:093e850000000000000000000034
:203e8e00c00000000000000000000000000000000000000000000000000000000000000054
:0a3eae000000000000000000000406
:203eb80040000000000000000000000000000000000000000000002ee1000000000000009b
:093ed8000400000281c100000099
:203ee100400020000000000000000000000000000000000000004102dc080000000000003a
:0a3f0100028000001402dd08000039
:203f0b00000000000000000000000000000000000000000000000000000000400000001c3a
:093f2b0078020102004950000176
:203f340048000000000000000000000000000000000000000000000000000008000000001d
:0a3f5400040040002042c080000479
:203f5e00440000000000000000000000000000000000000000010144a000200000000000f9
:093f7e00000001039dfd0010008c
:203f87000083000000000000000000000000000000000000000000142000f0000000000073
:0a3fa7000000000037c1e00e00002a
:203fb1000032000000000000000000000000000000000000000000000000000000af3b4094
:093fd1008135011855db81e1c0c6
:203fda00002000000000000000000000000000000000000000000000000000000080506077
:0a3ffa00002828a00680bf00000088
:204004000030000000000000000000000000000000000000000000000000000040201840b4
:0940240000000002be7d00000056
:20402d000000200000000000000000000000000000000000000000000000e000000100b3bf
:0a404d00400000001ffee0008000ac
:20405700490000000000000000000000000000000000000000023fcdc008000040807200f8
:0940770060000000000018a00028
:2040800000e0000000000000000000000000000000000000000003e81f300a000008008074
:0a40a0000780000000000900000086
:2040aa000000000000000000000000000000000000000000000000000800000008f0381ca2
:0940ca0000000000000000a0004d
:2040d30008000000000000000000000000000000000000000000000000f00000000f0000c6
:0a40f30000000000000007100000ac
:2040fd008000000000000000000000000000000000000000000000000000400000000000e3
:09411d000070000008e079a00820
:2041260000000000000000000000000000000000000000010000000000000a00000000006e
:0a41460000000000007ea089014087
:204150000000800000000000000000000000200000000000000000000000000000000000af
:0941700028001023de5a70000043
:2041790040002000000000000000000000000000000000000a0000000000000000000000bc
:0a419900040000403fc7e0000000f2
:2041a3000000000000000000000000000000000000000000000000000000000000000000fc
:0941c30000805003ffd85010c128
:2041cc0048000000000000000000000000000000000000000000000000000000000000008b
:0a41ec00000001002ff4908a000487
:2041f600000000000000000000000000000000000000000000000000000000000000002c7d
:094216006800212a906d000000ef
:20421f00c000000000000000000000000000000000000000000000000000000000000002bd
:0a423f00400003802a03d009000ca0
:20424900000100000000000000000000000000000000000000000000000000000000000054
:09426900000000000000800000cc
:2042720000000000000000000000000000000000000000000000000000000000000000002c
:0a429200000000000000050000001d
:20429c000000400000000000000000000000000000000000000000000000000000000000c2
:0942bc00000000000000d0000029
:2042c5000000000000000000000000000000000000000000000000000000000000000000d9
:0a42e500000000000000010a0000c4
:2042ef000000000000000000000000000000000000000000000000000000000116a87a80f6
:09430f0000700000000001a0088c
:204318000000100000000000000000000000000000000000000000000000000001058da042
:0a4338000000300000000900190029
:2043420000000000000000000000000000000000000000000000000000000000000000005b
:094362000000000000007880005a
:20436b0008000000000000000000000000000000000000000000000000000000000000002a
:0a438b000000000000000090000098
:204395000000000000000000000000000000000000000000000000000000100000000014e4
:0943b5000005000000cd0000002d
:2043be000000000000000000000000000000000000000000000000000000000000000000df
:0a43de002000000000d5c000000020
:2043e8000000000000000000000000000000000000000000000000000000000011505700fd
:0944080000009000927898000079
:2044110000003000000000000000000000000000000000000000000000000000040500c092
:0a443100000008000e06d100000094
:20443b0080000000000000000000000000000000000000000000000000000000010f139628
:09445b0000005803beff5180006f
:2044640008000400000000000000000000000000000000000000000000000000000f00001d
:0a448400000001203fecf099000059
:20448e0000000000000000000000000000000000000000000000000000000000070a13e00a
:0944ae00000031033dc0000000d4
:2044b70000000000000000000000000000000000000000000000000000000000090a007d55
:0a44d7004000032033c2050000007e
:2044e10000030000000000000000000000000000000000050000000000008000010f1326ea
:0945010060020100117a518000f2
:20450a0000000000000000000000000000000000000000000000000000000400000f00403e
:0a452a00400040200002b0900000a5
:2045340000000000000000000000000000000000000000000000000000000000030a17e063
:09455400000001037d4d10000080
:20455d0000000000000000000000000000000000000000010000000000000000000a003ef5
:0a457d004000000039c3d5800000a3
:2045870000000000000000000000000000000000000000000000000000000000030a16d41d
:0945a70000000002bc5a58100487
:2045b00000000000000000000000000000000000000000000000000000000000000a0024bd
:0a45d000200000003fc3b10a000004
:2045da0000000000000000000000000000000000000000000000000000000000030a16fca2
:0945fa0030000100b84c80a00063
:2046030000000000000000000000000000000000000000000000000000000000000a007c11
:0a462300400000000b83050000803a
:20462d0000000000000000000000000000000000000000000000000000000000020a16dc6f
:09464d00040001037ddd81b004cd
:2046560000000000000000000000000000000000000000000000000000000000000a0064d6
:0a467600020000803fc1e5098080ca
:02468000000038
:02468200110322
:02468400010132
:204686000000000000000000000000000000000000000000000000000000004000000000d4
:0946a6000001000000000000000a
:2046af000000000000000000000000000000000000000000000000000000000000000000eb
:0a46cf0000000000000000000000e1
:2046d900000000000000000020000000000000800000000020000000000000800000000081
:0946f900000200000000000000b6
:20470200000000000000000000000000000000000000000000000000000000000000000097
:0a472200000000000000000000008d
:20472c00000000000000000000000000000000000000800000000010000400400000000099
:09474c0000010000000000000063
:204755000000000000000800000000000020000000000000000000030002400000000800cf
:0a477500000000000000000000003a
:20477f00000000000000000000000000200000000008000000000000000000000000008072
:09479f000000000000020000000f
:2047a8000000000000000000000000000000000000000000000000000000000000000000f1
:0a47c80000000000000000000000e7
:2047d20000000000000400000000000010000000000c00000000006010000000000000c077
:0947f2000000000001830000003a
:2047fb0000000000000000000000000000000000000000000000000000000000000000009e
:0a481b000000000000000000000093
:20482500000000000000000000000000000000000000000000000020002400000000c0006f
:0948450000000000020000000068
:20484e00000000000000000000000000000000000000000000000002000040040000000004
:0a486e0000001000000000000040f0
:20487800000000000000000000000000000000000000000000000000000000000000000020
:0948980010000000000000000007
:2048a1000000000000000000020000000000000000000000020000000000000800000000eb
:0a48c1000900200000000000008044
:2048cb0000000000000c0000000000002000000000080000000000002000000000000081f8
:0948eb000000000000020340007f
:2048f4000000000000000000000000000000000000000000000000000000000400000000a0
:0a491400180010000000000400402d
:20491e0000000000000000000000000000000000000000000000000003000004000000244e
:09493e002c001000000000000034
:2049470040000000000000000000000000000000000000000000000000800000c0000000d0
:0a4967000040030000000000000cf7
:20497100000000000000000000000000000000000000000000000000000000000000000026
:094991000000000000001000000d
:20499a000000000000000000000000000000000000000000000000000000000000000000fd
:0a49ba00000000000000011e0000d4
:2049c4000000000000000000000000000000000000000000000000000009000000000000ca
:0949e4003c00000000000000008e
:2049ed000000000000000000000000000000000000000000000000000000000000000000aa
:0a4a0d00004000000000000000005f
:204a1700000200000000000000000000000000000000000000002005c00a00000000000c82
:094a37000000020123fb00000055
:204a40000000000000000000000000000000000000000000000009c1790000000000000211
:0a4a60000000000094159000000013
:204a6a00000000000000000050000000000001400000000000000000000a00000000000091
:094a8a0030000001025f08000089
:204a93000000300000000000020000000000000800000000000000000000000000000000c9
:0a4ab30000000001b81ce3800000c1
:204abd0000000000000000000000000000000000000000000000200f830000000019b2c09c
:094add0000000000000090000040
:204ae600000000000000000000000000000000000000000000000b815e800000002665f9c2
:0a4b0600c0000000000000000000e5
:204b1000000000000000000000000000000000000000000000000000000000040040f6400b
:094b300000001000000008000064
:204b390040000000000000000000000000000000000000000000000000780001402e0ba882
:0a4b590000000500000001800014b8
:204b6300000200000000000000000000000000000000000000000000000900000000000225
:094b8300008000000000080000a1
:204b8c000000000000000000000000000000000000000000000000000000000040000001c8
:0a4bac00c010010000000700000423
:204bb600000000000000000000000000000000000000000000000000090e400000ad378024
:094bd600000000000000000000d6
:204bdf0000000000000000000000000000000000000000000000000000001a000000cf705d
:0a4bff0000000000000000000000ac
:204c090080000000000000000000000000000000000000000000000000000000000000000b
:094c29006400000000000000001e
:204c3200000000000000000000000000000000000000000000000000000000000000000062
:0a4c520003800000000000000000d5
:204c5c00000040000000000000000000000000000000000000000000000000000000000cec
:094c7c00400000000000000000ef
:204c850000000000000000000000000000000000000000000000000000000000000000020d
:0a4ca5000200000000000000000003
:204caf00000000000000000000000000000000000000000000002b55b000000000000000b5
:094ccf00000000000000000000dc
:204cd800000000000000000000000000000000000000000000000031ff000000000000008c
:0a4cf80000000000000000000000b2
:204d0200000000000000000000000000000000000000000000000000000000000000000091
:094d220000000000000000000088
:204d2b000000100000000000000000000000000000000000000000000078000000000000e0
:0a4d4b00000000000000000000005e
:204d550000000000000000000000000000000000000000000000000000000000000000003e
:094d750000000000000000000035
:204d7e000000000000000000000000000000000000000000000000000001e0000000000034
:0a4d9e00000000000000000000000b
:204da800800040000000002800000000000000000000000100000000000000000000000002
:094dc800000000000000000000e2
:204dd1000000000000000001000000000000000000000000000000000000000000000000c1
:0a4df10008000000000000000000b0
:204dfb00000200000000000000000000000000000000000080000000000000000000000016
:094e1b000000000000000000008e
:204e240000000000000000000000000000000000000000000000000000000000000000006e
:0a4e44000000000000000000000064
:204e4e00000000000000000000000000000000000000000000000000000000000000000044
:094e6e000000000000000000003b
:204e7700000000000000000000000000000000000000000200000000000200000000000017
:0a4e97000000000000000000000011
:204ea100800000000000000000000000000000000000000000000000000000000000000071
:094ec100000000000000000000e8
:204eca000000000000000000000000000000000000000000000000000000000000000000c8
:0a4eea0000000000000000000000be
:204ef40000000000000000000000000000000000000000000000000000000080000000001e
:094f140000000000000000000094
:204f1d00000000000000000000000000000000000000000000000000000000140000000060
:0a4f3d00000000000000000000006a
:204f470000000000000000000000000000000000000000000000000000000000000000004a
:094f670000000000000000000041
:204f700004000000000000000000000000000000000000000000000000000000000000001d
:0a4f90000000000000000000000017
:204f9a000400000000000000000000000000000000000000000000000000400000000000b3
:094fba00000000000000000000ee
:204fc3000000100000000000000000000000000000000000000000000000080000000000b6
:0a4fe30000000000000000000000c4
:204fed000000000000000000000000000000000000000000000000000000000000000000a4
:09500d000000000000000000009a
:2050160000000000000000000000000000000000000000000000000000000000000000007a
:0a5036000000000000000000000070
:20504000800040000000000000000000000000000000000000000000000000000000000090
:0950600001000000000000000046
:20506900000000000000000000000000000000000000000000000000000000000000000027
:0a50890000200000000000000000fd
:205093000002000000000000000000000000000000000000000000000000000000000000fb
:0950b300000000000000000000f4
:2050bc000000000000000000000000000000000000000000000000000000000000000000d4
:0a50dc0000000000000000000000ca
:2050e60000000000000000000000000000000000000000000000000007000004000000009f
:09510600000000000000000000a0
:20510f0000000000000000000000000000000000000000000000000000800000c000000040
:0a512f000000000000000000000076
:205139008000000000000000000000000000000000000000000000000000001000000000c6
:09515900000040000000000015f8
:2051620000000000000000000000000000000000000000000000000000000000000000002d
:0a51820000000000000000000080a3
:20518c00000000000000000000000000000000000000000000000000000000000000000003
:0951ac00003000000000000400c6
:2051b50000000000000000006000000000000000000000000000000000000000000000007a
:0a51d5000000500000000000200060
:2051df0000004000000000000000000000000000000000000000100ea009000000000000a9
:0951ff00000000000000000000a7
:20520800000000000000000000000000000000000000000000004b81ed01e00000000000ec
:0a522800000000000000000000007c
:2052320000000000000000000000000000000000000000000000000000100010000000003c
:0952520000014000000000000111
:20525b000000100000000000000000000000000000000000000000000000e0000000000043
:0a527b000000000000000000000029
:20528500000000000000000000000000000000000000000000000000000000000000000009
:0952a50000000000000000000000
:2052ae000000000000000000000000000000000000000000000000000000000000000000e0
:0a52ce0000000000000000000000d6
:2052d8008000400000000000000000000000000000000000000000000000000400000000f2
:0952f800000000000000000400a9
:2053010000000000000000000000000000000000000000000000000000000001400000004b
:0a5321000000000000000000200062
:20532b000002000000000000000000000000000000000000800000000000000000000000e0
:09534b00000080000000000000d9
:205354000000000000000000000000000000000000000000000000000000000040000000f9
:0a537400000000000000000000002f
:20537e0000000000000000000000000000000000000000000000000000000000000000000f
:09539e0000000000000000000006
:2053a7000000000000000000000000000000000000000000000000000000000000000000e6
:0a53c70000000000000000000000dc
:2053d1000000000000000000000000000000000000000000000000000000000000000000bc
:0953f100000000000000000001b2
:2053fa00000000000000000000000000000000000000000000000000000000000000000093
:0a541a000000000000000000000088
:20542400000000000000000000000000000000000000000000000000000000000000000068
:095444000000000000000000005f
:20544d0000000000000000000000000000000000000000000000000000000000000000003f
:0a546d000000000000000000000035
:20547700000000000000000000000000000000000000000000000000000000000000000015
:095497000000000000000000000c
:2054a0000000000000000000000000000000000000000000000000000000000000000000ec
:0a54c00000000000000000000000e2
:2054ca000000000000000000000000000000000000000000000000000000000000000000c2
:0954ea00000000000000000001b8
:2054f300000000000000000000000000000000000000000000000000000000000000000099
:0a551300000000000000000000008e
:20551d008000000000000000000000000000000000000000000000000000000000000000ee
:09553d0000000000000000000065
:20554600000000000000000000000000000000000000000000000000000000000000000045
:0a556600000000000000000000003b
:2055700080000000000000000000000000000000000000000000000000000000000000009b
:0955900000000000000000000012
:205599000000000000000000000000000000000000000000000000000000020000000000f0
:0a55b90000000000000000000000e8
:2055c3000000000000000000000000000000000000000000000000000000000000000000c8
:0955e300000000000000000000bf
:2055ec0000000000000000000000000000000000000000000000000000000000000000009f
:0a560c000000000000000000000094
:20561600000000000000000000000000000000000000000000000000000000000000000074
:095636000000000000000000006b
:20563f0000000000000000000000000000000000000000000000000000000000000000004b
:0a565f000000000000000000000041
:205669008000000000000000000000000000000000000000000000000000000000000000a1
:0956890000000000000000000018
:205692000000000000000000000000000000000000000000000000000000000000000000f8
:0a56b20000000000000000000000ee
:2056bc000001000000000000000000000000000000000010000000000000000000000000bd
:0956dc00000000000000000000c5
:2056e5000000000000000000000000000000000000000002000000000000000000000000a3
:0a570500000000000000000000009a
:20570f0000000000000000000000000000000000000000000000000000000000000000007a
:09572f0000000000000000000071
:20573800000000000000000000000000000000000000000000000000000000000000000051
:0a5758000000000000000000000047
:20576200000000000000000000000000000000000000000000000000000000000000000027
:095782000000000000000000001e
:20578b000000300000000000000000000000000000000000000000000000000000000000ce
:0a57ab0000000000000000000000f4
:2057b5000000000000000000000000000000000000000000000000000000000000000000d4
:0957d500000000000000000000cb
:2057de000000000000000000000000000000000000000000000000000000000000000000ab
:0a57fe0000000000000000000000a1
:20580800800000000000000000000000000000000000000000000000000000000000000000
:0958280000000000000000000077
:20583100000000000000000000000000000000000000000000000000000000000000000057
:0a585100000000000000000000004d
:20585b000003000000000000000000000000000000000000800000000000000000000000aa
:09587b0000000000000000000024
:20588400000000000000000000000000000000000000000000000000000000000000000004
:0a58a40000000000000000000000fa
:2058ae000000000000000000000000000000000000000000000000000000000000000024b6
:0958ce00000000000000080000c9
:2058d70040000000000000000000000000000000000000020000000000000000000000006f
:0a58f7000000000000000598000cfe
:20590100000000000000000000000000000000000000000000000000000000000000000086
:095921000000000000000000007d
:20592a0000000000000000000000000000000000000000000000000000000000000000005d
:0a594a000000000000000000000053
:20595400000000000000000000000000000000000000000000000000000000000000000033
:0959740000000402bc20b0000098
:20597d0000000000000000000000000000000000000000000000000000000000000000000a
:0a599d00000000a0abc7e800000006
:2059a7000000000000000000000000000000000000000000000000000000000000000000e0
:0959c7000000000007fd000000d3
:2059d0000000000000000000000000000000000000000000000000000000000000000000b7
:0a59f0000000002080359000000048
:2059fa0000000000000000000000000000000000000000000000000000000000000000008d
:095a1a0000000000000000000083
:205a2300000010000000000000000000000000000000000000000000000000000000000053
:0a5a43000000000000000000000059
:205a4d000000000000000000000000000000000000000000000000000000000100fa04003a
:095a6d00000000000000700000c0
:205a760000000000000000000000000000000000000000000000000000000000010fa1f867
:0a5a96000000000000000000000006
:205aa0000000000000000000000000000000000000000000000000000000000000000000e6
:095ac000000000000000b000002d
:205ac90040000000000000000000000000000000000000000000000000000000000000007d
:0a5ae9000680000000000f8000148a
:205af300000200000000000000000000000000000000000000000000000000000000000091
:095b130000000000000000000089
:205b1c00000000000000000000000000000000000000000000000000000000000000000069
:0a5b3c00000000000000000000045b
:205b46000000000000000000000000000000000000000000000000000000400000000034cb
:095b660040600242902900040095
:205b6f0000000000000000000000000000000000000000000000000000000a00000000020a
:0a5b8f0002800010aa16b0002000ea
:205b9900000000000000000000000000000000000000000000000000000000000000038069
:095bb9006400000002cf000100ad
:205bc2000000000000000000000000000000000000000000000000000000000000005774f8
:0a5be200060000000066a7000000a6
:205bec00000000000000000000000000000000000000000000000000000000000000000099
:095c0c0000000000000050080037
:205c150000000000000000000000000000000000000000000000000000000000000000006f
:0a5c3500020000000000080000005b
:205c3f00000000000000000000000000000000000000000000000000000000000000000c39
:095c5f004000000000000000807c
:205c680000000000000000000000000000000000000000000000000000000000000000021a
:0a5c8800060000000000000000000c
:205c92000000000000000000100000000000200000000000000000000000000000000000c2
:095cb200400000000000000200a7
:205cbb00000030000000000002000000000000000000000000000000000000000000000097
:0a5cdb000700000000000500004073
:205ce5008000000000000000000000000000000000000000000000000000400008af0a948a
:095d0500000200000000009400ff
:205d0e0080000000000000000000000000000000000000000000000000000000000a553462
:0a5d2e00000000000000001b000848
:205d380080004000000000004000000000000000000000000000000000000000000002c089
:095d580000000000000000000042
:205d6100400000000000000000000000000000000000000000000000000000000408077956
:0a5d8100600000000000058e101401
:205d8b000002400000000000000000000000000000000000800000000000000000ffbe80f9
:095dab000002000000009000005d
:205db40000000400000000000000000000000000000000000000000000000000000021fcae
:0a5dd40000000000000000000004c1
:025dde000000c3
:035de00062003f1f
:035de300720080cb
:025de6001100aa
:035de80082000036
:025deb000103b2
:085ded000000000000000000ae
:085df5000000000000000000a6
:085dfd0000000000000000009e
:085e0500000000000000000095
:0261ed000000b0
:0361ef00820080ab
:0261f2000103a7
:0861f4000000000000000000a3
:0861fc0000000000000000009b
:08620400000000000000000092
:08620c0000000000000000008a
:0265f4000000a5
:0265f600110191
:0365f8008200001e
:0265fb0001039a
:0865fd00000000000000000096
:0866050000000000000000008d
:08660d00000000000000000085
:0866150000000000000000007d
:0269fd00000098
:0369ff0082008093
:026a020001038e
:086a040000000000000000008a
:086a0c00000000000000000082
:086a140000000000000000007a
:086a1c00000000000000000072
:026e040000008c
:026e0600110277
:036e080082000005
:026e0b00010381
:086e0d0000000000000000007d
:086e1500000000000000000075
:086e1d0000000000000000006d
:086e2500000000000000000065
:02720d0000007f
:03720f008200807a
:02721200010376
:08721400000000000000000072
:08721c0000000000000000006a
:08722400000000000000000062
:08722c0000000000000000005a
:02761400000074
:0276160011035e
:03761800820000ed
:02761b00010369
:08761d00000000000000000065
:0876250000000000000000005d
:08762d00000000000000000055
:0876350000000000000000004d
:027a1d00000067
:037a1f0082008062
:027a220001035e
:087a240000000000000000005a
:087a2c00000000000000000052
:087a340000000000000000004a
:087a3c00000000000000000042
:027e240000005c
:017e26002239
:027e27006d5498
:027e2900010650
:00000001FF
