:02000000ff00ff
:080002004c6174746963650030
:17000a00694345637562653220323032302e31322e32373934330071
:16002100506172743a2069434534304858314b2d56513130300002
:1b003700446174653a204a756e20313320323032352031353a32373a35320072
:0200520000ffad
:040054007eaa997e69
:02005800510055
:02005a0001059e
:03005c00920020ef
:03005f0062014bf0
:0300620072009099
:0300650082000016
:02006800110085
:02006a00010192
:20006c00000000000000000000000000000000000000000000000000000000000000000074
:09008c000000000000000000006b
:2000950000000000000000000000000000000000000000000000000000000000000000004b
:0a00b5000000000000000000000041
:2000bf0000000000000000000004000000000000100000000000000000000000000000000d
:0900df00000000400000000000d8
:2000e8000000000000000000000000000000000000000000000000000000000000000000f8
:0a01080000000000000000000000ed
:200112000000000000000000000000000000000000000000000000000000000000000000cd
:09013200000000000000000000c4
:20013b00000000000000000000000000000000000000001000000000000000000000000094
:0a015b00000000000000000000009a
:20016500000000000004000000040000000000000000000000000000000000000000004032
:0901850000000000000000000071
:20018e00000000000000000000000000100000000000000000000000000000000000000041
:0a01ae000000000000000000000047
:2001b80000000000000c00000000000020000000000000800000000030000000000000c08b
:0901d8000000000000020000001c
:2001e1000000000000000000000000000000000000000000000000000000000000000000fe
:0a02010000000000000000000000f3
:20020b000000000000000000000000000000000000000000000000000000000000000000d3
:09022b00000000000000000000ca
:200234000000000000000000000000000000000000000000000000000000000000000000aa
:0a02540000000000000000000000a0
:20025e00000000000000000000000000000000001000000000000000000000000000000070
:09027e0000000000000000000077
:200287000000000000000000000040000000000001000000000040001000000000000000c6
:0a02a7000000000400000000000049
:2002b100000000000004000000040000100000000000004000000000100000000000004085
:0902d10000000000000300000021
:2002da00000000000000000000000000000000000000000000000000000000000000000004
:0a02fa0000000000000000000000fa
:200304000000000000000000000000000000000000000000000000000000000000000000d9
:090324000000000000000af500d1
:20032d00000020000000000000000000000000000040000000000000000000000000000050
:0a034d00000000000002a40fa0044d
:20035700000000000000000000000000000000000000000000000000000000000000000086
:090377000000000000000000007d
:2003800000000000000000000000000000000000000000000000000000000000000000005d
:0a03a0000000000000000000000053
:2003aa00000000000000000000100000000000000000000000000000000000000000000023
:0903ca0000000100000000000029
:2003d300000000000000000000010000000000000000000000000000000000000000000009
:0a03f3000000000000c00000000040
:2003fd000003000000000000000000000000000000000000000000000000000000000000dd
:09041d00000000000000000000d6
:200426000000000000000000000000000000000000000000000000000000000000000000b6
:0a04460000000000000000000000ac
:2004500000000000000000000000000000000000000000000000000000000000000000008c
:0904700000000000000000000083
:20047900000020000000000000000000000000000000000000000000000000000000000043
:0a0499000000000000000000000059
:2004a300000000000000000000000000000000000000000000000000000000000000000039
:0904c30000000000000000000030
:2004cc00000000000000000000000000000000000000000000000000000000000000000010
:0a04ec000000000000000000000006
:2004f6000000000000000000000000000000000000000000000000000000000000000000e6
:09051600000000000000000000dc
:20051f000000000000000000000000000000000000000000000000000000000000000000bc
:0a053f0000000000001000000000a2
:20054900000000000000000000000000000000000000000000000000000000000000000092
:0905690000000000000000000089
:20057200000000000000000000000000000000000000000000000000000000000000000069
:0a059200000000000000000000005f
:20059c0000000000000000000000000000000000000000000000000000000000000000003f
:0905bc0000000000000000000036
:2005c5000000200000000000000000000000000000000000000000000000000000000000f6
:0a05e500000000000000000000000c
:2005ef0080000000000000000000000000000000000000000000000000000000000000006c
:09060f00000000000000000000e2
:200618000800000000000000000000000000000000000000000000000000000000000000ba
:0a06380000000000000000000000b8
:20064200000000000000000000000000000000000000000000000000000000000000000098
:090662000000000000000000008f
:20066b0000000000000000000000000000000000000000000000002c000000000000000043
:0a068b000000000000000000000065
:20069500000100000000000000001400000000000000000000000000000000000000000030
:0906b5000000000000000000003c
:2006be0000000000000000000001000000000000000000000000000000000000000000001b
:0a06de000000000000000000000012
:2006e8004000000000000000000000000000000000000000000000000000000000000000b2
:09070800000000000000000000e8
:200711000000000000000000000000000000000000000000000000000000000000000000c8
:0a07310000000000000000000000be
:20073b0000000000000000000000000000000000000000000000000001efa100000000000d
:09075b0000000000000000000095
:200764000000000000000000000000000000000000000000000000000140f500000000003f
:0a078400000000000000000000006b
:20078e0000000000000000000000000000000000000000000000001000000000000000003b
:0907ae0000000000000000000042
:2007b70008000000000000000000000000000000000000000000000000000000000000001a
:0a07d7000000000000000000000018
:2007e1000000000000000000000000000000000000000000000000e0000000000000000018
:09080100000000000000000000ee
:20080a000000000000000000000000000000000000000000000000000000000000000000ce
:0a082a0000000000000000000000c4
:200834000000000000000000000000000000000000000000000000000000000000000000a4
:090854000000000000000000009b
:20085d0000002000000000000000000000000000004000000000000000000000000000001b
:0a087d000000000000000000000071
:20088700000000000000000000000000000000000000000000000000000000000000000051
:0908a70000000000000000000048
:2008b000000000000000000000000000000000000000000000000000000000000000000028
:0a08d000000000000000000000001e
:2008da000000000000000000000000000000000000000000000000000000000000000000fe
:0908fa00000000000000000000f5
:200903000000000000000000000000000000000000000000000000000000000000000000d4
:0a09230000000000000000000000ca
:20092d000003000000000000000000000000000000000000000000000000000000000000a7
:09094d00000001000000000000a0
:20095600000000000000000000000000000000000000000000000000000000000000000081
:0a0976000000001000000000000067
:20098000000000000000000000000000000000000000000000000000000000000000000057
:0909a0000000000000000000004e
:2009a90000002000000000000000000000000000000000000000000000000000000000000e
:0a09c9000000000000000000000024
:2009d300000000000000000000000000000000000000000000000000000000000000000004
:0909f300000000000000000000fb
:2009fc000000000000000000000000000000000000000000000000000000000000000000db
:0a0a1c0000000000000000000000d0
:200a26000000000000000000000000000000000000000000000000000000000000000000b0
:090a4600000000000000000000a7
:200a4f00000000000000000000000000000000000000000000000000000000000000000087
:0a0a6f00000000000000000000007d
:200a790000000000000000000000000000000000000000000000000000000000000000005d
:090a990000000001000000000053
:200aa200000000000000000000000000000000000000000000000000000000000000000034
:0a0ac2000000000008000000000022
:200acc00000000000000000000000000000000000000000000a00000000000000000001e4c
:090aec00140000000004fb0000ee
:200af500080020000000000000000000000000000000000000000000000000000000d00ddc
:0a0b15008294000000028fc08000ef
:200b1f00000000000000000000000000000000000000000000a0000015ef56000003980021
:090b3f0000000a000001dae702df
:200b48000800000000000000000000000000000000380000000800000000f50140001800f7
:0a0b68000000008000002c0f700058
:200b7200000000000000000000000000000000000000000000000060000000000000188368
:090b92003d4004000000000000d9
:200b9b00000000000000000000000000000000000000000000000000000000000000000139
:0a0bbb0003e8004000038000000082
:200bc5000001000000000000000000000000000000000000000000000000000300000017f5
:090be50081000000140000000072
:200bee00000000000000000000000000000000000000000000020000000000001000000fc6
:0a0c0e00340400200022c0000000a2
:200c18000000000000000000000000000000000000000000000000032ee0000000058a001c
:090c380000000200006b4c5f405b
:200c410004000000000000000000000000000000000000000000000003c00a0000000000c2
:0a0c6100000000000140170ffa0028
:200c6b000000000000000000000000000000000010000000000000e014e5b03000000000a0
:090c8b000000000c00280000002c
:200c940000000000000000000000000000000000020000000000000202c0a50000000000d5
:0a0cb40000000000014000000000f5
:200cbe000600000000000000000000000000000000000000000001c000000000000001004e
:090cde00000000001600000000f7
:200ce70008000000000000000000000000000000000000000002001400000000080000f0d7
:0a0d070000000020000000000000c2
:200d1100000000000000000000000000000000000000000000c001c38000000000010017a6
:090d3100bd404c00000000000070
:200d3a00000000000000000000000000000000000000000000080001400000000000080b3d
:0a0d5a0003c000800000000000004c
:200d64000600000000000000000000000000000000000000008000001e10080220018837d1
:090d840094d028002068cb8040c7
:200d8d00000020000000000000000000000000000040000000000000000d0000000051b7d1
:0a0dad00f00c25000443c5fda10071
:200db700000000000000000000000000000000000000000000a074001c8f0c028008007354
:090dd70034400aa054694f854024
:200de00000000000000000000000000000000000000000000008008000000f002000100725
:0a0e0000e7a8008408243494510090
:200e0a00000000000000000000000000000000004000000000004006548f0c010007809338
:090e2a008500000406607ca14073
:200e330000000000000000000000000000000000040000000000000020200f005000080fe5
:0a0e5300bfb400000002ed9510008e
:200e5d00000300000000000000000000000000000000000000000266548f0c000000001ffc
:090e7d00bf4080001602ea50405b
:200e860000000000000000000000000000000000000000000002000420200f0008000001ee
:0a0ea60003fc00200000050fa20469
:200eb000000000000000000000000000000000000000000000000000168f0c0000000e72f1
:090ed000140000001404000000ed
:200ed90000002000000000000000000000000000000000000000000000000f000000d0bf3b
:0a0ef900c0000000202200000000ed
:200f0300000000000000000000000000000000000000000000000200168f0c040000001205
:090f2300be8080800e2d7efa4094
:200f2c0000000000000000000000000000000000000000000000003c28000f00000000072b
:0a0f4c0003ec000402c2240a0000b6
:200f5600000000000000000000000000000000000000000000000060168f0c00000d1a0043
:090f76000000000014207de2409f
:200f7f0000000000000000000000000000000000000000000002000000200f000800109079
:0a0f9f000000002000243cd42000d4
:200fa900000000000000000000000000000000000000000000c000001685540010071f0043
:090fc90000000c0c0620000000e1
:200fd20000000000000000000000000000000000000000000004001400205508028001d017
:0a0ff2000000008000040000000071
:200ffc00000000000000000000000000000000000000000000804000148f08020000000068
:09101c0000000000146e0a5f00e0
:2010250000002000000000000000000000000000000000000000001c00000f02000000005e
:0a104500000000000022140af00071
:20104f00000000000000000000000000000000000000000000a00000468f08068048013ef7
:09106f0080000a001602e80002ec
:2010780008000000000000000000000000000000000000000008000034200f00200210d3e0
:0a1098000014008003400d02000068
:2010a200000000000000000000000000000000000000000000c4020074850e000020003b06
:0910c200bf8080001400cb8140c6
:2010cb0008000000000000000000000000000000000000000004202423e005284004000041
:0a10eb00c3f8000001e2a7e830009e
:2010f500000100000000000000000000000000000000000000000066448f0800000500761e
:091115002008000004006cf50044
:20111e0000000000000000000000000000000000000000000001000020000f08000008076a
:0a113e00340000100020040aa00095
:201148000000000000000000000000000000000000000000000000007e850c0000051880db
:091168006590000a202c68420188
:201171000800000000000000000000000000000000000000000000002bc005000000010164
:0a11910035a4000002439dd01000b9
:20119b000000000000000000000000000000000000000000000a0002b6850c000008099f31
:0911bb006000000034034840020a
:2011c40000000000000000000000000000000000000000000000000002c00500000051876c
:0a11e400fc0080000062cd00000056
:2011ee0000000000000000000000080000000000000000000004c00036850c000009818044
:09120e00169000001e020081028e
:2012170008000000000000000000014000000000000000000000a00003e00500000038ab03
:0a1237000294000000001c042000d7
:20124100000000000000000000000000000000000000000000000202b6850403000d010039
:09126100000000003c02e9a700b6
:20126a0000000000000000000000000000000000000000000000000402e005003000989021
:0a128a000000000000400fea5000d1
:201294000000000000000000000000000000000000000000000000004caa000200281b00ff
:0912b400000008000078000000b1
:2012bd0000002000000000000000000000000000004000000000403c23f000000005b0a0cd
:0a12dd000000000000040000000003
:2012e7000000000000000000000000000000000000000000000003473f8f50268000005e7b
:0913070080400a00007978805052
:201310000000000000000000000000000000000000000000000000042a60fb002000000d07
:0a133000756c00800002a7ada190cb
:20133a0000000000000000000010000000000000000000000006100027bf70840000015f33
:09135a0032d08c01000179400041
:2013630000000000000000000001000000000000000000000000a0002a4bff010000d087fd
:0a138300030c004001401ddff000e4
:20138d00000300000000000000000000000000000000000000000002c4c00020000d185e14
:0913ad00810000016068000000ed
:2013b6000000000000000000000000000000000000000000000000142f40200800009907cc
:0a13d60075780000004000000000e0
:2013e0000000000000000000000000000000000000000000000000020fa400201005885f1c
:0914000032d0c000007f4d3060c5
:20140900000020000000000000000000000000000000000000000004003040080080900710
:0a142900030c0100000265b72080eb
:201433000000000000000000000000000000000000000000000002022ff5b004001180121a
:091453007dc80000000400000047
:20145c00000000000000000000000000000000000000000000000034434d5a000000000f43
:0a147c007bfc0000000300000000ec
:201486000000000000000000000000000000000000000000000008038eaff000000581b2d6
:0914a600090080000600000000ae
:2014af000000000000000000000000000000000000000000000001000278da010000709fb8
:0a14cf004280000000000000000051
:2014d9000000000000000000000000000000000000000000000001662080a00300081c36ef
:0914f900bfc0000000000000006b
:201502000000000000000000000000000000000000000000000000000350050820005105f3
:0a15220003e82000000000000000b4
:20152c000000000000000000000000000000000003000000008000001ea8f4000001811bc5
:09154c008000080014007cf50089
:201555000000240000000000000000000000000000000000000000003e7e0f810000089b63
:0a1575006600000000025fdf700056
:20157f00000000000000000000000000000000000000000000a0040000000000000b801b02
:09159f0000000a003c61fae5625b
:2015a800080000000000000000000000000000000000000000084080000000000000980bb0
:0a15c800402800800244350ea00404
:2015d200300000000000000000000000000000000000000000000000400000000000000089
:0915f20000000000176f6e0000fc
:2015fb000300000000000000000000000000000000000000000000002400000000000000a9
:0a161b00000000000003cc050000f1
:20162500000100000000000000000000000000000000000000000000000000000005001b84
:091645003c4000000e68e975004c
:20164e00000000000000000000000000000000000000000000000000000000000280000bef
:0a166e0063cc000001601da4b00071
:201678000000000000000000000000000000000000000000000000000000000000000dbb8a
:091698008008000000047edf025e
:2016a100000004000000000000000000000000000000000000000000000000000000009194
:0a16c100828000000002340db0002a
:2016cb00000000000000000000000000000000000000000000000000000000000000185b8c
:0916eb009e800000266378a16acc
:2016f400800000000000000000000000000000000000000000000000000000000030010124
:0a1714007d480000e1c00e0fb00098
:20171e000200000010000168000000000000000000000000000409e0000000000001991b8e
:09173e00c34000001e78592f0081
:2017470008000000000070294000000000000000000000000000a10000000000000011cb24
:0a176700783c000001c014a5f0005a
:20177100000400000000000000000000000000000000000000c2000040000000000718f73c
:09179100bfc480003e034ffc00c0
:20179a00000240000000000000000000000000000000000000080000380000000000110795
:0a17ba0043dc000a01c01f8fd000bd
:0217c400000023
:0217c60011010f
:0217c80001011d
:2017ca000000020000000000000800000000000020000000000800000000000020000000ad
:0917ea0000000080000000000076
:2017f3000000000000000000000000000000000000000000000000000000000000000000d6
:0a18130000000000000000000000cb
:20181d00000001000000000000040000000000001000000000040000000000001000000082
:09183d00000000400d0000000055
:20184600000000000000000000000000000000000000000000000000000000000000000082
:0a18660000000000008000000000f8
:2018700000000200000004000008000000100000200000008008003800000000200000003a
:09189000000000800300030000c9
:201899000000000000000040000000000001000000000000040000000001000000000000e9
:0a18b9000c00000000000010000009
:2018c300000000000004000000000000100000000001c040000000001000000000000040a0
:0918e300000000000001000000fb
:2018ec000000000000000000000000000000000000000000000000000000000000000000dc
:0a190c0000000000000000000000d1
:2019160000000000000c00000000000030000000000000c00000000030000000000000c0c5
:09193600000000000003000000a5
:20193f00000000000000000000000000000000000000000000000000000000000000000088
:0a195f00000000000000000000007e
:20196900000000000200000000000008000000000000000000000000003000000000000024
:0919890040000000000003000012
:20199200000000000140000000000007000000000000000000008000000200000200000069
:0a19b2000000000800000020000003
:2019bc000000000000000000000000000000000000000000000000000000000000016000aa
:0919dc0000000000000000000002
:2019e50000000000000000000000000000000000000000000000400000000000010002009f
:0a1a050000000004000000000000d3
:201a0f00000000000004000000000000100000000000004000000008100000000003c04048
:091a2f00000000000001000000ad
:201a3800000000000000000000000000000000000000000000008007000000000200000005
:0a1a5800000000080000000000007c
:201a6200000000000000000000000000000000000000000000000000000000000000000064
:091a82000000000000000000005b
:201a8b0000000000000000000000000000000000000000000000000000000000000000003b
:0a1aab000000000000000000000031
:201ab500000000000000000000000000000000000000000000000000000000000000000011
:091ad50000000000000000000008
:201ade000000000000000000000000000000000000000000000000000000000000000000e8
:0a1afe0000000000000000000000de
:201b08000000000000000000000000000000000000000000000000000000000000000000bd
:091b2800000000000000000000b4
:201b3100000000000000000000000000000000000000000000000000000000000000000094
:0a1b5100000000000000000000008a
:201b5b00000200000000000000000000000000000000000000000000000000000000000068
:091b7b0000000000000000000061
:201b8400000000000000000000000000000000000000000000000000000000000000000041
:0a1ba4000000000000000000000037
:201bae00000000000000000000000000000000000000000000000000000000000000000017
:091bce000000000000000000000e
:201bd7000000300000000000000000000000000000000000000000000000000000000000be
:0a1bf70000000000000000000000e4
:201c01000000000000000000000000000000000000000000000000000000000000000000c3
:091c2100000000000000000000ba
:201c2a0000000000000000000000000000000000000000000000000000000000000000009a
:0a1c4a000000000000000000000090
:201c5400000000000000000000000000000000000000000000000000000000000000000070
:091c740000000000000000000067
:201c7d00000000000000000000000000000000000000000000000000000000000000000047
:0a1c9d00000000000000000000003d
:201ca70000020000000000000000000000000000000000000000000000000000000000001b
:091cc70000000000000000000014
:201cd0000000000000000000000000000000000000000000000000000000000000000000f4
:0a1cf00000000000000000000000ea
:201cfa000000000000000000000000000000000000000000000000000000000000000000ca
:091d1a00000000000000000000c0
:201d23000000000000000000000000000000000000000000000000000000000000000000a0
:0a1d43000000000000000000000096
:201d4d00000000000000000000000000000000000000000000000000000000000000000076
:091d6d000000000000000000006d
:201d760000000000000000000000000000000000000000000000000000000000000000004d
:0a1d96000000000000000000000043
:201da000000000000000000000000000000000000000000000000000000000000000000023
:091dc0000000000000000000001a
:201dc9000000000000000000000000000000000000000000000000000000000000000000fa
:0a1de90000000000000000000000f0
:201df3000002000000000000000000000000000000000000000000000000000000000000ce
:091e1300000000000000000000c6
:201e1c000000000000000000000000000000000000000000000000000000000000000000a6
:0a1e3c00000000000000000000009c
:201e4600000000000000000000000800000000000000000000000000000000000000000074
:091e660000000001000000000072
:201e6f000000300000000000000000400000000000000000000000000000000000000000e3
:0a1e8f000000000000000000000049
:201e9900000000000000000000000000000000000000000000000000000000000000000029
:091eb90000000000000000000020
:201ec200000000000000000000000000000000000000000000000000000000000000000000
:0a1ee20000000000000000000000f6
:201eec00000000000000000000000000000000000000000000006000000000000000000076
:091f0c00000000000000000000cc
:201f15000000000000000000000000000000000000000000000000000000000002000000aa
:0a1f350000000000000000000000a2
:201f3f0000020000000000000000000000000000040000000000000000000000000000007c
:091f5f0000000000000000000079
:201f6800000000000000000000000000000000000000000000000000000000000000000059
:0a1f8800000000000000000000004f
:201f92000000000000000000000000000000000000000000008000000000000000000000af
:091fb20000000000000000000026
:201fbb000400000000000000000000000000000000000000000c00000000000000000000f6
:0a1fdb0000000000000000000000fc
:201fe50080000000000000000000000000000000000000000000000000000000000000005c
:09200500000000000000000000d2
:20200e000000000000000000000000000000000000000000000000000000000000000000b2
:0a202e0000000000000000000000a8
:20203800080000000000000000000000000000000000000000000000000000000000000080
:092058000000000000000000007f
:2020610004400000000000000000000000000000000000000000000e00000000000000000d
:0a2081000000000000000000000055
:20208b000026000000000000000000000000000000000000000000034000000000000000cc
:0920ab000000000000000000002c
:2020b4000000400000000000000000000000000000000000000000000400000000000000c8
:0a20d4000000000000000000000002
:2020de0000000000000000000000000000000000002000000000034017cc0010000000008c
:0920fe00000000000000000000d9
:2021070000003000000000000000000000000000000100000000002002cbe5400000000075
:0a21270000000000000000000000ae
:2021310000000000000000000000000000000000000000000040000400000000000000004a
:0921510000000000000000000085
:20215a00000000000000000000000000000000000000000000040000380000000000000029
:0a217a00000000000000000000005b
:202184000000000000000000000000000000000000000000008000000000000000000000bb
:0921a40000000000000000000032
:2021ad000000000000000000000000000000000000000000000a0000000000000000000008
:0a21cd000000000000000000000008
:2021d70000020000000003fc000000000000000000000000000000024000000000000000a5
:0921f700000000000000000000df
:20220000000000000000003fc00000000000000000000000000800000000000000000000b7
:0a22200000000000000000000000b4
:20222a00000000000000000000000000000000000000000000000000000000000000000094
:09224a000000000000000000008b
:2022530000000000000000000000000000000000000000000000000000000000000000006b
:0a2273000000000000000000000061
:20227d008000000000000000000000000000000000000000002000000000000000000000a1
:09229d0000000100000000000037
:2022a600000000000000000000000000000000000000000000020000000000000000000016
:0a22c60000000030000000000000de
:2022d0000000000000000000000000000000000000000000000000000000000000000000ee
:0922f000000000000000000000e5
:2022f900000000000000000000000000000000000000000000000a000000000000000000bb
:0a23190000000000000000000000ba
:2023230080000000000000000000000000000000000000000000000000000000000000001a
:0923430000000000000000000091
:20234c00000000000000000000000000000000000000000000000000000000000000000071
:0a236c000000000000000000000067
:20237600000000000000000000000000000000000000000000200000000000000000000027
:092396000000000000000000003e
:20239f0000001000000000000000000000000000000000000000000000000000000000000e
:0a23bf000000000000000000000014
:2023c9000000000000000000000000000000000000000000000000000000000000000000f4
:0923e900000000000000000000eb
:2023f2000000000000000000000000000000000000000000000000000000000000000000cb
:0a24120000000000001000000000b0
:20241c00800000000000000000000000000000000000000000000000000000000000000020
:09243c0000000000000000000097
:2024450008600000000000000000000000000000000000000000000000000000000000000f
:0a246500000000000000000000006d
:20246f00000200000000000000000000000000000400000000000000000000000000000047
:09248f0000000100000000000043
:20249800000000000000000000000000000000000000000000000000000000000000000024
:0a24b800000000000000000000001a
:2024c200000000000000000000000000000000000000000000806000000000021000000008
:0924e200000008000000000000e9
:2024eb000400000000000000000000000000000000000000000c000000000000328000000f
:0a250b00000000c000000000000006
:20251500806c00000000000000000000000000000000000000200007c000000080000fde66
:092535002000020000000000007b
:20253e0000028000000000000000000000000000000000000000000078000000000000196a
:0a255e00bc010200000000000000b4
:202568000800000000000000000000000000000000000000000000c000000000200000006b
:092588000000000000000000004a
:2025910004c000000000000000000000000000000000000000000000000000000100000065
:0a25b10000000000400000000000e0
:2025bb00000200000000000000000000000000000000000000000000258c000000000f003e
:0925db0000000000006c0000008b
:2025e400000000000000000000000000000000000000000000000000014ae5410000000066
:0a260400000000000002400000008a
:20260e0000000000000000000000000000000000000000000020000000000000800000000c
:09262e00000002000000000000a1
:2026370000003000000000000000000000000000000000000000014000000000000001e031
:0a2657000000000000000000000079
:20266100080000000000000000000000000000000000000000c00342e7cc00050000000094
:09268100000004000002fb8000cf
:20268a0004c0000000000000000000000000000000000000000c002005cbe540300000001b
:0a26aa000000004000020d8004084b
:2026b4008000000000000000000000000000000000000000008000000000000200090000fb
:0926d400000008000000000000f5
:2026dd000000000000000000000000000000000000000000000a000000000000280001c0ea
:0a26fd00000000a00007000000002c
:202707000002000000000000000010000000000000000000000000c30000000000000000dd
:0927270000000000003000000079
:202730000400000000000000000000800000000000000000000800200400000020000000b9
:0a27500000000080000000000000ff
:20275a0000000000000000000000000000000000000000000000000000000000000000005f
:09277a0000000000000000000056
:20278300000000000000000000000000000000000000000000000000000000000000000036
:0a27a300000000000000000000002c
:2027ad0000000000000000000000000000000000000000000000000000000000000000000c
:0927cd0000000000000000000003
:2027d6000000000000000000000000000000000000000000000000000000000000000000e3
:0a27f60000000000000000000000d9
:202800000000000000000000000000000000000000000000000000000000000000000000b8
:09282000000000000000000000af
:2028290000000000000000000000000000000000000000000000000000000000000000008f
:0a2849000000000000000000000085
:20285300000200000000000000000000000000000000000000000000000000000000000063
:092873000000000000000000005c
:20287c0000000000000000000000000000000000000000000000000000000000000000003c
:0a289c000000000000000000000032
:2028a600000000000000000000000000000000000000000000000000000000000000000012
:0928c60000000000000000000009
:2028cf000000300000000000000000000000000000000000000000000000000000000000b9
:0a28ef0000000000000000000000df
:2028f9000000000000000000000000000000000000000000000000000000000000000000bf
:09291900000000000000000000b5
:20292200000000000000000000000000000000000000000000000000000000000000000095
:0a294200000000000000000000008b
:20294c0000000000000000000000000000000000000000000000000000000000000000006b
:09296c0000000000000000000062
:20297500000000000000000000000001000000000000000000000000000000000000000041
:0a2995000000000000000000000038
:20299f00000200000000000000000000000000000400000000000000000000000000000012
:0929bf000000000000000000000f
:2029c8000000000000000000000000000000000000000000000000000000000000000000ef
:0a29e80000000000000000000000e5
:2029f200000000000000000000000000000000000000000000800000000000000000000045
:092a1200000000000000000000bb
:202a1b000400000000000000000000000000000000000000000c000000000000000000008b
:0a2a3b000000000000000000000091
:202a45008000000000000000000000000000000000000000000000030000000000000000ee
:092a650000000000000000000068
:202a6e00000000000000000000000000000000000000000000000000040000000000000044
:0a2a8e00000000000000000000003e
:202a9800080000000000000000000000000000000000000000000000000000000000000016
:092ab80000000000000000000015
:202ac100044000000000000000000000000000000000000000000080000000000000000031
:0a2ae10000000000000000000000eb
:202aeb00003600000000000000000000000000000000000000000000000000000000000095
:092b0b00000000000000000000c1
:202b1400000040000000000000000000000000000000000000000000000000000000000061
:0a2b34000000000000000000000097
:202b3e00000000000000000000000000000000000000000000000000000000000000000077
:092b5e000000000000000000006e
:202b670000003000000000000000000000000000000000000000000000000000000000001e
:0a2b87000000000000000000000044
:202b910008000000000000000000000000000000000000000000000000000000000000001c
:092bb1000000000000000000001b
:202bba000400000000000000000000000000000000000000000000000000000000000000f7
:0a2bda0000000000000000000000f1
:202be4008000000000000000000000000000000000000000008000000000000000000000d1
:092c0400000000000000000000c7
:202c0d000000000000000000000000000000000000000000000a000000000000000000009d
:0a2c2d00000000000000000000009d
:202c3700002e00000000000000000000000000000000000000000000010f08000000000037
:092c570000000000000000000074
:202c6000040040000000000000000000000000000000000000080000000ef05000000000ba
:0a2c8000000000000000000000004a
:202c8a00002c0000000000000000000000000000000000000080000000000000000000007e
:092caa0000000800000000000019
:202cb3000400400000000000000000000000000000000000000c00000000000000000000b1
:0a2cd300000000c000000000000037
:202cdd00800000000000000000000000000000000000000000000002400f080000000000fe
:092cfd00000000000000000000ce
:202d0600000000000000000000000000000000000000000000000000001af048000000005b
:0a2d260000000002000000000000a1
:202d30000c0000000000000000000000000000000000000000000000000000000000000077
:092d50000000000000000000007a
:202d590004c000000000000000000000000000000000000000000200000000000000000094
:0a2d79000000000000000000000050
:202d830000020000000000000000000000000000000000000000000000000000000000002e
:092da300000000008000000000a7
:202dac00000000000000000000000000000000000000000000000000000000000000000007
:0a2dcc0000000000000000000000fd
:202dd6000000000000000000000000000000000000000000000001c03c05a8000000000033
:092df600000000000024000000b0
:202dff000006b00000000000000000000000000000000000000000200000a55000000000e9
:0a2e1f0000000000814040000000a8
:202e29002830000000000000000080000000000000000000000000000000000000000000b1
:092e49000000000000015a3c8069
:202e52000780000000000000000000000000000000000000000000000000000000000000d9
:0a2e72000000000001c025abc408f9
:202e7c00800000000000000000000000000000000000000000800000000000000000000036
:092e9c0000000800000000000025
:202ea5000060000000000000000000000000000000000000000a00000000000000000000a3
:0a2ec500000000a000000000000063
:202ecf000002000000000000000000000000000004000000001000000000000000000000cd
:092eef00000000000000000000da
:202ef80004200000000000000000000000000000000000000009000000000000000000008d
:0a2f180000000080014000000000ee
:022f22000000ad
:022f2400110298
:022f26000101a7
:202f28000000000000000000000000000000000000001e001000000000000040000000001b
:092f48000000000000000000047c
:202f5100000000000000000000000000000000000000000000000000000000000000000060
:0a2f71000000000000000000000056
:202f7b00000000000000000000000000000000000000000020000000000000800000000096
:092f9b0000000000000000000825
:202fa40000000000000000000000000000000000000000000000000000000000000000000d
:0a2fc4000000000000000000000003
:202fce00000000000000000000000000000000000000000010000020000000400000000073
:092fee00000000000000000004d6
:202ff700000000000000000000000000000000000080000000000002000000000000000038
:0a301700000000000020000000008f
:203021000000000000080000000000002000000000080000000000002000000000000080bf
:0930410000000000000000000086
:20304a00000000000000000000000000000000000000000000000000000000000000000066
:0a306a00000000000000000000005c
:2030740000000000000c00000000000030000000000c00000000000030000000000000c004
:0930940000000000000300000030
:20309d00000000000000000000000000000000000000000000000000000000000000000013
:0a30bd000000000000080000000001
:2030c700000000000000000000000000000000000c000000000000000000000000000000dd
:0930e700000000000000000008d8
:2030f0000000000000000000000000000000000000c0000001000000000780000000000078
:0a31100000000000000000000000b5
:20311a00000000000000000000000000000000000000000000000000000000000000000095
:09313a000000000000000000008c
:2031430000000000000000000000000000000000000000000200000000000000000000006a
:0a31630000000000000000000080e2
:20316d00000000000008000000000000200000000008100000000000200000000000008062
:09318d0000000000000204000033
:2031960000000000000000000000000000000000000000e001000000000000000000000038
:0a31b6000000000000000078000097
:2031c0000000000000000000000000000000000000000000000000000000000000000000ef
:0931e000000000000000000000e6
:2031e90000002000000000000000000000000000000000000800000000000000000000009e
:0a32090000000000000000000000bb
:2032130000000000000000000000000000000000000000000000000000000000000000009b
:0932330000000000000000000092
:20323c00000000000000000000000000000000000000000000000000000000400000000032
:0a325c000000000000000000000068
:20326600000000000000000000000000000000000000000000000000000000000000000048
:093286000000000000000000003f
:20328f0000000000000000000000000000000000000000000000000000000000000000001f
:0a32af000000000000000000000015
:2032b9000003000000000000000000000000000000000000000000000000000000000000f2
:0932d900000000000000000000ec
:2032e2000000000000000000000000000000000000000000000000000000000000000000cc
:0a33020000000000000000000000c1
:20330c000000000000000000000000000000000000000000000000000000000000000000a1
:09332c0000000000000000000098
:20333500000020000000000000000000000000000000000000000000000000000000000058
:0a335500000000000000000000006e
:20335f0000000000000000000000000000000000000000000000000000000000000000004e
:09337f0000000000000000000045
:20338800000000000000000000000000000000000000000000000000000000000000000025
:0a33a800000000000000000000001b
:2033b2000000000000000000000000000000000000000000000000000000000000000000fb
:0933d200000000000000000000f2
:2033db000000000000000000000000000000000000000000000000000000000000000000d2
:0a33fb0000000000000000000000c8
:203405000000000000000000000000000000000000000000000000000000000000000000a7
:093425000000000000000000009e
:20342e0000000000000000000000000000000000000000000000000000000000000000007e
:0a344e000000000000000000000074
:20345800000000000000000000000000000000000000000000000000000000000000000054
:093478000000000000000000004b
:2034810000002000000000000000000000000000000000000000000000000000000000000b
:0a34a1000000000000000000000021
:2034ab00000000000000000000000000000000000000000000000000000000000000000001
:0934cb00000000000000000000f8
:2034d4000000000000000000000000000000000000000000000000000000000000000000d8
:0a34f40000000000000000000000ce
:2034fe000000000000000000000000000000000000000000000000000000000000000000ae
:09351e00000000000000000000a4
:20352700000000000000000000000000000000000000000000000000000000000000000084
:0a354700000000000000000000007a
:20355100000300000000000000000000000000000000000000000000000000000000000057
:093571000000000000000002004f
:20357a00000000000000000000000000000000000000000000000000000000000000000031
:0a359a000000000000000000000027
:2035a400000000000000000000000000000000000000000000000000000000000000000007
:0935c400000000000000000000fe
:2035cd000000200000000000000000000000000000000000000000000000000000000000be
:0a35ed0000000000000000000000d4
:2035f7000000000000000000000000000000000000000000000000000000000000000000b4
:09361700000000000000000000aa
:2036200000000000000000000000000000000000000000000000000000000000000000008a
:0a3640000000000000000000000080
:20364a00000000000000000000000000000000000000000000000000000000000000000060
:09366a0000000000000000000057
:20367300000000000000000000000000000000000000000000000000000000000000000037
:0a369300000000000000000000002d
:20369d0000000000000000000000000000000000000000000000000000000000000000000d
:0936bd0000000000000000000004
:2036c6000000000000000000000000000000000000000000000000000000000000000000e4
:0a36e60000000000000000000000da
:2036f0000000000000000000000000000000000000000000000000000000000000000000ba
:0937100000000000000018000098
:20371900000020000000000000000000000000000000000058000000000000000000000018
:0a3739000000000000000000000086
:20374300000000000000000000000000000000000000000000000000000000000000000066
:093763000000000000000000015c
:20376c004000000000000000000000000000000000000000000000000000000000000000fd
:0a378c00000000000000000b000424
:20379600000000000000000000000000000000000000000000000000000000000000000013
:0937b6000000000000000000000a
:2037bf000000000000000000000000000000000000000000000000000000000000000000ea
:0a37df0000000000000000000000e0
:2037e9000001000000000000000000000000000000000000000000000000000000000000bf
:093809000000020b9c7b500a0038
:20381200000000000000000000000000000000000000000000000000000000000000000096
:0a3832000000000051e5e0800000f6
:20383c0000000000000000000000000000000000000000000000000000000000000000006c
:09385c0000000000000000000063
:2038650008002000000000000000000000000000000000000000000000000000000000001b
:0a3885000000000000000000000039
:20388f00000000000000000000000000000000000000000000000000000000000000000019
:0938af0000000000000000000010
:2038b8000000000000000000000000000000000000000000000000000000000000000000f0
:0a38d80000000000000000000000e6
:2038e2000000000000000000000000000000000000000000000000000000000000000000c6
:09390200000000000000000000bc
:20390b00080000000000000000000000000000000000000000000000000000000000000094
:0a392b000000000000000000000092
:20393500000000000000000000000000000000000000000000000000000000000000000072
:0939550000000000000000000465
:20395e00c00000000000000000000000000000000000000000000000000000000000000089
:0a397e00000000000000000e00042d
:20398800000000000000000000000000000000000000002000040bfca00000000000000054
:0939a80000000000000000000016
:2039b10000002000000000000000000000000000000000010000023d4e0000000000000048
:0a39d100000000000000000b0000e1
:2039db000000000000000000000000000000000000000000000000000000000000000000cc
:0939fb0002800000036800e000f6
:203a04000000000000000000000000000000000000000000000000000000000000000000a2
:0a3a2400001000000216b0000000c0
:203a2e00000000000000000000000000000000000000000000000000000000000000000078
:093a4e00040000431df8180000fb
:203a57000000000000000000000000000000000000000000000000000000e000000000006f
:0a3a77000380000033ecfd000000a6
:203a8100000100000000000000000000000000000000000000000000001e00000000000006
:093aa10000000000436850001011
:203aaa000000000000000000000000000000000000000000000000000001000000000000fb
:0a3aca00000000000016b08b009011
:203ad4004000000000000000000000000000000000000000000000000000000000aa578c05
:093af4000000000281e100000065
:203afd0000002000000000000000000000000000000000000000000000000000000aa000df
:0a3b1d00200000001402b7000000b1
:203b27000000000000000010000000000000000000000000000000000000000044cf7700e4
:093b470000000000000000000075
:203b5000000000000000000080000000000000000000000100000000000000000008f0b428
:0a3b70000200000000000000040045
:203b7a00000000000000000000000000000000000000000000000000000800000000000e15
:093b9a0000000003955b1000001f
:203ba3000800000000000000000000000000000000000000000000000001b0000000000049
:0a3bc300000000003bc6b0800010b7
:203bcd000000000000000000000000000000000000000000000032d6e000000000000000f0
:093bed000000010071ea00b000c3
:203bf60000000000000000000000000000000000000000000008038dca0000080000000045
:0a3c16000240000007010d1a100023
:203c200000000000000000000000000000000000000000000000000000000000000f37c07e
:093c40000005000810cb50100033
:203c4900000020000000000000000000000000000000000008000000000000000001f93efb
:0a3c6900400000000044b008000015
:203c7300000000000000000000000000000000000000000000000000000000000000000031
:093c93000000000140cb01a0017a
:203c9c004000000000000000000000000000000000000000000000000000000000000000c8
:0a3cbc000000000004248000000452
:203cc6000000000000000000000000000000000000000000000000000000200000000000be
:093ce60000000108015c00a000cf
:203cef000000000000000000000000000000000000000000000000000000040000000000b1
:0a3d0f000000000400c0d00800000e
:203d1900000300000000000000000000000000000000000000000000000000000000000087
:093d390000000000000018100059
:203d4200000000000000000000000000000000000000000000000000000000000000000061
:0a3d6200000000000000000800103f
:203d6c00000000000000000000000000000000000000000000000000000000000000000037
:093d8c002800000a116b8192006d
:203d95000000200000000000000000000000000000000000000000000000000000000000ee
:0a3db50004000000016ce109400069
:203dbf000000000000000000000000000000000000000000000000000000000000000000e4
:093ddf00000000001568018000dd
:203de8000000000000000000000000000000000000000000000000000000000000000000bb
:0a3e0800000000000142000000006d
:203e1200000000000000000000000000000000000000000000000000000000000000000090
:093e32000000000000690000001e
:203e3b00000000000000000000000000000000000000000000000000000000000000000067
:0a3e5b00000000003e81b0000000ee
:203e6500000000000000000000000000000000000000000000000000000000000000000e2f
:093e85000000010880c00180006a
:203e8e00000000000000000000000000000000000000000000000000000000000000000014
:0a3eae0023c000000400a000000083
:203eb8004000000000000000000000000000000000000000000000000100000000000000a9
:093ed80000000002ffec80000074
:203ee100000020000000000000000000000000000000000000000000000800000000000099
:0a3f0100000000003ffcbf000000bc
:203f0b00000000000000000000000000000000000000000000001680000000000000000000
:093f2b0000000023dfc901c00001
:203f34000800000000000000000000000000000000000000000012940900000000000000b6
:0a3f5400000100443fd5800000008a
:203f5e004c00000000000000000000000000000000000000000000000000000000000000f7
:093f7e00000000000000d8100052
:203f870000800000000000000000000000000000000000000000000000000000000000009a
:0a3fa7000000000000000508000003
:203fb1000002000000000000000000000000000000000000000000000000000000000000ee
:093fd10080000000000000000067
:203fda000000000000000000000000000000000000000000000000000000000000000000c7
:0a3ffa00000000000000000e0000af
:2040040000000000000000000000000000000000000000000000000000000000000000009c
:0940240000000000000081e00032
:20402d00000020000000000000000000000000000000000000000000000000000000000053
:0a404d000000000000000710000052
:20405700470000000000000000000000000000000000000000000000000000000000000002
:09407700000000000000800200be
:2040800000f30000000000000000000000000000000000000000000000000000000000002d
:0a40a000000000000000070b4000c4
:2040aa000030000000000000000000000000000000000000000000000000000000000000c6
:0940ca0000000003df5e0080022b
:2040d3000804000000000000000000000000000000000000000000000000000000000000c1
:0a40f300000000003cefd010002098
:2040fd008078000000000000000000000000000000000000000000000000000000000000ab
:09411d000000010395fcf8f0001c
:20412600000000000000000000000000000000000000000000000000000000000000000079
:0a414600000000001680af9e00800c
:2041500000000000000000000000000000000000000000000000000000000000000000004f
:0941700000000000000001a000a5
:204179000000200000000000000000000000000000000000080000000000000000000000fe
:0a4199000000000000000700000015
:2041a3000000000000000000000000000000000000000000000000000000000000000000fc
:0941c30000000000000001d00022
:2041cc000800000000000000000000000000000000000000050000000000000000000000c6
:0a41ec00000000000000000a0000bf
:2041f6000000000000000000000000000000000000000000000000000000000000000000a9
:094216000000000000003000006f
:20421f00080000000000000000000000000000000000000010000000000000000000000067
:0a423f00000000000000070000006e
:20424900000100000000000000000000000000000000000000000000000000000000000054
:0942690000000000436b58000046
:2042720000000000000000000000000000000000000000000000000000000000000000002c
:0a42920000000000000f8080000013
:20429c00000080000000000000000000000000000000000000000000000000000000000082
:0942bc000000000001df00000019
:2042c5000000000000000000000000000000000000000000000000000000000000000000d9
:0a42e500000000002802df000000c6
:2042ef000000000000000000000000000000000000000000000000000000000000000000af
:09430f000000000140d880e0002c
:20431800000004000000000000000000000000000000000000000000000000000000000081
:0a43380000000000000287001000e2
:2043420000000000000000000000000000000000000000000000000000000000000000005b
:094362000000010109eb800000dc
:20436b00080000000000000000000000000000000000000000000000000000080000000022
:0a438b00000000001283890000000a
:20439500000000000000000000000000000000000000000000000000000000000000000008
:0943b50000000103acc9801000f6
:2043be000000000000000000000000000000000000000000000000000000000000000000df
:0a43de000000000034c3f7090000de
:2043e800000040000000000000000000000000000000000000000000000000000000000075
:09440800000000000000000000ab
:20441100400028000000000000000000000000000000000000000000000000000000000023
:0a443100000000000000030000007e
:20443b0000000000000000000000000000001400000000000000000000000000000000004d
:09445b0000000000000000000157
:204464004800000000000000000000000000000000000000000000000000000000000000f0
:0a448400001000000000000000041a
:20448e0000000000000000000000000000000000000000000000000000000000000000000e
:0944ae0000000000000080800005
:2044b700800000000000000000000000000000000000000000000000000000000000000065
:0a44d7000000000000000310400880
:2044e1000003000000000000000000000000000000000000000000000000000000000000b8
:09450100000000000000b80004f5
:20450a0000000000000000000000000000000200000000000000000000000000000000008f
:0a452a000000000000000500000082
:20453400000000000000000000000000000000000000000000000000000000000000000067
:09455400000000010bea01c01097
:20455d0000000000000000010000000000000000000000000000000000000000000000003d
:0a457d00000000002035e0100000ef
:20458700000000000000000000000000000000000000000000000000000000000000000014
:0945a70000000103955c80000096
:2045b0000000000000000000000000000000000000000000000000000000004000000000ab
:0a45d000000000002941cf000000a8
:2045da000000000000000000000000000000000000000000000000000000000000000000c1
:0945fa000000010bbddb01800093
:20460300000000000000000000000000000000000000000000000000000000000000000097
:0a4623000000008539c3b710000045
:20462d0000000000000000000000000000000000000000000000000000000040000000002d
:09464d0000000000000000100054
:20465600000000000000000000000000000000000000000000000000000000020000000042
:0a4676000000000000000009000031
:02468000000038
:02468200110322
:02468400010132
:204686000000000000000000000000000000000000000000000000000000004000000000d4
:0946a6000001000000000000000a
:2046af000000000000000000000000000000000000000000000000000000000000000000eb
:0a46cf0000000000000000000000e1
:2046d900000000000000000020000000000000800000000020000000000000800000000081
:0946f900000200000000000000b6
:20470200000000000000000000000000000000000000000000000000000000000000000097
:0a472200000000000000000000008d
:20472c00000000000000000000000000080000000002000000000010000000400000800093
:09474c0000010000000000000063
:2047550000000000000000000000000000000000000000000000000200000000000008003a
:0a477500000000000000000000003a
:20477f0000000000000000000000000020000000000800000000000000340000000000803e
:09479f000000000000020400000b
:2047a800000000000000200000000000000000000000000000000000000040000000000091
:0a47c800000000000000006800007f
:2047d20000000000000400000000000010000000000c00000000006010000000000180c0f6
:0947f200000000000003000000bb
:2047fb0000000000000000000000000000000000000000000000000000000000000000009e
:0a481b000c00000000000000000087
:20482500000000000000000000000000000000000000000000000030000000000000c00182
:0948450000000000020000000068
:20484e0000000000000000000000000000000000000000000000000000000004000008003e
:0a486e000e001000001000000040d2
:20487800000000000000000000000000000000000000000000000000000000000000000020
:0948980000000000000000000017
:2048a100000000000000000002000000000000000000000002000000000380080000000068
:0a48c100000020000000000000804d
:2048cb0000000000000800000000000020000000000880000000000020000000000000807d
:0948eb00000000000002000000c2
:2048f400000000000000080000000000000000000000000000000000000000040000000098
:0a4914000000100000000000004049
:20491e00000000000000000000000000000000000000000000000000000000000000000079
:09493e0000000000000000000070
:20494700000000000000000000000000000000000000000000000000000000000000000050
:0a4967000000000000000000000046
:20497100000000000000000000000000000000000000000000000000000000000000000026
:094991000000000000000000001d
:20499a000000000000000000000000000000000000000000000000000000000000000000fd
:0a49ba0000000000000000000000f3
:2049c4000000000000000000000000000000000000000000000000000000000000000000d3
:0949e400000000000000000000ca
:2049ed000000000000000000000000000000000000000000000000000000000000000000aa
:0a4a0d00000000000000000000009f
:204a170000020000000000000000000000000000000000000000000000000000000000007d
:094a370000000000000000000076
:204a4000000000000000000000000000000000000000000000000000000000000000000056
:0a4a6000000000000000000000004c
:204a6a0000000000000000000000000000000000000000000000000000000000000000002c
:094a8a0000000000000000000023
:204a93000000300000000000000000000000000000000000000000000000000000000000d3
:0a4ab30000000000000000000000f9
:204abd000000000000000000000000000000000000000000000000000000000000000000d9
:094add00000000000000000000d0
:204ae6000000000000000000000000000000000000000000000000000000000000000000b0
:0a4b060000000000000000000000a5
:204b1000000000000000000000000000000000000000000000000000000000000000000085
:094b30000000000000000000007c
:204b390000000000000000000000000000000000000000000000000000000000000000005c
:0a4b59000000000000000000000052
:204b6300000200000000000000000000000000000000000000000000000000000000000030
:094b830000000000000000000029
:204b8c00000000000000000000000000000000000000000000000000000000000000000009
:0a4bac0000000000000000000000ff
:204bb60000000000000000000000000000000000000000000000000000900004000000004b
:094bd60000000001681c00000051
:204bdf004000000000000000700000000000000000000000000000000039c000c00000004d
:0a4bff000000002097cfb000000c6a
:204c0900800000000000000000000000000000000000000000000000030000000000000008
:094c290000000000000000000082
:204c3200000000000000000000000000000000000000000000000000000000000000000062
:0a4c52000000000000000000000058
:204c5c00000040000000000000000000000000000000000000002942d0800000000000003d
:094c7c000000000000000190009e
:204c850000000000000000000000000000000000000000000002097deb1800000000000084
:0a4ca50000000000000000080000fd
:204caf000000000000000000000000000000000000000000000211def30000000000000001
:094ccf00000000000000000000dc
:204cd800000000000000000000000000000000000000000000000a17c900000000000000d2
:0a4cf80000000000000000000000b2
:204d02000000000000000000000000000000000000000000000000c7900800000000000032
:094d220001000000000000000087
:204d2b00000010000000000000000000000000000000000000001a9fed00000000000000b2
:0a4d4b000028000000000500000031
:204d5500000000000000000000000000000000000000000000000000000000080000000036
:094d750000000000000000000035
:204d7e00c000000000000000000000000000000000000000000000000001e00080000000f4
:0a4d9e000000000000000100000802
:204da800800040000000000000000000000000000000000000000000009000040000000097
:094dc800000000000000000000e2
:204dd1004000000000000000000000000000000000000000000000000078e00140000000e9
:0a4df10000000000000000000014a4
:204dfb000002000000000000000000000000000000000000802011c6f31800000000000014
:094e1b000000000000000000008e
:204e2400000000000000000000000000000000000000000000000a15db8080004000000034
:0a4e44000000000000000000000460
:204e4e000000000000000028000000000000000000000000000000000000000000bd97c008
:094e6e0000000002f65b000000e8
:204e7700000000000000000100000000000000000000000000000000000000000002e5e053
:0a4e9700000000000bbea0080000a0
:204ea100800000000000000000000000000000000000000000000000000000000000000c65
:094ec100000000000000000200e6
:204eca000000000000000000000000000000000000000000000000000000000000000002c6
:0a4eea00000000000000000040007e
:204ef40000000000000000000000000000000000000000000000000000000000000000009e
:094f140000000000000000000094
:204f1d00000000000000000000000000000000000000000000000000000000000000000074
:0a4f3d00000000000000000000006a
:204f470000000000000000000000000000000000000000000000000000000000000000004a
:094f670000000000000000000041
:204f700004000000000000000000000000000000000000000000000000000000000000001d
:0a4f90000000000000000000000017
:204f9a000000000000000000000000000000000000000000000000000000000000000000f7
:094fba00000100000000000a00e3
:204fc3000000100000000000000000000000000000000000000000000000000000000000be
:0a4fe3000380000000000000400001
:204fed00800000000000000000000000000000000000000000000000000000000000000024
:09500d0000000000000098000002
:2050160000000000000000000000000000000000000000000000000000000000000000007a
:0a50360000000000000003800000ed
:20504000800000000000000000000000000000000000000000000000000040000000003c54
:09506000005000000000080000ef
:20506900000000000000000000000000000000000000000000000000000002000000000223
:0a5089000000000000000580000098
:205093000002000000000000000000000000000000000000000000000000000000000000fb
:0950b300000000000000000000f4
:2050bc000000000000000000000000000000000000000000000000000000000000000001d3
:0a50dc00e0000000000000000000ea
:2050e6000000000000000000000000000000000000000007000100d5800000040000000247
:09510600268010000000000000ea
:20510f00000000000000000000000000000000000000000000000a9dd9000000c000000040
:0a512f004000030000000000000033
:205139008000000000000000000000000000000000000000000000000090401000000002f4
:095159000000400000000000010c
:2051620000000000000000000000000000000000000000000000000000198800000000008c
:0a518200e000000000000000000043
:20518c00000000000000000000000000000000000000000000000000000000000000000201
:0951ac00000000000000000000fa
:2051b5000000000000000000000000000000000000000000000000000000000000000000da
:0a51d500e0000000000000000000f0
:2051df000000000000000000000000000000000000000000000000000000000000000000b0
:0951ff00000000000000000000a7
:2052080000000800000000000000000000000000000000000000000000000000000000007e
:0a522800000000000000000000007c
:205232000000000000000000000000000000000000000000000000000000001000a17f40ec
:0952520000004000000000000112
:20525b000000100000000000000000000000000000000000000000000000000010200f7c68
:0a527b000000000000000000000029
:205285000000000000000000000000000000000000000000000000000009000c00000000f4
:0952a500000030000000000400cc
:2052ae0000000000000000000000000000000000000000000000000000000000c00000011f
:0a52ce004000020000000000a000f4
:2052d8008000400000000000000000000000000000000000000000000d10000400000000d5
:0952f8000000100000000000009d
:205301000000000000000000000000000000000000000000000000000080e00140000000eb
:0a532100000005000000000000007d
:20532b000002000000000000000000000000000000000000800000000000000000000000e0
:09534b00000080000000000000d9
:205354000000000000000000000000000000000000000000000000000000000040000000f9
:0a537400000001000000000000002e
:20537e000000000000000000000000000000000000000000000000000000140000000000fb
:09539e0000000000000001000005
:2053a7004000000000000000000000000000000000000000000000000000000400000000a2
:0a53c7000000000000000008000cc8
:2053d1000000000000000000000000000000000000000000000000000000000000000000bc
:0953f1000000400000000800016a
:2053fa00000000000000000000000000000000000000000000000000000000000000000093
:0a541a000000000000000380000005
:20542400000000000000000000000000000000000000000000000000000000000000001c4c
:095444000000000006db0000007e
:20544d0000000000000000000000000000000000000000000000000000000000000000003f
:0a546d0000000040801ee000000077
:20547700000000000000000000000000000000000000000000000000000000000000000015
:09549700000020000000080000e4
:2054a0000000000000000000000000000000000000000000000000000000000000000000ec
:0a54c00000000300000003000000dc
:2054ca000000000000000000000000000000000000000000000000000000000288ff1ec05b
:0954ea00000000000000000001b8
:2054f3000000000000000000000000000000000000000000000000000000000000cd3be8a9
:0a551300400000000000000000004e
:20551d00800000000000000000000000000000000000000000000000000000000000000ce2
:09553d0000000000000010000055
:20554600c00000000000000000000000000000000000000000000000000000000000000283
:0a55660000000000000007800008ac
:205570008000000000000000000000000000000000000000000000000000000280050ec046
:095590000000000000000008000a
:2055990040000000000000000000000000000000000000000000000000000000008003e847
:0a55b9000230000000000000401462
:2055c3000000000000000000000000000000000000000000000000000000000000000000c8
:0955e300000000000000000000bf
:2055ec0000000000000000000000000000000000000000000000000000000000000000009f
:0a560c000000000000000000000490
:20561600000000000000000000000000000000000000000000000000000000000000000074
:095636000100000000000000006a
:20563f0000000000000000000000000000000000000000000000000000000000000000004b
:0a565f000008000000000000000039
:205669008000000000000000000000000000000000000000000000000000000000000000a1
:0956890000000000000000000018
:205692000000000000000000000000000000000000000000000000000000000000000000f8
:0a56b20000000000000000000000ee
:2056bc000000000000000000000000000000000000000000000000000000000000000000ce
:0956dc00000000000000000000c5
:2056e5000000000000000000000000000000000000000000000000000000000000000000a5
:0a570500002000000000000000007a
:20570f0000000000000000000000000000000000000000000000000000000000000000007a
:09572f0000000000000000000071
:20573800000008000000000000000000000000000000000000000000000000000000000049
:0a5758000000000000000000000047
:20576200000000000000000000000000000000000000000300000000000000000000000024
:095782000000000000000000001e
:20578b000000300000000000000000000000000000000000000000000000000000000000ce
:0a57ab0000000000000000000000f4
:2057b5000000000000000000000000000000000000000000000000000000000000000000d4
:0957d500000000000000000000cb
:2057de000000000000000000000000000000000000000000000000000000000000000000ab
:0a57fe0000000000000000000000a1
:205808008000000000000000000000000000000000000000200000000000000000000000e0
:0958280000000000000000000077
:20583100000000000000000000000000000000000000000001000000000000000000000056
:0a585100000000000000000000004d
:20585b000002000000000000000000000000000000000000800000000000000000000000ab
:09587b0000000000000000000024
:205884000000080000000000000000000000000000000000000000000000000000000000fc
:0a58a40000000000000000000000fa
:2058ae000000000000000000000000000000000000000000000000000000000000000000da
:0958ce00000000000000000000d1
:2058d7000000000000000000000000000000000000000000000000000000000000000000b1
:0a58f7000000000000000000800027
:20590100000000000000000000000000000000000000000000000000000000000000000086
:095921000000000000000000007d
:20592a0000000000000000000000000000000000000000000000000000000000000000005d
:0a594a000000000000000000000053
:20595400000000000000000000000000000000000000000000000000000000000000000033
:095974000000000000000000002a
:20597d0000000000000000000000000000000000000000000000000000000000000000000a
:0a599d000000000000000000000000
:2059a7000000000000000000000000000000000000000000000000000000000000000000e0
:0959c700000000000000000000d7
:2059d0000000000000000000000000000000000000000000000000000000000000000000b7
:0a59f00000000000000000000000ad
:2059fa0000000000000000000000000000000000000000000000000000000000000000008d
:095a1a0000000000000000000083
:205a2300000010000000000000000000000000000000000000000000000000000000000053
:0a5a43000000000000000000000059
:205a4d00000000000000000000000000000000000000000000000000000000000000000039
:095a6d0000000000000000000030
:205a7600000000000000000000000000000000000000000000000000000000000000000010
:0a5a96000000000000000000000006
:205aa0000000000000000000000000000000000000000000000000000000000000000000e6
:095ac000000000000000000000dd
:205ac9000000000000000000000000000000000000000000000000000000000000000000bd
:0a5ae90000000000000000000000b3
:205af300000200000000000000000000000000000000000000000000000000000000000091
:095b130000000000000000000089
:205b1c00000000000000000000000000000000000000000000000000000000000000000069
:0a5b3c00000000000000000000005f
:205b460000000000000000000000000000000000000000000000000000000000000000003f
:095b660000000000000000000036
:205b6f00000000000000000000000000000000000000000000000000000000000000000016
:0a5b8f00000000000000000000000c
:205b99000000000000000000000000000000000000000000000000000000000000000000ec
:095bb900000000000000000000e3
:205bc2000000000000000000000000000000000000000000000000000000000000000000c3
:0a5be20000000000000000000000b9
:205bec00000000000000000000000000000000000000002800000000000000000000000071
:095c0c000000000000000000008f
:205c150000000000000000000000000000000000000000000000000000000000000000006f
:0a5c35000000000000000000000065
:205c3f00000000000000000000000000000000000000000000000000000000000000000045
:095c5f000000000000000000003c
:205c680000000000000000000000000000000000000000000000000000000000000000001c
:0a5c88000000000000000000000012
:205c92000000000000000000000000000000000000000000000000000000000000000000f2
:095cb200000000000000000000e9
:205cbb000000300000000000500000000000000000000000500000000000000000000000f9
:0a5cdb00000000000000000000209f
:205ce50080000000000000000000000000000000000000000000000000000000000000001f
:095d050000100000000000000085
:205d0e00000000000000000000000000000000000000000000000000000000000000000075
:0a5d2e0000000000000000008000eb
:205d38008000000000000000000000000000000000000000000000000000000000000000cb
:095d580000000000000000000042
:205d6100000000000000000000000000000000000000000000000000000000000000000022
:0a5d81000000000000000000080010
:205d8b000003800000000000000000000000000000000000800000000000400000000000b5
:095dab00000000000000000000ef
:205db4000000080000000000000000000000000000000000000000000000020000000000c5
:0a5dd40000000000000000000000c5
:025dde000000c3
:035de00062003f1f
:035de300720080cb
:025de6001100aa
:035de80082000036
:025deb000103b2
:085ded000000000000000000ae
:085df5000000000000000000a6
:085dfd0000000000000000009e
:085e0500000000000000000095
:0261ed000000b0
:0361ef00820080ab
:0261f2000103a7
:0861f4000000000000000000a3
:0861fc0000000000000000009b
:08620400000000000000000092
:08620c0000000000000000008a
:0265f4000000a5
:0265f600110191
:0365f8008200001e
:0265fb0001039a
:0865fd00000000000000000096
:0866050000000000000000008d
:08660d00000000000000000085
:0866150000000000000000007d
:0269fd00000098
:0369ff0082008093
:026a020001038e
:086a040000000000000000008a
:086a0c00000000000000000082
:086a140000000000000000007a
:086a1c00000000000000000072
:026e040000008c
:026e0600110277
:036e080082000005
:026e0b00010381
:086e0d0000000000000000007d
:086e1500000000000000000075
:086e1d0000000000000000006d
:086e2500000000000000000065
:02720d0000007f
:03720f008200807a
:02721200010376
:08721400000000000000000072
:08721c0000000000000000006a
:08722400000000000000000062
:08722c0000000000000000005a
:02761400000074
:0276160011035e
:03761800820000ed
:02761b00010369
:08761d00000000000000000065
:0876250000000000000000005d
:08762d00000000000000000055
:0876350000000000000000004d
:027a1d00000067
:037a1f0082008062
:027a220001035e
:087a240000000000000000005a
:087a2c00000000000000000052
:087a340000000000000000004a
:087a3c00000000000000000042
:027e240000005c
:017e26002239
:027e27008508cc
:027e2900010650
:00000001FF
