:02000000ff00ff
:080002004c6174746963650030
:17000a00694345637562653220323032302e31322e32373934330071
:16002100506172743a2069434534304858344b2d545131343400f9
:1a003700446174653a20466562203820323032352031313a31363a353600c1
:0200510000ffae
:040053007eaa997e6a
:02005700510056
:0200590001059f
:03005b00920020f0
:03005e00620367d3
:0300610072011019
:0300640082000017
:02006700110086
:02006900010193
:20006b00000000000000000000000000000000000000000000000000000000000000000075
:20008b0000000000080000000000002000000000000000000000000000000000000000002d
:2000ab0000000000000000000000000800000000000000000000000000000000000000002d
:0d00cb000000000000000800000000000020
:2000d800000000000000000000000000000000000000000000000000000000000000000008
:2000f8000000000000000000000000000000000000000000000000000000000000000000e8
:200118000000000000000000000000000000000000000000000000000000000000000000c7
:0d01380000000000000000000000000000ba
:2001450000000000000000000000000000000000000000000000004000000000000000005a
:20016500000000000400000000000010000000000000000000000000000000000000000066
:20018500000000000000000000000004000000000000000000000000000000000000000155
:0d01a5000000000000000400000000000049
:2001b20000000000000000000000000000000000000000000000000000000000000000002d
:2001d20000000000000000000000000000000000000000000000000000000000000000000d
:2001f2000000000000000000000000000000000000000000000000000000000000000000ed
:0d02120000000000000000000000000000df
:20021f000000000000000000000000000000000000000000000000000000000000000000bf
:20023f000000000008008000200000200000000000000000000000000000000000000000d7
:20025f00000000000000000000000008000000100000000000000000000000000000000067
:0d027f00000000000000080000000000006a
:20028c00000000000000000000000000000000000000000000000000000000000000000052
:2002ac00000000000000700030000000000000400000000000000000000000000000000052
:2002cc00000000000000000000000000000000100000000000000000000000000000000002
:0d02ec0000004000000000000000100000b5
:2002f9000000000000000000000000000000000000000000000000400001000000000000a4
:200319000000000000000000000000000000000000000000010000000000000000000000c3
:200339000000000000000000000000000000000000000000000000000000000000000002a2
:0d0359000000000000000000000000000097
:20036600000000000000000000000000000000000000000000000000000000000000000077
:20038600000000000000000000000000000000000000000000000000000000000000000057
:2003a600000000000000000000000000000000000000000000000000000000000000000037
:0d03c600000000000000000000000000002a
:2003d300000000000008000000000000200000000000008000000000000100000000000061
:2003f3000800000000000020000000000000800000000000000000000000800000000000c2
:2004130002000000000000080000000000002000000000000080000000000002000000001d
:0d04330000000c0000000000002000000090
:2004400000000000000000000000000000000000000000000000000000000000000000009c
:2004600000000000000000000000000000000000000000000000000000000000000000007c
:2004800000000000000000000000000000000000000000000000000000000000000000005c
:0d04a000000000000000000000000000004f
:2004ad0000000000000000000000000000000000000000000000000000000000000000002f
:2004cd0000000000000000000000000000000000000000000000000000000000000000000f
:2004ed000000000000000000000000000000000000000000000000000000000000000000ef
:0d050d0000000000000000000000000000e1
:20051a000000000000000000000000000000000000000000000000000000000000000000c1
:20053a000000000000000000000000000000000000000000000000000000000000000000a1
:20055a00000000000000000000000000005800000000000000000000000000000000000029
:0d057a000000000000000000000000000074
:20058700000000000000000000000000000000000000000000000000000000000000000054
:2005a7000000000000000000000000000000000000004000000000000000000000000000f4
:2005c700000000000000000000000000000000000000000000008000000000000000000094
:0d05e7000000000000000000000000000007
:2005f4000000000000000000000000000000000000000000000000400000000000000000a7
:20061400000000000000000000000000000000000000400000000000000000000000000086
:200634000000000000000000000000000000000000000000000000000000000000000000a6
:0d0654000000000000000000000000000099
:20066100000000000004000000000000100000000000004000000000000000000000000025
:200681000400000000000000000000000020000000000000010000000000400000000000f4
:2006a1000100000000000004000000000000000000000000004000000000000100000000f3
:0d06c100000000000000000000101000000c
:2006ce00000000000000000000000000000000000000000000000000000400000000000008
:2006ee0000000000000000000000000001e00000000000000000000000000000000000000b
:20070e000000000000000000000000000000000000000000000000000000000000000000cb
:0d072e00000000000000000030000000008e
:20073b0000000000000000000000000000000000000000000000000000000000000000009e
:20075b0000000000000000000000000000000000000000000000000000000000000000007e
:20077b0000000000000000000000000000000000000000000000000000000000000000005e
:0d079b000000000000000000000000000051
:2007a80000020000000000000000000000000000000000000000000000000000000000002f
:2007c800000000000000000000000000000000000000000000000000000000000000000011
:2007e8000000000000000000000000000000000000000000000000000000000000000000f1
:0d08080000000000000000000000000000e3
:200815000000000000000000000000000000000000000000000000000000000000000000c3
:200835000000000000000000000000000000000000000000000000000000000000000000a3
:20085500000000000000000000000000000000000000000000000000010000000000000082
:0d0875000000000000001000000000000066
:20088200000000000000000000000000000000000000000000000000000000000000000056
:2008a200000000000000000000000000000000000000000000000000000000000000000036
:2008c200000000000000000000000000000000000000000000000000010000000000000015
:0d08e20000000000000010000000000000f9
:2008ef000000000000000000000000000000000000000000000000000000000000000000e9
:20090f000000000000000000000000000000000000000000000000000000000000000000c8
:20092f000000000000000000000000000000000000000000000000000000000000000000a8
:0d094f00000000000000000000000000009b
:20095c0000000000000000000000000000000000000000000000000000000000000000007b
:20097c0000000000000000000000000000000000000000000000000000000000000000005b
:20099c0000000000000000000000000000000000000000000000000000000000000000003b
:0d09bc00000000000000000000000000002e
:2009c90000010000000000000000000000000000000000000000010000000000000000000c
:2009e9000000000000000000000000000000000000000000000000000000000000010000ed
:200a09000000000000000000000000000000000000000000000000000000000000000000cd
:0d0a290000000000000000000000000000c0
:200a360000000000000000000000000000000000000000000000010000000000000000009f
:200a560000000000000000000000000000000000000000000000000000000000000100007f
:200a7600000000000000000000000000000000000000000000000000000000000000000060
:0d0a96000000000000000000000000000053
:200aa300000000000000000000000000000000000000000000000000000000000000000033
:200ac300000000000000000000000000000000000000000000000000000000000000000013
:200ae3000000000000000000000000000000000000000000000000000000000000000000f3
:0d0b030000000000000000000000000000e5
:200b10000000000000000000000000000000000000000000000000000000000000000000c5
:200b30000000000000000000000000000000000000000000000000000000000000000000a5
:200b5000000000000000000000000000000000000000000000000000000000000000000085
:0d0b70000000000000000000000000000078
:200b7d00000000000000000000000000000000001000000000000000000000000000000048
:200b9d00000000000000000000000000000000000000000000000000000000000000000038
:200bbd00000000000000000000000000000000000000000000000000000000000000000018
:0d0bdd00000000000000000000000000000b
:200bea000000000000000000000000000000000020000000000000000000000000000000cb
:200c0a000000000000000000000000000000000000000000000000000000000000000000ca
:200c2a000000000000000000000000000000000000000000000000000000000000000000aa
:0d0c4a00000000000000000000000000009d
:200c5700060000000000000000000000000000000000000000000000000000000000000077
:200c770000000000000000000000000000000000000000000000000000000000000000005d
:200c9700000000000000000000000000000000000000000000000000000000000000000439
:0d0cb7000000000000000000000000000030
:200cc400000000000000000000000000000000000000000000000000000000000000000010
:200ce4000000000000000000000000000000000000000000000000000000000000000000f0
:200d04000000000000000000000000000000000000000000000000000000000000000000cf
:0d0d240000000000000000000000000000c2
:200d31000000000000000000000000000000000000000000000000000000000000000000a2
:200d5100000000000000000000000000000000000000000000000000000000000000000082
:200d7100000000000000000000000000000000000000000000000000000000000000000062
:0d0d91000000000000000000000000000055
:200d9e00000000000000000000000000000000000000000000000000010000000000000034
:200dbe00000000000000000000000000000000000000000000000000000000000000000015
:200dde000000000000000000000000000000000000000000000000000000000000000000f5
:0d0dfe0000000000000000000000000000e8
:200e0b000000000000000000000000000000000000000000000000000000000000000000c7
:200e2b000000000000000000000000000000000000000000000000000000000000000000a7
:200e4b00000000000000000000000000000000000000000000000000000000000000000087
:0d0e6b00000000000000000000000000007a
:200e7800000200000000000000000000000000000000000000000000000000000000000058
:200e980000000000000000000000000000000000000000000000000000000000000000003a
:200eb80000000000000000000000000000000000000000000000000000000000000000001a
:0d0ed800000000000000000000000000000d
:200ee5000000000000000000000000000000000000000000000000000000000000000000ed
:200f05000000000000000000000000000000000000000000000000000000000000000000cc
:200f25000000000000000000000000000000000000000000000000000100000000000000ab
:0d0f4500000000000000100000000000008f
:200f520000000000000000000000000000000000000000000000000000000000000000007f
:200f720000000000000000000000000000000000000000000000000000000000000000005f
:200f920000000000000000000000000000000000000000000000000001000000000000003e
:0d0fb2000000000000001000000000000022
:200fbf00000000000000000000000000000000000000000000000000000000000000000012
:200fdf000000000000000000000000000000000000000000000000000000000000000000f2
:200fff000000000000000000000000000000000000000000000000000000000000000000d2
:0d101f0000000000000000000000000000c4
:20102c000000000000000000000000000000000000000000000000000000000000000000a4
:20104c00000000000000000000000000000000000000000000000000000000000000000084
:20106c00000000000000000000000000000000000000000000000000000000000000000064
:0d108c000000000000000000000000000057
:20109900000100000000000000000000000000000000000000000100000000000000000035
:2010b900000000000000000000000000000000000000000000000000000000000001000016
:2010d9000000000000000000000000100000000000000000000000000000000000000000e7
:0d10f90000000000000000000000000000ea
:201106000000000000000000000000000000000000000000000001000000000000000000c8
:201126000000000000000000000000000000000000000000000000000000000000010000a8
:20114600000000000000000000000010000000000000000000000000000000000000000079
:0d116600000000000000000000000000007c
:2011730000000000000000000000000000000000000000000000000000000000000000005c
:2011930000000000000000000000000000000000000000000000000000000000000000003c
:2011b30000000000000000000000000000000000000000000000000000000000000000001c
:0d11d300000000000000000000000000000f
:2011e0000000000000000000000000000000000000000000000000000000000000000000ef
:201200000000000000000000000000000000000000000000000000000000000000000000ce
:201220000000000000000000000000000000000000000000000000000000000000000000ae
:0d12400000000000000000000000000000a1
:20124d00000000000000000000000000000000000000000000000000000000000000000081
:20126d00000000000000000000000000000000000000000000000000000000000000000061
:20128d00000000000000000000000000000000000000000000000000000000000000000041
:0d12ad000000000000000000000000000034
:2012ba00000000000000000000000000000000000000000000000000000000000000000014
:2012da000000000000000000000000000000000000000000000000000000000000000000f4
:2012fa000000000000000000000000000000000000000000000000000000000000000000d4
:0d131a0000000000000000000000000000c6
:201327000000000000000000000000000000000000000000000000000000000000000000a6
:20134700000000000000000000000000000000000000000000000000000000000000000086
:20136700000000000000000000000000000000000000000000000000000000000000000066
:0d1387000000000000000000000000000059
:20139400000000000000000000000000000000000000000000000000000000000000000039
:2013b400000000000000000000000000000000000000000000000000000000000000000019
:2013d4000000000000000000000000000000000000000000000000000000000000000000f9
:0d13f40000000000000000000000000000ec
:201401000000000000000000000000000000000028000000000000000000000000000000a3
:201421000000000000000000000000000000000000000000000000000000000000000000ab
:2014410000000000000000000000000000000000000000000000000000000000000000008b
:0d146100000000000000000000000000007e
:20146e0000000000000000000000000000000000100000000000000001000000000000004d
:20148e0000000000000000000000000000000000000000000000000000000000000000003e
:2014ae0000000000000000000000000000000000000000000000000000000000000000001e
:0d14ce000000000000000000000000000011
:2014db000000000000000000000000000000000000000000000000000000000000000000f1
:2014fb000000000000000000000000000000000000000000000000000000000000000000d1
:20151b000000000000000000000000000000000000000000000000000000000000000000b0
:0d153b0000000000000000000000000000a3
:20154800000200000000000000000000000000000000000000000000000000000000000081
:20156800000000000000000000000000000000000000000000000000000000000000000063
:20158800000000000000000000000000000000000000000000000000000000000000000043
:0d15a80000000000000000600000000000d6
:2015b500000000000000000000000000000000000000000000000000000000000000000016
:2015d5000000000000000000000000000000000000000000000000000000000000000000f6
:2015f5000000000000000000000000000000000000000000000000000100000000000000d5
:0d16150000000000000000000000000000c8
:201622000000000000000000000000000000000000000000000000000000000000000000a8
:20164200000000000000000000000000000000000000000000000000000000000000000088
:20166200000000000000000000000000000000000000000000000000010000000000000067
:0d168200000000000000000000000000005b
:20168f0000000000000000000000000000000000000000000000000000000000000000003b
:2016af0000000000000000000000000000000000000000000000000000000000000000001b
:2016cf000000000000000000000000000000000000000000000000000000000000000000fb
:0d16ef0000000000000000000000000000ee
:2016fc000000000000000000000000000000000000000000000000000000000000000000ce
:20171c000000000000000000000000000000000000000000000000000000000000000000ad
:20173c0000000000000000000000000000000000000000000000000000000000000000008d
:0d175c000000000000000000000000000080
:2017690000010000000000000000000000000000000000000000000000000000000000005f
:20178900000000000000000000000000000000000000000000000000000000000000000040
:2017a90000000000000000000000000000000000000000000000000000000000000000041c
:0d17c9000000000000000000000000000013
:2017d6000000000000000000000000000000000000000000000000000000000000000000f3
:2017f6000000000000000000000000000000000000000000000000000000000000000000d3
:201816000000000000000000000000000000000000000000000000000000000000000000b2
:0d18360000000000000000000000000000a5
:20184300000000000000000000000000000000000000000000000000000000000000000085
:20186300000000000000000000000000000000000000000000000000000000000000000065
:20188300000000000000000000000000000000000000000000000000000000000000000045
:0d18a3000000000000000000000000000038
:2018b000000000000000000000000000000000000000000000000000000000000000000018
:2018d0000000000000000000000000000000000000000000000000000000000000000000f8
:2018f000000000000000000000000000000000000000028000000000000000000000000056
:0d19100000000000000000000000000000ca
:20191d00000000000000000000000000000000001000000000000001400000000000000059
:20193d0000000000000000000000000000000000000000000000000000000000000000008a
:20195d0000000000000000000000000000000000000000000000000000000000000000006a
:0d197d00000000000000000000000000005d
:20198a0000000000000000000000000000000000200000000000000000000000000000001d
:2019aa0000000000000000000000000000000000000000000000000000000000000000001d
:2019ca000000000000000000000000000000000000000000000000000000000000000000fd
:0d19ea0000000000000000000000000000f0
:2019f7000600000000000000000000000000000000000000000000000000000000000000ca
:201a17000000000000000000000000000000000000000000000000000000000000000000af
:201a370000000000000000000000000000000000000000000000000000000000000000008f
:0d1a57000000000000000000000000000082
:201a6400000000000000000000000000000000000000000000000000000000000000000062
:201a84000000000000600000000000000000000000000000000000000000000000000000e2
:201aa400000000000000000000000000000000000000000000000000000000000000000022
:0d1ac4000000000000000000000000000015
:201ad1000000000000000000000000000000000000000000000000000000000000000000f5
:201af1000000000000000000000000000000000000000000000000000000000000000000d5
:201b11000000000000000000000000000000000000000000000000000000000000000000b4
:0d1b310000000000000000000000000000a7
:201b3e00000000000000000000000000000000000000000000000000010000000000000086
:201b5e00000000000000000000000000000000000000000000000000000000000000000067
:201b7e00000000000000000000000000000000000000000000000000000000000000000047
:0d1b9e00000000000000000000000000003a
:201bab0000000000000000000000000000000000000000000000000000000000000000001a
:201bcb000000000000000000000000000000000000000000000000000000000000000000fa
:201beb000000000000000000000000000000000000000000000000000000000000000000da
:0d1c0b0000000000000000000000000000cc
:201c180080000000000000000000000000000000000000000000000000000000000000002c
:201c380000000000000000000000000000000000000000000000000000000000000000008c
:201c580000000000000000000000000000000000000000000000000000000000000000006c
:0d1c7800000000000000000000000000005f
:201c85008000000000000000000000000000000000000000000000000000000000000000bf
:201ca50000000000000000000000000000000000000000000000000000000000000000001f
:201cc5000000000000000000000000000000000000000000000000000100000000000000fe
:0d1ce50000000000000010000000000000e2
:201cf200800000000000000000000000000000000000000000000000000000000000000052
:201d12000000000000000000000000000000000000000000000000000000000000000000b1
:201d3200000000000000000000000000000000000000000000000000010000000000000090
:0d1d52000000000000001000000000000074
:201d5f00000000000000000000000000000000000000000000000000000000000000000064
:201d7f00000000000000000000000000000000000000000000000000000000000000000044
:201d9f00000000000000000000000000000000000000000000000000000000000000000024
:0d1dbf000000000000000000000000000017
:201dcc000000000000000000000000000000000000000000000000000000000000000000f7
:201dec00000000000000000000000002800000000000000000000000000000000000000055
:201e0c000000000000000000000000000000000000000000000000000000000000000000b6
:0d1e2c0000000000000000000000000000a9
:201e3900002b0000000000000000000000000000000000000000010000000000000000005d
:201e5900000000000000000000000000000000000000000000000000000000000001000068
:201e7900000000000000000000000000000000000000000000000000000000000000000049
:0d1e99000500000000001000000000000027
:201ea6000040000000000000000000000000000000000000000001000000000000000000db
:201ec6000000000000000000000000000000000000010000000000000000000000010000fa
:201ee60000000000000000000000001000000000000000800000000000000000000000004c
:0d1f060000000000000010000000000000be
:201f13000000000000000000000000000000000000000000000000000100000000000000ad
:201f330000000000200000000000000000000000000000000000000000000000000000006e
:201f530000000000000000000000000000000000000000000000000000000000000000006e
:0d1f73000000000000000000000000000061
:201f80004002000000000000000000000000000000000000000000000000000000000000ff
:201fa000000000000000000000000000000000000000000000000000000000000000000021
:201fc000000000000000000000000000000000000000000000000000000000000000000001
:0d1fe00000000000000000000000000000f4
:201fed004b0000000000000000000000000000001000000000000000000000000000000079
:20200d000000000000000000000000000000000000000000000000000000000000000000b3
:20202d00000000000000000000000000000000000000000000000000000000000000000093
:0d204d000000000000000000000000000086
:20205a000e0000000000000000000000000000002000000000000000000000000000000038
:20207a00000000000000000000000000000000000000000000000000000000000000000046
:20209a00000000000000000000000000000000000000000000000000000000000000000026
:0d20ba000000000000000000000000000019
:2020c7000628000000000000000000000000000000000000000000000000000000000000cb
:2020e7000000000000000000000000000000000000000000000000000000000000020000d7
:20210700000000000000000000000000000000000000400000000000000000000000000078
:0d21270000000000000000000000000000ab
:202134008040000000000000000000000000000000000000000000000000000000000000cb
:20215400000000000000000000000000000000000000000000000008000000000000000063
:2021740000000000000000000000000000000000000000000000000000000000000000004b
:0d219400000000000000000000000000003e
:2021a10080000000000000000000000000000000000000000000000000000000000000009e
:2021c1000000000000000000000000000000000000000000000000000000000000000000fe
:2021e1000000000000000000000000000000000000000000000000000000000000000000de
:0d22010000000000000000000000000000d0
:20220e000000000000000000000000000000000000000000000000000100000000000000af
:20222e00000000000000000000000000000000000000000000000000000000000000000090
:20224e00000000000000000000000000000000000000100000000000000000000000000060
:0d226e000000000000000000000000000063
:20227b00400000000000000000000000000000000000000000000000000000000000000003
:20229b00000000000000000000000000000000000000000000000000000000000000000023
:2022bb00000000000000000000000000000000000000000000000000000000000000000003
:0d22db0000000000000000000000000000f6
:2022e800800000000000000000000000000000000000000000000000000000000000000056
:202308000000000000000000000000000000000000000000000000000000000000000000b5
:20232800000000000000000000000000000000000000000000000000000000000000000095
:0d2348000000000000000000000000000088
:202355000068000000000000000000000000000000000000000000020000000000000000fe
:20237500000000000000000000000000000000000000000000000000000000000000000048
:20239500000000000000000000000000000000000000000000000000010000000000000027
:0d23b500000000000000100000000000000b
:2023c200920000000000000000000000000000000000000000000000000000000000000069
:2023e2000000000000000000000000000000000000000000000000000000000000000000db
:202402000000000000000000000000000000000000000000000000000100000000000000b9
:0d242200000000000000100000000000009d
:20242f00850000000000000000000000000000000000000000000000000000000000000008
:20244f0000000000000000000000000000000000000000000000000000000000000000006d
:20246f0000000000000000000000000000000000000000000000000000000000000000004d
:0d248f000000000000000000000000000040
:20249c000b0000000000000000000000000000000000000000000000000000000000000015
:2024bc00000000000000000000000000000000000000000000000000000000000000000000
:2024dc000000000000050000000000000000000000000000000000000000000000000000db
:0d24fc0000000000000000000000000000d3
:20250900003a00000000000000000000000000000000000000000100000000000000000077
:20252900000000000000000000000000000000000001000000000000000000000000000091
:20254900000000000000000000000000000000000000000000000000000000000000000072
:0d2569000000000000000000000000000065
:20257600004000000000000000000000000000000000000000000100000000000000000004
:20259600000000000000000000000000000000000000000000000000000000000001000024
:2025b600000000000000000000000000000000000000000000000000000000000000000005
:0d25d60000000000000000000000000000f8
:2025e300007000000000000000000000000000000000000000000000010000000000000067
:202603000000000000000000000000000000000000020000000000000000000000000000b5
:20262300000000000000000000000000000000000000000000000000000000000000000097
:0d264300000000000000100000000000007a
:20265000400200000000000000000000000000000000000000000000000000000000000028
:2026700000000000000000000000000000000000000000000000000000000000000000004a
:2026900000000000000000000000000000000000000000000000000000000000000000002a
:0d26b000000000000000000000000000001d
:2026bd004300000000000000000000000000000010000000000000000000000000000000aa
:2026dd000000000000000000000000000000000000000000000000000000000000000000dd
:2026fd000000000000000000000000000000000000000000000000000000000000000000bd
:0d271d0000000000000000000000000000af
:20272a000f0000000000000000000000000000002000000000000000000000000000000060
:20274a0000000000000000000000000000000000000000000000000000000000000000006f
:20276a0000000000000000000000000000000000000000000000000000000000000000004f
:0d278a000000000000000000000000000042
:2027970006000000000000000000000000000000000000000000000000000000000000001c
:2027b700000000000000000000000000000000000000000000000000000000000000000002
:2027d7000000000000000000000000000000000000000000000000000000000000000000e2
:0d27f70000000000000000000000000000d5
:20280400800000000000000000000000000000000000000000000000000000000000000034
:20282400000000000000000000000000000000000000000000000000000000000000000094
:20284400000000000000000000000000000000000000000000000000000000000000000074
:0d2864000000000000000000000000000067
:2028710080380000000000000000000000000000000000000000000000000000000000008f
:20289100000000000000000000000000000000000000000000000000000000000000000027
:2028b100000000000000000000000000000000000000000000000000000000000000000007
:0d28d10000000000000000000000000000fa
:2028de00004000000000000000000000000000000000000000000000010000000000000099
:2028fe000000000000000000000000000000000000000000000000000000000000000000ba
:20291e00000000000000000000000000000000000000000000000000000000000000000099
:0d293e000800000000000000000000000084
:20294b004070000000000000000000000000000000000000000000000000000000000000bc
:20296b0000000000000000000000000000000000000000000000000000000000000000004c
:20298b0000000000000000000000000000000000000000000000000000000000000000002c
:0d29ab00000000000000000000000000001f
:2029b80080000000000000000000000000000000000000000000000000000000000000007f
:2029d8000000000000000000000000000000000000000000000000000000000000000000df
:2029f8000000000000000000000000000000000000000000000000000000000000000000bf
:0d2a180000000000000000000000000000b1
:202a250000000000000000000000000000000000000000000000000200000000000000008f
:202a4500000000000000000000000000000000000000000000000000000000000000000071
:202a6500000000000000000000000000000000000000000000000000000000000000000051
:0d2a85000000000000001000000000000034
:202a92008000000000000000000000000000000000000000000000000000000000000000a4
:202ab200000000000000000000000000000000000000000000000000000000000000000004
:202ad2000000000000000000000000000000000000000000000000000000000000000000e4
:0d2af20000000000000010000000000000c7
:202aff008968000000000000000000000000000000000000000000000000000000000000c6
:202b1f00000000000000000000000000000000000000000000000000000000000000000096
:202b3f00000000000000000000000020000000000000000000000000000000000000000056
:0d2b5f000000000000000000000000000069
:202b6c000a3800000000000000000000000000000000000000000000000000000000000007
:202b8c00000000001000000000000000000000000000000000000000000000000000000019
:202bac00000000000000000000000000000000000000000000000000000000000000000009
:0d2bcc0000000000000000001000000000ec
:202bd9000002000000000000000000000000000000000000000001000000000000000000d9
:202bf9000000000000000000000000000000000000000000000000000000000000010000bb
:202c190000000000000000000000000000000000000000000000000001000000000000009a
:0d2c3900000000000000100000000000007e
:202c460000000000000000000000000000000000000000000000010000000000000000006d
:202c660000000000000000000000000000000000000000000000000000000000000100004d
:202c860000000000000000000000001000000000000000000000000001000000000000001d
:0d2ca6000000000000001000000000000011
:202cb300000000000000000000000000000000000000000000000000000000000000000001
:202cd3000000000000000000000000000000000000000000000000000000000000000000e1
:202cf3000000000000000000000000000000000000000000000000000000000000000000c1
:0d2d130000000000000000000000000000b3
:202d2000800200000000000000000000000000000000000000000000000000000000000011
:202d4000000000000000000000000000000000000000000000000000000000000000000073
:202d6000000000000000000000000000000000000000000000000000000000000000000053
:0d2d80000000000000000000000000000046
:202d8d004300000000000000000000000000000000000000000000000000000000000000e3
:202dad00000000000000000000000000000000000000000000000000000000000000000006
:202dcd000000000000000000000000000000000000000000000000000000000000000000e6
:0d2ded0000000000000000000000000000d9
:202dfa000a00000000000000000000000000000000000000000000000000000000000000af
:202e1a00000000000000000000000000000000000000000000000000000000000000000098
:202e3a00000000000000000000000000000000000000000000000000000000000000000078
:0d2e5a00200000000000000000000000004b
:202e67000068000000000000000000000000000000000000000000000000000000000000e3
:202e870000000000000000000000000000000000000000000000000000000000000000002b
:202ea700000000000400000000000000000000000000000000000000000000000000000007
:0d2ec70000000000000000000000000000fe
:202ed40080000000000000000000000000000000000000000000000000000000000000005e
:202ef4000000000000000000000000000000000000000000000000000000000000000000be
:202f140000000000000000000000000000000000000000000000000000000000000000009d
:0d2f34000000000000000000000000000090
:202f41008000000000000000000000000000000010000000000000000000000000000000e0
:202f6100000000000000000000000000000000000000000000000000000000000000000050
:202f8100000000000000000000000000000000000000000000000000000000000000000030
:0d2fa1000000000000000000000000000023
:202fae00000000000000000000000000000000000000000000000000000000000000000003
:202fce000000000000000000000000000000000000000000000000000000000000000000e3
:202fee000000000000000000000000000000000000000000000000000000000000000000c3
:0d300e0000000000000000000000000000b5
:20301b00000000000000000000000000000000000000000000000000000000000000000095
:20303b000000000000100000000000000100000000000000000000800000000000000000e4
:20305b0000000000000000000000000000000000000200070000000000000000000000004c
:0d307b000000000000000000000000000048
:20308800000200000000000000000000000000000000000000000000000000000000000026
:2030a800000000000000000000000000008000000000000000000000000000000000000088
:2030c8000000000000000000000000000000000000000000000000000000000000000000e8
:0d30e80000000000000000000000000000db
:2030f5000000000000000000000000000000000000000000000000000000000000000000bb
:2031150000000000000000000000000000000000000000000000000000000000000000009a
:203135000000000001000000000000000000000000028007811e7c002000000000000000b5
:0d3155000000000000000410000000000059
:2031620000000000000000000000000000000000000000000000000000000000000000004d
:2031820000000000000000000000000000000000000000000000000000000000000000002d
:2031a20000000000028000000000000000000000000000070f5b7880000000000000000022
:0d31c2000000000000000a000000000000f6
:2031cf000000000000000000000000000000000000000000000001000000000000000000df
:2031ef00000000000000000000000000000090000800000000000000000000000000000028
:20320f000000000000000000000000000000000000000000001617d20000000000000000a0
:0d322f000000000000000000000000000092
:20323c00000000000000000000000000000000000000000000000100000000000000000071
:20325c000000000000000000000000000f007016800000000000000000000000000000003d
:20327c00000000000000000000000000000000000000000b000017c0000000000000000050
:0d329c000000000000000000000000000025
:2032a900000100000000000000000000000000000000000000000000000000000004000000
:2032c900000000000000000000000000001a000000000000000000000000000000000000cb
:2032e9000000000000000000000000000000000000000000000000000000000000000000c5
:0d33090000000000000000000000000000b7
:20331600000000000000000000000000000000000000000000000000000000000004000093
:20333600000000000000000000000000001000000000000000000000000000000000000067
:2033560000000000000000000000000008000000000000000000000000000000000000004f
:0d337600000000000000000000000000004a
:203383000000000000000000000000000000000000000000000000008100000000000000a9
:2033a30000000000000000000000000000000000000000000000000000000000000000000a
:2033c30000000000000000000000000000000000000080000000000000000000000000006a
:0d33e30000000000000000000000000000dd
:2033f0000000000000000000000000000000000000000000000000010000000000000000bc
:2034100000000000000000000000000000000000000000000000000000000000000000009c
:2034300000000000000000000000000000000000000000000000000000000000000000007c
:0d345000000000000000000000000000006f
:20345d0000000000000000000000000000000000000000000000000000000000000000004f
:20347d0000000000000000000000000000000000000000000000000000000000000020000f
:20349d0000000000000000000000000000000000000000001c0000000000000000000000f3
:0d34bd000000000000000000000000000002
:2034ca000000000000000000000000000000000000000000000000000000000000000000e2
:2034ea000000000000000000000000000000000000000000000000000000000000000000c2
:20350a00000000000000000000000000000000000000000010000000000000000000000091
:0d352a000000000000000000000000000094
:20353700000000000000000000000000000000000000000000000000000000000000000074
:20355700000000000000000000000000000092a804200000000000000000000000000000f6
:20357700000000000000000000000000000000000000000000000000000000000000000034
:0d3597000000000000000000000000000027
:2035a400000000000000000000000000000000000000000000000000000000000000000007
:2035c4000000000000000000000000000000d03e8a0000000000000000000000000000004f
:2035e4000000000000000000000000000000000000000000000000000000000000000000c7
:0d36040000000000000000000000000000b9
:20361100000000000000000000000000000000000000000000000000000000000000000099
:203631000000000000000000000000000780000000000000000000000000000000000000f2
:20365100000000000000000000000000000000000000000000000000000000000000000059
:0d3671000000000000000008000000000044
:20367e0000000000000000000000000000000000000000000000000000000000000000002c
:20369e0000000000000000000000000000800000000000000000000000000000000000008c
:2036be000000000000000000000000000000000000000000000000000000000000000000ec
:0d36de0000000000000000100000000000cf
:2036eb000600000000000000000000000000000000000000000000000000000000000000b9
:20370b0000000000000000000000000000000000000000000000000000000000000000009e
:20372b0000000000000000000000000000000000000000000000000000000000000000007e
:0d374b000000000000000000000000000071
:2037580000020000000000000000000000000000000000000000000000000000000000004f
:20377800000000000000000000000000000000000000000000000000000000000000000031
:20379800000000000000000000000000000000000000000000000000000000000000000011
:0d37b8000000000000000000000000000004
:2037c5000000000000000000000000000000000000000000000000020000000000000000e2
:2037e5000000000000000000000000000000000000000000000000000000000000000000c4
:203805000000000000000000000000000000000000000000000000000000000000000000a3
:0d3825000000e000000000000000000000b6
:20383200000000000000000000000000000000000000000000000000000000000000000076
:20385200000000000000000000000000000000000000000000000000000000000000000056
:20387200000000000000000000000000000000000000000000000000000000000000000036
:0d3892000000000000000000000000000029
:20389f00000000000000000000000000000000000000000000000000000000000000000009
:2038bf000000000000000000000000000000000000000000000000000000000000000000e9
:2038df000000000000000000000000000000000000000000000000000000000000000000c9
:0d38ff0000000000000000000000000000bc
:20390c0000000000000000000000000000000000000000000000000000000000000000009b
:20392c0000000000000000000000000000000000000000000000000000000000000000007b
:20394c0000000000000000000000000000000000000000000000000000000000000000005b
:0d396c00000000000000000000000000004e
:2039790000010000000000000000000000000000000000000000000000000000000000002d
:2039990000000000000000000000000000000000000000000000000000000000000000000e
:2039b9000000000000000000000000000000000000000000000000000000000000000000ee
:0d39d90001100000000000000000000000d0
:2039e6000000000000000000000000000000000000000000000000000000000000000000c1
:203a06000000000000000000000000000000000000000000000000000000000000000000a0
:203a2600000000000000000000000000000000000000000000000000000000000000000080
:0d3a4600000800000000000000000000006b
:203a5300000000000000000000000000000000000000000000000000010000000000000052
:203a7300000000000000000000000000000000000000000000000000000000000000000033
:203a9300000000000000000000000000000000000000000000000000000000000000000013
:0d3ab300003809f39420000000000000001e
:203ac0000000000000000000000000000000000000000000000000000000000000000000e6
:203ae0000000000000000000000000000000000000000000000000000000000000000000c6
:203b00000000000000000000000000000000000000000000000000000000000000000000a5
:0d3b20000000e5f6140000000000000000a9
:203b2d00000000000000000000000000000000000000000000000000000000000000000078
:203b4d00000000000000000000000000000000000000000100000000000000000000000057
:203b6d00000000000000000000000000000000000000000000000000000000000000000038
:0d3b8d0000008dfbc00200000000000000e1
:203b9a0000000000000000000000000000000000000000000000000000000000000000000b
:203bba000000000000000000000000000000000000000000000000000000000000000000eb
:203bda000000000000000000000000000000000000000400000000000000000000000000c7
:0d3bfa0000010b73880000000000000000b7
:203c070002000000000000000000000000000000000000000000000000000000000000009b
:203c270000000000000000000000000000000000000000000000000000000000000000007d
:203c470000000000000000000000000000000000000000000000000000000000000000005d
:0d3c67000000000000000000000000000050
:203c7400000000000000000000000000000000000000000000000000000000000000000030
:203c9400000000000000000000000000000000000000000000000000000000000000000010
:203cb4000000000000000000000000000000000000000000000000000000000000000000f0
:0d3cd40000000000000000000000000000e3
:203ce1000000000000000000000000000000000000000000000000000000000000000000c3
:203d01000000000000000000000000000000000000000000000000000000000000000000a2
:203d2100000000000000000000000000000000000000000000000000000000000000000082
:0d3d41000001c000000000000000000000b4
:203d4e00000000000000000000000000000000000000000000000000000000000000000055
:203d6e00000000000000000000000000000000000000000000000000000000000000000035
:203d8e00000000000000000000000000000000000000000000000000000000000000000015
:0d3dae000000000000000000000000000008
:203dbb000600000000000000000000000000000000000000000000000000000000000000e2
:203ddb000000000000000000000000000000000000000000000000000000000000000000c8
:203dfb0000000000000000000000000000003fc83100000000000000000000000000000070
:0d3e1b00000000000000000000000000009a
:203e2800000200000000000000000000000000000000000000000000000000000000000078
:203e480000000000000000000000000000000000000000000000000000000000000000005a
:203e680000000000000000000000000000001cfe30000000000000000000000000000000f0
:0d3e8800000000000000000000000000002d
:203e950000000000000000000000000000000000000000000000000200000000000000000b
:203eb5000000000000000000000000000000000000000000000000000000000000000000ed
:203ed5000000000000000000000000000000000000000000000000000000000000000000cd
:0d3ef50000000000000000000000000000c0
:203f020010000000000000000000000000000000000000000000000000000000000000008f
:203f220000000000000000000000000000000000000000000000000000000000000000007f
:203f420000000000000000000000000000000000000000000000000000000000000000005f
:0d3f62000000000000000000000000000052
:203f6f00000000000000000000000000000000000000000000000000000000000000000032
:203f8f00000000000000000000000000000000000000000000000000000000000000000012
:203faf000000000000000000000000000000000000000000000000000000000000000000f2
:0d3fcf0000000000000000000000000000e5
:203fdc000000000000000000000000000000000000000000000000000000000000000000c5
:203ffc000000000000000000000000000000000000000000000000000000000000000000a5
:20401c00000000000000000000000000000000000000000000000000000000000000000084
:0d403c000000000000000000000000000077
:20404900000100000000000000000000000000000000000000000000000000000000000056
:20406900000000000000000000000000000000000000000000000000000000000000000037
:20408900000000000000000000000000000000000000000000000000000000000000000017
:0d40a900000000000000000000000000000a
:2040b6000000000000000000000000000000000000000000000000000000000000000000ea
:2040d6000000000000000000000000000000000000000000000000000000000000000000ca
:2040f6000000000000000000000000000000000000000000000000000000000000000000aa
:0d411600000000000000000000000000009c
:2041230000000000000000000000000000000000000000000000000000000000000000007c
:2041430000000000000000000000000000000000000000000000000000000000000000005c
:2041630000000000000000000000000000000000000000000000000000000000000000003c
:0d418300000000000000000000000000002f
:2041900000000000000000000000000000000000000000000000000000000000000000000f
:2041b000000000000000000000000000000000000000000000000000000000000000002cc3
:2041d0000000000000000000000000000000000000000000000000000000000000000000cf
:0d41f00000000000000000000000000000c2
:2041fd000000000000000000000000000000000000000000000000000000000000000000a2
:20421d00000000000000000000000000000000000000000000000000000000000000000081
:20423d0036edf010000000000000000000e00000000000000000000000000000000000005e
:0d425d000000000000000000000000000054
:20426a00000000000000000000000000000000000000000000000000000000000000000034
:20428a00000000000000000000000000000000000000000000000000000000000000000014
:2042aa007fede20000000000000000000000000000000000000000000000000000000000a6
:0d42ca0000000000000001000000000000e6
:2042d7000200000000000000000000000000000000000000000000000000000000000000c5
:2042f7000000000000000000000000000000000000000000000000000000000000000000a7
:20431700000000000000000000000000000300000000000000000000000000000000000083
:0d4337000000000000000000000000000079
:20434400000000000000000000000000000000000000000000000000000000000000000059
:20436400000000000000000000000000000000000000000000000000000000000000000039
:20438400000000000000000000000000000400000000000000000000000000000000000015
:0d43a400000000000000000000000000000c
:2043b1000000000000000000000000000000000000000000000000000000000000000000ec
:2043d1000000000000000000000000000000000000000000000000000000000000000000cc
:2043f10004000000000200000000000000e0000000000000000000000000000000000000c6
:0d441100400000000000000000000000005e
:20441e0000000000000000000000000000000000000000000000000000000000000000007e
:20443e0000000000000000000000000000000000000000000000000000000000000000005e
:20445e003000000000050000000000000260000000000000000000000000000000000000a7
:0d447e000000000000000000000000000031
:20448b00000000000000000000000000000000000000000000000000000000000000000011
:2044ab000000000000000000000000000000000000000000000000000000000000000000f1
:2044cb000000000000000000000000000000000000000010000000000000000000000000c1
:0d44eb0000000000000000000000000000c4
:2044f8000002000000000000000000000000000000000000000000000000000000000000a2
:20451800000000000000000000000000000000000000000000000000000000000000000083
:20453800000000000000000000000000000000000000000000000000000000000000000063
:0d455800380000000000000000000000001e
:20456500000000000000000000000000000000000000000000000000000000000000000036
:20458500000000000000000000000000000000000000000000000000000000000000000016
:2045a5000000000000000000000000000000000000000000000000000100000000000000f5
:0d45c50000000000000000000000000000e9
:2045d2000000000000000000000000000000000000000000000000000000000000000000c9
:2045f2000000000000000000000000000000000000000000000000000000000000000000a9
:20461200000000000000000000000000000000000000000000000000010000000000000087
:0d463200000000000000000000000000007b
:20463f0000000000000000000000000000000000000000000000000000000000000000005b
:20465f0000000000100000000000000000000000000000000000000000000000000000002b
:20467f000000000000000000000000200000000000000000000000000000000000000004f7
:0d469f0000000000000000100000000000fe
:2046ac000000000000000000000000000000000000000000000000000000000000000000ee
:2046cc000000000000000000000000000000000000000000000000000000000000000000ce
:2046ec000000000000000000000000000000000000000000000000000000000000000000ae
:0d470c000000000000000008000000000098
:2047190000010000000000000000000000000000000000000000000000000000000000007f
:2047390000000000000000000000000000000000000000000000000000000000000100005f
:2047590000000000000004000000000000000000000000000000000000000000000000003c
:0d4779000000000000000000100000000023
:20478600000000000000000000000000000000000000000000000000000000000000000013
:2047a6000000000000000000000000000000000000000000000000000000000000010000f2
:2047c6000000000000000000000000000000000000000000000000000000000000000000d3
:0d47e60000000000000000000000000000c6
:2047f3000000000000000000000000000000000000000000000000000000000000000000a6
:20481300000000000000000000000000000000000000000000000000000000000000000085
:20483300000000000000000000000000000000000000000000000000000000000000000065
:0d4853000000000000001000000000000048
:20486000000000000000000000000000000000000000000000000000000000000000000038
:20488000000000000000000000000000000000000000000000000000000000000000000018
:2048a0000000000000000000000000000000000000000000000000000000000000000000f8
:0d48c00000000000000000000000000000eb
:2048cd000000000000000000000000000000000010000000000000000000000000000000bb
:2048ed000000000000000000000000000000000000000000000000000000000000000000ab
:20490d0000000000000000000000000000000000000000000000000000000000000000008a
:0d492d00000000000000000000000000007d
:20493a0000000000000000000000000000000000200000000000000000000000000000003d
:20495a0000000000000000000000000000000000000000000000000000000000000000003d
:20497a0000000000000000000000000000000000000000000000000000000000000000001d
:0d499a000000000000000000100000000000
:2049a7000600000000000000000000000000000000000000000000000000000000000000ea
:2049c7000000000000000000000000000000000000000000000000000000000000000000d0
:2049e7000000000000000000000000000000000000000000000000000000000000000000b0
:0d4a070000000000000000000000000000a2
:204a1400000000000000000000000000000000000000000000000000000000000000000082
:204a3400000000000000000000000000000000000000000000000000000000000000000062
:204a5400000000000000000000000000000000000000000000000000000000000000000042
:0d4a74000000000000000000000000000035
:204a8100000000000000000000000000000000000000000000000000000000000000000015
:204aa1000000000000000000000000000000000000000000000000000000000000000000f5
:204ac1000000000000000000000000000000000000000000000000000000000000000000d5
:0d4ae10000000000000000000000000000c8
:204aee000000000000000000000000000000000000000000000000000100000000000000a7
:204b0e00000000000000000000000000000000000000000000000000000000000000000087
:204b2e00000000000000000000000000000000000000000000000000000000000000000067
:0d4b4e00000000000000000000000000005a
:204b5b00406800000000000000000000000000000000000000000000000000000000000092
:204b7b0000000000000000000000000000000000000000000000000000000000000000001a
:204b9b000000000000000000000000000000000000000000000000000000000000000000fa
:0d4bbb0000000000000000000000000000ed
:204bc80080000000000000000000000000000000000000000000000000000000000000004d
:204be8000000000000000000000000000000000000000000000000000000000000000000ad
:204c080000000000000000000000000000000000000000000000000000000000000000008c
:0d4c2800000000000000000000000000007f
:204c350000000000000000000000000000000000000000000000000000000000000000005f
:204c550000000000000000000000000000000000000000000000000000000000000000003f
:204c750000000000000000000000000000000000000000000000000000000000000000001f
:0d4c95008000000000000000000000000092
:204ca200800000000000000000000000000000000000000000000000000000000000000072
:204cc2000000000000000000000000000000000000000000000000000000000000000000d2
:204ce2000000000000000000000000000000000000000000000000000000000000000000b2
:0d4d020000000000000000000000000000a4
:204d0f008c00000000000000000000000000000000000000000000000000000000000000f8
:204d2f00000000000000000000000000000000000000000000000000000000000000000064
:204d4f00000000000000000000000020000000000000000000000000000000000000000024
:0d4d6f000000000000000000000000000037
:204d7c000e0000000000000000000000000000000000000000000000000000000000000009
:204d9c000000000010000000000000000000000000000000000000000000000000000000e7
:204dbc000000000000050000000000000000000000000000000000000000000000000000d2
:0d4ddc0000000000000000000000000000ca
:204de9000002000000000000000000000000000000000000000000000000000000000000a8
:204e0900000000000000000000000000000000000000000000000000000000000000000089
:204e2900000000000000000000000000040000000000000000000000000000000000000065
:0d4e4900000000000000001000000000004c
:204e560000000000000000000000000000000000000000000000000000000000000000003c
:204e760000000000000000000000000000000000000000000000000000000000000000001c
:204e96000000000000000000000000000000000000000000000000000000000000000000fc
:0d4eb60000000000000000080000000000e7
:204ec300006800000000000000000000000000000000000000000000000000000000000067
:204ee30000000000000000000000000000000000000200000000000000000000000040006d
:204f030000000000000000000000000000000000000000000000000000000000000000008e
:0d4f23000000000000000000000000000081
:204f30008002000000000000000000000000000000000000000000000000000000000000df
:204f5000000000000000000000000000000000000000000000000000000000000000200021
:204f7000000000000000000000000000000000000000000000000000000000000000000021
:0d4f90001000000000000000000000000004
:204f9d004e00000000000000000000000000000000000000000000000000000000000000a6
:204fbd00000000000000000000000000000000000000000000000000000000000000800054
:204fdd000000000000000000000000000000000000000000000000000000000000000000b4
:0d4ffd0000000000000000000000000000a7
:20500a000a000000000000000000000000000000000000000000000000000000000000007c
:20502a00000000000000000000000000000000000000000000000000000000000000000066
:20504a00000000000000000000000000000000000000000000000000004000000000000006
:0d506a000000000000000000000000000039
:20507700000000000000000000000000000000000000000000000000000000000000000019
:205097000000000000000000000000000000000000000000000000000000000000000000f9
:2050b7000000000000000000000000000000000000000000000000000000000000000000d9
:0d50d70000000000000000000000000000cc
:2050e400802c00000000000000000000000000000000000000000000000000000000000000
:2051040000000000000000000000000000000000000000000000000000000000000000008b
:2051240000000000000000000000000000000000000000000000000000000000000000006b
:0d514400000000000000000000000000005e
:20515100802800000000000000000000000000000000000000000000000000000000000096
:2051710000000000000000000000000000000000000000000000000000000000000000001e
:205191000000000000000000000000000000000000000000000000000000000000000000fe
:0d51b10000000000000000000000000000f1
:2051be00004000000000000000000000000000000000000000000000000000000000000091
:2051de000000000000000000000000000000000000000000000000000000000000000000b1
:2051fe00000000000000000000000000000000000000000000000000000000000000000091
:0d521e00080000000000000000000000007b
:20522b00400000000000000000000000000000000000000000000000000000000000000023
:20524b00000000000000000000000000000000000000000000000000000000000000000043
:20526b00000000000000000000000000000000000000000000000000000000000000000023
:0d528b000000c00000000000000000000056
:20529800800000000000000000000000000000000000000000000000000000000000000076
:2052b8000000000000000000000000000000000000000000000000000000000000000000d6
:2052d80000000000000000000000000400000000000000000000000000002400000000008e
:0d52f8000001800000000000000000000028
:20530500000000000000000000000000000000000000000000000000000000000000000088
:20532500000000000000000000000000000000000000000000000000000000000000000068
:20534500000000000000000000000000000000000000000000000000000000000000000048
:0d5365000000000000000400000000000037
:2053720080000000000000000000000000000000000000000000000000000000000000009b
:205392000000000000000000000000000000000000000000000000000000000000000000fb
:2053b2000000000000000000000000000000000000000000000000000000000000000000db
:0d53d2000000000000000a000000000000c4
:2053df008928000000000000000000000000000000000000000000000000000000000000fd
:2053ff0000000000000000000000000000000000000000000000000000000000000000008e
:20541f0000000000000000000000000000000000000000000000000000000000000000006d
:0d543f00000007be0c02000000000000008d
:20544c000a6c000000000000000000000000000000000000000000000000000000000000ca
:20546c00000000001000000000000000000000000000000000000000000000000000000010
:20548c00000000000000000000000000000000000000000000000000000000000000000000
:0d54ac000000093b8c000000000000000023
:2054b900002a000000000000000000000000000000000000000000000000000000000000a9
:2054d9000000000000000000000000000000000000000000000000000000000000000000b3
:2054f900000000000000000000000000000000000000000000000000000000000000000093
:0d5519000100000000000000000000000084
:20552600004000000000000000000000000000000000000000000000000000000000000025
:20554600000000000000000000000000000000000000000000000000000000000000000045
:20556600000000000000000000000000000000000000000000000000000000000000000025
:0d5586000000000000000000000000000018
:205593000000000000000000000000000000000000000000000000000000000000000000f8
:2055b3000000000000000000000000000000000000020000000000000000000000000000d6
:2055d300000000000000000000000000000000000000000000000000000000380000000080
:0d55f30000000000000000000000000000ab
:20560000800200000000000000000000000000000000000000000000000000000000000008
:2056200000000000000000000000000000000000000000000000000000000000000000006a
:2056400000000000000000000000000000000000000000000000000000000000000000004a
:0d566000000000000000000000000000003d
:20566d004b00000000000000000000000000000000000000000000000000000000000000d2
:20568d000000000000000000000000000000000000000000000000000000000000000000fd
:2056ad000000000000000000000000000000000000000000000000000000000000000000dd
:0d56cd0000000000000000000000000000d0
:2056da000e00000000000000000000000000000000000000000000000000000000000000a2
:2056fa00000000000000000000000000000000000000000000000000000000000000000090
:20571a0000000000000000000000000000000000000000000000000000000000000000006f
:0d573a0000700000000000000000000000f2
:2057470000280000000000000000000000000000000000000000000000000000000000001a
:20576700000000000000000000000000000000000000000000000000000000000000000022
:2057870000000000000000000000000000000000000028000000000000000001cd83100079
:0d57a7000000013f944000000000000000e1
:2057b400804000000000000000000000000000000000000000000000000000000000000015
:2057d4000000000000000000000000000000000000000000000000000000000000000000b5
:2057f40000000000000000000000000000000000000000000000000000003c005fd3000027
:0d581400009009b214000000000000000028
:205821008000000000000000000000000000000000000000000000000000000000000000e7
:20584100000000000000000000000000000000000000000000000000000000000000000047
:20586100000000000000000000000000000000000000000000000000000000200000000007
:0d58810000380000000000000000000000e2
:20588e000000000000000000000000000000000000000000000000000000000000000000fa
:2058ae000000000000000000000000000000000000000000000000000000000000000000da
:2058ce00000000000100000000000000000000000000000000000000000000400000000079
:0d58ee000018000000000000000000000095
:2058fb0000000000000000000000000000000000000000000000000000000000000000008d
:20591b0000000000000000000000000000000000000000000000000000000000000000006c
:20593b00001a0f100000000000000000000000000000000000000000000000000000000013
:0d595b00000000000000000000000000003f
:2059680000020000000000000000000000000000000000000000000000000000000000001d
:205988000000000000000000000000000000000000000000000000000000000000000000ff
:2059a80000000f1000000000000000000000000000000000000000000000000000000000c0
:0d59c80000000000000000000000000000d2
:2059d5000600000000000000000000000000000000000000000000000000000000000000ac
:2059f500000000000000000000000000000000000000000000000000000000000000000092
:205a1500000000000000000000000000001000000000000000000000000000000000000061
:0d5a35000000000000000000000000000064
:205a420018000000000000000000000000000000000000000000000000000000000000002c
:205a6200000000000000000000000000000000000000000000000000000000000000000024
:205a8200000000000000000000000000000000000000000000000000000000000000000004
:0d5aa20000000000000000000000000000f7
:205aaf000000000000000000000000000000000000000000000000000000000000040000d3
:205acf000000000000000000000000000000000000000000000000000000000000000000b7
:205aef00000000000004000000000000000000000000000000000000000000000000000093
:0d5b0f000000000000000000000000000089
:205b1c00000000000000000000000000000000000000000000000000000000000000000069
:205b3c00000000000000000000000000000000000000000000000000000000000000000049
:205b5c00000000000002000000000000000000000000000000000000000000000000000027
:0d5b7c00000000000000000000000000001c
:205b89000001000000000000000000000000000000000000000000000000000000000000fb
:205ba9000000000010000000000000400000000000000a0000000000000000000001002061
:205bc9000000000000001000000000000000000000000000000000000000000000000000ac
:0d5be90000000000000000000000000000af
:205bf60000000000000000000000000000000000000000000000000000000000000000008f
:205c1600000000001000000000000000000000000000000000000000000000000000003c22
:205c3600000000000000080000000000000000000000000000000000000000000000000046
:0d5c56000000000000000000000000000041
:205c6300000000000000000000000000000000000000000000000000000000000000000021
:205c8300000000000000000000000000000000000000000000000000000000000000000001
:205ca300000000000000000000000000000000000000800000000000000000000000000061
:0d5cc30000000000000000000000000000d4
:205cd0000000000000000000000000000000000000000000000000000000000000000000b4
:205cf000000000000000000000000000000000000000000000000000000000000000000094
:205d1000000000000000000000000000000000000000000000000000000000000000000073
:0d5d30000000000000000000000000000066
:205d3d00000000000000000000000000000000000000000000000006000000000000000040
:205d5d00000000000000000000000000000000000000000000000000000000000000000026
:205d7d00000000000000000fef940200000000000000000000000000000000000000000072
:0d5d9d0000000000000000000000000000f9
:205daa000000000000000000000000000000000000000000000000000000000000000000d9
:205dca000000000000000000000000000000000000000000000000000000000000000000b9
:205dea0000000000000000073d28000000000000000000000000000000000000000000002d
:0d5e0a00000000000000000000000000008b
:205e170000000000000000000000000000000000000000000000000000000000000000006b
:205e370000000000000000000000000000000000000000000000000000000000000000004b
:205e570000000000000000000000000000000000000000000000000000000000000000002b
:0d5e77000000000000000800000000000016
:205e84000000000000000000000000000000000000000000000000000000000000000000fe
:205ea4000000000000000000000000000000000000000000000000000000000000000000de
:205ec4000000000000000000000000000000000000000000000000000000000000000000be
:0d5ee40000000000000004000000000000ad
:205ef100000000000000000000000000000000000000000000000000000000000000000091
:205f1100000000000000000000000000000000000000000000000000000000000000000070
:205f3100000000000000100000000000000000000000100000000000000000000000000030
:0d5f51000000000000000000000000000043
:205f5e00000000000000000000000000000000000000000000000000000000000000000023
:205f7e00000000000000000000000000000000000000000000000000000000000000000003
:205f9e000000000000007890000000000000000000000800000000000000000000000000d3
:0d5fbe0000000000000000000000000000d6
:205fcb000000000000000000000000000000000000000000000000000000000000000000b6
:205feb00000000000000000000000000000000000000000000000000000000000000000096
:20600b00000000000000000000000000000000000000004000000000000000000000000035
:0d602b000000000000000010000000000058
:20603800000200000000000000000000000000000000000000000000000000000000000046
:20605800000000000000000000000000000000000000000000000000000000000000000028
:206078000000000000000000000000000000000000000020000000000000000000000000e8
:0d60980000000000000000080000000000f3
:2060a5000000000000000000000000000000000000000000000000000000000000000000db
:2060c5000000000000000000000000000000000000000000000000000000000000000000bb
:2060e50000000000000000000000000000000000000000000000000001000000000000009a
:0d610500000000000000000000000000008d
:2061120000000000000000000000000000000000000000000000000000000000000000006d
:2061320000000000000000000000000000000000000000000000000000000000000000004d
:2061520000000000000000000000000000000000000000000000000001000000000000002c
:0d6172000000000000000020000000000000
:20617f00000000000000000000000000000000000000000000000000000000000000000000
:20619f000000000000000000000000000000000000000000000000000000000000000000e0
:2061bf000000000000000000000000000000000000000000000000000000000000000000c0
:0d61df0000000000000000000000000000b3
:2061ec00000000000000000000000000000000000000000000000000000000000000000093
:20620c00000000000000000000000000000000000000000000000000000000000000000072
:20622c00000000000000000000000000000000000000000000000000000000000000000052
:0d624c000000000000000000000000000045
:20625900000100000000000000100000000000000000000000000000000000000000000014
:20627900000000000000000000000000000000000000000000000000000000000001000004
:206299000000000000000000000000100000000000000000000000000000000000000000d5
:0d62b90000000000000000000000000000d8
:2062c6000000000000000000001000000000000000000000000000000000000000000000a8
:2062e600000000000000000000000000000000000000000000000000000000000000000098
:20630600000000000000000000000000000000000000000000000000000000000000000077
:0d632600000000000000000000000000006a
:2063330000000000000000000000000000000000000000000000000000000000000000004a
:2063530000000000000000000000000000000000000000000000000000000000000000002a
:20637300000000000000000000000000080000000000000000000000000000000000000002
:0d63930000000000000000000000000000fd
:2063a0000000000000000000000000000000000000000000000000000000000000000000dd
:2063c0000000000000000000000000000000000000000000000000000000000000000000bd
:2063e000000000000000000000000000140000000000000000000000000000000000000089
:0d640000000000000000000000000000008f
:20640d0000000000000000000000000000000000000000000000000000000000000000006f
:20642d0000000000000000000000000000000000000000000000000000000000000000004f
:20644d0000000000000000000000000000000000000000000000000000000000000000002f
:0d646d000000000000000000000000000022
:20647a00000000000000000000000000000000000000000000000000000000000000000002
:20649a000000000000000000000000000000000000000000000000000000000000000000e2
:2064ba000000000000000000000000000000000000000000000000000000000000000000c2
:0d64da0000000000000000000000000000b5
:2064e700020000000000000000000000000000000000000000000000000000000000000093
:20650700000000000000000000000000000000000000000000000000000000000000000074
:20652700000000000000000000000000000000000000000000000000000000000000000054
:0d6547000100000000000000000000000046
:20655400000000000000000000000000000000000000000000000000000000000000000027
:20657400000000000000000000000000000000000000000000000000000000000000000007
:206594000000000000000000000000000000000000000000000000000000000000000000e7
:0d65b40000000000000000000000000000da
:2065c1000000000000000000000000000000000000000000000000000000000000000000ba
:2065e10000000000000000000000000000000000000000000000000000000000000000009a
:20660100000000000000000000000000000000000000000000000000000000000000000079
:0d662100000000000000000000000000006c
