:02000000ff00ff
:080002004c6174746963650030
:17000a00694345637562653220323032302e31322e32373934330071
:16002100506172743a2069434534304858344b2d545131343400f9
:1a003700446174653a20446563203620323032342031333a34353a333100c8
:0200510000ffae
:040053007eaa997e6a
:02005700510056
:0200590001059f
:03005b00920020f0
:03005e00620367d3
:0300610072011019
:0300640082000017
:02006700110086
:02006900010193
:20006b000000000000000000000000000000000000000000000000800000000000000000f5
:20008b00000000000000000000000000000000000000000000000000000000000000000055
:2000ab00000000000200000000000008000000000000000000000000000000000000000229
:0d00cb000000000000000800000000000020
:2000d800000000000000000000000000000000000000000000000000000000000000000008
:2000f8000000000000000000000000000000000000000000000000000000000000000000e8
:200118000000000000000000000000000000000000000000000000000000000000000000c7
:0d01380000000000000000000000000000ba
:2001450000000000000000000000000000000000000000000000004000000000000000005a
:2001650000000000000000000000001000000000000000000000000000000000000000006a
:2001850000000000010000000000000400d000000000000340000000000000000000000141
:0d01a5000000000000000400000000000049
:2001b20000000000000000000000000000000000000000000000000000000000000000002d
:2001d20000000000000000000000000000000000000000000000000000000000000000000d
:2001f2000000000000000000000000000000000000000000000000000000000000000000ed
:0d02120000000000000000000000000000df
:20021f0000000000000000000000000000000000000000000000008000000000000000003f
:20023f0000000000000000000000000000000000000000000000000000000000000000009f
:20025f00000000000200000000000008000000300000000000000000000000000000000243
:0d027f000000000800000800000000000062
:20028c0000000000000000000000000000000000000000000000000000000300000000004f
:2002ac00000000000000000000000000000000000000000000000000000000000000000032
:2002cc000000000000000000040000000000001000000000000000000000000000000000fe
:0d02ec00002c000c000000000000000000cd
:2002f9000000000000000000000000000000000000000000000000000000000000000000e5
:200319000000000000000000000000000000000000000000000000000000000000000000c4
:200339000000000000000000000000000000000000000000000000000000000000000000a4
:0d0359000000000000000000000000000097
:20036600000000000000000000000000000000000000000000000000000000000000000077
:20038600000000000000000000000020000000000000000000000000000000000000000037
:2003a600000000000000000000000000003000000000000000000000000000000000000007
:0d03c600000000000000000000000000002a
:2003d30000000000000000000000000000000000000000000000000000000000000000000a
:2003f3000000000000000000000000000000400000000000020000000000000000000000a8
:200413000000000000000000000000000000200000000000000000000000000000000000a9
:0d043300000000000000000000200000009c
:2004400000000000000000000000000000000000000000000000000000000000000000009c
:2004600000000000000000000000000000000000000000000000000000000000000000007c
:2004800000000000000000000000000000000000000000000000000000000000000000005c
:0d04a000000000000000000000000000004f
:2004ad0000000000000000000000000000000000000000000000000000000000000000002f
:2004cd0000000000000000000000000000000000000000000003000000000000000000000c
:2004ed000000000000000000000000000000001000000000000030000000000000000000af
:0d050d0000000400000000000000100000cd
:20051a000000000000000000000000000000000000000000000000000000000000000000c1
:20053a00000000000000000000000000000000000000800000000000000000000000000021
:20055a00000000000000000000000008000000200000000000001000000000000000000049
:0d057a000000080000000800000000000064
:2005870000000000000000000000000000000000000000000000000007000000000000004d
:2005a700000000000000000000000000000000000000000000000000000000000000000034
:2005c700000000000000000000000000000000000000000000000000000000010000000013
:0d05e70000000800000000000010000000ef
:2005f400000000000000000000000000000000000000000000000000008000000000000067
:20061400000000000000000000000000000000000000400300000000000000000000000083
:200634000000000000000000000000040000000000000000000000000000000000000000a2
:0d0654000000040000000400000000000091
:20066100000000000000000000000000000000000000000000000000000100000000000078
:20068100000000000000000000000000000040000000000000000000000000000000000019
:2006a100000000000000020400000000000010100000000000000000000000000000000013
:0d06c1000000040000000000f01000000028
:2006ce0000000000000000000000000000000000000000000000000000000000000000000c
:2006ee0000000000000000000000000000000000000080000000000000000000000000006c
:20070e000000000000001e00000000080000000000000000000000000000000000000000a5
:0d072e00000000080000080000100000009e
:20073b0000000000000000000000000000000000000000000000000000000000000000009e
:20075b0000000000000000000000000000000000000000000000000000000000000000007e
:20077b0000000000000000000000000000000000000000000000000000000000000000005e
:0d079b000000000000000000000000000051
:0d153b00000000000000080000000000009b
:20154800000000000000000000000000000000000000000000000000000000000000000083
:20156800000000000000000000000000000000000000000000000000000000000000000063
:20158800000000000000000000000000a000000000000000000000000000000000000000a3
:0d15a800280000000000000000000000000e
:2015b500000000000000000000000000000000000000000000000000000000000000000016
:2015d5000000000000000000000000000000000000000000000000000000000000000000f6
:2015f5000000000000000000000000000000000000000000000000000000000000000000d6
:0d16150000000000000000000000000000c8
:201622000000000000000000000000000000000000000000000000000000000000000000a8
:20164200000000000000000000000000000000000000000000000000000000000000000088
:20166200000000000000000000000000000000000000000000000000000000000000000068
:0d168200000000000000000000000000005b
:20168f0000000000000000000000000000000000000000000000002000000000000000001b
:2016af0000000000000000000000000000000000000000000000000000000000000000001b
:2016cf000000000000000000000000000000000000000000000000000000000000000000fb
:0d16ef0000000000000000000000000000ee
:2016fc0000000000000000000000000000000000000000000000004000000000000000008e
:20171c000000000000000000000000000000000000000000000000000000000000000000ad
:20173c0000000000000000000000000000000000000000000000000000000000000000008d
:0d175c000000000000000000000000000080
:20176900000000000000000000000000000000000000000000000000000000000000000060
:201c18000002000000000000000000000000000000000000000000000000000000000000aa
:201c380000000000000000000000000000000000000000000000000000000000000000008c
:201c580000000000000000000000000000000000000000000000000000000000000000006c
:0d1c7800000000000000000000000000005f
:201c85008000000000000000000000000000000000000000000000000000000000000000bf
:201ca50000000000000000000000000000000000000000000000000000000000000000001f
:201cc5000000000000000000000000000000000000000000000000000000000000000000ff
:0d1ce50000000000000000000000000000f2
:201cf200800000000000000000000000000000000000000000000000000000000000000052
:201d12000000000000000000000000000000000000000000000000000000000000000000b1
:201d3200000000000000000000000000000000000000000000000000000000000000000091
:0d1d52000000000000000000000000000084
:201d5f00000000000000000000000000000000000000000000000000000000000000000064
:201d7f00000000000000000000000000000000000000000000000000000000000000000044
:201d9f00000000000000000000000000000000000000000000000000000000000000000024
:0d1dbf000000000000000000000000000017
:201dcc000000000000000000000000000000000000000000000000000000000000000000f7
:201dec000000000010000000000000000000000000010000000000000000000000000000c6
:201e0c000000000000080000000000000000000000000000000000000000000000000000ae
:0d1e2c0000000000000000000000000000a9
:201e3900000300000000000000000000000000000000000000000000000000000000000086
:201e5900000000000000000000000000000000000000000000000000000000000000000069
:201e7900000000000000000000000000000000000000000000000000000000000000000049
:0d1e9900000000000000000000000000003c
:201ea60000000000000000000000000000000000000000000000000000000000000000001c
:201ec6000000000000000000000000000000000000000000000000000000000000000000fc
:201ee6000000000000000000000000000000000000000000000000000000000000000000dc
:0d1f060000000000000000000000000000ce
:201f13000000000000000000000000000000000000000000000000000000000000000000ae
:201f330000000000000000000000000000000000000000000000000000000000000000008e
:201f530000000000000000000000000000000000000000000000000000000000000000006e
:0d1f73000000000000002000000000000041
:201f80008002000000000000000000000000000000000000000000000000000000000000bf
:201fa000000000000000000000000000000000000000000000000000000000000000000021
:201fc000000000000000000000000000000000000000000000000000000000000000000001
:0d1fe00000000000000000000000000000f4
:201fed000000000000000000000000000000000000000000000000000000000000000000d4
:20200d000000000000000000000000000000000000000000000000000000000000000000b3
:20202d00000000000000000000000000000000000000000000000000000000000000000093
:0d204d000000000000000000000000000086
:20205a00000000000000000000000000000000000000000000000000000000000000000066
:20207a00000000000000000000000000000000000000000000000000000000000000000046
:20209a00000000000000000000000000000000000000000000000000000000000000000026
:0d20ba000000000000000000000000000019
:2020c7000000000000000000000000000000000000000000000000000000000000000000f9
:2020e7000000000000000000000000000000000000000000000000000000000000000000d9
:202107000000000000000000000000000000000000000000000000000000000000000000b8
:0d21270000000000000000000000000000ab
:2021340080000000000000000000000000000000000000000000000000000000000000000b
:2021540000000000000000000000000000000000000000000000000000000000000000006b
:2021740000000000000000000000000000000000000000000000000000000000000000004b
:0d219400000000000000000000000000003e
:2021a10000000000000000000000000000000000000000000000000000000000000000001e
:2021c1000000000000000000000000000000000000000000000000000000000000000000fe
:2021e1000000000000000000000000000000000000000000000000000000000000000000de
:0d22010002000000000000000000000000ce
:20220e000000000000000000000000000000000000000000000000000000000000000000b0
:20222e00000000000000000000000000000000000000000000000000000000000000000090
:20224e00000000000000000000000000000000000000000000000000000000000000000070
:0d226e00050000000000000000000000005e
:20227b00000000000000000000000000000000000000000000000000000000000000000043
:20229b00000000000000000000000000000000000000000000000000000000000000000023
:2022bb00000000000000000000000000000000000000000000000000000000000000000003
:0d22db0000000000000000000000000000f6
:2022e8000002000000000000000000000000000000000000000000000000000000000000d4
:202308000000000000000000000000000000000000000000000000000000000000000000b5
:20232800000000000000000000000000000000000000000000000000000000000000000095
:0d2348000000000000000000000000000088
:202355008000000000000000000000000000000000000000000000000000000000000000e8
:20237500000000000000000000000000000000000000000000000000000000000000000048
:20239500000000000000000000000000000000000000000000000000000000000000000028
:0d23b500000000000000000000000000001b
:2023c20080000000000000000000000000000000000000000000000000000000000000007b
:2023e2000000000000000000000000000000000000000000000000000000000000000000db
:202402000000000000000000000000000000000000000000000000000000000000000000ba
:0d24220000000000000000000000000000ad
:20242f0000000000000000000000000000000000000000000000000000000000000000008d
:20244f0000000000000000000000000000000000000000000000000000000000000000006d
:20246f0000000000000000000000000000000000000000000000000000000000000000004d
:0d248f000000000000000000000000000040
:20249c00000000000000000000000000000000000000000000000000000000000000000020
:2024bc000000000010000000000000000000000000010000000000000000000000000000ef
:2024dc000000000000000000000000000000000000000000000000000000000000000000e0
:0d24fc0000000000000000000000000000d3
:202509000003000000000000000000000000000000000000000000000000000000000000af
:20252900000000000000000000000000000000000000000000000000000000000000000092
:20254900000000000000000000000000000000000000000000000000000000000000000072
:0d2569000000000000000000000000000065
:20257600000000000000000000000000000000000000000000000000000000000000000045
:20259600000000000000000000000000000000000000000000000000000000000000000025
:2025b600000000000000000000000000000000000000000000000000000000000000000005
:0d25d60000000000000000000000000000f8
:2025e3000000000000000000000000000000000000000000000000000000000000000000d8
:202603000000000000000000000000000000000000000000000000000000000000000000b7
:20262300000000000000000000000010000000000000000000000000000000000000000087
:0d264300000000000000000000000000008a
:202650008002000000000000000000000000000000000000000000000000000000000000e8
:2026700000000000000000000000000000000000000000000000000000000000000000004a
:2026900000000000000000000000000000000000000000000000000000000000000000002a
:0d26b000000000000000000000000000001d
:2026bd000000000000000000000000000000000000000000000000000000000000000000fd
:2026dd000000000000000000000000000000000000000000000000000000000000000000dd
:2026fd000000000000000000000000000000000000000000000000000000000000000000bd
:0d271d0000000000000000000000000000af
:20272a0000000000000000000000000000000000000000000000000000000000000000008f
:20274a0000000000000000000000000000000000000000000000000000000000000000006f
:20276a0000000000000000000000000000000000000000000000000000000000000000004f
:0d278a000000000000000000000000000042
:20279700000000000000000000000000000000000000000000000000000000000000000022
:2027b700000000000000000000000000000000000000000000000000000000000000000002
:2027d7000000000000000000000000000000000000000000000000000000000000000000e2
:0d27f70000000000000000000000000000d5
:20280400800000000000000000000000000000000000000000000000000000000000000034
:20282400000000000000000000000000000000000000000000000000000000000000000094
:20284400000000000000000000000000000000000000000000000000000000000000000074
:0d2864000000000000000000000000000067
:20287100000000000000000000000000000000000000000000000000000000000000000047
:20289100000000000000000000000000000000000000000000000000000000000000000027
:2028b100000000000000000000000000000000000000000000000000000000000000000007
:0d28d10000000000000000000000000000fa
:2028de000000000000000000000000000000000000000000000000000000000000000000da
:2028fe000000000000000000000000000000000000000000000000000000000000000000ba
:20291e00000000000000000000000000000000000000000000000000000000000000000099
:0d293e00000000000000000000000000008c
:20294b0000000000000000000000000000000000000000000000000000000000000000006c
:20296b0000000000000000000000000000000000000000000000000000000000000000004c
:20298b0000000000000000000000000000000000000000000000000000000000000000002c
:0d29ab00000000000000000000000000001f
:2029b8000002000000000000000000000000000000000000000000000000000000000000fd
:2029d8000000000000000000000000000000000000000000000000000000000000000000df
:2029f8000000000000000000000000000000000000000000000000000000000000000000bf
:0d2a180000000000000000000000000000b1
:202a2500000000000000000000000000000000000000000000000000000000000000000091
:202a4500000000000000000000000000000000000000000000000000000000000000000071
:202a6500000000000000000000000000000000000000000000000000000000000000000051
:0d2a85000000000000000000000000000044
:202a92008000000000000000000000000000000000000000000000000000000000000000a4
:202ab200000000000000000000000000000000000000000000000000000000000000000004
:202ad2000000000000000000000000000000000000000000000000000000000000000000e4
:0d2af20000000000000000000000000000d7
:202aff000000000000000000000000000000000000000000000000000000000000000000b7
:202b1f00000000000000000000000000000000000000000000000000000000000000000096
:202b3f00000000000000000000000000000000000000000000000000000000000000000076
:0d2b5f000000000000000000000000000069
:202b6c008000000000000000000000000000000000000000000001000000000000000000c8
:202b8c00000000001000000000000000000000000000000000000000000000000000000019
:202bac00000000000000000000000000000000000000000000000000000000000000000009
:0d2bcc0000000000000000000000000000fc
:202bd9000003000000000000000000000000000000000000000000000000000000000000d9
:202bf9000000000000000000000000000000000000000000000000000000000000000000bc
:202c190000000000000000000000000000000000000000000000000000000000000000009b
:0d2c3900000000000000000000000000008e
:202c460000000000000000000000000000000000000000000000000000000000000000006e
:202c660000000000000000000000000000000000000000000000000000000000000000004e
:202c860000000000000000000000000000000000000000000000000000000000000000002e
:0d2ca6000000000000001000000000000011
:202cb300000000000000000000000000000000000000000000000000000000000000000001
:202cd3000000000000000000000000000000000000010000000000000000000000000000e0
:202cf3000000000000000000000000000000000000000000000000000000000000000000c1
:0d2d130000000000000000000000000000b3
:202d2000800200000000000000000000000000000000000000000000000000000000000011
:202d4000000000000000000000000000000000000000000000000000000000000000000073
:202d6000000000000000000000000000000000000000000000000000000000000000000053
:0d2d80000000000000000000000000000046
:202d8d00000000000000000000000000000000000000000000000000000000000000000026
:202dad00000000000000000000000000000000000000000000000000000000000000000006
:202dcd000000000000000000000000000010000000000000000000000000000000000000d6
:0d2ded0000040000000000000000000000d5
:202dfa000000000000000000000000000000000000000000000000000000000000000000b9
:202e1a00000000000000000000000000000000000000000000000000000000000000000098
:202e3a00000000000000000000000000000000000000000000000000000000000000000078
:0d2e5a00000000000000000000000000006b
:202e670000000000000000000000000000000000000000000000000000000000000000004b
:202e870000000000000000000000000000000000000000000000000000000000000000002b
:202ea70000000000000000000000000000000000000000000000000000000000000000000b
:0d2ec70000000000000000000000000000fe
:202ed40080000000000000000000000000000000000000000000000000000000000000005e
:202ef4000000000000000000000000000000000000000000000000000000000000000000be
:202f140000000000000000000000000000000000000000000000000000000000000000009d
:0d2f34000000000000000000000000000090
:202f4100000000000000000000000000000000000000000000000000000000000000000070
:202f6100000000000000000000000000000000000000000000000000000000000000000050
:202f8100000000000000000000000000000000000000000000000000000000000000000030
:0d2fa1000000000000000000000000000023
:202fae00000000000000000000000000000000000000000000000000000000000000000003
:202fce000000000000000000000000000000000000000000000000000000000000000000e3
:202fee000000000000000000000000000000000000000000000000000000000000000000c3
:0d300e0000000000000000000000000000b5
:20301b00000000000000000000000000000000000000000000000000000000000000000095
:20303b00000000000000000000000000000000000000000000000000000000000000000075
:20305b00000000000000000000000000000000000000000000000000000000000000000055
:0d307b000000000000000800000000000040
:203088000000000000000000000000000000000000000000000000400000000000000000e8
:2030a800000000000000000000000000000000000000000000000000000000000000000008
:2030c8000000000000000000000000000000000000000000000000000000000000000000e8
:0d30e80000000000000000000000000000db
:2030f5000000000000000000000000000000000000000000000000000000000000000000bb
:2031150000000000000000000000000000000000000040000000000000000000000000005a
:2031350000000000000000000000000000000000000000000000000000000000000000007a
:0d315500000000000000000000000000006d
:2031620000000000000000000000000000000000000000000000000000000000000000004d
:203182000000000000000000000000000000000000008000000000000100000000000000ac
:2031a20000000000000000000000000000000000000000000000000000000000000000000d
:0d31c2000000000000000000000000000000
:2031cf000000000000000000000000000000000000000000000000000000000000000000e0
:2031ef000000000000000000000000000000000000000000000000000000801688000000a2
:20320f0000000000000000000000000000000000000000000000000000000000000000009f
:0d322f000000000000000000000000000092
:20323c00000000000000000000000000000000000000000000000000000000000000000072
:20325c000000000000000000000000000000000000000000000000000000102940000000d9
:20327c00000000000000000000000000000000000000000000000000000000000000000032
:0d329c000004000000000000000000000021
:2032a900000000000000000000000000000000000000000000000000000000000000000005
:2032c9000000000000000000000000000000000000000000000003000000000000000000e2
:2032e9000000000000000000000000000000000000000000000000000000000000000000c5
:0d33090000000000000000000000000000b7
:20331600000000000000000000000000000000000000000000000000000000000000000097
:20333600000000000000000000000000000000000000000000000100000000000000000076
:20335600000000000000000000000000000000000000000000000000000000000000000057
:0d337600000000000000000000000000004a
:2033830000000000000000000000000000000000000000000000000000000000000000002a
:2033a30000000000000000000000000000000000000000000000000000000000000000000a
:20389f000000000000000000001000000000000000000000000000000000000000000000f9
:2038bf000000000000000000000000000000000000000000000000000000000000000000e9
:2038df000000000000000000000000000000000000000000000000000000000000000000c9
:0d38ff0000000000000000000000000000bc
:20390c0000000000000000000000000000000000000000000000000000000000000000009b
:20392c0000000000000000000000000000000000000000000000000000000000000000007b
:20394c0000000000000000000000000000000000000000000000000000000000000000005b
:0d396c00000000000000000000000000004e
:2039790000000000000000000000000000000000000000000000000000000000000000002e
:2039990000000000000000000000000000000000000000000000000000000000000000000e
:2039b9000000000000000000000000000000000000000000000000000000000000000000ee
:0d39d90000000000000000000000000000e1
:2039e6000000000000000000000000000000000000000000000000000000000000000000c1
:203a06000000000000000000000000000000000000000000000000000000000000000000a0
:203a2600000000000000000000000000000000000000000000000000000000000000000080
:0d3a4600080000000000000000000000006b
:203a5300000000000000000000000000000000000000000000000000000000000000000053
:203a7300000000000000000000000000000000000000000000000000000000000000000033
:203a9300000000000000000000000000000000000000000000000000000000000000000013
:0d3ab3000000000000000000000000000006
:203ac0000000000000000000000000000000000000000000000000000000000000000000e6
:203ae0000000000000000000000000000000000000000000000000000000000000000000c6
:203b00000000000000000000000000000000000000000000000000000000000000000000a5
:0d3b20000000000000000000000000000098
:203b2d00000000000000000000000000000000000000000000000000000000000000000078
:203b4d00000000000000000000000000000000000000000000000000000000000000000058
:203b6d00000000000000000000000000000000000000000000000000000000000000000038
:0d3b8d00000000000000000000000000002b
:203b9a0000000000000000000000000000000000000000000000000000000000000000000b
:203bba000000000000000000000000000000000000000000000000000000000000000000eb
:203bda000000000000000000000000000000000000000000000000000000000000000000cb
:0d3bfa0000000000000000000000000000be
:203c070000000000000000000000000000000000000000000000000000000000000000009d
:203c270000000000000000000000000000000000000000000000000000000000000000007d
:203c470000000000000000000000002000000000000000000000000000000000000000003d
:0d3c67000000000000000000000000000050
:203c7400000000000000000000000000000000000000000000000000000000000000000030
:203c9400000000000000000000000000000000000000000000000000000000000000000010
:203cb4000000000000000000000000000000000000000000000000000000000000000000f0
:0d3cd40000000000000000000000000000e3
:203ce1000000000000000000000000000000000000000000000000000000000000000000c3
:203d01000000000000000000000000000000000000000000000000000000000000000000a2
:203d2100000000000000000000000000000000000000000000000000000000000000000082
:0d3d41000000000000000000000000000075
:203d4e00000000000000000000000000000000000000000000000000000000000000000055
:203d6e00000000000000000000000000000000000000000000000004000000000000000031
:203d8e00000000000000000000000000000000000000000000000000000000000000000015
:0d3dae000000000000000000000000000008
:203dbb000000000000000000000000000000000000000000000000000000000000000000e8
:203ddb000000000000000000000000000000000000000000000000000000000000000000c8
:203dfb000000000000000000000000000000000000000000000000000000000000000000a8
:0d3e1b00000000000000000000000000009a
:203e280000000000000000000000000000000000000000000000000000000000000000007a
:203e480000000000000000000000000000000000000000000000000000000000000000005a
:203e680000000000000000000000000000000000000000000000000000000000000000003a
:0d3e88000000b0000000000000000000007d
:203e950000000000000000000000000000000000000000000000000000000000000000000d
:203eb5000000000000000000000000000000000000000000000000000000000000000000ed
:203ed500000000000000000000000000000000000000000000000000000000000000003895
:0d3ef5000000097a950400000000000000a4
:203f020000000000000000000000000000000000000000000000000000000000000000009f
:203f220000000000000000000000000000000000000000000000000000000000000000007f
:203f420000000000000000000000000000000000000000000000000000000000000000005f
:0d3f6200000003828000000000000000004d
:203f6f00000000000000000000000000000000000000000000000000000000000000000032
:203f8f00000000000000000000000000000000000000000000000000000000000000000012
:203faf000000000000000000000000000000000000000000000000000000000000000030c2
:0d3fcf0000000000000000000000000000e5
:203fdc000000000000000000000000000000000000000000000000000000000000000000c5
:203ffc000000000000000000000000000000000000000000000000000000000000000000a5
:20401c00000000000000000000000000000000000000000000000000000000000000001074
:0d403c000000000000000000000000000077
:20404900000000000000000000000000000000000000000000000000000000000000000057
:20406900000000000000000000000000000000000000000000000000000000000000000037
:20408900000000000000000000000000000000000000000000000000000000000000000017
:0d40a900000000000000000000000000000a
:2040b6000000000000000000000000000000000000000000000000000000000000000000ea
:2040d6000000000000000000000000000000000000000000000000000000000000000000ca
:2040f6000000000000000000000000000000000000000000000000000000000000000000aa
:0d411600000000000000000000000000009c
:2041230000000000000000000000000000000000000000000000000000000000000000007c
:2041430000000000000000000000000000000000000000000000000000000000000000005c
:2041630000000000000000000000000000000000000000000000000000000000000000003c
:0d418300000010000000000000000000001f
:2041900000000000000000000000000000000000000000000000000000000000000000000f
:2041b0000000000000000000000000000000000000000000000000000000000000000000ef
:2041d0000000000000000000000000000000000000000000000000000000000000000000cf
:0d41f0000000c00000000000000000000002
:2041fd000000000000000000000000000000000000000000000000000000000000000000a2
:20421d00000000000000000000000000000000000000000000000000000000000000000081
:20423d00000000000000000000000000000000000000000000000000001000000000000051
:0d425d000030000000000000000000000024
:20426a00000000000000000000000000000000000000000000000000000000000000000034
:20428a00000000000000000000000000000000000000000000000000000000000000000014
:2042aa000000000000000000000000000000000000000000000000000000000000000000f4
:0d42ca0038080000000000000000000000a7
:2042d7000000000000000000000000000000000000000000000000000000000000000000c7
:2042f7000000000000000000000000000000000000000000000000000000000000000000a7
:20431700000000000000000000000000000000000000000000000000000000000000000086
:0d4337000000000000000000000000000079
:20434400000000000000000000000000000000000000000000000000000000000000000059
:20436400000000000000000000000000000000000000000000000000000000000000000039
:204384000000000000400000000000010000000000000400000000000010000000000000c4
:0d43a40040000000000001001000000000bb
:2043b1000000000000000000000000000000000000000000000000000000000000000000ec
:2043d1000000000000000000000000000000000000000000000000000000000000000000cc
:2043f10000000000000000000000000000000000000000000000000000000000000000327a
:0d44110080300000000000000000000000ee
:20441e0000000000000000000000000000000000000000000000000000000000000000007e
:20443e0000000000000000000000000000000000000000000000000000000000000000005e
:20445e000000000000400000000000010000000000000400000000000010000000000001e8
:0d447e0040000000000001001000000000e0
:20448b00000000000000000000000000000000000000000000000000000000000000000011
:2044ab000000000000000000000000000000000000000000000000000000000000000000f1
:2044cb000000000000000000000000000000000000000000000000000000000000000000d1
:0d44eb000000a00000000000000000000024
:2044f8000000000000000000000000000000000000000000000000000000000000000000a4
:20451800000000000000000000000000000000000000000000000000000000000000000083
:20453800000000000000000000000000000000000000000000000000000000000000000063
:0d455800000100000000000002c000000093
:20456500000000000000000000000000000000000000000000000000000000000000000036
:20458500000000000000000000000000000000000000000000000000000000000000000016
:2045a5000000000000000000000000000000000000000000000000000000000000000000f6
:0d45c500000000000000e0014067ea550022
:2045d2000000000000000000000000000000000000000000000000000000000000000000c9
:2045f2000000000000000000000000000000000000000000000000000000000000000000a9
:20461200000000000000000000000000000000000000000000000000000000000000000088
:0d46320000000000000000002387050000cc
:20463f0000000000000000000000000000000000000000000000000000000000000000005b
:20465f0000000000000000000000000000000000000000000000000000000000000000003b
:20467f0000000000000000000000000000000000000000000000000000000000000000001b
:0d469f0000000f22ac0040000000000000f1
:2046ac000000000000000000000000000000000000000000000000000000000000000000ee
:2046cc000000000000000000000000000000000000000000000000000000000000000000ce
:2046ec000000000000000000000000000000000000000000000000000000000000000002ac
:0d470c000000037c2c0040000000000000b5
:20471900000000000000000000000000000000000000000000000000000000000000000080
:20473900000000000000000000000000000000000000000000000000000000000000000060
:20475900000000000000000000000000000000000000000000000000000000000000000040
:0d4779000000000000000000000000000033
:20478600000000000000000000000000000000000000000000000000000000000000000013
:2047a6000000000000000000000000000000000000000000000000000000000000000000f3
:2047c6000000000000000000000000000000000000000000000000000000000000000000d3
:0d47e60000000000000000000000000000c6
:2047f3000000000000000000000000000000000000000000000000000000000000000000a6
:20481300000000000000000000000000000000000000000000000000000000000000000085
:20483300000000000000000000000000000000000000000000000000000000000000000065
:0d4853000800000000000000000000000050
:20486000000000000000000000000000000000000000000000000000000000000000000038
:20488000000000000000000000000000000000000000000000000000000000000000000018
:2048a0000000000000000000000000000000000000000000000000000000000000000000f8
:0d48c00000000000000000000000000000eb
:2048cd000000000000000000000000000000000000000000000000000000000000000000cb
:2048ed000000000000000000000000000000000000000000000000000000000000000000ab
:20490d0000000000000000000000000000000000000000000000000000000000000000008a
:0d492d0000800000000000000000000000fd
:20493a0000000000000000000000000000000000000000000000000000000000000000005d
:20495a0000000000000000000000000000000000000000000000000000000000000000003d
:20497a0000000000000000000000000000000000000000000000000000000000000000001d
:0d499a0000300000000000000000000000e0
:2049a7000000000000000000000000000000000000000000000000000000000000000000f0
:2049c7000000000000000000000000000000000000000000000000000000000000000000d0
:2049e7000000000000000000000000000000000000000000000000000000000000000000b0
:0d4a07000001c000000000000000000000e1
:204a1400000000000000000000000000000000000000000000000000000000000000000082
:204a3400000000000000000000000000000000000000000000000000000000000000000062
:204a5400000000000000000000000000000000000000000000000000000000000000000042
:0d4a74000110000000000000000000000024
:204a8100000000000000000000000000000000000000000000000000000000000000000015
:204aa1000000000000000000000000000000000000000000000000000000000000000000f5
:204ac1000000000000000000000000000000000000000000000000000000000000000000d5
:0d4ae100000000000000c000070000000001
:204aee000000000000000000000000000000000000000000000000000000000000000000a8
:204b0e00000000000000000000000000000000000000000000000000000000000000000087
:204b2e00000000000000000000000000000000000000000000000000000000000000000067
:0d4b4e00000000000000000000000000005a
:204b5b0000000000000000000000000000000000000000000000000000000000000000003a
:204b7b0000000000000000000000000000000000000000000000000000000000000000001a
:204b9b000000000008000000000000000000000000000000000000000000000400000000ee
:0d4bbb0004000000000002000200000000e5
:204bc80080020000000000000000000000000000000000000000000000000000000000004b
:204be8000000000000000000000000000000000000000000000000000000000000000000ad
:204c08000000000000000000000000000000000000000000000000000000003c000000024e
:0d4c2800000000000000000000000000007f
:204c350000000000000000000000000000000000000000000000000000000000000000005f
:204c550000000000000000000000000000000000000000000000000000000000000000003f
:204c75000000000000000000000000000000000000000000000000000e0000000000000011
:0d4c950000500000000000000000000000c2
:204ca200800000000000000000000000000000000000000000000000000000000000000072
:204cc2000000000000000000000000000000000000000000000000000000000000000000d2
:204ce2000000000000000000000000000000000000000000000000000000000000000000b2
:0d4d0200000800000000000040000000005c
:204d0f00000000000000000000000000000000000000000000000000000000000000000084
:204d2f00000000000000000000000040000000000000000000000000000000000000000024
:204d4f00000000000000000000000000000000000000000000000000040000000000000040
:0d4d6f0000000000000000040020cf5300f1
:204d7c00000000000000000000000000000000000000000000000000000000000000000017
:204d9c000000000010000000000000400000000000000000000000000000000000000000a7
:204dbc000000000000000000000000000000000000000000000000000400000000000000d3
:0d4ddc00000000000000000000050fa10015
:204de9000003000000000000000000000000000000000000000000000000000000000000a7
:204e0900000000000000000000000000000000000000000000000000000000000000000089
:204e2900000000000000000000000000000000000000000000000000000000000000000069
:0d4e490000000b30f80040014000000000a8
:204e560000000000000000000000000000000000000000000000000000000000000000003c
:204e760000000000000000000000000000000000000000000000000000000000000000001c
:204e960000000000000000000000000000000000000000800000000000000000000000007c
:0d4eb6000000017498004000200000000082
:204ec3000000000000000000000000000000000000000000000000000000000000000000cf
:204ee3000000000000000000000000000000000000000000000000000000000000000000af
:204f030000000000000000000000000000000000000000000000000000000000000000048a
:0d4f23001000e0000000000003800000000e
:204f30008002000000000000000000000000000000000000000000000000000000000000df
:204f5000000000000000000000000000000000000000000000000000000000000000000041
:204f7000000000000000000000000000000000000000000000000000000000000000000021
:0d4f900000f0b00000000000000000000074
:204f9d000000000000000000000000000000000000000000000000000000000000000000f4
:204fbd000000000000000000000000000000000000000000000000000000000000000000d4
:204fdd0000000000000000000000000000000000000028000000000000000020000000006c
:0d4ffd0000000000000000000337e8a000e5
:20500a00000000000000000000000000000000000000000000000000000000000000000086
:20502a00000000000000000000000000000000000000000000000000000000000000000066
:20504a000000000000000000000000000000000000001000000000000000006c00000000ca
:0d506a000000000000000000002c9da000d0
:20507700000000000000000000000000000000000000000000000000000000000000000019
:205097000000000000000000000000000000000000000000000000000000000000020000f7
:2050b7000000000000000000000000000000000000000000000000000000000000000000d9
:0d50d70000000000000000000000000000cc
:2050e40080000000000000000000000000000000000000000000000000000000000000002c
:2051040000000000000000000000000000000000000000000000000000000000000000008b
:2051240000000000000000000000000000000000000000000000000000000000000000006b
:0d514400000000000000000000000000005e
:2051510000000000000000000000000000000000000000000000000000000000000000003e
:2051710000000000000000000000000000000000000000000000000000000000000000001e
:205191000000000000000000000000000000000000000000000000000c000022fea55000dd
:0d51b1000000000000000001e00000000010
:2051be000000000000000000000000000000000000000000000000000000000000000000d1
:2051de000000000000000000000000000000000000000000000000000000000000000000b1
:2051fe0000000000000000000000000000000000000000000000000000020042f0a00000bd
:0d521e000000000000000000000000000083
:20522b00000000000000000000000000000000000000000000000000000000000000000063
:20524b000000000000000000000000000000000000000000000000000000000000000080c3
:20526b0000000000000000000000000000000000000000050000000000000000000000001e
:0d528b000200100000000000000000000004
:205298000002000000000000000000000000000000000000000000000000000000000000f4
:2052b8000000000000000000000000000000000000000000000000000000000000000000d6
:2052d800000000000000000000000000000000000000000080000000000000000000000036
:0d52f8000000e000000000000000000000c9
:20530500000000000000000000000000000000000000000000000000000000000000000088
:20532500000000000000000000000000000000000000000000000000000000000000000068
:205345000000000000000000000000000000000000000000000000000e0000000000003802
:0d536500000000000000000000000000003b
:2053720080000000000000000000000000000000000000000000000000000000000000009b
:205392000000000000000000000000000000000000000000000000000000000000000000fb
:2053b2000000000000000000000000000000000000000000000000000000000000000000db
:0d53d200007000000000000000000000005e
:2053df000000000000000000000000000000000000000000000000000000000000000000ae
:2053ff0000000000000000000000000000000000000000000000000000000000000000008e
:20541f00000000000000000000000000000000000000000000000000040000381cf04012d3
:0d543f0080000000000000000000000000e0
:20544c008000000000000000000000000000000000000000000001000000000000000000bf
:20546c00000000001000000000000000000000000000000000000000000000000000000010
:20548c000000000000000000000000000000000000000000000000000c00000010f00013e1
:0d54ac0000000000000000000000000000f3
:2054b9000003000000000000000000000000000000000000000000000000000000000000d0
:2054d9000000000000000000000000000000000000000000000000000000000000000000b3
:2054f900000000000000000000000000000000000000000000000000000000000000000093
:0d5519000000000000000000000000000085
:20552600000000000000000000000000000000000000000000000000000000000000000065
:20554600000000000000000000000000000000000000000000000000000000000000000045
:20556600000000000000000000000000000000000000000000000000000000000000000025
:0d5586000000000000000000000000000018
:205593000000000000000000000000000000000000000000000000000000000000000000f8
:2055b3000000000000000000000000000000000000000000000000000000000000000000d8
:2055d300000000000000000000000020000000000000000708000000000000000000000089
:0d55f30000000000000000000000000000ab
:20560000800200000000000000000000000000000000000000000000000000000000000008
:2056200000000000000000000000000000000000000000000000000000000000000000006a
:2056400000000000000000000000000000000000000000001000000000000000000000003a
:0d56600000000000000000600000000000dd
:20566d0000000000000000000000000000000000000000000000000000000000000000001d
:20568d000000000000000000000000000000000000000000000000000000000000000000fd
:2056ad0000000000000000000000000000c020e0a00800001f770f80000000300000000020
:0d56cd0000000063c100000043eef3e000a8
:2056da000000000000000000000000000000000000000000000000000000000000000000b0
:2056fa00000000000000000000000000000000000000000000000000000000000000000090
:20571a0000000000000000000000000000000d00500000000a1f49800000004000000000e0
:0d573a0000000003c0000000228ed190008e
:20574700000000000000000000000000000000000000000000000000000000000000000042
:20576700000000000000000000000000000000000000000000000000000000000000000022
:2057870000000000000000000000000000020000000000000e372f00800400000ef04000ca
:0d57a70000000000000000094000000000ac
:2057b400800000000000000000000000000000000000000000000000000000000000000055
:2057d4000000000000000000000000000000000000000000000000000000000000000000b5
:2057f400000000000000000000000000000400000000000000f419000000002010f0000064
:0d581400000000000000080000000000007f
:20582100000000000000000000000000000000000000000000000000000000000000000067
:20584100000000000000000000000000000000000000000000000000000000000000000047
:205861000000000000000000000000000000000000000000000000000c00000000000030eb
:0d588100000000000000000000000000001a
:20588e000000000000000000000000000000000000000000000000000000000000000000fa
:2058ae000000000000000000000000000000000000000000000000000000000000000000da
:2058ce000000000000000000000000000000000000000000000000000000000000000000ba
:0d58ee0000000000000000000000000000ad
:2058fb0000000000000000000000000000000000000000000000000000000000000000008d
:20591b0000000000000000000000000000000000000000000000000000000000000000006c
:20593b0000000000000000000000000000000000000000000000000000000001c8f0c000d3
:0d595b000000a0000000000000000000009f
:2059680000000000000000000000000000000000000000000000000000000000000000001f
:205988000000000000000000000000000000000000000000000000000000000000000000ff
:2059a80000000000000000000000000000000000000000000000000000000000000f42008e
:0d59c80000010000000000000000000000d1
:2059d5000000000000000000000000000000000000000000000000000000000000000000b2
:2059f500000000000000000000000000000000000000000000000000000000000000000092
:205a150000000000000000000000000000000000000380000007bc100a000001c8f0c00098
:0d5a350000500f29280100000000000000b3
:205a4200000000000000000000000000000000000000000000000000000000000000000044
:205a6200000000000000000000000000000000000000000000000000000000000000000024
:205a8200000000000000000000000000000000000000000000003c0008000000000f400071
:0d5aa200000801246000000000000000006a
:205aaf000000000000000000000000000000000000000000000000000000000000000000d7
:205acf000000000000000000000000000000000000000000000000000000000000000000b7
:205aef000000000000000000000000000000000000030000000000000000006548f0c00037
:0d5b0f00005001a008000000000000000090
:205b1c00000000000000000000000000000000000000000000000000000000000000000069
:205b3c00000000000000000000000000000000000000000000000000000000000000000049
:205b5c0000000000000000000000000000000000000300000000000000000020200f400097
:0d5b7c0000080768000400000000000000a1
:205b89000000000000000000000000000000000000000000000000000000000000000000fc
:205ba9000000000000000000000000000000000000000000000000000000000000000000dc
:205bc9000000000000000000000000000000000000000000000000000000066548f0e00039
:0d5be90000000000000000000000000000af
:205bf60000000000000000000000000000000000000000000000000000000000000000008f
:205c160000000000000000000000000000000000000000000000000000000000000000006e
:205c360000000000000000000000000000000000000000000000000000000020200f4000bf
:0d5c56000000000000000000000000000041
:205c6300000000000000000000000000000000000000000000000000000000000000000021
:205c8300000000000000000000000000000000000000000000000000000000000000000001
:205ca30000000000000000000000000000000000000000000000000000000001e8f0c00048
:0d5cc30000000000000000000000000000d4
:205cd0000000000000000000000000000000000000000000000000000000000000000000b4
:205cf000000000000000000000000000000000000000000000000000000000000000000094
:205d100000000000000000000000000000000000000000000000000000400000000f4000e4
:0d5d30000100000000000000000000000065
:205d3d00000000000000000000000000000000000000000000000000000000000000000046
:205d5d00000000000000000000000000000000000000000000000000000000000000000026
:205d7d000000000000000000000000000000000000000000000000000000000168f0c000ed
:0d5d9d0000000000000000000000000000f9
:205daa000000000000000000000000000000000000000000000000000000000000000000d9
:205dca000000000000000000000000000000000000000000000000000000000000000000b9
:205dea0000000000000000000000000000000000000000000000000000002400000f400026
:0d5e0a00000000000000000000000000008b
:205e170000000000000000000000000000000000000000000000000000000000000000006b
:205e370000000000000000000000000000000000000000000000000000000000000000004b
:205e570000000000000000000000000000000000000000001e0000000000260168f0c000ce
:0d5e770000500000000000000000000000ce
:205e84000000000000000000000000000000000000000000000000000000000000000000fe
:205ea4000000000000000000000000000000000000000000000000000000000000000000de
:205ec40000000000000000000000000000000000000000000000000000000400200f40004b
:0d5ee40000080000000000000000000000a9
:205ef100000000000000000000000000000000000000000000000000000000000000000091
:205f1100000000000000000000000000000000000000000000000000000000000000000070
:205f31000000000000000000000000000000000000030001000000000c0020016855400022
:0d5f51000000000000000000000000000043
:205f5e00000000000000000000000000000000000000000000000000000000000000000023
:205f7e00000000000000000000000000000000000000000000000000000000000000000003
:205f9e00000000000000000000000000000000000000000000000000040004002055410025
:0d5fbe0005000000000000000000000000d1
:205fcb000000000000000000000000000000000000000000000000000000000000000000b6
:205feb00000000000000000000000000000000000000000000000000000000000000000096
:20600b0000000000000000000000000000000000000000001800000000001401eec000009a
:0d602b00005000328000000002bec00000e6
:20603800000000000000000000000000000000000000000000000000000000000000000048
:20605800000000000000000000000000000000000000000000000000000000000000000028
:2060780000000000000000b000000000000200000000000000000000000004286fc20000f9
:0d60980000d80f4140000000041e00a010c1
:2060a5000000000000000000000000000000000000000000000000000000000000000000db
:2060c5000000000000000000000000000000000000000000000000000000000000000000bb
:2060e500000000003800000733c140e000001e85a4038000000000000e0000020eb842382e
:0d6105000018b9bae12c00000000000000f5
:2061120000000000000000000000000000000000000000000000000000000000000000006d
:2061320000000000000000000000000000000000000000000000000000000000000000004d
:20615200000000000000000703d6000000000dea40000000000000000000142b4074010022
:0d61720000d18f81402500000000000000da
:20617f00000000000000000000000000000000000000000000000000000000000000000000
:20619f000000000000000000000000000000000000000000000000000000000000000000e0
:2061bf00000000000000000000000000000000000000000000172000000000004b7e0000c0
:0d61df0000718172940000000000000000bb
:2061ec00000000000000000000000000000000000000000000000000000000000000000093
:20620c00000000000000000000000000000000000000000000000000000000000000000072
:20622c00000000000000000000000000000000000000000000ff400000001402483d080070
:0d624c0000080f6bdc0000000000000000e7
:20625900000000000000000000000000000000000000000000000000000000000000000025
:20627900000000000000000000000000000000000000000000000000000000000000000005
:20629900000000000000000000000000000000000000000000033c10000014007a0a0000fe
:0d62b9000050082ae1e9000000000000008c
:2062c6000000000000000000000000000000000000000000000000000000000000000000b8
:2062e600000000000000000000000000000000000000000000000000000000000000000098
:20630600000000000000000000000000000000000000000000043c204000002c200a080079
:0d63260000089f41d00400000000000000ae
:2063330000000000000000000000000000000000000000000000000000000000000000004a
:2063530000000000000000000000000000000000000000000000000000000000000000002a
:2063730000000000000880000000000001400000000000000000000000000071fca0000034
:0d6393000081e07814000001c0000000004f
:2063a0000000000000000000000000000000000000000000000000000000000000000000dd
:2063c0000000000000000000000000000000000000000000000000000000000000000000bd
:2063e000000000000000b0000000000000000000000000000d0000000000804040f00000f0
:0d64000000310f0028000000000000000027
:20640d0000000000000000000000000000000000000000000000000000000000000000006f
:20642d0000000000000000000000000000000000000000000000000000000000000000004f
:20644d0000000000000000117029000000000000000040000e00000000001401fca502007f
:0d646d000000a93f6d820402000000000045
:20647a00000000000000000000000000000000000000000000000000000000000000000002
:20649a000000000000000000000000000000000000000000000000000000000000000000e2
:2064ba0000000000000000d0c028010000000000000000001000000000001402e0a1000062
:0d64da0000000f611c240202c00000000041
:2064e700000000000000000000000000000000000000000000000000000000000000000095
:20650700000000000000000000000000000000000000000000000000000000000000000074
:2065270000000000000018000000000002000000000000001c0000000000062000000000f8
:0d6547000018e5e2800000000024d0800074
:20655400000000000000000000000000000000000000000000000000000000000000000027
:20657400000000000000000000000000000000000000000000000000000000000000000007
:2065940000000000000050000000000002c0000000000000100000000000944000000000f1
:0d65b400000003c000000000001ec1020036
:2065c1000000040000000000000000000000000000000000000000000000000000000000b6
:2065e10000000000100000000000000000000000000000000000000000000000000000008a
:206601000000000030000000000000c000e0000000030000000000000000142a5ea000006a
:0d662100000005e280000001c00000000044
:20662e00000004000000000000000000000000000000000000000000000000000000000048
:20664e0000000000100000000000000000000000000000000000000000000000000000001c
:20666e0000000000000000000000000000200000000000000000000000002429c00000409f
:0d668e000070b0028000000002c00000009b
:20669b000000000000000000000000000000000000000000000000000000000000000000df
:2066bb000000000000000000000000000000000000000000000000000000000000000000bf
:2066db00000000000000500d65f8000000005faa0008000500000000000000606d1d4000a5
:0d66fb0000000bf2bc000022006eddf40078
:20670800000000000000000000000000000000000000000000000000000000000000000071
:20672800000000000000000000000000000000000000000000000000000000000000000051
:20674800000000000000d8b57cb80000000256000010000d800000000000003cea1a00003b
:0d6768000000bf83fc0000004204ddb00013
:20677500000000000000000000000000000000000000000000000000000000000000000004
:206795000000000000000000000000000000000000000000000000000000000000000001e3
:2067b500000000003800d0a1b0b188e0006075c08020005000b383400e0034686da5003863
:0d67d500001011f00400e0a06044a00400da
:2067e200000000000000000000000000000000000000000000000000000000000000000097
:20680200000000000000000000000000000000000000000000000000000000000000000076
:20682200000000000000190d41f0000000029e00c00000010b5a03c0000a1c66cde50040f8
:0d68420000508b680000000242140050005e
:20684f000000000000000000000000000000000040000000000000000000000000000000e9
:20686f000000000000000000000000400000000000010000000000000000000000000000c8
:20688f000000000004000019f468000003462cee44280000000000000002c0001cf30200ce
:0d68af000078b5e3d0000001d017c0540000
:2068bc000000000000000000000000000000000000000000000000000000000000000000bc
:2068dc0000000000000000000000000000000000000000000000000000000000000000009c
:2068fc00000000000000b0f53e9400000040250fc00000000b00000000017c0000f3000056
:0d691c0000d9e92fc0000008602705f00039
:2069290000000000000000000000000000000000000000000000000000000000000000004e
:2069490000000000000000000000000000000000000000000000000000000000000000002e
:2069690000000000000050012000000000000ce8000100000000000000000e60de1002004a
:0d698900008009abcc080003603c85a00035
:206996000000000000000000000000000000000000000000000000000000000000000000e1
:2069b6000000000000000000000000000000000000000000000000000000000000000000c1
:2069d60000000000000000036004000003400ee0000100030000000000000041f0000000d4
:0d69f60000500383dc00000142850af00020
:206a0300000000000000000000000000000000000000000000000000000000000000000073
:206a2300000000000000000000000000000000000000000000000000000000000000000053
:206a4300000000000000101fe091080000e01ea3442000000072828000403c63caf0001069
:0d6a63000059b078510a2001e03da002204a
:206a7000000000000000000000000000000000000000000000000000000000000000000006
:206a90000000000000000000000000000000000000000000000000000000000000000000e6
:206ab000000000000000088540d000000022c00340000000080c02801020066b49f800107c
:0d6ad0000000db00a00000034014004000a7
:206add00000000000000000000000000000000000000000000000000000000000000000099
:206afd00000000000000000000000000000000000000000000000000000000000000000079
:206b1d00000000000000500000000000000034907410005000163d0080001628ce0102008e
:0d6b3d000150a72109800001c727ea56007a
:206b4a0000000000000000000000000000000000000000000000000000000000000000002b
:206b6a0000000000000000000000000000000000000000000000000000000000000000000b
:206b8a0000000000000000000000000003401f801000002000743c000000004030010000b8
:0d6baa000200a5ec4880000027c70fa000e6
:206bb7000000000000000000000000000000000000000000000000000000000000000000be
:206bd70000000000000000000000000000000000000000000000000000000000000000009e
:206bf7000000000000000005601400000140400000000009818039c08040002a68f5020038
:0d6c170000019b3bfc040000629d8000001a
:206c2400000000000000000000000000000000000000000000000000000000000000000050
:206c4400000000000000000000000000000000000000000000000000000000000000000030
:206c6400000000000000000000140000036200000000000b8f1036c04020140250f700003a
:0d6c84000000a743d400000346cef04000fe
:206c91000000000000000000000000000000000000000000000000000000000000000000e3
:206cb1000000000000000000000000000000000000000000000000000000000000000000c3
:206cd10000000000300080a0000000c00200000000000000000000000c000068000000001d
:0d6cf10000d9b8009008c0140621ac102096
:206cfe00000000000000000000000000000000000000000000000000000000000000000076
:206d1e00000000000000000000000000000000000000000000000000000000000000000055
:206d3e000000000000001000000000000042c0000000000000000000000000000000000023
:0d6d5e000010cf006000000804140c20009d
:206d6b00000000000000000000000000000000000000000000000000000000000000000008
:206d8b000000000000000000000000000000000000000000000000000000000000000000e8
:206dab00000000000002001d71400000000040000000000980de41d0000020020e500000c0
:0d6dcb000000b52001a100000680000000be
:206dd800000200000000000000000000000000000000000000000000000000000000000099
:206df80000000000000000000000000000000000000000000000000000000000000000007b
:206e1800000000000000008d00000000000280000000000100b240e00000042a50a000005a
:0d6e38000000ab403c0000034000000000e3
:206e4500806800000000000000000000000000000000000000000000000000000000000045
:206e650000000000000000000000000000000000000000000000000000000000000000000d
:206e85000000000038000008029500e00147800000038001813b3c520e000404da50003828
:0d6ea5000090ef7b2000e0000000000000e6
:206eb200804000000000000000000000000000000000000000000000000000000000000000
:206ed2000000000000000000000000000000000000000000000000000000000000000000a0
:206ef2000000000000005003016a0000000400000000000008723ce000003c27c000000005
:0d6f120000100d3f00000000000000000016
:206f1f00000000000000000000000000000000000000000000000000000000000000000052
:206f3f00000000000000000000000000000000000000000000000000000000000000000032
:206f5f00000000000000000033c1000001602f980000000000374810000000017a020200e8
:0d6f7f000080002821090002065df8b00026
:206f8c000000000000000000000000000000000000000000000000000000000000000000e5
:206fac000000000000000000000000000000000000010000000000000000000000000000c4
:206fcc00000000000000d00003c2000000002ee00000000000bf9e8000000003e000000042
:0d6fec000010a94010200002c285fa7000bc
:206ff900000100000000000000000000000000000000000000000000000000000000000077
:20701900000000000000000000000000000000000000000000000000000000000000000057
:2070390000000000000000a1a4100000016601ac002000000e0000000000260458c7020055
:0d70590000598de7dc8000014015ca44a0fd
:2070660000000000000000000000000000000000000000000000000000000000000000000a
:207086000000000000000000000000000000000000000000000000000000000000000000ea
:2070a600000000000000d103680000000000000c000000050000000000002625c0c30000af
:0d70c6000050af37fc00000000170ad0009a
:2070d30000000000000000000000000000000000000000000000000000000000000000009d
:2070f300000000000000000000000000000080168200000000000000000000000000000065
:2071130000000000000018003b000800000060ea000000081b00000004002002fb2500103e
:0d713300000019e411002000000000000021
:2071400000020000000000000000000000000000000000000000000000000000000000002d
:207160000000000000000000000000000000f02940000000000000000000000000000000b6
:2071800000000000000000000300a00000023c05008000070800000004001403cce500109e
:0d71a000000081bc2c000000000000000079
:2071ad00400000000000000000000000000000000000000000000000000000000000000082
:2071cd000000000000000000000000000000000000000000000000000000000000000000a2
:2071ed00000000000000180073c100000066a4a8002000001c96e95040002602004242008d
:0d720d0000199de600000002605fcf5010e8
:20721a000c0000000000000000000000000000000000000000000000000000000000000048
:20723a00000000000000000000000000000000000000000000000000000000000000000034
:20725a0000000000000000e043c2840000021e00000800091e169d000000140040810000d4
:0d727a00000089280000000262350ff010ae
:207287000000000000000000000000000000000000000000000000000000000000000000e7
:2072a7000000000000000000000000000000000000000000000000000000000000000000c7
:2072c700000000000000800bb020000000000000000000000003bc100000206fce0a000016
:0d72e700001811f849080000002e8f520019
:2072f4008000000000000000000000000000000000000000000000000000000000000000fa
:20731400000000000000000000000000000000000000000000000000000000000000000059
:2073340000000000000010072400020003400000000000090f043c000000942a6000000043
:0d7354000008804048000001c00d0ff080cf
:207361004000000000000000000000000000000000000000000000000000000000000000cc
:207381000000000000000000000000000008000000000000000000000000000000000000e4
:2073a1000000000030003800680808c00062adbd1403000700802950200000224e000300b6
:0d73c1000059bbec5100c001c21fa280208a
:2073ce0000000000000000000000000000000000000000000000000000000000000000009f
:2073ee0000000000000000000000000000000000000000000000000000000000000000007f
:20740e0000000000000008054004200003440f9e50000007007016a00000000170010040ca
:0d742e00000183e0c000000023b400401204
:02743b0000004f
:02743d0011013b
:02743f00010149
:2074410000000000000000000000000000000000000000000000000000000000000000002b
:2074610000000000000000000000000000000000000000000000000000000000000000000b
:207481000000000000000000000000000000000000000000000000000000000000000000eb
:0d74a10000000000000000000000000000de
:2074ae000000000000000000000000000000000000000000000000000000000000000000be
:2074ce0000000000000000000000000000000000000000000000000000000000000000009e
:2074ee0000000000000000000000000000000000000000000000000000000000000000007e
:0d750e000000000000000000000000000070
:20751b00000000000000000000000000000000001000000000000040000000000000000000
:20753b0000000000040000000000001000000000000000000000000000000000000000001c
:20755b0000000000010000000000000000000000000000000000000000000000000000000f
:0d757b000000000000000000000000000003
:207588000000000000000000000000000000000000000000000000000000000000000016cd
:2075a8000000000000000000000000000000000000000000000000000000000000000000c3
:2075c8000000000000000000000000000000000000000000000000000000000000000000a3
:0d75e8000000000000000000000000000096
:2075f500000000000000000000000000000000000000000000000000000000000000000076
:20761500000000000000000000000000000000000000000000000000000000000000000055
:207635000000000000000040000000000000000000000000000000000000000000000000f5
:0d7655000000000000000000000000000028
:20766200000000000000000000000000000000000000000000000000000000000000000008
:207682000000000000000000000000000000000000000000000000000000000000000000e8
:2076a2000000000000000000000000000000000000000000000000000000000000000000c8
:0d76c2000000000000000000b0000000000b
:2076cf0000000000000000000000000000000000100000000000000000010000000000008a
:2076ef0000000000000000000000001000000000000000000100000000000000000000006a
:20770f00000000000100000000000000000000000000000000000000000000000000000059
:0d772f00000000000000000000000000004d
:20773c0000000000000000000000000000000000200000000000008000000000000000008d
:20775c000000000008000000000000200000000000000000000000000000000000000000e5
:20777c000000000000000000000000000000000000000000000000000000000000000000ed
:0d779c0000000000000000000000000000e0
:2077a90000000000000000000000000000000000000000400000000000030000000000007d
:2077c900080000000000003000000000000040000000000002000000000000000000000026
:2077e900000400000000000400000000000000000000000000000000000000000000000078
:0d7809000000000000000000000000000072
:20781600000000000000000000000000000000000000000000000000000000000000000052
:20783600000000000000000000000000000000000000000000000000000000000000000032
:20785600000000000000000000000000000000000000000000000000000000000000000012
:0d7876000000000000000000000000000005
:207883000000000000000000000000000000000000000000000000400000000000000000a5
:2078a300000400000000000030000000000000000000000000000000000000000000000091
:2078c3000000000000000000000000000000000000000000000000000000000000000000a5
:0d78e3000000000000000000000008000090
:2078f000000000000000000000000000000000000000000000000000000000000002000076
:20791000000c00000800000000000000000000000000000000000000000000000000000043
:20793000000000000000000000000000000000000000000000000000000000000000000037
:0d795000000000000000000000000c00001e
:20795d0000000000000000000000000000000000000000000000000000000000000000000a
:20797d0000000000000000006000000000000000000000000000000000000000000000008a
:20799d000000000000000000000000000000000000000000000000000000000000000000ca
:0d79bd0000000000000000000000000000bd
:2079ca0000000000000000000000000000000000000000000000004000000000000100005c
:2079ea00000000000400d00000000000000000000000400000000000000000000000000069
:207a0a0000000000000000000000000000000000000000000000000000000000000000005c
:0d7a2a00000000000000000000000000004f
:207a37000000000000000000000000000000000000000040000000000001000000000000ee
:207a570000000000000000100000000000004000000040000000000000000000000000007f
:207a77000000000000000004000000000000000000000000000000000000000000000000eb
:0d7a970000000000000000000000000000e2
:207aa4000000000000000000000000000000000000000000000000000000000000020000c0
:207ac40000000000080000000000000000000000000000000000000000000000000000009a
:207ae400000000000000000000000000000000000000000000000000000000000000000082
:0d7b04000000000000000000000000000074
:207b1100000000000000000000000000000000000000000000000000000000000000000054
:207b3100000000000000000000000000000000000000000000000000000000000000000034
:207e99000000000000001000000000000000000000000000000000000000000000000000b9
:207eb9000000000000000000000000000000000000000000000000000000000000000000a9
:0d7ed900000000000000000000000000009c
:207ee60000000000000000000000000000000000000000000000000000000000000000007c
:207f060000000000000000000000000000000000000000000000000000000000000000005b
:208844000000000000000000000000000000000040000000000001000000000000000000d3
:208864000000000010000000000000400000000000000000000000000000000000000000a4
:208884000000000000000000000000000000000000000000000000000000000000000000d4
:0d88a40000000000000000000000000000c7
:2088b1000000000000000000000000000000000000000000000000000000000000000000a7
:2088d100000000000000000000000000000000000000000000000000000000000000000087
:2088f100000000000000000000000000000000000000000000000000000000000000000067
:0d8911000000000000000000000000000059
:20891e00000000000000000000000000000000000000000000000000000000000000000039
:20893e00000000000000000000000000000000000000000000000000000000000000000019
:20895e000000000000000000000000000000000000000000000000000000000000000000f9
:0d897e0000000000000010000000000000dc
