:02000000ff00ff
:080002004c6174746963650030
:17000a00694345637562653220323032302e31322e32373934330071
:16002100506172743a2069434534304858344b2d545131343400f9
:1a003700446174653a204d6179203820323032352031393a33393a33390099
:0200510000ffae
:040053007eaa997e6a
:02005700510056
:0200590001059f
:03005b00920020f0
:03005e00620367d3
:0300610072011019
:0300640082000017
:02006700110086
:02006900010193
:20006b000000000000000000000000000000000000000000000000800000000000000000f5
:20008b00000000000400000000000000000000000000000000000000000000000000000051
:2000ab00000000000200000000000008000000000000000000000000000000000000000229
:0d00cb000000000000000800000000000020
:2000d800000000000000000000000000000000000000000000000000000000000000000008
:2000f8000000000000003000000000000000000000000000000000000000000000000000b8
:200118000000000000000000000000000000000000000000000000000000000000000000c7
:0d01380000000000000000000000000000ba
:2001450000000000000000000000000000000000000000000000004000000000000000005a
:20016500000000000400000000000010000000000000000000000000000000000000000066
:20018500000000000100000000000004000000000000000000000000000000000000000154
:0d01a5000000000000000400000000000049
:2001b20000000000000000000000000000000000000000000000000000000000000000002d
:2001d20000000000000000000000000000000000000000000000000000000000000000000d
:2001f2000000000000000000000000000000000000000000000000000000000000000000ed
:0d02120000000000000000000000000000df
:20021f0000000000000000000000000000000000000000000000008000000200000000003d
:20023f000000000008000000b00000000000000000000000000000000000000000000000e7
:20025f000000000002002000080000080030002000000000000000000000000000000002fb
:0d027f00000000000000080000000000006a
:20028c000000000000000000000000000000000000000000000000000f0003000000000040
:2002ac000000000000000000700000000000000000000000000000000000000000000000c2
:2002cc000000000000003c000c0000000008001000000000000000000000000000000000b2
:0d02ec000000000400000000000000000001
:2002f9000000000000000000000000000000000000000000000000000000000000000000e5
:200319000000000000000000000000100000000000000000000000000000000000000000b4
:20033900000000000000000000000000005000000000000000000000000000000000000054
:0d0359000000000000000000000000000097
:20036600000000000000000000000000000000000000000000000000000000000000000077
:20038600000000000000000000000000000000000000000000000000000000000000000057
:2003a6000000000000000000000000000080000000000000000000000000000000000000b7
:0d03c600000000000000000000000000002a
:2003d300000000000008000000000000200000000000008000000000000200000000000060
:2003f3000800000000000020000000000000c0000000000002000000000080000000000080
:2004130002000000000000080000000000002000000000000080000000000002000000001d
:0d0433000000080000000000002000000094
:2004400000000000000000000000000000000000000000000000000000000000000000009c
:2004600000000000000000000000000000000000000000000000000000000000000000007c
:2004800000000000000000000000000000000000000000000000000000000000000000005c
:0d04a000000000000000000000000000004f
:2004ad0000000000000000000000000000000000000000000000000000000000000000002f
:2004cd000000000000005000000000000000000000000000000100000000000000000000be
:2004ed000000000000000000000000000000003000000000000000000000000000000000bf
:0d050d0000000400000000000000300000ad
:20051a000000000000000000000000000000000000000000000000000000000000000000c1
:20053a000000000000008000000000000000000000008000000000000000000000000000a1
:20055a00000000000000000000000008000000200000000000003000000000000000000029
:0d057a000000080000000800000000000064
:20058700000000000000000000000000000000000000000000000000000000000000000054
:2005a700000000000000000000000000000000000000000000000000000000000000000034
:2005c7000000000000000000000000000000000000000000e0000000000000010000000033
:0d05e70000000800000000000010000000ef
:2005f4000000000000000000000000000000000000000000000000000000000000000000e7
:20061400000000000000000000000000000000000000400000000000000000000000000086
:200634000000000000000000000000040000000000000000000000000000000000000000a2
:0d0654000000040000000400300000000061
:20066100000000000004000000000000100000000000004000000000000100000000000024
:20068100040000000000001000000000000040000000000f010000000000400000000000b5
:2006a1000100000000000004000000000000100000000000004000000000000100000000e3
:0d06c1000002040000000000001000000016
:2006ce0000000000000000000000000000000000000000000000000000000000000000000c
:2006ee000000000000000000000000000000008000008008000000000000000000000000e4
:20070e000000000000000000000000080000000000000000000000000000000002000000c1
:0d072e000016000000000800001000000090
:20073b0000000000000000000000000000000000000000000000000000000000000000009e
:20075b0000000000000000000000000000000000000000000000000000000000000000007e
:20077b0000000000000000000000000000000000000000000000000000000000000000005e
:0d079b000000000000000000000000000051
:2007a80000020000000000000000000000000000000000000000000000000000000000002f
:2007c800000000000000000000000000000000000000000000000000000000000000000011
:2007e8000000000000000000000000000000000000000000000000000000000000000000f1
:0d08080000000000000000000000000000e3
:200815000000000000000000000000000000000000000000000000000000000000000000c3
:200835000000000000000000000000000000000000000000000000000000000000000000a3
:20085500000000000000000000000000000000000000000000000000000000000000000083
:0d0875000000000000000000000000000076
:20088200000000000000000000000000000000000000000000000000000000000000000056
:2008a200000000000000000000000000000000000000000000000000000000000000000036
:2008c200000000000000000000000000000000000000000000000000000000000000000016
:0d08e2000000000000000000000000000009
:2008ef000000000000000000000000000000000000000000000000000000000000000000e9
:20090f000000000000000000000000000000000000000000000000000000000000000000c8
:20092f00000000000000000000000000000000000000280000000000000000000000000080
:0d094f00000000000000000000000000009b
:20095c0000000000000000000000000000000000000000000000000000000000000000007b
:20097c0000000000000000000000000000000000000000000000000000000000000000005b
:20099c0000000000000000000000000000000000000000000000000000000000000000003b
:0d09bc00000000000000000000000000002e
:2009c90000010000000000000000000000000000000000000000000000000000000000000d
:2009e9000000000000000000000000000000000000000000000000000000000000000000ee
:200a09000000000000000000000000000000000000000000000000000000000000000000cd
:0d0a290000000000000000000000000000c0
:200a36000000000000000000000000000000000000000000000000000000000000000000a0
:200a5600000000000000000000000000000000000000000000000000000000000000000080
:200a7600000000000000000000000000000000000000000000000000000000000000000060
:0d0a96000000000000000000000000000053
:200aa300000000000000000000000000000000000000000000000000000000000000000033
:200ac300000000000000000000000000000000000000000000000000000000000000000013
:200ae3000000000000000000000000000000000000000000000000000000000000000004ef
:0d0b030000000000000000000000000000e5
:200b10000000000000000000000000000000000000000000000000000000000000000000c5
:200b30000000000000000000000000000000000000000000000000000000000000000000a5
:200b5000000000000000000000000000000000000000000000000000000000000000000085
:0d0b70000000000000000000000000000078
:200b7d00000000000000000000000000000000000000000000000000000000000000000058
:200b9d00000000000000000000000000000000000000000000000000000000000000000038
:200bbd00000000000000000000000000000000000000000000000000000000000000000018
:0d0bdd00000000000000000000000000000b
:200bea000000000000000000000000000000000000000000000000000000000000000000eb
:200c0a000000000000000000000000000000000000000000000000000000000000000000ca
:200c2a000000000000000000000000000000000000000000000000000000000000000000aa
:0d0c4a00000000000000000000000000009d
:200c570000000000000000000000000000000000000000000000000000000000000000007d
:200c770000000000000000000000000000000000000000000000000000000000000000005d
:200c970000000000000000000000000000000000000000000000000000000000000000003d
:0d0cb7000000000000001000000000000020
:200cc400000000000000000000000000000000000000000000000000000000000000000010
:200ce4000000000000000000000000000000000000000000000000000000000000000000f0
:200d04000000000000000000000000000000000000000000000000000000000000000000cf
:0d0d240000000000000000000000000000c2
:200d31000000000000000000000000000000000000000000000000000000000000000000a2
:200d5100000000000000000000000000000000000000000000000000000000000000000082
:200d7100000000000000000000000000000000000000000000000000000000000000000062
:0d0d91000000000000000000000000000055
:200d9e00000000000000000000000000000000000000000000000000000000000000000035
:200dbe00000000000000000000000000000000000000000000000000000000000000000015
:200dde000000000000000000000000000000000000000000000000000000000000000000f5
:0d0dfe0000000000000000000000000000e8
:200e0b000000000000000000000000000000000000000000000000000000000000000000c7
:200e2b000000000000000000000000000000000000000000000000000000000000000000a7
:200e4b00000000000000000000000000000000000000000000000000000000000000000087
:0d0e6b00000000000000000000000000007a
:200e7800000200000000000000000000000000000000000000000000000000000000000058
:200e980000000000000000000000000000000000000000000000000000000000000000003a
:200eb80000000000000000000000000000000000000000000000000000000000000000001a
:0d0ed800000000000000000000000000000d
:200ee5000000000000000000000000000000000000000000000000000000000000000000ed
:200f05000000000000000000000000000000000000000000000000000000000000000000cc
:200f25000000000000000000000000000000000000000000000000000000000000000000ac
:0d0f4500000000000000000000000000009f
:200f520000000000000000000000000000000000000000000000000000000000000000007f
:200f720000000000000000000000000000000000000000000000000000000000000000005f
:200f920000000000000000000000000000000000000000000000000000000000000000003f
:0d0fb2000000000000000000000000000032
:200fbf00000000000000000000000000000000000000000000000000000000000000000012
:200fdf000000000000000000000000000000000000000000000000000000000000000000f2
:200fff000000000000000000000000000000000000000000000000000000000000000000d2
:0d101f0000000000000000000000000000c4
:20102c000000000000000000000000000000000000000000000000000000000000000000a4
:20104c00000000000000000000000000000000000000000000000000000000000000000084
:20106c00000000000000000000000000000000000000000000000000000000000000000064
:0d108c000000000000000000000000000057
:20109900000100000000000000000000000000000000000000000000000000000000000036
:2010b900000000000000000000000000000000000000000000000000000000000000000017
:2010d9000000000000000000000000000000000000000000000000000000000000000000f7
:0d10f90000000000000000000000000000ea
:201106000000000000000000000000000000000000000000000000000000000000000000c9
:201126000000000000000000000000000000000000000000000000000000000000000000a9
:20114600000000000000000000000000000000000000000000000000000000000000000089
:0d116600000000000000000000000000007c
:2011730000000000000000000000000000000000000000000000000000000000000000005c
:2011930000000000000000000000000000000000000000000000000000000000000000003c
:2011b30000000000000000000000000000000000000000000000000000000000000000001c
:0d11d300000000000000000000000000000f
:2011e0000000000000000000000000000000000000000000000000000000000000000000ef
:201200000000000000000000000000000000000000000000000000000000000000000000ce
:201220000000000000000000000000000000000000000000000000000000000000000000ae
:0d12400000000000000000000000000000a1
:20124d00000000000000000000000000000000000000000000000000000000000000000081
:20126d00000000000000000000000000000000000000000000000000000000000000000061
:20128d00000000000000000000000000000000000000000000000000000000000000000041
:0d12ad000000000000000000000000000034
:2012ba00000000000000000000000000000000000000000000000000000000000000000014
:2012da000000000000000000000000000000000000000000000000000000000000000000f4
:2012fa000000000000000000000000000000000000000000000000000000000000000000d4
:0d131a0000000000000000000000000000c6
:201327000000000000000000000000000000000000000000000000000000000000000000a6
:20134700000000000000000000000000000000000000000000000000000000000000000086
:20136700000000000000000000000000000000000000000000000000000000000000000462
:0d1387000000000000001000000000000049
:20139400000000000000000000000000000000000000000000000000000000000000000039
:2013b400000000000000000000000000000000000000000000000000000000000000000019
:2013d4000000000000000000000000000000000000000000000000000000000000000000f9
:0d13f40000000000000000000000000000ec
:201401000000000000000000000000000000000000000000000000000000000000000000cb
:201421000000000000000000000000000000000000000000000000000000000000000000ab
:2014410000000000000000000000000000000000000000000000000000000000000000008b
:0d146100000000000000000000000000007e
:20146e0000000000000000000000000000000000000000000000000000000000000000005e
:20148e0000000000000000000000000000000000000000000000000000000000000000003e
:2014ae0000000000000000000000000000000000000000000000000000000000000000001e
:0d14ce000000000000000000000000000011
:2014db000000000000000000000000000000000000000000000000004000000000000000b1
:2014fb000000000000000000000000000000000000000000000000000000000000000000d1
:20151b000000000000000000000000000000000000000000000000000000000000000000b0
:0d153b0000000000000000000000000000a3
:20154800000200000000000000000000000000000000000000000000000000000000000081
:201568000000000000000000000000018000000000000000000000000000000000000000e2
:2015880000000000000000000000000000000000000000000000000000060000000000003d
:0d15a8000000000000000000000000000036
:2015b500000000000000000000000000000000000000000000000000000000000000000016
:2015d5000000000000000000000000000000000000000000000000000000000000000000f6
:2015f5000000000000000000000000000000000000000000000000000000000000000000d6
:0d16150000000000000000000000000000c8
:201622000000000000000000000000000000000000000000000000000000000000000000a8
:20164200000000000000000000000000000000000000000000000000000000000000000088
:20166200000000000000000000000000000000000000000000000000000000000000000068
:0d168200000000000000000000000000005b
:20168f0000000000000000000000000000000000000000000000000000000000000000003b
:2016af0000000000000000000000000000000000000000000000000000000000000000001b
:2016cf000000000000000000000000000000000000000000000000000000000000000000fb
:0d16ef0000000000000000000000000000ee
:2016fc000000000000000000000000000000000000000000000000000000000000000000ce
:20171c000000000000000000000000000000000000000000000000000000000000000000ad
:20173c0000000000000000000000000000000000000000000000000000000000000000008d
:0d175c000000000000000000000000000080
:2017690000010000000000000000000000000000000000000000000000000000000000005f
:20178900000000000000000000000000000000000000000000000000000000000000000040
:2017a900000000000000000000000000000000000000000000000000000000000000000020
:0d17c9000000000000000000000000000013
:2017d6000000000000000000000000000000000000000000000000000000000000000000f3
:2017f6000000000000000000000000000000000000000000000000000000000000000000d3
:201816000000000000000000000000000000000000000000000000000000000000000000b2
:0d18360000000000000000000000000000a5
:20184300000000000000000000000000000000000000000000000000000000000000000085
:20186300000000000000000000000000000000000000000000000000000000000000000065
:20188300000000000000000000000000000000000000000000000000000000000000000045
:0d18a3000000000000000000000000000038
:2018b000000000000000000000000000000000000000000000000000000000000000000018
:2018d0000000000000000000000000000000000000000000000000000000000000000000f8
:2018f0000000000000000000000000000000000000000000000000000000000000000000d8
:0d19100000000000000000000000000000ca
:20191d000000000000000000000000000000000000000000000000000000000000000000aa
:20193d0000000000000000000000000000000000000000000000000000000000000000008a
:20195d0000000000000000000000000000000000000000000000000000000000000000006a
:0d197d00000000000000000000000000005d
:20198a0000000000000000000000000000000000000000000000000000000000000000003d
:2019aa0000000000000000000000000000000000000000000000000000000000000000001d
:2019ca000000000000000000000000000000000000000000000000000000000000000000fd
:0d19ea0000000000000000000000000000f0
:2019f7000000000000000000000000000000000000000000000000000000000000000000d0
:201a17000000000000000000000000000000000000000000000000000000000000000000af
:201a370000000000000000000000000000000000000000000000000000000000000000008f
:0d1a57000000000000001000000000000072
:201a6400000000000000000000000000000000000000000000000000000000000000000062
:201a8400000000000000000000000000000000000000000000000000000000000000000042
:201aa400000000000000000000000000000000000000000000000000000000000000000022
:0d1ac4000000000000000000000000000015
:201ad1000000000000000000000000000000000000000000000000000000000000000000f5
:201af1000000000000000000000000000000000000000000000000000000000000000000d5
:201b11000000000000000000000000000000000000000000000000000000000000000000b4
:0d1b310000000000000000000000000000a7
:201b3e00000000000000000000000000000000000000000000000000000000000000000087
:201b5e00000000000000000000000000000000000000000000000000000000000000000067
:201b7e00000000000000000000000000000000000000000000000000000000000000000047
:0d1b9e00000000000000000000000000003a
:201bab0000000000000000000000000000000000000000000000000000000000000000001a
:201bcb000000000000000000000000000000000000000000000000000000000000000000fa
:201beb000000000000000000000000000000000000000000000000000000000000000000da
:0d1c0b0000000000000000000000000000cc
:201c18000002000000000000000000000000000000000000000000000000000000000000aa
:201c380000000000000000000000000000000000000000000000000000000000000000008c
:201c580000000000000000000000000000000000000000000000000000000000000000006c
:0d1c7800000000000000000000000000005f
:201c850000000000000000000000000000000000000000000000000000000000000000003f
:201ca50000000000000000000000000000000000000000000000000000000000000000001f
:201cc5000000000000000000000000000000000000000000000000000000000000000000ff
:0d1ce50000000000000000000000000000f2
:201cf200800000000000000000000000000000000000000000000000000000000000000052
:201d12000000000000000000000000000000000000000000000000000000000000000000b1
:201d3200000000000000000000000000000000000000000000000000000000000000000091
:0d1d52000000000000000000000000000084
:201d5f00000000000000000000000000000000000000000000000000000000000000000064
:201d7f00000000000000000000000000000000000000000000000000000000000000000044
:201d9f00000000000000000000000000000000000000000000000000000000000000000024
:0d1dbf000000000000000000000000000017
:201dcc00800000000000000000100000000000000000000000000100000000000000000066
:201dec00000000000000000000000000000000000000008000000000000000000000000057
:201e0c000000000000000000000000000000000000000000000000000000000000000000b6
:0d1e2c0000000000000000000000000000a9
:201e3900000300000000000000000000000000000000000000000000000000000000000086
:201e5900000000000000000000000000000000000000000000000000000000000000000069
:201e7900000000000000000000000000080000000000000000000000000000000000000041
:0d1e9900000000000000000000000000003c
:201ea60000000000000000000000000000000000000000000000000000000000000000001c
:201ec6000000000000000000000000000000000000000000000000000000000000000000fc
:201ee6000000000000000000000000001400000000000000000000000100000000000000c7
:0d1f060000000000000000000000000000ce
:201f130040000000000000000000000000000000000000000000000000000000000000006e
:201f330000000000000000000000000000000000000000000000000000000000000000008e
:201f530000000000000000000000000000000000000000000000000000000000000000006e
:0d1f73000000000000000000000000000061
:201f800000020000000000000000000000000000000000000000000000000000000000003f
:201fa000000000000000000000000000000000000000000000000000000000000000000021
:201fc0000000000000100000000000000000000000000000000000000000000000000000f1
:0d1fe00000000000000000000000000000f4
:201fed000000000000000000000000000000000000000000000000000000000000000000d4
:20200d000000000000000000000000000000000000000000000000000000000000000000b3
:20202d00000000000000000000000000000000000000000000000000000000000000000093
:0d204d000000000000000000000000000086
:20205a00000000000000000000000000000000000000000000000000000000000000000066
:20207a00000000000000000000000000000000000000000000000000000000000000000046
:20209a00000000000000000000000000000000000000000000000000000000000000000026
:0d20ba000000000000000000000000000019
:2020c7000000000000000000000000000000000000000000000000000000000000000000f9
:2020e7000000000000000000000000000000000000000000000000000000000000000000d9
:202107000000000000000000000000000000000000000000000000000200000000000000b6
:0d21270000000000000000000000000000ab
:2021340080000000000000000000000000000000000000000000000000000000000000000b
:2021540000000000000000000000000000000000000000000000000000000000000000006b
:2021740000000000000000000000000000000000000000000000000000000000000000004b
:0d219400000000000000000000000000003e
:2021a10000000000000000000000000000000000000000000000000000000000000000001e
:2021c1000000000000000000000000000000000000000000000000000000000000000000fe
:2021e1000000000000000000000000000000000000000000000000000000000000000000de
:0d22010000000000000000000000000000d0
:20220e000000000000000000000000000000000000000000000000000000000000000000b0
:20222e00000000000000000000000000000000000000000000000000000000000000000090
:20224e00000000000000000000000000000000000000000000000000000000000000000070
:0d226e000000000000000000000000000063
:20227b00000000000000000000000000000000000000000000000000000000000000000043
:20229b00000000000000000000000000000000000000000000000000000000000000000023
:2022bb00000000000000000000000000000000000000000000000000000000000000000003
:0d22db0000000000000000000000000000f6
:2022e800800200000000000000000000000000000000000000000000000000000000000054
:202308000000000000000000000000000000000000000000000000000000000000000000b5
:20232800000000000000000000000000000000000000000000000000000000000000000095
:0d2348000000000000000000000000000088
:20235500000000000000000000000000000000000000000000000000000000000000000068
:20237500000000000000000000000000000000000000000000000000000000000000000048
:20239500000000000000000000000000000000000000000000000000000000000000000028
:0d23b500000000000000000000000000001b
:2023c20080000000000000000000000000000000000000000000000000000000000000007b
:2023e2000000000000000000000000000000000000000000000000000000000000000000db
:202402000000000000000000000000000000000000000000000000000000000000000000ba
:0d24220000000000000000000000000000ad
:20242f0000000000000000000000000000000000000000000000010000000000000000008c
:20244f0000000000000000000000000000000000000000000000000000000000000200006b
:20246f0000000000000000000000000000000000000000000000000000000000000000004d
:0d248f000000000000000000000000000040
:20249c00000000000000000000100000000000000000000000000000000000000000000010
:2024bc00000000000000000000000000000000000000000000000000000000000000000000
:2024dc000000000000000000000000000000000000000000000000000000000000000000e0
:0d24fc0000000000000000000000000000d3
:202509000003000000000000000000000000000000000000000000000000000000000000af
:20252900000000000000000000000000000000000000000000000000000000000000000092
:20254900000000000000000000000000000000000000000000000000000000000000000072
:0d2569000000000000000000000000000065
:20257600000000000000000000000000000000000000000000000000000000000000000045
:20259600000000000000000000000000000000000000000000000000000000000000000025
:2025b600000000000000000000000000000000000000008000000000010000000000000084
:0d25d60000000000000000000000000000f8
:2025e300400000000000000000000000000000000000000000000000000000000000000098
:202603000000000000000000000000000000000000000000000000000000000000000000b7
:20262300000000000000000000000000000000000000000000000000000000000000000097
:0d264300000000000000000000000000008a
:20265000000200000000000000000000000000000000000000000000000000000000000068
:2026700000000000000000000000000000000000000000000000000000000000000000004a
:20269000000000000000000000000000000000000000030000000000000000000000000027
:0d26b000000000000000000000000000001d
:2026bd000000000000000000000000000000000000000000000000000000000000000000fd
:2026dd000000000000000000000000000000000000000000000000000000000000000000dd
:2026fd000000000000000000000000000000000000000000000000000000000000000000bd
:0d271d0000000000000000000000000000af
:20272a0000000000000000000000000000000000000000000000000000000000000000008f
:20274a0000000000000000000000000000000000000000000000000000000000000000006f
:20276a0000000000000000000000000000000000000000000000000000000000000000004f
:0d278a000000000000000000000000000042
:20279700000000000000000000000000000000000000000000000000000000000000000022
:2027b700000000000000000000000000000000000000000000000000000000000002000000
:2027d7000000000000000000000000000000000000000000000000000000000000000000e2
:0d27f70000000000000000000000000000d5
:20280400800000000000000000000000000000000000000000000000000000000000000034
:20282400000000000000000000000000000000000000000000000000000000000000000094
:20284400000000000000000000000000000000000000000000000000000000000000000074
:0d2864000000000000000000000000000067
:20287100000000000000000000000000000000000000000000000000000000000000000047
:20289100000000000000000000000000000000000000000000000000000000000000000027
:2028b100000000000000000000000000000000000000000000000000000000000000000007
:0d28d10000000000000000000000000000fa
:2028de000000000000000000000000000000000000000000000000000000000000000000da
:2028fe000000000000000000000000000000000000000000000000000000000000000000ba
:20291e00000000000000000000000000000000000000000000000000000000000000000099
:0d293e00000000000000000000000000008c
:20294b0000000000000000000000000000000000000000000000000000000000000000006c
:20296b0000000000000000000000000000000000000000000000000000000000000000004c
:20298b0000000000000000000000000000000000000000000000000000000000000000002c
:0d29ab00000000000000000000000000001f
:2029b8000002000000000000000000000000000000000000000000000000000000000000fd
:2029d8000000000000000000000000000000000000000000000000000000000000000000df
:2029f8000000000000000000000000000000000000000000000000000000000000000000bf
:0d2a180000000000000000000000000000b1
:202a2500000000000000000000000000000000000000000000000000000000000000000091
:202a4500000000000000000000000000000000000000000000000000000000000000000071
:202a6500000000000000000000000000000000000000000000000000000000000000000051
:0d2a85000000000000000000000000000044
:202a92008000000000000000000000000000000000000000000000000000000000000000a4
:202ab200000000000000000000000000000000000000000000000000000000000000000004
:202ad2000000000000000000000000000000000000000000000000000000000000000000e4
:0d2af20000000000000000000000000000d7
:202aff000000000000000000000000000000000000000000000000000000000000000000b7
:202b1f00000000000000000000000000000000000000000000000000000000000000000096
:202b3f00000000000000000000000000000000000000000000000000000000000000000076
:0d2b5f000000000000000000000000000069
:202b6c008000000000000000001000000000000000000000000001000000000000000000b8
:202b8c00000000000000000000000000000000000000000000000000000000000000000029
:202bac00000000000000000000000000000000000000000000000000000001000000000008
:0d2bcc0000000000000000000000000000fc
:202bd9000003000000000000000000000000000000000000000000000000000000000000d9
:202bf9000000000000000000000000000000000000000000000000000000000000000000bc
:202c190000000000000000000000000000000000000000000000000000000000000000009b
:0d2c3900000000000000000000000000008e
:202c460000000000000000000000000000000000000000000000000000000000000000006e
:202c660000000000000000000000000000000000000000000000000000000000000000004e
:202c860000000000000000000000000000000000000000000000000000000000000000002e
:0d2ca6000800000000000000000000000019
:202cb3004000000000000000000000000000000000000000000000000000000000000000c1
:202cd3000000000000000000000000000000000000000000000000000000000000000000e1
:202cf3000000000000000000000000200000000000000000000000000000000000000000a1
:0d2d130000000000000010000000000000a3
:202d2000000200000000000000000000000000000000000000000000000000000000000091
:202d4000000000000000000000000000000000000000000000000000000000000000000073
:202d6000000000000000000000000000000000000000000000000000000000000000000053
:0d2d80000000000000000000000000000046
:202d8d00000000000000000000000000000000000000000000000000000000000000000026
:202dad00000000000000000000000000000000000000000000000000000000000000000006
:202dcd000000000000000000000000000000000000000000000000000000000000000000e6
:0d2ded0000000000000000000000000000d9
:202dfa000000000000000000000000000000000000000000000000000000000000000000b9
:202e1a00000000000000000000000000000000000000000000000000000000000000000098
:202e3a00000000000000000000000000000000000000000000000000000000000000000078
:0d2e5a00000000000000000000000000006b
:202e670000000000000000000000000000000000000000000000000000000000000000004b
:202e870000000000000000000000000000000000000000000000000000000000000000002b
:202ea7000000000000000000000000200000000000000000000000000000000000000000eb
:0d2ec70000000000000000000000000000fe
:202ed40080000000000000000000000000000000000000000000000000000000000000005e
:202ef4000000000000000000000000000000000000000000000000000000000000000000be
:202f140000000000000000000000000000000000000000000000000000000000000000009d
:0d2f34000000000000000000000000000090
:202f4100000000000000000000000000000000000000000000000000000000000000000070
:202f6100000000000000000000000000000000000000000000000000000000000000000050
:202f8100000000000000000000000000000000000000000000000000000000000000000030
:0d2fa1000000000000000000000000000023
:202fae00000000000000000000000000000000000000000000000000000000000000000003
:202fce000000000000000000000000000000000000000000000000000000000000000000e3
:202fee000000000000000000000000000000000000000000000000000000000000000001c2
:0d300e0000000000000000000000000000b5
:20301b00000000000000000000000000000000000000000000000001000000000000000094
:20303b00000000000000000000000000000000000000000000000000000000000000000075
:20305b00000000000000000000000000000000000000000000000000000000000000000055
:0d307b000000000000000000000000000048
:20308800000200000000000000000000000000000000000000000000000000000000000026
:2030a800000000000000000000000000000000000000000000000000000000000000000008
:2030c8000000000000000000000000000000000000000000000000000000000000000000e8
:0d30e80000000000000000000000000000db
:2030f5000000000000000000000000000000000000000000000000000000000000000000bb
:2031150000000000000000000000000000000000000000000000000000000000000000009a
:2031350000000000000000000000000000000000000000000000000000000000000000007a
:0d315500000000000000000000000000006d
:2031620000000000000000000000000000000000000000000000000000000000000000004d
:2031820000000000000000000000000000000000000000000000000001000000000000002c
:2031a20000000000000000000000000000000000000000000000000000000000000000000d
:0d31c2000000000000000000000000000000
:2031cf000000000000000000000000000000000000000000000000000000000000000000e0
:2031ef00000000000000000000000000500000000000000000000000000000000000000070
:20320f0000000000000000000000000000000000000000000000000000000000000000009f
:0d322f000000000000000000000000000092
:20323c00000000000000000000000000000000000000000000000000000000000000000072
:20325c00000000000000000000000000000000000000000000000000000000000000000052
:20327c00000000000000000000000000000000000000000000000000000000000000000032
:0d329c000000000000000000000000000025
:2032a900000100000000000000000000000000000000000000000000000000000000000004
:2032c9000000000000000000000000400000000000000000000003000000000000000000a2
:2032e9000000000000000000000000000000000000000000000000000000000000000000c5
:0d33090000000000000000000000000000b7
:20331600000000000000000000000000000000000000000000000000000000000000000097
:20333600000000000000000000000000000000000000000000000100000000000000000076
:20335600000000000000000000000000000000000000000000000000000000000000000057
:0d337600000000000000000000000000004a
:2033830000000000000000000000000000000000000000000000000000000000000000002a
:2033a30000000000000000000000000000000000000000000000000000000000000000000a
:2033c3000000000000000000000000000000000000000000000000000000000000000000ea
:0d33e30000000000000000000000000000dd
:2033f0000000000000000000000000000000000000000000000000000000000000000000bd
:2034100000000000000000000000000000000000000000000000000000000000000000009c
:2034300000000000000000000000000000000000000000000000000000000000000000007c
:0d345000000000000000000000000000006f
:20345d0000000000000000000000000000000000000000000000000000000000000000004f
:20347d0000000000000000000000000000000000000000000000000000000000000000002f
:20349d0000000000000000000000000000000000000000000000000000000000000000000f
:0d34bd000000000000000000000000000002
:2034ca000000000000000000000000000000000000000000000000000000000000000000e2
:2034ea000000000000000000000000000000000000000000000000000000000000000000c2
:20350a00000000000000000000000000001000000000000000000000000000000000000091
:0d352a000000000000000000000000000094
:20353700000000000000000000000000000000000000000000000000000000000000000074
:2035570000000000000000000000000000000000000000000000000000008016800000003e
:20357700000000000000000000000000000000000000000000000000000000000000000430
:0d3597000000000000000000000000000027
:2035a400000000000000000000000000000000000000000000000000000000000000000007
:2035c400000000000000000000000000000000000000000000000000000010294800000066
:2035e4000000000000000000000000000000000000000000000000000000000000000000c7
:0d36040000000000000000000000000000b9
:20361100000000000000000000000000000000000000000000000000000000000000000099
:20363100000000000000000000000000000000000000000000000000000000000000000079
:20365100000000000000000000000000000000000000000000000000000000000000000059
:0d367100000000000000000000000000004c
:20367e0000000000000000000000000000000000000000000000000000000000000000002c
:20369e00000000000000000000000000000000000000a0000000000000000000000000006c
:2036be000000000000000000000000000000000000000000000000000000000000000000ec
:0d36de0000000000000000000000000000df
:2036eb000000000000000000000000000000000000000000000000000000000000000000bf
:20370b0000000000000000000000000000000000000000000000000000000000000000009e
:20372b0000000000000000000000000000000000000000000000000000000000000000007e
:0d374b000000000000000000000000000071
:2037580000020000000000000000000000000000000000000000000000000000000000004f
:20377800000000000000000000000000000000000000000000000000000000000000000031
:20379800000000000000000000000000000000000000000000000000000000000000000011
:0d37b8000000000000000000000000000004
:2037c5000000000000000000000000000000000000000000000000000000000000000000e4
:2037e5000000000000000000000000000000000000000000000000000000000000000000c4
:203805000000000000000000000000000000000000000000000000000000000000000000a3
:0d3825000000000000000000000000000096
:20383200000000000000000000000000000000000000000000000000000000000000000076
:20385200000000000000000000000000000000000000000000000000000000000000000056
:20387200000000000000000000000000000000000000000000000000000000000000000036
:0d3892000000000000000000000000000029
:20389f00000000000000000000000000000000000000000000000000000000000000000009
:2038bf000000000000000000000000000000000000000000000000000000000000000000e9
:2038df000000000000000000000000000000000000000000000000000000000000000004c5
:0d38ff0000000000000000000000000000bc
:20390c0000000000000000000000000000000000000000000000000000000000000000009b
:20392c0000000000000000000000000000000000000000000000000000000000000000007b
:20394c0000000000000000000000000000000000000000000000000000000000000000005b
:0d396c00000000000000000000000000004e
:2039790000010000000000000000000000000000000000000000000000000000000000002d
:2039990000000000000000000000000000000000000000000000000000000000000000000e
:2039b9000000000000000000000000000000000000000000000000000000000000000000ee
:0d39d90000000000000000000000000000e1
:2039e6000000000000000000000000000000000000000000000000000000000000000000c1
:203a06000000000000000000000000000000000000000000000000000000000000000000a0
:203a2600000000000000000000000000000000000000000000000000000000000000000080
:0d3a46000000000000000000000000000073
:203a5300000000000000000000000000000000000000000000000000000000000000000053
:203a7300000000001000000000000000000000000000000000000000000000000000000023
:203a9300000000000000000000000000000000000000000000000000000000000000000013
:0d3ab3000000000000000000000000000006
:203ac0000000000000000000000000000000000000000000000000000000000000000000e6
:203ae0000000000000000000000000000000000000000000000000000000000000000000c6
:203b000000000000002800000000000000000000000000000000000000000000000000007d
:0d3b20000000000000000000000000000098
:203b2d00000000000000000000000000000000000000000000000000000000000000000078
:203b4d00000000000000000000000000000000000000000000000000000000000000000058
:203b6d00000000000000000000000000000000000000000000000000000000000000000038
:0d3b8d00000000000000000000000000002b
:203b9a0000000000000000000000000000000000000000000000000000000000000000000b
:203bba000000000000000000000000000000000000000000000000000000000000000000eb
:203bda000000000000000000000000000000000000000000000000000000000000000000cb
:0d3bfa0000000000000000000000000000be
:203c070000000000000000000000000000000000000000000000000000000000000000009d
:203c270000000000000000000000000000000000000000000000000000000000000000007d
:203c470000000000000000000000000000000000000000000000000000000000000000005d
:0d3c67000000000000000000000000000050
:203c7400000000000000000000000000000000000000000000000000000000000000000030
:203c9400000000000000000000000000000000000000000000000000000000000000000010
:203cb4000000000000000000000000000000000000000000000000000000000000000000f0
:0d3cd40000000000000000000000000000e3
:203ce1000000000000000000000000000000000000000000000000000000000000000000c3
:203d01000000000000000000000000000000000000000000000000000000000000000000a2
:203d2100000000000000000000000000000000000000000000000000000000000000000082
:0d3d41000000000000000000000000000075
:203d4e00000000000000000000000000000000000000000000000000000000000000000055
:203d6e00000000000000000000000000000000000000000000000004000000000000000031
:203d8e00000000000000000000000000000000000000000000000000000000000000000015
:0d3dae000000000000000000000000000008
:203dbb000000000000000000000000000000000000000000000000000000000000000000e8
:203ddb000000000000000000000000000000000000000000000000000000000000000000c8
:203dfb000000000000000000000000000000000000000000000000000000000000000000a8
:0d3e1b00000000000000000000000000009a
:203e2800000200000000000000000000000000000000000000000000000000000000000078
:203e480000000000000000000000000000000000000000000000000000000000000000005a
:203e680000000000000000000000000000000000000000000000000000000000000000003a
:0d3e8800000000000000000000000000002d
:203e950000000000000000000000000000000000000000000000000000000000000000000d
:203eb5000000000000000000000000000000000000000000000000000000000000000000ed
:203ed5000000000000000000000000000000000000002800000000000000000000000000a5
:0d3ef500000000000000e0000001cf0410fc
:203f020000000000000000000000000000000000000000000000000000000000000000009f
:203f220000000000000000000000000000000000000000000000000000000000000000007f
:203f420000000000000000000000000000000000000000000000000000000000000000005f
:0d3f6200000000000000000000010f08003a
:203f6f00000000000000000000000000000000000000000000000000000000000000000032
:203f8f00000000000000000000000000000000000000000000000000000000000000000012
:203faf000000000000000000000000000000000000000000000000000000000000000000f2
:0d3fcf0000000000000000000000000000e5
:203fdc000000000000000000000000000000000000000000000000000000000000000000c5
:203ffc000000000000000000000000000000000000000000000000000000000000000000a5
:20401c00000000000000000000000000000000000000000000000000000000000000000084
:0d403c000000000000000000000000000077
:20404900000100000000000000000000000000000000000000000000000000000000000056
:20406900000000000000000000000000000000000000000000000000000000000000000037
:20408900000000000000000000000000000000000000000000000000000000000000000017
:0d40a90000000003fc4000000000000000cb
:2040b6000000000000000000000000000000000000000000000000000000000000000000ea
:2040d6000000000000000000000000000000000000000000000000000000000000000000ca
:2040f6000000000000000000000000000000000000000000000000000000000000000000aa
:0d41160000000003fc040000000000000099
:2041230000000000000000000000000000000000000000000000000000000000000000007c
:2041430000000000000000000000000000000000000000000000000000000000000010004c
:2041630000000000000000000000000000000000000000000000000000000000000000003c
:0d41830040000000000001000000000000ee
:2041900000000000000000000000000000000000000000000000000000000000000000000f
:2041b0000000000000000000000000000000000000000000000000000000000000000000ef
:2041d0000000000000000000000000000000000000000000000000000000000000000000cf
:0d41f00000000000000000000000000000c2
:2041fd000000000000000000000000000000000000000000000000000000000000000000a2
:20421d00000000000000000000000000000000000000000000000000000000000000000081
:20423d00000000000000000000000000000000000000000000000000000000000000000061
:0d425d0040000000000001000040000000d3
:20426a00000000000000000000000000000000000000000000000000000000000000000034
:20428a00000000000000000000000000000000000000000000000000000000000000000014
:2042aa000000000000000000000000000000000000000000000000000000000000000000f4
:0d42ca00000000000000000003c000000024
:2042d7000000000000000000000000000000000000000000000000000000000000000000c7
:2042f7000000000000000000000000000000000000000000000000000000000000000000a7
:20431700000000000000000000000000000000000000000000000000000000000000000086
:0d4337000000000000000000000000000079
:20434400000000000000000000000000000000000000000000000000000000000000400019
:20436400000000000000000000000000000000000000000000000000000000000000100029
:204384000000000000400000000000010000000000000410000000000010000000000000b4
:0d43a40040000000000001000000000000cb
:2043b1000000000000000000000000000000000000000000000000000000000000000000ec
:2043d1000000000000000000000000000000000000000000000000000000000000000000cc
:2043f1000000000000000000000000000000000000000000000000000000000000000000ac
:0d441100000000000000c1000000000000dd
:20441e0000000000000000000000000000000000000000000000000000000000000000007e
:20443e0000000000000000000000000000000000000000000000000000000000000010004e
:20445e000000000000400000000000010000000000000400000000000010000000000000e9
:0d447e0040000000000001000000000000f0
:20448b00000000000000000000000000000000000000000000000000000000000000000011
:2044ab000000000000000000000000000000000000000000000000000000000000000000f1
:2044cb00000000000000000000000000000020e0a010000000000000000000000000000021
:0d44eb0000000000000000000000000000c4
:2044f8000002000000000000000000000000000000000000000000000000000000000000a2
:20451800000000000000000000000000000000000000000000000000000000000000000083
:2045380000000000000000000000000000002d0050000000000000000000000000000000e6
:0d4558000000000000000000000000000056
:20456500000000000000000000000000000000000000000000000000000000000000000036
:20458500000000000000000000000000000000000000000000000000000000000000000016
:2045a500000000000000000000000000000000000000000000000000000000000000003abc
:0d45c5008000007bc102000000000000002b
:2045d2000000000000000000000000000000000000000000000000000000000000000000c9
:2045f2000000000000000000000000000000000000000000000000000000000000000000a9
:20461200000000000000000000000000000000000000000000000000000000000000000088
:0d46320000000003c20000000000000000b6
:20463f0000000000000000000000000000000000000000000000000000000000000000005b
:20465f0000000000000000000000000000000000000000000000000000000000000000003b
:20467f0000000000000000000000000000000000000000000000000000000000000000001b
:0d469f0000000073c10200000000000000d8
:2046ac000000000000000000000000000000000000000000000000000000000000000000ee
:2046cc000000000000000000000000000000000000000000000000000000000000000000ce
:2046ec000000000000000000000000000000000000000000000000000000000000000000ae
:0d470c0000000043c200000000000000009b
:2047190000010000000000000000000000000000000000000000000000000000000000007f
:20473900000000000000000000000000000000000000000000000000000000000000000060
:20475900000000000000000000000000000000000000000000000000000000000000000040
:0d4779000000000000000000000000000033
:20478600000000000000000000000000000000000000000000000000000000000000000013
:2047a6000000000000000000000000000000000000000000000000000000000000000000f3
:2047c6000000000000000000000000000000000000000000000000000000000000000000d3
:0d47e60000000000000000000000000000c6
:2047f3000000000000000000000000000000000000000000000000000000000000000000a6
:20481300000000000000000000000000000000000000000000000000000000000000000085
:20483300000000000000000000000000000000000000000000000000010000000000000064
:0d4853000000000000000000000000000058
:20486000000000000000000000000000000000000000000000000000000000000000000038
:204880000000000000000000000000000040000000000000000000000000000000000000d8
:2048a0000000000000000000000000000000000000000000000000000000000000000000f8
:0d48c00000000000000000000000000000eb
:2048cd000000000000000000000000000000000000000000000000000000000000000000cb
:2048ed000000000000000000000000000000000000000000000000000000000000000000ab
:20490d0000000000000000000000000000004000000000000000000000000000000000004a
:0d492d0000008000000000000000000000fd
:20493a0000000000000000000000000000000000000000000000000000000000000000005d
:20495a0000000000000000000000000000000000000000000000000000000000000000003d
:20497a0000000000000000000000000000030000000000000000000000000000000000001a
:0d499a000000000000000000000000000010
:2049a7000000000000000000000000000000000000000000000000000000000000000000f0
:2049c7000000000000000000000000000000000000000000000000000000000000000000d0
:2049e700000000000000000000000000000040000000000000000000000000000000000070
:0d4a07000000000000001000000000000092
:204a1400000000000000000000000000000000000000000000000000000000000000000082
:204a3400000000000000000000000000000000000000000000000000000000000000000062
:204a54000000000000000000000000000003800000000000000000000000000000000000bf
:0d4a74000000000000001000000000000025
:204a8100000000000000000000000000000000000000000000000000000000000000000015
:204aa1000000000000000000000000000000000000000000000000000000000000000000f5
:204ac100000000000000000000000000000000000000000000000000000e00000000003295
:0d4ae1000038000000000000000000000090
:204aee000000000000000000000000000000000000000000000000000000000000000000a8
:204b0e00000000000000000000000000000000000000000000000000000000000000000087
:204b2e00000000000000000000000000000000000000000000000000000000000000000067
:0d4b4e00000000000000000000000000005a
:204b5b0000000000000000000000000000000000000000000000000000000000000000003a
:204b7b0000000000000000000000000000000000000000000000000000000000000000001a
:204b9b0000000000000000000000000000001eff30000000000000000000160440008000d3
:0d4bbb00000189a030000006068000000007
:204bc8000002000000000000000000000000000000000000000000000000000000000000cb
:204be8000000000000000000000000000000000000000000000000000000000000000000ad
:204c080000000000000000000000000000003cff70000000000000000000002809000000b0
:0d4c28000070ebe6300000094000000000c5
:204c350000000000000000000000000000000000000000000000000000000000000000005f
:204c550000000000000000000000000000000000000000000000000000000000000000003f
:204c7500000000000000000f390800e000002eaf542380000003a5900e000001c8f0c0005c
:0d4c9500000080000000e0000000000000b2
:204ca200800000000000000000000000000000000000000000000000000000000000000072
:204cc2000000000000000000000000000000000000000000000000000000000000000000d2
:204ce200000000000038000b7b4401000000360d1a00000000f01a4000000000000f0000f9
:0d4d020000010000000000000000000000a3
:204d0f00000000000000000000000000000000000000000000000000000000000000000084
:204d2f00000000000000000000000000000000000000000000000000000000000000000064
:204d4f000000000000000000000000000060000000000000000383d00000006548f0c00031
:0d4d6f00000000000000c0000680000000f1
:204d7c00800000000000000000100000000000000000000000000100000000000000000086
:204d9c000000000000000000000000000000000000000000000000000000000000000000f7
:204dbc000000000000000000000000000000000000000010000403c200000020200f0000af
:0d4ddc000000e0000000c00000000000002a
:204de9000003000000000000000000000000000000000000000000000000000000000000a7
:204e0900000000000000000000000000000000000000000000000000000000000000000089
:204e2900000000000000000000000000c9c0000000001001000000000000060148f0c04090
:0d4e49000000017bd40000020697db9410ee
:204e560000000000000000000000000000000000000000000000000000000000000000003c
:204e760000000000000000000000000000000000000000000000000000000000000000001c
:204e96000000000000000000000000001403c000000028008000000001000000200f00004d
:0d4eb60000000043d48110014267b34000aa
:204ec30040000000000000000000000000000000000000000000000000000000000000008f
:204ee3000000000000000000000000000000000000000000000000000000000000000000af
:204f030000000000000000000000000000132fff700000000000000000000001e8f0e00024
:0d4f2300000009aa3c08000000000000008a
:204f300000020000000000000000000000000000000000000000000000000000000000005f
:204f5000000000000000000000000000000000000000000000000000000000000000000041
:204f700000000000000000000000000000043daff00000000000000000000000000f000032
:0d4f900000000bc33c0000034000000000c7
:204f9d000000000000000000000000000000000000000000000000000000000000000000f4
:204fbd000000000000000000000000000000000000000000000000000000000000000000d4
:204fdd0000000000000000800000000a03c0400000000000000000000000000168f0c0020c
:0d4ffd00003800000000040000000000006b
:20500a00000000000000000000000000000000000000000000000000000000000000000086
:20502a00000000000000000000000000000000000000000000000000000000000000000066
:20504a0000000000000001000000000403c34000000000000000000000000000000f10011b
:0d506a000008800000000a0002c0000000e5
:20507700000000000000000000000000000000000000000000000000000000000000000019
:205097000000000000000000000000000000000000000000000000000000000000000000f9
:2050b700000000000000f8e00000000000420ddf700000018100000000000601e85540005d
:0d50d7000030000000000002021da50400d2
:2050e40080000000000000000000000000000000000000000000000000000000000000002c
:2051040000000000000000000000000000000000000000000000000000000000000000008b
:20512400000000000000f9000000000001e65ecfd000000008000000000000002055000011
:0d5144000000000000000003c0350000085e
:2051510000000000000000000000000000000000000000000000000000000000000000003e
:2051710000000000000000000000000000000000000000000000000000000000000000001e
:205191000000000000000000000000c000029fce70211000000000000c002e0400000000f0
:0d51b1000001ebbbd400c0000024ca54086c
:2051be000000000000000000000000000000000000000000000000000000000000000000d1
:2051de000000000000000000000000000000000000000000000000000000000000000000b1
:2051fe0000000000000000000000000000c73e0f70032800000000000c00042000000000b2
:0d521e000000038140000000001405500056
:20522b00000000000000000000000000000000000000000000000000000000000000000063
:20524b00000000000000000000000000000000000000000000000000000000000000000043
:20526b0001c8f0c0000279b00000002000001ed1000000059a00000000001423eea5000007
:0d528b000000f7b344000000007ccc1500cb
:20529800800200000000000000000000000000000000000000000000000000000000000074
:2052b8000000000000000000000000000000000000000000000000000000000000000000d6
:2052d80000000f42000000a0000000000003bce5000000000800000000002c2bd05500009d
:0d52f8000001ad270c00000003c5f8000008
:20530500800000000000000000000000000000000000000000000000000000000000000008
:20532500000000000000000000000000000000000000000000000000000000000002002046
:2053450001c8f0c0380001bf282800e001e2878f7627800b809aa94800000000000000007b
:0d536500000001ebd482e0e2002eac141039
:2053720080000000000000000000000000000000000000000000000000000000000000009b
:20539200000000000000000000000000000000000000000000000000000000000008000ce7
:2053b20000000f40000000adc0000000c163b60ff800001180b015400000000000000000a8
:0d53d200000080c3d46000014014f800000a
:2053df000000000000000000000000000000000000000000000000000000000000000000ae
:2053ff0000000000000000000000000000000000000000000000000000000000000000008e
:20541f006548f0c0000058e93800084000006dea50030005801bbd40000000004ea5000015
:0d543f000580ed3ad4004a614000000000f5
:20544c00000000000000000000000000000000000000000000000000000000000000000040
:20546c0000000000100000000000000000000000000100000000000000000000000002000d
:20548c0020200f400018010340040040000234d0100100000050280000000000705500027b
:0d54ac008251c32e8400400020000000004b
:2054b9000003000000000000000000000000000000000000000000000000000000000000d0
:2054d9000000000000000000000000000000000000000000000000000000000000000006ad
:2054f9006548f0c00000d801e828000000023f9f7600000000573440800000680000000044
:0d5519000001a0000000000206afac14105d
:20552600000000000000000000000000000000000000000000000000000000000000000065
:20554600000000001000000000000000000000000000000000000000000000000000000035
:2055660020200f40000050b080280010000427dff800000d00f430c80000002800000002b9
:0d55860002900000000000014017f8000036
:205593000000000000000000000000000000000000000000000000000000000000000000f8
:2055b3000000000000000000000000000000000000000000000000000000000000000000d8
:2055d30001e8f0c000000009f295880201c0000000000000000029500000000000000000cb
:0d55f300107807a1400000000780000000b4
:20560000800200000000000000000000000000000000000000000000000000000000000008
:2056200000000000000000000000000000000000000000000000000000000000000000006a
:2056400000000f400000009f816000000002c000000000000f901680000000000000000084
:0d5660003000004140000000040000000088
:20566d0000000000000000000000000000000000000000000000000000000000000000001d
:20568d000000000000000000000000000000000000000000000000000000000000000000fd
:2056ad000168f0c0000098012e0400000002000000000000080000000000000000000011de
:0d56cd000080000000000000004000000010
:2056da000000000000000000000000000000000000000000000000000000000000000000b0
:2056fa00000000000000000000000000000000000000000000000000000000000000000090
:20571a0000000f400000b099a900000000024000000000001f000000000034000000001287
:0d573a008170000000000000c3400000006e
:20574700000000000000000000000000000000000000000000000000000000000000000042
:205767000000000000000000000000000000000000000000000000000000000000010026fb
:205787000168f0c000000080000000000002218f0000000180121684000006045a0800001e
:0d57a70018001d6bd400000006400000003b
:2057b400800000000000000000000000000000000000000000000000000000000000000055
:2057d4000000000000000000000000000000000000000000000000000000000000000004b1
:2057f40000200f40000001f00000000000042c00f00400038c7417c00000023e5e00100089
:0d58140000f0f38280000001c700000000da
:20582100000000000000000000000000000000000000000000000000000000000000000067
:20584100000000000000000000000000000000000000000000000000000000000004002023
:205861000168554000000083b3d400c001e28000000300000072c00000000034fb0a00008e
:0d5881000080e3fad400c000000000000029
:20588e000000000000000000000000000000000000000000000000000000000000000000fa
:2058ae000000000000000000000000000000000000000000000000000000000000040004d2
:2058ce000020554000000000c3d4000002400000000000000092810400001c7fdf08000093
:0d58ee0030700f6548000000000000000051
:2058fb0000000000000000000000000000000000000000000000000000000000000000008d
:20591b0000000000000000000000000000000000000000000000000000000000000000006c
:20593b000000a5500000019873d40000000697af5000000580b2ed00004000206c99000052
:0d595b000000edaf054000020076ca5000cc
:2059680000020000000000000000000000000000000000000000000000000000000000001d
:205988000000000000000000000000000000000000000000000000000000000000000000ff
:2059a80003c05a000000008943e802000000360ff080000000dfaa0000800c3afcfe00000e
:0d59c800000101f600000001c3fd055000c4
:2059d5000000000000000000000000000000000000000000000000000000000000000000b2
:2059f50000000000000000000000000000000000000000000000000000000000000e000084
:205a1500000000003800f8ab600000000206d5ef510380001af680020040013868fb0238ee
:0d5a3500000001ef0504e000000dcd102081
:205a4200000000000000000000000000000000000000000000000000000000000000000044
:205a6200000000000000000000000000000000000000000000000000000000000000000024
:205a82000000000000001181828000000042810f500000000034140000202c3270ff000019
:0d5aa20000500b7d00000000002f0c3000b4
:205aaf000000000000000000000000000000000000000000000000000000000000000000d7
:205acf0000000000000000000000000000000000000000000000000000000000000c0000ab
:205aef00001cf05000005007e21588000142d4e99020000000132b00800160040000003062
:0d5b0f000000096f0540400000000000008c
:205b1c00000000000000000000000000000000000000000000000000000000000000000069
:205b3c000000000000000000000000000000000000008000000000000000000000040000c5
:205b5c000010f000000008a9c20421000026b706200000000b042b00000014280000001008
:0d5b7c000000a1b600004000000000000085
:205b89000001000000000000000000000000000000000000000000000000000000000000fb
:205ba9000000000000000000000000000000000000000000000000000000000000000000dc
:205bc9000200a540800078e5f295000000000f8fa00000080a7b8000000000025ea5000021
:0d5be9000080b00000000000070000000078
:205bf60000000000000000000000000000000000000000000000000000000000000000008f
:205c160000000000000000000000000000000000000000000000000000000000000000006e
:205c360003c05a0000005103a40400000342e50f0000000110d03c0000000001d0550000b9
:0d5c56000051b00000000002c4000000007a
:205c6300000000000000000000000000000000000000000000000000000000000000000021
:205c8300000000000000000000000000000000000000000000000000000000000000000001
:205ca300040ef050000031f07a810000e067dcc0802010000a9ebd508000202beed102049b
:0d5cc3003000a00000000002079eca700023
:205cd0000000000000000000000000000000000000000000000000000000000000000000b4
:205cf000000000000000000000000000000000000000000000000000000000000000000094
:205d10003c00f000000008db41400000840602008000080010b8346040001c6ff0c30004f1
:0d5d30000000e0000000006147afca100055
:205d3d00000000000000000000000000000000000000000000000000000000000000000046
:205d5d00000000000000000000000000000000000000000000000000000000000000000026
:205d7d0030000000103001bba008800002029eada00010070100000000a00000000000000b
:0d5d9d0038001000000000000025ae0520b9
:205daa000000000000000000000000000000000000000000000000000000000000000000d9
:205dca000000000000000000000000000000000000000000000000000000000000000000b9
:205dea000000000010009085e400000002402dfa500008800a000000004000000000000005
:0d5e0a000000c00000000000039d08000023
:205e170000000000000000000000000000000000000000000000000000000000000000006b
:205e370000000000000000000000000000000000000000000000000000000000000000004b
:205e5700380000000000500b2c09000000002eedb020000500000000000000054aaf000075
:0d5e7700000000000000000000000000001e
:205e84000000000000000000000000000000000000000000000000000000000000000000fe
:205ea400000000000000000000000000000000000000000000000000000000000000000cd2
:205ec4004000000000000005ec00000060029f0c70000000800000000000243a50ff0000e3
:0d5ee40000000000000000000000000000b1
:205ef100000000000000000000000000000000000000000000000000000000000000000091
:205f110000000000000000000000000000000000000000000000000000000000000c000064
:205f3100000000000000000f2be800000042ad8ff0230027007b8000000000247ea5003004
:0d5f5100000010000000c0e206c0000000cb
:205f5e00000000000000000000000000000000000000000000000000000000000000000023
:205f7e00000000000000000000000000000000000000000000000000000000000000000003
:205f9e0020000000000090f703c000000020260fb080004000d0280000000475d0552000fe
:0d5fbe000000c0000000000247800000004d
:205fcb000000000000000000000000000000000000000000000000000000000000000000b6
:205feb00000000000000000000000000000000000000000000000000000000000000000096
:20600b000000000000000183a37c400001c00f85080000001e000000000000000000000017
:0d602b00001800000000000000019b1400a0
:20603800000200000000000000000000000000000000000000000000000000000000000046
:20605800000000000000000000000000000000000000000000000000000000000000000028
:2060780000000000000000ade7fc400000200305002000031b0000000000000000000000d2
:0d6098000000000000000000001cc7208078
:2060a5000000000000000000000000000000000000000000000000000000000000000000db
:2060c5000000000000000000000000000000000000000000000000000000000000000000bb
:2060e500000000003800d08bffdc80e000069c850c8780070033a9400e0001001ef04038db
:0d610500005803be8502e001e2000000002a
:2061120000000000000000000000000000000000000000000000000000000000000000006d
:2061320000000000000000000000000000000000000000000000000000000000000000004d
:2061520000000000000070ff73fc21000000040051800000009814000000002410f0008009
:0d6172000000013004008002640000000005
:20617f00000000000000000000000000000000000000000000000000000000000000000000
:20619f000000000000000000000000000000000000000000000000000000000000000000e0
:2061bf00000000003000018b3020884000031c8f080100001f57a1528c00000200a5400059
:0d61df00007000000000400000378a04043a
:2061ec00000000000000000000000000000000000000000000000000000000000000000093
:20620c00000000000000000000000000000000000000000000000000000000000000000072
:20622c000000000030000109400040c000000200f00300000afc114604040002405a0800da
:0d624c000008000000008020000c0f500032
:20625900000100000000000000000000000000000000000000000000000000000000000024
:20627900000000000000000000000000000000000000000000000000000000000000000005
:206299000000000000000001b100080000605c850c0000019816bd42000000000000000030
:0d62b9000000800000000002002f8f540044
:2062c6000000000000000000000000000000000000000000000000000000000000000000b8
:2062e600000000000000000000000000000000000000000000000000000000000000000098
:206306000000000000007000410040000002060050980000000c3d4000000000000000000d
:0d6326000001000000000003400c05000015
:2063330000000000000000000000000000000000000000000000000000000000000000004a
:2063530000000000000000000000000000000000000000000000000000000000000000002a
:2063730000000000000059a9b800000400003e850c00000800f3914080000004000000002d
:0d63930002000000000000000000000000fb
:2063a0000000000000000000000000000000000000000000000000000000000000000000dd
:2063c0000000000000000000000000000000000000000000000000000000000000000000bd
:2063e00000000000000000a17600040800002c005080000b0ed81000000c00380000000039
:0d640000000000000000000000000000008f
:20640d0000000000000000000000000000000000000000000000000000000000000000006f
:20642d0000000000000000000000000000000000000000000000000000000000000000004f
:20644d00000000000000d888039c0c020006d6850c000000007736808000000000a5400023
:0d646d0000d0000000000000400000000012
:20647a00000000000000000000000000000000000000000000000000000000000000000002
:20649a000000000000000000000000000000000000000000000000000000000000000000e2
:2064ba000000000000005109036c440000028400508010000b0c368000000001c05a000067
:0d64da0000b800000000000260000000009b
:2064e700000000000000000000000000000000000000000000000000000000000000000095
:20650700000000000000000000000000000000000000000000000000000000000000000074
:2065270000000000110500f83a004000606676850c08002f8f77bcc08000000000000000c6
:0d654700001891ba94001000400000000000
:20655400000000000000000000000000000000000000000000000000000000000000000027
:20657400000000000000000000000000000000000000000000000000000000000000000007
:206594000000000010800081750000000002ae005000001b083834c8000c0c0000000000f2
:0d65b4000009df415400000000000000005d
:2065c1000000000000000000000000000000000000000000000000000000000000000000ba
:2065e10000000000000000000000000000000000000000000000000000000000000000009a
:2066010000000000300001b1a401800002002e8506000008019689988c000030000000003b
:0d662100000005ab4408c000003dca540055
