:02000000ff00ff
:080002004c6174746963650030
:17000a00694345637562653220323032302e31322e32373934330071
:16002100506172743a2069434534304858344b2d545131343400f9
:1a003700446174653a204d6179203620323032352032303a32363a333000b0
:0200510000ffae
:040053007eaa997e6a
:02005700510056
:0200590001059f
:03005b00920020f0
:03005e00620367d3
:0300610072011019
:0300640082000017
:02006700110086
:02006900010193
:20006b000000000000000000000000000000000000000000000000800000000000000000f5
:20008b000000000004000000000000000000000000000007800000000000000000000000ca
:2000ab00000000000200000000000008000000000000000000000000000000000000000229
:0d00cb000000000000000800000000000020
:2000d800000000000000000000000000000000000000000000000000000000000000000008
:2000f800000000000000000000000000000000000000000080000000000000000000000068
:20011800000000000000000000000000003000000000000000000000000000000000000097
:0d01380000000000000000000000000000ba
:2001450000000000000000000000000000000000000000000000004000000000000000005a
:20016500000000000400000000000010000000000000000000000000000000000000000066
:20018500000000000100000000000004000000000000000000000000000000000000000154
:0d01a5000000000000000400000000000049
:2001b20000000000000000000000000000000000000000000000000000000000000000002d
:2001d20000000000000000000000000000000000000000000000000000000000000000000d
:2001f2000000000000000000000000000000000000000000000000000000000006000000e7
:0d02120000000000000000000000000000df
:20021f0000000000000000000000000000000000000000000000008000000000000000003f
:20023f00000000000800000010000000000000000000000000000000000000000000000087
:20025f0000000000020000000400000800000030000000000000000000000000000000023f
:0d027f000000000800000800000000000062
:20028c00000000000000000000000000000000000000000000000000000001000000000051
:2002ac000000000000000000d0000000000000000000000000000000000000000000000062
:2002cc0000000000000000000c0000000000003000000000000000000000000000000000d6
:0d02ec00000c000c000000000000000000ed
:2002f9000000000000000000000000000000000000000000000000000000000000000000e5
:200319000000000000000000000000100000000000000000000000000000000000000000b4
:200339000000000000000000000000000000000000000000000000000000000000000000a4
:0d0359000000000000000000000000000097
:20036600000000000000000000000000000000000000000000000000000000000000000077
:20038600000000000000000000000000000000000000000000000000000000000000000057
:2003a600000000000000000000000000000000000000000000000000000000000000000037
:0d03c600000000000000000000000000002a
:2003d300000000000008000000000000200000000000008000000000000200000000000060
:2003f3000800000000000020000000000000c000000000000202000000008000000000007e
:20041300020000000000140800000000000020000000000000800000000000020000000009
:0d0433000000080000000000802000000014
:2004400000000000000000000000000000000000000000000000000000000000000000009c
:2004600000000000000000000000000000000000000000000000000000000000000000007c
:2004800000000000000002000000000000000000000000000000000000000000000000005a
:0d04a0000000000000000000f0000000005f
:2004ad0000000000000000000000000000000000000000000000000000000000000000002f
:2004cd0000000000000000000000000000000000000000000003000000000000000000000c
:2004ed0000000000000000000000000000700010000000000000000000000000000000006f
:0d050d0000000400000000000000300000ad
:20051a000000000000000000000000000000000000000000000000000000000000000000c1
:20053a000000000000005800000000000000000000008000000300000000000000000000c6
:20055a00000000000000000000000008000000100000000000003000000000000000000039
:0d057a000000080000000800000010000054
:20058700000000000000000000000000000000000000000000000000000000000000000054
:2005a7000000000000008000000000000000000000000000000000000000000000000000b4
:2005c7000000000000000000000000000000000000000000e0000000000000010000000033
:0d05e70000000800000000000010000000ef
:2005f400000000000000000000000000000000000000000060000000000000000000000087
:20061400000000000000500000000000000000000000400000000000000000000000000036
:200634000000000000000000000000040000000000000000000000000000000000000000a2
:0d0654000000040000000400000000000091
:200661000000000000040000000000001000000000000040000000000081000000000000a4
:200681000400000000000010000000000000400000000000010000000000400000000000c4
:2006a1000100000000000004000000000000100000000000004000000000000100000000e3
:0d06c1000000040800000000001000000010
:2006ce00000000000000000000000000000000000000000000000000078000000000000085
:2006ee0000000000000000000000000000000000000080000000000000000000000000006c
:20070e000000000000000000000000080000000000000000000000000000000000000000c3
:0d072e0000000000000008000010000000a6
:20073b0000000000000000000000000000000000000000000000000000000000000000009e
:20075b0000000000000000000000000000000000000000000000000000000000000000007e
:20077b0000000000000000000000000000000000000000000000000000000000000000005e
:0d079b000000000000000000000000000051
:2007a80000020000000000000000000000000000000000000000000000000000000000002f
:2007c800000000000000000000000000000000000000000000000000000000000000000011
:2007e8000000000000000000000000000000000000000000000000000000000000000000f1
:0d08080000000000000000000000000000e3
:200815000000000000000000000000000000000000000000000000000000000000000000c3
:200835000000000000000000000000000000000000000000000000000000000000000000a3
:20085500000000000000000000000000000000000000000000000000000000000000000083
:0d0875000000000000000000000000000076
:20088200000000000000000000000000000000000000000000000000000000000000000056
:2008a200000000000000000000000000000000000000000000000000000000000000000036
:2008c200000000000000000000000000000000000000000000000000000000000000000016
:0d08e2000000000000000000000000000009
:2008ef000000000000000000000000000000000000000000000000000000000000000000e9
:20090f000000000000000000000000000000000000000000000000000000000000000000c8
:20092f0000000000000000000000000000000000000028000000000001000000000000047b
:0d094f00000000000000000000000000009b
:20095c0000000000000000000000000000000000000000000000000000000000000000007b
:20097c0000000000000000000000000000000000000000000000000000000000000000005b
:20099c0000000000000000000000000000000000000000000000000000000000000000003b
:0d09bc00000000000000000000000000002e
:2009c90000010000000000000000000000000000000000000000000000000000000000000d
:2009e9000000000000000000000000000000000000000000000000000000000000000000ee
:200a09000000000000000000000000000000000000000000000000000000010000000000cc
:0d0a290000000000000000000000000000c0
:200a36000000000000000000000000000000000000000000000000000000000000000000a0
:200a5600000000000000000000000000000000000000000000000000000000000000000080
:200a7600000000000000000000000000000000000000000000000000000000000000000060
:0d0a96000000000000000000000000000053
:200aa300000000000000000000000000000000000000000000000000000000000000000033
:200ac300000000000000000000000000000000000000000000000000000000000000000013
:200ae3000000000000000000000000000000000000000000000000000000000000000000f3
:0d0b030000000000000000000000000000e5
:200b1000000000000000000000000000000000000180000000000000000000000000000044
:200b30000000000000000000000000000000000000000000000000000000000000000000a5
:200b5000000000000000000000000000000000000000000000000000000000000000000085
:0d0b70000000000000000000000000000078
:200b7d00000000000000000000000000000000000000000000000000000000000000000058
:200b9d00000000000000000000000000000000000000000000000000000000000000000038
:200bbd00000000000000000000000000000000000000000000000000000000000000000018
:0d0bdd00000000000000000000000000000b
:200bea000000000000000000000000000000000000000000000000000000000000000000eb
:200c0a000000000000000000000000000000000000000000000000000000000000000000ca
:200c2a000000000000000000000000000000000000000000000000000000000000000000aa
:0d0c4a00000000000000000000000000009d
:200c570000000000000000000000000000000000000000000000000000000000000000007d
:200c770000000000000000000000000000000000000000000000000000000000000000005d
:200c970000000000000000000000000000000000000000000000000000000000000000003d
:0d0cb7000000000000000000000000000030
:200cc400000000000000000000000000000000000000000000000000000000000000000010
:200ce4000000000000000000000000000000000000000000000000000000000000000000f0
:200d04000000000000000000000000000000000000000000000000000000000000000000cf
:0d0d240000000000000000000000000000c2
:200d31000000000000000000000000000000000000000000000000000000000000000000a2
:200d5100000000000000000000000000000000000000000000000000000000000000000082
:200d7100000000000000000000000000000000000000000000000000000000000000000062
:0d0d91000000000000000000000000000055
:200d9e00000000000000000000000000000000000000000000000000000000000000000035
:200dbe00000000000000000000000000000000000000000000000000000000000000000015
:200dde000000000000000000000000000000000000000000000000000000000000000000f5
:0d0dfe0000000000000000000000000000e8
:200e0b000000000000000000000000000000000000000000000000000000000000000000c7
:200e2b000000000000000000000000000000000000000000000000000000000000000000a7
:200e4b00000000000000000000000000000000000000000000000000000000000000000087
:0d0e6b00000000000000000000000000007a
:200e7800000200000000000000000000000000000000000000000000000000000000000058
:200e980000000000000000000000000000000000000000000000000000000000000000003a
:200eb80000000000000000000000000000000000000000000000000000000000000000001a
:0d0ed800000000000000000000000000000d
:200ee5000000000000000000000000000000000000000000000000000000000000000000ed
:200f05000000000000000000000000000000000000000000000000000000000000000000cc
:200f25000000000000000000000000000000000000000000000000000000000000000000ac
:0d0f4500000000000000000000000000009f
:200f520000000000000000000000000000000000000000000000000000000000000000007f
:200f720000000000000000000000000000000000000000000000000000000000000000005f
:200f920000000000000000000000000000000000000000000000000000000000000000003f
:0d0fb2000000000000000000000000000032
:200fbf00000000000000000000000000000000000000000000000000000000000000000012
:200fdf000000000000000000000000000000000000000000000000000000000000000000f2
:200fff000000000000000000000000000000000000000000000000000000000000000000d2
:0d101f0000000000000000000000000000c4
:20102c000000000000000000000000000000000000000000000000000000000000000000a4
:20104c00000000000000000000000000000000000000000000000000000000000000000084
:20106c00000000000000000000000000000000000000000000000000000000000000000064
:0d108c000000000000000000000000000057
:20109900000100000000000000000000000000000000000000000000000000000000000036
:2010b900000000000000000000000000000000000000000000000000000000000000000017
:2010d9000000000000000000000000000000000000000000000000000000000000000000f7
:0d10f90000000000000000000000000000ea
:201106000000000000000000000000000000000000000000000000000000000000000000c9
:201126000000000000000000000000000000000000000000000000000000000000000000a9
:20114600000000000000000000000000000000000000000000000000000000000000000089
:0d116600000000000000000000000000007c
:2011730000000000000000000000000000000000000000000000000000000000000000005c
:2011930000000000000000000000000000000000000000000000000000000000000000003c
:2011b30000000000000000000000000000000000000000000000000000000000000000001c
:0d11d300000000000000000000000000000f
:2011e0000000000000000000000000000000000000000000000000000000000000000000ef
:201200000000000000000000000000000000000000000000000000000000000000000000ce
:201220000000000000000000000000000000000000000000000000000000000000000000ae
:0d12400000000000000000000000000000a1
:20124d00000000000000000000000000000000000000000000000000000000000000000081
:20126d00000000000000000000000000000000000000000000000000000000000000000061
:20128d00000000000000000000000000000000000000000000000000000000000000000041
:0d12ad000000000000000000000000000034
:2012ba00000000000000000000000000000000000000000000000000000000000000000014
:2012da000000000000000000000000000000000000000000000000000000000000000000f4
:2012fa000000000000000000000000000000000000000000000000000000000000000000d4
:0d131a0000000000000000000000000000c6
:201327000000000000000000000000000000000000000000000000000000000000000000a6
:20134700000000000000000000000000000000000000000000000000000000000000000086
:20136700000000000000000000000002000000000000000000000000000000000000000460
:0d1387000000000000000000000000000059
:20139400000000000000000000000000000000000000000000000000000000000000000039
:2013b400000000000000000000000000000000000000000000000000000000000000000019
:2013d4000000000000000000000000040000000000000000000000000000000000000000f5
:0d13f40000000000000000000000000000ec
:201401000000000000000000000000000000000000000000000000000000000000000000cb
:201421000000000000000000000000000000000000000000000000000000000000000000ab
:2014410000000000000000000000000000000000000000000000000000000000000000008b
:0d146100000000000000000000000000007e
:20146e0000000000000000000000000000000000000000000000000000000000000000005e
:20148e0000000000000000000000000000000000000000000000000000000000000000003e
:2014ae0000000000000000000000000000000000000000000000000000000000000000001e
:0d14ce000000000000000000000000000011
:2014db000000000000000000000000000000000000000000000000000000000000000000f1
:2014fb000000000000000000000000000000000000000000000000000000000000000000d1
:20151b000000000000000000000000000000000000000000000000000000000000000000b0
:0d153b0000000000000000000000000000a3
:20154800000200000000000000000000000000000000000000000000000000000000000081
:20156800000000000000000000000000000000000000000000000000000000000000000063
:20158800000000000000000000000000000000000000000000000000000000000000000043
:0d15a8000000000000000004000000000032
:2015b500000000000000000000000000000000000000000000000000000000000000000016
:2015d5000000000000000000000000000000000000000000000000000000000000000000f6
:2015f5000000000000000000000000000000000000000000000000000000000000000000d6
:0d16150000000000000000000000000000c8
:201622000000000000000000000000000000000000000000000000000000000000000000a8
:20164200000000000000000000000000000000000000000000000000000000000000000088
:20166200000000000000000000000000000000000000000000000000000000000000000068
:0d168200000000000000000000000000005b
:20168f0000000000000000000000000000000000000000000000000000000000000000003b
:2016af0000000000000000000000000000000000000000000000000000000000000000001b
:2016cf000000000000000000000000000000000000004000000000000000000000000000bb
:0d16ef0000000000000000000000000000ee
:2016fc000000000000000000000000000000000000000000000000000000000000000000ce
:20171c000000000000000000000000000000000000000000000000000000000000000000ad
:20173c0000000000000000000000000000000000000000000000000000000000000000008d
:0d175c000000000000000000000000000080
:2017690000010000000000000000000000000000000000000000000000000000000000005f
:20178900000000000000000000000000000000000000000000000000000000000000000040
:2017a900000000000000000000000000000000000000000000000000000000000000000020
:0d17c9000000000000000000000000000013
:2017d6000000000000000000000000000000000000000000000000000000000000000000f3
:2017f6000000000000000000000000000000000000000000000000000000000000000000d3
:201816000000000000000000000000000000000000000000000000000000000000000000b2
:0d183600280000000000000000000000007d
:20184300000000000000000000000000000000000000000000000000000000000000000085
:20186300000000000000000000000000000000000000000000000000000000000000000065
:20188300000000000000000000000000000000000000000000000000000000000000000045
:0d18a3000000000000000000000000000038
:2018b000000000000000000000000000000000000000000000000000000000000000000018
:2018d0000000000000000000000000000000000000000000000000000000000000000000f8
:2018f0000000000000000000000000000000000000000000000000000000000000000000d8
:0d19100000000000000000000000000000ca
:20191d000000000000000000000000000000000000000000000000000000000000000000aa
:20193d00000000000000000000000000000000000000000100000000000000000000000089
:20195d0000000000000000000000000000000000000000000000000000000000000000006a
:0d197d00000000000000000000000000005d
:20198a0000000000000000000000000000000000000000000000000000000000000000003d
:2019aa0000000000000000000000000000000000000000000000000000000000000000001d
:2019ca000000000000000000000000000000000000000000000000000000000000000000fd
:0d19ea0000000000000000000000000000f0
:2019f7000000000000000000000000000000000000000000000000000000000000000000d0
:201a17000000000000000000000000000000000000000000000000000000000000000000af
:201a370000000000000000000000000000000000000000000000000000000000000000008f
:0d1a57000000000000000000000000000082
:201a6400000000000000000000000000000000000000000000000000000000000000000062
:201a8400000000000000000000000000000000000000000000000000000000000000000042
:201aa400000000000000000000000000000000000000000000000000000000000000000022
:0d1ac4000000000000000000000000000015
:201ad1000000000000000000000000000000000000000000000000000000000000000000f5
:201af1000000000000000000000000000000000000000000000000000000000000000000d5
:201b11000000000000000000000000000000000000000000000000000000000000000000b4
:0d1b310000000000000000000000000000a7
:201b3e00000000000000000000000000000000000000000000000000000000000000000087
:201b5e00000000000000000000000000000000000000000000000000000000000000000067
:201b7e00000000000000000000000000000000000000000000000000000000000000000047
:0d1b9e00000000000000000000000000003a
:201bab0000000000000000000000000000000000000000000000000000000000000000001a
:201bcb000000000000000000000000000000000000002000000000000000000000000000da
:201beb000000000000000000000000000000000000000000000000000000000000000000da
:0d1c0b0000000000000000000000000000cc
:201c180080020000000000000000000000000000000000000000000000000000000000002a
:201c380000000000000000000000000000000000000040000000000000000000000000004c
:201c580000000000000000000000000000000000000000000000000000000000000000006c
:0d1c7800000000000000000000000000005f
:201c850000000000000000000000000000000000000000000000000000000000000000003f
:201ca50000000000000000000000000000000000000000000000000000000000000000001f
:201cc5000000000000000000000000000000000000000000000000000000000000000000ff
:0d1ce50000000000000000000000000000f2
:201cf200800000000000000000000000000000000000000000000000000000000000000052
:201d12000000000000000000000000000000000000000000000000000000000000000000b1
:201d3200000000000000000000000000000000000000000000000000000000000000000091
:0d1d52000000000000000000000000000084
:201d5f00000000000000000000000000000000000000000000000000000000000000000064
:201d7f00000000000000000000000000000000000000000000000000000000000000000044
:201d9f00000000000000000000000000000000000000000000000000000000000000000024
:0d1dbf000000000000000000000000000017
:201dcc000000000000000000000000000000000000000000000000080000000000000000ef
:201dec000000000000000000000000000000000000000000000000000000000000000000d7
:201e0c000000000000000000000000000000000000000000000000000000000000000000b6
:0d1e2c0000000000000000000000000000a9
:201e3900000300000000000000000000000000000000000000000000000000000000000086
:201e59000000000000000000000000000000000000000c000000000000000000000000005d
:201e7900000000000000000000000000000000000000000000000000000000000000000049
:0d1e9900000000000000000000000000003c
:201ea60000000000000000000000000000000000000000000000000000000000000000001c
:201ec6000000000000000000000000000000000000000000000000000000000000010000fb
:201ee6000000000000000000000000000000000000000000000000000000000000000000dc
:0d1f060000000000000000000000000000ce
:201f13000000000000000000000000000000000000000000000000000000000000000000ae
:201f330000000000000000000000000000000000000000000000000000000000000000008e
:201f530000000000000000000000000000000000000000000000000000000000000000006e
:0d1f73000000000000000000000000000061
:201f80004002000000000000000000000000000000000000000000000000000000000000ff
:201fa000000000000000000000000000000000000000000000000000000000000000000021
:201fc000000000000000000000000000000000000000000000000000000000000000000001
:0d1fe00000000000000000000000000000f4
:201fed000000000000000000000000000000000000000000000000000000000000000000d4
:20200d000000000000000000000000000000000000000000000000000000000000000000b3
:20202d00000000000000000000000000000000000000000000000000000000000000000093
:0d204d000000000000000000000000000086
:20205a00000000000000000000000000000000000000400000000000000000000000000026
:20207a00000000000000000000000000000000000000000000000000000000000000000046
:20209a00000000000000000000000000000000000000000000000000000000000000000026
:0d20ba000000000000000000000000000019
:2020c7000000000000000000000000000000000000000000000000000000000000000000f9
:2020e7000000000000000000000000000000000000000000000000000000000000020000d7
:202107000000000000000000000000000000000000000000000000000000000000000004b4
:0d212700000000000000001000000000009b
:2021340080000000000000000000000000000000000000000000000000000000000000000b
:2021540000000000000000000000000000000000000000000000000000000000000000006b
:2021740000000000000000000000000000000000000000000000000000000000000000004b
:0d2194000000000000000008000000000036
:2021a10000000000000000000000000000000000000000000000000000000000000000001e
:2021c1000000000000000000000000000000000000000000000000000000000000000000fe
:2021e1000000000000000000000000000000000000000000000000000000000000000000de
:0d22010000000000000000000000000000d0
:20220e000000000000000000000000000000000000000000000000000000000000000000b0
:20222e00000000000000000000000000000000000000000000000000000000000000000090
:20224e00000000000000000000000000000000000000002000000000000000000000000050
:0d226e000000000000000000000000000063
:20227b00000000000000000000000000000000000000000000000000000000000000000043
:20229b00000000000000000000000000000000000000000000000000000000000000000023
:2022bb00000000000000000000000000000000000000000000000000000000000000000003
:0d22db0000000000000000000000000000f6
:2022e800800200000000000000000000000000000000000000000000000000000000000054
:202308000000000000000000000000000000000000000000000000000000000000000000b5
:20232800000000000000000000000000000000000000000000000000000000000000000095
:0d2348000000000000000000000000000088
:20235500000000000000000000000000000000000000000000000000000000000000000068
:20237500000000000000000000000000000000000000000000000000000000000000000048
:20239500000000000000000000000000000000000000000000000000000000000000000028
:0d23b500000000000000000000000000001b
:2023c20080000000000000000000000000000000000000000000000000000000000000007b
:2023e2000000000000000000000000000000000000000000000000000000000000000000db
:202402000000000000000000000000000000000000000000000000000000000000000000ba
:0d24220000000000000000000000000000ad
:20242f0000000000000000000000000000000000000000000000010000000000000000008c
:20244f0000000000000000000000000000000000000000000000000000000000000200006b
:20246f00000000000000000000000000000000000000400000000000000000000000000409
:0d248f000000000000000000000000000040
:20249c00000000000000000000100000000000000000000000000000000000000000000010
:2024bc00000000000000000000000000000000000000000000000000000000000000000000
:2024dc000000000000000000000000000000000000000000000000000000000000000000e0
:0d24fc0000000000000000000000000000d3
:202509000003000000000000000000000000000000000000000000000000000000000000af
:20252900000000000000000000000000000000000000000000000000000000000000000092
:20254900000000000000000000000000000000000000000000000000000000000000000072
:0d2569000000000000000000000000000065
:20257600000000000000000000000000000000000000000000000000000000000000000045
:20259600000000000000000000000000000000000000000000000000000000000000000025
:2025b6000000000000000000000000100000000000000000000000000100000000000000f4
:0d25d60000000000000000000000000000f8
:2025e300400000000000000000000000000000000000000000000000000000000000000098
:202603000000000000000000000000000000000000000000000000000000000000000000b7
:20262300000000000000000000000000000000000000000000000000000000000000000097
:0d264300000000000000000000000000008a
:20265000000200000000000000000000000000000000000000000000000000000000000068
:2026700000000000000000000000000000000000000000000000000000000000000000004a
:20269000000000000000000000000000000000000000030000000000000000000000000027
:0d26b000000000000000000000000000001d
:2026bd000000000000000000000000000000000000000000000000000000000000000000fd
:2026dd000000000000000000000000000000000000000000000000000000000000000000dd
:2026fd000000000000000000000000000000000000000000000000000000000000000000bd
:0d271d0000000000000000000000000000af
:20272a0000000000000000000000000000000000000000000000000000000000000000008f
:20274a0000000000000000000000000000000000000000000000000000000000000000006f
:20276a0000000000000000000000000000000000000000000000000000000000000000004f
:0d278a000000000000000000000000000042
:20279700000000000000000000000000000000000000000000000000000000000000000022
:2027b700000000000000000000000000000000000000000000000000000000000000000002
:2027d7000000000000000000000000000000000000000000000000000100000000000000e1
:0d27f70000000000000000000000000000d5
:20280400800000000000000000000000000000000000000000000000000000000000000034
:20282400000000000000000000000000000000000000000000000000000000000000000094
:20284400000000000000000000000000000000000000000000000000000000000000000074
:0d2864000000000000000000000000000067
:20287100000000000000000000000000000000000000000000000000000000000000000047
:20289100000000000000000000000000000000000000000000000000000000000000000027
:2028b100000000000000000000000000000000000000000000000000000000000000000007
:0d28d10000000000000000000000000000fa
:2028de000000000000000000000000000000000000000000000000000000000000000000da
:2028fe000000000000000000000000000000000000000000000000000000000000000000ba
:20291e00000000000000000000000000000000000000000000000000000000000000000099
:0d293e00000000000000000000000000008c
:20294b0000000000000000000000000000000000000000000000000000000000000000006c
:20296b0000000000000000000000000000000000000000000000000000000000000000004c
:20298b0000000000000000000000000000000000000000000000000000000000000000002c
:0d29ab00000000000000000000000000001f
:2029b8000002000000000000000000000000000000000000000000000000000000000000fd
:2029d8000000000000000000000000000000000000000000000000000000000000000000df
:2029f8000000000000000000000000000000000000000000000000000000000000000000bf
:0d2a180000000000000000000000000000b1
:202a2500000000000000000000000000000000000000000000000000000000000000000091
:202a4500000000000000000000000000000000000000000000000000000000000000000071
:202a6500000000000000000000000000000000000000000000000000000000000000000051
:0d2a85000400000000000000000000000040
:202a92008000000000000000000000000000000000000000000000000000000000000000a4
:202ab200000000000000000000000000000000000000000000000000000000000000000004
:202ad2000000000000000000000000000000000000000000000000000000000000000000e4
:0d2af20000000000000000000000000000d7
:202aff000000000000000000000000000000000000000000000000000000000000000000b7
:202b1f00000000000000000000000000000000000000000000000000000000000000000096
:202b3f00000000000000000000000000000000000000000000000000000000000000000076
:0d2b5f000000000000000000000000000069
:202b6c008000000000000000001000000000000000000000000001000000000000000000b8
:202b8c00000000000000000000000000000000000000000000000000000000000000000029
:202bac00000000000000000000000000000000000000000000000000000000000000000009
:0d2bcc0000000000000000000000000000fc
:202bd9000003000000000000000000000000000000000000000000000000000000000000d9
:202bf9000000000000000000000000000000000000000000000000000000000000000000bc
:202c190000000000000000000000000000000000000000000000000000000000000000009b
:0d2c3900000000000000000000000000008e
:202c460000000000000000000000000000000000000000000000000000000000000000006e
:202c660000000000000000000000000000000000000000000000000000000000000000004e
:202c860000000000000000000000000000000000000000000000000001000000000000002d
:0d2ca6000000000000000000000000000021
:202cb3004000000000000000000000000000000000000000000000000000000000000000c1
:202cd3000000000000000000000000000000000000000000000000000000000000000000e1
:202cf300000000000000000000000028000000000000000000000000000000000000000495
:0d2d130000000000000000000000000000b3
:202d2000000200000000000000000000000000000000000000000000000000000000000091
:202d4000000000000000000000000000000000000000000000000000000000000000000073
:202d6000000000000000000000000000000000000000000000000000000000000000000053
:0d2d80000000000000000000000000000046
:202d8d00000000000000000000000000000000000000000000000000000000000000000026
:202dad00000000000000000000000000000000000000000000000000000000000000000006
:202dcd000000000000000000000000000000000000000000000000000000000000000000e6
:0d2ded0000000000000000000000000000d9
:202dfa000000000000000000000000000000000000000000000000000000000000000000b9
:202e1a00000000000000000000000000000000000000000000000000000000000000000098
:202e3a00000000000000000000000000000000000000000000000000000000000000000078
:0d2e5a00000000000000000000000000006b
:202e670000000000000000000000000000000000000000000000000000000000000000004b
:202e870000000000000000000000000000000000000000000000000000000000000000002b
:202ea7000000000000000000000000000000000000004000000000000000000000000000cb
:0d2ec70000000000000000000000000000fe
:202ed40080000000000000000000000000000000000000000000000000000000000000005e
:202ef4000000000000000000000000000000000000000000000000000000000000000000be
:202f140000000000000000000000000000000000000000000000000000000000000000009d
:0d2f34000000000000000000000000000090
:202f4100000000000000000000000000000000000000000000000000000000000000000070
:202f6100000000000000000000000000000000000000000000000000000000000000000050
:202f8100000000000000000000000000000000000000000000000000000000000000000030
:0d2fa1000000000000000000000000000023
:202fae00000000000000000000000000000000000000000000000000000000000000000003
:202fce000000000000000000000000000000000000000000000000000000000000000000e3
:202fee000000000000000000000000000000000000000000000000000000000000000000c3
:0d300e0000000000000000000000000000b5
:20301b00000000000000000000000000000000000000000000000000000000000000000095
:20303b0000000000000000000000000000008016801000000000000000000000000000004f
:20305b00000000000000000000000000000000000000000000000000000000000000000055
:0d307b000000000000000000000000000048
:20308800000200000000000000000000000000000000000000000000000000000000000026
:2030a80000000000000000000000000000001029400000000000000000000000000000008f
:2030c8000000000000000000000000000000000000000000000000000000000000000000e8
:0d30e80000000000000000000000000000db
:2030f5000000000000000000000000000000000000000000000000000000000000000000bb
:2031150000000000000000000000000000000000000000000000000000000000000000009a
:2031350000000000000000000000000000000000000000000000000000000000000000007a
:0d315500000000000000000000000000006d
:2031620000000000000000000000000000000000000000000000000000000000000000004d
:2031820000000000000000000000000001000000000000000000000000000000000000002c
:2031a20000000000000000000000000000000000000000000000000000000000000000000d
:0d31c2000000000000000000000000000000
:2031cf000000000000000000000000000000000000000000000000000000000000000000e0
:2031ef000000000000000000000000000000000000000000000000000000000000000000c0
:20320f0000000000000000000000000000000000000000000000000000000000000000009f
:0d322f000000000000000000000000000092
:20323c00000000000000000000000000000000000000000000000000000000000000000072
:20325c00000000000000000000000000000000000000000000000000000000000000000052
:20327c00000000000000000000000000000000000000000000000000000000000000000032
:0d329c00000000000000080000000000001d
:2032a900000100000000000000000000000000000000000000000000000000000000000004
:2032c9000000000000000000000003400000000000000000000000000000000000000000a2
:2032e9000000000000000000000000000000000000000000000000000000000000000000c5
:0d33090000000000000000000000000000b7
:20331600000000000000000000000000000000000000000000000000000000000000000097
:20333600000000000000000000000100000000000000000000000000000000000000000076
:20335600000000000000000000000000000000000000000000000000000000000000000057
:0d337600100000000000000000000000003a
:2033830000000000000000000000000000000000000000000000000000000000000000002a
:2033a30000000000000000000000000000000000000000000000000000000000000000000a
:2033c3000000000000000000000000000000000000000000000000000000000000000000ea
:0d33e30000000003fc80000000000000005e
:2033f0000000000000000000000000000000000000000000000000000000000000000000bd
:2034100000000000000000000000000000000000000000010000000000000000000000009b
:2034300000000000000000000000000000000000000000000000000000000000000000007c
:0d34500000000003fc02000000000000006e
:20345d0000000000000000000000000000000000000000000000000000000000000000004f
:20347d0000000000000000000000000000000000000000000000000000000000000000002f
:20349d000000000000000000000000000000000000002800000000000000000000000000e7
:0d34bd000000000000000000000000000002
:2034ca000000000000000000000000000000000000000000000000000000000000000000e2
:2034ea000000000000000000000000000000000000000000000000000000000000000000c2
:20350a00000000000000000000000000000000000000100000000000000000000000000091
:0d352a000000000000000000000000000094
:20353700000000000000000000000000000000000000000000000000000000000000000074
:20355700000000000000000000000000000000000000000000000000000000000000000054
:20357700000000000000000000000000000000000000000000000000000000000000000034
:0d3597000000000000000000000000000027
:2035a400000000000000000000000000000000000000000000000000000000000000000007
:2035c4000000000000000000000000000000000000000000000000000000000000000000e7
:2035e4000000000000000000000000000000000000000000000000000000000000000000c7
:0d36040000000000000000000000000000b9
:20361100000000000000000000000000000000000000000000000000000000000000000099
:20363100000000000000000000000000000000000000000000000000000000000000000079
:20365100000000000000000000000000000000000000000000000000000000000000000059
:0d367100000000000000000000000000004c
:20367e0000000000000000000000000000000000000000000000000000000000000000002c
:20369e0000000000000000000000000000000000000000000000000000000000000000000c
:2036be000000000000000000000000000000000000000000000000000000000000000000ec
:0d36de0000000000000000000000000000df
:2036eb000000000000000000000000000000000000000000000000000000000000000000bf
:20370b0000000000000000000000000000000000000000000000000000000000000000009e
:20372b0000000000000000000000000000000000000000000000000001000000000000007d
:0d374b000000000000000000000000000071
:2037580000020000000000000000000000000000000000000000000000000000000000004f
:20377800000000000000000000000000000000000000000000000000000000000000000031
:20379800000000000000000000000000000000000000000000000000000000000000000011
:0d37b8000000000000000000000000000004
:2037c5000000000000000000000000000000000000000000000000000000000000000000e4
:2037e5000000000000000000000000000000000000000000000000000000000000000000c4
:203805000000000000000000000000000000000000000000000000000e0000001cf04080c9
:0d3825000000000000000000000000000096
:20383200000000000000000000000000000000000000000000000000000000000000000076
:20385200000000000000000000000000000000000000000000000000000000000000000056
:203872000000000000000000000000000000000000000000000000000000000010f08000b6
:0d3892000000000000000000000000000029
:20389f00000000000000000000000000000000000000000000000000000000000000000009
:2038bf000000000000000000000000000000000000000000000000000000000000000000e9
:2038df000000000000000000000000000000000000000000000000000000000000000000c9
:0d38ff0000000000000000000000000000bc
:20390c0000000000000000000000000000000000000000000000000000000000000000009b
:20392c0000000000000000000000000000000000000000000000000000000000000000007b
:20394c0000000000000000000000000000000000000000000000000000000000000000005b
:0d396c000000000000000800000000000046
:2039790000010000000000000000000000000000000000000000000000000000000000002d
:2039990000000000000000000000000000000000000000000000000000000000000000000e
:2039b9000000000000000000000000000000000000000000000000000000000000000000ee
:0d39d90000000000000000000000000000e1
:2039e6000000000000000000000000000000000000000000000000000000000000000000c1
:203a06000000000000000000000000000000000000000000000000000000000000000000a0
:203a2600000000000000000000000000000000000000000000000000000000000000000080
:0d3a46000000000000000000000000000073
:203a5300000000000000000000000000000000000000000000000000000000000000000053
:203a7300000000000000000000000000000000000000000000000000000000000000000033
:203a9300000000000000000000000010000000000000000000000000000000000000000003
:0d3ab30000000000000000140000000000f2
:203ac0000000000000000000000000000000000000000000000000000000000000000000e6
:203ae0000000000000000000000000000000000000000000000000000000000000000000c6
:203b00000000000000000000000000000000000000000000000000000000000000000000a5
:0d3b20000000000000000000000000000098
:203b2d00000000000000000000000000000000000000000000000000000000000000000078
:203b4d00000000000000000000000000000000000000000000000000000000000000000058
:203b6d00000000000000000000000000000000000000000000000000000000040000000034
:0d3b8d00000000000000000000000000002b
:203b9a0000000000000000000000000000000000000000000000000000000000000000000b
:203bba000000000000000000000000000000000000000000000000000000000000000000eb
:203bda00000000000000000000000000000000000000018000000000000000340000000016
:0d3bfa0000000000000000000000000000be
:203c070000000000000000000000000000000000000000000000000000000000000000009d
:203c270000000000000000000000000000000000000000000000000000000000000000007d
:203c470000000000000000000000000000000000000000000000000000000000000000005d
:0d3c67000000000000000000000000000050
:203c7400000000000000000000000000000000000000000000000000000000000000000030
:203c9400000000000000000000000000000000000000000000000000000000000000000010
:203cb4000000000000000000000000000000000000000000000000000010000000000000e0
:0d3cd40000000000000000000000000000e3
:203ce1000000000000000000000000000000000000000000000000000000000000000000c3
:203d01000000000000000000000000000000000000000000000000000000000000000000a2
:203d21000000000000000000000000000000000000000000000000000c0000000000000076
:0d3d41000000000000000000000000000075
:203d4e00000000000000000000000000000000000000000000000000000000000000000055
:203d6e00000000000000000000000004000000000000000000000000000000000000000031
:203d8e00000000000000000000000000000000000000000000000000001000000000000005
:0d3dae000000000000000000000000000008
:203dbb000000000000000000000000000000000000000000000000000000000000000000e8
:203ddb000000000000000000000000000000000000000000000000000000000000000000c8
:203dfb000000000000000000000000000000000000000000000000000000000000000000a8
:0d3e1b00000000000000000000000000009a
:203e2800000200000000000000000000000000000000000000000000000000000000000078
:203e480000000000000000000000000000000000000000000000000000000000000000005a
:203e680000000000000000000000000000000000000000000000000000000000000000003a
:0d3e8800000000000000000000000000002d
:203e950000000000000000000000000000000000000000000000000000000000000000000d
:203eb5000000000000000000000000000000000000000000000000000000000000000000ed
:203ed5000000000000000000000000000000000000000000000000000e00000000000000bf
:0d3ef50000000000000000000000000000c0
:203f020000000000000000000000000000000000000000000000000000000000000000009f
:203f220000000000000000000000000000000000000000000000000000000000000000007f
:203f420000000000000000000000000000000000000000000000000000000000000000005f
:0d3f62000000000000000000000000000052
:203f6f00000000000000000000000000000000000000000000000000000000000000000032
:203f8f00000000000000000000000000000000000000000000000000000000000000000012
:203faf000000000000000000000000000000000000000000000000000000000000000000f2
:0d3fcf0000000000000000000000000000e5
:203fdc000000000000000000000000000000000000000000000000000000000000000000c5
:203ffc000000000000000000000000000000000000000000000000000000000000000000a5
:20401c00000000000000000000000000000000000000000000000000000000000000000084
:0d403c000000000000000000000000000077
:20404900000100000000000000000000000000000000000000000000000000000000000056
:20406900000000000000000000000000000000000000000000000000000000000000000136
:20408900000000000000000000000000000000000000000000000000000000000000000017
:0d40a900000000000000000000000000000a
:2040b6000000000000000000000000000000000000000000000000000000000000000000ea
:2040d6000000000000000000000000000000000000000000000000000000000000000000ca
:2040f6000000000000000000000000000000000000000000000000000000000000000000aa
:0d411600000000000000000000000000009c
:2041230000000000000000000000000000000000000000000000000000000000000000007c
:2041430000000000000000000000000000000000000000000000000000000000000000005c
:20416300000000000000000000000000000000000000000000000000001000000ef040806e
:0d418300000000000000010000000000002e
:2041900000000000000000000000000000000000000000000000000000000000000000000f
:2041b0000000000000000000000000000000000000000000000000000000000000000000ef
:2041d0000000000000000000000000000000000000000000000000000000000010f080004f
:0d41f00000000000000000000000000000c2
:2041fd000000000000000000000000000000000000000000000000000000000000000000a2
:20421d00000000000000000000000000000000000000000000000000000000000000000081
:20423d00000000000000000000000000000000000000000000000000000000000000000061
:0d425d004000000000000100000000000013
:20426a00000000000000000000000000000000000000000000000000000000000000000034
:20428a00000000000000000000000000000000000000000000000000000000000000000014
:2042aa000000000000000000000000000000000000000000000000000000000000000000f4
:0d42ca0000000000000000000000000000e7
:2042d7000000000000000000000000000000000000000000000000000000000000000000c7
:2042f7000000000000000000000000000000000000000000000000000000000000000000a7
:20431700000000000400000000000000000000000000000000000000000000000000000082
:0d4337000000000000001000000000000069
:20434400000000000000000000000000000000000000000000000000000000000000000059
:20436400000000000000000000000000000000000000000000000000000000000000000039
:2043840000000000004000000000000100000000000004000000000000100038000000008c
:0d43a40040000000000001000000000000cb
:2043b1000000000000000000000000000000000000000000000000000000000000000000ec
:2043d1000000000000000000000000000000000000000000000000000000000000000000cc
:2043f1000000000000000000000000000000000000000000000000000c000000000000029e
:0d441100c0000000000001000000000000dd
:20441e0000000000000000000000000000000000000000000000000000000000000000007e
:20443e0000000000000000000000000000000000000000000000000000000000000000005e
:20445e000000000000400000000000010000000000000400000000000010000000000001e8
:0d447e0040000000000001001000000000e0
:20448b00000000000000000000000000000000000000000000000000000000000000000011
:2044ab000000000000000000000000000000000000000000000000000000000000000000f1
:2044cb000000000000000000000000000000000000000005800000000000006800000000e4
:0d44eb0000000000000000000000000000c4
:2044f8000002000000000000000000000000000000000000000000000000000000000000a2
:20451800000000000000000000000000000000000000000000000000000000000000000083
:204538000000000000000000000000000000000000000000000000000000002c0000000037
:0d4558000000000000000000000000000056
:20456500000000000000000000000000000000000000000000000000000000000000000036
:20458500000000000000000000000000000000000000000000000000000000000000000016
:2045a5000000000000000000000000e00000200a54000005800000000e00000000000038cd
:0d45c500000000000000e000000000000009
:2045d2000000000000000000000000000000000000000000000000000000000000000000c9
:2045f2000000000000000000000000000000000000000000000000000000000000000000a9
:2046120000000000000000000000000000001c05a000000f090000000000000000000000af
:0d463200000000000000000000000000007b
:20463f0000000000000000000000000000000000000000000000000000000000000000005b
:20465f0000000000000000000000000000000000000000000000000000000000000000003b
:20467f000000000000000000000000c000000000000000000093a9400c000003c8c15000f7
:0d469f00000000000000000000000000000e
:2046ac000000000000000000000000000000000000000000000000000000000000000000ee
:2046cc000000000000000000000000000000000000000000000000000000000000000000ce
:2046ec00000000000000000000000040000000000000000000f415400c000001d9800000bf
:0d470c0000000000000000000000000000a0
:2047190000010000000000000000000000000000000000000000000000000000000000007f
:20473900000000000000000000000000000000000000000000000000000000000000000060
:204759000000000000000000000000000000000000000000001e344080000100000000002d
:0d4779000470006bc10100000000ef040897
:20478600000000000000000000000000000000000000000000000000000000000000000013
:2047a6000000000000000000000000000000000000000000000000000000000000000000f3
:2047c600000000000000000000000000000000000000000000f830c00000000000000000eb
:0d47e60002000003c200000000000f0800e8
:2047f3000000000000000000000000000000000000000000000000000000000000000000a6
:20481300000000000000000000000000000000000000000000000000000000000000400045
:204833000000000000000000000000020000000000000000001ba94000000000000000005f
:0d4853000000000000000000000000000058
:20486000000000000000000000000000000000000000000000000000000000000000000038
:204880000000000000000000000000000000000000000000000000000000000000002000f8
:2048a000000000000000000000000000000340000000000000f4154010000000000000005c
:0d48c00000000000000000000000000000eb
:2048cd000000000000000000000000000000000000000000000000000000000000000000cb
:2048ed000000000000000000000000000000000000000000000000000000000000000000ab
:20490d00000000000000000000000000000001cf04000000000000000000000000000001b5
:0d492d00000000000000000000000000007d
:20493a0000000000000000000000000000000000000000000000000000000000000000005d
:20495a0000000000000000000000000000000000000000000000000000000000000000003d
:20497a000000000000000000000000000003c10f000000000000000000000000000000004a
:0d499a008000000000000000000000000090
:2049a7000000000000000000000000000000000000000000000000000000000000000000f0
:2049c7000000000000000000000000000000000000000000000000000000000000000000d0
:2049e7000000000000000000000000000000000000000000088782800000007800000000a7
:0d4a07000000000000000000e000000000c2
:204a1400000000000000000000000000000000000000000000000000000000000000000082
:204a3400000000000000000000000000000000000000000000000000000000000000000062
:204a540000000000000000000000000000000000000000000e9401480000244000000000f3
:0d4a74000000000000000000000000000035
:204a8100000000000000000000000000000000000000000000000000000000000000000015
:204aa1000000000000000000000000000000000000000000000000000000000000000000f5
:204ac1000000000000000000000000c00000000000000000090000000c000c0000000030c4
:0d4ae100000000000000c000000000000008
:204aee000000000000000000000000000000000000000000000000000000000000000000a8
:204b0e00000000000000000000000000000000000000000000000000000000000000000087
:204b2e0000000000000000000000000002c00000000000001d000000000002000000000086
:0d4b4e00000000000000000000000000005a
:204b5b0000000000000000000000000000000000000000000000000000000000000000003a
:204b7b0000000000000000000000000000000000000000000000000000000000000000001a
:204b9b00000000000102008b27400024014006c5a00000059917ad4000001601d8bd0000e7
:0d4bbb0000001000000080000036ea040039
:204bc8000002000000000000000000000000000000000000000000000000000000000000cb
:204be8000000000000000000000000000000000000000000000000000000000000000000ad
:204c0800000000000000010b6f28000002600605f0040009089fffc0000000037ebc0000dc
:0d4c28000000a0000000000000070fa10028
:204c35008000000000000000000000000000000000000000000000000000000000000000df
:204c550000000000000000000000000000000000000000000000000000000000000000003f
:204c750000000000380000037000000000021dc760038008001abd508000003b5af500383a
:0d4c95000001a0000000200200000000004f
:204ca200800000000000000000000000000000000000000000000000000000000000000072
:204cc2000000000000000000000000000000000000000000000000000000000000000000d2
:204ce2000000000000000003c1402000004407efb00000050010346020000402e0500000a5
:0d4d0200000000000000800b4000000000d9
:204d0f00000000000000000000000000000000000000000000000000000000000000000084
:204d2f00000000000000000000000000000000000000000000000000000000000000000064
:204d4f00000000000010000832e00800016280e030000001807bbd40000020384cf500305d
:0d4d6f0000f01de3050440000000000000fe
:204d7c00000000000000000000100000000000000000000000000000000000000000000007
:204d9c000000000000000000000000000000000000010000000000000000000000000000f6
:204dbc00000000000000000d41d000000026c0a03010200000103fc000001c0010f5017032
:0d4ddc0000b8af660000800000000000007d
:204de9000003000000000000000000000000000000000000000000000000000000000000a7
:204e0900000000000000000000000000000000000000000000000000000000000000000089
:204e2900000000000000988833f4084000029ea0a0000007803b3d4004001e01de02008038
:0d4e4900008003a001010000000000000037
:204e560000000000000000000000000000000000000000000000000000000000000000003c
:204e760000000000000000000000000000000000000000000000000000000000000000001c
:204e9600000000000000110b03f8004003441d0000000000000c3d4005000202c8000000e7
:0d4eb60010d0054014000000024000000074
:204ec30040000000000000000000000000000000000000000000000000000000000000008f
:204ee3000000000000000000000000000000000000000000000000000000000000000000af
:204f0300000000000100d0afebd508000163b6aff020000000fbfdc000000028ec18020087
:0d4f23000100e000000000000000000000a0
:204f300000020000000000000000000000000000000000000000000000000000000000005f
:204f5000000000000000000000000000000000000000000000000000000000000000000041
:204f700000000000000010e5034680080000350fb00000000f53ff4000000041d0080000ad
:0d4f90000201000000000000000000000011
:204f9d000000000000000000000000000000000000000000000000000000000000000000f4
:204fbd000000000000000000000000000000000000000000000000000000000000000000d4
:204fdd000000000000000080318000000003c18f302020200017b9c0800c1e3018f3220009
:0d4ffd000000100000000000000000000097
:20500a00000000000000000000000000000000000000000000000000000000000000000086
:20502a00000000000000000000000000000000000000000000000000000000000000000066
:20504a000000000000000193664000000007400f3100025f0f943ec00000020000f320402e
:0d506a000010d00000000000000000000059
:20507700000000000000000000000000000000000000000000000000000000000000000019
:205097000000000000000000000000000000000000000000000000000000000000000000f9
:2050b70000000000000000032508000002438ec0000000000ef27dc000001405fef50000cd
:0d50d7000000eb3ed40000000000000000cf
:2050e40080000000000000000000000000000000000000000000000000000000000000002c
:2051040000000000000000000000000000000000000000000000000000000000000000008b
:20512400000000000000000b6f44020002e01f005000000f00773fc000000221d0a0000042
:0d51440000009bf28400000003c00000008a
:2051510000000000000000000000000000000000000000000000000000000000000000003e
:2051710000000000000000000000000000000000000000000000000000000000000000001e
:2051910000000000300080003080000001e71fc2000300051c00000000001e014ec1023051
:0d51b1000001c7aa810ac000000000000034
:2051be000000000000000000000000000000000000000000000000000000000000000000d1
:2051de000000000000000000000000000000000000000000000000000000000000000000b1
:2051fe00000000000000500364402000002007e00000000f9e000000000c063d60cb00004c
:0d521e0008010d81080000000000000000e4
:20522b00000000000000000000000000000000000000000000000000000000000000000063
:20524b00000000000000000000000000000000000000000000000000000000000000000043
:20526b00000000000038500000000004026027e8540000058193c000000014004db950008f
:0d528b000000e16a81000a00000000000040
:20529800800200000000000000000000000000000000000000000000000000000000000074
:2052b8000000000000000000000000000000000000000000000000000000000000000000d6
:2052d80000000000020008000000000200403d8400040000083769000000142a5f3400002c
:0d52f80000000f83e82004e000000000002b
:20530500000000000000000000000000000000000000000000000000000000000000000088
:20532500000000000000000000000000000000000000000000000000000000000000000068
:2053450000000000380001f5bfc102e001601fca5407800780963dd88e002000000000387b
:0d536500000000000000e000001dca040070
:2053720080000000000000000000000000000000000000000000000000000000000000009b
:205392000000000000000000000000000000000000000000000000000000000000000000fb
:2053b200000000000000019fadd200000340060a000400000a1c3fea4000040000000020b2
:0d53d2000000000000008000003e0fa10060
:2053df000000000000000000000000000000000000000000000000000000000000000000ae
:2053ff0000000000000000000000000000000000000000000000000000000000000000008e
:20541f0000000000010000a000000000001004efa003000580f7b0400c000004000000109a
:0d543f000000000000004000000000000020
:20544c00000000000000000000000000000000000000000000000000000000000000000040
:20546c00000000001000000000000000000000000000000000000000000000000000000010
:20548c0000000000008001000000001000101d0f000100000032a04004002c380000002098
:0d54ac000000000000008000000000000073
:2054b9000003000000000000000000000000000000000000000000000000000000000000d0
:2054d9000000000000000000000000000000000000000000000000000000000000000000b3
:2054f90000000000000001900000000000029daf500028050076fdd00000000000000000f4
:0d551900000000000000000800000000007d
:20552600000000000000000000000000000000000000000000000000000000000000000065
:20554600000000001000000000000000000000000000000000000000000000000000000035
:205566000000000000000190000000000004010f50000000003a3fe22000000000000000b5
:0d5586000070000000000010000000000098
:205593000000000000000000000000000000000000000000000000000000000000000000f8
:2055b3000000000000000000000000000000000000000000000000000000000000000000d8
:2055d3000000000000000001640000000142aeccc02000070eff080000a00039cb180000de
:0d55f30000000000000000000021eb14008b
:20560000800200000000000000000000000000000000000000000000000000000000000008
:2056200000000000000000000000000000000000000000000000000000000000000000006a
:20564000000000000000000f720000000024070c800000008e3e8000000000267f640000bd
:0d5660000000000000000000002cf72000fa
:20566d0000000000000000000000000000000000000000000000000000000000000000001d
:20568d000000000000000000000000000000000000000000000000000000000000000000fd
:2056ad000000000000000001aa9c08000203978bd00000500a00000000001d01fea500007c
:0d56cd0000000000000000000000000000d0
:2056da000000000000000000000000000000000000000000000000000000000000000000b0
:2056fa00000000000000000000000000000000000000000000000000000000000000000090
:20571a00000000000000500fc2940000014006c85000002d1d000000000002015055000069
:0d573a00000000000000000242000000001e
:20574700000000000000000000000000000000000000000000000000000000000000000042
:20576700000000000000000000000000000000000000000000000000000000000002000020
:20578700000000000000188000000000014024dbc00000000e373c0000000003dcd1020235
:0d57a7000000800000000000020000000073
:2057b400800000000000000000000000000000000000000000000000000000000000000055
:2057d4000000000000000000000000000000000000000000000000000000000000000000b5
:2057f400000000000000019000000000002385f3c0000001180c03c00008003be0c30000db
:0d5814000001000000000000024000000044
:20582100000000000000000000000000000000000000000000000000000000000000000067
:20584100000000000000000000000000000000000000000000000000000000000000000047
:20586100000000003000000000000000000207adb0230008000000000c0c1e3858b162305d
:0d588100000000000000c00000000000005a
:20588e000000000000000000000000000000000000000000000000000000000000000000fa
:2058ae000000000000000000000000000000000000000000000000000000000000000000da
:2058ce000000000000000000000000000002850c7000002b0e0000000000004000b100008d
:0d58ee000000000000000003c000000000ea
:2058fb0000000000000000000000000000000000000000000000000000000000000000008d
:20591b0000000000000000000000000000000000000000000000000000000000000000006c
:20593b00000000000000000b80020000006645add000000b81000000000004016ab50000e7
:0d595b000000000000008000078000000038
:2059680000020000000000000000000000000000000000000000000000000000000000001d
:205988000000000000000000000000000000000000000000000000000000000000000000ff
:2059a800000000000000000f81680c00000294bec00000058e000000000036014ea100000e
:0d59c800000080000000000004000000004e
:2059d5000000000000000000000000000000000000000000000000000000000000000000b2
:2059f500000000000000000000000000000000000000000000000000000000000000000092
:205a1500000000003800018f214381e000004daf50078020080000000e000001eea500380f
:0d5a350000b9a000000024000034cf540090
:205a4200000000000000000000000000000000000000000000000000000000000000000044
:205a6200000000000000000000000000000000000000000000000000000000000000000024
:205a8200000000000000000f001420000002430f500000501000000000000c3860550000c4
:0d5aa2000098000000008a00001e05008032
:205aaf000000000000000000000000000000000000000000000000000000000000000000d7
:205acf000000000000000000000000000000000000010000000000000000000000000000b6
:205aef00000000003000018523c200c00166b7a01023200000d7f05040017400cea00010e1
:0d5b0f000080a000000040000780000000a2
:205b1c00000000000000000000000000000000000000000000000000000000000000000069
:205b3c00000000000000000000000000000000000000000000000000000000000000000049
:205b5c000000000030009000003c00c000003605100100030cf7200000009e0050fa001003
:0d5b7c000051000000008000040000000047
:205b89000001000000000000000000000000000000000000000000000000000000000000fb
:205ba9000000000000000000000000000000000000000000000000000000000000000000dc
:205bc900000000000000981d2143800002e601c8f03010000000000001003e014cd10200e3
:0d5be9000039a9af050400004200000000d3
:205bf60000000000000000000000000000000000000000000000000000000000000000008f
:205c160000000000000000000000000000000000000000000000000000000000000000006e
:205c3600000000000000108f8014220000422d04f00020000e00000001000c3cc0c300009c
:0d5c560000080962000000002400000000aa
:205c6300000000000000000000000000000000000000000000000000000000000000000021
:205c8300000000000000000000000000000000000000000000000000000000000000000001
:205ca300000000000000000da14300000142adea340000051ad3705020000603fd41500079
:0d5cc30000000baf050200000025ef54109b
:205cd0000000000000000000000000000000000000000000000000000000000000000000b4
:205cf000000000000000000000000000000000000000000000000000000000000000000094
:205d1000000000000000000b001404000002ad903094000089ff2000000c3e005a8100017f
:0d5d300000000d2a00000002c03605000032
:205d3d00000000000000000000000000000000000000000000000000000000000000000046
:205d5d00000000000000000000000000000000000000000000000000000000000000000026
:205d7d0000000000000001bda14300000000400000000000013a4410200000286ea5000238
:0d5d9d0000100000000000004000000000a9
:205daa000000000000000000000000000000000000000000000000000000000000000000d9
:205dca000000000000000000000000000000000000000000000000000000000000000000b9
:205dea0000000000000000af0014040000038000000000010d1e684000000041e055000104
:0d5e0a00000000000000000020000000006b
:205e170000000000000000000000000000000000000000000000000000000000000000006b
:205e370000000000000000000000000000000000000000000000000000000000000000004b
:205e5700000000000000188da1430000e0e337aa70000000185b3fc000004604dad1020025
:0d5e7700000000000000000000000000001e
:205e84000000000000000000000000000000000000000000000000000000000000000000fe
:205ea4000000000000000000000000000000000000000000000000000000000000000000de
:205ec400000000000000010b80140400002416edb0000280101bff800000863950c3000045
:0d5ee40000000000000000000000000000b1
:205ef100000000000000000000000000000000000000000000000000000000000000000091
:205f1100000000000000000000000000000000000000000000000000000000000000000070
:205f310000000000000000bba14100000007c7e2643300001b000000000020294e5000b0ba
:0d5f5100000000000000c0000035af560049
:205f5e00000000000000000000000000000000000000000000000000000000000000000023
:205f7e00000000000000000000000000000000000000000000000000000000000000000003
:205f9e0000000000000000a98028040000022702508800000a0000000000040000500080ad
:0d5fbe000000000000000003c00e05000000
:205fcb000000000000000000000000000000000000000000000000000000000000000000b6
:205feb00000000000000000000000000000000000001000000000000000000000000000095
:20600b0000000000003800003bc1800000060e9df00800001cff828000000601cad1400019
:0d602b0000580000000002000021e0a0006d
:20603800000200000000000000000000000000000000000000000000000000000000000046
:20605800000000000000000000000000000000000001000000000000000000000000000027
:20607800000000000000008003c0000000001daff0000000107417c000000000cfa000003f
:0d6098000000000000000000001d0050008e
:2060a5000000000000000000000000000000000000000000000000000000000000000000db
:2060c5000000000000000000000000000000000000000000000000000000000000000000bb
:2060e5000000000038000000000000e00002bfdf70838000009fa9400e002068d8a560b8bd
:0d610500058000000000e0000040000000e8
:2061120000000000000000000000000000000000000000000000000000000000000000006d
:2061320000000000000000000000000000000000000000000000000000000000000000004d
:2061520000000000000000000000000001423cdff080000d08b014000000140040af2980da
:0d61720000d000000000000002000000004e
:20617f00000000000000000000000000000000000000000000000000000000000000000000
:20619f000000000000000000000000000000000000000000000000000000000000000000e0
:2061bf0000000000100000000000004000068d80822010058173a85280002003dd25503093
:0d61df0000000000000000000000000000b3
:2061ec00000000000000000000000000000000000000000000000000000000000000000093
:20620c00000000000000000000000000000000000000000000000000000000000000000072
:20622c000000000010000000000000c000043d00008028000ab40400000004017cbf8130e6
:0d624c000000000000000000000000000045
:20625900000100000000000000000000000000000000000000000000000000000000000024
:20627900000000000000000000000000000000000000000000000000000000000000000005
:20629900000000000000000000000000014001801020000018728140000016600000000032
:0d62b90000000762d4000000103ec5f00098
:2062c6000000000000000000000000000000000000000000000000000000000000000000b8
:2062e600000000000000000000000000000000000000000000000000000000000000000098
:2063060000000000000000000000000001602c002004000000b0000200003c2400000000b4
:0d6326000000013e84000002403c00f00039
:2063330000000000000000000000000000000000400000000000000000000000000000000a
:2063530000000000000000000000000000000000000000000000000000000000000000002a
:20637300000000000000000000000004e0627ec0000000019e9300008000200000000000b4
:0d6393000078000000000000000000000085
:2063a00000000000000000000000000000000000400000000000000000000000000000009d
:2063c0000000000000000000000000000000000000000000000000000000000000000000bd
:2063e000000000000000000000000000002205d8020000008e38200000001c000000000496
:0d640000000000000000000340000000004c
:20640d0000000000000000000000000000000000000000000000000000000000000000006f
:20642d0000000000000000000000000000000000000000000000000000000000000000004f
:20644d0000000000000000000000004a0246018f302900081c06bcc08000203c0000000032
:0d646d000000000000000000403f80e00043
:20647a00000000000000000000000000000000000000000000000000000000000000000002
:20649a000000000000000000000000000000000000000000000000000000000000000000e2
:2064ba000000000000000000000000400264010f3091000910043cc000003c600000000096
:0d64da000000000000000000203de0c000b8
:2064e700000000000000000000000000000000000000000000000000000000000000000095
:20650700000000000000000000000000000000000000000000000000000000000000000074
:2065270000000000000200000000000001462c081000130f018039c480014427f85540802e
:0d6547000019f00000000000000fa2463017
:20655400000000000000000000000000000000000000000000000000000000000000000027
:20657400000000000000000000000000000000000000000000000000000000000000000007
:20659400000000000004700000000000000406d000040001889036c00000ac62f05a8000ae
:0d65b4001809e00000000003400c02000088
:2065c10000000000000000000000000000000000400000000000000000000000000000007a
:2065e10000000000000000000000000000000000000000000000000000000000000000009a
:206601000000000030000000000000c0006056d204000015007f00400c0000036fe3483050
:0d6621000000000295000001404000000054
